{
  "address": "0x193055909A18a69098F8f23f437Fc8b7DE012362",
  "abi": [
    {
      "inputs": [
        {
          "internalType": "string",
          "name": "name",
          "type": "string"
        },
        {
          "internalType": "address",
          "name": "vault",
          "type": "address"
        }
      ],
      "stateMutability": "nonpayable",
      "type": "constructor"
    },
    {
      "anonymous": false,
      "inputs": [
        {
          "indexed": true,
          "internalType": "address",
          "name": "owner",
          "type": "address"
        },
        {
          "indexed": true,
          "internalType": "address",
          "name": "spender",
          "type": "address"
        },
        {
          "indexed": false,
          "internalType": "uint256",
          "name": "value",
          "type": "uint256"
        }
      ],
      "name": "Approval",
      "type": "event"
    },
    {
      "anonymous": false,
      "inputs": [
        {
          "indexed": false,
          "internalType": "uint256",
          "name": "vaultID",
          "type": "uint256"
        },
        {
          "indexed": false,
          "internalType": "address",
          "name": "vault",
          "type": "address"
        }
      ],
      "name": "CreateVaultType",
      "type": "event"
    },
    {
      "anonymous": false,
      "inputs": [
        {
          "indexed": true,
          "internalType": "bytes32",
          "name": "role",
          "type": "bytes32"
        },
        {
          "indexed": true,
          "internalType": "bytes32",
          "name": "previousAdminRole",
          "type": "bytes32"
        },
        {
          "indexed": true,
          "internalType": "bytes32",
          "name": "newAdminRole",
          "type": "bytes32"
        }
      ],
      "name": "RoleAdminChanged",
      "type": "event"
    },
    {
      "anonymous": false,
      "inputs": [
        {
          "indexed": true,
          "internalType": "bytes32",
          "name": "role",
          "type": "bytes32"
        },
        {
          "indexed": true,
          "internalType": "address",
          "name": "account",
          "type": "address"
        },
        {
          "indexed": true,
          "internalType": "address",
          "name": "sender",
          "type": "address"
        }
      ],
      "name": "RoleGranted",
      "type": "event"
    },
    {
      "anonymous": false,
      "inputs": [
        {
          "indexed": true,
          "internalType": "bytes32",
          "name": "role",
          "type": "bytes32"
        },
        {
          "indexed": true,
          "internalType": "address",
          "name": "account",
          "type": "address"
        },
        {
          "indexed": true,
          "internalType": "address",
          "name": "sender",
          "type": "address"
        }
      ],
      "name": "RoleRevoked",
      "type": "event"
    },
    {
      "anonymous": false,
      "inputs": [
        {
          "indexed": true,
          "internalType": "address",
          "name": "from",
          "type": "address"
        },
        {
          "indexed": true,
          "internalType": "address",
          "name": "to",
          "type": "address"
        },
        {
          "indexed": false,
          "internalType": "uint256",
          "name": "value",
          "type": "uint256"
        }
      ],
      "name": "Transfer",
      "type": "event"
    },
    {
      "inputs": [],
      "name": "BURNER_ROLE",
      "outputs": [
        {
          "internalType": "bytes32",
          "name": "",
          "type": "bytes32"
        }
      ],
      "stateMutability": "view",
      "type": "function"
    },
    {
      "inputs": [],
      "name": "DEFAULT_ADMIN_ROLE",
      "outputs": [
        {
          "internalType": "bytes32",
          "name": "",
          "type": "bytes32"
        }
      ],
      "stateMutability": "view",
      "type": "function"
    },
    {
      "inputs": [],
      "name": "DOMAIN_SEPARATOR",
      "outputs": [
        {
          "internalType": "bytes32",
          "name": "",
          "type": "bytes32"
        }
      ],
      "stateMutability": "view",
      "type": "function"
    },
    {
      "inputs": [],
      "name": "MINTER_ROLE",
      "outputs": [
        {
          "internalType": "bytes32",
          "name": "",
          "type": "bytes32"
        }
      ],
      "stateMutability": "view",
      "type": "function"
    },
    {
      "inputs": [
        {
          "internalType": "uint256",
          "name": "minimumCollateralPercentage_",
          "type": "uint256"
        },
        {
          "internalType": "address",
          "name": "priceSource_",
          "type": "address"
        },
        {
          "internalType": "string",
          "name": "name_",
          "type": "string"
        },
        {
          "internalType": "string",
          "name": "symbol_",
          "type": "string"
        },
        {
          "internalType": "address",
          "name": "token_",
          "type": "address"
        }
      ],
      "name": "addVault",
      "outputs": [],
      "stateMutability": "nonpayable",
      "type": "function"
    },
    {
      "inputs": [
        {
          "internalType": "address",
          "name": "owner",
          "type": "address"
        },
        {
          "internalType": "address",
          "name": "spender",
          "type": "address"
        }
      ],
      "name": "allowance",
      "outputs": [
        {
          "internalType": "uint256",
          "name": "",
          "type": "uint256"
        }
      ],
      "stateMutability": "view",
      "type": "function"
    },
    {
      "inputs": [
        {
          "internalType": "address",
          "name": "spender",
          "type": "address"
        },
        {
          "internalType": "uint256",
          "name": "amount",
          "type": "uint256"
        }
      ],
      "name": "approve",
      "outputs": [
        {
          "internalType": "bool",
          "name": "",
          "type": "bool"
        }
      ],
      "stateMutability": "nonpayable",
      "type": "function"
    },
    {
      "inputs": [
        {
          "internalType": "address",
          "name": "account",
          "type": "address"
        }
      ],
      "name": "balanceOf",
      "outputs": [
        {
          "internalType": "uint256",
          "name": "",
          "type": "uint256"
        }
      ],
      "stateMutability": "view",
      "type": "function"
    },
    {
      "inputs": [
        {
          "internalType": "address",
          "name": "from",
          "type": "address"
        },
        {
          "internalType": "uint256",
          "name": "amount",
          "type": "uint256"
        }
      ],
      "name": "burn",
      "outputs": [],
      "stateMutability": "nonpayable",
      "type": "function"
    },
    {
      "inputs": [],
      "name": "decimals",
      "outputs": [
        {
          "internalType": "uint8",
          "name": "",
          "type": "uint8"
        }
      ],
      "stateMutability": "view",
      "type": "function"
    },
    {
      "inputs": [
        {
          "internalType": "address",
          "name": "spender",
          "type": "address"
        },
        {
          "internalType": "uint256",
          "name": "subtractedValue",
          "type": "uint256"
        }
      ],
      "name": "decreaseAllowance",
      "outputs": [
        {
          "internalType": "bool",
          "name": "",
          "type": "bool"
        }
      ],
      "stateMutability": "nonpayable",
      "type": "function"
    },
    {
      "inputs": [
        {
          "internalType": "bytes32",
          "name": "role",
          "type": "bytes32"
        }
      ],
      "name": "getRoleAdmin",
      "outputs": [
        {
          "internalType": "bytes32",
          "name": "",
          "type": "bytes32"
        }
      ],
      "stateMutability": "view",
      "type": "function"
    },
    {
      "inputs": [
        {
          "internalType": "bytes32",
          "name": "role",
          "type": "bytes32"
        },
        {
          "internalType": "address",
          "name": "account",
          "type": "address"
        }
      ],
      "name": "grantRole",
      "outputs": [],
      "stateMutability": "nonpayable",
      "type": "function"
    },
    {
      "inputs": [
        {
          "internalType": "bytes32",
          "name": "role",
          "type": "bytes32"
        },
        {
          "internalType": "address",
          "name": "account",
          "type": "address"
        }
      ],
      "name": "hasRole",
      "outputs": [
        {
          "internalType": "bool",
          "name": "",
          "type": "bool"
        }
      ],
      "stateMutability": "view",
      "type": "function"
    },
    {
      "inputs": [
        {
          "internalType": "address",
          "name": "spender",
          "type": "address"
        },
        {
          "internalType": "uint256",
          "name": "addedValue",
          "type": "uint256"
        }
      ],
      "name": "increaseAllowance",
      "outputs": [
        {
          "internalType": "bool",
          "name": "",
          "type": "bool"
        }
      ],
      "stateMutability": "nonpayable",
      "type": "function"
    },
    {
      "inputs": [
        {
          "internalType": "address",
          "name": "account",
          "type": "address"
        },
        {
          "internalType": "uint256",
          "name": "amount",
          "type": "uint256"
        }
      ],
      "name": "mint",
      "outputs": [],
      "stateMutability": "nonpayable",
      "type": "function"
    },
    {
      "inputs": [],
      "name": "name",
      "outputs": [
        {
          "internalType": "string",
          "name": "",
          "type": "string"
        }
      ],
      "stateMutability": "view",
      "type": "function"
    },
    {
      "inputs": [
        {
          "internalType": "address",
          "name": "owner",
          "type": "address"
        }
      ],
      "name": "nonces",
      "outputs": [
        {
          "internalType": "uint256",
          "name": "",
          "type": "uint256"
        }
      ],
      "stateMutability": "view",
      "type": "function"
    },
    {
      "inputs": [
        {
          "internalType": "address",
          "name": "owner",
          "type": "address"
        },
        {
          "internalType": "address",
          "name": "spender",
          "type": "address"
        },
        {
          "internalType": "uint256",
          "name": "value",
          "type": "uint256"
        },
        {
          "internalType": "uint256",
          "name": "deadline",
          "type": "uint256"
        },
        {
          "internalType": "uint8",
          "name": "v",
          "type": "uint8"
        },
        {
          "internalType": "bytes32",
          "name": "r",
          "type": "bytes32"
        },
        {
          "internalType": "bytes32",
          "name": "s",
          "type": "bytes32"
        }
      ],
      "name": "permit",
      "outputs": [],
      "stateMutability": "nonpayable",
      "type": "function"
    },
    {
      "inputs": [
        {
          "internalType": "bytes32",
          "name": "role",
          "type": "bytes32"
        },
        {
          "internalType": "address",
          "name": "account",
          "type": "address"
        }
      ],
      "name": "renounceRole",
      "outputs": [],
      "stateMutability": "nonpayable",
      "type": "function"
    },
    {
      "inputs": [
        {
          "internalType": "bytes32",
          "name": "role",
          "type": "bytes32"
        },
        {
          "internalType": "address",
          "name": "account",
          "type": "address"
        }
      ],
      "name": "revokeRole",
      "outputs": [],
      "stateMutability": "nonpayable",
      "type": "function"
    },
    {
      "inputs": [
        {
          "internalType": "bytes4",
          "name": "interfaceId",
          "type": "bytes4"
        }
      ],
      "name": "supportsInterface",
      "outputs": [
        {
          "internalType": "bool",
          "name": "",
          "type": "bool"
        }
      ],
      "stateMutability": "view",
      "type": "function"
    },
    {
      "inputs": [],
      "name": "symbol",
      "outputs": [
        {
          "internalType": "string",
          "name": "",
          "type": "string"
        }
      ],
      "stateMutability": "view",
      "type": "function"
    },
    {
      "inputs": [],
      "name": "totalSupply",
      "outputs": [
        {
          "internalType": "uint256",
          "name": "",
          "type": "uint256"
        }
      ],
      "stateMutability": "view",
      "type": "function"
    },
    {
      "inputs": [
        {
          "internalType": "address",
          "name": "recipient",
          "type": "address"
        },
        {
          "internalType": "uint256",
          "name": "amount",
          "type": "uint256"
        }
      ],
      "name": "transfer",
      "outputs": [
        {
          "internalType": "bool",
          "name": "",
          "type": "bool"
        }
      ],
      "stateMutability": "nonpayable",
      "type": "function"
    },
    {
      "inputs": [
        {
          "internalType": "address",
          "name": "sender",
          "type": "address"
        },
        {
          "internalType": "address",
          "name": "recipient",
          "type": "address"
        },
        {
          "internalType": "uint256",
          "name": "amount",
          "type": "uint256"
        }
      ],
      "name": "transferFrom",
      "outputs": [
        {
          "internalType": "bool",
          "name": "",
          "type": "bool"
        }
      ],
      "stateMutability": "nonpayable",
      "type": "function"
    },
    {
      "inputs": [],
      "name": "vaultCount",
      "outputs": [
        {
          "internalType": "uint256",
          "name": "",
          "type": "uint256"
        }
      ],
      "stateMutability": "view",
      "type": "function"
    },
    {
      "inputs": [
        {
          "internalType": "uint256",
          "name": "",
          "type": "uint256"
        }
      ],
      "name": "vaults",
      "outputs": [
        {
          "internalType": "address",
          "name": "",
          "type": "address"
        }
      ],
      "stateMutability": "view",
      "type": "function"
    }
  ],
  "transactionHash": "0x6621ab6b5b4e110ccfd56fe7800b81c416f6a77151766d9e160116e07853e4da",
  "args": [
    "AVAI",
    "0xAC634762362a28389C19540ab4Dc88956B9669B5"
  ],
  "solcInputHash": "21c4a3b23199303e38f4c7b8e6a15dd8",
  "bytecode": "0x6101606040527f6e71edae12b1b97f4d1f60370fef10105fa2faae0126114a169c64845d6126c9610120523480156200003757600080fd5b5060405162002e0e38038062002e0e8339810160408190526200005a91620002d3565b81818180604051806040016040528060018152602001603160f81b815250848581600390805190602001906200009292919062000210565b508051620000a890600490602084019062000210565b5050825160209384012082519284019290922060c083815260e08290524660a0818152604080517f8b73c3c69bb8fe3d512ecc4cf759cc79239f7b179b0ffacaa9a75d522b39400f818a018190528183019890985260608082019690965260808082019490945230818401528151808203909301835290930190925281519190950120909352506101005282901b6001600160601b0319166101405250620001526000336200015c565b5050505062000411565b6200016882826200016c565b5050565b60008281526006602090815260408083206001600160a01b038516845290915290205460ff16620001685760008281526006602090815260408083206001600160a01b03851684529091529020805460ff19166001179055620001cc3390565b6001600160a01b0316816001600160a01b0316837f2f8788117e7eff1d82e926ec794901d17c78024a50270940304540a733656f0d60405160405180910390a45050565b8280546200021e90620003be565b90600052602060002090601f0160209004810192826200024257600085556200028d565b82601f106200025d57805160ff19168380011785556200028d565b828001600101855582156200028d579182015b828111156200028d57825182559160200191906001019062000270565b506200029b9291506200029f565b5090565b5b808211156200029b5760008155600101620002a0565b80516001600160a01b0381168114620002ce57600080fd5b919050565b60008060408385031215620002e6578182fd5b82516001600160401b0380821115620002fd578384fd5b818501915085601f83011262000311578384fd5b815181811115620003265762000326620003fb565b604051601f8201601f19908116603f01168101908382118183101715620003515762000351620003fb565b816040528281526020935088848487010111156200036d578687fd5b8691505b8282101562000390578482018401518183018501529083019062000371565b82821115620003a157868484830101525b9550620003b3915050858201620002b6565b925050509250929050565b600181811c90821680620003d357607f821691505b60208210811415620003f557634e487b7160e01b600052602260045260246000fd5b50919050565b634e487b7160e01b600052604160045260246000fd5b60805160a05160c05160e05161010051610120516101405160601c61299f6200046f60003960006109bb01526000610ba8015260006111ee0152600061123d015260006112180152600061119b015260006111c5015261299f6000f3fe60806040523480156200001157600080fd5b5060043610620001e95760003560e01c80637ecebe00116200010d578063a7c6a10011620000a3578063d505accf116200007a578063d505accf1462000461578063d53913931462000478578063d547741f14620004a0578063dd62ed3e14620004b757600080fd5b8063a7c6a100146200042a578063a9059cbb1462000433578063b997ac78146200044a57600080fd5b806395d89b4111620000e457806395d89b4114620003e95780639dc29fac14620003f3578063a217fddf146200040a578063a457c2d7146200041357600080fd5b80637ecebe0014620003665780638c64ea4a146200037d57806391d1485414620003ad57600080fd5b80632f2ff15d116200018357806336568abe116200015a57806336568abe14620002f557806339509351146200030c57806340c10f19146200032357806370a08231146200033a57600080fd5b80632f2ff15d14620002c2578063313ce56714620002db5780633644e51514620002eb57600080fd5b806318160ddd11620001c457806318160ddd146200024a57806323b872dd146200025d578063248a9ca31462000274578063282c51f3146200029a57600080fd5b806301ffc9a714620001ee57806306fdde03146200021a578063095ea7b31462000233575b600080fd5b62000205620001ff36600462001bfc565b620004f3565b60405190151581526020015b60405180910390f35b620002246200058d565b60405162000211919062001de9565b620002056200024436600462001b92565b62000627565b6002545b60405190815260200162000211565b620002056200026e36600462001adb565b6200063f565b6200024e6200028536600462001bbe565b60009081526006602052604090206001015490565b6200024e7f3c11d16cbaffd01df69ce1c404f6340ee057498f5f00246190ea54220576a84881565b620002d9620002d336600462001bd7565b62000708565b005b6040516012815260200162000211565b6200024e62000737565b620002d96200030636600462001bd7565b62000748565b620002056200031d36600462001b92565b620007d8565b620002d96200033436600462001b92565b62000818565b6200024e6200034b36600462001a87565b6001600160a01b031660009081526020819052604090205490565b6200024e6200037736600462001a87565b62000851565b620003946200038e36600462001bbe565b62000870565b6040516001600160a01b03909116815260200162000211565b62000205620003be36600462001bd7565b60009182526006602090815260408084206001600160a01b0393909316845291905290205460ff1690565b620002246200089b565b620002d96200040436600462001b92565b620008ac565b6200024e600081565b620002056200042436600462001b92565b620008e5565b6007546200024e565b620002056200044436600462001b92565b6200099a565b620002d96200045b36600462001c3e565b620009a9565b620002d96200047236600462001b1b565b62000b52565b6200024e7f9f2df0fed2c77648de5860a4cc508cd0818c85b8b8a1ab4ceeef8d981c8956a681565b620002d9620004b136600462001bd7565b62000cc2565b6200024e620004c836600462001aa4565b6001600160a01b03918216600090815260016020908152604080832093909416825291909152205490565b60007fffffffff0000000000000000000000000000000000000000000000000000000082167f7965db0b0000000000000000000000000000000000000000000000000000000014806200058757507f01ffc9a7000000000000000000000000000000000000000000000000000000007fffffffff000000000000000000000000000000000000000000000000000000008316145b92915050565b6060600380546200059e9062001efd565b80601f0160208091040260200160405190810160405280929190818152602001828054620005cc9062001efd565b80156200061d5780601f10620005f1576101008083540402835291602001916200061d565b820191906000526020600020905b815481529060010190602001808311620005ff57829003601f168201915b5050505050905090565b60006200063633848462000cec565b50600192915050565b60006200064e84848462000e48565b6001600160a01b038416600090815260016020908152604080832033845290915290205482811015620006ee5760405162461bcd60e51b815260206004820152602860248201527f45524332303a207472616e7366657220616d6f756e742065786365656473206160448201527f6c6c6f77616e636500000000000000000000000000000000000000000000000060648201526084015b60405180910390fd5b620006fd853385840362000cec565b506001949350505050565b6000828152600660205260409020600101546200072681336200106a565b620007328383620010f3565b505050565b60006200074362001197565b905090565b6001600160a01b0381163314620007c85760405162461bcd60e51b815260206004820152602f60248201527f416363657373436f6e74726f6c3a2063616e206f6e6c792072656e6f756e636560448201527f20726f6c657320666f722073656c6600000000000000000000000000000000006064820152608401620006e5565b620007d482826200128b565b5050565b3360008181526001602090815260408083206001600160a01b03871684529091528120549091620006369185906200081290869062001e5d565b62000cec565b7f9f2df0fed2c77648de5860a4cc508cd0818c85b8b8a1ab4ceeef8d981c8956a66200084581336200106a565b6200073283836200130f565b6001600160a01b03811660009081526005602052604081205462000587565b600781815481106200088157600080fd5b6000918252602090912001546001600160a01b0316905081565b6060600480546200059e9062001efd565b7f3c11d16cbaffd01df69ce1c404f6340ee057498f5f00246190ea54220576a848620008d981336200106a565b620007328383620013f4565b3360009081526001602090815260408083206001600160a01b038616845290915281205482811015620009815760405162461bcd60e51b815260206004820152602560248201527f45524332303a2064656372656173656420616c6c6f77616e63652062656c6f7760448201527f207a65726f0000000000000000000000000000000000000000000000000000006064820152608401620006e5565b62000990338585840362000cec565b5060019392505050565b60006200063633848462000e48565b6000620009b781336200106a565b60007f00000000000000000000000000000000000000000000000000000000000000008989898989898930604051602401620009fb98979695949392919062001dfe565b60408051601f198184030181529181526020820180517bffffffffffffffffffffffffffffffffffffffffffffffffffffffff167f997a014e000000000000000000000000000000000000000000000000000000001790525162000a5f9062001a12565b62000a6c92919062001dbd565b604051809103906000f08015801562000a89573d6000803e3d6000fd5b50600780546001810182556000919091527fa66cc928b5edb82af9bd49922954155ab7b0942694bea4ce44661d9a8736c6880180547fffffffffffffffffffffffff0000000000000000000000000000000000000000166001600160a01b038316179055905062000b1b7f3c11d16cbaffd01df69ce1c404f6340ee057498f5f00246190ea54220576a848826200157f565b62000b477f9f2df0fed2c77648de5860a4cc508cd0818c85b8b8a1ab4ceeef8d981c8956a6826200157f565b505050505050505050565b8342111562000ba45760405162461bcd60e51b815260206004820152601d60248201527f45524332305065726d69743a206578706972656420646561646c696e650000006044820152606401620006e5565b60007f000000000000000000000000000000000000000000000000000000000000000088888862000bd58c6200158b565b6040805160208101969096526001600160a01b0394851690860152929091166060840152608083015260a082015260c0810186905260e001604051602081830303815290604052805190602001209050600062000c3282620015b3565b9050600062000c44828787876200161f565b9050896001600160a01b0316816001600160a01b03161462000ca95760405162461bcd60e51b815260206004820152601e60248201527f45524332305065726d69743a20696e76616c6964207369676e617475726500006044820152606401620006e5565b62000cb68a8a8a62000cec565b50505050505050505050565b60008281526006602052604090206001015462000ce081336200106a565b6200073283836200128b565b6001600160a01b03831662000d695760405162461bcd60e51b8152602060048201526024808201527f45524332303a20617070726f76652066726f6d20746865207a65726f2061646460448201527f72657373000000000000000000000000000000000000000000000000000000006064820152608401620006e5565b6001600160a01b03821662000de75760405162461bcd60e51b815260206004820152602260248201527f45524332303a20617070726f766520746f20746865207a65726f20616464726560448201527f73730000000000000000000000000000000000000000000000000000000000006064820152608401620006e5565b6001600160a01b0383811660008181526001602090815260408083209487168084529482529182902085905590518481527f8c5be1e5ebec7d5bd14f71427d1e84f3dd0314c0f7b2291e5b200ac8c7c3b925910160405180910390a3505050565b6001600160a01b03831662000ec65760405162461bcd60e51b815260206004820152602560248201527f45524332303a207472616e736665722066726f6d20746865207a65726f20616460448201527f64726573730000000000000000000000000000000000000000000000000000006064820152608401620006e5565b6001600160a01b03821662000f445760405162461bcd60e51b815260206004820152602360248201527f45524332303a207472616e7366657220746f20746865207a65726f206164647260448201527f65737300000000000000000000000000000000000000000000000000000000006064820152608401620006e5565b6001600160a01b0383166000908152602081905260409020548181101562000fd55760405162461bcd60e51b815260206004820152602660248201527f45524332303a207472616e7366657220616d6f756e742065786365656473206260448201527f616c616e636500000000000000000000000000000000000000000000000000006064820152608401620006e5565b6001600160a01b038085166000908152602081905260408082208585039055918516815290812080548492906200100e90849062001e5d565b92505081905550826001600160a01b0316846001600160a01b03167fddf252ad1be2c89b69c2b068fc378daa952ba7f163c4a11628f55a4df523b3ef846040516200105b91815260200190565b60405180910390a35b50505050565b60008281526006602090815260408083206001600160a01b038516845290915290205460ff16620007d457620010ab816001600160a01b03166014620017d0565b620010b8836020620017d0565b604051602001620010cb92919062001d38565b60408051601f198184030181529082905262461bcd60e51b8252620006e59160040162001de9565b60008281526006602090815260408083206001600160a01b038516845290915290205460ff16620007d45760008281526006602090815260408083206001600160a01b03851684529091529020805460ff19166001179055620011533390565b6001600160a01b0316816001600160a01b0316837f2f8788117e7eff1d82e926ec794901d17c78024a50270940304540a733656f0d60405160405180910390a45050565b60007f0000000000000000000000000000000000000000000000000000000000000000461415620011e757507f000000000000000000000000000000000000000000000000000000000000000090565b50604080517f00000000000000000000000000000000000000000000000000000000000000006020808301919091527f0000000000000000000000000000000000000000000000000000000000000000828401527f000000000000000000000000000000000000000000000000000000000000000060608301524660808301523060a0808401919091528351808403909101815260c0909201909252805191012090565b60008281526006602090815260408083206001600160a01b038516845290915290205460ff1615620007d45760008281526006602090815260408083206001600160a01b0385168085529252808320805460ff1916905551339285917ff6391f5c32d9c69d2a47ea670b442974b53935d1edc7fd64eb21e047a839171b9190a45050565b6001600160a01b038216620013675760405162461bcd60e51b815260206004820152601f60248201527f45524332303a206d696e7420746f20746865207a65726f2061646472657373006044820152606401620006e5565b80600260008282546200137b919062001e5d565b90915550506001600160a01b03821660009081526020819052604081208054839290620013aa90849062001e5d565b90915550506040518181526001600160a01b038316906000907fddf252ad1be2c89b69c2b068fc378daa952ba7f163c4a11628f55a4df523b3ef9060200160405180910390a35050565b6001600160a01b038216620014725760405162461bcd60e51b815260206004820152602160248201527f45524332303a206275726e2066726f6d20746865207a65726f2061646472657360448201527f73000000000000000000000000000000000000000000000000000000000000006064820152608401620006e5565b6001600160a01b03821660009081526020819052604090205481811015620015035760405162461bcd60e51b815260206004820152602260248201527f45524332303a206275726e20616d6f756e7420657863656564732062616c616e60448201527f63650000000000000000000000000000000000000000000000000000000000006064820152608401620006e5565b6001600160a01b03831660009081526020819052604081208383039055600280548492906200153490849062001e9a565b90915550506040518281526000906001600160a01b038516907fddf252ad1be2c89b69c2b068fc378daa952ba7f163c4a11628f55a4df523b3ef9060200160405180910390a3505050565b620007d48282620010f3565b6001600160a01b03811660009081526005602052604090208054600181018255905b50919050565b600062000587620015c362001197565b836040517f19010000000000000000000000000000000000000000000000000000000000006020820152602281018390526042810182905260009060620160405160208183030381529060405280519060200120905092915050565b60007f7fffffffffffffffffffffffffffffff5d576e7357a4501ddfe92f46681b20a08211156200169e5760405162461bcd60e51b815260206004820152602260248201527f45434453413a20696e76616c6964207369676e6174757265202773272076616c604482015261756560f01b6064820152608401620006e5565b8360ff16601b1480620016b457508360ff16601c145b6200170d5760405162461bcd60e51b815260206004820152602260248201527f45434453413a20696e76616c6964207369676e6174757265202776272076616c604482015261756560f01b6064820152608401620006e5565b6040805160008082526020820180845288905260ff871692820192909252606081018590526080810184905260019060a0016020604051602081039080840390855afa15801562001762573d6000803e3d6000fd5b5050604051601f1901519150506001600160a01b038116620017c75760405162461bcd60e51b815260206004820152601860248201527f45434453413a20696e76616c6964207369676e617475726500000000000000006044820152606401620006e5565b95945050505050565b60606000620017e183600262001e78565b620017ee90600262001e5d565b67ffffffffffffffff8111156200181557634e487b7160e01b600052604160045260246000fd5b6040519080825280601f01601f19166020018201604052801562001840576020820181803683370190505b5090507f3000000000000000000000000000000000000000000000000000000000000000816000815181106200188657634e487b7160e01b600052603260045260246000fd5b60200101906001600160f81b031916908160001a9053507f780000000000000000000000000000000000000000000000000000000000000081600181518110620018e057634e487b7160e01b600052603260045260246000fd5b60200101906001600160f81b031916908160001a90535060006200190684600262001e78565b6200191390600162001e5d565b90505b6001811115620019ba577f303132333435363738396162636465660000000000000000000000000000000085600f16601081106200196457634e487b7160e01b600052603260045260246000fd5b1a60f81b8282815181106200198957634e487b7160e01b600052603260045260246000fd5b60200101906001600160f81b031916908160001a90535060049490941c93620019b28162001ee3565b905062001916565b50831562001a0b5760405162461bcd60e51b815260206004820181905260248201527f537472696e67733a20686578206c656e67746820696e73756666696369656e746044820152606401620006e5565b9392505050565b610a1f8062001f4b83390190565b80356001600160a01b038116811462001a3857600080fd5b919050565b60008083601f84011262001a4f578182fd5b50813567ffffffffffffffff81111562001a67578182fd5b60208301915083602082850101111562001a8057600080fd5b9250929050565b60006020828403121562001a99578081fd5b62001a0b8262001a20565b6000806040838503121562001ab7578081fd5b62001ac28362001a20565b915062001ad26020840162001a20565b90509250929050565b60008060006060848603121562001af0578081fd5b62001afb8462001a20565b925062001b0b6020850162001a20565b9150604084013590509250925092565b600080600080600080600060e0888a03121562001b36578283fd5b62001b418862001a20565b965062001b516020890162001a20565b95506040880135945060608801359350608088013560ff8116811462001b75578384fd5b9699959850939692959460a0840135945060c09093013592915050565b6000806040838503121562001ba5578182fd5b62001bb08362001a20565b946020939093013593505050565b60006020828403121562001bd0578081fd5b5035919050565b6000806040838503121562001bea578182fd5b8235915062001ad26020840162001a20565b60006020828403121562001c0e578081fd5b81357fffffffff000000000000000000000000000000000000000000000000000000008116811462001a0b578182fd5b600080600080600080600060a0888a03121562001c59578283fd5b8735965062001c6b6020890162001a20565b9550604088013567ffffffffffffffff8082111562001c88578485fd5b62001c968b838c0162001a3d565b909750955060608a013591508082111562001caf578485fd5b5062001cbe8a828b0162001a3d565b909450925062001cd390506080890162001a20565b905092959891949750929550565b6000815180845262001cfb81602086016020860162001eb4565b601f01601f19169290920160200192915050565b81835281816020850137506000828201602090810191909152601f909101601f19169091010190565b7f416363657373436f6e74726f6c3a206163636f756e742000000000000000000081526000835162001d7281601785016020880162001eb4565b7f206973206d697373696e6720726f6c6520000000000000000000000000000000601791840191820152835162001db181602884016020880162001eb4565b01602801949350505050565b6001600160a01b038316815260406020820152600062001de1604083018462001ce1565b949350505050565b60208152600062001a0b602083018462001ce1565b88815260006001600160a01b03808a16602084015260c0604084015262001e2a60c08401898b62001d0f565b838103606085015262001e3f81888a62001d0f565b9582166080850152509290921660a090910152509695505050505050565b6000821982111562001e735762001e7362001f34565b500190565b600081600019048311821515161562001e955762001e9562001f34565b500290565b60008282101562001eaf5762001eaf62001f34565b500390565b60005b8381101562001ed157818101518382015260200162001eb7565b83811115620010645750506000910152565b60008162001ef55762001ef562001f34565b506000190190565b600181811c9082168062001f1257607f821691505b60208210811415620015ad57634e487b7160e01b600052602260045260246000fd5b634e487b7160e01b600052601160045260246000fdfe608060405260405162000a1f38038062000a1f8339810160408190526200002691620004b8565b6200005360017fa3f0ad74e5423aebfd80d3ef4346578335a9a72aeaee59ff6cb3582b35133d51620005d5565b600080516020620009d8833981519152146200007f57634e487b7160e01b600052600160045260246000fd5b6200008d8282600062000095565b50506200063e565b620000a0836200017a565b6040516001600160a01b038416907f1cf3b03a6cf19fa2baba4df148e9dcabedea7f8a5c07840e207e5c089be95d3e90600090a2600082511180620000e25750805b15620001755762000173836001600160a01b0316635c60da1b6040518163ffffffff1660e01b815260040160206040518083038186803b1580156200012657600080fd5b505afa1580156200013b573d6000803e3d6000fd5b505050506040513d601f19601f820116820180604052508101906200016191906200049b565b836200032b60201b620000291760201c565b505b505050565b62000190816200035a60201b620000551760201c565b620001f05760405162461bcd60e51b815260206004820152602560248201527f455243313936373a206e657720626561636f6e206973206e6f74206120636f6e6044820152641d1c9858dd60da1b60648201526084015b60405180910390fd5b6200027a816001600160a01b0316635c60da1b6040518163ffffffff1660e01b815260040160206040518083038186803b1580156200022e57600080fd5b505afa15801562000243573d6000803e3d6000fd5b505050506040513d601f19601f820116820180604052508101906200026991906200049b565b6200035a60201b620000551760201c565b620002e15760405162461bcd60e51b815260206004820152603060248201527f455243313936373a20626561636f6e20696d706c656d656e746174696f6e206960448201526f1cc81b9bdd08184818dbdb9d1c9858dd60821b6064820152608401620001e7565b806200030a600080516020620009d883398151915260001b6200036060201b6200005b1760201c565b80546001600160a01b0319166001600160a01b039290921691909117905550565b6060620003538383604051806060016040528060278152602001620009f86027913962000363565b9392505050565b3b151590565b90565b6060833b620003c45760405162461bcd60e51b815260206004820152602660248201527f416464726573733a2064656c65676174652063616c6c20746f206e6f6e2d636f6044820152651b9d1c9858dd60d21b6064820152608401620001e7565b600080856001600160a01b031685604051620003e1919062000582565b600060405180830381855af49150503d80600081146200041e576040519150601f19603f3d011682016040523d82523d6000602084013e62000423565b606091505b5090925090506200043682828662000440565b9695505050505050565b606083156200045157508162000353565b825115620004625782518084602001fd5b8160405162461bcd60e51b8152600401620001e79190620005a0565b80516001600160a01b03811681146200049657600080fd5b919050565b600060208284031215620004ad578081fd5b62000353826200047e565b60008060408385031215620004cb578081fd5b620004d6836200047e565b60208401519092506001600160401b0380821115620004f3578283fd5b818501915085601f83011262000507578283fd5b8151818111156200051c576200051c62000628565b604051601f8201601f19908116603f0116810190838211818310171562000547576200054762000628565b8160405282815288602084870101111562000560578586fd5b62000573836020830160208801620005f9565b80955050505050509250929050565b6000825162000596818460208701620005f9565b9190910192915050565b6020815260008251806020840152620005c1816040850160208701620005f9565b601f01601f19169190910160400192915050565b600082821015620005f457634e487b7160e01b81526011600452602481fd5b500390565b60005b8381101562000616578181015183820152602001620005fc565b83811115620001735750506000910152565b634e487b7160e01b600052604160045260246000fd5b61038a806200064e6000396000f3fe60806040523661001357610011610017565b005b6100115b61002761002261005e565b610120565b565b606061004e838360405180606001604052806027815260200161032e60279139610144565b9392505050565b3b151590565b90565b600061009e7fa3f0ad74e5423aebfd80d3ef4346578335a9a72aeaee59ff6cb3582b35133d505473ffffffffffffffffffffffffffffffffffffffff1690565b73ffffffffffffffffffffffffffffffffffffffff16635c60da1b6040518163ffffffff1660e01b815260040160206040518083038186803b1580156100e357600080fd5b505afa1580156100f7573d6000803e3d6000fd5b505050506040513d601f19601f8201168201806040525081019061011b919061027a565b905090565b3660008037600080366000845af43d6000803e80801561013f573d6000f35b3d6000fd5b6060833b6101bf5760405162461bcd60e51b815260206004820152602660248201527f416464726573733a2064656c65676174652063616c6c20746f206e6f6e2d636f60448201527f6e7472616374000000000000000000000000000000000000000000000000000060648201526084015b60405180910390fd5b6000808573ffffffffffffffffffffffffffffffffffffffff16856040516101e791906102ae565b600060405180830381855af49150503d8060008114610222576040519150601f19603f3d011682016040523d82523d6000602084013e610227565b606091505b5091509150610237828286610241565b9695505050505050565b6060831561025057508161004e565b8251156102605782518084602001fd5b8160405162461bcd60e51b81526004016101b691906102ca565b60006020828403121561028b578081fd5b815173ffffffffffffffffffffffffffffffffffffffff8116811461004e578182fd5b600082516102c08184602087016102fd565b9190910192915050565b60208152600082518060208401526102e98160408501602087016102fd565b601f01601f19169190910160400192915050565b60005b83811015610318578181015183820152602001610300565b83811115610327576000848401525b5050505056fe416464726573733a206c6f772d6c6576656c2064656c65676174652063616c6c206661696c6564a2646970667358221220e9a106c16612f30760aedc3d01e0beaeb4528c5d976b5613e6b363655b5d277464736f6c63430008040033a3f0ad74e5423aebfd80d3ef4346578335a9a72aeaee59ff6cb3582b35133d50416464726573733a206c6f772d6c6576656c2064656c65676174652063616c6c206661696c6564a2646970667358221220625c7479551705f7e0ef919564177fabdee1d79323e0175b5149143b15b72cdd64736f6c63430008040033",
  "devdoc": {
    "kind": "dev",
    "methods": {
      "DOMAIN_SEPARATOR()": {
        "details": "See {IERC20Permit-DOMAIN_SEPARATOR}."
      },
      "addVault(uint256,address,string,string,address)": {
        "details": "Adds a vault after creation for book keeping on the stablecoin"
      },
      "allowance(address,address)": {
        "details": "See {IERC20-allowance}."
      },
      "approve(address,uint256)": {
        "details": "See {IERC20-approve}. Requirements: - `spender` cannot be the zero address."
      },
      "balanceOf(address)": {
        "details": "See {IERC20-balanceOf}."
      },
      "burn(address,uint256)": {
        "details": "give a burner role so that vaults can burn the token upon liquidation and paying back."
      },
      "decimals()": {
        "details": "Returns the number of decimals used to get its user representation. For example, if `decimals` equals `2`, a balance of `505` tokens should be displayed to a user as `5,05` (`505 / 10 ** 2`). Tokens usually opt for a value of 18, imitating the relationship between Ether and Wei. This is the value {ERC20} uses, unless this function is overridden; NOTE: This information is only used for _display_ purposes: it in no way affects any of the arithmetic of the contract, including {IERC20-balanceOf} and {IERC20-transfer}."
      },
      "decreaseAllowance(address,uint256)": {
        "details": "Atomically decreases the allowance granted to `spender` by the caller. This is an alternative to {approve} that can be used as a mitigation for problems described in {IERC20-approve}. Emits an {Approval} event indicating the updated allowance. Requirements: - `spender` cannot be the zero address. - `spender` must have allowance for the caller of at least `subtractedValue`."
      },
      "getRoleAdmin(bytes32)": {
        "details": "Returns the admin role that controls `role`. See {grantRole} and {revokeRole}. To change a role's admin, use {_setRoleAdmin}."
      },
      "grantRole(bytes32,address)": {
        "details": "Grants `role` to `account`. If `account` had not been already granted `role`, emits a {RoleGranted} event. Requirements: - the caller must have ``role``'s admin role."
      },
      "hasRole(bytes32,address)": {
        "details": "Returns `true` if `account` has been granted `role`."
      },
      "increaseAllowance(address,uint256)": {
        "details": "Atomically increases the allowance granted to `spender` by the caller. This is an alternative to {approve} that can be used as a mitigation for problems described in {IERC20-approve}. Emits an {Approval} event indicating the updated allowance. Requirements: - `spender` cannot be the zero address."
      },
      "mint(address,uint256)": {
        "details": "give a minter role so that vaults can mint upon borrowing."
      },
      "name()": {
        "details": "Returns the name of the token."
      },
      "nonces(address)": {
        "details": "See {IERC20Permit-nonces}."
      },
      "permit(address,address,uint256,uint256,uint8,bytes32,bytes32)": {
        "details": "See {IERC20Permit-permit}."
      },
      "renounceRole(bytes32,address)": {
        "details": "Revokes `role` from the calling account. Roles are often managed via {grantRole} and {revokeRole}: this function's purpose is to provide a mechanism for accounts to lose their privileges if they are compromised (such as when a trusted device is misplaced). If the calling account had been granted `role`, emits a {RoleRevoked} event. Requirements: - the caller must be `account`."
      },
      "revokeRole(bytes32,address)": {
        "details": "Revokes `role` from `account`. If `account` had been granted `role`, emits a {RoleRevoked} event. Requirements: - the caller must have ``role``'s admin role."
      },
      "supportsInterface(bytes4)": {
        "details": "See {IERC165-supportsInterface}."
      },
      "symbol()": {
        "details": "Returns the symbol of the token, usually a shorter version of the name."
      },
      "totalSupply()": {
        "details": "See {IERC20-totalSupply}."
      },
      "transfer(address,uint256)": {
        "details": "See {IERC20-transfer}. Requirements: - `recipient` cannot be the zero address. - the caller must have a balance of at least `amount`."
      },
      "transferFrom(address,address,uint256)": {
        "details": "See {IERC20-transferFrom}. Emits an {Approval} event indicating the updated allowance. This is not required by the EIP. See the note at the beginning of {ERC20}. Requirements: - `sender` and `recipient` cannot be the zero address. - `sender` must have a balance of at least `amount`. - the caller must have allowance for ``sender``'s tokens of at least `amount`."
      },
      "vaultCount()": {
        "details": "check on the current number of vault types deployed"
      }
    },
    "version": 1
  },
  "userdoc": {
    "kind": "user",
    "methods": {},
    "version": 1
  },
  "storageLayout": {
    "storage": [
      {
        "astId": 3555,
        "contract": "apps/avai/src/contracts/UrsaStablecoin.sol:AVAI",
        "label": "_balances",
        "offset": 0,
        "slot": "0",
        "type": "t_mapping(t_address,t_uint256)"
      },
      {
        "astId": 3561,
        "contract": "apps/avai/src/contracts/UrsaStablecoin.sol:AVAI",
        "label": "_allowances",
        "offset": 0,
        "slot": "1",
        "type": "t_mapping(t_address,t_mapping(t_address,t_uint256))"
      },
      {
        "astId": 3563,
        "contract": "apps/avai/src/contracts/UrsaStablecoin.sol:AVAI",
        "label": "_totalSupply",
        "offset": 0,
        "slot": "2",
        "type": "t_uint256"
      },
      {
        "astId": 3565,
        "contract": "apps/avai/src/contracts/UrsaStablecoin.sol:AVAI",
        "label": "_name",
        "offset": 0,
        "slot": "3",
        "type": "t_string_storage"
      },
      {
        "astId": 3567,
        "contract": "apps/avai/src/contracts/UrsaStablecoin.sol:AVAI",
        "label": "_symbol",
        "offset": 0,
        "slot": "4",
        "type": "t_string_storage"
      },
      {
        "astId": 4211,
        "contract": "apps/avai/src/contracts/UrsaStablecoin.sol:AVAI",
        "label": "_nonces",
        "offset": 0,
        "slot": "5",
        "type": "t_mapping(t_address,t_struct(Counter)4940_storage)"
      },
      {
        "astId": 2562,
        "contract": "apps/avai/src/contracts/UrsaStablecoin.sol:AVAI",
        "label": "_roles",
        "offset": 0,
        "slot": "6",
        "type": "t_mapping(t_bytes32,t_struct(RoleData)2557_storage)"
      },
      {
        "astId": 7163,
        "contract": "apps/avai/src/contracts/UrsaStablecoin.sol:AVAI",
        "label": "vaults",
        "offset": 0,
        "slot": "7",
        "type": "t_array(t_address)dyn_storage"
      }
    ],
    "types": {
      "t_address": {
        "encoding": "inplace",
        "label": "address",
        "numberOfBytes": "20"
      },
      "t_array(t_address)dyn_storage": {
        "base": "t_address",
        "encoding": "dynamic_array",
        "label": "address[]",
        "numberOfBytes": "32"
      },
      "t_bool": {
        "encoding": "inplace",
        "label": "bool",
        "numberOfBytes": "1"
      },
      "t_bytes32": {
        "encoding": "inplace",
        "label": "bytes32",
        "numberOfBytes": "32"
      },
      "t_mapping(t_address,t_bool)": {
        "encoding": "mapping",
        "key": "t_address",
        "label": "mapping(address => bool)",
        "numberOfBytes": "32",
        "value": "t_bool"
      },
      "t_mapping(t_address,t_mapping(t_address,t_uint256))": {
        "encoding": "mapping",
        "key": "t_address",
        "label": "mapping(address => mapping(address => uint256))",
        "numberOfBytes": "32",
        "value": "t_mapping(t_address,t_uint256)"
      },
      "t_mapping(t_address,t_struct(Counter)4940_storage)": {
        "encoding": "mapping",
        "key": "t_address",
        "label": "mapping(address => struct Counters.Counter)",
        "numberOfBytes": "32",
        "value": "t_struct(Counter)4940_storage"
      },
      "t_mapping(t_address,t_uint256)": {
        "encoding": "mapping",
        "key": "t_address",
        "label": "mapping(address => uint256)",
        "numberOfBytes": "32",
        "value": "t_uint256"
      },
      "t_mapping(t_bytes32,t_struct(RoleData)2557_storage)": {
        "encoding": "mapping",
        "key": "t_bytes32",
        "label": "mapping(bytes32 => struct AccessControl.RoleData)",
        "numberOfBytes": "32",
        "value": "t_struct(RoleData)2557_storage"
      },
      "t_string_storage": {
        "encoding": "bytes",
        "label": "string",
        "numberOfBytes": "32"
      },
      "t_struct(Counter)4940_storage": {
        "encoding": "inplace",
        "label": "struct Counters.Counter",
        "members": [
          {
            "astId": 4939,
            "contract": "apps/avai/src/contracts/UrsaStablecoin.sol:AVAI",
            "label": "_value",
            "offset": 0,
            "slot": "0",
            "type": "t_uint256"
          }
        ],
        "numberOfBytes": "32"
      },
      "t_struct(RoleData)2557_storage": {
        "encoding": "inplace",
        "label": "struct AccessControl.RoleData",
        "members": [
          {
            "astId": 2554,
            "contract": "apps/avai/src/contracts/UrsaStablecoin.sol:AVAI",
            "label": "members",
            "offset": 0,
            "slot": "0",
            "type": "t_mapping(t_address,t_bool)"
          },
          {
            "astId": 2556,
            "contract": "apps/avai/src/contracts/UrsaStablecoin.sol:AVAI",
            "label": "adminRole",
            "offset": 0,
            "slot": "1",
            "type": "t_bytes32"
          }
        ],
        "numberOfBytes": "64"
      },
      "t_uint256": {
        "encoding": "inplace",
        "label": "uint256",
        "numberOfBytes": "32"
      }
    }
  }
}