{
  "address": "0xa79A50CdBef164869c12f1DCAA31ec15423b46C9",
  "abi": [
    {
      "anonymous": false,
      "inputs": [
        {
          "indexed": true,
          "internalType": "address",
          "name": "owner",
          "type": "address"
        },
        {
          "indexed": true,
          "internalType": "address",
          "name": "approved",
          "type": "address"
        },
        {
          "indexed": true,
          "internalType": "uint256",
          "name": "tokenId",
          "type": "uint256"
        }
      ],
      "name": "Approval",
      "type": "event"
    },
    {
      "anonymous": false,
      "inputs": [
        {
          "indexed": true,
          "internalType": "address",
          "name": "owner",
          "type": "address"
        },
        {
          "indexed": true,
          "internalType": "address",
          "name": "operator",
          "type": "address"
        },
        {
          "indexed": false,
          "internalType": "bool",
          "name": "approved",
          "type": "bool"
        }
      ],
      "name": "ApprovalForAll",
      "type": "event"
    },
    {
      "anonymous": false,
      "inputs": [
        {
          "indexed": false,
          "internalType": "uint256",
          "name": "vaultID",
          "type": "uint256"
        },
        {
          "indexed": false,
          "internalType": "uint256",
          "name": "amount",
          "type": "uint256"
        }
      ],
      "name": "BorrowToken",
      "type": "event"
    },
    {
      "anonymous": false,
      "inputs": [
        {
          "indexed": false,
          "internalType": "uint256",
          "name": "newDebtRatio",
          "type": "uint256"
        }
      ],
      "name": "ChangeDebtRatio",
      "type": "event"
    },
    {
      "anonymous": false,
      "inputs": [
        {
          "indexed": false,
          "internalType": "uint256",
          "name": "newGainRatio",
          "type": "uint256"
        }
      ],
      "name": "ChangeGainRatio",
      "type": "event"
    },
    {
      "anonymous": false,
      "inputs": [
        {
          "indexed": false,
          "internalType": "uint256",
          "name": "vaultID",
          "type": "uint256"
        },
        {
          "indexed": false,
          "internalType": "address",
          "name": "creator",
          "type": "address"
        }
      ],
      "name": "CreateVault",
      "type": "event"
    },
    {
      "anonymous": false,
      "inputs": [
        {
          "indexed": false,
          "internalType": "uint256",
          "name": "vaultID",
          "type": "uint256"
        },
        {
          "indexed": false,
          "internalType": "uint256",
          "name": "amount",
          "type": "uint256"
        }
      ],
      "name": "DepositCollateral",
      "type": "event"
    },
    {
      "anonymous": false,
      "inputs": [
        {
          "indexed": false,
          "internalType": "uint256",
          "name": "vaultID",
          "type": "uint256"
        }
      ],
      "name": "DestroyVault",
      "type": "event"
    },
    {
      "anonymous": false,
      "inputs": [
        {
          "indexed": false,
          "internalType": "uint256",
          "name": "amount",
          "type": "uint256"
        },
        {
          "indexed": false,
          "internalType": "address",
          "name": "user",
          "type": "address"
        }
      ],
      "name": "GetPaid",
      "type": "event"
    },
    {
      "anonymous": false,
      "inputs": [
        {
          "indexed": false,
          "internalType": "uint256",
          "name": "vaultID",
          "type": "uint256"
        },
        {
          "indexed": false,
          "internalType": "address",
          "name": "owner",
          "type": "address"
        },
        {
          "indexed": false,
          "internalType": "address",
          "name": "buyer",
          "type": "address"
        },
        {
          "indexed": false,
          "internalType": "uint256",
          "name": "amountPaid",
          "type": "uint256"
        },
        {
          "indexed": false,
          "internalType": "uint256",
          "name": "tokenExtract",
          "type": "uint256"
        },
        {
          "indexed": false,
          "internalType": "uint256",
          "name": "closingFee",
          "type": "uint256"
        }
      ],
      "name": "LiquidateVault",
      "type": "event"
    },
    {
      "anonymous": false,
      "inputs": [
        {
          "indexed": false,
          "internalType": "uint256",
          "name": "newClosingFee",
          "type": "uint256"
        }
      ],
      "name": "NewClosingFee",
      "type": "event"
    },
    {
      "anonymous": false,
      "inputs": [
        {
          "indexed": false,
          "internalType": "uint256",
          "name": "newDebtCeiling",
          "type": "uint256"
        }
      ],
      "name": "NewDebtCeiling",
      "type": "event"
    },
    {
      "anonymous": false,
      "inputs": [
        {
          "indexed": false,
          "internalType": "uint256",
          "name": "newOpeningFee",
          "type": "uint256"
        }
      ],
      "name": "NewOpeningFee",
      "type": "event"
    },
    {
      "anonymous": false,
      "inputs": [
        {
          "indexed": false,
          "internalType": "uint256",
          "name": "newPew",
          "type": "uint256"
        }
      ],
      "name": "NewPeg",
      "type": "event"
    },
    {
      "anonymous": false,
      "inputs": [
        {
          "indexed": false,
          "internalType": "uint256",
          "name": "vaultID",
          "type": "uint256"
        },
        {
          "indexed": false,
          "internalType": "uint256",
          "name": "amount",
          "type": "uint256"
        },
        {
          "indexed": false,
          "internalType": "uint256",
          "name": "closingFee",
          "type": "uint256"
        }
      ],
      "name": "PayBackToken",
      "type": "event"
    },
    {
      "anonymous": false,
      "inputs": [
        {
          "indexed": true,
          "internalType": "bytes32",
          "name": "role",
          "type": "bytes32"
        },
        {
          "indexed": true,
          "internalType": "bytes32",
          "name": "previousAdminRole",
          "type": "bytes32"
        },
        {
          "indexed": true,
          "internalType": "bytes32",
          "name": "newAdminRole",
          "type": "bytes32"
        }
      ],
      "name": "RoleAdminChanged",
      "type": "event"
    },
    {
      "anonymous": false,
      "inputs": [
        {
          "indexed": true,
          "internalType": "bytes32",
          "name": "role",
          "type": "bytes32"
        },
        {
          "indexed": true,
          "internalType": "address",
          "name": "account",
          "type": "address"
        },
        {
          "indexed": true,
          "internalType": "address",
          "name": "sender",
          "type": "address"
        }
      ],
      "name": "RoleGranted",
      "type": "event"
    },
    {
      "anonymous": false,
      "inputs": [
        {
          "indexed": true,
          "internalType": "bytes32",
          "name": "role",
          "type": "bytes32"
        },
        {
          "indexed": true,
          "internalType": "address",
          "name": "account",
          "type": "address"
        },
        {
          "indexed": true,
          "internalType": "address",
          "name": "sender",
          "type": "address"
        }
      ],
      "name": "RoleRevoked",
      "type": "event"
    },
    {
      "anonymous": false,
      "inputs": [
        {
          "indexed": true,
          "internalType": "address",
          "name": "from",
          "type": "address"
        },
        {
          "indexed": true,
          "internalType": "address",
          "name": "to",
          "type": "address"
        },
        {
          "indexed": true,
          "internalType": "uint256",
          "name": "tokenId",
          "type": "uint256"
        }
      ],
      "name": "Transfer",
      "type": "event"
    },
    {
      "anonymous": false,
      "inputs": [
        {
          "indexed": false,
          "internalType": "uint256",
          "name": "vaultID",
          "type": "uint256"
        },
        {
          "indexed": false,
          "internalType": "address",
          "name": "from",
          "type": "address"
        },
        {
          "indexed": false,
          "internalType": "address",
          "name": "to",
          "type": "address"
        }
      ],
      "name": "TransferVault",
      "type": "event"
    },
    {
      "anonymous": false,
      "inputs": [
        {
          "indexed": false,
          "internalType": "uint256",
          "name": "vaultID",
          "type": "uint256"
        },
        {
          "indexed": false,
          "internalType": "uint256",
          "name": "amount",
          "type": "uint256"
        }
      ],
      "name": "WithdrawCollateral",
      "type": "event"
    },
    {
      "inputs": [],
      "name": "DEFAULT_ADMIN_ROLE",
      "outputs": [
        {
          "internalType": "bytes32",
          "name": "",
          "type": "bytes32"
        }
      ],
      "stateMutability": "view",
      "type": "function"
    },
    {
      "inputs": [],
      "name": "TREASURY_ROLE",
      "outputs": [
        {
          "internalType": "bytes32",
          "name": "",
          "type": "bytes32"
        }
      ],
      "stateMutability": "view",
      "type": "function"
    },
    {
      "inputs": [
        {
          "internalType": "address",
          "name": "to",
          "type": "address"
        },
        {
          "internalType": "uint256",
          "name": "tokenId",
          "type": "uint256"
        }
      ],
      "name": "approve",
      "outputs": [],
      "stateMutability": "nonpayable",
      "type": "function"
    },
    {
      "inputs": [
        {
          "internalType": "address",
          "name": "owner",
          "type": "address"
        }
      ],
      "name": "balanceOf",
      "outputs": [
        {
          "internalType": "uint256",
          "name": "",
          "type": "uint256"
        }
      ],
      "stateMutability": "view",
      "type": "function"
    },
    {
      "inputs": [
        {
          "internalType": "uint256",
          "name": "vaultID",
          "type": "uint256"
        },
        {
          "internalType": "uint256",
          "name": "amount",
          "type": "uint256"
        }
      ],
      "name": "borrowToken",
      "outputs": [],
      "stateMutability": "nonpayable",
      "type": "function"
    },
    {
      "inputs": [
        {
          "internalType": "address",
          "name": "to",
          "type": "address"
        }
      ],
      "name": "changeTreasury",
      "outputs": [],
      "stateMutability": "nonpayable",
      "type": "function"
    },
    {
      "inputs": [
        {
          "internalType": "uint256",
          "name": "vaultId_",
          "type": "uint256"
        }
      ],
      "name": "checkCost",
      "outputs": [
        {
          "internalType": "uint256",
          "name": "",
          "type": "uint256"
        }
      ],
      "stateMutability": "view",
      "type": "function"
    },
    {
      "inputs": [
        {
          "internalType": "uint256",
          "name": "vaultId_",
          "type": "uint256"
        }
      ],
      "name": "checkExtract",
      "outputs": [
        {
          "internalType": "uint256",
          "name": "",
          "type": "uint256"
        }
      ],
      "stateMutability": "view",
      "type": "function"
    },
    {
      "inputs": [
        {
          "internalType": "uint256",
          "name": "vaultId_",
          "type": "uint256"
        }
      ],
      "name": "checkLiquidation",
      "outputs": [],
      "stateMutability": "view",
      "type": "function"
    },
    {
      "inputs": [],
      "name": "closingFee",
      "outputs": [
        {
          "internalType": "uint256",
          "name": "",
          "type": "uint256"
        }
      ],
      "stateMutability": "view",
      "type": "function"
    },
    {
      "inputs": [],
      "name": "createVault",
      "outputs": [],
      "stateMutability": "nonpayable",
      "type": "function"
    },
    {
      "inputs": [],
      "name": "debtCeiling",
      "outputs": [
        {
          "internalType": "uint256",
          "name": "",
          "type": "uint256"
        }
      ],
      "stateMutability": "view",
      "type": "function"
    },
    {
      "inputs": [],
      "name": "debtRatio",
      "outputs": [
        {
          "internalType": "uint256",
          "name": "",
          "type": "uint256"
        }
      ],
      "stateMutability": "view",
      "type": "function"
    },
    {
      "inputs": [
        {
          "internalType": "uint256",
          "name": "vaultID",
          "type": "uint256"
        },
        {
          "internalType": "uint256",
          "name": "amount",
          "type": "uint256"
        }
      ],
      "name": "depositCollateral",
      "outputs": [],
      "stateMutability": "nonpayable",
      "type": "function"
    },
    {
      "inputs": [
        {
          "internalType": "uint256",
          "name": "vaultID",
          "type": "uint256"
        }
      ],
      "name": "destroyVault",
      "outputs": [],
      "stateMutability": "nonpayable",
      "type": "function"
    },
    {
      "inputs": [],
      "name": "gainRatio",
      "outputs": [
        {
          "internalType": "uint256",
          "name": "",
          "type": "uint256"
        }
      ],
      "stateMutability": "view",
      "type": "function"
    },
    {
      "inputs": [],
      "name": "gateway",
      "outputs": [
        {
          "internalType": "address",
          "name": "",
          "type": "address"
        }
      ],
      "stateMutability": "view",
      "type": "function"
    },
    {
      "inputs": [
        {
          "internalType": "uint256",
          "name": "tokenId",
          "type": "uint256"
        }
      ],
      "name": "getApproved",
      "outputs": [
        {
          "internalType": "address",
          "name": "",
          "type": "address"
        }
      ],
      "stateMutability": "view",
      "type": "function"
    },
    {
      "inputs": [
        {
          "internalType": "address",
          "name": "user",
          "type": "address"
        }
      ],
      "name": "getPaid",
      "outputs": [],
      "stateMutability": "nonpayable",
      "type": "function"
    },
    {
      "inputs": [],
      "name": "getPricePeg",
      "outputs": [
        {
          "internalType": "uint256",
          "name": "",
          "type": "uint256"
        }
      ],
      "stateMutability": "view",
      "type": "function"
    },
    {
      "inputs": [],
      "name": "getPriceSource",
      "outputs": [
        {
          "internalType": "uint256",
          "name": "",
          "type": "uint256"
        }
      ],
      "stateMutability": "view",
      "type": "function"
    },
    {
      "inputs": [
        {
          "internalType": "bytes32",
          "name": "role",
          "type": "bytes32"
        }
      ],
      "name": "getRoleAdmin",
      "outputs": [
        {
          "internalType": "bytes32",
          "name": "",
          "type": "bytes32"
        }
      ],
      "stateMutability": "view",
      "type": "function"
    },
    {
      "inputs": [
        {
          "internalType": "bytes32",
          "name": "role",
          "type": "bytes32"
        },
        {
          "internalType": "address",
          "name": "account",
          "type": "address"
        }
      ],
      "name": "grantRole",
      "outputs": [],
      "stateMutability": "nonpayable",
      "type": "function"
    },
    {
      "inputs": [
        {
          "internalType": "bytes32",
          "name": "role",
          "type": "bytes32"
        },
        {
          "internalType": "address",
          "name": "account",
          "type": "address"
        }
      ],
      "name": "hasRole",
      "outputs": [
        {
          "internalType": "bool",
          "name": "",
          "type": "bool"
        }
      ],
      "stateMutability": "view",
      "type": "function"
    },
    {
      "inputs": [
        {
          "internalType": "uint256",
          "name": "minimumCollateralPercentage_",
          "type": "uint256"
        },
        {
          "internalType": "address",
          "name": "priceSource_",
          "type": "address"
        },
        {
          "internalType": "string",
          "name": "name_",
          "type": "string"
        },
        {
          "internalType": "string",
          "name": "symbol_",
          "type": "string"
        },
        {
          "internalType": "address",
          "name": "token_",
          "type": "address"
        }
      ],
      "name": "initialize",
      "outputs": [],
      "stateMutability": "nonpayable",
      "type": "function"
    },
    {
      "inputs": [
        {
          "internalType": "address",
          "name": "owner",
          "type": "address"
        },
        {
          "internalType": "address",
          "name": "operator",
          "type": "address"
        }
      ],
      "name": "isApprovedForAll",
      "outputs": [
        {
          "internalType": "bool",
          "name": "",
          "type": "bool"
        }
      ],
      "stateMutability": "view",
      "type": "function"
    },
    {
      "inputs": [
        {
          "internalType": "uint256",
          "name": "vaultID_",
          "type": "uint256"
        }
      ],
      "name": "liquidateVault",
      "outputs": [],
      "stateMutability": "nonpayable",
      "type": "function"
    },
    {
      "inputs": [],
      "name": "minimumCollateralPercentage",
      "outputs": [
        {
          "internalType": "uint256",
          "name": "",
          "type": "uint256"
        }
      ],
      "stateMutability": "view",
      "type": "function"
    },
    {
      "inputs": [],
      "name": "name",
      "outputs": [
        {
          "internalType": "string",
          "name": "",
          "type": "string"
        }
      ],
      "stateMutability": "view",
      "type": "function"
    },
    {
      "inputs": [],
      "name": "openingFee",
      "outputs": [
        {
          "internalType": "uint256",
          "name": "",
          "type": "uint256"
        }
      ],
      "stateMutability": "view",
      "type": "function"
    },
    {
      "inputs": [
        {
          "internalType": "uint256",
          "name": "tokenId",
          "type": "uint256"
        }
      ],
      "name": "ownerOf",
      "outputs": [
        {
          "internalType": "address",
          "name": "",
          "type": "address"
        }
      ],
      "stateMutability": "view",
      "type": "function"
    },
    {
      "inputs": [
        {
          "internalType": "uint256",
          "name": "vaultID",
          "type": "uint256"
        },
        {
          "internalType": "uint256",
          "name": "amount",
          "type": "uint256"
        }
      ],
      "name": "payBackToken",
      "outputs": [],
      "stateMutability": "nonpayable",
      "type": "function"
    },
    {
      "inputs": [],
      "name": "priceSource",
      "outputs": [
        {
          "internalType": "contract AggregatorV3Interface",
          "name": "",
          "type": "address"
        }
      ],
      "stateMutability": "view",
      "type": "function"
    },
    {
      "inputs": [
        {
          "internalType": "bytes32",
          "name": "role",
          "type": "bytes32"
        },
        {
          "internalType": "address",
          "name": "account",
          "type": "address"
        }
      ],
      "name": "renounceRole",
      "outputs": [],
      "stateMutability": "nonpayable",
      "type": "function"
    },
    {
      "inputs": [
        {
          "internalType": "bytes32",
          "name": "role",
          "type": "bytes32"
        },
        {
          "internalType": "address",
          "name": "account",
          "type": "address"
        }
      ],
      "name": "revokeRole",
      "outputs": [],
      "stateMutability": "nonpayable",
      "type": "function"
    },
    {
      "inputs": [
        {
          "internalType": "address",
          "name": "from",
          "type": "address"
        },
        {
          "internalType": "address",
          "name": "to",
          "type": "address"
        },
        {
          "internalType": "uint256",
          "name": "tokenId",
          "type": "uint256"
        }
      ],
      "name": "safeTransferFrom",
      "outputs": [],
      "stateMutability": "nonpayable",
      "type": "function"
    },
    {
      "inputs": [
        {
          "internalType": "address",
          "name": "from",
          "type": "address"
        },
        {
          "internalType": "address",
          "name": "to",
          "type": "address"
        },
        {
          "internalType": "uint256",
          "name": "tokenId",
          "type": "uint256"
        },
        {
          "internalType": "bytes",
          "name": "_data",
          "type": "bytes"
        }
      ],
      "name": "safeTransferFrom",
      "outputs": [],
      "stateMutability": "nonpayable",
      "type": "function"
    },
    {
      "inputs": [
        {
          "internalType": "address",
          "name": "operator",
          "type": "address"
        },
        {
          "internalType": "bool",
          "name": "approved",
          "type": "bool"
        }
      ],
      "name": "setApprovalForAll",
      "outputs": [],
      "stateMutability": "nonpayable",
      "type": "function"
    },
    {
      "inputs": [
        {
          "internalType": "uint256",
          "name": "amount",
          "type": "uint256"
        }
      ],
      "name": "setClosingFee",
      "outputs": [],
      "stateMutability": "nonpayable",
      "type": "function"
    },
    {
      "inputs": [
        {
          "internalType": "uint256",
          "name": "debtCeiling_",
          "type": "uint256"
        }
      ],
      "name": "setDebtCeiling",
      "outputs": [],
      "stateMutability": "nonpayable",
      "type": "function"
    },
    {
      "inputs": [
        {
          "internalType": "uint256",
          "name": "debtRatio_",
          "type": "uint256"
        }
      ],
      "name": "setDebtRatio",
      "outputs": [],
      "stateMutability": "nonpayable",
      "type": "function"
    },
    {
      "inputs": [
        {
          "internalType": "uint256",
          "name": "gainRatio_",
          "type": "uint256"
        }
      ],
      "name": "setGainRatio",
      "outputs": [],
      "stateMutability": "nonpayable",
      "type": "function"
    },
    {
      "inputs": [
        {
          "internalType": "address",
          "name": "gateway_",
          "type": "address"
        }
      ],
      "name": "setGateway",
      "outputs": [],
      "stateMutability": "nonpayable",
      "type": "function"
    },
    {
      "inputs": [
        {
          "internalType": "uint256",
          "name": "amount",
          "type": "uint256"
        }
      ],
      "name": "setOpeningFee",
      "outputs": [],
      "stateMutability": "nonpayable",
      "type": "function"
    },
    {
      "inputs": [
        {
          "internalType": "address",
          "name": "priceSource_",
          "type": "address"
        }
      ],
      "name": "setPriceSource",
      "outputs": [],
      "stateMutability": "nonpayable",
      "type": "function"
    },
    {
      "inputs": [
        {
          "internalType": "address",
          "name": "stabilityPool_",
          "type": "address"
        }
      ],
      "name": "setStabilityPool",
      "outputs": [],
      "stateMutability": "nonpayable",
      "type": "function"
    },
    {
      "inputs": [
        {
          "internalType": "uint256",
          "name": "tokenPeg_",
          "type": "uint256"
        }
      ],
      "name": "setTokenPeg",
      "outputs": [],
      "stateMutability": "nonpayable",
      "type": "function"
    },
    {
      "inputs": [
        {
          "internalType": "uint256",
          "name": "treasury_",
          "type": "uint256"
        }
      ],
      "name": "setTreasury",
      "outputs": [],
      "stateMutability": "nonpayable",
      "type": "function"
    },
    {
      "inputs": [],
      "name": "stabilityPool",
      "outputs": [
        {
          "internalType": "address",
          "name": "",
          "type": "address"
        }
      ],
      "stateMutability": "view",
      "type": "function"
    },
    {
      "inputs": [
        {
          "internalType": "bytes4",
          "name": "interfaceId",
          "type": "bytes4"
        }
      ],
      "name": "supportsInterface",
      "outputs": [
        {
          "internalType": "bool",
          "name": "",
          "type": "bool"
        }
      ],
      "stateMutability": "view",
      "type": "function"
    },
    {
      "inputs": [],
      "name": "symbol",
      "outputs": [
        {
          "internalType": "string",
          "name": "",
          "type": "string"
        }
      ],
      "stateMutability": "view",
      "type": "function"
    },
    {
      "inputs": [],
      "name": "token",
      "outputs": [
        {
          "internalType": "contract IERC20",
          "name": "",
          "type": "address"
        }
      ],
      "stateMutability": "view",
      "type": "function"
    },
    {
      "inputs": [
        {
          "internalType": "uint256",
          "name": "index",
          "type": "uint256"
        }
      ],
      "name": "tokenByIndex",
      "outputs": [
        {
          "internalType": "uint256",
          "name": "",
          "type": "uint256"
        }
      ],
      "stateMutability": "view",
      "type": "function"
    },
    {
      "inputs": [
        {
          "internalType": "address",
          "name": "",
          "type": "address"
        }
      ],
      "name": "tokenDebt",
      "outputs": [
        {
          "internalType": "uint256",
          "name": "",
          "type": "uint256"
        }
      ],
      "stateMutability": "view",
      "type": "function"
    },
    {
      "inputs": [
        {
          "internalType": "address",
          "name": "owner",
          "type": "address"
        },
        {
          "internalType": "uint256",
          "name": "index",
          "type": "uint256"
        }
      ],
      "name": "tokenOfOwnerByIndex",
      "outputs": [
        {
          "internalType": "uint256",
          "name": "",
          "type": "uint256"
        }
      ],
      "stateMutability": "view",
      "type": "function"
    },
    {
      "inputs": [],
      "name": "tokenPeg",
      "outputs": [
        {
          "internalType": "uint256",
          "name": "",
          "type": "uint256"
        }
      ],
      "stateMutability": "view",
      "type": "function"
    },
    {
      "inputs": [
        {
          "internalType": "uint256",
          "name": "tokenId",
          "type": "uint256"
        }
      ],
      "name": "tokenURI",
      "outputs": [
        {
          "internalType": "string",
          "name": "",
          "type": "string"
        }
      ],
      "stateMutability": "view",
      "type": "function"
    },
    {
      "inputs": [],
      "name": "totalDebt",
      "outputs": [
        {
          "internalType": "uint256",
          "name": "",
          "type": "uint256"
        }
      ],
      "stateMutability": "view",
      "type": "function"
    },
    {
      "inputs": [],
      "name": "totalSupply",
      "outputs": [
        {
          "internalType": "uint256",
          "name": "",
          "type": "uint256"
        }
      ],
      "stateMutability": "view",
      "type": "function"
    },
    {
      "inputs": [
        {
          "internalType": "address",
          "name": "from",
          "type": "address"
        },
        {
          "internalType": "address",
          "name": "to",
          "type": "address"
        },
        {
          "internalType": "uint256",
          "name": "tokenId",
          "type": "uint256"
        }
      ],
      "name": "transferFrom",
      "outputs": [],
      "stateMutability": "nonpayable",
      "type": "function"
    },
    {
      "inputs": [
        {
          "internalType": "uint256",
          "name": "vaultID",
          "type": "uint256"
        },
        {
          "internalType": "address",
          "name": "to",
          "type": "address"
        }
      ],
      "name": "transferVault",
      "outputs": [],
      "stateMutability": "nonpayable",
      "type": "function"
    },
    {
      "inputs": [],
      "name": "treasury",
      "outputs": [
        {
          "internalType": "uint256",
          "name": "",
          "type": "uint256"
        }
      ],
      "stateMutability": "view",
      "type": "function"
    },
    {
      "inputs": [
        {
          "internalType": "uint256",
          "name": "",
          "type": "uint256"
        }
      ],
      "name": "vaultCollateral",
      "outputs": [
        {
          "internalType": "uint256",
          "name": "",
          "type": "uint256"
        }
      ],
      "stateMutability": "view",
      "type": "function"
    },
    {
      "inputs": [],
      "name": "vaultCounts",
      "outputs": [
        {
          "internalType": "uint256",
          "name": "",
          "type": "uint256"
        }
      ],
      "stateMutability": "view",
      "type": "function"
    },
    {
      "inputs": [
        {
          "internalType": "uint256",
          "name": "",
          "type": "uint256"
        }
      ],
      "name": "vaultDebt",
      "outputs": [
        {
          "internalType": "uint256",
          "name": "",
          "type": "uint256"
        }
      ],
      "stateMutability": "view",
      "type": "function"
    },
    {
      "inputs": [
        {
          "internalType": "uint256",
          "name": "vaultID",
          "type": "uint256"
        }
      ],
      "name": "vaultExists",
      "outputs": [
        {
          "internalType": "bool",
          "name": "",
          "type": "bool"
        }
      ],
      "stateMutability": "view",
      "type": "function"
    },
    {
      "inputs": [
        {
          "internalType": "uint256",
          "name": "vaultID",
          "type": "uint256"
        },
        {
          "internalType": "uint256",
          "name": "amount",
          "type": "uint256"
        }
      ],
      "name": "withdrawCollateral",
      "outputs": [],
      "stateMutability": "nonpayable",
      "type": "function"
    }
  ],
  "transactionHash": "0x126e8c742a945f48c0da8e0621ec93f40629853386df82017307fa1826fcf609",
  "args": [],
  "solcInputHash": "7d7f58c4618f3956ffe17cfd1d3613c7",
  "bytecode": "0x608060405234801561001057600080fd5b50615393806100206000396000f3fe608060405234801561001057600080fd5b50600436106104215760003560e01c8063728bbbb511610235578063b88d4fde11610135578063d547741f116100c8578063eb6a887d11610097578063fc0c546a1161007c578063fc0c546a14610930578063fc7b9c1814610944578063ffc73da71461094e57600080fd5b8063eb6a887d1461090a578063ece137321461091d57600080fd5b8063d547741f1461088d578063dcd68128146108a0578063e1c84ea4146108c4578063e985e9c5146108ce57600080fd5b8063cea55f5711610104578063cea55f571461082c578063d11a57ec14610836578063d310f49b1461084b578063d4a9b2c51461086c57600080fd5b8063b88d4fde146107e9578063bda53107146107fc578063c87b56dd1461080f578063cdfedd631461082257600080fd5b806391d14854116101c8578063a217fddf11610197578063b14f2a391161017c578063b14f2a39146107b0578063b1511cc9146107c3578063b86f6aef146107d657600080fd5b8063a217fddf14610795578063a22cb4651461079d57600080fd5b806391d148541461073857806395d89b411461077157806398d721e0146107795780639fc30f1c1461078c57600080fd5b806385e290a31161020457806385e290a3146106ec57806386375994146106ff57806390646b4a1461071257806390cf0bba1461072557600080fd5b8063728bbbb51461069b5780637558abc8146106a5578063767a7b05146106c657806385af3c16146106d957600080fd5b80632f2ff15d1161034057806344382f0f116102d357806361d027b3116102a257806363b8817c1161028757806363b8817c1461066257806370a08231146106755780637139c9291461068857600080fd5b806361d027b3146106455780636352211e1461064f57600080fd5b806344382f0f1461060f5780634f6ccce71461061757806356572ac01461062a5780635d12928b1461063d57600080fd5b80633db991771161030f5780633db99177146105c35780633e61facd146105d657806341a5068f146105e957806342842e0e146105fc57600080fd5b80632f2ff15d146105805780632f745c5914610593578063311f392a146105a657806336568abe146105b057600080fd5b8063116191b6116103b857806320531bc91161038757806320531bc91461052c57806323b872dd14610540578063248a9ca3146105535780632935d2bc1461057657600080fd5b8063116191b6146104f357806311b4a8321461050757806318160ddd1461051a5780631c883e7b1461052257600080fd5b806306fdde03116103f457806306fdde03146104a5578063081812fc146104ba57806308ec5927146104cd578063095ea7b3146104e057600080fd5b806301e49d0a1461042657806301ffc9a71461043b578063048c661d14610463578063048de3811461048f575b600080fd5b610439610434366004614f07565b610961565b005b61044e610449366004614f41565b610a0d565b60405190151581526020015b60405180910390f35b61013a54610477906001600160a01b031681565b6040516001600160a01b03909116815260200161045a565b610497610a1e565b60405190815260200161045a565b6104ad610ab3565b60405161045a91906151b5565b6104776104c8366004614f07565b610b45565b6104396104db36600461501d565b610bda565b6104396104ee366004614ec2565b610f52565b61013b54610477906001600160a01b031681565b610497610515366004614f07565b611084565b609954610497565b6104976101305481565b61013754610477906001600160a01b031681565b61043961054e366004614dd8565b611126565b610497610561366004614f07565b600090815260fb602052604090206001015490565b61049761012e5481565b61043961058e366004614f1f565b6111ad565b6104976105a1366004614ec2565b6111d3565b6104976101355481565b6104396105be366004614f1f565b61127b565b6104396105d1366004614f07565b611307565b6104396105e4366004614f1f565b611356565b6104396105f7366004614f91565b611483565b61043961060a366004614dd8565b61166e565b610497611689565b610497610625366004614f07565b61169a565b610497610638366004614f07565b61174c565b61043961180a565b61049761013c5481565b61047761065d366004614f07565b61189b565b610439610670366004614d8c565b611926565b610497610683366004614d8c565b611aec565b610439610696366004614f07565b611b86565b6104976101315481565b6104976106b3366004614d8c565b6101366020526000908152604090205481565b6104396106d436600461501d565b611bfc565b6104396106e736600461501d565b611ec7565b6104396106fa366004614f07565b61223b565b61043961070d366004614f07565b612471565b610439610720366004614d8c565b6124c0565b610439610733366004614f07565b612553565b61044e610746366004614f1f565b600091825260fb602090815260408084206001600160a01b0393909316845291905290205460ff1690565b6104ad612a30565b610439610787366004614d8c565b612a3f565b61013254610497565b610497600081565b6104396107ab366004614e8c565b612af8565b6104396107be366004614d8c565b612bbd565b6104396107d1366004614f07565b612c06565b6104396107e4366004614f07565b612cce565b6104396107f7366004614e13565b612dd8565b61043961080a366004614d8c565b612e60565b6104ad61081d366004614f07565b612f19565b6104976101325481565b6104976101345481565b61049760008051602061533e83398151915281565b610497610859366004614f07565b61013f6020526000908152604090205481565b61049761087a366004614f07565b61013e6020526000908152604090205481565b61043961089b366004614f1f565b61300e565b61044e6108ae366004614f07565b600090815261013d602052604090205460ff1690565b61049761012f5481565b61044e6108dc366004614da6565b6001600160a01b039182166000908152606a6020908152604080832093909416825291909152205460ff1690565b610439610918366004614f07565b613034565b61043961092b36600461501d565b613083565b61013854610477906001600160a01b031681565b6104976101335481565b61043961095c366004614f07565b613207565b60008051602061533e83398151915261097a8133613256565b600082116109cf5760405162461bcd60e51b815260206004820152601260248201527f5065672063616e6e6f74206265207a65726f000000000000000000000000000060448201526064015b60405180910390fd5b6101328290556040518281527f657d2b8cd9c1cd7fc4cfad3db71318ea067f53cfeb214befc5af59ed860d5a16906020015b60405180910390a15050565b6000610a18826132d6565b92915050565b60008061013760009054906101000a90046001600160a01b03166001600160a01b031663feaf968c6040518163ffffffff1660e01b815260040160a06040518083038186803b158015610a7057600080fd5b505afa158015610a84573d6000803e3d6000fd5b505050506040513d601f19601f82011682018060405250810190610aa8919061503e565b509195945050505050565b606060658054610ac29061526d565b80601f0160208091040260200160405190810160405280929190818152602001828054610aee9061526d565b8015610b3b5780601f10610b1057610100808354040283529160200191610b3b565b820191906000526020600020905b815481529060010190602001808311610b1e57829003601f168201915b5050505050905090565b6000818152606760205260408120546001600160a01b0316610bbe5760405162461bcd60e51b815260206004820152602c60248201527f4552433732313a20617070726f76656420717565727920666f72206e6f6e657860448201526b34b9ba32b73a103a37b5b2b760a11b60648201526084016109c6565b506000908152606960205260409020546001600160a01b031690565b600082815261013d6020526040902054829060ff16610c325760405162461bcd60e51b815260206004820152601460248201527315985d5b1d08191bd95cc81b9bdd08195e1a5cdd60621b60448201526064016109c6565b33610c3c8261189b565b6001600160a01b03161480610c5c575061013b546001600160a01b031633145b610ca85760405162461bcd60e51b815260206004820152601960248201527f5661756c74206973206e6f74206f776e656420627920796f750000000000000060448201526064016109c6565b600260c9541415610cfb5760405162461bcd60e51b815260206004820152601f60248201527f5265656e7472616e637947756172643a207265656e7472616e742063616c6c0060448201526064016109c6565b600260c95581610d4d5760405162461bcd60e51b815260206004820152601b60248201527f4d75737420626f72726f77206e6f6e2d7a65726f20616d6f756e74000000000060448201526064016109c6565b61012f548261013354610d6091906151c8565b1115610dae5760405162461bcd60e51b815260206004820152601e60248201527f43616e6e6f74206d696e74206f7665722064656274206365696c696e672e000060448201526064016109c6565b600083815261013f6020526040812054610dc99084906151c8565b600085815261013f60205260409020549091508111610df857634e487b7160e01b600052600160045260246000fd5b600084815261013e6020526040902054610e129082613314565b610e845760405162461bcd60e51b815260206004820152603a60248201527f426f72726f7720776f756c6420707574207661756c742062656c6f77206d696e60448201527f696d756d20636f6c6c61746572616c2070657263656e7461676500000000000060648201526084016109c6565b610e8e8484613344565b610139546040517f40c10f19000000000000000000000000000000000000000000000000000000008152336004820152602481018590526001600160a01b03909116906340c10f1990604401600060405180830381600087803b158015610ef457600080fd5b505af1158015610f08573d6000803e3d6000fd5b505060408051878152602081018790527f3e08df88d8e28f37df9bf227d3142ac506a364403445661a60891a49ed6792ca93500190505b60405180910390a15050600160c9555050565b6000610f5d8261189b565b9050806001600160a01b0316836001600160a01b03161415610fe75760405162461bcd60e51b815260206004820152602160248201527f4552433732313a20617070726f76616c20746f2063757272656e74206f776e6560448201527f720000000000000000000000000000000000000000000000000000000000000060648201526084016109c6565b336001600160a01b0382161480611003575061100381336108dc565b6110755760405162461bcd60e51b815260206004820152603860248201527f4552433732313a20617070726f76652063616c6c6572206973206e6f74206f7760448201527f6e6572206e6f7220617070726f76656420666f7220616c6c000000000000000060648201526084016109c6565b61107f838361345c565b505050565b600081815261013d602052604081205460ff166110d65760405162461bcd60e51b815260206004820152601060248201526f15985d5b1d081b5d5cdd08195e1a5cdd60821b60448201526064016109c6565b600082815261013e602090815260408083205461013f9092528220546110fc91906134ca565b915050610132548161110e91906151e0565b9050610134548161111f91906151e0565b9392505050565b61113033826135ae565b6111a25760405162461bcd60e51b815260206004820152603160248201527f4552433732313a207472616e736665722063616c6c6572206973206e6f74206f60448201527f776e6572206e6f7220617070726f76656400000000000000000000000000000060648201526084016109c6565b61107f8383836136a1565b600082815260fb60205260409020600101546111c98133613256565b61107f83836136e9565b60006111de83611aec565b82106112525760405162461bcd60e51b815260206004820152602b60248201527f455243373231456e756d657261626c653a206f776e657220696e646578206f7560448201527f74206f6620626f756e647300000000000000000000000000000000000000000060648201526084016109c6565b506001600160a01b03919091166000908152609760209081526040808320938352929052205490565b6001600160a01b03811633146112f95760405162461bcd60e51b815260206004820152602f60248201527f416363657373436f6e74726f6c3a2063616e206f6e6c792072656e6f756e636560448201527f20726f6c657320666f722073656c66000000000000000000000000000000000060648201526084016109c6565b611303828261378b565b5050565b60008051602061533e8339815191526113208133613256565b6101308290556040518281527f2be5116c37a9989b15d218af1d929034cabc673c9c821d52a901411be5eafd2890602001610a01565b600082815261013d6020526040902054829060ff166113ae5760405162461bcd60e51b815260206004820152601460248201527315985d5b1d08191bd95cc81b9bdd08195e1a5cdd60621b60448201526064016109c6565b336113b88261189b565b6001600160a01b031614806113d8575061013b546001600160a01b031633145b6114245760405162461bcd60e51b815260206004820152601960248201527f5661756c74206973206e6f74206f776e656420627920796f750000000000000060448201526064016109c6565b61142d8361380e565b61143782846138b5565b604080518481523360208201526001600160a01b0384168183015290517fa8159d062909288cfe1bc71a9cb71a800664f2658fc2588d52676a844f1b0f139181900360600190a1505050565b600054610100900460ff168061149c575060005460ff16155b6114ff5760405162461bcd60e51b815260206004820152602e60248201527f496e697469616c697a61626c653a20636f6e747261637420697320616c72656160448201526d191e481a5b9a5d1a585b1a5e995960921b60648201526084016109c6565b600054610100900460ff16158015611521576000805461ffff19166101011790555b611529613a03565b611531613a03565b61153b8484613ab5565b611543613a03565b61154b613b91565b611553613a03565b6001600160a01b03851661157757634e487b7160e01b600052600160045260246000fd5b8561159257634e487b7160e01b600052600160045260246000fd5b678ac7230489e8000061012f55604b6101305560006101318190556305f5e10061013255600261013455600b6101355561013a80546001600160a01b031990811690915561013b805482169055610137805482166001600160a01b03898116919091179091556101388054831691861691909117905561013980543392168217905561161e9190613c48565b61163660008051602061533e83398151915233613c48565b61164e60008051602061533e83398151915280613c52565b61012e8690558015611666576000805461ff00191690555b505050505050565b61107f83838360405180602001604052806000815250612dd8565b600061169561012d5490565b905090565b60006116a560995490565b82106117195760405162461bcd60e51b815260206004820152602c60248201527f455243373231456e756d657261626c653a20676c6f62616c20696e646578206f60448201527f7574206f6620626f756e6473000000000000000000000000000000000000000060648201526084016109c6565b6099828154811061173a57634e487b7160e01b600052603260045260246000fd5b90600052602060002001549050919050565b600081815261013d602052604081205460ff1661179e5760405162461bcd60e51b815260206004820152601060248201526f15985d5b1d081b5d5cdd08195e1a5cdd60821b60448201526064016109c6565b600082815261013e602090815260408083205461013f9092528220546117c491906134ca565b9150506000610134546117d5610a1e565b6117e090600a6151f4565b6117ea91906151f4565b610135546117f890846151f4565b61180291906151e0565b949350505050565b61181961012d80546001019055565b600061182561012d5490565b600081815261013d602052604090819020805460ff19166001179055519091507f8b6c1d05c678fa59695e26465a85918ce0fc63a88f74af53d1daef8f0a9c78049061188690839033909182526001600160a01b0316602082015260400190565b60405180910390a161189833826138b5565b50565b6000818152606760205260408120546001600160a01b031680610a185760405162461bcd60e51b815260206004820152602960248201527f4552433732313a206f776e657220717565727920666f72206e6f6e657869737460448201527f656e7420746f6b656e000000000000000000000000000000000000000000000060648201526084016109c6565b600260c95414156119795760405162461bcd60e51b815260206004820152601f60248201527f5265656e7472616e637947756172643a207265656e7472616e742063616c6c0060448201526064016109c6565b600260c95580336001600160a01b03821614806119a1575061013b546001600160a01b031633145b6119ed5760405162461bcd60e51b815260206004820152601c60248201527f43616e6e6f74206765742070616964206966206e6f7420796f7572730000000060448201526064016109c6565b6001600160a01b03821660009081526101366020526040902054611a795760405162461bcd60e51b815260206004820152602860248201527f4e6f206c69717569646174696f6e73206173736f63696174656420776974682060448201527f6163636f756e742e00000000000000000000000000000000000000000000000060648201526084016109c6565b6001600160a01b038083166000908152610136602052604081208054919055610138549091611aaa91163383613c9d565b604080518281523360208201527f45f23935dce154b3c7ff256ac2402f7700f39ce5b210b7da385215939fc4c5c8910160405180910390a15050600160c95550565b60006001600160a01b038216611b6a5760405162461bcd60e51b815260206004820152602a60248201527f4552433732313a2062616c616e636520717565727920666f7220746865207a6560448201527f726f20616464726573730000000000000000000000000000000000000000000060648201526084016109c6565b506001600160a01b031660009081526068602052604090205490565b60008051602061533e833981519152611b9f8133613256565b600082815261013d602052604090205460ff16611bf55760405162461bcd60e51b815260206004820152601460248201527315985d5b1d08191bd95cc81b9bdd08195e1a5cdd60621b60448201526064016109c6565b5061013c55565b600082815261013d6020526040902054829060ff16611c545760405162461bcd60e51b815260206004820152601460248201527315985d5b1d08191bd95cc81b9bdd08195e1a5cdd60621b60448201526064016109c6565b33611c5e8261189b565b6001600160a01b03161480611c7e575061013b546001600160a01b031633145b611cca5760405162461bcd60e51b815260206004820152601960248201527f5661756c74206973206e6f74206f776e656420627920796f750000000000000060448201526064016109c6565b600260c9541415611d1d5760405162461bcd60e51b815260206004820152601f60248201527f5265656e7472616e637947756172643a207265656e7472616e742063616c6c0060448201526064016109c6565b600260c955600083815261013e6020526040902054821115611da75760405162461bcd60e51b815260206004820152602560248201527f5661756c7420646f6573206e6f74206861766520656e6f75676820636f6c6c6160448201527f746572616c00000000000000000000000000000000000000000000000000000060648201526084016109c6565b600083815261013e6020526040812054611dc2908490615213565b600085815261013f602052604090205490915015611e6757600084815261013f6020526040902054611df5908290613314565b611e675760405162461bcd60e51b815260206004820152603e60248201527f5769746864726177616c20776f756c6420707574207661756c742062656c6f7760448201527f206d696e696d756d20636f6c6c61746572616c2070657263656e74616765000060648201526084016109c6565b600084815261013e6020526040902081905561013854611e91906001600160a01b03163385613c9d565b60408051858152602081018590527f6c0ea3bea9dd66afa8f9d39d6eb93d833466190330813b42835efc650dca4cb99101610f3f565b600082815261013d6020526040902054829060ff16611f1f5760405162461bcd60e51b815260206004820152601460248201527315985d5b1d08191bd95cc81b9bdd08195e1a5cdd60621b60448201526064016109c6565b33611f298261189b565b6001600160a01b03161480611f49575061013b546001600160a01b031633145b611f955760405162461bcd60e51b815260206004820152601960248201527f5661756c74206973206e6f74206f776e656420627920796f750000000000000060448201526064016109c6565b600260c9541415611fe85760405162461bcd60e51b815260206004820152601f60248201527f5265656e7472616e637947756172643a207265656e7472616e742063616c6c0060448201526064016109c6565b600260c955610139546040516370a0823160e01b815233600482015283916001600160a01b0316906370a082319060240160206040518083038186803b15801561203157600080fd5b505afa158015612045573d6000803e3d6000fd5b505050506040513d601f19601f820116820180604052508101906120699190614f79565b10156120b75760405162461bcd60e51b815260206004820152601560248201527f546f6b656e2062616c616e636520746f6f206c6f77000000000000000000000060448201526064016109c6565b600083815261013f602052604090205482111561213c5760405162461bcd60e51b815260206004820152602760248201527f5661756c742064656274206c657373207468616e20616d6f756e7420746f207060448201527f6179206261636b0000000000000000000000000000000000000000000000000060648201526084016109c6565b6000612146610a1e565b612152906127106151f4565b610132546101305461216490866151f4565b61216e91906151f4565b61217891906151e0565b90506121848484613d2e565b61218e8482613eb4565b61219781613f9b565b61013954604051632770a7eb60e21b8152336004820152602481018590526001600160a01b0390911690639dc29fac90604401600060405180830381600087803b1580156121e457600080fd5b505af11580156121f8573d6000803e3d6000fd5b505060408051878152602081018790529081018490527f31f96762af4051f367185773cc2f55bfb112a6c114b3407ded1f321a9eb199ac92506060019050610f3f565b600081815261013d6020526040902054819060ff166122935760405162461bcd60e51b815260206004820152601460248201527315985d5b1d08191bd95cc81b9bdd08195e1a5cdd60621b60448201526064016109c6565b3361229d8261189b565b6001600160a01b031614806122bd575061013b546001600160a01b031633145b6123095760405162461bcd60e51b815260206004820152601960248201527f5661756c74206973206e6f74206f776e656420627920796f750000000000000060448201526064016109c6565b600260c954141561235c5760405162461bcd60e51b815260206004820152601f60248201527f5265656e7472616e637947756172643a207265656e7472616e742063616c6c0060448201526064016109c6565b600260c955600082815261013f6020526040902054156123be5760405162461bcd60e51b815260206004820152601960248201527f5661756c74206173206f75747374616e64696e6720646562740000000000000060448201526064016109c6565b600082815261013e6020526040902054156123fe57600082815261013e6020526040902054610138546123fe916001600160a01b03909116903390613c9d565b6124078261380e565b600082815261013d60209081526040808320805460ff1916905561013e825280832083905561013f82528083209290925590518381527f4fe08624ee65b341c38ab9693d216b909d4ddee1bc8d3fe0fea14026c361b465910160405180910390a15050600160c955565b60008051602061533e83398151915261248a8133613256565b6101318290556040518281527ff78536edc296a3a7e991e00caa8319c68a84cc56f22e8c9118463773d0844b9390602001610a01565b60008051602061533e8339815191526124d98133613256565b6001600160a01b03821661252f5760405162461bcd60e51b815260206004820152601e60248201527f476174657761792063616e6e6f74206265207a65726f2061646472657373000060448201526064016109c6565b5061013b80546001600160a01b0319166001600160a01b0392909216919091179055565b61013a546001600160a01b03161580612577575061013a546001600160a01b031633145b6125e95760405162461bcd60e51b815260206004820152602160248201527f6275795269736b795661756c742064697361626c656420666f72207075626c6960448201527f630000000000000000000000000000000000000000000000000000000000000060648201526084016109c6565b600260c954141561263c5760405162461bcd60e51b815260206004820152601f60248201527f5265656e7472616e637947756172643a207265656e7472616e742063616c6c0060448201526064016109c6565b600260c955600081815261013d602052604090205460ff166126975760405162461bcd60e51b815260206004820152601460248201527315985d5b1d08191bd95cc81b9bdd08195e1a5cdd60621b60448201526064016109c6565b600081815261013e602090815260408083205461013f90925282205482916126be916134ca565b909250905060006126cf82846151e0565b905061012e5481106127495760405162461bcd60e51b815260206004820152603060248201527f5661756c74206973206e6f742062656c6f77206d696e696d756d20636f6c6c6160448201527f746572616c2070657263656e746167650000000000000000000000000000000060648201526084016109c6565b60006127548561174c565b9050600061276186611084565b610139546040516370a0823160e01b815233600482015291925082916001600160a01b03909116906370a082319060240160206040518083038186803b1580156127aa57600080fd5b505afa1580156127be573d6000803e3d6000fd5b505050506040513d601f19601f820116820180604052508101906127e29190614f79565b10156128565760405162461bcd60e51b815260206004820152603160248201527f546f6b656e2062616c616e636520746f6f206c6f7720746f20706179206f666660448201527f206f75747374616e64696e67206465627400000000000000000000000000000060648201526084016109c6565b6101395461286f906001600160a01b0316333084614005565b600086815261013f60205260408120805483929061288e908490615213565b909155506000905061289e610a1e565b6128aa906127106151f4565b61013254610130546128bc90856151f4565b6128c691906151f4565b6128d091906151e0565b90506128dc83826151c8565b600088815261013e6020526040812080549091906128fb908490615213565b909155505061013c54600090815261013e6020526040812080548392906129239084906151c8565b90915550503360009081526101366020526040812080548592906129489084906151c8565b909155505061013954604051632770a7eb60e21b8152306004820152602481018490526001600160a01b0390911690639dc29fac90604401600060405180830381600087803b15801561299a57600080fd5b505af11580156129ae573d6000803e3d6000fd5b505050506129bb82614056565b7f4d151d3a98b83151d51917640c221f8c8e3c054422ea1b48dcbbd57e3f4210d5876129e68961189b565b604080519283526001600160a01b0390911660208301523390820152606081018490526080810185905260a0810183905260c00160405180910390a15050600160c9555050505050565b606060668054610ac29061526d565b60008051602061533e833981519152612a588133613256565b6001600160a01b038216612ad45760405162461bcd60e51b815260206004820152602560248201527f53746162696c69747920706f6f6c2063616e6e6f74206265207a65726f20616460448201527f647265737300000000000000000000000000000000000000000000000000000060648201526084016109c6565b5061013a80546001600160a01b0319166001600160a01b0392909216919091179055565b6001600160a01b038216331415612b515760405162461bcd60e51b815260206004820152601960248201527f4552433732313a20617070726f766520746f2063616c6c65720000000000000060448201526064016109c6565b336000818152606a602090815260408083206001600160a01b03871680855290835292819020805460ff191686151590811790915590519081529192917f17307eab39ab6107e8899845ad3d59bd9653f200f220920489ca2b5937696c31910160405180910390a35050565b60008051602061533e833981519152612bd68133613256565b612bee60008051602061533e83398151915283613c48565b61130360008051602061533e8339815191523361300e565b60008051602061533e833981519152612c1f8133613256565b8161012f541115612c985760405162461bcd60e51b815260206004820152603c60248201527f7365744365696c696e673a204d757374206265206f7665722074686520616d6f60448201527f756e74206f662063757272656e742064656274206365696c696e672e0000000060648201526084016109c6565b61012f8290556040518281527f9e88375210357aa5dbeb756c2deee5a1a487e6dcd9fa8f444eda3bc7df41a37b90602001610a01565b600081815261013d602052604090205460ff16612d205760405162461bcd60e51b815260206004820152601060248201526f15985d5b1d081b5d5cdd08195e1a5cdd60821b60448201526064016109c6565b600081815261013e602090815260408083205461013f9092528220548291612d47916134ca565b90925090506000612d5882846151e0565b905061012e548110612dd25760405162461bcd60e51b815260206004820152603060248201527f5661756c74206973206e6f742062656c6f77206d696e696d756d20636f6c6c6160448201527f746572616c2070657263656e746167650000000000000000000000000000000060648201526084016109c6565b50505050565b612de233836135ae565b612e545760405162461bcd60e51b815260206004820152603160248201527f4552433732313a207472616e736665722063616c6c6572206973206e6f74206f60448201527f776e6572206e6f7220617070726f76656400000000000000000000000000000060648201526084016109c6565b612dd2848484846140c2565b60008051602061533e833981519152612e798133613256565b6001600160a01b038216612ef55760405162461bcd60e51b815260206004820152602360248201527f507269636520736f757263652063616e6e6f74206265207a65726f206164647260448201527f657373000000000000000000000000000000000000000000000000000000000060648201526084016109c6565b5061013780546001600160a01b0319166001600160a01b0392909216919091179055565b6000818152606760205260409020546060906001600160a01b0316612fa65760405162461bcd60e51b815260206004820152602f60248201527f4552433732314d657461646174613a2055524920717565727920666f72206e6f60448201527f6e6578697374656e7420746f6b656e000000000000000000000000000000000060648201526084016109c6565b6000612fbd60408051602081019091526000815290565b90506000815111612fdd576040518060200160405280600081525061111f565b80612fe78461414b565b604051602001612ff89291906150c9565b6040516020818303038152906040529392505050565b600082815260fb602052604090206001015461302a8133613256565b61107f838361378b565b60008051602061533e83398151915261304d8133613256565b6101348290556040518281527f29c334aad4ec9c65aa6ad3e720e9ad21ce4d7d6dbbdb44a3f97f2762d49387ca90602001610a01565b600082815261013d6020526040902054829060ff166130db5760405162461bcd60e51b815260206004820152601460248201527315985d5b1d08191bd95cc81b9bdd08195e1a5cdd60621b60448201526064016109c6565b336130e58261189b565b6001600160a01b03161480613105575061013b546001600160a01b031633145b6131515760405162461bcd60e51b815260206004820152601960248201527f5661756c74206973206e6f74206f776e656420627920796f750000000000000060448201526064016109c6565b6101385461316a906001600160a01b0316333085614005565b600083815261013e60205260408120546131859084906151c8565b600085815261013e60205260409020549091508110156131b557634e487b7160e01b600052600160045260246000fd5b600084815261013e602090815260409182902083905581518681529081018590527f52c4e7127ec34e8fc95f09ce2d06b4f00acca12ccbcdfb246ef67ee6aefe068d910160405180910390a150505050565b60008051602061533e8339815191526132208133613256565b6101358290556040518281527fee1adee4317c98f3606485f5b5d290ec4f4b8e1baee4906df1a86cd549ac864290602001610a01565b600082815260fb602090815260408083206001600160a01b038516845290915290205460ff1661130357613294816001600160a01b03166014614265565b61329f836020614265565b6040516020016132b09291906150f8565b60408051601f198184030181529082905262461bcd60e51b82526109c6916004016151b5565b60006001600160e01b031982167f7965db0b000000000000000000000000000000000000000000000000000000001480610a185750610a1882614470565b600080600061332385856134ca565b9092509050600061333482846151e0565b61012e5411159695505050505050565b6000610133548261335591906151c8565b90506101335481101561337857634e487b7160e01b600052600160045260246000fd5b61012f548111156133f15760405162461bcd60e51b815260206004820152602960248201527f43616e6e6f74206578636565642064656274206365696c696e6720666f72207460448201527f686973207661756c74000000000000000000000000000000000000000000000060648201526084016109c6565b600083815261013f602052604081205461340b90846151c8565b600085815261013f602052604090205490915081101561343b57634e487b7160e01b600052600160045260246000fd5b613444836144ae565b600093845261013f6020526040909320929092555050565b600081815260696020526040902080546001600160a01b0319166001600160a01b03841690811790915581906134918261189b565b6001600160a01b03167f8c5be1e5ebec7d5bd14f71427d1e84f3dd0314c0f7b2291e5b200ac8c7c3b92560405160405180910390a45050565b6000806134d5610a1e565b6134ef57634e487b7160e01b600052600160045260246000fd5b6101325461350d57634e487b7160e01b600052600160045260246000fd5b6000613517610a1e565b61352190866151f4565b90508481101561354157634e487b7160e01b600052600160045260246000fd5b600061354d6101325490565b61355790866151f4565b90508481101561357757634e487b7160e01b600052600160045260246000fd5b60006135848360646151f4565b90508281116135a357634e487b7160e01b600052600160045260246000fd5b969095509350505050565b6000818152606760205260408120546001600160a01b03166136275760405162461bcd60e51b815260206004820152602c60248201527f4552433732313a206f70657261746f7220717565727920666f72206e6f6e657860448201526b34b9ba32b73a103a37b5b2b760a11b60648201526084016109c6565b60006136328361189b565b9050806001600160a01b0316846001600160a01b0316148061366d5750836001600160a01b031661366284610b45565b6001600160a01b0316145b8061180257506001600160a01b038082166000908152606a602090815260408083209388168352929052205460ff16611802565b60405162461bcd60e51b815260206004820152601260248201527f7472616e736665723a2064697361626c6564000000000000000000000000000060448201526064016109c6565b600082815260fb602090815260408083206001600160a01b038516845290915290205460ff1661130357600082815260fb602090815260408083206001600160a01b03851684529091529020805460ff191660011790556137473390565b6001600160a01b0316816001600160a01b0316837f2f8788117e7eff1d82e926ec794901d17c78024a50270940304540a733656f0d60405160405180910390a45050565b600082815260fb602090815260408083206001600160a01b038516845290915290205460ff161561130357600082815260fb602090815260408083206001600160a01b0385168085529252808320805460ff1916905551339285917ff6391f5c32d9c69d2a47ea670b442974b53935d1edc7fd64eb21e047a839171b9190a45050565b60006138198261189b565b905061382781600084614541565b61383260008361345c565b6001600160a01b038116600090815260686020526040812080546001929061385b908490615213565b909155505060008281526067602052604080822080546001600160a01b0319169055518391906001600160a01b038416907fddf252ad1be2c89b69c2b068fc378daa952ba7f163c4a11628f55a4df523b3ef908390a45050565b6001600160a01b03821661390b5760405162461bcd60e51b815260206004820181905260248201527f4552433732313a206d696e7420746f20746865207a65726f206164647265737360448201526064016109c6565b6000818152606760205260409020546001600160a01b0316156139705760405162461bcd60e51b815260206004820152601c60248201527f4552433732313a20746f6b656e20616c7265616479206d696e7465640000000060448201526064016109c6565b61397c60008383614541565b6001600160a01b03821660009081526068602052604081208054600192906139a59084906151c8565b909155505060008181526067602052604080822080546001600160a01b0319166001600160a01b03861690811790915590518392907fddf252ad1be2c89b69c2b068fc378daa952ba7f163c4a11628f55a4df523b3ef908290a45050565b600054610100900460ff1680613a1c575060005460ff16155b613a7f5760405162461bcd60e51b815260206004820152602e60248201527f496e697469616c697a61626c653a20636f6e747261637420697320616c72656160448201526d191e481a5b9a5d1a585b1a5e995960921b60648201526084016109c6565b600054610100900460ff16158015613aa1576000805461ffff19166101011790555b8015611898576000805461ff001916905550565b600054610100900460ff1680613ace575060005460ff16155b613b315760405162461bcd60e51b815260206004820152602e60248201527f496e697469616c697a61626c653a20636f6e747261637420697320616c72656160448201526d191e481a5b9a5d1a585b1a5e995960921b60648201526084016109c6565b600054610100900460ff16158015613b53576000805461ffff19166101011790555b8251613b66906065906020860190614c28565b508151613b7a906066906020850190614c28565b50801561107f576000805461ff0019169055505050565b600054610100900460ff1680613baa575060005460ff16155b613c0d5760405162461bcd60e51b815260206004820152602e60248201527f496e697469616c697a61626c653a20636f6e747261637420697320616c72656160448201526d191e481a5b9a5d1a585b1a5e995960921b60648201526084016109c6565b600054610100900460ff16158015613c2f576000805461ffff19166101011790555b600160c9558015611898576000805461ff001916905550565b61130382826136e9565b600082815260fb6020526040808220600101805490849055905190918391839186917fbd79b86ffe0ab8e8776151514217cd7cacd52c909f66475c3af44e129f0b00ff9190a4505050565b6040516001600160a01b03831660248201526044810182905261107f9084907fa9059cbb00000000000000000000000000000000000000000000000000000000906064015b60408051601f198184030181529190526020810180517bffffffffffffffffffffffffffffffffffffffffffffffffffffffff166001600160e01b03199093169290921790915261454c565b80610133541015613da75760405162461bcd60e51b815260206004820152602860248201527f43616e6e6f742067657420726964206f66206d6f72652064656274207468616e60448201527f206578697374732e00000000000000000000000000000000000000000000000060648201526084016109c6565b600082815261013f6020526040902054811115613e2c5760405162461bcd60e51b815260206004820152602960248201527f43616e6e6f742067657420726964206f66206d6f72652064656274207468616e60448201527f207573657220686173000000000000000000000000000000000000000000000060648201526084016109c6565b60008161013354613e3d9190615213565b905061013354811115613e6057634e487b7160e01b600052600160045260246000fd5b600083815261013f6020526040812054613e7b908490615213565b600085815261013f6020526040902054909150811115613eab57634e487b7160e01b600052600160045260246000fd5b61344483614056565b600082815261013e6020526040902054811115613f395760405162461bcd60e51b815260206004820152603060248201527f43616e6e6f742072656d6f7665206d6f7265207468616e20746865206465706f60448201527f736974656420636f6c6c61746572616c0000000000000000000000000000000060648201526084016109c6565b600082815261013e6020526040812054613f54908390615213565b600084815261013e6020526040902054909150811115613f8457634e487b7160e01b600052600160045260246000fd5b600092835261013e60205260409092209190915550565b61013c54600090815261013e6020526040812054613fba9083906151c8565b61013c54600090815261013e6020526040902054909150811015613fee57634e487b7160e01b600052600160045260246000fd5b61013c54600090815261013e602052604090205550565b6040516001600160a01b0380851660248301528316604482015260648101829052612dd29085907f23b872dd0000000000000000000000000000000000000000000000000000000090608401613ce2565b610133548111156140a95760405162461bcd60e51b815260206004820152601860248201527f446562742063616e206e6f7420676f2062656c6f7720302e000000000000000060448201526064016109c6565b600081610133546140ba9190615213565b610133555050565b6140cd8484846136a1565b6140d984848484614631565b612dd25760405162461bcd60e51b815260206004820152603260248201527f4552433732313a207472616e7366657220746f206e6f6e20455243373231526560448201527f63656976657220696d706c656d656e746572000000000000000000000000000060648201526084016109c6565b60608161416f5750506040805180820190915260018152600360fc1b602082015290565b8160005b81156141995780614183816152a8565b91506141929050600a836151e0565b9150614173565b60008167ffffffffffffffff8111156141c257634e487b7160e01b600052604160045260246000fd5b6040519080825280601f01601f1916602001820160405280156141ec576020820181803683370190505b5090505b841561180257614201600183615213565b915061420e600a866152c3565b6142199060306151c8565b60f81b81838151811061423c57634e487b7160e01b600052603260045260246000fd5b60200101906001600160f81b031916908160001a90535061425e600a866151e0565b94506141f0565b606060006142748360026151f4565b61427f9060026151c8565b67ffffffffffffffff8111156142a557634e487b7160e01b600052604160045260246000fd5b6040519080825280601f01601f1916602001820160405280156142cf576020820181803683370190505b509050600360fc1b816000815181106142f857634e487b7160e01b600052603260045260246000fd5b60200101906001600160f81b031916908160001a9053507f78000000000000000000000000000000000000000000000000000000000000008160018151811061435157634e487b7160e01b600052603260045260246000fd5b60200101906001600160f81b031916908160001a90535060006143758460026151f4565b6143809060016151c8565b90505b6001811115614421577f303132333435363738396162636465660000000000000000000000000000000085600f16601081106143cf57634e487b7160e01b600052603260045260246000fd5b1a60f81b8282815181106143f357634e487b7160e01b600052603260045260246000fd5b60200101906001600160f81b031916908160001a90535060049490941c9361441a81615256565b9050614383565b50831561111f5760405162461bcd60e51b815260206004820181905260248201527f537472696e67733a20686578206c656e67746820696e73756666696369656e7460448201526064016109c6565b60006001600160e01b031982167f780e9d63000000000000000000000000000000000000000000000000000000001480610a185750610a1882614794565b600081610133546144bf91906151c8565b905061012f5481111561453a5760405162461bcd60e51b815260206004820152602260248201527f446562742063616e206e6f7420676f2061626f76652064656274206365696c6960448201527f6e6700000000000000000000000000000000000000000000000000000000000060648201526084016109c6565b6101335550565b61107f83838361482f565b60006145a1826040518060400160405280602081526020017f5361666545524332303a206c6f772d6c6576656c2063616c6c206661696c6564815250856001600160a01b03166148e79092919063ffffffff16565b80519091501561107f57808060200190518101906145bf9190614eeb565b61107f5760405162461bcd60e51b815260206004820152602a60248201527f5361666545524332303a204552433230206f7065726174696f6e20646964206e60448201527f6f7420737563636565640000000000000000000000000000000000000000000060648201526084016109c6565b60006001600160a01b0384163b1561478957604051630a85bd0160e11b81526001600160a01b0385169063150b7a0290614675903390899088908890600401615179565b602060405180830381600087803b15801561468f57600080fd5b505af19250505080156146bf575060408051601f3d908101601f191682019092526146bc91810190614f5d565b60015b61476f573d8080156146ed576040519150601f19603f3d011682016040523d82523d6000602084013e6146f2565b606091505b5080516147675760405162461bcd60e51b815260206004820152603260248201527f4552433732313a207472616e7366657220746f206e6f6e20455243373231526560448201527f63656976657220696d706c656d656e746572000000000000000000000000000060648201526084016109c6565b805181602001fd5b6001600160e01b031916630a85bd0160e11b149050611802565b506001949350505050565b60006001600160e01b031982167f80ac58cd0000000000000000000000000000000000000000000000000000000014806147f757506001600160e01b031982167f5b5e139f00000000000000000000000000000000000000000000000000000000145b80610a1857507f01ffc9a7000000000000000000000000000000000000000000000000000000006001600160e01b0319831614610a18565b6001600160a01b03831661488a5761488581609980546000838152609a60205260408120829055600182018355919091527f72a152ddfb8e864297c917af52ea6c1c68aead0fee1a62673fcc7e0c94979d000155565b6148ad565b816001600160a01b0316836001600160a01b0316146148ad576148ad83826148f6565b6001600160a01b0382166148c45761107f81614993565b826001600160a01b0316826001600160a01b03161461107f5761107f8282614a6c565b60606118028484600085614ab0565b6000600161490384611aec565b61490d9190615213565b600083815260986020526040902054909150808214614960576001600160a01b03841660009081526097602090815260408083208584528252808320548484528184208190558352609890915290208190555b5060009182526098602090815260408084208490556001600160a01b039094168352609781528383209183525290812055565b6099546000906149a590600190615213565b6000838152609a6020526040812054609980549394509092849081106149db57634e487b7160e01b600052603260045260246000fd5b906000526020600020015490508060998381548110614a0a57634e487b7160e01b600052603260045260246000fd5b6000918252602080832090910192909255828152609a90915260408082208490558582528120556099805480614a5057634e487b7160e01b600052603160045260246000fd5b6001900381819060005260206000200160009055905550505050565b6000614a7783611aec565b6001600160a01b039093166000908152609760209081526040808320868452825280832085905593825260989052919091209190915550565b606082471015614b285760405162461bcd60e51b815260206004820152602660248201527f416464726573733a20696e73756666696369656e742062616c616e636520666f60448201527f722063616c6c000000000000000000000000000000000000000000000000000060648201526084016109c6565b843b614b765760405162461bcd60e51b815260206004820152601d60248201527f416464726573733a2063616c6c20746f206e6f6e2d636f6e747261637400000060448201526064016109c6565b600080866001600160a01b03168587604051614b9291906150ad565b60006040518083038185875af1925050503d8060008114614bcf576040519150601f19603f3d011682016040523d82523d6000602084013e614bd4565b606091505b5091509150614be4828286614bef565b979650505050505050565b60608315614bfe57508161111f565b825115614c0e5782518084602001fd5b8160405162461bcd60e51b81526004016109c691906151b5565b828054614c349061526d565b90600052602060002090601f016020900481019282614c565760008555614c9c565b82601f10614c6f57805160ff1916838001178555614c9c565b82800160010185558215614c9c579182015b82811115614c9c578251825591602001919060010190614c81565b50614ca8929150614cac565b5090565b5b80821115614ca85760008155600101614cad565b600067ffffffffffffffff80841115614cdc57614cdc615303565b604051601f8501601f19908116603f01168101908282118183101715614d0457614d04615303565b81604052809350858152868686011115614d1d57600080fd5b858560208301376000602087830101525050509392505050565b80356001600160a01b0381168114614d4e57600080fd5b919050565b600082601f830112614d63578081fd5b61111f83833560208501614cc1565b805169ffffffffffffffffffff81168114614d4e57600080fd5b600060208284031215614d9d578081fd5b61111f82614d37565b60008060408385031215614db8578081fd5b614dc183614d37565b9150614dcf60208401614d37565b90509250929050565b600080600060608486031215614dec578081fd5b614df584614d37565b9250614e0360208501614d37565b9150604084013590509250925092565b60008060008060808587031215614e28578081fd5b614e3185614d37565b9350614e3f60208601614d37565b925060408501359150606085013567ffffffffffffffff811115614e61578182fd5b8501601f81018713614e71578182fd5b614e8087823560208401614cc1565b91505092959194509250565b60008060408385031215614e9e578182fd5b614ea783614d37565b91506020830135614eb781615319565b809150509250929050565b60008060408385031215614ed4578182fd5b614edd83614d37565b946020939093013593505050565b600060208284031215614efc578081fd5b815161111f81615319565b600060208284031215614f18578081fd5b5035919050565b60008060408385031215614f31578182fd5b82359150614dcf60208401614d37565b600060208284031215614f52578081fd5b813561111f81615327565b600060208284031215614f6e578081fd5b815161111f81615327565b600060208284031215614f8a578081fd5b5051919050565b600080600080600060a08688031215614fa8578283fd5b85359450614fb860208701614d37565b9350604086013567ffffffffffffffff80821115614fd4578485fd5b614fe089838a01614d53565b94506060880135915080821115614ff5578283fd5b5061500288828901614d53565b92505061501160808701614d37565b90509295509295909350565b6000806040838503121561502f578182fd5b50508035926020909101359150565b600080600080600060a08688031215615055578283fd5b61505e86614d72565b945060208601519350604086015192506060860151915061501160808701614d72565b6000815180845261509981602086016020860161522a565b601f01601f19169290920160200192915050565b600082516150bf81846020870161522a565b9190910192915050565b600083516150db81846020880161522a565b8351908301906150ef81836020880161522a565b01949350505050565b7f416363657373436f6e74726f6c3a206163636f756e742000000000000000000081526000835161513081601785016020880161522a565b7f206973206d697373696e6720726f6c6520000000000000000000000000000000601791840191820152835161516d81602884016020880161522a565b01602801949350505050565b60006001600160a01b038087168352808616602084015250836040830152608060608301526151ab6080830184615081565b9695505050505050565b60208152600061111f6020830184615081565b600082198211156151db576151db6152d7565b500190565b6000826151ef576151ef6152ed565b500490565b600081600019048311821515161561520e5761520e6152d7565b500290565b600082821015615225576152256152d7565b500390565b60005b8381101561524557818101518382015260200161522d565b83811115612dd25750506000910152565b600081615265576152656152d7565b506000190190565b600181811c9082168061528157607f821691505b602082108114156152a257634e487b7160e01b600052602260045260246000fd5b50919050565b60006000198214156152bc576152bc6152d7565b5060010190565b6000826152d2576152d26152ed565b500690565b634e487b7160e01b600052601160045260246000fd5b634e487b7160e01b600052601260045260246000fd5b634e487b7160e01b600052604160045260246000fd5b801515811461189857600080fd5b6001600160e01b03198116811461189857600080fdfee1dcbdb91df27212a29bc27177c840cf2f819ecf2187432e1fac86c2dd5dfca9a2646970667358221220ec88c77a992c2462f567cb10d20d0d4c5d90daa936d32766e32f2ac300f52d3464736f6c63430008040033",
  "devdoc": {
    "kind": "dev",
    "methods": {
      "approve(address,uint256)": {
        "details": "See {IERC721-approve}."
      },
      "balanceOf(address)": {
        "details": "See {IERC721-balanceOf}."
      },
      "borrowToken(uint256,uint256)": {
        "details": "Lets a vault owner borrow stablecoin against collateral Requirements: - Vault type must exist - Vault must exist - Must borrow greater than 0 stablecoin - Must be below the debt ceiling when borrowing - Must maintain minimum collateral percentage Emits BorrowToken event"
      },
      "changeTreasury(address)": {
        "details": "changes the Treasury. Can only every be one treasury!"
      },
      "checkCost(uint256)": {
        "details": "checks cost of liquidating"
      },
      "checkExtract(uint256)": {
        "details": "checks how much token gets extract"
      },
      "checkLiquidation(uint256)": {
        "details": "checks if the vault can be liquidated"
      },
      "createVault()": {
        "details": "Create a vault for interacting with the platform Emits a CreateVault event"
      },
      "depositCollateral(uint256,uint256)": {
        "details": "ALlows vault owner to deposit ERC20 collateral Emits Deposit Collateral event"
      },
      "destroyVault(uint256)": {
        "details": "User can destroy a vault. Will return all collateral upon destroying. Emits a DestroyVault event Requirements: - User must have paid off all outstanding debt first"
      },
      "getApproved(uint256)": {
        "details": "See {IERC721-getApproved}."
      },
      "getPaid(address)": {
        "details": "pays the user Returns the ERC20 token that was liquidated"
      },
      "getPricePeg()": {
        "details": "returns the base token's address"
      },
      "getPriceSource()": {
        "details": "returns the base token's address"
      },
      "getRoleAdmin(bytes32)": {
        "details": "Returns the admin role that controls `role`. See {grantRole} and {revokeRole}. To change a role's admin, use {_setRoleAdmin}."
      },
      "grantRole(bytes32,address)": {
        "details": "Grants `role` to `account`. If `account` had not been already granted `role`, emits a {RoleGranted} event. Requirements: - the caller must have ``role``'s admin role."
      },
      "hasRole(bytes32,address)": {
        "details": "Returns `true` if `account` has been granted `role`."
      },
      "isApprovedForAll(address,address)": {
        "details": "See {IERC721-isApprovedForAll}."
      },
      "liquidateVault(uint256)": {
        "details": "allows liquidator to buy out a risky vault Requirements: - Vault id must exist - Vault must be below minimum collateral percentage - User must have enough of the token to pay vault off Emits BuyRiskyVault event"
      },
      "name()": {
        "details": "See {IERC721Metadata-name}."
      },
      "ownerOf(uint256)": {
        "details": "See {IERC721-ownerOf}."
      },
      "payBackToken(uint256,uint256)": {
        "details": "Pay back the stablecoin to reduce debt Requirements: - User must have enough balance to repay `amount` - Cannot pay back more than the required debt. `amount` must be less than debt."
      },
      "renounceRole(bytes32,address)": {
        "details": "Revokes `role` from the calling account. Roles are often managed via {grantRole} and {revokeRole}: this function's purpose is to provide a mechanism for accounts to lose their privileges if they are compromised (such as when a trusted device is misplaced). If the calling account had been granted `role`, emits a {RoleRevoked} event. Requirements: - the caller must be `account`."
      },
      "revokeRole(bytes32,address)": {
        "details": "Revokes `role` from `account`. If `account` had been granted `role`, emits a {RoleRevoked} event. Requirements: - the caller must have ``role``'s admin role."
      },
      "safeTransferFrom(address,address,uint256)": {
        "details": "See {IERC721-safeTransferFrom}."
      },
      "safeTransferFrom(address,address,uint256,bytes)": {
        "details": "See {IERC721-safeTransferFrom}."
      },
      "setApprovalForAll(address,bool)": {
        "details": "See {IERC721-setApprovalForAll}."
      },
      "setClosingFee(uint256)": {
        "details": "Set the closing fee for this vault"
      },
      "setDebtCeiling(uint256)": {
        "details": "Set the debt ceiling for this vault"
      },
      "setDebtRatio(uint256)": {
        "details": "sets the debt ratio"
      },
      "setGainRatio(uint256)": {
        "details": "sets the gain ratio"
      },
      "setGateway(address)": {
        "details": "Set the WAVAX gateway for this vault if it needs one"
      },
      "setOpeningFee(uint256)": {
        "details": "Set the opening fee for this vault"
      },
      "setPriceSource(address)": {
        "details": "Set the price source for this vault"
      },
      "setStabilityPool(address)": {
        "details": "Set the stability pool (liquidator) for this vault"
      },
      "setTokenPeg(uint256)": {
        "details": "Set the price source for this vault"
      },
      "setTreasury(uint256)": {
        "details": "Set the treasury vault for this vault"
      },
      "symbol()": {
        "details": "See {IERC721Metadata-symbol}."
      },
      "tokenByIndex(uint256)": {
        "details": "See {IERC721Enumerable-tokenByIndex}."
      },
      "tokenOfOwnerByIndex(address,uint256)": {
        "details": "See {IERC721Enumerable-tokenOfOwnerByIndex}."
      },
      "tokenURI(uint256)": {
        "details": "See {IERC721Metadata-tokenURI}."
      },
      "totalSupply()": {
        "details": "See {IERC721Enumerable-totalSupply}."
      },
      "transferFrom(address,address,uint256)": {
        "details": "See {IERC721-transferFrom}."
      },
      "transferVault(uint256,address)": {
        "details": "user can transfer vault to another address Emits TransferVault event"
      },
      "vaultExists(uint256)": {
        "details": "allows checking if vault exists or not"
      },
      "withdrawCollateral(uint256,uint256)": {
        "details": "allows vault owner to withdraw the collateral Requirements: - Withdraw amount is less than or equal to current collateral - Collateral withdrawal amount does not put debt below minimum collateral Emits WithdrawCollateral event"
      }
    },
    "version": 1
  },
  "userdoc": {
    "kind": "user",
    "methods": {
      "minimumCollateralPercentage()": {
        "notice": "Set all of these upon initalization"
      }
    },
    "version": 1
  },
  "storageLayout": {
    "storage": [
      {
        "astId": 594,
        "contract": "apps/avai/src/contracts/Bank.sol:Bank",
        "label": "_initialized",
        "offset": 0,
        "slot": "0",
        "type": "t_bool"
      },
      {
        "astId": 597,
        "contract": "apps/avai/src/contracts/Bank.sol:Bank",
        "label": "_initializing",
        "offset": 1,
        "slot": "0",
        "type": "t_bool"
      },
      {
        "astId": 3406,
        "contract": "apps/avai/src/contracts/Bank.sol:Bank",
        "label": "__gap",
        "offset": 0,
        "slot": "1",
        "type": "t_array(t_uint256)50_storage"
      },
      {
        "astId": 4245,
        "contract": "apps/avai/src/contracts/Bank.sol:Bank",
        "label": "__gap",
        "offset": 0,
        "slot": "51",
        "type": "t_array(t_uint256)50_storage"
      },
      {
        "astId": 1743,
        "contract": "apps/avai/src/contracts/Bank.sol:Bank",
        "label": "_name",
        "offset": 0,
        "slot": "101",
        "type": "t_string_storage"
      },
      {
        "astId": 1745,
        "contract": "apps/avai/src/contracts/Bank.sol:Bank",
        "label": "_symbol",
        "offset": 0,
        "slot": "102",
        "type": "t_string_storage"
      },
      {
        "astId": 1749,
        "contract": "apps/avai/src/contracts/Bank.sol:Bank",
        "label": "_owners",
        "offset": 0,
        "slot": "103",
        "type": "t_mapping(t_uint256,t_address)"
      },
      {
        "astId": 1753,
        "contract": "apps/avai/src/contracts/Bank.sol:Bank",
        "label": "_balances",
        "offset": 0,
        "slot": "104",
        "type": "t_mapping(t_address,t_uint256)"
      },
      {
        "astId": 1757,
        "contract": "apps/avai/src/contracts/Bank.sol:Bank",
        "label": "_tokenApprovals",
        "offset": 0,
        "slot": "105",
        "type": "t_mapping(t_uint256,t_address)"
      },
      {
        "astId": 1763,
        "contract": "apps/avai/src/contracts/Bank.sol:Bank",
        "label": "_operatorApprovals",
        "offset": 0,
        "slot": "106",
        "type": "t_mapping(t_address,t_mapping(t_address,t_bool))"
      },
      {
        "astId": 2559,
        "contract": "apps/avai/src/contracts/Bank.sol:Bank",
        "label": "__gap",
        "offset": 0,
        "slot": "107",
        "type": "t_array(t_uint256)44_storage"
      },
      {
        "astId": 2733,
        "contract": "apps/avai/src/contracts/Bank.sol:Bank",
        "label": "_ownedTokens",
        "offset": 0,
        "slot": "151",
        "type": "t_mapping(t_address,t_mapping(t_uint256,t_uint256))"
      },
      {
        "astId": 2737,
        "contract": "apps/avai/src/contracts/Bank.sol:Bank",
        "label": "_ownedTokensIndex",
        "offset": 0,
        "slot": "152",
        "type": "t_mapping(t_uint256,t_uint256)"
      },
      {
        "astId": 2740,
        "contract": "apps/avai/src/contracts/Bank.sol:Bank",
        "label": "_allTokens",
        "offset": 0,
        "slot": "153",
        "type": "t_array(t_uint256)dyn_storage"
      },
      {
        "astId": 2744,
        "contract": "apps/avai/src/contracts/Bank.sol:Bank",
        "label": "_allTokensIndex",
        "offset": 0,
        "slot": "154",
        "type": "t_mapping(t_uint256,t_uint256)"
      },
      {
        "astId": 3059,
        "contract": "apps/avai/src/contracts/Bank.sol:Bank",
        "label": "__gap",
        "offset": 0,
        "slot": "155",
        "type": "t_array(t_uint256)46_storage"
      },
      {
        "astId": 761,
        "contract": "apps/avai/src/contracts/Bank.sol:Bank",
        "label": "_status",
        "offset": 0,
        "slot": "201",
        "type": "t_uint256"
      },
      {
        "astId": 804,
        "contract": "apps/avai/src/contracts/Bank.sol:Bank",
        "label": "__gap",
        "offset": 0,
        "slot": "202",
        "type": "t_array(t_uint256)49_storage"
      },
      {
        "astId": 94,
        "contract": "apps/avai/src/contracts/Bank.sol:Bank",
        "label": "_roles",
        "offset": 0,
        "slot": "251",
        "type": "t_mapping(t_bytes32,t_struct(RoleData)89_storage)"
      },
      {
        "astId": 379,
        "contract": "apps/avai/src/contracts/Bank.sol:Bank",
        "label": "__gap",
        "offset": 0,
        "slot": "252",
        "type": "t_array(t_uint256)49_storage"
      },
      {
        "astId": 6337,
        "contract": "apps/avai/src/contracts/Bank.sol:Bank",
        "label": "_userVaultIds",
        "offset": 0,
        "slot": "301",
        "type": "t_struct(Counter)3413_storage"
      },
      {
        "astId": 6340,
        "contract": "apps/avai/src/contracts/Bank.sol:Bank",
        "label": "minimumCollateralPercentage",
        "offset": 0,
        "slot": "302",
        "type": "t_uint256"
      },
      {
        "astId": 6342,
        "contract": "apps/avai/src/contracts/Bank.sol:Bank",
        "label": "debtCeiling",
        "offset": 0,
        "slot": "303",
        "type": "t_uint256"
      },
      {
        "astId": 6344,
        "contract": "apps/avai/src/contracts/Bank.sol:Bank",
        "label": "closingFee",
        "offset": 0,
        "slot": "304",
        "type": "t_uint256"
      },
      {
        "astId": 6346,
        "contract": "apps/avai/src/contracts/Bank.sol:Bank",
        "label": "openingFee",
        "offset": 0,
        "slot": "305",
        "type": "t_uint256"
      },
      {
        "astId": 6348,
        "contract": "apps/avai/src/contracts/Bank.sol:Bank",
        "label": "tokenPeg",
        "offset": 0,
        "slot": "306",
        "type": "t_uint256"
      },
      {
        "astId": 6350,
        "contract": "apps/avai/src/contracts/Bank.sol:Bank",
        "label": "totalDebt",
        "offset": 0,
        "slot": "307",
        "type": "t_uint256"
      },
      {
        "astId": 6352,
        "contract": "apps/avai/src/contracts/Bank.sol:Bank",
        "label": "debtRatio",
        "offset": 0,
        "slot": "308",
        "type": "t_uint256"
      },
      {
        "astId": 6354,
        "contract": "apps/avai/src/contracts/Bank.sol:Bank",
        "label": "gainRatio",
        "offset": 0,
        "slot": "309",
        "type": "t_uint256"
      },
      {
        "astId": 6358,
        "contract": "apps/avai/src/contracts/Bank.sol:Bank",
        "label": "tokenDebt",
        "offset": 0,
        "slot": "310",
        "type": "t_mapping(t_address,t_uint256)"
      },
      {
        "astId": 6361,
        "contract": "apps/avai/src/contracts/Bank.sol:Bank",
        "label": "priceSource",
        "offset": 0,
        "slot": "311",
        "type": "t_contract(AggregatorV3Interface)45"
      },
      {
        "astId": 6364,
        "contract": "apps/avai/src/contracts/Bank.sol:Bank",
        "label": "token",
        "offset": 0,
        "slot": "312",
        "type": "t_contract(IERC20)5479"
      },
      {
        "astId": 6367,
        "contract": "apps/avai/src/contracts/Bank.sol:Bank",
        "label": "stablecoin",
        "offset": 0,
        "slot": "313",
        "type": "t_contract(IStablecoin)9273"
      },
      {
        "astId": 6369,
        "contract": "apps/avai/src/contracts/Bank.sol:Bank",
        "label": "stabilityPool",
        "offset": 0,
        "slot": "314",
        "type": "t_address"
      },
      {
        "astId": 6371,
        "contract": "apps/avai/src/contracts/Bank.sol:Bank",
        "label": "gateway",
        "offset": 0,
        "slot": "315",
        "type": "t_address"
      },
      {
        "astId": 6373,
        "contract": "apps/avai/src/contracts/Bank.sol:Bank",
        "label": "treasury",
        "offset": 0,
        "slot": "316",
        "type": "t_uint256"
      },
      {
        "astId": 6377,
        "contract": "apps/avai/src/contracts/Bank.sol:Bank",
        "label": "vaultExistence",
        "offset": 0,
        "slot": "317",
        "type": "t_mapping(t_uint256,t_bool)"
      },
      {
        "astId": 6381,
        "contract": "apps/avai/src/contracts/Bank.sol:Bank",
        "label": "vaultCollateral",
        "offset": 0,
        "slot": "318",
        "type": "t_mapping(t_uint256,t_uint256)"
      },
      {
        "astId": 6385,
        "contract": "apps/avai/src/contracts/Bank.sol:Bank",
        "label": "vaultDebt",
        "offset": 0,
        "slot": "319",
        "type": "t_mapping(t_uint256,t_uint256)"
      }
    ],
    "types": {
      "t_address": {
        "encoding": "inplace",
        "label": "address",
        "numberOfBytes": "20"
      },
      "t_array(t_uint256)44_storage": {
        "base": "t_uint256",
        "encoding": "inplace",
        "label": "uint256[44]",
        "numberOfBytes": "1408"
      },
      "t_array(t_uint256)46_storage": {
        "base": "t_uint256",
        "encoding": "inplace",
        "label": "uint256[46]",
        "numberOfBytes": "1472"
      },
      "t_array(t_uint256)49_storage": {
        "base": "t_uint256",
        "encoding": "inplace",
        "label": "uint256[49]",
        "numberOfBytes": "1568"
      },
      "t_array(t_uint256)50_storage": {
        "base": "t_uint256",
        "encoding": "inplace",
        "label": "uint256[50]",
        "numberOfBytes": "1600"
      },
      "t_array(t_uint256)dyn_storage": {
        "base": "t_uint256",
        "encoding": "dynamic_array",
        "label": "uint256[]",
        "numberOfBytes": "32"
      },
      "t_bool": {
        "encoding": "inplace",
        "label": "bool",
        "numberOfBytes": "1"
      },
      "t_bytes32": {
        "encoding": "inplace",
        "label": "bytes32",
        "numberOfBytes": "32"
      },
      "t_contract(AggregatorV3Interface)45": {
        "encoding": "inplace",
        "label": "contract AggregatorV3Interface",
        "numberOfBytes": "20"
      },
      "t_contract(IERC20)5479": {
        "encoding": "inplace",
        "label": "contract IERC20",
        "numberOfBytes": "20"
      },
      "t_contract(IStablecoin)9273": {
        "encoding": "inplace",
        "label": "contract IStablecoin",
        "numberOfBytes": "20"
      },
      "t_mapping(t_address,t_bool)": {
        "encoding": "mapping",
        "key": "t_address",
        "label": "mapping(address => bool)",
        "numberOfBytes": "32",
        "value": "t_bool"
      },
      "t_mapping(t_address,t_mapping(t_address,t_bool))": {
        "encoding": "mapping",
        "key": "t_address",
        "label": "mapping(address => mapping(address => bool))",
        "numberOfBytes": "32",
        "value": "t_mapping(t_address,t_bool)"
      },
      "t_mapping(t_address,t_mapping(t_uint256,t_uint256))": {
        "encoding": "mapping",
        "key": "t_address",
        "label": "mapping(address => mapping(uint256 => uint256))",
        "numberOfBytes": "32",
        "value": "t_mapping(t_uint256,t_uint256)"
      },
      "t_mapping(t_address,t_uint256)": {
        "encoding": "mapping",
        "key": "t_address",
        "label": "mapping(address => uint256)",
        "numberOfBytes": "32",
        "value": "t_uint256"
      },
      "t_mapping(t_bytes32,t_struct(RoleData)89_storage)": {
        "encoding": "mapping",
        "key": "t_bytes32",
        "label": "mapping(bytes32 => struct AccessControlUpgradeable.RoleData)",
        "numberOfBytes": "32",
        "value": "t_struct(RoleData)89_storage"
      },
      "t_mapping(t_uint256,t_address)": {
        "encoding": "mapping",
        "key": "t_uint256",
        "label": "mapping(uint256 => address)",
        "numberOfBytes": "32",
        "value": "t_address"
      },
      "t_mapping(t_uint256,t_bool)": {
        "encoding": "mapping",
        "key": "t_uint256",
        "label": "mapping(uint256 => bool)",
        "numberOfBytes": "32",
        "value": "t_bool"
      },
      "t_mapping(t_uint256,t_uint256)": {
        "encoding": "mapping",
        "key": "t_uint256",
        "label": "mapping(uint256 => uint256)",
        "numberOfBytes": "32",
        "value": "t_uint256"
      },
      "t_string_storage": {
        "encoding": "bytes",
        "label": "string",
        "numberOfBytes": "32"
      },
      "t_struct(Counter)3413_storage": {
        "encoding": "inplace",
        "label": "struct CountersUpgradeable.Counter",
        "members": [
          {
            "astId": 3412,
            "contract": "apps/avai/src/contracts/Bank.sol:Bank",
            "label": "_value",
            "offset": 0,
            "slot": "0",
            "type": "t_uint256"
          }
        ],
        "numberOfBytes": "32"
      },
      "t_struct(RoleData)89_storage": {
        "encoding": "inplace",
        "label": "struct AccessControlUpgradeable.RoleData",
        "members": [
          {
            "astId": 86,
            "contract": "apps/avai/src/contracts/Bank.sol:Bank",
            "label": "members",
            "offset": 0,
            "slot": "0",
            "type": "t_mapping(t_address,t_bool)"
          },
          {
            "astId": 88,
            "contract": "apps/avai/src/contracts/Bank.sol:Bank",
            "label": "adminRole",
            "offset": 0,
            "slot": "1",
            "type": "t_bytes32"
          }
        ],
        "numberOfBytes": "64"
      },
      "t_uint256": {
        "encoding": "inplace",
        "label": "uint256",
        "numberOfBytes": "32"
      }
    }
  }
}