{
  "address": "0x049D190D79ab0C1563918741CfE1e395059f42c1",
  "abi": [
    {
      "anonymous": false,
      "inputs": [
        {
          "indexed": true,
          "internalType": "address",
          "name": "owner",
          "type": "address"
        },
        {
          "indexed": true,
          "internalType": "address",
          "name": "approved",
          "type": "address"
        },
        {
          "indexed": true,
          "internalType": "uint256",
          "name": "tokenId",
          "type": "uint256"
        }
      ],
      "name": "Approval",
      "type": "event"
    },
    {
      "anonymous": false,
      "inputs": [
        {
          "indexed": true,
          "internalType": "address",
          "name": "owner",
          "type": "address"
        },
        {
          "indexed": true,
          "internalType": "address",
          "name": "operator",
          "type": "address"
        },
        {
          "indexed": false,
          "internalType": "bool",
          "name": "approved",
          "type": "bool"
        }
      ],
      "name": "ApprovalForAll",
      "type": "event"
    },
    {
      "anonymous": false,
      "inputs": [
        {
          "indexed": false,
          "internalType": "uint256",
          "name": "vaultID",
          "type": "uint256"
        },
        {
          "indexed": false,
          "internalType": "uint256",
          "name": "amount",
          "type": "uint256"
        }
      ],
      "name": "BorrowToken",
      "type": "event"
    },
    {
      "anonymous": false,
      "inputs": [
        {
          "indexed": false,
          "internalType": "uint256",
          "name": "vaultID",
          "type": "uint256"
        },
        {
          "indexed": false,
          "internalType": "address",
          "name": "creator",
          "type": "address"
        }
      ],
      "name": "CreateVault",
      "type": "event"
    },
    {
      "anonymous": false,
      "inputs": [
        {
          "indexed": false,
          "internalType": "uint256",
          "name": "vaultID",
          "type": "uint256"
        },
        {
          "indexed": false,
          "internalType": "uint256",
          "name": "amount",
          "type": "uint256"
        }
      ],
      "name": "DepositCollateral",
      "type": "event"
    },
    {
      "anonymous": false,
      "inputs": [
        {
          "indexed": false,
          "internalType": "uint256",
          "name": "vaultID",
          "type": "uint256"
        }
      ],
      "name": "DestroyVault",
      "type": "event"
    },
    {
      "anonymous": false,
      "inputs": [
        {
          "indexed": false,
          "internalType": "uint256",
          "name": "vaultID",
          "type": "uint256"
        },
        {
          "indexed": false,
          "internalType": "address",
          "name": "owner",
          "type": "address"
        },
        {
          "indexed": false,
          "internalType": "address",
          "name": "buyer",
          "type": "address"
        },
        {
          "indexed": false,
          "internalType": "uint256",
          "name": "amountPaid",
          "type": "uint256"
        },
        {
          "indexed": false,
          "internalType": "uint256",
          "name": "tokenExtract",
          "type": "uint256"
        }
      ],
      "name": "LiquidateVault",
      "type": "event"
    },
    {
      "anonymous": false,
      "inputs": [
        {
          "indexed": false,
          "internalType": "uint256",
          "name": "vaultID",
          "type": "uint256"
        },
        {
          "indexed": false,
          "internalType": "uint256",
          "name": "amount",
          "type": "uint256"
        },
        {
          "indexed": false,
          "internalType": "uint256",
          "name": "closingFee",
          "type": "uint256"
        }
      ],
      "name": "PayBackToken",
      "type": "event"
    },
    {
      "anonymous": false,
      "inputs": [
        {
          "indexed": true,
          "internalType": "bytes32",
          "name": "role",
          "type": "bytes32"
        },
        {
          "indexed": true,
          "internalType": "bytes32",
          "name": "previousAdminRole",
          "type": "bytes32"
        },
        {
          "indexed": true,
          "internalType": "bytes32",
          "name": "newAdminRole",
          "type": "bytes32"
        }
      ],
      "name": "RoleAdminChanged",
      "type": "event"
    },
    {
      "anonymous": false,
      "inputs": [
        {
          "indexed": true,
          "internalType": "bytes32",
          "name": "role",
          "type": "bytes32"
        },
        {
          "indexed": true,
          "internalType": "address",
          "name": "account",
          "type": "address"
        },
        {
          "indexed": true,
          "internalType": "address",
          "name": "sender",
          "type": "address"
        }
      ],
      "name": "RoleGranted",
      "type": "event"
    },
    {
      "anonymous": false,
      "inputs": [
        {
          "indexed": true,
          "internalType": "bytes32",
          "name": "role",
          "type": "bytes32"
        },
        {
          "indexed": true,
          "internalType": "address",
          "name": "account",
          "type": "address"
        },
        {
          "indexed": true,
          "internalType": "address",
          "name": "sender",
          "type": "address"
        }
      ],
      "name": "RoleRevoked",
      "type": "event"
    },
    {
      "anonymous": false,
      "inputs": [
        {
          "indexed": true,
          "internalType": "address",
          "name": "from",
          "type": "address"
        },
        {
          "indexed": true,
          "internalType": "address",
          "name": "to",
          "type": "address"
        },
        {
          "indexed": true,
          "internalType": "uint256",
          "name": "tokenId",
          "type": "uint256"
        }
      ],
      "name": "Transfer",
      "type": "event"
    },
    {
      "anonymous": false,
      "inputs": [
        {
          "indexed": false,
          "internalType": "uint256",
          "name": "vaultID",
          "type": "uint256"
        },
        {
          "indexed": false,
          "internalType": "address",
          "name": "from",
          "type": "address"
        },
        {
          "indexed": false,
          "internalType": "address",
          "name": "to",
          "type": "address"
        }
      ],
      "name": "TransferVault",
      "type": "event"
    },
    {
      "anonymous": false,
      "inputs": [
        {
          "indexed": false,
          "internalType": "uint256",
          "name": "vaultID",
          "type": "uint256"
        },
        {
          "indexed": false,
          "internalType": "uint256",
          "name": "amount",
          "type": "uint256"
        }
      ],
      "name": "WithdrawCollateral",
      "type": "event"
    },
    {
      "inputs": [],
      "name": "DEFAULT_ADMIN_ROLE",
      "outputs": [
        {
          "internalType": "bytes32",
          "name": "",
          "type": "bytes32"
        }
      ],
      "stateMutability": "view",
      "type": "function"
    },
    {
      "inputs": [],
      "name": "TREASURY_ROLE",
      "outputs": [
        {
          "internalType": "bytes32",
          "name": "",
          "type": "bytes32"
        }
      ],
      "stateMutability": "view",
      "type": "function"
    },
    {
      "inputs": [
        {
          "internalType": "address",
          "name": "to",
          "type": "address"
        },
        {
          "internalType": "uint256",
          "name": "tokenId",
          "type": "uint256"
        }
      ],
      "name": "approve",
      "outputs": [],
      "stateMutability": "nonpayable",
      "type": "function"
    },
    {
      "inputs": [
        {
          "internalType": "address",
          "name": "owner",
          "type": "address"
        }
      ],
      "name": "balanceOf",
      "outputs": [
        {
          "internalType": "uint256",
          "name": "",
          "type": "uint256"
        }
      ],
      "stateMutability": "view",
      "type": "function"
    },
    {
      "inputs": [
        {
          "internalType": "uint256",
          "name": "vaultID",
          "type": "uint256"
        },
        {
          "internalType": "uint256",
          "name": "amount",
          "type": "uint256"
        }
      ],
      "name": "borrowToken",
      "outputs": [],
      "stateMutability": "nonpayable",
      "type": "function"
    },
    {
      "inputs": [
        {
          "internalType": "address",
          "name": "to",
          "type": "address"
        }
      ],
      "name": "changeTreasury",
      "outputs": [],
      "stateMutability": "nonpayable",
      "type": "function"
    },
    {
      "inputs": [
        {
          "internalType": "uint256",
          "name": "vaultId_",
          "type": "uint256"
        }
      ],
      "name": "checkCost",
      "outputs": [
        {
          "internalType": "uint256",
          "name": "",
          "type": "uint256"
        }
      ],
      "stateMutability": "view",
      "type": "function"
    },
    {
      "inputs": [
        {
          "internalType": "uint256",
          "name": "vaultId_",
          "type": "uint256"
        }
      ],
      "name": "checkExtract",
      "outputs": [
        {
          "internalType": "uint256",
          "name": "",
          "type": "uint256"
        }
      ],
      "stateMutability": "view",
      "type": "function"
    },
    {
      "inputs": [
        {
          "internalType": "uint256",
          "name": "vaultId_",
          "type": "uint256"
        }
      ],
      "name": "checkLiquidation",
      "outputs": [],
      "stateMutability": "view",
      "type": "function"
    },
    {
      "inputs": [],
      "name": "closingFee",
      "outputs": [
        {
          "internalType": "uint256",
          "name": "",
          "type": "uint256"
        }
      ],
      "stateMutability": "view",
      "type": "function"
    },
    {
      "inputs": [],
      "name": "createVault",
      "outputs": [],
      "stateMutability": "nonpayable",
      "type": "function"
    },
    {
      "inputs": [],
      "name": "debtCeiling",
      "outputs": [
        {
          "internalType": "uint256",
          "name": "",
          "type": "uint256"
        }
      ],
      "stateMutability": "view",
      "type": "function"
    },
    {
      "inputs": [],
      "name": "debtRatio",
      "outputs": [
        {
          "internalType": "uint256",
          "name": "",
          "type": "uint256"
        }
      ],
      "stateMutability": "view",
      "type": "function"
    },
    {
      "inputs": [
        {
          "internalType": "uint256",
          "name": "vaultID",
          "type": "uint256"
        },
        {
          "internalType": "uint256",
          "name": "amount",
          "type": "uint256"
        }
      ],
      "name": "depositCollateral",
      "outputs": [],
      "stateMutability": "nonpayable",
      "type": "function"
    },
    {
      "inputs": [
        {
          "internalType": "uint256",
          "name": "vaultID",
          "type": "uint256"
        }
      ],
      "name": "destroyVault",
      "outputs": [],
      "stateMutability": "nonpayable",
      "type": "function"
    },
    {
      "inputs": [],
      "name": "gainRatio",
      "outputs": [
        {
          "internalType": "uint256",
          "name": "",
          "type": "uint256"
        }
      ],
      "stateMutability": "view",
      "type": "function"
    },
    {
      "inputs": [],
      "name": "gateway",
      "outputs": [
        {
          "internalType": "address",
          "name": "",
          "type": "address"
        }
      ],
      "stateMutability": "view",
      "type": "function"
    },
    {
      "inputs": [
        {
          "internalType": "uint256",
          "name": "tokenId",
          "type": "uint256"
        }
      ],
      "name": "getApproved",
      "outputs": [
        {
          "internalType": "address",
          "name": "",
          "type": "address"
        }
      ],
      "stateMutability": "view",
      "type": "function"
    },
    {
      "inputs": [],
      "name": "getPaid",
      "outputs": [],
      "stateMutability": "nonpayable",
      "type": "function"
    },
    {
      "inputs": [],
      "name": "getPricePeg",
      "outputs": [
        {
          "internalType": "uint256",
          "name": "",
          "type": "uint256"
        }
      ],
      "stateMutability": "view",
      "type": "function"
    },
    {
      "inputs": [],
      "name": "getPriceSource",
      "outputs": [
        {
          "internalType": "uint256",
          "name": "",
          "type": "uint256"
        }
      ],
      "stateMutability": "view",
      "type": "function"
    },
    {
      "inputs": [
        {
          "internalType": "bytes32",
          "name": "role",
          "type": "bytes32"
        }
      ],
      "name": "getRoleAdmin",
      "outputs": [
        {
          "internalType": "bytes32",
          "name": "",
          "type": "bytes32"
        }
      ],
      "stateMutability": "view",
      "type": "function"
    },
    {
      "inputs": [
        {
          "internalType": "bytes32",
          "name": "role",
          "type": "bytes32"
        },
        {
          "internalType": "address",
          "name": "account",
          "type": "address"
        }
      ],
      "name": "grantRole",
      "outputs": [],
      "stateMutability": "nonpayable",
      "type": "function"
    },
    {
      "inputs": [
        {
          "internalType": "bytes32",
          "name": "role",
          "type": "bytes32"
        },
        {
          "internalType": "address",
          "name": "account",
          "type": "address"
        }
      ],
      "name": "hasRole",
      "outputs": [
        {
          "internalType": "bool",
          "name": "",
          "type": "bool"
        }
      ],
      "stateMutability": "view",
      "type": "function"
    },
    {
      "inputs": [
        {
          "internalType": "uint256",
          "name": "minimumCollateralPercentage_",
          "type": "uint256"
        },
        {
          "internalType": "address",
          "name": "priceSource_",
          "type": "address"
        },
        {
          "internalType": "string",
          "name": "name_",
          "type": "string"
        },
        {
          "internalType": "string",
          "name": "symbol_",
          "type": "string"
        },
        {
          "internalType": "address",
          "name": "token_",
          "type": "address"
        },
        {
          "internalType": "address",
          "name": "owner",
          "type": "address"
        }
      ],
      "name": "initialize",
      "outputs": [],
      "stateMutability": "nonpayable",
      "type": "function"
    },
    {
      "inputs": [
        {
          "internalType": "address",
          "name": "owner",
          "type": "address"
        },
        {
          "internalType": "address",
          "name": "operator",
          "type": "address"
        }
      ],
      "name": "isApprovedForAll",
      "outputs": [
        {
          "internalType": "bool",
          "name": "",
          "type": "bool"
        }
      ],
      "stateMutability": "view",
      "type": "function"
    },
    {
      "inputs": [
        {
          "internalType": "uint256",
          "name": "vaultID_",
          "type": "uint256"
        }
      ],
      "name": "liquidateVault",
      "outputs": [],
      "stateMutability": "nonpayable",
      "type": "function"
    },
    {
      "inputs": [],
      "name": "minimumCollateralPercentage",
      "outputs": [
        {
          "internalType": "uint256",
          "name": "",
          "type": "uint256"
        }
      ],
      "stateMutability": "view",
      "type": "function"
    },
    {
      "inputs": [],
      "name": "name",
      "outputs": [
        {
          "internalType": "string",
          "name": "",
          "type": "string"
        }
      ],
      "stateMutability": "view",
      "type": "function"
    },
    {
      "inputs": [],
      "name": "openingFee",
      "outputs": [
        {
          "internalType": "uint256",
          "name": "",
          "type": "uint256"
        }
      ],
      "stateMutability": "view",
      "type": "function"
    },
    {
      "inputs": [
        {
          "internalType": "uint256",
          "name": "tokenId",
          "type": "uint256"
        }
      ],
      "name": "ownerOf",
      "outputs": [
        {
          "internalType": "address",
          "name": "",
          "type": "address"
        }
      ],
      "stateMutability": "view",
      "type": "function"
    },
    {
      "inputs": [
        {
          "internalType": "uint256",
          "name": "vaultID",
          "type": "uint256"
        },
        {
          "internalType": "uint256",
          "name": "amount",
          "type": "uint256"
        }
      ],
      "name": "payBackToken",
      "outputs": [],
      "stateMutability": "nonpayable",
      "type": "function"
    },
    {
      "inputs": [],
      "name": "priceSource",
      "outputs": [
        {
          "internalType": "contract AggregatorV3Interface",
          "name": "",
          "type": "address"
        }
      ],
      "stateMutability": "view",
      "type": "function"
    },
    {
      "inputs": [
        {
          "internalType": "bytes32",
          "name": "role",
          "type": "bytes32"
        },
        {
          "internalType": "address",
          "name": "account",
          "type": "address"
        }
      ],
      "name": "renounceRole",
      "outputs": [],
      "stateMutability": "nonpayable",
      "type": "function"
    },
    {
      "inputs": [
        {
          "internalType": "bytes32",
          "name": "role",
          "type": "bytes32"
        },
        {
          "internalType": "address",
          "name": "account",
          "type": "address"
        }
      ],
      "name": "revokeRole",
      "outputs": [],
      "stateMutability": "nonpayable",
      "type": "function"
    },
    {
      "inputs": [
        {
          "internalType": "address",
          "name": "from",
          "type": "address"
        },
        {
          "internalType": "address",
          "name": "to",
          "type": "address"
        },
        {
          "internalType": "uint256",
          "name": "tokenId",
          "type": "uint256"
        }
      ],
      "name": "safeTransferFrom",
      "outputs": [],
      "stateMutability": "nonpayable",
      "type": "function"
    },
    {
      "inputs": [
        {
          "internalType": "address",
          "name": "from",
          "type": "address"
        },
        {
          "internalType": "address",
          "name": "to",
          "type": "address"
        },
        {
          "internalType": "uint256",
          "name": "tokenId",
          "type": "uint256"
        },
        {
          "internalType": "bytes",
          "name": "_data",
          "type": "bytes"
        }
      ],
      "name": "safeTransferFrom",
      "outputs": [],
      "stateMutability": "nonpayable",
      "type": "function"
    },
    {
      "inputs": [
        {
          "internalType": "address",
          "name": "operator",
          "type": "address"
        },
        {
          "internalType": "bool",
          "name": "approved",
          "type": "bool"
        }
      ],
      "name": "setApprovalForAll",
      "outputs": [],
      "stateMutability": "nonpayable",
      "type": "function"
    },
    {
      "inputs": [
        {
          "internalType": "uint256",
          "name": "amount",
          "type": "uint256"
        }
      ],
      "name": "setClosingFee",
      "outputs": [],
      "stateMutability": "nonpayable",
      "type": "function"
    },
    {
      "inputs": [
        {
          "internalType": "uint256",
          "name": "debtCeiling_",
          "type": "uint256"
        }
      ],
      "name": "setDebtCeiling",
      "outputs": [],
      "stateMutability": "nonpayable",
      "type": "function"
    },
    {
      "inputs": [
        {
          "internalType": "uint256",
          "name": "debtRatio_",
          "type": "uint256"
        }
      ],
      "name": "setDebtRatio",
      "outputs": [],
      "stateMutability": "nonpayable",
      "type": "function"
    },
    {
      "inputs": [
        {
          "internalType": "uint256",
          "name": "gainRatio_",
          "type": "uint256"
        }
      ],
      "name": "setGainRatio",
      "outputs": [],
      "stateMutability": "nonpayable",
      "type": "function"
    },
    {
      "inputs": [
        {
          "internalType": "address",
          "name": "gateway_",
          "type": "address"
        }
      ],
      "name": "setGateway",
      "outputs": [],
      "stateMutability": "nonpayable",
      "type": "function"
    },
    {
      "inputs": [
        {
          "internalType": "uint256",
          "name": "amount",
          "type": "uint256"
        }
      ],
      "name": "setOpeningFee",
      "outputs": [],
      "stateMutability": "nonpayable",
      "type": "function"
    },
    {
      "inputs": [
        {
          "internalType": "address",
          "name": "priceSource_",
          "type": "address"
        }
      ],
      "name": "setPriceSource",
      "outputs": [],
      "stateMutability": "nonpayable",
      "type": "function"
    },
    {
      "inputs": [
        {
          "internalType": "address",
          "name": "stabilityPool_",
          "type": "address"
        }
      ],
      "name": "setStabilityPool",
      "outputs": [],
      "stateMutability": "nonpayable",
      "type": "function"
    },
    {
      "inputs": [
        {
          "internalType": "uint256",
          "name": "tokenPeg_",
          "type": "uint256"
        }
      ],
      "name": "setTokenPeg",
      "outputs": [],
      "stateMutability": "nonpayable",
      "type": "function"
    },
    {
      "inputs": [
        {
          "internalType": "uint256",
          "name": "treasury_",
          "type": "uint256"
        }
      ],
      "name": "setTreasury",
      "outputs": [],
      "stateMutability": "nonpayable",
      "type": "function"
    },
    {
      "inputs": [],
      "name": "stabilityPool",
      "outputs": [
        {
          "internalType": "address",
          "name": "",
          "type": "address"
        }
      ],
      "stateMutability": "view",
      "type": "function"
    },
    {
      "inputs": [
        {
          "internalType": "bytes4",
          "name": "interfaceId",
          "type": "bytes4"
        }
      ],
      "name": "supportsInterface",
      "outputs": [
        {
          "internalType": "bool",
          "name": "",
          "type": "bool"
        }
      ],
      "stateMutability": "view",
      "type": "function"
    },
    {
      "inputs": [],
      "name": "symbol",
      "outputs": [
        {
          "internalType": "string",
          "name": "",
          "type": "string"
        }
      ],
      "stateMutability": "view",
      "type": "function"
    },
    {
      "inputs": [],
      "name": "token",
      "outputs": [
        {
          "internalType": "contract IERC20",
          "name": "",
          "type": "address"
        }
      ],
      "stateMutability": "view",
      "type": "function"
    },
    {
      "inputs": [
        {
          "internalType": "uint256",
          "name": "index",
          "type": "uint256"
        }
      ],
      "name": "tokenByIndex",
      "outputs": [
        {
          "internalType": "uint256",
          "name": "",
          "type": "uint256"
        }
      ],
      "stateMutability": "view",
      "type": "function"
    },
    {
      "inputs": [
        {
          "internalType": "address",
          "name": "",
          "type": "address"
        }
      ],
      "name": "tokenDebt",
      "outputs": [
        {
          "internalType": "uint256",
          "name": "",
          "type": "uint256"
        }
      ],
      "stateMutability": "view",
      "type": "function"
    },
    {
      "inputs": [
        {
          "internalType": "address",
          "name": "owner",
          "type": "address"
        },
        {
          "internalType": "uint256",
          "name": "index",
          "type": "uint256"
        }
      ],
      "name": "tokenOfOwnerByIndex",
      "outputs": [
        {
          "internalType": "uint256",
          "name": "",
          "type": "uint256"
        }
      ],
      "stateMutability": "view",
      "type": "function"
    },
    {
      "inputs": [],
      "name": "tokenPeg",
      "outputs": [
        {
          "internalType": "uint256",
          "name": "",
          "type": "uint256"
        }
      ],
      "stateMutability": "view",
      "type": "function"
    },
    {
      "inputs": [
        {
          "internalType": "uint256",
          "name": "tokenId",
          "type": "uint256"
        }
      ],
      "name": "tokenURI",
      "outputs": [
        {
          "internalType": "string",
          "name": "",
          "type": "string"
        }
      ],
      "stateMutability": "view",
      "type": "function"
    },
    {
      "inputs": [],
      "name": "totalDebt",
      "outputs": [
        {
          "internalType": "uint256",
          "name": "",
          "type": "uint256"
        }
      ],
      "stateMutability": "view",
      "type": "function"
    },
    {
      "inputs": [],
      "name": "totalSupply",
      "outputs": [
        {
          "internalType": "uint256",
          "name": "",
          "type": "uint256"
        }
      ],
      "stateMutability": "view",
      "type": "function"
    },
    {
      "inputs": [
        {
          "internalType": "address",
          "name": "from",
          "type": "address"
        },
        {
          "internalType": "address",
          "name": "to",
          "type": "address"
        },
        {
          "internalType": "uint256",
          "name": "tokenId",
          "type": "uint256"
        }
      ],
      "name": "transferFrom",
      "outputs": [],
      "stateMutability": "nonpayable",
      "type": "function"
    },
    {
      "inputs": [
        {
          "internalType": "uint256",
          "name": "vaultID",
          "type": "uint256"
        },
        {
          "internalType": "address",
          "name": "to",
          "type": "address"
        }
      ],
      "name": "transferVault",
      "outputs": [],
      "stateMutability": "nonpayable",
      "type": "function"
    },
    {
      "inputs": [],
      "name": "treasury",
      "outputs": [
        {
          "internalType": "uint256",
          "name": "",
          "type": "uint256"
        }
      ],
      "stateMutability": "view",
      "type": "function"
    },
    {
      "inputs": [
        {
          "internalType": "uint256",
          "name": "",
          "type": "uint256"
        }
      ],
      "name": "vaultCollateral",
      "outputs": [
        {
          "internalType": "uint256",
          "name": "",
          "type": "uint256"
        }
      ],
      "stateMutability": "view",
      "type": "function"
    },
    {
      "inputs": [
        {
          "internalType": "uint256",
          "name": "",
          "type": "uint256"
        }
      ],
      "name": "vaultDebt",
      "outputs": [
        {
          "internalType": "uint256",
          "name": "",
          "type": "uint256"
        }
      ],
      "stateMutability": "view",
      "type": "function"
    },
    {
      "inputs": [
        {
          "internalType": "uint256",
          "name": "vaultID",
          "type": "uint256"
        }
      ],
      "name": "vaultExists",
      "outputs": [
        {
          "internalType": "bool",
          "name": "",
          "type": "bool"
        }
      ],
      "stateMutability": "view",
      "type": "function"
    },
    {
      "inputs": [
        {
          "internalType": "uint256",
          "name": "vaultID",
          "type": "uint256"
        },
        {
          "internalType": "uint256",
          "name": "amount",
          "type": "uint256"
        }
      ],
      "name": "withdrawCollateral",
      "outputs": [],
      "stateMutability": "nonpayable",
      "type": "function"
    }
  ],
  "transactionHash": "0x6da711e420a0573fef618dfadb8134b394ed0e3a72093b3e53d90b59cde26e1c",
  "args": [],
  "solcInputHash": "067f1428c4d7833b37ff6fe7101bf026",
  "bytecode": "0x608060405234801561001057600080fd5b5061519c806100206000396000f3fe608060405234801561001057600080fd5b50600436106104065760003560e01c806385af3c161161021a578063bda5310711610135578063d547741f116100c8578063eb6a887d11610097578063fc0c546a1161007c578063fc0c546a14610902578063fc7b9c1814610916578063ffc73da71461092057600080fd5b8063eb6a887d146108dc578063ece13732146108ef57600080fd5b8063d547741f1461085f578063dcd6812814610872578063e1c84ea414610896578063e985e9c5146108a057600080fd5b8063cf41d6f811610104578063cf41d6f814610800578063d11a57ec14610808578063d310f49b1461081d578063d4a9b2c51461083e57600080fd5b8063bda53107146107c6578063c87b56dd146107d9578063cdfedd63146107ec578063cea55f57146107f657600080fd5b806398d721e0116101ad578063b14f2a391161017c578063b14f2a391461077a578063b1511cc91461078d578063b86f6aef146107a0578063b88d4fde146107b357600080fd5b806398d721e0146107435780639fc30f1c14610756578063a217fddf1461075f578063a22cb4651461076757600080fd5b806390cf0bba116101e957806390cf0bba146106dc57806391d14854146106ef57806395d89b411461072857806397e958d91461073057600080fd5b806385af3c161461069057806385e290a3146106a357806386375994146106b657806390646b4a146106c957600080fd5b80632f2ff15d1161032557806356572ac0116102b857806370a0823111610287578063728bbbb51161026c578063728bbbb5146106525780637558abc81461065c578063767a7b051461067d57600080fd5b806370a082311461062c5780637139c9291461063f57600080fd5b806356572ac0146105f45780635d12928b1461060757806361d027b31461060f5780636352211e1461061957600080fd5b80633db99177116102f45780633db99177146105a85780633e61facd146105bb57806342842e0e146105ce5780634f6ccce7146105e157600080fd5b80632f2ff15d146105655780632f745c5914610578578063311f392a1461058b57806336568abe1461059557600080fd5b8063116191b61161039d57806320531bc91161036c57806320531bc91461051157806323b872dd14610525578063248a9ca3146105385780632935d2bc1461055b57600080fd5b8063116191b6146104d857806311b4a832146104ec57806318160ddd146104ff5780631c883e7b1461050757600080fd5b806306fdde03116103d957806306fdde031461048a578063081812fc1461049f57806308ec5927146104b2578063095ea7b3146104c557600080fd5b806301e49d0a1461040b57806301ffc9a714610420578063048c661d14610448578063048de38114610474575b600080fd5b61041e610419366004614cf5565b610933565b005b61043361042e366004614d2f565b6109a8565b60405190151581526020015b60405180910390f35b61013a5461045c906001600160a01b031681565b6040516001600160a01b03909116815260200161043f565b61047c6109b9565b60405190815260200161043f565b610492610a4e565b60405161043f9190614fbe565b61045c6104ad366004614cf5565b610ae0565b61041e6104c0366004614e1a565b610b75565b61041e6104d3366004614cb0565b610eed565b61013b5461045c906001600160a01b031681565b61047c6104fa366004614cf5565b61101f565b60995461047c565b61047c6101305481565b6101375461045c906001600160a01b031681565b61041e610533366004614bc6565b6110c1565b61047c610546366004614cf5565b600090815260fb602052604090206001015490565b61047c61012e5481565b61041e610573366004614d0d565b611148565b61047c610586366004614cb0565b61116e565b61047c6101355481565b61041e6105a3366004614d0d565b611216565b61041e6105b6366004614cf5565b6112a2565b61041e6105c9366004614d0d565b6112c2565b61041e6105dc366004614bc6565b6113ef565b61047c6105ef366004614cf5565b61140a565b61047c610602366004614cf5565b6114bc565b61041e61157a565b61047c61013c5481565b61045c610627366004614cf5565b61160b565b61047c61063a366004614b7a565b611696565b61041e61064d366004614cf5565b611730565b61047c6101315481565b61047c61066a366004614b7a565b6101366020526000908152604090205481565b61041e61068b366004614e1a565b6117a6565b61041e61069e366004614e1a565b611a71565b61041e6106b1366004614cf5565b611de5565b61041e6106c4366004614cf5565b61201b565b61041e6106d7366004614b7a565b61203b565b61041e6106ea366004614cf5565b6120ce565b6104336106fd366004614d0d565b600091825260fb602090815260408084206001600160a01b0393909316845291905290205460ff1690565b6104926125a4565b61041e61073e366004614d7f565b6125b3565b61041e610751366004614b7a565b61279f565b6101325461047c565b61047c600081565b61041e610775366004614c7a565b612858565b61041e610788366004614b7a565b61291d565b61041e61079b366004614cf5565b612966565b61041e6107ae366004614cf5565b6129ff565b61041e6107c1366004614c01565b612b09565b61041e6107d4366004614b7a565b612b91565b6104926107e7366004614cf5565b612c4a565b61047c6101325481565b61047c6101345481565b61041e612d3f565b61047c60008051602061514783398151915281565b61047c61082b366004614cf5565b61013f6020526000908152604090205481565b61047c61084c366004614cf5565b61013e6020526000908152604090205481565b61041e61086d366004614d0d565b612e51565b610433610880366004614cf5565b600090815261013d602052604090205460ff1690565b61047c61012f5481565b6104336108ae366004614b94565b6001600160a01b039182166000908152606a6020908152604080832093909416825291909152205460ff1690565b61041e6108ea366004614cf5565b612e77565b61041e6108fd366004614e1a565b612e97565b6101385461045c906001600160a01b031681565b61047c6101335481565b61041e61092e366004614cf5565b61301b565b60008051602061514783398151915261094c813361303b565b600082116109a15760405162461bcd60e51b815260206004820152601260248201527f5065672063616e6e6f74206265207a65726f000000000000000000000000000060448201526064015b60405180910390fd5b5061013255565b60006109b3826130bb565b92915050565b60008061013760009054906101000a90046001600160a01b03166001600160a01b031663feaf968c6040518163ffffffff1660e01b815260040160a06040518083038186803b158015610a0b57600080fd5b505afa158015610a1f573d6000803e3d6000fd5b505050506040513d601f19601f82011682018060405250810190610a439190614e3b565b509195945050505050565b606060658054610a5d90615076565b80601f0160208091040260200160405190810160405280929190818152602001828054610a8990615076565b8015610ad65780601f10610aab57610100808354040283529160200191610ad6565b820191906000526020600020905b815481529060010190602001808311610ab957829003601f168201915b5050505050905090565b6000818152606760205260408120546001600160a01b0316610b595760405162461bcd60e51b815260206004820152602c60248201527f4552433732313a20617070726f76656420717565727920666f72206e6f6e657860448201526b34b9ba32b73a103a37b5b2b760a11b6064820152608401610998565b506000908152606960205260409020546001600160a01b031690565b600082815261013d6020526040902054829060ff16610bcd5760405162461bcd60e51b815260206004820152601460248201527315985d5b1d08191bd95cc81b9bdd08195e1a5cdd60621b6044820152606401610998565b33610bd78261160b565b6001600160a01b03161480610bf7575061013b546001600160a01b031633145b610c435760405162461bcd60e51b815260206004820152601960248201527f5661756c74206973206e6f74206f776e656420627920796f75000000000000006044820152606401610998565b600260c9541415610c965760405162461bcd60e51b815260206004820152601f60248201527f5265656e7472616e637947756172643a207265656e7472616e742063616c6c006044820152606401610998565b600260c95581610ce85760405162461bcd60e51b815260206004820152601b60248201527f4d75737420626f72726f77206e6f6e2d7a65726f20616d6f756e7400000000006044820152606401610998565b61012f548261013354610cfb9190614fd1565b1115610d495760405162461bcd60e51b815260206004820152601e60248201527f43616e6e6f74206d696e74206f7665722064656274206365696c696e672e00006044820152606401610998565b600083815261013f6020526040812054610d64908490614fd1565b600085815261013f60205260409020549091508111610d9357634e487b7160e01b600052600160045260246000fd5b600084815261013e6020526040902054610dad90826130f9565b610e1f5760405162461bcd60e51b815260206004820152603a60248201527f426f72726f7720776f756c6420707574207661756c742062656c6f77206d696e60448201527f696d756d20636f6c6c61746572616c2070657263656e746167650000000000006064820152608401610998565b610e298484613129565b610139546040517f40c10f19000000000000000000000000000000000000000000000000000000008152336004820152602481018590526001600160a01b03909116906340c10f1990604401600060405180830381600087803b158015610e8f57600080fd5b505af1158015610ea3573d6000803e3d6000fd5b505060408051878152602081018790527f3e08df88d8e28f37df9bf227d3142ac506a364403445661a60891a49ed6792ca93500190505b60405180910390a15050600160c9555050565b6000610ef88261160b565b9050806001600160a01b0316836001600160a01b03161415610f825760405162461bcd60e51b815260206004820152602160248201527f4552433732313a20617070726f76616c20746f2063757272656e74206f776e6560448201527f72000000000000000000000000000000000000000000000000000000000000006064820152608401610998565b336001600160a01b0382161480610f9e5750610f9e81336108ae565b6110105760405162461bcd60e51b815260206004820152603860248201527f4552433732313a20617070726f76652063616c6c6572206973206e6f74206f7760448201527f6e6572206e6f7220617070726f76656420666f7220616c6c00000000000000006064820152608401610998565b61101a8383613241565b505050565b600081815261013d602052604081205460ff166110715760405162461bcd60e51b815260206004820152601060248201526f15985d5b1d081b5d5cdd08195e1a5cdd60821b6044820152606401610998565b600082815261013e602090815260408083205461013f90925282205461109791906132af565b91505061013254816110a99190614fe9565b905061013454816110ba9190614fe9565b9392505050565b6110cb3382613393565b61113d5760405162461bcd60e51b815260206004820152603160248201527f4552433732313a207472616e736665722063616c6c6572206973206e6f74206f60448201527f776e6572206e6f7220617070726f7665640000000000000000000000000000006064820152608401610998565b61101a838383613486565b600082815260fb6020526040902060010154611164813361303b565b61101a83836134ce565b600061117983611696565b82106111ed5760405162461bcd60e51b815260206004820152602b60248201527f455243373231456e756d657261626c653a206f776e657220696e646578206f7560448201527f74206f6620626f756e64730000000000000000000000000000000000000000006064820152608401610998565b506001600160a01b03919091166000908152609760209081526040808320938352929052205490565b6001600160a01b03811633146112945760405162461bcd60e51b815260206004820152602f60248201527f416363657373436f6e74726f6c3a2063616e206f6e6c792072656e6f756e636560448201527f20726f6c657320666f722073656c6600000000000000000000000000000000006064820152608401610998565b61129e8282613570565b5050565b6000805160206151478339815191526112bb813361303b565b5061013055565b600082815261013d6020526040902054829060ff1661131a5760405162461bcd60e51b815260206004820152601460248201527315985d5b1d08191bd95cc81b9bdd08195e1a5cdd60621b6044820152606401610998565b336113248261160b565b6001600160a01b03161480611344575061013b546001600160a01b031633145b6113905760405162461bcd60e51b815260206004820152601960248201527f5661756c74206973206e6f74206f776e656420627920796f75000000000000006044820152606401610998565b611399836135f3565b6113a3828461369a565b604080518481523360208201526001600160a01b0384168183015290517fa8159d062909288cfe1bc71a9cb71a800664f2658fc2588d52676a844f1b0f139181900360600190a1505050565b61101a83838360405180602001604052806000815250612b09565b600061141560995490565b82106114895760405162461bcd60e51b815260206004820152602c60248201527f455243373231456e756d657261626c653a20676c6f62616c20696e646578206f60448201527f7574206f6620626f756e647300000000000000000000000000000000000000006064820152608401610998565b609982815481106114aa57634e487b7160e01b600052603260045260246000fd5b90600052602060002001549050919050565b600081815261013d602052604081205460ff1661150e5760405162461bcd60e51b815260206004820152601060248201526f15985d5b1d081b5d5cdd08195e1a5cdd60821b6044820152606401610998565b600082815261013e602090815260408083205461013f90925282205461153491906132af565b9150506000610134546115456109b9565b61155090600a614ffd565b61155a9190614ffd565b610135546115689084614ffd565b6115729190614fe9565b949350505050565b61158961012d80546001019055565b600061159561012d5490565b600081815261013d602052604090819020805460ff19166001179055519091507f8b6c1d05c678fa59695e26465a85918ce0fc63a88f74af53d1daef8f0a9c7804906115f690839033909182526001600160a01b0316602082015260400190565b60405180910390a1611608338261369a565b50565b6000818152606760205260408120546001600160a01b0316806109b35760405162461bcd60e51b815260206004820152602960248201527f4552433732313a206f776e657220717565727920666f72206e6f6e657869737460448201527f656e7420746f6b656e00000000000000000000000000000000000000000000006064820152608401610998565b60006001600160a01b0382166117145760405162461bcd60e51b815260206004820152602a60248201527f4552433732313a2062616c616e636520717565727920666f7220746865207a6560448201527f726f2061646472657373000000000000000000000000000000000000000000006064820152608401610998565b506001600160a01b031660009081526068602052604090205490565b600080516020615147833981519152611749813361303b565b600082815261013d602052604090205460ff1661179f5760405162461bcd60e51b815260206004820152601460248201527315985d5b1d08191bd95cc81b9bdd08195e1a5cdd60621b6044820152606401610998565b5061013c55565b600082815261013d6020526040902054829060ff166117fe5760405162461bcd60e51b815260206004820152601460248201527315985d5b1d08191bd95cc81b9bdd08195e1a5cdd60621b6044820152606401610998565b336118088261160b565b6001600160a01b03161480611828575061013b546001600160a01b031633145b6118745760405162461bcd60e51b815260206004820152601960248201527f5661756c74206973206e6f74206f776e656420627920796f75000000000000006044820152606401610998565b600260c95414156118c75760405162461bcd60e51b815260206004820152601f60248201527f5265656e7472616e637947756172643a207265656e7472616e742063616c6c006044820152606401610998565b600260c955600083815261013e60205260409020548211156119515760405162461bcd60e51b815260206004820152602560248201527f5661756c7420646f6573206e6f74206861766520656e6f75676820636f6c6c6160448201527f746572616c0000000000000000000000000000000000000000000000000000006064820152608401610998565b600083815261013e602052604081205461196c90849061501c565b600085815261013f602052604090205490915015611a1157600084815261013f602052604090205461199f9082906130f9565b611a115760405162461bcd60e51b815260206004820152603e60248201527f5769746864726177616c20776f756c6420707574207661756c742062656c6f7760448201527f206d696e696d756d20636f6c6c61746572616c2070657263656e7461676500006064820152608401610998565b600084815261013e6020526040902081905561013854611a3b906001600160a01b031633856137e8565b60408051858152602081018590527f6c0ea3bea9dd66afa8f9d39d6eb93d833466190330813b42835efc650dca4cb99101610eda565b600082815261013d6020526040902054829060ff16611ac95760405162461bcd60e51b815260206004820152601460248201527315985d5b1d08191bd95cc81b9bdd08195e1a5cdd60621b6044820152606401610998565b33611ad38261160b565b6001600160a01b03161480611af3575061013b546001600160a01b031633145b611b3f5760405162461bcd60e51b815260206004820152601960248201527f5661756c74206973206e6f74206f776e656420627920796f75000000000000006044820152606401610998565b600260c9541415611b925760405162461bcd60e51b815260206004820152601f60248201527f5265656e7472616e637947756172643a207265656e7472616e742063616c6c006044820152606401610998565b600260c955610139546040516370a0823160e01b815233600482015283916001600160a01b0316906370a082319060240160206040518083038186803b158015611bdb57600080fd5b505afa158015611bef573d6000803e3d6000fd5b505050506040513d601f19601f82011682018060405250810190611c139190614d67565b1015611c615760405162461bcd60e51b815260206004820152601560248201527f546f6b656e2062616c616e636520746f6f206c6f7700000000000000000000006044820152606401610998565b600083815261013f6020526040902054821115611ce65760405162461bcd60e51b815260206004820152602760248201527f5661756c742064656274206c657373207468616e20616d6f756e7420746f207060448201527f6179206261636b000000000000000000000000000000000000000000000000006064820152608401610998565b6000611cf06109b9565b611cfc90612710614ffd565b6101325461013054611d0e9086614ffd565b611d189190614ffd565b611d229190614fe9565b9050611d2e8484613879565b611d3884826139ff565b611d4181613ae6565b61013954604051632770a7eb60e21b8152336004820152602481018590526001600160a01b0390911690639dc29fac90604401600060405180830381600087803b158015611d8e57600080fd5b505af1158015611da2573d6000803e3d6000fd5b505060408051878152602081018790529081018490527f31f96762af4051f367185773cc2f55bfb112a6c114b3407ded1f321a9eb199ac92506060019050610eda565b600081815261013d6020526040902054819060ff16611e3d5760405162461bcd60e51b815260206004820152601460248201527315985d5b1d08191bd95cc81b9bdd08195e1a5cdd60621b6044820152606401610998565b33611e478261160b565b6001600160a01b03161480611e67575061013b546001600160a01b031633145b611eb35760405162461bcd60e51b815260206004820152601960248201527f5661756c74206973206e6f74206f776e656420627920796f75000000000000006044820152606401610998565b600260c9541415611f065760405162461bcd60e51b815260206004820152601f60248201527f5265656e7472616e637947756172643a207265656e7472616e742063616c6c006044820152606401610998565b600260c955600082815261013f602052604090205415611f685760405162461bcd60e51b815260206004820152601960248201527f5661756c74206173206f75747374616e64696e672064656274000000000000006044820152606401610998565b600082815261013e602052604090205415611fa857600082815261013e602052604090205461013854611fa8916001600160a01b039091169033906137e8565b611fb1826135f3565b600082815261013d60209081526040808320805460ff1916905561013e825280832083905561013f82528083209290925590518381527f4fe08624ee65b341c38ab9693d216b909d4ddee1bc8d3fe0fea14026c361b465910160405180910390a15050600160c955565b600080516020615147833981519152612034813361303b565b5061013155565b600080516020615147833981519152612054813361303b565b6001600160a01b0382166120aa5760405162461bcd60e51b815260206004820152601e60248201527f476174657761792063616e6e6f74206265207a65726f206164647265737300006044820152606401610998565b5061013b80546001600160a01b0319166001600160a01b0392909216919091179055565b61013a546001600160a01b031615806120f2575061013a546001600160a01b031633145b6121645760405162461bcd60e51b815260206004820152602160248201527f6275795269736b795661756c742064697361626c656420666f72207075626c6960448201527f63000000000000000000000000000000000000000000000000000000000000006064820152608401610998565b600260c95414156121b75760405162461bcd60e51b815260206004820152601f60248201527f5265656e7472616e637947756172643a207265656e7472616e742063616c6c006044820152606401610998565b600260c955600081815261013d602052604090205460ff166122125760405162461bcd60e51b815260206004820152601460248201527315985d5b1d08191bd95cc81b9bdd08195e1a5cdd60621b6044820152606401610998565b600081815261013e602090815260408083205461013f9092528220548291612239916132af565b9092509050600061224a8284614fe9565b905061012e5481106122c45760405162461bcd60e51b815260206004820152603060248201527f5661756c74206973206e6f742062656c6f77206d696e696d756d20636f6c6c6160448201527f746572616c2070657263656e74616765000000000000000000000000000000006064820152608401610998565b60006122cf856114bc565b905060006122dc8661101f565b610139546040516370a0823160e01b815233600482015291925082916001600160a01b03909116906370a082319060240160206040518083038186803b15801561232557600080fd5b505afa158015612339573d6000803e3d6000fd5b505050506040513d601f19601f8201168201806040525081019061235d9190614d67565b10156123d15760405162461bcd60e51b815260206004820152603160248201527f546f6b656e2062616c616e636520746f6f206c6f7720746f20706179206f666660448201527f206f75747374616e64696e6720646562740000000000000000000000000000006064820152608401610998565b610139546123ea906001600160a01b0316333084613b50565b600086815261013f60205260408120805483929061240990849061501c565b90915550600090506124196109b9565b61242590612710614ffd565b61013254610130546124379085614ffd565b6124419190614ffd565b61244b9190614fe9565b90506124578382614fd1565b600088815261013e60205260408120805490919061247690849061501c565b909155505061013c54600090815261013e60205260408120805483929061249e908490614fd1565b90915550503360009081526101366020526040812080548592906124c3908490614fd1565b909155505061013954604051632770a7eb60e21b8152336004820152602481018490526001600160a01b0390911690639dc29fac90604401600060405180830381600087803b15801561251557600080fd5b505af1158015612529573d6000803e3d6000fd5b5050505061253682613ba1565b7f4f3624995f536e297591cbf9947d7541b474a69074248dee723b3853c1d6100f876125618961160b565b604080519283526001600160a01b0390911660208301523390820152606081018490526080810185905260a00160405180910390a15050600160c9555050505050565b606060668054610a5d90615076565b600054610100900460ff16806125cc575060005460ff16155b61262f5760405162461bcd60e51b815260206004820152602e60248201527f496e697469616c697a61626c653a20636f6e747261637420697320616c72656160448201526d191e481a5b9a5d1a585b1a5e995960921b6064820152608401610998565b600054610100900460ff16158015612651576000805461ffff19166101011790555b612659613c0d565b612661613c0d565b61266b8585613cbf565b612673613c0d565b61267b613d9b565b612683613c0d565b6001600160a01b0386166126a757634e487b7160e01b600052600160045260246000fd5b866126c257634e487b7160e01b600052600160045260246000fd5b678ac7230489e8000061012f5560326101305560006101318190556305f5e10061013255600261013455600b6101355561013a80546001600160a01b031990811690915561013b805482169055610137805482166001600160a01b038a8116919091179091556101388054831691871691909117905561013980543392168217905561274e9190613e52565b61276660008051602061514783398151915283613e52565b61277e60008051602061514783398151915280613e5c565b61012e8790558015612796576000805461ff00191690555b50505050505050565b6000805160206151478339815191526127b8813361303b565b6001600160a01b0382166128345760405162461bcd60e51b815260206004820152602560248201527f53746162696c69747920706f6f6c2063616e6e6f74206265207a65726f20616460448201527f64726573730000000000000000000000000000000000000000000000000000006064820152608401610998565b5061013a80546001600160a01b0319166001600160a01b0392909216919091179055565b6001600160a01b0382163314156128b15760405162461bcd60e51b815260206004820152601960248201527f4552433732313a20617070726f766520746f2063616c6c6572000000000000006044820152606401610998565b336000818152606a602090815260408083206001600160a01b03871680855290835292819020805460ff191686151590811790915590519081529192917f17307eab39ab6107e8899845ad3d59bd9653f200f220920489ca2b5937696c31910160405180910390a35050565b600080516020615147833981519152612936813361303b565b61294e60008051602061514783398151915283613e52565b61129e60008051602061514783398151915233612e51565b60008051602061514783398151915261297f813361303b565b8161012f5411156129f85760405162461bcd60e51b815260206004820152603c60248201527f7365744365696c696e673a204d757374206265206f7665722074686520616d6f60448201527f756e74206f662063757272656e742064656274206365696c696e672e000000006064820152608401610998565b5061012f55565b600081815261013d602052604090205460ff16612a515760405162461bcd60e51b815260206004820152601060248201526f15985d5b1d081b5d5cdd08195e1a5cdd60821b6044820152606401610998565b600081815261013e602090815260408083205461013f9092528220548291612a78916132af565b90925090506000612a898284614fe9565b905061012e548110612b035760405162461bcd60e51b815260206004820152603060248201527f5661756c74206973206e6f742062656c6f77206d696e696d756d20636f6c6c6160448201527f746572616c2070657263656e74616765000000000000000000000000000000006064820152608401610998565b50505050565b612b133383613393565b612b855760405162461bcd60e51b815260206004820152603160248201527f4552433732313a207472616e736665722063616c6c6572206973206e6f74206f60448201527f776e6572206e6f7220617070726f7665640000000000000000000000000000006064820152608401610998565b612b0384848484613eb0565b600080516020615147833981519152612baa813361303b565b6001600160a01b038216612c265760405162461bcd60e51b815260206004820152602360248201527f507269636520736f757263652063616e6e6f74206265207a65726f206164647260448201527f65737300000000000000000000000000000000000000000000000000000000006064820152608401610998565b5061013780546001600160a01b0319166001600160a01b0392909216919091179055565b6000818152606760205260409020546060906001600160a01b0316612cd75760405162461bcd60e51b815260206004820152602f60248201527f4552433732314d657461646174613a2055524920717565727920666f72206e6f60448201527f6e6578697374656e7420746f6b656e00000000000000000000000000000000006064820152608401610998565b6000612cee60408051602081019091526000815290565b90506000815111612d0e57604051806020016040528060008152506110ba565b80612d1884613f39565b604051602001612d29929190614ed2565b6040516020818303038152906040529392505050565b600260c9541415612d925760405162461bcd60e51b815260206004820152601f60248201527f5265656e7472616e637947756172643a207265656e7472616e742063616c6c006044820152606401610998565b600260c9553360009081526101366020526040902054612e1a5760405162461bcd60e51b815260206004820152602860248201527f4e6f206c69717569646174696f6e73206173736f63696174656420776974682060448201527f6163636f756e742e0000000000000000000000000000000000000000000000006064820152608401610998565b336000818152610136602052604081208054919055610138549091612e49916001600160a01b031690836137e8565b50600160c955565b600082815260fb6020526040902060010154612e6d813361303b565b61101a8383613570565b600080516020615147833981519152612e90813361303b565b5061013455565b600082815261013d6020526040902054829060ff16612eef5760405162461bcd60e51b815260206004820152601460248201527315985d5b1d08191bd95cc81b9bdd08195e1a5cdd60621b6044820152606401610998565b33612ef98261160b565b6001600160a01b03161480612f19575061013b546001600160a01b031633145b612f655760405162461bcd60e51b815260206004820152601960248201527f5661756c74206973206e6f74206f776e656420627920796f75000000000000006044820152606401610998565b61013854612f7e906001600160a01b0316333085613b50565b600083815261013e6020526040812054612f99908490614fd1565b600085815261013e6020526040902054909150811015612fc957634e487b7160e01b600052600160045260246000fd5b600084815261013e602090815260409182902083905581518681529081018590527f52c4e7127ec34e8fc95f09ce2d06b4f00acca12ccbcdfb246ef67ee6aefe068d910160405180910390a150505050565b600080516020615147833981519152613034813361303b565b5061013555565b600082815260fb602090815260408083206001600160a01b038516845290915290205460ff1661129e57613079816001600160a01b03166014614053565b613084836020614053565b604051602001613095929190614f01565b60408051601f198184030181529082905262461bcd60e51b825261099891600401614fbe565b60006001600160e01b031982167f7965db0b0000000000000000000000000000000000000000000000000000000014806109b357506109b38261425e565b600080600061310885856132af565b909250905060006131198284614fe9565b61012e5411159695505050505050565b6000610133548261313a9190614fd1565b90506101335481101561315d57634e487b7160e01b600052600160045260246000fd5b61012f548111156131d65760405162461bcd60e51b815260206004820152602960248201527f43616e6e6f74206578636565642064656274206365696c696e6720666f72207460448201527f686973207661756c7400000000000000000000000000000000000000000000006064820152608401610998565b600083815261013f60205260408120546131f09084614fd1565b600085815261013f602052604090205490915081101561322057634e487b7160e01b600052600160045260246000fd5b6132298361429c565b600093845261013f6020526040909320929092555050565b600081815260696020526040902080546001600160a01b0319166001600160a01b03841690811790915581906132768261160b565b6001600160a01b03167f8c5be1e5ebec7d5bd14f71427d1e84f3dd0314c0f7b2291e5b200ac8c7c3b92560405160405180910390a45050565b6000806132ba6109b9565b6132d457634e487b7160e01b600052600160045260246000fd5b610132546132f257634e487b7160e01b600052600160045260246000fd5b60006132fc6109b9565b6133069086614ffd565b90508481101561332657634e487b7160e01b600052600160045260246000fd5b60006133326101325490565b61333c9086614ffd565b90508481101561335c57634e487b7160e01b600052600160045260246000fd5b6000613369836064614ffd565b905082811161338857634e487b7160e01b600052600160045260246000fd5b969095509350505050565b6000818152606760205260408120546001600160a01b031661340c5760405162461bcd60e51b815260206004820152602c60248201527f4552433732313a206f70657261746f7220717565727920666f72206e6f6e657860448201526b34b9ba32b73a103a37b5b2b760a11b6064820152608401610998565b60006134178361160b565b9050806001600160a01b0316846001600160a01b031614806134525750836001600160a01b031661344784610ae0565b6001600160a01b0316145b8061157257506001600160a01b038082166000908152606a602090815260408083209388168352929052205460ff16611572565b60405162461bcd60e51b815260206004820152601260248201527f7472616e736665723a2064697361626c656400000000000000000000000000006044820152606401610998565b600082815260fb602090815260408083206001600160a01b038516845290915290205460ff1661129e57600082815260fb602090815260408083206001600160a01b03851684529091529020805460ff1916600117905561352c3390565b6001600160a01b0316816001600160a01b0316837f2f8788117e7eff1d82e926ec794901d17c78024a50270940304540a733656f0d60405160405180910390a45050565b600082815260fb602090815260408083206001600160a01b038516845290915290205460ff161561129e57600082815260fb602090815260408083206001600160a01b0385168085529252808320805460ff1916905551339285917ff6391f5c32d9c69d2a47ea670b442974b53935d1edc7fd64eb21e047a839171b9190a45050565b60006135fe8261160b565b905061360c8160008461432f565b613617600083613241565b6001600160a01b038116600090815260686020526040812080546001929061364090849061501c565b909155505060008281526067602052604080822080546001600160a01b0319169055518391906001600160a01b038416907fddf252ad1be2c89b69c2b068fc378daa952ba7f163c4a11628f55a4df523b3ef908390a45050565b6001600160a01b0382166136f05760405162461bcd60e51b815260206004820181905260248201527f4552433732313a206d696e7420746f20746865207a65726f20616464726573736044820152606401610998565b6000818152606760205260409020546001600160a01b0316156137555760405162461bcd60e51b815260206004820152601c60248201527f4552433732313a20746f6b656e20616c7265616479206d696e746564000000006044820152606401610998565b6137616000838361432f565b6001600160a01b038216600090815260686020526040812080546001929061378a908490614fd1565b909155505060008181526067602052604080822080546001600160a01b0319166001600160a01b03861690811790915590518392907fddf252ad1be2c89b69c2b068fc378daa952ba7f163c4a11628f55a4df523b3ef908290a45050565b6040516001600160a01b03831660248201526044810182905261101a9084907fa9059cbb00000000000000000000000000000000000000000000000000000000906064015b60408051601f198184030181529190526020810180517bffffffffffffffffffffffffffffffffffffffffffffffffffffffff166001600160e01b03199093169290921790915261433a565b806101335410156138f25760405162461bcd60e51b815260206004820152602860248201527f43616e6e6f742067657420726964206f66206d6f72652064656274207468616e60448201527f206578697374732e0000000000000000000000000000000000000000000000006064820152608401610998565b600082815261013f60205260409020548111156139775760405162461bcd60e51b815260206004820152602960248201527f43616e6e6f742067657420726964206f66206d6f72652064656274207468616e60448201527f20757365722068617300000000000000000000000000000000000000000000006064820152608401610998565b60008161013354613988919061501c565b9050610133548111156139ab57634e487b7160e01b600052600160045260246000fd5b600083815261013f60205260408120546139c690849061501c565b600085815261013f60205260409020549091508111156139f657634e487b7160e01b600052600160045260246000fd5b61322983613ba1565b600082815261013e6020526040902054811115613a845760405162461bcd60e51b815260206004820152603060248201527f43616e6e6f742072656d6f7665206d6f7265207468616e20746865206465706f60448201527f736974656420636f6c6c61746572616c000000000000000000000000000000006064820152608401610998565b600082815261013e6020526040812054613a9f90839061501c565b600084815261013e6020526040902054909150811115613acf57634e487b7160e01b600052600160045260246000fd5b600092835261013e60205260409092209190915550565b61013c54600090815261013e6020526040812054613b05908390614fd1565b61013c54600090815261013e6020526040902054909150811015613b3957634e487b7160e01b600052600160045260246000fd5b61013c54600090815261013e602052604090205550565b6040516001600160a01b0380851660248301528316604482015260648101829052612b039085907f23b872dd000000000000000000000000000000000000000000000000000000009060840161382d565b61013354811115613bf45760405162461bcd60e51b815260206004820152601860248201527f446562742063616e206e6f7420676f2062656c6f7720302e00000000000000006044820152606401610998565b60008161013354613c05919061501c565b610133555050565b600054610100900460ff1680613c26575060005460ff16155b613c895760405162461bcd60e51b815260206004820152602e60248201527f496e697469616c697a61626c653a20636f6e747261637420697320616c72656160448201526d191e481a5b9a5d1a585b1a5e995960921b6064820152608401610998565b600054610100900460ff16158015613cab576000805461ffff19166101011790555b8015611608576000805461ff001916905550565b600054610100900460ff1680613cd8575060005460ff16155b613d3b5760405162461bcd60e51b815260206004820152602e60248201527f496e697469616c697a61626c653a20636f6e747261637420697320616c72656160448201526d191e481a5b9a5d1a585b1a5e995960921b6064820152608401610998565b600054610100900460ff16158015613d5d576000805461ffff19166101011790555b8251613d70906065906020860190614a16565b508151613d84906066906020850190614a16565b50801561101a576000805461ff0019169055505050565b600054610100900460ff1680613db4575060005460ff16155b613e175760405162461bcd60e51b815260206004820152602e60248201527f496e697469616c697a61626c653a20636f6e747261637420697320616c72656160448201526d191e481a5b9a5d1a585b1a5e995960921b6064820152608401610998565b600054610100900460ff16158015613e39576000805461ffff19166101011790555b600160c9558015611608576000805461ff001916905550565b61129e82826134ce565b600082815260fb6020526040902060010154819060405184907fbd79b86ffe0ab8e8776151514217cd7cacd52c909f66475c3af44e129f0b00ff90600090a4600091825260fb602052604090912060010155565b613ebb848484613486565b613ec78484848461441f565b612b035760405162461bcd60e51b815260206004820152603260248201527f4552433732313a207472616e7366657220746f206e6f6e20455243373231526560448201527f63656976657220696d706c656d656e74657200000000000000000000000000006064820152608401610998565b606081613f5d5750506040805180820190915260018152600360fc1b602082015290565b8160005b8115613f875780613f71816150b1565b9150613f809050600a83614fe9565b9150613f61565b60008167ffffffffffffffff811115613fb057634e487b7160e01b600052604160045260246000fd5b6040519080825280601f01601f191660200182016040528015613fda576020820181803683370190505b5090505b841561157257613fef60018361501c565b9150613ffc600a866150cc565b614007906030614fd1565b60f81b81838151811061402a57634e487b7160e01b600052603260045260246000fd5b60200101906001600160f81b031916908160001a90535061404c600a86614fe9565b9450613fde565b60606000614062836002614ffd565b61406d906002614fd1565b67ffffffffffffffff81111561409357634e487b7160e01b600052604160045260246000fd5b6040519080825280601f01601f1916602001820160405280156140bd576020820181803683370190505b509050600360fc1b816000815181106140e657634e487b7160e01b600052603260045260246000fd5b60200101906001600160f81b031916908160001a9053507f78000000000000000000000000000000000000000000000000000000000000008160018151811061413f57634e487b7160e01b600052603260045260246000fd5b60200101906001600160f81b031916908160001a9053506000614163846002614ffd565b61416e906001614fd1565b90505b600181111561420f577f303132333435363738396162636465660000000000000000000000000000000085600f16601081106141bd57634e487b7160e01b600052603260045260246000fd5b1a60f81b8282815181106141e157634e487b7160e01b600052603260045260246000fd5b60200101906001600160f81b031916908160001a90535060049490941c936142088161505f565b9050614171565b5083156110ba5760405162461bcd60e51b815260206004820181905260248201527f537472696e67733a20686578206c656e67746820696e73756666696369656e746044820152606401610998565b60006001600160e01b031982167f780e9d630000000000000000000000000000000000000000000000000000000014806109b357506109b382614582565b600081610133546142ad9190614fd1565b905061012f548111156143285760405162461bcd60e51b815260206004820152602260248201527f446562742063616e206e6f7420676f2061626f76652064656274206365696c6960448201527f6e670000000000000000000000000000000000000000000000000000000000006064820152608401610998565b6101335550565b61101a83838361461d565b600061438f826040518060400160405280602081526020017f5361666545524332303a206c6f772d6c6576656c2063616c6c206661696c6564815250856001600160a01b03166146d59092919063ffffffff16565b80519091501561101a57808060200190518101906143ad9190614cd9565b61101a5760405162461bcd60e51b815260206004820152602a60248201527f5361666545524332303a204552433230206f7065726174696f6e20646964206e60448201527f6f742073756363656564000000000000000000000000000000000000000000006064820152608401610998565b60006001600160a01b0384163b1561457757604051630a85bd0160e11b81526001600160a01b0385169063150b7a0290614463903390899088908890600401614f82565b602060405180830381600087803b15801561447d57600080fd5b505af19250505080156144ad575060408051601f3d908101601f191682019092526144aa91810190614d4b565b60015b61455d573d8080156144db576040519150601f19603f3d011682016040523d82523d6000602084013e6144e0565b606091505b5080516145555760405162461bcd60e51b815260206004820152603260248201527f4552433732313a207472616e7366657220746f206e6f6e20455243373231526560448201527f63656976657220696d706c656d656e74657200000000000000000000000000006064820152608401610998565b805181602001fd5b6001600160e01b031916630a85bd0160e11b149050611572565b506001949350505050565b60006001600160e01b031982167f80ac58cd0000000000000000000000000000000000000000000000000000000014806145e557506001600160e01b031982167f5b5e139f00000000000000000000000000000000000000000000000000000000145b806109b357507f01ffc9a7000000000000000000000000000000000000000000000000000000006001600160e01b03198316146109b3565b6001600160a01b0383166146785761467381609980546000838152609a60205260408120829055600182018355919091527f72a152ddfb8e864297c917af52ea6c1c68aead0fee1a62673fcc7e0c94979d000155565b61469b565b816001600160a01b0316836001600160a01b03161461469b5761469b83826146e4565b6001600160a01b0382166146b25761101a81614781565b826001600160a01b0316826001600160a01b03161461101a5761101a828261485a565b6060611572848460008561489e565b600060016146f184611696565b6146fb919061501c565b60008381526098602052604090205490915080821461474e576001600160a01b03841660009081526097602090815260408083208584528252808320548484528184208190558352609890915290208190555b5060009182526098602090815260408084208490556001600160a01b039094168352609781528383209183525290812055565b6099546000906147939060019061501c565b6000838152609a6020526040812054609980549394509092849081106147c957634e487b7160e01b600052603260045260246000fd5b9060005260206000200154905080609983815481106147f857634e487b7160e01b600052603260045260246000fd5b6000918252602080832090910192909255828152609a9091526040808220849055858252812055609980548061483e57634e487b7160e01b600052603160045260246000fd5b6001900381819060005260206000200160009055905550505050565b600061486583611696565b6001600160a01b039093166000908152609760209081526040808320868452825280832085905593825260989052919091209190915550565b6060824710156149165760405162461bcd60e51b815260206004820152602660248201527f416464726573733a20696e73756666696369656e742062616c616e636520666f60448201527f722063616c6c00000000000000000000000000000000000000000000000000006064820152608401610998565b843b6149645760405162461bcd60e51b815260206004820152601d60248201527f416464726573733a2063616c6c20746f206e6f6e2d636f6e74726163740000006044820152606401610998565b600080866001600160a01b031685876040516149809190614eb6565b60006040518083038185875af1925050503d80600081146149bd576040519150601f19603f3d011682016040523d82523d6000602084013e6149c2565b606091505b50915091506149d28282866149dd565b979650505050505050565b606083156149ec5750816110ba565b8251156149fc5782518084602001fd5b8160405162461bcd60e51b81526004016109989190614fbe565b828054614a2290615076565b90600052602060002090601f016020900481019282614a445760008555614a8a565b82601f10614a5d57805160ff1916838001178555614a8a565b82800160010185558215614a8a579182015b82811115614a8a578251825591602001919060010190614a6f565b50614a96929150614a9a565b5090565b5b80821115614a965760008155600101614a9b565b600067ffffffffffffffff80841115614aca57614aca61510c565b604051601f8501601f19908116603f01168101908282118183101715614af257614af261510c565b81604052809350858152868686011115614b0b57600080fd5b858560208301376000602087830101525050509392505050565b80356001600160a01b0381168114614b3c57600080fd5b919050565b600082601f830112614b51578081fd5b6110ba83833560208501614aaf565b805169ffffffffffffffffffff81168114614b3c57600080fd5b600060208284031215614b8b578081fd5b6110ba82614b25565b60008060408385031215614ba6578081fd5b614baf83614b25565b9150614bbd60208401614b25565b90509250929050565b600080600060608486031215614bda578081fd5b614be384614b25565b9250614bf160208501614b25565b9150604084013590509250925092565b60008060008060808587031215614c16578081fd5b614c1f85614b25565b9350614c2d60208601614b25565b925060408501359150606085013567ffffffffffffffff811115614c4f578182fd5b8501601f81018713614c5f578182fd5b614c6e87823560208401614aaf565b91505092959194509250565b60008060408385031215614c8c578182fd5b614c9583614b25565b91506020830135614ca581615122565b809150509250929050565b60008060408385031215614cc2578182fd5b614ccb83614b25565b946020939093013593505050565b600060208284031215614cea578081fd5b81516110ba81615122565b600060208284031215614d06578081fd5b5035919050565b60008060408385031215614d1f578182fd5b82359150614bbd60208401614b25565b600060208284031215614d40578081fd5b81356110ba81615130565b600060208284031215614d5c578081fd5b81516110ba81615130565b600060208284031215614d78578081fd5b5051919050565b60008060008060008060c08789031215614d97578384fd5b86359550614da760208801614b25565b9450604087013567ffffffffffffffff80821115614dc3578586fd5b614dcf8a838b01614b41565b95506060890135915080821115614de4578384fd5b50614df189828a01614b41565b935050614e0060808801614b25565b9150614e0e60a08801614b25565b90509295509295509295565b60008060408385031215614e2c578182fd5b50508035926020909101359150565b600080600080600060a08688031215614e52578283fd5b614e5b86614b60565b9450602086015193506040860151925060608601519150614e7e60808701614b60565b90509295509295909350565b60008151808452614ea2816020860160208601615033565b601f01601f19169290920160200192915050565b60008251614ec8818460208701615033565b9190910192915050565b60008351614ee4818460208801615033565b835190830190614ef8818360208801615033565b01949350505050565b7f416363657373436f6e74726f6c3a206163636f756e7420000000000000000000815260008351614f39816017850160208801615033565b7f206973206d697373696e6720726f6c65200000000000000000000000000000006017918401918201528351614f76816028840160208801615033565b01602801949350505050565b60006001600160a01b03808716835280861660208401525083604083015260806060830152614fb46080830184614e8a565b9695505050505050565b6020815260006110ba6020830184614e8a565b60008219821115614fe457614fe46150e0565b500190565b600082614ff857614ff86150f6565b500490565b6000816000190483118215151615615017576150176150e0565b500290565b60008282101561502e5761502e6150e0565b500390565b60005b8381101561504e578181015183820152602001615036565b83811115612b035750506000910152565b60008161506e5761506e6150e0565b506000190190565b600181811c9082168061508a57607f821691505b602082108114156150ab57634e487b7160e01b600052602260045260246000fd5b50919050565b60006000198214156150c5576150c56150e0565b5060010190565b6000826150db576150db6150f6565b500690565b634e487b7160e01b600052601160045260246000fd5b634e487b7160e01b600052601260045260246000fd5b634e487b7160e01b600052604160045260246000fd5b801515811461160857600080fd5b6001600160e01b03198116811461160857600080fdfee1dcbdb91df27212a29bc27177c840cf2f819ecf2187432e1fac86c2dd5dfca9a26469706673582212206c5ecb9c6b55019d6af41b119fd51d156c281573639d3d71cf60b74907f9672964736f6c63430008040033",
  "devdoc": {
    "kind": "dev",
    "methods": {
      "approve(address,uint256)": {
        "details": "See {IERC721-approve}."
      },
      "balanceOf(address)": {
        "details": "See {IERC721-balanceOf}."
      },
      "borrowToken(uint256,uint256)": {
        "details": "Lets a vault owner borrow stablecoin against collateral Requirements: - Vault type must exist - Vault must exist - Must borrow greater than 0 stablecoin - Must be below the debt ceiling when borrowing - Must maintain minimum collateral percentage Emits BorrowToken event"
      },
      "changeTreasury(address)": {
        "details": "changes the Treasury. Can only every be one treasury!"
      },
      "checkCost(uint256)": {
        "details": "checks cost of liquidating"
      },
      "checkExtract(uint256)": {
        "details": "checks how much token gets extract"
      },
      "checkLiquidation(uint256)": {
        "details": "checks if the vault can be liquidated"
      },
      "createVault()": {
        "details": "Create a vault for interacting with the platform Emits a CreateVault event"
      },
      "depositCollateral(uint256,uint256)": {
        "details": "ALlows vault owner to deposit ERC20 collateral Emits Deposit Collateral event"
      },
      "destroyVault(uint256)": {
        "details": "User can destroy a vault. Will return all collateral upon destroying. Emits a DestroyVault event Requirements: - User must have paid off all outstanding debt first"
      },
      "getApproved(uint256)": {
        "details": "See {IERC721-getApproved}."
      },
      "getPaid()": {
        "details": "pays the user Returns the ERC20 token that was liquidated"
      },
      "getPricePeg()": {
        "details": "returns the base token's address"
      },
      "getPriceSource()": {
        "details": "returns the base token's address"
      },
      "getRoleAdmin(bytes32)": {
        "details": "Returns the admin role that controls `role`. See {grantRole} and {revokeRole}. To change a role's admin, use {_setRoleAdmin}."
      },
      "grantRole(bytes32,address)": {
        "details": "Grants `role` to `account`. If `account` had not been already granted `role`, emits a {RoleGranted} event. Requirements: - the caller must have ``role``'s admin role."
      },
      "hasRole(bytes32,address)": {
        "details": "Returns `true` if `account` has been granted `role`."
      },
      "isApprovedForAll(address,address)": {
        "details": "See {IERC721-isApprovedForAll}."
      },
      "liquidateVault(uint256)": {
        "details": "allows liquidator to buy out a risky vault Requirements: - Vault id must exist - Vault must be below minimum collateral percentage - User must have enough of the token to pay vault off Emits BuyRiskyVault event"
      },
      "name()": {
        "details": "See {IERC721Metadata-name}."
      },
      "ownerOf(uint256)": {
        "details": "See {IERC721-ownerOf}."
      },
      "payBackToken(uint256,uint256)": {
        "details": "Pay back the stablecoin to reduce debt Requirements: - User must have enough balance to repay `amount` - Cannot pay back more than the required debt. `amount` must be less than debt."
      },
      "renounceRole(bytes32,address)": {
        "details": "Revokes `role` from the calling account. Roles are often managed via {grantRole} and {revokeRole}: this function's purpose is to provide a mechanism for accounts to lose their privileges if they are compromised (such as when a trusted device is misplaced). If the calling account had been granted `role`, emits a {RoleRevoked} event. Requirements: - the caller must be `account`."
      },
      "revokeRole(bytes32,address)": {
        "details": "Revokes `role` from `account`. If `account` had been granted `role`, emits a {RoleRevoked} event. Requirements: - the caller must have ``role``'s admin role."
      },
      "safeTransferFrom(address,address,uint256)": {
        "details": "See {IERC721-safeTransferFrom}."
      },
      "safeTransferFrom(address,address,uint256,bytes)": {
        "details": "See {IERC721-safeTransferFrom}."
      },
      "setApprovalForAll(address,bool)": {
        "details": "See {IERC721-setApprovalForAll}."
      },
      "setClosingFee(uint256)": {
        "details": "Set the closing fee for this vault"
      },
      "setDebtCeiling(uint256)": {
        "details": "Set the debt ceiling for this vault"
      },
      "setDebtRatio(uint256)": {
        "details": "sets the debt ratio"
      },
      "setGainRatio(uint256)": {
        "details": "sets the gain ratio"
      },
      "setGateway(address)": {
        "details": "Set the WAVAX gateway for this vault if it needs one"
      },
      "setOpeningFee(uint256)": {
        "details": "Set the opening fee for this vault"
      },
      "setPriceSource(address)": {
        "details": "Set the price source for this vault"
      },
      "setStabilityPool(address)": {
        "details": "Set the stability pool (liquidator) for this vault"
      },
      "setTokenPeg(uint256)": {
        "details": "Set the price source for this vault"
      },
      "setTreasury(uint256)": {
        "details": "Set the treasury vault for this vault"
      },
      "symbol()": {
        "details": "See {IERC721Metadata-symbol}."
      },
      "tokenByIndex(uint256)": {
        "details": "See {IERC721Enumerable-tokenByIndex}."
      },
      "tokenOfOwnerByIndex(address,uint256)": {
        "details": "See {IERC721Enumerable-tokenOfOwnerByIndex}."
      },
      "tokenURI(uint256)": {
        "details": "See {IERC721Metadata-tokenURI}."
      },
      "totalSupply()": {
        "details": "See {IERC721Enumerable-totalSupply}."
      },
      "transferFrom(address,address,uint256)": {
        "details": "See {IERC721-transferFrom}."
      },
      "transferVault(uint256,address)": {
        "details": "user can transfer vault to another address Emits TransferVault event"
      },
      "vaultExists(uint256)": {
        "details": "allows checking if vault exists or not"
      },
      "withdrawCollateral(uint256,uint256)": {
        "details": "allows vault owner to withdraw the collateral Requirements: - Withdraw amount is less than or equal to current collateral - Collateral withdrawal amount does not put debt below minimum collateral Emits WithdrawCollateral event"
      }
    },
    "version": 1
  },
  "userdoc": {
    "kind": "user",
    "methods": {
      "minimumCollateralPercentage()": {
        "notice": "Set all of these upon initalization"
      }
    },
    "version": 1
  },
  "storageLayout": {
    "storage": [
      {
        "astId": 582,
        "contract": "apps/avai/src/contracts/BaseVault.sol:BaseVault",
        "label": "_initialized",
        "offset": 0,
        "slot": "0",
        "type": "t_bool"
      },
      {
        "astId": 585,
        "contract": "apps/avai/src/contracts/BaseVault.sol:BaseVault",
        "label": "_initializing",
        "offset": 1,
        "slot": "0",
        "type": "t_bool"
      },
      {
        "astId": 3394,
        "contract": "apps/avai/src/contracts/BaseVault.sol:BaseVault",
        "label": "__gap",
        "offset": 0,
        "slot": "1",
        "type": "t_array(t_uint256)50_storage"
      },
      {
        "astId": 4049,
        "contract": "apps/avai/src/contracts/BaseVault.sol:BaseVault",
        "label": "__gap",
        "offset": 0,
        "slot": "51",
        "type": "t_array(t_uint256)50_storage"
      },
      {
        "astId": 1731,
        "contract": "apps/avai/src/contracts/BaseVault.sol:BaseVault",
        "label": "_name",
        "offset": 0,
        "slot": "101",
        "type": "t_string_storage"
      },
      {
        "astId": 1733,
        "contract": "apps/avai/src/contracts/BaseVault.sol:BaseVault",
        "label": "_symbol",
        "offset": 0,
        "slot": "102",
        "type": "t_string_storage"
      },
      {
        "astId": 1737,
        "contract": "apps/avai/src/contracts/BaseVault.sol:BaseVault",
        "label": "_owners",
        "offset": 0,
        "slot": "103",
        "type": "t_mapping(t_uint256,t_address)"
      },
      {
        "astId": 1741,
        "contract": "apps/avai/src/contracts/BaseVault.sol:BaseVault",
        "label": "_balances",
        "offset": 0,
        "slot": "104",
        "type": "t_mapping(t_address,t_uint256)"
      },
      {
        "astId": 1745,
        "contract": "apps/avai/src/contracts/BaseVault.sol:BaseVault",
        "label": "_tokenApprovals",
        "offset": 0,
        "slot": "105",
        "type": "t_mapping(t_uint256,t_address)"
      },
      {
        "astId": 1751,
        "contract": "apps/avai/src/contracts/BaseVault.sol:BaseVault",
        "label": "_operatorApprovals",
        "offset": 0,
        "slot": "106",
        "type": "t_mapping(t_address,t_mapping(t_address,t_bool))"
      },
      {
        "astId": 2549,
        "contract": "apps/avai/src/contracts/BaseVault.sol:BaseVault",
        "label": "__gap",
        "offset": 0,
        "slot": "107",
        "type": "t_array(t_uint256)44_storage"
      },
      {
        "astId": 2723,
        "contract": "apps/avai/src/contracts/BaseVault.sol:BaseVault",
        "label": "_ownedTokens",
        "offset": 0,
        "slot": "151",
        "type": "t_mapping(t_address,t_mapping(t_uint256,t_uint256))"
      },
      {
        "astId": 2727,
        "contract": "apps/avai/src/contracts/BaseVault.sol:BaseVault",
        "label": "_ownedTokensIndex",
        "offset": 0,
        "slot": "152",
        "type": "t_mapping(t_uint256,t_uint256)"
      },
      {
        "astId": 2730,
        "contract": "apps/avai/src/contracts/BaseVault.sol:BaseVault",
        "label": "_allTokens",
        "offset": 0,
        "slot": "153",
        "type": "t_array(t_uint256)dyn_storage"
      },
      {
        "astId": 2734,
        "contract": "apps/avai/src/contracts/BaseVault.sol:BaseVault",
        "label": "_allTokensIndex",
        "offset": 0,
        "slot": "154",
        "type": "t_mapping(t_uint256,t_uint256)"
      },
      {
        "astId": 3049,
        "contract": "apps/avai/src/contracts/BaseVault.sol:BaseVault",
        "label": "__gap",
        "offset": 0,
        "slot": "155",
        "type": "t_array(t_uint256)46_storage"
      },
      {
        "astId": 749,
        "contract": "apps/avai/src/contracts/BaseVault.sol:BaseVault",
        "label": "_status",
        "offset": 0,
        "slot": "201",
        "type": "t_uint256"
      },
      {
        "astId": 792,
        "contract": "apps/avai/src/contracts/BaseVault.sol:BaseVault",
        "label": "__gap",
        "offset": 0,
        "slot": "202",
        "type": "t_array(t_uint256)49_storage"
      },
      {
        "astId": 132,
        "contract": "apps/avai/src/contracts/BaseVault.sol:BaseVault",
        "label": "_roles",
        "offset": 0,
        "slot": "251",
        "type": "t_mapping(t_bytes32,t_struct(RoleData)127_storage)"
      },
      {
        "astId": 440,
        "contract": "apps/avai/src/contracts/BaseVault.sol:BaseVault",
        "label": "__gap",
        "offset": 0,
        "slot": "252",
        "type": "t_array(t_uint256)49_storage"
      },
      {
        "astId": 5583,
        "contract": "apps/avai/src/contracts/BaseVault.sol:BaseVault",
        "label": "_userVaultIds",
        "offset": 0,
        "slot": "301",
        "type": "t_struct(Counter)5400_storage"
      },
      {
        "astId": 5586,
        "contract": "apps/avai/src/contracts/BaseVault.sol:BaseVault",
        "label": "minimumCollateralPercentage",
        "offset": 0,
        "slot": "302",
        "type": "t_uint256"
      },
      {
        "astId": 5588,
        "contract": "apps/avai/src/contracts/BaseVault.sol:BaseVault",
        "label": "debtCeiling",
        "offset": 0,
        "slot": "303",
        "type": "t_uint256"
      },
      {
        "astId": 5590,
        "contract": "apps/avai/src/contracts/BaseVault.sol:BaseVault",
        "label": "closingFee",
        "offset": 0,
        "slot": "304",
        "type": "t_uint256"
      },
      {
        "astId": 5592,
        "contract": "apps/avai/src/contracts/BaseVault.sol:BaseVault",
        "label": "openingFee",
        "offset": 0,
        "slot": "305",
        "type": "t_uint256"
      },
      {
        "astId": 5594,
        "contract": "apps/avai/src/contracts/BaseVault.sol:BaseVault",
        "label": "tokenPeg",
        "offset": 0,
        "slot": "306",
        "type": "t_uint256"
      },
      {
        "astId": 5596,
        "contract": "apps/avai/src/contracts/BaseVault.sol:BaseVault",
        "label": "totalDebt",
        "offset": 0,
        "slot": "307",
        "type": "t_uint256"
      },
      {
        "astId": 5598,
        "contract": "apps/avai/src/contracts/BaseVault.sol:BaseVault",
        "label": "debtRatio",
        "offset": 0,
        "slot": "308",
        "type": "t_uint256"
      },
      {
        "astId": 5600,
        "contract": "apps/avai/src/contracts/BaseVault.sol:BaseVault",
        "label": "gainRatio",
        "offset": 0,
        "slot": "309",
        "type": "t_uint256"
      },
      {
        "astId": 5604,
        "contract": "apps/avai/src/contracts/BaseVault.sol:BaseVault",
        "label": "tokenDebt",
        "offset": 0,
        "slot": "310",
        "type": "t_mapping(t_address,t_uint256)"
      },
      {
        "astId": 5607,
        "contract": "apps/avai/src/contracts/BaseVault.sol:BaseVault",
        "label": "priceSource",
        "offset": 0,
        "slot": "311",
        "type": "t_contract(AggregatorV3Interface)45"
      },
      {
        "astId": 5610,
        "contract": "apps/avai/src/contracts/BaseVault.sol:BaseVault",
        "label": "token",
        "offset": 0,
        "slot": "312",
        "type": "t_contract(IERC20)4737"
      },
      {
        "astId": 5613,
        "contract": "apps/avai/src/contracts/BaseVault.sol:BaseVault",
        "label": "stablecoin",
        "offset": 0,
        "slot": "313",
        "type": "t_contract(IStablecoin)7705"
      },
      {
        "astId": 5615,
        "contract": "apps/avai/src/contracts/BaseVault.sol:BaseVault",
        "label": "stabilityPool",
        "offset": 0,
        "slot": "314",
        "type": "t_address"
      },
      {
        "astId": 5617,
        "contract": "apps/avai/src/contracts/BaseVault.sol:BaseVault",
        "label": "gateway",
        "offset": 0,
        "slot": "315",
        "type": "t_address"
      },
      {
        "astId": 5619,
        "contract": "apps/avai/src/contracts/BaseVault.sol:BaseVault",
        "label": "treasury",
        "offset": 0,
        "slot": "316",
        "type": "t_uint256"
      },
      {
        "astId": 5623,
        "contract": "apps/avai/src/contracts/BaseVault.sol:BaseVault",
        "label": "vaultExistence",
        "offset": 0,
        "slot": "317",
        "type": "t_mapping(t_uint256,t_bool)"
      },
      {
        "astId": 5627,
        "contract": "apps/avai/src/contracts/BaseVault.sol:BaseVault",
        "label": "vaultCollateral",
        "offset": 0,
        "slot": "318",
        "type": "t_mapping(t_uint256,t_uint256)"
      },
      {
        "astId": 5631,
        "contract": "apps/avai/src/contracts/BaseVault.sol:BaseVault",
        "label": "vaultDebt",
        "offset": 0,
        "slot": "319",
        "type": "t_mapping(t_uint256,t_uint256)"
      }
    ],
    "types": {
      "t_address": {
        "encoding": "inplace",
        "label": "address",
        "numberOfBytes": "20"
      },
      "t_array(t_uint256)44_storage": {
        "base": "t_uint256",
        "encoding": "inplace",
        "label": "uint256[44]",
        "numberOfBytes": "1408"
      },
      "t_array(t_uint256)46_storage": {
        "base": "t_uint256",
        "encoding": "inplace",
        "label": "uint256[46]",
        "numberOfBytes": "1472"
      },
      "t_array(t_uint256)49_storage": {
        "base": "t_uint256",
        "encoding": "inplace",
        "label": "uint256[49]",
        "numberOfBytes": "1568"
      },
      "t_array(t_uint256)50_storage": {
        "base": "t_uint256",
        "encoding": "inplace",
        "label": "uint256[50]",
        "numberOfBytes": "1600"
      },
      "t_array(t_uint256)dyn_storage": {
        "base": "t_uint256",
        "encoding": "dynamic_array",
        "label": "uint256[]",
        "numberOfBytes": "32"
      },
      "t_bool": {
        "encoding": "inplace",
        "label": "bool",
        "numberOfBytes": "1"
      },
      "t_bytes32": {
        "encoding": "inplace",
        "label": "bytes32",
        "numberOfBytes": "32"
      },
      "t_contract(AggregatorV3Interface)45": {
        "encoding": "inplace",
        "label": "contract AggregatorV3Interface",
        "numberOfBytes": "20"
      },
      "t_contract(IERC20)4737": {
        "encoding": "inplace",
        "label": "contract IERC20",
        "numberOfBytes": "20"
      },
      "t_contract(IStablecoin)7705": {
        "encoding": "inplace",
        "label": "contract IStablecoin",
        "numberOfBytes": "20"
      },
      "t_mapping(t_address,t_bool)": {
        "encoding": "mapping",
        "key": "t_address",
        "label": "mapping(address => bool)",
        "numberOfBytes": "32",
        "value": "t_bool"
      },
      "t_mapping(t_address,t_mapping(t_address,t_bool))": {
        "encoding": "mapping",
        "key": "t_address",
        "label": "mapping(address => mapping(address => bool))",
        "numberOfBytes": "32",
        "value": "t_mapping(t_address,t_bool)"
      },
      "t_mapping(t_address,t_mapping(t_uint256,t_uint256))": {
        "encoding": "mapping",
        "key": "t_address",
        "label": "mapping(address => mapping(uint256 => uint256))",
        "numberOfBytes": "32",
        "value": "t_mapping(t_uint256,t_uint256)"
      },
      "t_mapping(t_address,t_uint256)": {
        "encoding": "mapping",
        "key": "t_address",
        "label": "mapping(address => uint256)",
        "numberOfBytes": "32",
        "value": "t_uint256"
      },
      "t_mapping(t_bytes32,t_struct(RoleData)127_storage)": {
        "encoding": "mapping",
        "key": "t_bytes32",
        "label": "mapping(bytes32 => struct AccessControlUpgradeable.RoleData)",
        "numberOfBytes": "32",
        "value": "t_struct(RoleData)127_storage"
      },
      "t_mapping(t_uint256,t_address)": {
        "encoding": "mapping",
        "key": "t_uint256",
        "label": "mapping(uint256 => address)",
        "numberOfBytes": "32",
        "value": "t_address"
      },
      "t_mapping(t_uint256,t_bool)": {
        "encoding": "mapping",
        "key": "t_uint256",
        "label": "mapping(uint256 => bool)",
        "numberOfBytes": "32",
        "value": "t_bool"
      },
      "t_mapping(t_uint256,t_uint256)": {
        "encoding": "mapping",
        "key": "t_uint256",
        "label": "mapping(uint256 => uint256)",
        "numberOfBytes": "32",
        "value": "t_uint256"
      },
      "t_string_storage": {
        "encoding": "bytes",
        "label": "string",
        "numberOfBytes": "32"
      },
      "t_struct(Counter)5400_storage": {
        "encoding": "inplace",
        "label": "struct Counters.Counter",
        "members": [
          {
            "astId": 5399,
            "contract": "apps/avai/src/contracts/BaseVault.sol:BaseVault",
            "label": "_value",
            "offset": 0,
            "slot": "0",
            "type": "t_uint256"
          }
        ],
        "numberOfBytes": "32"
      },
      "t_struct(RoleData)127_storage": {
        "encoding": "inplace",
        "label": "struct AccessControlUpgradeable.RoleData",
        "members": [
          {
            "astId": 124,
            "contract": "apps/avai/src/contracts/BaseVault.sol:BaseVault",
            "label": "members",
            "offset": 0,
            "slot": "0",
            "type": "t_mapping(t_address,t_bool)"
          },
          {
            "astId": 126,
            "contract": "apps/avai/src/contracts/BaseVault.sol:BaseVault",
            "label": "adminRole",
            "offset": 0,
            "slot": "1",
            "type": "t_bytes32"
          }
        ],
        "numberOfBytes": "64"
      },
      "t_uint256": {
        "encoding": "inplace",
        "label": "uint256",
        "numberOfBytes": "32"
      }
    }
  }
}