{
  "address": "0xAEDb19468d282A7b8CfF28Dd391109eA6c830379",
  "abi": [
    {
      "anonymous": false,
      "inputs": [
        {
          "indexed": true,
          "internalType": "address",
          "name": "previousOwner",
          "type": "address"
        },
        {
          "indexed": true,
          "internalType": "address",
          "name": "newOwner",
          "type": "address"
        }
      ],
      "name": "OwnershipTransferred",
      "type": "event"
    },
    {
      "inputs": [
        {
          "internalType": "address",
          "name": "bank",
          "type": "address"
        }
      ],
      "name": "addBank",
      "outputs": [],
      "stateMutability": "nonpayable",
      "type": "function"
    },
    {
      "inputs": [
        {
          "internalType": "address",
          "name": "lp",
          "type": "address"
        }
      ],
      "name": "addLPToken",
      "outputs": [],
      "stateMutability": "nonpayable",
      "type": "function"
    },
    {
      "inputs": [
        {
          "internalType": "address",
          "name": "token",
          "type": "address"
        },
        {
          "internalType": "address",
          "name": "lp",
          "type": "address"
        }
      ],
      "name": "addSwapLP",
      "outputs": [],
      "stateMutability": "nonpayable",
      "type": "function"
    },
    {
      "inputs": [
        {
          "internalType": "address",
          "name": "token",
          "type": "address"
        }
      ],
      "name": "addToken",
      "outputs": [],
      "stateMutability": "nonpayable",
      "type": "function"
    },
    {
      "inputs": [
        {
          "internalType": "address",
          "name": "yak",
          "type": "address"
        }
      ],
      "name": "addYakStrat",
      "outputs": [],
      "stateMutability": "nonpayable",
      "type": "function"
    },
    {
      "inputs": [],
      "name": "allocate",
      "outputs": [],
      "stateMutability": "nonpayable",
      "type": "function"
    },
    {
      "inputs": [
        {
          "internalType": "address",
          "name": "_dev",
          "type": "address"
        }
      ],
      "name": "changeDev",
      "outputs": [],
      "stateMutability": "nonpayable",
      "type": "function"
    },
    {
      "inputs": [
        {
          "internalType": "address",
          "name": "_seafund",
          "type": "address"
        }
      ],
      "name": "changeSeafund",
      "outputs": [],
      "stateMutability": "nonpayable",
      "type": "function"
    },
    {
      "inputs": [
        {
          "internalType": "address",
          "name": "_treasury",
          "type": "address"
        }
      ],
      "name": "changeTreasury",
      "outputs": [],
      "stateMutability": "nonpayable",
      "type": "function"
    },
    {
      "inputs": [],
      "name": "dev",
      "outputs": [
        {
          "internalType": "address",
          "name": "",
          "type": "address"
        }
      ],
      "stateMutability": "view",
      "type": "function"
    },
    {
      "inputs": [],
      "name": "getBankCount",
      "outputs": [
        {
          "internalType": "uint256",
          "name": "",
          "type": "uint256"
        }
      ],
      "stateMutability": "view",
      "type": "function"
    },
    {
      "inputs": [],
      "name": "getLPTokens",
      "outputs": [
        {
          "internalType": "uint256",
          "name": "",
          "type": "uint256"
        }
      ],
      "stateMutability": "view",
      "type": "function"
    },
    {
      "inputs": [],
      "name": "getTokens",
      "outputs": [
        {
          "internalType": "uint256",
          "name": "",
          "type": "uint256"
        }
      ],
      "stateMutability": "view",
      "type": "function"
    },
    {
      "inputs": [],
      "name": "getYakCount",
      "outputs": [
        {
          "internalType": "uint256",
          "name": "",
          "type": "uint256"
        }
      ],
      "stateMutability": "view",
      "type": "function"
    },
    {
      "inputs": [
        {
          "internalType": "address",
          "name": "_pod",
          "type": "address"
        },
        {
          "internalType": "address",
          "name": "_orca",
          "type": "address"
        },
        {
          "internalType": "address",
          "name": "_wavax",
          "type": "address"
        },
        {
          "internalType": "address",
          "name": "_usdc",
          "type": "address"
        },
        {
          "internalType": "address",
          "name": "_seafund",
          "type": "address"
        },
        {
          "internalType": "address",
          "name": "_treasury",
          "type": "address"
        },
        {
          "internalType": "address",
          "name": "_dev",
          "type": "address"
        },
        {
          "internalType": "uint256",
          "name": "_treasuryAmount",
          "type": "uint256"
        },
        {
          "internalType": "uint256",
          "name": "_devAmount",
          "type": "uint256"
        },
        {
          "internalType": "uint256",
          "name": "_seafundAmount",
          "type": "uint256"
        },
        {
          "internalType": "uint256",
          "name": "_podAmount",
          "type": "uint256"
        }
      ],
      "name": "initialize",
      "outputs": [],
      "stateMutability": "nonpayable",
      "type": "function"
    },
    {
      "inputs": [],
      "name": "owner",
      "outputs": [
        {
          "internalType": "address",
          "name": "",
          "type": "address"
        }
      ],
      "stateMutability": "view",
      "type": "function"
    },
    {
      "inputs": [],
      "name": "pod",
      "outputs": [
        {
          "internalType": "contract IERC20",
          "name": "",
          "type": "address"
        }
      ],
      "stateMutability": "view",
      "type": "function"
    },
    {
      "inputs": [],
      "name": "renounceOwnership",
      "outputs": [],
      "stateMutability": "nonpayable",
      "type": "function"
    },
    {
      "inputs": [],
      "name": "seafund",
      "outputs": [
        {
          "internalType": "address",
          "name": "",
          "type": "address"
        }
      ],
      "stateMutability": "view",
      "type": "function"
    },
    {
      "inputs": [
        {
          "internalType": "uint256",
          "name": "bank",
          "type": "uint256"
        },
        {
          "internalType": "uint256",
          "name": "vault",
          "type": "uint256"
        },
        {
          "internalType": "address",
          "name": "to",
          "type": "address"
        }
      ],
      "name": "transferBankVault",
      "outputs": [],
      "stateMutability": "nonpayable",
      "type": "function"
    },
    {
      "inputs": [
        {
          "internalType": "address",
          "name": "newOwner",
          "type": "address"
        }
      ],
      "name": "transferOwnership",
      "outputs": [],
      "stateMutability": "nonpayable",
      "type": "function"
    },
    {
      "inputs": [],
      "name": "treasury",
      "outputs": [
        {
          "internalType": "address",
          "name": "",
          "type": "address"
        }
      ],
      "stateMutability": "view",
      "type": "function"
    }
  ],
  "transactionHash": "0x8a1ebd9e76bc278aa0d3127dae6b3bb65abf2016bd31611d2141b025992dda75",
  "args": [],
  "solcInputHash": "126956d7d1408f0df5b54ffd568b4d89",
  "bytecode": "0x608060405234801561001057600080fd5b5061263e806100206000396000f3fe608060405234801561001057600080fd5b50600436106101825760003560e01c8063a88dbb36116100d8578063b736ca821161008c578063d2aa23e011610066578063d2aa23e0146102d9578063d48bfca7146102ec578063f2fde38b146102ff57600080fd5b8063b736ca82146102a0578063bc1080bd146102b3578063cda3c5af146102c657600080fd5b8063abaa9916116100bd578063abaa991614610272578063b14f2a391461027a578063b214cc031461028d57600080fd5b8063a88dbb3614610257578063aa6ca8081461026a57600080fd5b8063715018a61161013a5780638da5cb5b116101145780638da5cb5b1461022057806391cca3db14610231578063947223971461024457600080fd5b8063715018a6146101f257806377db2c17146101fa57806388a8c95c1461020d57600080fd5b80632e44715d1161016b5780632e44715d146101aa57806352c84306146101b257806361d027b3146101c757600080fd5b80631224abfb146101875780631595eb0b146101a2575b600080fd5b61018f610312565b6040519081526020015b60405180910390f35b61018f610323565b61018f61032f565b6101c56101c03660046122cc565b61033b565b005b606a546101da906001600160a01b031681565b6040516001600160a01b039091168152602001610199565b6101c5610460565b6101c56102083660046122b2565b6104b4565b6101c561021b3660046122b2565b610571565b6033546001600160a01b03166101da565b606b546101da906001600160a01b031681565b6101c56102523660046122b2565b610631565b6065546101da906001600160a01b031681565b61018f610700565b6101c561070c565b6101c56102883660046122b2565b610f54565b6101c561029b3660046122b2565b611014565b6101c56102ae3660046122fe565b6110cd565b6101c56102c1366004612456565b6114e7565b6069546101da906001600160a01b031681565b6101c56102e73660046122b2565b611668565b6101c56102fa3660046122b2565b611728565b6101c561030d3660046122b2565b6117dd565b600061031e60746118ad565b905090565b600061031e60726118ad565b600061031e60706118ad565b6033546001600160a01b031633146103885760405162461bcd60e51b815260206004820181905260248201526000805160206125e983398151915260448201526064015b60405180910390fd5b6001600160a01b0382166103ea5760405162461bcd60e51b8152602060048201526024808201527f43616e6e6f7420616464206120746f6b656e2077697468207a65726f206164646044820152637265737360e01b606482015260840161037f565b6001600160a01b0381166104505760405162461bcd60e51b815260206004820152602760248201527f43616e6e6f74206164642061204c5020746f6b656e2077697468207a65726f206044820152666164647265737360c81b606482015260840161037f565b61045b6074826118bd565b505050565b6033546001600160a01b031633146104a85760405162461bcd60e51b815260206004820181905260248201526000805160206125e9833981519152604482015260640161037f565b6104b260006118d9565b565b6033546001600160a01b031633146104fc5760405162461bcd60e51b815260206004820181905260248201526000805160206125e9833981519152604482015260640161037f565b6001600160a01b0381166105625760405162461bcd60e51b815260206004820152602760248201527f43616e6e6f742061646420612079616b53747261742077697468207a65726f206044820152666164647265737360c81b606482015260840161037f565b61056d6072826118bd565b5050565b6033546001600160a01b031633146105b95760405162461bcd60e51b815260206004820181905260248201526000805160206125e9833981519152604482015260640161037f565b6001600160a01b03811661060f5760405162461bcd60e51b815260206004820152601a60248201527f4465762063616e6e6f74206265207a65726f2061646472657373000000000000604482015260640161037f565b606b80546001600160a01b0319166001600160a01b0392909216919091179055565b6033546001600160a01b031633146106795760405162461bcd60e51b815260206004820181905260248201526000805160206125e9833981519152604482015260640161037f565b6001600160a01b0381166106f55760405162461bcd60e51b815260206004820152602360248201527f43616e6e6f742061646420612062616e6b2077697468207a65726f206164647260448201527f6573730000000000000000000000000000000000000000000000000000000000606482015260840161037f565b61056d6070826118bd565b600061031e60766118ad565b33321461075b5760405162461bcd60e51b815260206004820152601760248201527f4f72636141646465723a206d7573742075736520454f41000000000000000000604482015260640161037f565b60005b61076661032f565b81101561094057600061077a60708361192b565b6040517f2f745c590000000000000000000000000000000000000000000000000000000081523060048201526000602482018190529192506001600160a01b03831690632f745c599060440160206040518083038186803b1580156107de57600080fd5b505afa1580156107f2573d6000803e3d6000fd5b505050506040513d601f19601f82011682018060405250810190610816919061241b565b6040517fd4a9b2c5000000000000000000000000000000000000000000000000000000008152600481018290529091506000906001600160a01b0384169063d4a9b2c59060240160206040518083038186803b15801561087557600080fd5b505afa158015610889573d6000803e3d6000fd5b505050506040513d601f19601f820116820180604052508101906108ad919061241b565b6040517f767a7b0500000000000000000000000000000000000000000000000000000000815260048101849052602481018290529091506001600160a01b0384169063767a7b0590604401600060405180830381600087803b15801561091257600080fd5b505af1158015610926573d6000803e3d6000fd5b505050505050508080610938906125b7565b91505061075e565b5060005b61094c610323565b811015610a6857600061096060728361192b565b6040516370a0823160e01b81523060048201529091506000906001600160a01b038316906370a082319060240160206040518083038186803b1580156109a557600080fd5b505afa1580156109b9573d6000803e3d6000fd5b505050506040513d601f19601f820116820180604052508101906109dd919061241b565b6040517f2e1a7d4d000000000000000000000000000000000000000000000000000000008152600481018290529091506001600160a01b03831690632e1a7d4d90602401600060405180830381600087803b158015610a3b57600080fd5b505af1158015610a4f573d6000803e3d6000fd5b5050505050508080610a60906125b7565b915050610944565b5060005b610a74610312565b811015610aa357610a8e610a8960748361192b565b611937565b50508080610a9b906125b7565b915050610a6c565b5060005b610aaf610700565b811015610c11576000610ac360768361192b565b90506000607881610ad560768661192b565b6001600160a01b03908116825260208201929092526040016000205416905080610b415760405162461bcd60e51b815260206004820152601660248201527f73776170204c5020646f6573206e6f7420657869737400000000000000000000604482015260640161037f565b6040516370a0823160e01b8152306004820152610bfb906001600160a01b038416906370a082319060240160206040518083038186803b158015610b8457600080fd5b505afa158015610b98573d6000803e3d6000fd5b505050506040513d601f19601f82011682018060405250810190610bbc919061241b565b60675484906001600160a01b031660786000610bd960768a61192b565b6001600160a01b03908116825260208201929092526040016000205416611ade565b5050508080610c09906125b7565b915050610aa7565b506067546040516370a0823160e01b81523060048201526000916001600160a01b0316906370a082319060240160206040518083038186803b158015610c5657600080fd5b505afa158015610c6a573d6000803e3d6000fd5b505050506040513d601f19601f82011682018060405250810190610c8e919061241b565b90506000612710606f5483610ca39190612555565b610cad9190612535565b90506000612710606f54612710610cc49190612574565b610cce9085612555565b610cd89190612535565b606754606654919250610cfa9184916001600160a01b03908116911680611ade565b50606754606854610d1a9183916001600160a01b03918216911681611ade565b506065546066546040516370a0823160e01b8152306004820152610db2926001600160a01b039081169216906370a082319060240160206040518083038186803b158015610d6757600080fd5b505afa158015610d7b573d6000803e3d6000fd5b505050506040513d601f19601f82011682018060405250810190610d9f919061241b565b6066546001600160a01b03169190611c7f565b6068546040516370a0823160e01b81523060048201526000916001600160a01b0316906370a082319060240160206040518083038186803b158015610df657600080fd5b505afa158015610e0a573d6000803e3d6000fd5b505050506040513d601f19601f82011682018060405250810190610e2e919061241b565b606954606f54919250610e7d916001600160a01b0390911690610e5390612710612574565b606e54610e609085612555565b610e6a9190612535565b6068546001600160a01b03169190611c7f565b606954606f54610e9d916001600160a01b031690610e5390612710612574565b606a54606f54610eca916001600160a01b031690610ebd90612710612574565b606c54610e609085612555565b606b546068546040516370a0823160e01b8152306004820152610f4e926001600160a01b039081169216906370a082319060240160206040518083038186803b158015610f1657600080fd5b505afa158015610f2a573d6000803e3d6000fd5b505050506040513d601f19601f82011682018060405250810190610e6a919061241b565b50505050565b6033546001600160a01b03163314610f9c5760405162461bcd60e51b815260206004820181905260248201526000805160206125e9833981519152604482015260640161037f565b6001600160a01b038116610ff25760405162461bcd60e51b815260206004820152601f60248201527f54726561737572792063616e6e6f74206265207a65726f206164647265737300604482015260640161037f565b606a80546001600160a01b0319166001600160a01b0392909216919091179055565b6033546001600160a01b0316331461105c5760405162461bcd60e51b815260206004820181905260248201526000805160206125e9833981519152604482015260640161037f565b6001600160a01b0381166110c25760405162461bcd60e51b815260206004820152602760248201527f43616e6e6f74206164642061204c5020746f6b656e2077697468207a65726f206044820152666164647265737360c81b606482015260840161037f565b61056d6074826118bd565b600054610100900460ff16806110e6575060005460ff16155b6111495760405162461bcd60e51b815260206004820152602e60248201527f496e697469616c697a61626c653a20636f6e747261637420697320616c72656160448201526d191e481a5b9a5d1a585b1a5e995960921b606482015260840161037f565b600054610100900460ff1615801561116b576000805461ffff19166101011790555b611173611ce6565b61117b611d98565b6001600160a01b038c166111d15760405162461bcd60e51b815260206004820152601a60248201527f506f642063616e6e6f74206265207a65726f2061646472657373000000000000604482015260640161037f565b6001600160a01b038b166112275760405162461bcd60e51b815260206004820152601b60248201527f4f5243412063616e6e6f74206265207a65726f20616464726573730000000000604482015260640161037f565b6001600160a01b038a1661127d5760405162461bcd60e51b815260206004820152601c60248201527f57415641582063616e6e6f74206265207a65726f206164647265737300000000604482015260640161037f565b6001600160a01b0389166112d35760405162461bcd60e51b815260206004820152601b60248201527f555344432063616e6e6f74206265207a65726f20616464726573730000000000604482015260640161037f565b6001600160a01b0388166113295760405162461bcd60e51b815260206004820152601e60248201527f53656166756e642063616e6e6f74206265207a65726f20616464726573730000604482015260640161037f565b6001600160a01b03871661137f5760405162461bcd60e51b815260206004820152601f60248201527f54726561737572792063616e6e6f74206265207a65726f206164647265737300604482015260640161037f565b6001600160a01b0386166113d55760405162461bcd60e51b815260206004820152601a60248201527f4465762063616e6e6f74206265207a65726f2061646472657373000000000000604482015260640161037f565b81836113e1868861251d565b6113eb919061251d565b6113f5919061251d565b612710146114455760405162461bcd60e51b815260206004820152601360248201527f4d7573742061646420757020746f203130302500000000000000000000000000604482015260640161037f565b606580546001600160a01b03199081166001600160a01b038f8116919091179092556066805482168e84161790556067805482168d84161790556068805482168c84161790556069805482168b8416179055606a805482168a8416179055606b8054909116918816919091179055606d849055606e839055606c859055606f82905580156114d9576000805461ff00191690555b505050505050505050505050565b6033546001600160a01b0316331461152f5760405162461bcd60e51b815260206004820181905260248201526000805160206125e9833981519152604482015260640161037f565b61153761032f565b83106115855760405162461bcd60e51b815260206004820152601360248201527f42616e6b20646f6573206e6f7420657869737400000000000000000000000000604482015260640161037f565b6001600160a01b0381166115db5760405162461bcd60e51b815260206004820152601f60248201527f43616e6e6f74207472616e7366657220746f207a65726f206164647265737300604482015260640161037f565b6115e660708461192b565b6040517f3e61facd000000000000000000000000000000000000000000000000000000008152600481018490526001600160a01b0383811660248301529190911690633e61facd90604401600060405180830381600087803b15801561164b57600080fd5b505af115801561165f573d6000803e3d6000fd5b50505050505050565b6033546001600160a01b031633146116b05760405162461bcd60e51b815260206004820181905260248201526000805160206125e9833981519152604482015260640161037f565b6001600160a01b0381166117065760405162461bcd60e51b815260206004820152601e60248201527f53656166756e642063616e6e6f74206265207a65726f20616464726573730000604482015260640161037f565b606980546001600160a01b0319166001600160a01b0392909216919091179055565b6033546001600160a01b031633146117705760405162461bcd60e51b815260206004820181905260248201526000805160206125e9833981519152604482015260640161037f565b6001600160a01b0381166117d25760405162461bcd60e51b8152602060048201526024808201527f43616e6e6f7420616464206120746f6b656e2077697468207a65726f206164646044820152637265737360e01b606482015260840161037f565b61056d6076826118bd565b6033546001600160a01b031633146118255760405162461bcd60e51b815260206004820181905260248201526000805160206125e9833981519152604482015260640161037f565b6001600160a01b0381166118a15760405162461bcd60e51b815260206004820152602660248201527f4f776e61626c653a206e6577206f776e657220697320746865207a65726f206160448201527f6464726573730000000000000000000000000000000000000000000000000000606482015260840161037f565b6118aa816118d9565b50565b60006118b7825490565b92915050565b60006118d2836001600160a01b038416611e3f565b9392505050565b603380546001600160a01b038381166001600160a01b0319831681179093556040519116919082907f8be0079c531659141344cd1fd0a4f28419497f9722a3daafe3b4186f6b6457e090600090a35050565b60006118d28383611e8e565b600080826001600160a01b0381166119b75760405162461bcd60e51b815260206004820152602260248201527f496e76616c6964207061697220666f722072656d6f76696e676c69717569646960448201527f7479000000000000000000000000000000000000000000000000000000000000606482015260840161037f565b6040516370a0823160e01b8152306004820152611a3b90859081906001600160a01b038516906370a082319060240160206040518083038186803b1580156119fe57600080fd5b505afa158015611a12573d6000803e3d6000fd5b505050506040513d601f19601f82011682018060405250810190611a36919061241b565b611ec6565b6040517f89afcb4400000000000000000000000000000000000000000000000000000000815230600482015260009081906001600160a01b038416906389afcb44906024016040805180830381600087803b158015611a9957600080fd5b505af1158015611aad573d6000803e3d6000fd5b505050506040513d601f19601f82011682018060405250810190611ad19190612433565b9097909650945050505050565b600080611aeb8585611f94565b509050600080846001600160a01b0316630902f1ac6040518163ffffffff1660e01b815260040160606040518083038186803b158015611b2a57600080fd5b505afa158015611b3e573d6000803e3d6000fd5b505050506040513d601f19601f82011682018060405250810190611b6291906123cd565b5091509150866001600160a01b0316836001600160a01b031614611b8257905b600080611bb08a856dffffffffffffffffffffffffffff16856dffffffffffffffffffffffffffff16611fc5565b9050886001600160a01b0316856001600160a01b031614611bcd57905b611bd889888c611ec6565b604080516000815260208101918290527f022c0d9f000000000000000000000000000000000000000000000000000000009091526001600160a01b0388169063022c0d9f90611c3090859085903090602481016124e5565b600060405180830381600087803b158015611c4a57600080fd5b505af1158015611c5e573d6000803e3d6000fd5b50505050818111611c6f5781611c71565b805b9a9950505050505050505050565b604080516001600160a01b038416602482015260448082018490528251808303909101815260649091019091526020810180517bffffffffffffffffffffffffffffffffffffffffffffffffffffffff1663a9059cbb60e01b17905261045b908490612014565b600054610100900460ff1680611cff575060005460ff16155b611d625760405162461bcd60e51b815260206004820152602e60248201527f496e697469616c697a61626c653a20636f6e747261637420697320616c72656160448201526d191e481a5b9a5d1a585b1a5e995960921b606482015260840161037f565b600054610100900460ff16158015611d84576000805461ffff19166101011790555b80156118aa576000805461ff001916905550565b600054610100900460ff1680611db1575060005460ff16155b611e145760405162461bcd60e51b815260206004820152602e60248201527f496e697469616c697a61626c653a20636f6e747261637420697320616c72656160448201526d191e481a5b9a5d1a585b1a5e995960921b606482015260840161037f565b600054610100900460ff16158015611e36576000805461ffff19166101011790555b611d84336118d9565b6000818152600183016020526040812054611e86575081546001818101845560008481526020808220909301849055845484825282860190935260409020919091556118b7565b5060006118b7565b6000826000018281548110611eb357634e487b7160e01b600052603260045260246000fd5b9060005260206000200154905092915050565b60405163a9059cbb60e01b81526001600160a01b0383811660048301526024820183905284169063a9059cbb90604401602060405180830381600087803b158015611f1057600080fd5b505af1158015611f24573d6000803e3d6000fd5b505050506040513d601f19601f82011682018060405250810190611f4891906123ad565b61045b5760405162461bcd60e51b815260206004820181905260248201527f4465784c6962726172793a3a5452414e534645525f46524f4d5f4641494c4544604482015260640161037f565b600080826001600160a01b0316846001600160a01b031610611fb7578284611fba565b83835b915091509250929050565b600080611fd4856103e5612555565b90506000611fe28483612555565b9050600082611ff3876103e8612555565b611ffd919061251d565b90506120098183612535565b979650505050505050565b6000612069826040518060400160405280602081526020017f5361666545524332303a206c6f772d6c6576656c2063616c6c206661696c6564815250856001600160a01b03166120f99092919063ffffffff16565b80519091501561045b578080602001905181019061208791906123ad565b61045b5760405162461bcd60e51b815260206004820152602a60248201527f5361666545524332303a204552433230206f7065726174696f6e20646964206e60448201527f6f74207375636365656400000000000000000000000000000000000000000000606482015260840161037f565b60606121088484600085612110565b949350505050565b6060824710156121885760405162461bcd60e51b815260206004820152602660248201527f416464726573733a20696e73756666696369656e742062616c616e636520666f60448201527f722063616c6c0000000000000000000000000000000000000000000000000000606482015260840161037f565b843b6121d65760405162461bcd60e51b815260206004820152601d60248201527f416464726573733a2063616c6c20746f206e6f6e2d636f6e7472616374000000604482015260640161037f565b600080866001600160a01b031685876040516121f291906124b6565b60006040518083038185875af1925050503d806000811461222f576040519150601f19603f3d011682016040523d82523d6000602084013e612234565b606091505b50915091506120098282866060831561224e5750816118d2565b82511561225e5782518084602001fd5b8160405162461bcd60e51b815260040161037f91906124d2565b80356001600160a01b038116811461228f57600080fd5b919050565b80516dffffffffffffffffffffffffffff8116811461228f57600080fd5b6000602082840312156122c3578081fd5b6118d282612278565b600080604083850312156122de578081fd5b6122e783612278565b91506122f560208401612278565b90509250929050565b60008060008060008060008060008060006101608c8e03121561231f578687fd5b6123288c612278565b9a5061233660208d01612278565b995061234460408d01612278565b985061235260608d01612278565b975061236060808d01612278565b965061236e60a08d01612278565b955061237c60c08d01612278565b945060e08c013593506101008c013592506101208c013591506101408c013590509295989b509295989b9093969950565b6000602082840312156123be578081fd5b815180151581146118d2578182fd5b6000806000606084860312156123e1578283fd5b6123ea84612294565b92506123f860208501612294565b9150604084015163ffffffff81168114612410578182fd5b809150509250925092565b60006020828403121561242c578081fd5b5051919050565b60008060408385031215612445578182fd5b505080516020909101519092909150565b60008060006060848603121561246a578283fd5b833592506020840135915061248160408501612278565b90509250925092565b600081518084526124a281602086016020860161258b565b601f01601f19169290920160200192915050565b600082516124c881846020870161258b565b9190910192915050565b6020815260006118d2602083018461248a565b8481528360208201526001600160a01b0383166040820152608060608201526000612513608083018461248a565b9695505050505050565b60008219821115612530576125306125d2565b500190565b60008261255057634e487b7160e01b81526012600452602481fd5b500490565b600081600019048311821515161561256f5761256f6125d2565b500290565b600082821015612586576125866125d2565b500390565b60005b838110156125a657818101518382015260200161258e565b83811115610f4e5750506000910152565b60006000198214156125cb576125cb6125d2565b5060010190565b634e487b7160e01b600052601160045260246000fdfe4f776e61626c653a2063616c6c6572206973206e6f7420746865206f776e6572a26469706673582212206e856112472f1a55165ec347299ec7c28fa6114898d933014fdd9a5bf25fa2c464736f6c63430008040033",
  "devdoc": {
    "kind": "dev",
    "methods": {
      "addBank(address)": {
        "params": {
          "bank": "The address of the bank"
        }
      },
      "addLPToken(address)": {
        "params": {
          "lp": "The address of the LP token"
        }
      },
      "addSwapLP(address,address)": {
        "params": {
          "lp": "The address of the LP token"
        }
      },
      "addToken(address)": {
        "params": {
          "token": "The address of the token"
        }
      },
      "addYakStrat(address)": {
        "params": {
          "yak": "The address of the yak"
        }
      },
      "changeDev(address)": {
        "params": {
          "_dev": "The address of the LP token"
        }
      },
      "changeSeafund(address)": {
        "params": {
          "_seafund": "The address of the LP token"
        }
      },
      "changeTreasury(address)": {
        "params": {
          "_treasury": "The address of the LP token"
        }
      },
      "owner()": {
        "details": "Returns the address of the current owner."
      },
      "renounceOwnership()": {
        "details": "Leaves the contract without owner. It will not be possible to call `onlyOwner` functions anymore. Can only be called by the current owner. NOTE: Renouncing ownership will leave the contract without an owner, thereby removing any functionality that is only available to the owner."
      },
      "transferBankVault(uint256,uint256,address)": {
        "params": {
          "bank": "The bank id",
          "to": "who you're transfering it to",
          "vault": "the vault id"
        }
      },
      "transferOwnership(address)": {
        "details": "Transfers ownership of the contract to a new account (`newOwner`). Can only be called by the current owner."
      }
    },
    "version": 1
  },
  "userdoc": {
    "kind": "user",
    "methods": {
      "addBank(address)": {
        "notice": "Adds a bank that this can get fees from"
      },
      "addLPToken(address)": {
        "notice": "Adds a LP token, to allow transfering"
      },
      "addSwapLP(address,address)": {
        "notice": "Adds a LP token, to allow transfering"
      },
      "addToken(address)": {
        "notice": "Adds a LP token, to allow transfering"
      },
      "addYakStrat(address)": {
        "notice": "Adds a yield yak token, to allow withdrawing"
      },
      "allocate()": {
        "notice": "For allocating the revenue to the correct locations."
      },
      "changeDev(address)": {
        "notice": "Adds a LP token, to allow transfering"
      },
      "changeSeafund(address)": {
        "notice": "Adds a LP token, to allow transfering"
      },
      "changeTreasury(address)": {
        "notice": "Adds a LP token, to allow transfering"
      },
      "getBankCount()": {
        "notice": "Gets the numbers of banks this account controls"
      },
      "getLPTokens()": {
        "notice": "Gets the number of LP tokens this account controls"
      },
      "getTokens()": {
        "notice": "Gets the number of tokens this account controls"
      },
      "getYakCount()": {
        "notice": "Gets the number of yield yak banks (tokens) this account controls"
      },
      "initialize(address,address,address,address,address,address,address,uint256,uint256,uint256,uint256)": {
        "notice": "Initializes the Adder. We are doing proxy here as we might add seperate fees that need to be converted later. Easier than changing treasuries over."
      },
      "transferBankVault(uint256,uint256,address)": {
        "notice": "for transfering treasury bank vault. Only use if changing contracts."
      }
    },
    "version": 1
  },
  "storageLayout": {
    "storage": [
      {
        "astId": 594,
        "contract": "apps/avai/src/contracts/OrcaAdder.sol:OrcaAdder",
        "label": "_initialized",
        "offset": 0,
        "slot": "0",
        "type": "t_bool"
      },
      {
        "astId": 597,
        "contract": "apps/avai/src/contracts/OrcaAdder.sol:OrcaAdder",
        "label": "_initializing",
        "offset": 1,
        "slot": "0",
        "type": "t_bool"
      },
      {
        "astId": 3406,
        "contract": "apps/avai/src/contracts/OrcaAdder.sol:OrcaAdder",
        "label": "__gap",
        "offset": 0,
        "slot": "1",
        "type": "t_array(t_uint256)50_storage"
      },
      {
        "astId": 464,
        "contract": "apps/avai/src/contracts/OrcaAdder.sol:OrcaAdder",
        "label": "_owner",
        "offset": 0,
        "slot": "51",
        "type": "t_address"
      },
      {
        "astId": 577,
        "contract": "apps/avai/src/contracts/OrcaAdder.sol:OrcaAdder",
        "label": "__gap",
        "offset": 0,
        "slot": "52",
        "type": "t_array(t_uint256)49_storage"
      },
      {
        "astId": 10945,
        "contract": "apps/avai/src/contracts/OrcaAdder.sol:OrcaAdder",
        "label": "pod",
        "offset": 0,
        "slot": "101",
        "type": "t_contract(IERC20)5519"
      },
      {
        "astId": 10948,
        "contract": "apps/avai/src/contracts/OrcaAdder.sol:OrcaAdder",
        "label": "orca",
        "offset": 0,
        "slot": "102",
        "type": "t_contract(IERC20)5519"
      },
      {
        "astId": 10951,
        "contract": "apps/avai/src/contracts/OrcaAdder.sol:OrcaAdder",
        "label": "wavax",
        "offset": 0,
        "slot": "103",
        "type": "t_contract(IERC20)5519"
      },
      {
        "astId": 10954,
        "contract": "apps/avai/src/contracts/OrcaAdder.sol:OrcaAdder",
        "label": "usdc",
        "offset": 0,
        "slot": "104",
        "type": "t_contract(IERC20)5519"
      },
      {
        "astId": 10956,
        "contract": "apps/avai/src/contracts/OrcaAdder.sol:OrcaAdder",
        "label": "seafund",
        "offset": 0,
        "slot": "105",
        "type": "t_address"
      },
      {
        "astId": 10958,
        "contract": "apps/avai/src/contracts/OrcaAdder.sol:OrcaAdder",
        "label": "treasury",
        "offset": 0,
        "slot": "106",
        "type": "t_address"
      },
      {
        "astId": 10960,
        "contract": "apps/avai/src/contracts/OrcaAdder.sol:OrcaAdder",
        "label": "dev",
        "offset": 0,
        "slot": "107",
        "type": "t_address"
      },
      {
        "astId": 10962,
        "contract": "apps/avai/src/contracts/OrcaAdder.sol:OrcaAdder",
        "label": "treasuryAmount",
        "offset": 0,
        "slot": "108",
        "type": "t_uint256"
      },
      {
        "astId": 10964,
        "contract": "apps/avai/src/contracts/OrcaAdder.sol:OrcaAdder",
        "label": "devAmount",
        "offset": 0,
        "slot": "109",
        "type": "t_uint256"
      },
      {
        "astId": 10966,
        "contract": "apps/avai/src/contracts/OrcaAdder.sol:OrcaAdder",
        "label": "seafundAmount",
        "offset": 0,
        "slot": "110",
        "type": "t_uint256"
      },
      {
        "astId": 10968,
        "contract": "apps/avai/src/contracts/OrcaAdder.sol:OrcaAdder",
        "label": "podAmount",
        "offset": 0,
        "slot": "111",
        "type": "t_uint256"
      },
      {
        "astId": 10971,
        "contract": "apps/avai/src/contracts/OrcaAdder.sol:OrcaAdder",
        "label": "banks",
        "offset": 0,
        "slot": "112",
        "type": "t_struct(AddressSet)8387_storage"
      },
      {
        "astId": 10974,
        "contract": "apps/avai/src/contracts/OrcaAdder.sol:OrcaAdder",
        "label": "yakStrats",
        "offset": 0,
        "slot": "114",
        "type": "t_struct(AddressSet)8387_storage"
      },
      {
        "astId": 10977,
        "contract": "apps/avai/src/contracts/OrcaAdder.sol:OrcaAdder",
        "label": "lpTokens",
        "offset": 0,
        "slot": "116",
        "type": "t_struct(AddressSet)8387_storage"
      },
      {
        "astId": 10980,
        "contract": "apps/avai/src/contracts/OrcaAdder.sol:OrcaAdder",
        "label": "tokens",
        "offset": 0,
        "slot": "118",
        "type": "t_struct(AddressSet)8387_storage"
      },
      {
        "astId": 10984,
        "contract": "apps/avai/src/contracts/OrcaAdder.sol:OrcaAdder",
        "label": "swapLPs",
        "offset": 0,
        "slot": "120",
        "type": "t_mapping(t_address,t_address)"
      }
    ],
    "types": {
      "t_address": {
        "encoding": "inplace",
        "label": "address",
        "numberOfBytes": "20"
      },
      "t_array(t_bytes32)dyn_storage": {
        "base": "t_bytes32",
        "encoding": "dynamic_array",
        "label": "bytes32[]",
        "numberOfBytes": "32"
      },
      "t_array(t_uint256)49_storage": {
        "base": "t_uint256",
        "encoding": "inplace",
        "label": "uint256[49]",
        "numberOfBytes": "1568"
      },
      "t_array(t_uint256)50_storage": {
        "base": "t_uint256",
        "encoding": "inplace",
        "label": "uint256[50]",
        "numberOfBytes": "1600"
      },
      "t_bool": {
        "encoding": "inplace",
        "label": "bool",
        "numberOfBytes": "1"
      },
      "t_bytes32": {
        "encoding": "inplace",
        "label": "bytes32",
        "numberOfBytes": "32"
      },
      "t_contract(IERC20)5519": {
        "encoding": "inplace",
        "label": "contract IERC20",
        "numberOfBytes": "20"
      },
      "t_mapping(t_address,t_address)": {
        "encoding": "mapping",
        "key": "t_address",
        "label": "mapping(address => address)",
        "numberOfBytes": "32",
        "value": "t_address"
      },
      "t_mapping(t_bytes32,t_uint256)": {
        "encoding": "mapping",
        "key": "t_bytes32",
        "label": "mapping(bytes32 => uint256)",
        "numberOfBytes": "32",
        "value": "t_uint256"
      },
      "t_struct(AddressSet)8387_storage": {
        "encoding": "inplace",
        "label": "struct EnumerableSet.AddressSet",
        "members": [
          {
            "astId": 8386,
            "contract": "apps/avai/src/contracts/OrcaAdder.sol:OrcaAdder",
            "label": "_inner",
            "offset": 0,
            "slot": "0",
            "type": "t_struct(Set)8116_storage"
          }
        ],
        "numberOfBytes": "64"
      },
      "t_struct(Set)8116_storage": {
        "encoding": "inplace",
        "label": "struct EnumerableSet.Set",
        "members": [
          {
            "astId": 8111,
            "contract": "apps/avai/src/contracts/OrcaAdder.sol:OrcaAdder",
            "label": "_values",
            "offset": 0,
            "slot": "0",
            "type": "t_array(t_bytes32)dyn_storage"
          },
          {
            "astId": 8115,
            "contract": "apps/avai/src/contracts/OrcaAdder.sol:OrcaAdder",
            "label": "_indexes",
            "offset": 0,
            "slot": "1",
            "type": "t_mapping(t_bytes32,t_uint256)"
          }
        ],
        "numberOfBytes": "64"
      },
      "t_uint256": {
        "encoding": "inplace",
        "label": "uint256",
        "numberOfBytes": "32"
      }
    }
  }
}