{
  "address": "0xa728c215fE370F13c22d3643A0037f167484Fe01",
  "abi": [
    {
      "anonymous": false,
      "inputs": [
        {
          "indexed": false,
          "internalType": "address",
          "name": "minter",
          "type": "address"
        },
        {
          "indexed": false,
          "internalType": "uint256",
          "name": "amount",
          "type": "uint256"
        },
        {
          "indexed": false,
          "internalType": "uint256",
          "name": "fee",
          "type": "uint256"
        }
      ],
      "name": "Mint",
      "type": "event"
    },
    {
      "anonymous": false,
      "inputs": [
        {
          "indexed": true,
          "internalType": "address",
          "name": "previousOwner",
          "type": "address"
        },
        {
          "indexed": true,
          "internalType": "address",
          "name": "newOwner",
          "type": "address"
        }
      ],
      "name": "OwnershipTransferred",
      "type": "event"
    },
    {
      "anonymous": false,
      "inputs": [
        {
          "indexed": false,
          "internalType": "address",
          "name": "redeemer",
          "type": "address"
        },
        {
          "indexed": false,
          "internalType": "uint256",
          "name": "amount",
          "type": "uint256"
        },
        {
          "indexed": false,
          "internalType": "uint256",
          "name": "fee",
          "type": "uint256"
        }
      ],
      "name": "Redeem",
      "type": "event"
    },
    {
      "inputs": [],
      "name": "avai",
      "outputs": [
        {
          "internalType": "contract IStablecoin",
          "name": "",
          "type": "address"
        }
      ],
      "stateMutability": "view",
      "type": "function"
    },
    {
      "inputs": [],
      "name": "avaiRate",
      "outputs": [
        {
          "internalType": "uint256",
          "name": "",
          "type": "uint256"
        }
      ],
      "stateMutability": "view",
      "type": "function"
    },
    {
      "inputs": [
        {
          "internalType": "address",
          "name": "newTreasury",
          "type": "address"
        }
      ],
      "name": "changeTreasury",
      "outputs": [],
      "stateMutability": "nonpayable",
      "type": "function"
    },
    {
      "inputs": [
        {
          "internalType": "address",
          "name": "usdc_",
          "type": "address"
        },
        {
          "internalType": "address",
          "name": "avai_",
          "type": "address"
        }
      ],
      "name": "initialize",
      "outputs": [],
      "stateMutability": "nonpayable",
      "type": "function"
    },
    {
      "inputs": [
        {
          "internalType": "uint256",
          "name": "amount",
          "type": "uint256"
        }
      ],
      "name": "mint",
      "outputs": [],
      "stateMutability": "nonpayable",
      "type": "function"
    },
    {
      "inputs": [],
      "name": "owner",
      "outputs": [
        {
          "internalType": "address",
          "name": "",
          "type": "address"
        }
      ],
      "stateMutability": "view",
      "type": "function"
    },
    {
      "inputs": [
        {
          "internalType": "uint256",
          "name": "amount",
          "type": "uint256"
        }
      ],
      "name": "redeem",
      "outputs": [],
      "stateMutability": "nonpayable",
      "type": "function"
    },
    {
      "inputs": [],
      "name": "renounceOwnership",
      "outputs": [],
      "stateMutability": "nonpayable",
      "type": "function"
    },
    {
      "inputs": [
        {
          "internalType": "uint256",
          "name": "_rate",
          "type": "uint256"
        }
      ],
      "name": "setAVAIRate",
      "outputs": [],
      "stateMutability": "nonpayable",
      "type": "function"
    },
    {
      "inputs": [
        {
          "internalType": "uint256",
          "name": "_rate",
          "type": "uint256"
        }
      ],
      "name": "setUSDCRate",
      "outputs": [],
      "stateMutability": "nonpayable",
      "type": "function"
    },
    {
      "inputs": [
        {
          "internalType": "address",
          "name": "newOwner",
          "type": "address"
        }
      ],
      "name": "transferOwnership",
      "outputs": [],
      "stateMutability": "nonpayable",
      "type": "function"
    },
    {
      "inputs": [],
      "name": "treasury",
      "outputs": [
        {
          "internalType": "address",
          "name": "",
          "type": "address"
        }
      ],
      "stateMutability": "view",
      "type": "function"
    },
    {
      "inputs": [],
      "name": "usdReserves",
      "outputs": [
        {
          "internalType": "uint256",
          "name": "",
          "type": "uint256"
        }
      ],
      "stateMutability": "view",
      "type": "function"
    },
    {
      "inputs": [],
      "name": "usdc",
      "outputs": [
        {
          "internalType": "contract IERC20",
          "name": "",
          "type": "address"
        }
      ],
      "stateMutability": "view",
      "type": "function"
    },
    {
      "inputs": [],
      "name": "usdcRate",
      "outputs": [
        {
          "internalType": "uint256",
          "name": "",
          "type": "uint256"
        }
      ],
      "stateMutability": "view",
      "type": "function"
    }
  ],
  "transactionHash": "0xaafbd776e50317aaa90636cad0b65affd42a9708ed06646dcc1acca6a442253f",
  "args": [],
  "solcInputHash": "7d7f58c4618f3956ffe17cfd1d3613c7",
  "bytecode": "0x608060405234801561001057600080fd5b5061138f806100206000396000f3fe608060405234801561001057600080fd5b50600436106100f55760003560e01c80638da5cb5b11610097578063e00424cf11610066578063e00424cf146101e1578063eb7f5121146101ea578063ece9c23f146101fd578063f2fde38b1461020557600080fd5b80638da5cb5b14610197578063a0712d68146101a8578063b14f2a39146101bb578063db006a75146101ce57600080fd5b8063485cc955116100d3578063485cc9551461015457806361d027b31461016957806368297ff81461017c578063715018a61461018f57600080fd5b8063277ce7d9146100fa578063356397d21461012a5780633e413bee14610141575b600080fd5b60985461010d906001600160a01b031681565b6040516001600160a01b0390911681526020015b60405180910390f35b61013360995481565b604051908152602001610121565b60975461010d906001600160a01b031681565b6101676101623660046111f0565b610218565b005b609b5461010d906001600160a01b031681565b61016761018a366004611242565b61033e565b61016761039d565b6065546001600160a01b031661010d565b6101676101b6366004611242565b610403565b6101676101c93660046111d6565b6105f3565b6101676101dc366004611242565b610685565b610133609a5481565b6101676101f8366004611242565b610a14565b610133610a73565b6101676102133660046111d6565b610af4565b600054610100900460ff1680610231575060005460ff16155b6102995760405162461bcd60e51b815260206004820152602e60248201527f496e697469616c697a61626c653a20636f6e747261637420697320616c72656160448201526d191e481a5b9a5d1a585b1a5e995960921b60648201526084015b60405180910390fd5b600054610100900460ff161580156102bb576000805461ffff19166101011790555b6102c3610bd6565b6102cb610c88565b6102d3610d2f565b609780546001600160a01b0380861673ffffffffffffffffffffffffffffffffffffffff199283161790925560988054928516928216929092179091556126c5609a5561275b609955609b8054909116331790558015610339576000805461ff00191690555b505050565b6065546001600160a01b031633146103985760405162461bcd60e51b815260206004820181905260248201527f4f776e61626c653a2063616c6c6572206973206e6f7420746865206f776e65726044820152606401610290565b609955565b6065546001600160a01b031633146103f75760405162461bcd60e51b815260206004820181905260248201527f4f776e61626c653a2063616c6c6572206973206e6f7420746865206f776e65726044820152606401610290565b6104016000610de5565b565b600260015414156104565760405162461bcd60e51b815260206004820152601f60248201527f5265656e7472616e637947756172643a207265656e7472616e742063616c6c006044820152606401610290565b6002600155806104a85760405162461bcd60e51b815260206004820152601260248201527f43616e6e6f74206d696e742030204156414900000000000000000000000000006044820152606401610290565b6099546000906104ba836127106112e1565b6104c491906112c1565b6104ce9083611300565b9050600060995483662386f26fc100006104e891906112e1565b6104f291906112c1565b60975490915061050d906001600160a01b0316333086610e44565b609b5460975461052a916001600160a01b03918216911684610efb565b6098546040517f40c10f19000000000000000000000000000000000000000000000000000000008152336004820152602481018390526001600160a01b03909116906340c10f1990604401600060405180830381600087803b15801561058f57600080fd5b505af11580156105a3573d6000803e3d6000fd5b505060408051338152602081018590529081018590527f4c209b5fc8ad50758f13e2e1088ba56a560dff690a1c6fef26394f4c03821c4f925060600190505b60405180910390a150506001805550565b6065546001600160a01b0316331461064d5760405162461bcd60e51b815260206004820181905260248201527f4f776e61626c653a2063616c6c6572206973206e6f7420746865206f776e65726044820152606401610290565b61065681610af4565b609b805473ffffffffffffffffffffffffffffffffffffffff19166001600160a01b0392909216919091179055565b600260015414156106d85760405162461bcd60e51b815260206004820152601f60248201527f5265656e7472616e637947756172643a207265656e7472616e742063616c6c006044820152606401610290565b60026001558061072a5760405162461bcd60e51b815260206004820152601460248201527f43616e6e6f742072656465656d203020555344430000000000000000000000006044820152606401610290565b6097546040516370a0823160e01b81523060048201526001600160a01b03909116906370a082319060240160206040518083038186803b15801561076d57600080fd5b505afa158015610781573d6000803e3d6000fd5b505050506040513d601f19601f820116820180604052508101906107a5919061125a565b6107f15760405162461bcd60e51b815260206004820152601b60248201527f4e6f7420656e6f756768205553444320696e20726573657276657300000000006044820152606401610290565b61080064e8d4a51000826112c1565b6097546040516370a0823160e01b81523060048201526001600160a01b03909116906370a082319060240160206040518083038186803b15801561084357600080fd5b505afa158015610857573d6000803e3d6000fd5b505050506040513d601f19601f8201168201806040525081019061087b919061125a565b10156108c95760405162461bcd60e51b815260206004820152601b60248201527f4e6f7420656e6f756768205553444320696e20726573657276657300000000006044820152606401610290565b6000662386f26fc10000609a54836108e191906112e1565b6108eb91906112c1565b90506000816108ff64e8d4a51000856112c1565b6109099190611300565b609854909150610924906001600160a01b0316333086610e44565b6098546040517f9dc29fac000000000000000000000000000000000000000000000000000000008152306004820152602481018590526001600160a01b0390911690639dc29fac90604401600060405180830381600087803b15801561098957600080fd5b505af115801561099d573d6000803e3d6000fd5b50506097546109b992506001600160a01b031690503384610efb565b609b546097546109d6916001600160a01b03918216911683610efb565b60408051338152602081018490529081018290527fe5b754fb1abb7f01b499791d0b820ae3b6af3424ac1c59768edb53f4ec31a929906060016105e2565b6065546001600160a01b03163314610a6e5760405162461bcd60e51b815260206004820181905260248201527f4f776e61626c653a2063616c6c6572206973206e6f7420746865206f776e65726044820152606401610290565b609a55565b6097546040516370a0823160e01b81523060048201526000916001600160a01b0316906370a082319060240160206040518083038186803b158015610ab757600080fd5b505afa158015610acb573d6000803e3d6000fd5b505050506040513d601f19601f82011682018060405250810190610aef919061125a565b905090565b6065546001600160a01b03163314610b4e5760405162461bcd60e51b815260206004820181905260248201527f4f776e61626c653a2063616c6c6572206973206e6f7420746865206f776e65726044820152606401610290565b6001600160a01b038116610bca5760405162461bcd60e51b815260206004820152602660248201527f4f776e61626c653a206e6577206f776e657220697320746865207a65726f206160448201527f64647265737300000000000000000000000000000000000000000000000000006064820152608401610290565b610bd381610de5565b50565b600054610100900460ff1680610bef575060005460ff16155b610c525760405162461bcd60e51b815260206004820152602e60248201527f496e697469616c697a61626c653a20636f6e747261637420697320616c72656160448201526d191e481a5b9a5d1a585b1a5e995960921b6064820152608401610290565b600054610100900460ff16158015610c74576000805461ffff19166101011790555b8015610bd3576000805461ff001916905550565b600054610100900460ff1680610ca1575060005460ff16155b610d045760405162461bcd60e51b815260206004820152602e60248201527f496e697469616c697a61626c653a20636f6e747261637420697320616c72656160448201526d191e481a5b9a5d1a585b1a5e995960921b6064820152608401610290565b600054610100900460ff16158015610d26576000805461ffff19166101011790555b610c7433610de5565b600054610100900460ff1680610d48575060005460ff16155b610dab5760405162461bcd60e51b815260206004820152602e60248201527f496e697469616c697a61626c653a20636f6e747261637420697320616c72656160448201526d191e481a5b9a5d1a585b1a5e995960921b6064820152608401610290565b600054610100900460ff16158015610dcd576000805461ffff19166101011790555b600180558015610bd3576000805461ff001916905550565b606580546001600160a01b0383811673ffffffffffffffffffffffffffffffffffffffff19831681179093556040519116919082907f8be0079c531659141344cd1fd0a4f28419497f9722a3daafe3b4186f6b6457e090600090a35050565b6040516001600160a01b0380851660248301528316604482015260648101829052610ef59085907f23b872dd00000000000000000000000000000000000000000000000000000000906084015b60408051601f198184030181529190526020810180517bffffffffffffffffffffffffffffffffffffffffffffffffffffffff167fffffffff0000000000000000000000000000000000000000000000000000000090931692909217909152610f44565b50505050565b6040516001600160a01b0383166024820152604481018290526103399084907fa9059cbb0000000000000000000000000000000000000000000000000000000090606401610e91565b6000610f99826040518060400160405280602081526020017f5361666545524332303a206c6f772d6c6576656c2063616c6c206661696c6564815250856001600160a01b03166110299092919063ffffffff16565b8051909150156103395780806020019051810190610fb79190611222565b6103395760405162461bcd60e51b815260206004820152602a60248201527f5361666545524332303a204552433230206f7065726174696f6e20646964206e60448201527f6f742073756363656564000000000000000000000000000000000000000000006064820152608401610290565b60606110388484600085611042565b90505b9392505050565b6060824710156110ba5760405162461bcd60e51b815260206004820152602660248201527f416464726573733a20696e73756666696369656e742062616c616e636520666f60448201527f722063616c6c00000000000000000000000000000000000000000000000000006064820152608401610290565b843b6111085760405162461bcd60e51b815260206004820152601d60248201527f416464726573733a2063616c6c20746f206e6f6e2d636f6e74726163740000006044820152606401610290565b600080866001600160a01b031685876040516111249190611272565b60006040518083038185875af1925050503d8060008114611161576040519150601f19603f3d011682016040523d82523d6000602084013e611166565b606091505b5091509150611176828286611181565b979650505050505050565b6060831561119057508161103b565b8251156111a05782518084602001fd5b8160405162461bcd60e51b8152600401610290919061128e565b80356001600160a01b03811681146111d157600080fd5b919050565b6000602082840312156111e7578081fd5b61103b826111ba565b60008060408385031215611202578081fd5b61120b836111ba565b9150611219602084016111ba565b90509250929050565b600060208284031215611233578081fd5b8151801515811461103b578182fd5b600060208284031215611253578081fd5b5035919050565b60006020828403121561126b578081fd5b5051919050565b60008251611284818460208701611317565b9190910192915050565b60208152600082518060208401526112ad816040850160208701611317565b601f01601f19169190910160400192915050565b6000826112dc57634e487b7160e01b81526012600452602481fd5b500490565b60008160001904831182151516156112fb576112fb611343565b500290565b60008282101561131257611312611343565b500390565b60005b8381101561133257818101518382015260200161131a565b83811115610ef55750506000910152565b634e487b7160e01b600052601160045260246000fdfea26469706673582212209a12caa29f4785212ab1d58ed675e4d1fe03b3f3caf50c6f8d8027ee8e57414c64736f6c63430008040033",
  "devdoc": {
    "kind": "dev",
    "methods": {
      "changeTreasury(address)": {
        "details": "Transfers ownership (and treasury) to new treasury address"
      },
      "mint(uint256)": {
        "details": "will mint 1 AVAI for 1.0075 USDC"
      },
      "owner()": {
        "details": "Returns the address of the current owner."
      },
      "redeem(uint256)": {
        "details": "will redeem 1 AVAI for 0.9925 USDC"
      },
      "renounceOwnership()": {
        "details": "Leaves the contract without owner. It will not be possible to call `onlyOwner` functions anymore. Can only be called by the current owner. NOTE: Renouncing ownership will leave the contract without an owner, thereby removing any functionality that is only available to the owner."
      },
      "setAVAIRate(uint256)": {
        "details": "Set the rate that AVAI is traded for USDC"
      },
      "setUSDCRate(uint256)": {
        "details": "Set the rate that USDC is traded for AVAI"
      },
      "transferOwnership(address)": {
        "details": "Transfers ownership of the contract to a new account (`newOwner`). Can only be called by the current owner."
      },
      "usdReserves()": {
        "details": "Returns the current supply of USDC in the contract.AVAI is minted as it goes."
      }
    },
    "version": 1
  },
  "userdoc": {
    "kind": "user",
    "methods": {},
    "version": 1
  },
  "storageLayout": {
    "storage": [
      {
        "astId": 594,
        "contract": "apps/avai/src/contracts/USDCExchange.sol:USDCExchange",
        "label": "_initialized",
        "offset": 0,
        "slot": "0",
        "type": "t_bool"
      },
      {
        "astId": 597,
        "contract": "apps/avai/src/contracts/USDCExchange.sol:USDCExchange",
        "label": "_initializing",
        "offset": 1,
        "slot": "0",
        "type": "t_bool"
      },
      {
        "astId": 761,
        "contract": "apps/avai/src/contracts/USDCExchange.sol:USDCExchange",
        "label": "_status",
        "offset": 0,
        "slot": "1",
        "type": "t_uint256"
      },
      {
        "astId": 804,
        "contract": "apps/avai/src/contracts/USDCExchange.sol:USDCExchange",
        "label": "__gap",
        "offset": 0,
        "slot": "2",
        "type": "t_array(t_uint256)49_storage"
      },
      {
        "astId": 3406,
        "contract": "apps/avai/src/contracts/USDCExchange.sol:USDCExchange",
        "label": "__gap",
        "offset": 0,
        "slot": "51",
        "type": "t_array(t_uint256)50_storage"
      },
      {
        "astId": 464,
        "contract": "apps/avai/src/contracts/USDCExchange.sol:USDCExchange",
        "label": "_owner",
        "offset": 0,
        "slot": "101",
        "type": "t_address"
      },
      {
        "astId": 577,
        "contract": "apps/avai/src/contracts/USDCExchange.sol:USDCExchange",
        "label": "__gap",
        "offset": 0,
        "slot": "102",
        "type": "t_array(t_uint256)49_storage"
      },
      {
        "astId": 8594,
        "contract": "apps/avai/src/contracts/USDCExchange.sol:USDCExchange",
        "label": "usdc",
        "offset": 0,
        "slot": "151",
        "type": "t_contract(IERC20)5479"
      },
      {
        "astId": 8597,
        "contract": "apps/avai/src/contracts/USDCExchange.sol:USDCExchange",
        "label": "avai",
        "offset": 0,
        "slot": "152",
        "type": "t_contract(IStablecoin)9273"
      },
      {
        "astId": 8599,
        "contract": "apps/avai/src/contracts/USDCExchange.sol:USDCExchange",
        "label": "usdcRate",
        "offset": 0,
        "slot": "153",
        "type": "t_uint256"
      },
      {
        "astId": 8601,
        "contract": "apps/avai/src/contracts/USDCExchange.sol:USDCExchange",
        "label": "avaiRate",
        "offset": 0,
        "slot": "154",
        "type": "t_uint256"
      },
      {
        "astId": 8603,
        "contract": "apps/avai/src/contracts/USDCExchange.sol:USDCExchange",
        "label": "treasury",
        "offset": 0,
        "slot": "155",
        "type": "t_address"
      }
    ],
    "types": {
      "t_address": {
        "encoding": "inplace",
        "label": "address",
        "numberOfBytes": "20"
      },
      "t_array(t_uint256)49_storage": {
        "base": "t_uint256",
        "encoding": "inplace",
        "label": "uint256[49]",
        "numberOfBytes": "1568"
      },
      "t_array(t_uint256)50_storage": {
        "base": "t_uint256",
        "encoding": "inplace",
        "label": "uint256[50]",
        "numberOfBytes": "1600"
      },
      "t_bool": {
        "encoding": "inplace",
        "label": "bool",
        "numberOfBytes": "1"
      },
      "t_contract(IERC20)5479": {
        "encoding": "inplace",
        "label": "contract IERC20",
        "numberOfBytes": "20"
      },
      "t_contract(IStablecoin)9273": {
        "encoding": "inplace",
        "label": "contract IStablecoin",
        "numberOfBytes": "20"
      },
      "t_uint256": {
        "encoding": "inplace",
        "label": "uint256",
        "numberOfBytes": "32"
      }
    }
  }
}