{
  "address": "0xD08030c510aeAAB6BE2dC5CedFC9C1d94ce6eE7C",
  "abi": [
    {
      "inputs": [
        {
          "internalType": "address",
          "name": "wavax",
          "type": "address"
        }
      ],
      "stateMutability": "nonpayable",
      "type": "constructor"
    },
    {
      "anonymous": false,
      "inputs": [
        {
          "indexed": true,
          "internalType": "address",
          "name": "previousOwner",
          "type": "address"
        },
        {
          "indexed": true,
          "internalType": "address",
          "name": "newOwner",
          "type": "address"
        }
      ],
      "name": "OwnershipTransferred",
      "type": "event"
    },
    {
      "inputs": [
        {
          "internalType": "address",
          "name": "vault",
          "type": "address"
        }
      ],
      "name": "authorizeVault",
      "outputs": [],
      "stateMutability": "nonpayable",
      "type": "function"
    },
    {
      "inputs": [
        {
          "internalType": "address",
          "name": "vault",
          "type": "address"
        },
        {
          "internalType": "uint256",
          "name": "vaultID",
          "type": "uint256"
        }
      ],
      "name": "depositAVAX",
      "outputs": [],
      "stateMutability": "payable",
      "type": "function"
    },
    {
      "inputs": [],
      "name": "owner",
      "outputs": [
        {
          "internalType": "address",
          "name": "",
          "type": "address"
        }
      ],
      "stateMutability": "view",
      "type": "function"
    },
    {
      "inputs": [],
      "name": "renounceOwnership",
      "outputs": [],
      "stateMutability": "nonpayable",
      "type": "function"
    },
    {
      "inputs": [
        {
          "internalType": "address",
          "name": "newOwner",
          "type": "address"
        }
      ],
      "name": "transferOwnership",
      "outputs": [],
      "stateMutability": "nonpayable",
      "type": "function"
    },
    {
      "inputs": [
        {
          "internalType": "address",
          "name": "vault",
          "type": "address"
        },
        {
          "internalType": "uint256",
          "name": "vaultID",
          "type": "uint256"
        },
        {
          "internalType": "uint256",
          "name": "amount",
          "type": "uint256"
        }
      ],
      "name": "withdrawAVAX",
      "outputs": [],
      "stateMutability": "payable",
      "type": "function"
    },
    {
      "stateMutability": "payable",
      "type": "receive"
    }
  ],
  "transactionHash": "0xa57c3dd1c57cfa8897dedce80fbe5fa984520bf5d73dfa7616e78876c41223e3",
  "args": [
    "0xd00ae08403B9bbb9124bB305C09058E32C39A48c"
  ],
  "solcInputHash": "ffcd295886a67014ba1511a3a0bca8d1",
  "bytecode": "0x60a060405234801561001057600080fd5b50604051610b77380380610b7783398101604081905261002f916100c1565b61003833610071565b6001600160a01b03811661005c57634e487b7160e01b600052600160045260246000fd5b60601b6001600160601b0319166080526100ef565b600080546001600160a01b038381166001600160a01b0319831681178455604051919092169283917f8be0079c531659141344cd1fd0a4f28419497f9722a3daafe3b4186f6b6457e09190a35050565b6000602082840312156100d2578081fd5b81516001600160a01b03811681146100e8578182fd5b9392505050565b60805160601c610a5c61011b600039600081816102230152818161043d015261076e0152610a5c6000f3fe6080604052600436106100695760003560e01c80639cd33824116100435780639cd33824146100d8578063e4aabe91146100eb578063f2fde38b146100fe57600080fd5b8063715018a6146100755780638da5cb5b1461008c57806397268a18146100b857600080fd5b3661007057005b600080fd5b34801561008157600080fd5b5061008a61011e565b005b34801561009857600080fd5b50600054604080516001600160a01b039092168252519081900360200190f35b3480156100c457600080fd5b5061008a6100d3366004610953565b610189565b61008a6100e6366004610992565b6102a3565b61008a6100f93660046109bd565b61052f565b34801561010a57600080fd5b5061008a610119366004610953565b610809565b6000546001600160a01b0316331461017d5760405162461bcd60e51b815260206004820181905260248201527f4f776e61626c653a2063616c6c6572206973206e6f7420746865206f776e657260448201526064015b60405180910390fd5b61018760006108eb565b565b6000546001600160a01b031633146101e35760405162461bcd60e51b815260206004820181905260248201527f4f776e61626c653a2063616c6c6572206973206e6f7420746865206f776e65726044820152606401610174565b6040517f095ea7b30000000000000000000000000000000000000000000000000000000081526001600160a01b03828116600483015260001960248301527f0000000000000000000000000000000000000000000000000000000000000000169063095ea7b390604401602060405180830381600087803b15801561026757600080fd5b505af115801561027b573d6000803e3d6000fd5b505050506040513d601f19601f8201168201806040525081019061029f91906109f1565b5050565b60405163a525323d60e01b815260048101829052819083906001600160a01b0382169063a525323d9060240160206040518083038186803b1580156102e757600080fd5b505afa1580156102fb573d6000803e3d6000fd5b505050506040513d601f19601f8201168201806040525081019061031f91906109f1565b61036b5760405162461bcd60e51b815260206004820152601460248201527f5661756c7420646f6573206e6f742065786973740000000000000000000000006044820152606401610174565b6040516331a9108f60e11b81526004810183905233906001600160a01b03831690636352211e9060240160206040518083038186803b1580156103ad57600080fd5b505afa1580156103c1573d6000803e3d6000fd5b505050506040513d601f19601f820116820180604052508101906103e59190610976565b6001600160a01b03161461043b5760405162461bcd60e51b815260206004820152601960248201527f5661756c74206973206e6f74206f776e656420627920796f75000000000000006044820152606401610174565b7f00000000000000000000000000000000000000000000000000000000000000006001600160a01b031663d0e30db0346040518263ffffffff1660e01b81526004016000604051808303818588803b15801561049657600080fd5b505af11580156104aa573d6000803e3d6000fd5b50506040517fece13732000000000000000000000000000000000000000000000000000000008152600481018790523460248201526001600160a01b038816935063ece1373292506044019050600060405180830381600087803b15801561051157600080fd5b505af1158015610525573d6000803e3d6000fd5b5050505050505050565b60405163a525323d60e01b815260048101839052829084906001600160a01b0382169063a525323d9060240160206040518083038186803b15801561057357600080fd5b505afa158015610587573d6000803e3d6000fd5b505050506040513d601f19601f820116820180604052508101906105ab91906109f1565b6105f75760405162461bcd60e51b815260206004820152601460248201527f5661756c7420646f6573206e6f742065786973740000000000000000000000006044820152606401610174565b6040516331a9108f60e11b81526004810183905233906001600160a01b03831690636352211e9060240160206040518083038186803b15801561063957600080fd5b505afa15801561064d573d6000803e3d6000fd5b505050506040513d601f19601f820116820180604052508101906106719190610976565b6001600160a01b0316146106c75760405162461bcd60e51b815260206004820152601960248201527f5661756c74206973206e6f74206f776e656420627920796f75000000000000006044820152606401610174565b6040517f767a7b0500000000000000000000000000000000000000000000000000000000815260048101859052602481018490526001600160a01b0386169063767a7b0590604401600060405180830381600087803b15801561072957600080fd5b505af115801561073d573d6000803e3d6000fd5b50506040517f2e1a7d4d000000000000000000000000000000000000000000000000000000008152600481018690527f00000000000000000000000000000000000000000000000000000000000000006001600160a01b03169250632e1a7d4d9150602401600060405180830381600087803b1580156107bc57600080fd5b505af11580156107d0573d6000803e3d6000fd5b505060405133925085156108fc02915085906000818181858888f19350505050158015610801573d6000803e3d6000fd5b505050505050565b6000546001600160a01b031633146108635760405162461bcd60e51b815260206004820181905260248201527f4f776e61626c653a2063616c6c6572206973206e6f7420746865206f776e65726044820152606401610174565b6001600160a01b0381166108df5760405162461bcd60e51b815260206004820152602660248201527f4f776e61626c653a206e6577206f776e657220697320746865207a65726f206160448201527f64647265737300000000000000000000000000000000000000000000000000006064820152608401610174565b6108e8816108eb565b50565b600080546001600160a01b038381167fffffffffffffffffffffffff0000000000000000000000000000000000000000831681178455604051919092169283917f8be0079c531659141344cd1fd0a4f28419497f9722a3daafe3b4186f6b6457e09190a35050565b600060208284031215610964578081fd5b813561096f81610a11565b9392505050565b600060208284031215610987578081fd5b815161096f81610a11565b600080604083850312156109a4578081fd5b82356109af81610a11565b946020939093013593505050565b6000806000606084860312156109d1578081fd5b83356109dc81610a11565b95602085013595506040909401359392505050565b600060208284031215610a02578081fd5b8151801515811461096f578182fd5b6001600160a01b03811681146108e857600080fdfea26469706673582212208b7f3f98bc4c0314065774c1872b557b691fcde05750600875e5df4cdf80727e64736f6c63430008040033",
  "devdoc": {
    "kind": "dev",
    "methods": {
      "authorizeVault(address)": {
        "details": "Gives permission to the vault to spend gateway's WAVAX"
      },
      "depositAVAX(address,uint256)": {
        "details": "deposits WAVAX into the vault, using native AVAX."
      },
      "owner()": {
        "details": "Returns the address of the current owner."
      },
      "renounceOwnership()": {
        "details": "Leaves the contract without owner. It will not be possible to call `onlyOwner` functions anymore. Can only be called by the current owner. NOTE: Renouncing ownership will leave the contract without an owner, thereby removing any functionality that is only available to the owner."
      },
      "transferOwnership(address)": {
        "details": "Transfers ownership of the contract to a new account (`newOwner`). Can only be called by the current owner."
      },
      "withdrawAVAX(address,uint256,uint256)": {
        "details": "withdraws AVAX"
      }
    },
    "version": 1
  },
  "userdoc": {
    "kind": "user",
    "methods": {},
    "version": 1
  },
  "storageLayout": {
    "storage": [
      {
        "astId": 3957,
        "contract": "apps/avai/src/contracts/WAVAXGateway.sol:WAVAXGateway",
        "label": "_owner",
        "offset": 0,
        "slot": "0",
        "type": "t_address"
      }
    ],
    "types": {
      "t_address": {
        "encoding": "inplace",
        "label": "address",
        "numberOfBytes": "20"
      }
    }
  }
}