{
  "address": "0xDda3603B5162D73782665883a82aef86cEEFfaaf",
  "abi": [
    {
      "inputs": [
        {
          "internalType": "contract IERC20",
          "name": "_rewardToken",
          "type": "address"
        },
        {
          "internalType": "uint256",
          "name": "_startTimestamp",
          "type": "uint256"
        },
        {
          "internalType": "uint256",
          "name": "_rewardsPerSecond",
          "type": "uint256"
        }
      ],
      "stateMutability": "nonpayable",
      "type": "constructor"
    },
    {
      "anonymous": false,
      "inputs": [
        {
          "indexed": true,
          "internalType": "uint256",
          "name": "oldEndTimestamp",
          "type": "uint256"
        },
        {
          "indexed": true,
          "internalType": "uint256",
          "name": "newEndTimestamp",
          "type": "uint256"
        }
      ],
      "name": "ChangedRewardsEndTimestamp",
      "type": "event"
    },
    {
      "anonymous": false,
      "inputs": [
        {
          "indexed": true,
          "internalType": "uint256",
          "name": "oldRewardsPerSecond",
          "type": "uint256"
        },
        {
          "indexed": true,
          "internalType": "uint256",
          "name": "newRewardsPerSecond",
          "type": "uint256"
        }
      ],
      "name": "ChangedRewardsPerSecond",
      "type": "event"
    },
    {
      "anonymous": false,
      "inputs": [
        {
          "indexed": true,
          "internalType": "address",
          "name": "user",
          "type": "address"
        },
        {
          "indexed": true,
          "internalType": "uint256",
          "name": "pid",
          "type": "uint256"
        },
        {
          "indexed": false,
          "internalType": "uint256",
          "name": "amount",
          "type": "uint256"
        }
      ],
      "name": "Deposit",
      "type": "event"
    },
    {
      "anonymous": false,
      "inputs": [
        {
          "indexed": true,
          "internalType": "address",
          "name": "user",
          "type": "address"
        },
        {
          "indexed": true,
          "internalType": "uint256",
          "name": "pid",
          "type": "uint256"
        },
        {
          "indexed": false,
          "internalType": "uint256",
          "name": "amount",
          "type": "uint256"
        }
      ],
      "name": "EmergencyWithdraw",
      "type": "event"
    },
    {
      "anonymous": false,
      "inputs": [
        {
          "indexed": true,
          "internalType": "address",
          "name": "previousOwner",
          "type": "address"
        },
        {
          "indexed": true,
          "internalType": "address",
          "name": "newOwner",
          "type": "address"
        }
      ],
      "name": "OwnershipTransferred",
      "type": "event"
    },
    {
      "anonymous": false,
      "inputs": [
        {
          "indexed": true,
          "internalType": "uint256",
          "name": "pid",
          "type": "uint256"
        },
        {
          "indexed": true,
          "internalType": "address",
          "name": "token",
          "type": "address"
        },
        {
          "indexed": false,
          "internalType": "uint256",
          "name": "allocPoints",
          "type": "uint256"
        },
        {
          "indexed": false,
          "internalType": "uint256",
          "name": "totalAllocPoints",
          "type": "uint256"
        },
        {
          "indexed": false,
          "internalType": "uint256",
          "name": "rewardStartTimestamp",
          "type": "uint256"
        }
      ],
      "name": "PoolAdded",
      "type": "event"
    },
    {
      "anonymous": false,
      "inputs": [
        {
          "indexed": true,
          "internalType": "uint256",
          "name": "pid",
          "type": "uint256"
        },
        {
          "indexed": false,
          "internalType": "uint256",
          "name": "oldAllocPoints",
          "type": "uint256"
        },
        {
          "indexed": false,
          "internalType": "uint256",
          "name": "newAllocPoints",
          "type": "uint256"
        },
        {
          "indexed": false,
          "internalType": "uint256",
          "name": "newTotalAllocPoints",
          "type": "uint256"
        }
      ],
      "name": "PoolUpdated",
      "type": "event"
    },
    {
      "anonymous": false,
      "inputs": [
        {
          "indexed": true,
          "internalType": "uint256",
          "name": "startTimestamp",
          "type": "uint256"
        }
      ],
      "name": "SetRewardsStartTimestamp",
      "type": "event"
    },
    {
      "anonymous": false,
      "inputs": [
        {
          "indexed": true,
          "internalType": "address",
          "name": "user",
          "type": "address"
        },
        {
          "indexed": true,
          "internalType": "uint256",
          "name": "pid",
          "type": "uint256"
        },
        {
          "indexed": false,
          "internalType": "uint256",
          "name": "amount",
          "type": "uint256"
        }
      ],
      "name": "Withdraw",
      "type": "event"
    },
    {
      "inputs": [
        {
          "internalType": "uint256",
          "name": "allocPoint",
          "type": "uint256"
        },
        {
          "internalType": "address",
          "name": "token",
          "type": "address"
        },
        {
          "internalType": "bool",
          "name": "withUpdate",
          "type": "bool"
        }
      ],
      "name": "add",
      "outputs": [],
      "stateMutability": "nonpayable",
      "type": "function"
    },
    {
      "inputs": [
        {
          "internalType": "uint256",
          "name": "amount",
          "type": "uint256"
        }
      ],
      "name": "addRewardsBalance",
      "outputs": [],
      "stateMutability": "nonpayable",
      "type": "function"
    },
    {
      "inputs": [],
      "name": "addedRemainingBalance",
      "outputs": [
        {
          "internalType": "uint256",
          "name": "",
          "type": "uint256"
        }
      ],
      "stateMutability": "view",
      "type": "function"
    },
    {
      "inputs": [
        {
          "internalType": "uint256",
          "name": "pid",
          "type": "uint256"
        },
        {
          "internalType": "uint256",
          "name": "amount",
          "type": "uint256"
        }
      ],
      "name": "deposit",
      "outputs": [],
      "stateMutability": "nonpayable",
      "type": "function"
    },
    {
      "inputs": [
        {
          "internalType": "uint256",
          "name": "pid",
          "type": "uint256"
        }
      ],
      "name": "emergencyWithdraw",
      "outputs": [],
      "stateMutability": "nonpayable",
      "type": "function"
    },
    {
      "inputs": [],
      "name": "endTimestamp",
      "outputs": [
        {
          "internalType": "uint256",
          "name": "",
          "type": "uint256"
        }
      ],
      "stateMutability": "view",
      "type": "function"
    },
    {
      "inputs": [
        {
          "internalType": "uint256",
          "name": "from",
          "type": "uint256"
        },
        {
          "internalType": "uint256",
          "name": "to",
          "type": "uint256"
        }
      ],
      "name": "getMultiplier",
      "outputs": [
        {
          "internalType": "uint256",
          "name": "",
          "type": "uint256"
        }
      ],
      "stateMutability": "view",
      "type": "function"
    },
    {
      "inputs": [],
      "name": "massUpdatePools",
      "outputs": [],
      "stateMutability": "nonpayable",
      "type": "function"
    },
    {
      "inputs": [],
      "name": "owner",
      "outputs": [
        {
          "internalType": "address",
          "name": "",
          "type": "address"
        }
      ],
      "stateMutability": "view",
      "type": "function"
    },
    {
      "inputs": [
        {
          "internalType": "uint256",
          "name": "pid",
          "type": "uint256"
        },
        {
          "internalType": "address",
          "name": "account",
          "type": "address"
        }
      ],
      "name": "pendingRewards",
      "outputs": [
        {
          "internalType": "uint256",
          "name": "",
          "type": "uint256"
        }
      ],
      "stateMutability": "view",
      "type": "function"
    },
    {
      "inputs": [
        {
          "internalType": "uint256",
          "name": "",
          "type": "uint256"
        }
      ],
      "name": "poolInfo",
      "outputs": [
        {
          "internalType": "contract IERC20",
          "name": "token",
          "type": "address"
        },
        {
          "internalType": "uint256",
          "name": "allocPoint",
          "type": "uint256"
        },
        {
          "internalType": "uint256",
          "name": "lastRewardTimestamp",
          "type": "uint256"
        },
        {
          "internalType": "uint256",
          "name": "accRewardsPerShare",
          "type": "uint256"
        },
        {
          "internalType": "uint256",
          "name": "totalStaked",
          "type": "uint256"
        }
      ],
      "stateMutability": "view",
      "type": "function"
    },
    {
      "inputs": [],
      "name": "poolLength",
      "outputs": [
        {
          "internalType": "uint256",
          "name": "",
          "type": "uint256"
        }
      ],
      "stateMutability": "view",
      "type": "function"
    },
    {
      "inputs": [],
      "name": "renounceOwnership",
      "outputs": [],
      "stateMutability": "nonpayable",
      "type": "function"
    },
    {
      "inputs": [],
      "name": "rewardToken",
      "outputs": [
        {
          "internalType": "contract IERC20",
          "name": "",
          "type": "address"
        }
      ],
      "stateMutability": "view",
      "type": "function"
    },
    {
      "inputs": [],
      "name": "rewardsActive",
      "outputs": [
        {
          "internalType": "bool",
          "name": "",
          "type": "bool"
        }
      ],
      "stateMutability": "view",
      "type": "function"
    },
    {
      "inputs": [],
      "name": "rewardsPerSecond",
      "outputs": [
        {
          "internalType": "uint256",
          "name": "",
          "type": "uint256"
        }
      ],
      "stateMutability": "view",
      "type": "function"
    },
    {
      "inputs": [
        {
          "internalType": "uint256",
          "name": "pid",
          "type": "uint256"
        },
        {
          "internalType": "uint256",
          "name": "allocPoint",
          "type": "uint256"
        },
        {
          "internalType": "bool",
          "name": "withUpdate",
          "type": "bool"
        }
      ],
      "name": "set",
      "outputs": [],
      "stateMutability": "nonpayable",
      "type": "function"
    },
    {
      "inputs": [
        {
          "internalType": "uint256",
          "name": "newRewardsPerSecond",
          "type": "uint256"
        }
      ],
      "name": "setRewardsPerSecond",
      "outputs": [],
      "stateMutability": "nonpayable",
      "type": "function"
    },
    {
      "inputs": [],
      "name": "startTimestamp",
      "outputs": [
        {
          "internalType": "uint256",
          "name": "",
          "type": "uint256"
        }
      ],
      "stateMutability": "view",
      "type": "function"
    },
    {
      "inputs": [],
      "name": "totalAllocPoint",
      "outputs": [
        {
          "internalType": "uint256",
          "name": "",
          "type": "uint256"
        }
      ],
      "stateMutability": "view",
      "type": "function"
    },
    {
      "inputs": [
        {
          "internalType": "address",
          "name": "newOwner",
          "type": "address"
        }
      ],
      "name": "transferOwnership",
      "outputs": [],
      "stateMutability": "nonpayable",
      "type": "function"
    },
    {
      "inputs": [
        {
          "internalType": "uint256",
          "name": "pid",
          "type": "uint256"
        }
      ],
      "name": "updatePool",
      "outputs": [],
      "stateMutability": "nonpayable",
      "type": "function"
    },
    {
      "inputs": [
        {
          "internalType": "uint256",
          "name": "",
          "type": "uint256"
        },
        {
          "internalType": "address",
          "name": "",
          "type": "address"
        }
      ],
      "name": "userInfo",
      "outputs": [
        {
          "internalType": "uint256",
          "name": "amount",
          "type": "uint256"
        },
        {
          "internalType": "uint256",
          "name": "rewardTokenDebt",
          "type": "uint256"
        }
      ],
      "stateMutability": "view",
      "type": "function"
    },
    {
      "inputs": [
        {
          "internalType": "uint256",
          "name": "pid",
          "type": "uint256"
        },
        {
          "internalType": "uint256",
          "name": "amount",
          "type": "uint256"
        }
      ],
      "name": "withdraw",
      "outputs": [],
      "stateMutability": "nonpayable",
      "type": "function"
    }
  ],
  "transactionHash": "0x314802011b391bc48bf9a4958b527e4dbcde717658e68e3b9cc0a8b560c04043",
  "args": [
    "0xb3308FD93936e5EFb9A1F2C6a513DEf68175Cb5d",
    1634861228,
    "10000000000000000"
  ],
  "solcInputHash": "300a07ce21e1d101c8647add3ce36a9f",
  "bytecode": "0x60a06040523480156200001157600080fd5b5060405162001d9038038062001d90833981016040819052620000349162000122565b8282826200004233620000d2565b60018055811562000054578162000056565b425b60078190556040517f457596c4aedbe8a498e6b9a94fa90cbba7bd432ddba1f7e75e85bcf5e363917190600090a2600281905560405181906000907f6c5ac63fafcfaaa35808336a9aef07619736abe0349beeb783a3a8ab67936c81908290a3505060601b6001600160601b0319166080525062000165915050565b600080546001600160a01b038381166001600160a01b0319831681178455604051919092169283917f8be0079c531659141344cd1fd0a4f28419497f9722a3daafe3b4186f6b6457e09190a35050565b60008060006060848603121562000137578283fd5b83516001600160a01b03811681146200014e578384fd5b602085015160409095015190969495509392505050565b60805160601c611be9620001a76000396000818161039201528181610c3a01528181611104015281816115e70152818161168001526116b40152611be96000f3fe608060405234801561001057600080fd5b50600436106101985760003560e01c80638dbb1e3a116100e3578063d18df53c1161008c578063eacdaabc11610066578063eacdaabc14610371578063f2fde38b1461037a578063f7c618c11461038d57600080fd5b8063d18df53c14610342578063e2bbb15814610355578063e6fd48bc1461036857600080fd5b8063a85adeab116100bd578063a85adeab14610313578063b1de8fdc1461031c578063cbeb09aa1461032f57600080fd5b80638dbb1e3a146102a157806393f1a40b146102b4578063a519121a146102fb57600080fd5b80635312ea8e11610145578063715018a61161011f578063715018a61461026b57806377f2f55b146102735780638da5cb5b1461027c57600080fd5b80635312ea8e1461023d578063630b5ba11461025057806364482f791461025857600080fd5b80631eaaa045116101765780631eaaa04514610202578063441a3e701461021757806351eb05a61461022a57600080fd5b8063081e3eda1461019d5780631526fe27146101b457806317caf6f1146101f9575b600080fd5b6004545b6040519081526020015b60405180910390f35b6101c76101c23660046119a3565b6103b4565b604080516001600160a01b0390961686526020860194909452928401919091526060830152608082015260a0016101ab565b6101a160065481565b6102156102103660046119fe565b6103ff565b005b610215610225366004611a3d565b61062a565b6102156102383660046119a3565b610756565b61021561024b3660046119a3565b61082b565b610215610958565b610215610266366004611a5e565b610981565b610215610af7565b6101a160035481565b6000546001600160a01b03165b6040516001600160a01b0390911681526020016101ab565b6101a16102af366004611a3d565b610b5d565b6102e66102c23660046119d3565b60056020908152600092835260408084209091529082529020805460019091015482565b604080519283526020830191909152016101ab565b610303610b97565b60405190151581526020016101ab565b6101a160085481565b61021561032a3660046119a3565b610bcb565b61021561033d3660046119a3565b610c82565b6101a16103503660046119d3565b610d20565b610215610363366004611a3d565b610e68565b6101a160075481565b6101a160025481565b61021561038836600461196d565b610f1a565b6102897f000000000000000000000000000000000000000000000000000000000000000081565b600481815481106103c457600080fd5b6000918252602090912060059091020180546001820154600283015460038401546004909401546001600160a01b0390931694509092909185565b6000546001600160a01b0316331461045e5760405162461bcd60e51b815260206004820181905260248201527f4f776e61626c653a2063616c6c6572206973206e6f7420746865206f776e657260448201526064015b60405180910390fd5b801561046c5761046c610958565b6000600754421161047f57600754610481565b425b90506006546000141561049657610496610ff9565b836006546104a49190611ada565b6006556040805160a0810182526001600160a01b03858116808352602083018881529383018581526000606085018181526080860182815260048054600180820183559482905297517f8a35acfbc15ff81a39ae7d344fd709f28e8600b4aa8c65c6b64bfe7fe36bd19b6005909902988901805473ffffffffffffffffffffffffffffffffffffffff1916919098161790965596517f8a35acfbc15ff81a39ae7d344fd709f28e8600b4aa8c65c6b64bfe7fe36bd19c87015591517f8a35acfbc15ff81a39ae7d344fd709f28e8600b4aa8c65c6b64bfe7fe36bd19d86015590517f8a35acfbc15ff81a39ae7d344fd709f28e8600b4aa8c65c6b64bfe7fe36bd19e85015593517f8a35acfbc15ff81a39ae7d344fd709f28e8600b4aa8c65c6b64bfe7fe36bd19f909301929092555490916105df91611b31565b60065460408051888152602081019290925281018490527fdcad60f82308d160bd8a3814cf84788a2c98294718485b86d238d14cbf166dab906060015b60405180910390a350505050565b6002600154141561067d5760405162461bcd60e51b815260206004820152601f60248201527f5265656e7472616e637947756172643a207265656e7472616e742063616c6c006044820152606401610455565b6002600155806106f55760405162461bcd60e51b815260206004820152602760248201527f506f644c65616465723a3a77697468647261773a20616d6f756e74206d75737460448201527f206265203e2030000000000000000000000000000000000000000000000000006064820152608401610455565b60006004838154811061071857634e487b7160e01b600052603260045260246000fd5b6000918252602080832086845260058083526040808620338752909352919093209102909101915061074c848484846111ee565b5050600180555050565b60006004828154811061077957634e487b7160e01b600052603260045260246000fd5b9060005260206000209060050201905080600201544211610798575050565b6004810154806107ad57504260029091015550565b60006107bd836002015442610b5d565b905060006006548460010154600254846107d79190611b12565b6107e19190611b12565b6107eb9190611af2565b9050826107fd8264e8d4a51000611b12565b6108079190611af2565b84600301546108169190611ada565b60038501555050426002909201919091555050565b6002600154141561087e5760405162461bcd60e51b815260206004820152601f60248201527f5265656e7472616e637947756172643a207265656e7472616e742063616c6c006044820152606401610455565b60026001819055506000600482815481106108a957634e487b7160e01b600052603260045260246000fd5b60009182526020808320858452600580835260408086203387529093529190932080549290910290920192501561094f57805460048301546108eb9190611b31565b60048301558054825461090b916001600160a01b0390911690339061136c565b8054604051908152839033907fbb757047c2b5f3974fe26b7c10f732e7bce710b0952a71082702781e62ae05959060200160405180910390a3600080825560018201555b50506001805550565b60005b60045481101561097e5761096e81610756565b61097781611b74565b905061095b565b50565b6000546001600160a01b031633146109db5760405162461bcd60e51b815260206004820181905260248201527f4f776e61626c653a2063616c6c6572206973206e6f7420746865206f776e65726044820152606401610455565b80156109e9576109e9610958565b8160048481548110610a0b57634e487b7160e01b600052603260045260246000fd5b906000526020600020906005020160010154600654610a2a9190611b31565b610a349190611ada565b600681905550827fb0a2ded49817748754bcca0474b24011f01d4574dd5c40e14197ffa2e6540fef60048581548110610a7d57634e487b7160e01b600052603260045260246000fd5b90600052602060002090600502016001015484600654604051610ab3939291909283526020830191909152604082015260600190565b60405180910390a28160048481548110610add57634e487b7160e01b600052603260045260246000fd5b906000526020600020906005020160010181905550505050565b6000546001600160a01b03163314610b515760405162461bcd60e51b815260206004820181905260248201527f4f776e61626c653a2063616c6c6572206973206e6f7420746865206f776e65726044820152606401610455565b610b5b6000611415565b565b6000806008548311610b6f5782610b73565b6008545b9050838111610b83576000610b8d565b610b8d8482611b31565b9150505b92915050565b60006007544210158015610bad57506008544211155b8015610bbb57506000600654115b610bc55750600090565b50600190565b6000546001600160a01b03163314610c255760405162461bcd60e51b815260206004820181905260248201527f4f776e61626c653a2063616c6c6572206973206e6f7420746865206f776e65726044820152606401610455565b610c2d610958565b610c626001600160a01b037f000000000000000000000000000000000000000000000000000000000000000016333084611472565b8060036000828254610c749190611ada565b9091555061097e9050610ff9565b6000546001600160a01b03163314610cdc5760405162461bcd60e51b815260206004820181905260248201527f4f776e61626c653a2063616c6c6572206973206e6f7420746865206f776e65726044820152606401610455565b610ce4610958565b6002546040518291907f6c5ac63fafcfaaa35808336a9aef07619736abe0349beeb783a3a8ab67936c8190600090a3600281905561097e610ff9565b60008060048481548110610d4457634e487b7160e01b600052603260045260246000fd5b60009182526020808320878452600580835260408086206001600160a01b038a168752909352919093209102909101600381015460048201546002830154929450909142118015610d9457508015155b8015610da1575060065415155b15610e0f576000610db6856002015442610b5d565b90506000600654866001015460025484610dd09190611b12565b610dda9190611b12565b610de49190611af2565b905082610df68264e8d4a51000611b12565b610e009190611af2565b610e0a9085611ada565b935050505b600064e8d4a51000838560000154610e279190611b12565b610e319190611af2565b90508360010154811015610e4d57600095505050505050610b91565b6001840154610e5c9082611b31565b98975050505050505050565b60026001541415610ebb5760405162461bcd60e51b815260206004820152601f60248201527f5265656e7472616e637947756172643a207265656e7472616e742063616c6c006044820152606401610455565b6002600181905550600060048381548110610ee657634e487b7160e01b600052603260045260246000fd5b6000918252602080832086845260058083526040808620338752909352919093209102909101915061074c848484846114c9565b6000546001600160a01b03163314610f745760405162461bcd60e51b815260206004820181905260248201527f4f776e61626c653a2063616c6c6572206973206e6f7420746865206f776e65726044820152606401610455565b6001600160a01b038116610ff05760405162461bcd60e51b815260206004820152602660248201527f4f776e61626c653a206e6577206f776e657220697320746865207a65726f206160448201527f64647265737300000000000000000000000000000000000000000000000000006064820152608401610455565b61097e81611415565b60025415610b5b57600060075442101561101557600754611017565b425b90506000805b6004548110156110dd5760006110656004838154811061104d57634e487b7160e01b600052603260045260246000fd5b90600052602060002090600502016002015442610b5d565b90506006546004838154811061108b57634e487b7160e01b600052603260045260246000fd5b906000526020600020906005020160010154600254836110ab9190611b12565b6110b59190611b12565b6110bf9190611af2565b6110c99084611ada565b925050806110d690611b74565b905061101d565b506002546040516370a0823160e01b81523060048201526000919083906001600160a01b037f000000000000000000000000000000000000000000000000000000000000000016906370a082319060240160206040518083038186803b15801561114657600080fd5b505afa15801561115a573d6000803e3d6000fd5b505050506040513d601f19601f8201168201806040525081019061117e91906119bb565b6111889190611b31565b6111929190611af2565b61119c9084611ada565b905082811180156111af57506008548114155b156111e9576008546040518291907fc27995de4b73bfe8fa8c957b4ae89e3113185c3d9e2c6e3bf680ce10708218e590600090a360088190555b505050565b80548311156112655760405162461bcd60e51b815260206004820152602b60248201527f506f644c65616465723a3a5f77697468647261773a20616d6f756e74203e207560448201527f7365722062616c616e63650000000000000000000000000000000000000000006064820152608401610455565b61126e84610756565b6000816001015464e8d4a510008460030154846000015461128f9190611b12565b6112999190611af2565b6112a39190611b31565b82549091506112b3908590611b31565b808355600384015464e8d4a51000916112cc9190611b12565b6112d69190611af2565b600183015580156113035780600360008282546112f39190611b31565b90915550611303905033826115cf565b8383600401546113139190611b31565b6004840155825461132e906001600160a01b0316338661136c565b604051848152859033907ff279e6a1f5e320cca91135676d9cb6e44ca8a08c0b88342bcdb1144f6511b5689060200160405180910390a35050505050565b6040516001600160a01b0383166024820152604481018290526111e99084907fa9059cbb00000000000000000000000000000000000000000000000000000000906064015b60408051601f198184030181529190526020810180517bffffffffffffffffffffffffffffffffffffffffffffffffffffffff167fffffffff00000000000000000000000000000000000000000000000000000000909316929092179091526116db565b600080546001600160a01b0383811673ffffffffffffffffffffffffffffffffffffffff19831681178455604051919092169283917f8be0079c531659141344cd1fd0a4f28419497f9722a3daafe3b4186f6b6457e09190a35050565b6040516001600160a01b03808516602483015283166044820152606481018290526114c39085907f23b872dd00000000000000000000000000000000000000000000000000000000906084016113b1565b50505050565b6114d284610756565b80541561153a576000816001015464e8d4a51000846003015484600001546114fa9190611b12565b6115049190611af2565b61150e9190611b31565b905080156115385780600360008282546115289190611b31565b90915550611538905033826115cf565b505b8154611551906001600160a01b0316333086611472565b8282600401546115619190611ada565b60048301558054611573908490611ada565b808255600383015464e8d4a510009161158c9190611b12565b6115969190611af2565b6001820155604051838152849033907f90890809c654f11d6e72a28fa60149770a0d11ec6c92319d6ceb2bb0a4ea1a159060200161061c565b6040516370a0823160e01b81523060048201526000907f00000000000000000000000000000000000000000000000000000000000000006001600160a01b0316906370a082319060240160206040518083038186803b15801561163157600080fd5b505afa158015611645573d6000803e3d6000fd5b505050506040513d601f19601f8201168201806040525081019061166991906119bb565b9050808211156116a7576111e96001600160a01b037f000000000000000000000000000000000000000000000000000000000000000016848361136c565b6111e96001600160a01b037f000000000000000000000000000000000000000000000000000000000000000016848461136c565b6000611730826040518060400160405280602081526020017f5361666545524332303a206c6f772d6c6576656c2063616c6c206661696c6564815250856001600160a01b03166117c09092919063ffffffff16565b8051909150156111e9578080602001905181019061174e9190611987565b6111e95760405162461bcd60e51b815260206004820152602a60248201527f5361666545524332303a204552433230206f7065726174696f6e20646964206e60448201527f6f742073756363656564000000000000000000000000000000000000000000006064820152608401610455565b60606117cf84846000856117d9565b90505b9392505050565b6060824710156118515760405162461bcd60e51b815260206004820152602660248201527f416464726573733a20696e73756666696369656e742062616c616e636520666f60448201527f722063616c6c00000000000000000000000000000000000000000000000000006064820152608401610455565b843b61189f5760405162461bcd60e51b815260206004820152601d60248201527f416464726573733a2063616c6c20746f206e6f6e2d636f6e74726163740000006044820152606401610455565b600080866001600160a01b031685876040516118bb9190611a8b565b60006040518083038185875af1925050503d80600081146118f8576040519150601f19603f3d011682016040523d82523d6000602084013e6118fd565b606091505b509150915061190d828286611918565b979650505050505050565b606083156119275750816117d2565b8251156119375782518084602001fd5b8160405162461bcd60e51b81526004016104559190611aa7565b80356001600160a01b038116811461196857600080fd5b919050565b60006020828403121561197e578081fd5b6117d282611951565b600060208284031215611998578081fd5b81516117d281611ba5565b6000602082840312156119b4578081fd5b5035919050565b6000602082840312156119cc578081fd5b5051919050565b600080604083850312156119e5578081fd5b823591506119f560208401611951565b90509250929050565b600080600060608486031215611a12578081fd5b83359250611a2260208501611951565b91506040840135611a3281611ba5565b809150509250925092565b60008060408385031215611a4f578182fd5b50508035926020909101359150565b600080600060608486031215611a72578283fd5b83359250602084013591506040840135611a3281611ba5565b60008251611a9d818460208701611b48565b9190910192915050565b6020815260008251806020840152611ac6816040850160208701611b48565b601f01601f19169190910160400192915050565b60008219821115611aed57611aed611b8f565b500190565b600082611b0d57634e487b7160e01b81526012600452602481fd5b500490565b6000816000190483118215151615611b2c57611b2c611b8f565b500290565b600082821015611b4357611b43611b8f565b500390565b60005b83811015611b63578181015183820152602001611b4b565b838111156114c35750506000910152565b6000600019821415611b8857611b88611b8f565b5060010190565b634e487b7160e01b600052601160045260246000fd5b801515811461097e57600080fdfea26469706673582212206b5986df69f05154b67c5a4bcf5eb0261e2c74161f0aa47167910ae21bb0d4a664736f6c63430008040033",
  "devdoc": {
    "kind": "dev",
    "methods": {
      "add(uint256,address,bool)": {
        "details": "Can only be called by the owner.",
        "params": {
          "allocPoint": "Number of allocation points to allot to this token/pool",
          "token": "The token that will be staked for rewards",
          "withUpdate": "if specified, update all pools before adding new pool"
        }
      },
      "addRewardsBalance(uint256)": {
        "details": "Can only be called by the owner"
      },
      "deposit(uint256,uint256)": {
        "params": {
          "amount": "number of tokens to deposit",
          "pid": "pool id"
        }
      },
      "emergencyWithdraw(uint256)": {
        "params": {
          "pid": "pool id"
        }
      },
      "getMultiplier(uint256,uint256)": {
        "params": {
          "from": "From timestamp",
          "to": "To timestamp"
        },
        "returns": {
          "_0": "multiplier"
        }
      },
      "massUpdatePools()": {
        "details": "Be careful of gas spending!"
      },
      "owner()": {
        "details": "Returns the address of the current owner."
      },
      "pendingRewards(uint256,address)": {
        "params": {
          "account": "user account to check",
          "pid": "pool id"
        },
        "returns": {
          "_0": "pending rewards"
        }
      },
      "poolLength()": {
        "returns": {
          "_0": "pool length"
        }
      },
      "renounceOwnership()": {
        "details": "Leaves the contract without owner. It will not be possible to call `onlyOwner` functions anymore. Can only be called by the current owner. NOTE: Renouncing ownership will leave the contract without an owner, thereby removing any functionality that is only available to the owner."
      },
      "set(uint256,uint256,bool)": {
        "details": "Can only be called by the owner",
        "params": {
          "allocPoint": "New number of allocation points for pool",
          "pid": "The RewardManager pool id",
          "withUpdate": "if specified, update all pools before setting allocation points"
        }
      },
      "setRewardsPerSecond(uint256)": {
        "details": "Can only be called by the owner",
        "params": {
          "newRewardsPerSecond": "new amount of rewards to reward each second"
        }
      },
      "transferOwnership(address)": {
        "details": "Transfers ownership of the contract to a new account (`newOwner`). Can only be called by the current owner."
      },
      "updatePool(uint256)": {
        "params": {
          "pid": "pool id"
        }
      },
      "withdraw(uint256,uint256)": {
        "params": {
          "amount": "number of tokens to withdraw",
          "pid": "pool id"
        }
      }
    },
    "version": 1
  },
  "userdoc": {
    "events": {
      "ChangedRewardsEndTimestamp(uint256,uint256)": {
        "notice": "Event emitted when the rewards end timestamp is updated"
      },
      "ChangedRewardsPerSecond(uint256,uint256)": {
        "notice": "Event emitted when the amount of reward tokens per seconds is updated"
      },
      "Deposit(address,uint256,uint256)": {
        "notice": "Event emitted when a user deposits funds in the rewards manager"
      },
      "EmergencyWithdraw(address,uint256,uint256)": {
        "notice": "Event emitted when a user withdraws their original funds from the rewards manager without claiming rewards"
      },
      "PoolAdded(uint256,address,uint256,uint256,uint256)": {
        "notice": "Event emitted when new pool is added to the rewards manager"
      },
      "PoolUpdated(uint256,uint256,uint256,uint256)": {
        "notice": "Event emitted when pool allocation points are updated"
      },
      "SetRewardsStartTimestamp(uint256)": {
        "notice": "Event emitted when the rewards start timestamp is set"
      },
      "Withdraw(address,uint256,uint256)": {
        "notice": "Event emitted when a user withdraws their original funds + rewards from the rewards manager"
      }
    },
    "kind": "user",
    "methods": {
      "add(uint256,address,bool)": {
        "notice": "Add a new reward token to the pool"
      },
      "addRewardsBalance(uint256)": {
        "notice": "Add rewards to contract"
      },
      "addedRemainingBalance()": {
        "notice": "Added token balance remaining"
      },
      "deposit(uint256,uint256)": {
        "notice": "Deposit tokens to PodLeader for rewards allocation."
      },
      "emergencyWithdraw(uint256)": {
        "notice": "Withdraw without caring about rewards. EMERGENCY ONLY."
      },
      "endTimestamp()": {
        "notice": "The timestamp when rewards end."
      },
      "getMultiplier(uint256,uint256)": {
        "notice": "Return reward multiplier over the given from to to timestamp."
      },
      "massUpdatePools()": {
        "notice": "Update reward variables for all pools"
      },
      "pendingRewards(uint256,address)": {
        "notice": "View function to see pending rewards on frontend."
      },
      "poolInfo(uint256)": {
        "notice": "Info of each pool."
      },
      "poolLength()": {
        "notice": "View function to see current poolInfo array length"
      },
      "rewardsActive()": {
        "notice": "Returns true if rewards are actively being accumulated"
      },
      "rewardsPerSecond()": {
        "notice": "Rewards rewarded per second"
      },
      "set(uint256,uint256,bool)": {
        "notice": "Update the given pool's allocation points"
      },
      "setRewardsPerSecond(uint256)": {
        "notice": "Set new rewards per second"
      },
      "startTimestamp()": {
        "notice": "The timestamp when rewards start."
      },
      "totalAllocPoint()": {
        "notice": "Total allocation points. Must be the sum of all allocation points in all pools."
      },
      "updatePool(uint256)": {
        "notice": "Update reward variables of the given pool to be up-to-date"
      },
      "userInfo(uint256,address)": {
        "notice": "Info of each user that stakes tokens"
      },
      "withdraw(uint256,uint256)": {
        "notice": "Withdraw tokens from PodLeader, claiming rewards."
      }
    },
    "version": 1
  },
  "storageLayout": {
    "storage": [
      {
        "astId": 4266,
        "contract": "apps/avai/src/contracts/Partner/Storm.sol:StormSingleStaking",
        "label": "_owner",
        "offset": 0,
        "slot": "0",
        "type": "t_address"
      },
      {
        "astId": 4866,
        "contract": "apps/avai/src/contracts/Partner/Storm.sol:StormSingleStaking",
        "label": "_status",
        "offset": 0,
        "slot": "1",
        "type": "t_uint256"
      },
      {
        "astId": 13184,
        "contract": "apps/avai/src/contracts/Partner/Storm.sol:StormSingleStaking",
        "label": "rewardsPerSecond",
        "offset": 0,
        "slot": "2",
        "type": "t_uint256"
      },
      {
        "astId": 13187,
        "contract": "apps/avai/src/contracts/Partner/Storm.sol:StormSingleStaking",
        "label": "addedRemainingBalance",
        "offset": 0,
        "slot": "3",
        "type": "t_uint256"
      },
      {
        "astId": 13192,
        "contract": "apps/avai/src/contracts/Partner/Storm.sol:StormSingleStaking",
        "label": "poolInfo",
        "offset": 0,
        "slot": "4",
        "type": "t_array(t_struct(PoolInfo)13178_storage)dyn_storage"
      },
      {
        "astId": 13200,
        "contract": "apps/avai/src/contracts/Partner/Storm.sol:StormSingleStaking",
        "label": "userInfo",
        "offset": 0,
        "slot": "5",
        "type": "t_mapping(t_uint256,t_mapping(t_address,t_struct(UserInfo)13166_storage))"
      },
      {
        "astId": 13203,
        "contract": "apps/avai/src/contracts/Partner/Storm.sol:StormSingleStaking",
        "label": "totalAllocPoint",
        "offset": 0,
        "slot": "6",
        "type": "t_uint256"
      },
      {
        "astId": 13206,
        "contract": "apps/avai/src/contracts/Partner/Storm.sol:StormSingleStaking",
        "label": "startTimestamp",
        "offset": 0,
        "slot": "7",
        "type": "t_uint256"
      },
      {
        "astId": 13209,
        "contract": "apps/avai/src/contracts/Partner/Storm.sol:StormSingleStaking",
        "label": "endTimestamp",
        "offset": 0,
        "slot": "8",
        "type": "t_uint256"
      }
    ],
    "types": {
      "t_address": {
        "encoding": "inplace",
        "label": "address",
        "numberOfBytes": "20"
      },
      "t_array(t_struct(PoolInfo)13178_storage)dyn_storage": {
        "base": "t_struct(PoolInfo)13178_storage",
        "encoding": "dynamic_array",
        "label": "struct SingleStaking.PoolInfo[]",
        "numberOfBytes": "32"
      },
      "t_contract(IERC20)5519": {
        "encoding": "inplace",
        "label": "contract IERC20",
        "numberOfBytes": "20"
      },
      "t_mapping(t_address,t_struct(UserInfo)13166_storage)": {
        "encoding": "mapping",
        "key": "t_address",
        "label": "mapping(address => struct SingleStaking.UserInfo)",
        "numberOfBytes": "32",
        "value": "t_struct(UserInfo)13166_storage"
      },
      "t_mapping(t_uint256,t_mapping(t_address,t_struct(UserInfo)13166_storage))": {
        "encoding": "mapping",
        "key": "t_uint256",
        "label": "mapping(uint256 => mapping(address => struct SingleStaking.UserInfo))",
        "numberOfBytes": "32",
        "value": "t_mapping(t_address,t_struct(UserInfo)13166_storage)"
      },
      "t_struct(PoolInfo)13178_storage": {
        "encoding": "inplace",
        "label": "struct SingleStaking.PoolInfo",
        "members": [
          {
            "astId": 13169,
            "contract": "apps/avai/src/contracts/Partner/Storm.sol:StormSingleStaking",
            "label": "token",
            "offset": 0,
            "slot": "0",
            "type": "t_contract(IERC20)5519"
          },
          {
            "astId": 13171,
            "contract": "apps/avai/src/contracts/Partner/Storm.sol:StormSingleStaking",
            "label": "allocPoint",
            "offset": 0,
            "slot": "1",
            "type": "t_uint256"
          },
          {
            "astId": 13173,
            "contract": "apps/avai/src/contracts/Partner/Storm.sol:StormSingleStaking",
            "label": "lastRewardTimestamp",
            "offset": 0,
            "slot": "2",
            "type": "t_uint256"
          },
          {
            "astId": 13175,
            "contract": "apps/avai/src/contracts/Partner/Storm.sol:StormSingleStaking",
            "label": "accRewardsPerShare",
            "offset": 0,
            "slot": "3",
            "type": "t_uint256"
          },
          {
            "astId": 13177,
            "contract": "apps/avai/src/contracts/Partner/Storm.sol:StormSingleStaking",
            "label": "totalStaked",
            "offset": 0,
            "slot": "4",
            "type": "t_uint256"
          }
        ],
        "numberOfBytes": "160"
      },
      "t_struct(UserInfo)13166_storage": {
        "encoding": "inplace",
        "label": "struct SingleStaking.UserInfo",
        "members": [
          {
            "astId": 13163,
            "contract": "apps/avai/src/contracts/Partner/Storm.sol:StormSingleStaking",
            "label": "amount",
            "offset": 0,
            "slot": "0",
            "type": "t_uint256"
          },
          {
            "astId": 13165,
            "contract": "apps/avai/src/contracts/Partner/Storm.sol:StormSingleStaking",
            "label": "rewardTokenDebt",
            "offset": 0,
            "slot": "1",
            "type": "t_uint256"
          }
        ],
        "numberOfBytes": "64"
      },
      "t_uint256": {
        "encoding": "inplace",
        "label": "uint256",
        "numberOfBytes": "32"
      }
    }
  }
}