{
  "address": "0x17DEbF29B98292ABd47Ac18bdD394308FcF74361",
  "abi": [
    {
      "anonymous": false,
      "inputs": [
        {
          "indexed": true,
          "internalType": "address",
          "name": "owner",
          "type": "address"
        },
        {
          "indexed": true,
          "internalType": "address",
          "name": "spender",
          "type": "address"
        },
        {
          "indexed": false,
          "internalType": "uint256",
          "name": "value",
          "type": "uint256"
        }
      ],
      "name": "Approval",
      "type": "event"
    },
    {
      "anonymous": false,
      "inputs": [
        {
          "indexed": false,
          "internalType": "address",
          "name": "token",
          "type": "address"
        },
        {
          "indexed": false,
          "internalType": "uint256",
          "name": "minimumCollateralPercentage",
          "type": "uint256"
        },
        {
          "indexed": false,
          "internalType": "address",
          "name": "priceSource",
          "type": "address"
        },
        {
          "indexed": false,
          "internalType": "string",
          "name": "name",
          "type": "string"
        },
        {
          "indexed": false,
          "internalType": "address",
          "name": "bank",
          "type": "address"
        }
      ],
      "name": "CreateVaultType",
      "type": "event"
    },
    {
      "anonymous": false,
      "inputs": [
        {
          "indexed": true,
          "internalType": "address",
          "name": "previousOwner",
          "type": "address"
        },
        {
          "indexed": true,
          "internalType": "address",
          "name": "newOwner",
          "type": "address"
        }
      ],
      "name": "OwnershipTransferred",
      "type": "event"
    },
    {
      "anonymous": false,
      "inputs": [
        {
          "indexed": false,
          "internalType": "address",
          "name": "account",
          "type": "address"
        }
      ],
      "name": "Paused",
      "type": "event"
    },
    {
      "anonymous": false,
      "inputs": [
        {
          "indexed": true,
          "internalType": "bytes32",
          "name": "role",
          "type": "bytes32"
        },
        {
          "indexed": true,
          "internalType": "bytes32",
          "name": "previousAdminRole",
          "type": "bytes32"
        },
        {
          "indexed": true,
          "internalType": "bytes32",
          "name": "newAdminRole",
          "type": "bytes32"
        }
      ],
      "name": "RoleAdminChanged",
      "type": "event"
    },
    {
      "anonymous": false,
      "inputs": [
        {
          "indexed": true,
          "internalType": "bytes32",
          "name": "role",
          "type": "bytes32"
        },
        {
          "indexed": true,
          "internalType": "address",
          "name": "account",
          "type": "address"
        },
        {
          "indexed": true,
          "internalType": "address",
          "name": "sender",
          "type": "address"
        }
      ],
      "name": "RoleGranted",
      "type": "event"
    },
    {
      "anonymous": false,
      "inputs": [
        {
          "indexed": true,
          "internalType": "bytes32",
          "name": "role",
          "type": "bytes32"
        },
        {
          "indexed": true,
          "internalType": "address",
          "name": "account",
          "type": "address"
        },
        {
          "indexed": true,
          "internalType": "address",
          "name": "sender",
          "type": "address"
        }
      ],
      "name": "RoleRevoked",
      "type": "event"
    },
    {
      "anonymous": false,
      "inputs": [
        {
          "indexed": true,
          "internalType": "address",
          "name": "from",
          "type": "address"
        },
        {
          "indexed": true,
          "internalType": "address",
          "name": "to",
          "type": "address"
        },
        {
          "indexed": false,
          "internalType": "uint256",
          "name": "value",
          "type": "uint256"
        }
      ],
      "name": "Transfer",
      "type": "event"
    },
    {
      "anonymous": false,
      "inputs": [
        {
          "indexed": false,
          "internalType": "address",
          "name": "account",
          "type": "address"
        }
      ],
      "name": "Unpaused",
      "type": "event"
    },
    {
      "anonymous": false,
      "inputs": [
        {
          "indexed": true,
          "internalType": "address",
          "name": "childImplementation",
          "type": "address"
        }
      ],
      "name": "Upgraded",
      "type": "event"
    },
    {
      "inputs": [],
      "name": "BURNER_ROLE",
      "outputs": [
        {
          "internalType": "bytes32",
          "name": "",
          "type": "bytes32"
        }
      ],
      "stateMutability": "view",
      "type": "function"
    },
    {
      "inputs": [],
      "name": "DEFAULT_ADMIN_ROLE",
      "outputs": [
        {
          "internalType": "bytes32",
          "name": "",
          "type": "bytes32"
        }
      ],
      "stateMutability": "view",
      "type": "function"
    },
    {
      "inputs": [],
      "name": "DOMAIN_SEPARATOR",
      "outputs": [
        {
          "internalType": "bytes32",
          "name": "",
          "type": "bytes32"
        }
      ],
      "stateMutability": "view",
      "type": "function"
    },
    {
      "inputs": [],
      "name": "MINTER_ROLE",
      "outputs": [
        {
          "internalType": "bytes32",
          "name": "",
          "type": "bytes32"
        }
      ],
      "stateMutability": "view",
      "type": "function"
    },
    {
      "inputs": [],
      "name": "PAUSER_ROLE",
      "outputs": [
        {
          "internalType": "bytes32",
          "name": "",
          "type": "bytes32"
        }
      ],
      "stateMutability": "view",
      "type": "function"
    },
    {
      "inputs": [
        {
          "internalType": "uint256",
          "name": "minimumCollateralPercentage_",
          "type": "uint256"
        },
        {
          "internalType": "address",
          "name": "priceSource_",
          "type": "address"
        },
        {
          "internalType": "string",
          "name": "name_",
          "type": "string"
        },
        {
          "internalType": "string",
          "name": "symbol_",
          "type": "string"
        },
        {
          "internalType": "address",
          "name": "token_",
          "type": "address"
        }
      ],
      "name": "addBank",
      "outputs": [],
      "stateMutability": "nonpayable",
      "type": "function"
    },
    {
      "inputs": [
        {
          "internalType": "address",
          "name": "owner",
          "type": "address"
        },
        {
          "internalType": "address",
          "name": "spender",
          "type": "address"
        }
      ],
      "name": "allowance",
      "outputs": [
        {
          "internalType": "uint256",
          "name": "",
          "type": "uint256"
        }
      ],
      "stateMutability": "view",
      "type": "function"
    },
    {
      "inputs": [
        {
          "internalType": "address",
          "name": "spender",
          "type": "address"
        },
        {
          "internalType": "uint256",
          "name": "amount",
          "type": "uint256"
        }
      ],
      "name": "approve",
      "outputs": [
        {
          "internalType": "bool",
          "name": "",
          "type": "bool"
        }
      ],
      "stateMutability": "nonpayable",
      "type": "function"
    },
    {
      "inputs": [
        {
          "internalType": "address",
          "name": "account",
          "type": "address"
        }
      ],
      "name": "balanceOf",
      "outputs": [
        {
          "internalType": "uint256",
          "name": "",
          "type": "uint256"
        }
      ],
      "stateMutability": "view",
      "type": "function"
    },
    {
      "inputs": [],
      "name": "bankCount",
      "outputs": [
        {
          "internalType": "uint256",
          "name": "",
          "type": "uint256"
        }
      ],
      "stateMutability": "view",
      "type": "function"
    },
    {
      "inputs": [
        {
          "internalType": "uint256",
          "name": "",
          "type": "uint256"
        }
      ],
      "name": "banks",
      "outputs": [
        {
          "internalType": "address",
          "name": "",
          "type": "address"
        }
      ],
      "stateMutability": "view",
      "type": "function"
    },
    {
      "inputs": [
        {
          "internalType": "address",
          "name": "from",
          "type": "address"
        },
        {
          "internalType": "uint256",
          "name": "amount",
          "type": "uint256"
        }
      ],
      "name": "burn",
      "outputs": [],
      "stateMutability": "nonpayable",
      "type": "function"
    },
    {
      "inputs": [],
      "name": "decimals",
      "outputs": [
        {
          "internalType": "uint8",
          "name": "",
          "type": "uint8"
        }
      ],
      "stateMutability": "view",
      "type": "function"
    },
    {
      "inputs": [
        {
          "internalType": "address",
          "name": "spender",
          "type": "address"
        },
        {
          "internalType": "uint256",
          "name": "subtractedValue",
          "type": "uint256"
        }
      ],
      "name": "decreaseAllowance",
      "outputs": [
        {
          "internalType": "bool",
          "name": "",
          "type": "bool"
        }
      ],
      "stateMutability": "nonpayable",
      "type": "function"
    },
    {
      "inputs": [
        {
          "internalType": "bytes32",
          "name": "role",
          "type": "bytes32"
        }
      ],
      "name": "getRoleAdmin",
      "outputs": [
        {
          "internalType": "bytes32",
          "name": "",
          "type": "bytes32"
        }
      ],
      "stateMutability": "view",
      "type": "function"
    },
    {
      "inputs": [
        {
          "internalType": "bytes32",
          "name": "role",
          "type": "bytes32"
        },
        {
          "internalType": "uint256",
          "name": "index",
          "type": "uint256"
        }
      ],
      "name": "getRoleMember",
      "outputs": [
        {
          "internalType": "address",
          "name": "",
          "type": "address"
        }
      ],
      "stateMutability": "view",
      "type": "function"
    },
    {
      "inputs": [
        {
          "internalType": "bytes32",
          "name": "role",
          "type": "bytes32"
        }
      ],
      "name": "getRoleMemberCount",
      "outputs": [
        {
          "internalType": "uint256",
          "name": "",
          "type": "uint256"
        }
      ],
      "stateMutability": "view",
      "type": "function"
    },
    {
      "inputs": [
        {
          "internalType": "bytes32",
          "name": "role",
          "type": "bytes32"
        },
        {
          "internalType": "address",
          "name": "account",
          "type": "address"
        }
      ],
      "name": "grantRole",
      "outputs": [],
      "stateMutability": "nonpayable",
      "type": "function"
    },
    {
      "inputs": [
        {
          "internalType": "bytes32",
          "name": "role",
          "type": "bytes32"
        },
        {
          "internalType": "address",
          "name": "account",
          "type": "address"
        }
      ],
      "name": "hasRole",
      "outputs": [
        {
          "internalType": "bool",
          "name": "",
          "type": "bool"
        }
      ],
      "stateMutability": "view",
      "type": "function"
    },
    {
      "inputs": [],
      "name": "implementation",
      "outputs": [
        {
          "internalType": "address",
          "name": "",
          "type": "address"
        }
      ],
      "stateMutability": "view",
      "type": "function"
    },
    {
      "inputs": [
        {
          "internalType": "address",
          "name": "spender",
          "type": "address"
        },
        {
          "internalType": "uint256",
          "name": "addedValue",
          "type": "uint256"
        }
      ],
      "name": "increaseAllowance",
      "outputs": [
        {
          "internalType": "bool",
          "name": "",
          "type": "bool"
        }
      ],
      "stateMutability": "nonpayable",
      "type": "function"
    },
    {
      "inputs": [
        {
          "internalType": "string",
          "name": "name",
          "type": "string"
        },
        {
          "internalType": "address",
          "name": "vault_",
          "type": "address"
        }
      ],
      "name": "initialize",
      "outputs": [],
      "stateMutability": "nonpayable",
      "type": "function"
    },
    {
      "inputs": [
        {
          "internalType": "address",
          "name": "account",
          "type": "address"
        },
        {
          "internalType": "uint256",
          "name": "amount",
          "type": "uint256"
        }
      ],
      "name": "mint",
      "outputs": [],
      "stateMutability": "nonpayable",
      "type": "function"
    },
    {
      "inputs": [],
      "name": "name",
      "outputs": [
        {
          "internalType": "string",
          "name": "",
          "type": "string"
        }
      ],
      "stateMutability": "view",
      "type": "function"
    },
    {
      "inputs": [
        {
          "internalType": "address",
          "name": "owner",
          "type": "address"
        }
      ],
      "name": "nonces",
      "outputs": [
        {
          "internalType": "uint256",
          "name": "",
          "type": "uint256"
        }
      ],
      "stateMutability": "view",
      "type": "function"
    },
    {
      "inputs": [],
      "name": "owner",
      "outputs": [
        {
          "internalType": "address",
          "name": "",
          "type": "address"
        }
      ],
      "stateMutability": "view",
      "type": "function"
    },
    {
      "inputs": [],
      "name": "pause",
      "outputs": [],
      "stateMutability": "nonpayable",
      "type": "function"
    },
    {
      "inputs": [],
      "name": "paused",
      "outputs": [
        {
          "internalType": "bool",
          "name": "",
          "type": "bool"
        }
      ],
      "stateMutability": "view",
      "type": "function"
    },
    {
      "inputs": [
        {
          "internalType": "address",
          "name": "owner",
          "type": "address"
        },
        {
          "internalType": "address",
          "name": "spender",
          "type": "address"
        },
        {
          "internalType": "uint256",
          "name": "value",
          "type": "uint256"
        },
        {
          "internalType": "uint256",
          "name": "deadline",
          "type": "uint256"
        },
        {
          "internalType": "uint8",
          "name": "v",
          "type": "uint8"
        },
        {
          "internalType": "bytes32",
          "name": "r",
          "type": "bytes32"
        },
        {
          "internalType": "bytes32",
          "name": "s",
          "type": "bytes32"
        }
      ],
      "name": "permit",
      "outputs": [],
      "stateMutability": "nonpayable",
      "type": "function"
    },
    {
      "inputs": [],
      "name": "renounceOwnership",
      "outputs": [],
      "stateMutability": "nonpayable",
      "type": "function"
    },
    {
      "inputs": [
        {
          "internalType": "bytes32",
          "name": "role",
          "type": "bytes32"
        },
        {
          "internalType": "address",
          "name": "account",
          "type": "address"
        }
      ],
      "name": "renounceRole",
      "outputs": [],
      "stateMutability": "nonpayable",
      "type": "function"
    },
    {
      "inputs": [
        {
          "internalType": "bytes32",
          "name": "role",
          "type": "bytes32"
        },
        {
          "internalType": "address",
          "name": "account",
          "type": "address"
        }
      ],
      "name": "revokeRole",
      "outputs": [],
      "stateMutability": "nonpayable",
      "type": "function"
    },
    {
      "inputs": [
        {
          "internalType": "uint256",
          "name": "bankID",
          "type": "uint256"
        },
        {
          "internalType": "uint256",
          "name": "amount",
          "type": "uint256"
        }
      ],
      "name": "setClosingFee",
      "outputs": [],
      "stateMutability": "nonpayable",
      "type": "function"
    },
    {
      "inputs": [
        {
          "internalType": "uint256",
          "name": "bankID",
          "type": "uint256"
        },
        {
          "internalType": "uint256",
          "name": "debtCeiling_",
          "type": "uint256"
        }
      ],
      "name": "setDebtCeiling",
      "outputs": [],
      "stateMutability": "nonpayable",
      "type": "function"
    },
    {
      "inputs": [
        {
          "internalType": "uint256",
          "name": "bankID",
          "type": "uint256"
        },
        {
          "internalType": "uint256",
          "name": "debtRatio_",
          "type": "uint256"
        }
      ],
      "name": "setDebtRatio",
      "outputs": [],
      "stateMutability": "nonpayable",
      "type": "function"
    },
    {
      "inputs": [
        {
          "internalType": "uint256",
          "name": "bankID",
          "type": "uint256"
        },
        {
          "internalType": "uint256",
          "name": "gainRatio_",
          "type": "uint256"
        }
      ],
      "name": "setGainRatio",
      "outputs": [],
      "stateMutability": "nonpayable",
      "type": "function"
    },
    {
      "inputs": [
        {
          "internalType": "uint256",
          "name": "bankID",
          "type": "uint256"
        },
        {
          "internalType": "address",
          "name": "gateway_",
          "type": "address"
        }
      ],
      "name": "setGateway",
      "outputs": [],
      "stateMutability": "nonpayable",
      "type": "function"
    },
    {
      "inputs": [
        {
          "internalType": "uint256",
          "name": "bankID",
          "type": "uint256"
        },
        {
          "internalType": "uint256",
          "name": "minimumDebt_",
          "type": "uint256"
        }
      ],
      "name": "setMinimumDebt",
      "outputs": [],
      "stateMutability": "nonpayable",
      "type": "function"
    },
    {
      "inputs": [
        {
          "internalType": "uint256",
          "name": "bankID",
          "type": "uint256"
        },
        {
          "internalType": "bool",
          "name": "paused_",
          "type": "bool"
        }
      ],
      "name": "setMintingPaused",
      "outputs": [],
      "stateMutability": "nonpayable",
      "type": "function"
    },
    {
      "inputs": [
        {
          "internalType": "uint256",
          "name": "bankID",
          "type": "uint256"
        },
        {
          "internalType": "uint256",
          "name": "amount",
          "type": "uint256"
        }
      ],
      "name": "setOpeningFee",
      "outputs": [],
      "stateMutability": "nonpayable",
      "type": "function"
    },
    {
      "inputs": [
        {
          "internalType": "uint256",
          "name": "bankID",
          "type": "uint256"
        },
        {
          "internalType": "address",
          "name": "priceSource_",
          "type": "address"
        }
      ],
      "name": "setPriceSource",
      "outputs": [],
      "stateMutability": "nonpayable",
      "type": "function"
    },
    {
      "inputs": [
        {
          "internalType": "uint256",
          "name": "bankID",
          "type": "uint256"
        },
        {
          "internalType": "address",
          "name": "stabilityPool_",
          "type": "address"
        }
      ],
      "name": "setStabilityPool",
      "outputs": [],
      "stateMutability": "nonpayable",
      "type": "function"
    },
    {
      "inputs": [
        {
          "internalType": "uint256",
          "name": "bankID",
          "type": "uint256"
        },
        {
          "internalType": "uint256",
          "name": "tokenPeg_",
          "type": "uint256"
        }
      ],
      "name": "setTokenPeg",
      "outputs": [],
      "stateMutability": "nonpayable",
      "type": "function"
    },
    {
      "inputs": [
        {
          "internalType": "uint256",
          "name": "bankID",
          "type": "uint256"
        },
        {
          "internalType": "uint256",
          "name": "treasury_",
          "type": "uint256"
        }
      ],
      "name": "setTreasury",
      "outputs": [],
      "stateMutability": "nonpayable",
      "type": "function"
    },
    {
      "inputs": [
        {
          "internalType": "bytes4",
          "name": "interfaceId",
          "type": "bytes4"
        }
      ],
      "name": "supportsInterface",
      "outputs": [
        {
          "internalType": "bool",
          "name": "",
          "type": "bool"
        }
      ],
      "stateMutability": "view",
      "type": "function"
    },
    {
      "inputs": [],
      "name": "symbol",
      "outputs": [
        {
          "internalType": "string",
          "name": "",
          "type": "string"
        }
      ],
      "stateMutability": "view",
      "type": "function"
    },
    {
      "inputs": [],
      "name": "totalSupply",
      "outputs": [
        {
          "internalType": "uint256",
          "name": "",
          "type": "uint256"
        }
      ],
      "stateMutability": "view",
      "type": "function"
    },
    {
      "inputs": [
        {
          "internalType": "address",
          "name": "recipient",
          "type": "address"
        },
        {
          "internalType": "uint256",
          "name": "amount",
          "type": "uint256"
        }
      ],
      "name": "transfer",
      "outputs": [
        {
          "internalType": "bool",
          "name": "",
          "type": "bool"
        }
      ],
      "stateMutability": "nonpayable",
      "type": "function"
    },
    {
      "inputs": [
        {
          "internalType": "address",
          "name": "sender",
          "type": "address"
        },
        {
          "internalType": "address",
          "name": "recipient",
          "type": "address"
        },
        {
          "internalType": "uint256",
          "name": "amount",
          "type": "uint256"
        }
      ],
      "name": "transferFrom",
      "outputs": [
        {
          "internalType": "bool",
          "name": "",
          "type": "bool"
        }
      ],
      "stateMutability": "nonpayable",
      "type": "function"
    },
    {
      "inputs": [
        {
          "internalType": "address",
          "name": "newOwner",
          "type": "address"
        }
      ],
      "name": "transferOwnership",
      "outputs": [],
      "stateMutability": "nonpayable",
      "type": "function"
    },
    {
      "inputs": [],
      "name": "unpause",
      "outputs": [],
      "stateMutability": "nonpayable",
      "type": "function"
    },
    {
      "inputs": [
        {
          "internalType": "address",
          "name": "newImplementation",
          "type": "address"
        }
      ],
      "name": "upgradeToNewBank",
      "outputs": [],
      "stateMutability": "nonpayable",
      "type": "function"
    }
  ],
  "transactionHash": "0x85f38a9df22434276b0a50f931f0d6b2fe0a406e327dae8e3a8d6566aaa91057",
  "args": [],
  "solcInputHash": "e65cbe848c2817d709a372c0939817ba",
  "bytecode": "0x608060405234801561001057600080fd5b506145ab806100206000396000f3fe60806040523480156200001157600080fd5b5060043610620003905760003560e01c8063715018a611620001e1578063a4f06731116200010d578063d539139311620000af578063e3fb645b1162000086578063e3fb645b146200083c578063e63ab1e91462000853578063f2fde38b146200087b578063f879eb57146200089257600080fd5b8063d539139314620007c1578063d547741f14620007e9578063dd62ed3e146200080057600080fd5b8063ca15c87311620000e4578063ca15c873146200077c578063ca19b65b1462000793578063d505accf14620007aa57600080fd5b8063a4f067311462000737578063a9059cbb146200074e578063c0b7c711146200076557600080fd5b806391d148541162000183578063a04f5528116200015a578063a04f552814620006e9578063a217fddf1462000700578063a31e77e61462000709578063a457c2d7146200072057600080fd5b806391d14854146200068b57806395d89b4114620006c85780639dc29fac14620006d257600080fd5b80638456cb5911620001b85780638456cb5914620006575780638da5cb5b14620006615780639010d07c146200067457600080fd5b8063715018a6146200061f5780637ab4339d14620006295780637ecebe00146200064057600080fd5b8063313ce56711620002c15780634d27734311620002635780635c60da1b116200023a5780635c60da1b14620005bd5780635c975abb14620005d05780635ceb35c114620005dc57806370a0823114620005f357600080fd5b80634d27734314620005785780634dc43eaf146200058f57806355afa79114620005a657600080fd5b80633950935111620002985780633950935114620005405780633f4ba83a146200055757806340c10f19146200056157600080fd5b8063313ce567146200050f5780633644e515146200051f57806336568abe146200052957600080fd5b806318160ddd116200033757806323b872dd116200030e57806323b872dd1462000492578063248a9ca314620004a9578063282c51f314620004d05780632f2ff15d14620004f857600080fd5b806318160ddd14620004515780631ca8fba81462000464578063201383d5146200047b57600080fd5b80630578c990116200036c5780630578c990146200040a57806306fdde031462000421578063095ea7b3146200043a57600080fd5b806285ae2b146200039557806301ffc9a714620003c9578063048da0bb14620003f1575b600080fd5b620003ac620003a636600462003659565b6200089c565b6040516001600160a01b0390911681526020015b60405180910390f35b620003e0620003da366004620036b9565b620008c8565b6040519015158152602001620003c0565b6200040862000402366004620037bb565b62000962565b005b620004086200041b3660046200385e565b62000b22565b6200042b62000bdc565b604051620003c09190620039e5565b620003e06200044b3660046200362d565b62000c76565b6035545b604051908152602001620003c0565b620004086200047536600462003697565b62000c8e565b620004086200048c36600462003697565b62000d13565b620003e0620004a336600462003576565b62000d98565b62000455620004ba36600462003659565b6000908152610130602052604090206001015490565b620004557f3c11d16cbaffd01df69ce1c404f6340ee057498f5f00246190ea54220576a84881565b620004086200050936600462003672565b62000e61565b60405160128152602001620003c0565b6200045562000e8d565b620004086200053a36600462003672565b62000e9e565b620003e0620005513660046200362d565b62000ec5565b6200040862000f05565b62000408620005723660046200362d565b62000f3f565b620004086200058936600462003672565b62000f78565b62000408620005a036600462003697565b62000ffe565b62000408620005b736600462003697565b62001083565b610194546001600160a01b0316620003ac565b60cc5460ff16620003e0565b62000408620005ed36600462003697565b62001108565b620004556200060436600462003522565b6001600160a01b031660009081526033602052604090205490565b620004086200118d565b620004086200063a366004620036fb565b620011f8565b620004556200065136600462003522565b62001375565b6200040862001394565b610162546001600160a01b0316620003ac565b620003ac6200068536600462003697565b620013cb565b620003e06200069c36600462003672565b6000918252610130602090815260408084206001600160a01b0393909316845291905290205460ff1690565b6200042b620013ed565b62000408620006e33660046200362d565b620013fe565b62000408620006fa36600462003522565b62001437565b62000455600081565b620004086200071a36600462003697565b620014d6565b620003e0620007313660046200362d565b6200155b565b620004086200074836600462003697565b62001610565b620003e06200075f3660046200362d565b62001695565b620004086200077636600462003672565b620016a4565b620004556200078d36600462003659565b6200172a565b62000408620007a436600462003672565b62001744565b62000408620007bb366004620035b6565b620017ca565b620004557f9f2df0fed2c77648de5860a4cc508cd0818c85b8b8a1ab4ceeef8d981c8956a681565b62000408620007fa36600462003672565b6200191c565b62000455620008113660046200353f565b6001600160a01b03918216600090815260346020908152604080832093909416825291909152205490565b620004086200084d36600462003697565b62001928565b620004557f65d7a28e3265b37a6474929f336521b332c1681b933f6cb9f3376673440d862a81565b620004086200088c36600462003522565b620019ad565b6101955462000455565b6101958181548110620008ae57600080fd5b6000918252602090912001546001600160a01b0316905081565b60007fffffffff0000000000000000000000000000000000000000000000000000000082167f7965db0b0000000000000000000000000000000000000000000000000000000014806200095c57507f01ffc9a7000000000000000000000000000000000000000000000000000000007fffffffff000000000000000000000000000000000000000000000000000000008316145b92915050565b600062000970813362001a93565b60003089898989898989604051602401620009929796959493929190620039fa565b60408051601f198184030181529181526020820180517bffffffffffffffffffffffffffffffffffffffffffffffffffffffff167f41a5068f0000000000000000000000000000000000000000000000000000000017905251620009f69062003407565b62000a039291906200396f565b604051809103906000f08015801562000a20573d6000803e3d6000fd5b5061019580546001810182556000919091527f54034dca961b61bc2a3147cc0c1986762915b42723ed64155364f17a2e29677001805473ffffffffffffffffffffffffffffffffffffffff19166001600160a01b038316179055905062000aa87f3c11d16cbaffd01df69ce1c404f6340ee057498f5f00246190ea54220576a8488262001b21565b62000ad47f9f2df0fed2c77648de5860a4cc508cd0818c85b8b8a1ab4ceeef8d981c8956a68262001b21565b7f63406c8dc33de82d8b10ddfaf0472cd0a4fe3e7be511e776480ebdb7360904db838a8a8a8a8660405162000b0f969594939291906200399b565b60405180910390a1505050505050505050565b600062000b30813362001a93565b610195838154811062000b5357634e487b7160e01b600052603260045260246000fd5b6000918252602090912001546040517fad13419d00000000000000000000000000000000000000000000000000000000815283151560048201526001600160a01b039091169063ad13419d906024015b600060405180830381600087803b15801562000bbe57600080fd5b505af115801562000bd3573d6000803e3d6000fd5b50505050505050565b60606036805462000bed9062003af3565b80601f016020809104026020016040519081016040528092919081815260200182805462000c1b9062003af3565b801562000c6c5780601f1062000c405761010080835404028352916020019162000c6c565b820191906000526020600020905b81548152906001019060200180831162000c4e57829003601f168201915b5050505050905090565b600062000c8533848462001b2d565b50600192915050565b600062000c9c813362001a93565b610195838154811062000cbf57634e487b7160e01b600052603260045260246000fd5b6000918252602090912001546040517f0a998f53000000000000000000000000000000000000000000000000000000008152600481018490526001600160a01b0390911690630a998f539060240162000ba3565b600062000d21813362001a93565b610195838154811062000d4457634e487b7160e01b600052603260045260246000fd5b6000918252602090912001546040517f3db99177000000000000000000000000000000000000000000000000000000008152600481018490526001600160a01b0390911690633db991779060240162000ba3565b600062000da784848462001c89565b6001600160a01b03841660009081526034602090815260408083203384529091529020548281101562000e475760405162461bcd60e51b815260206004820152602860248201527f45524332303a207472616e7366657220616d6f756e742065786365656473206160448201527f6c6c6f77616e636500000000000000000000000000000000000000000000000060648201526084015b60405180910390fd5b62000e56853385840362001b2d565b506001949350505050565b62000e6d828262001eb8565b60008281526101966020526040902062000e88908262001ee3565b505050565b600062000e9962001efa565b905090565b62000eaa828262001f77565b60008281526101966020526040902062000e88908262002003565b3360008181526034602090815260408083206001600160a01b0387168452909152812054909162000c8591859062000eff90869062003a53565b62001b2d565b7f65d7a28e3265b37a6474929f336521b332c1681b933f6cb9f3376673440d862a62000f32813362001a93565b62000f3c6200201a565b50565b7f9f2df0fed2c77648de5860a4cc508cd0818c85b8b8a1ab4ceeef8d981c8956a662000f6c813362001a93565b62000e888383620020b8565b600062000f86813362001a93565b610195838154811062000fa957634e487b7160e01b600052603260045260246000fd5b6000918252602090912001546040517f98d721e00000000000000000000000000000000000000000000000000000000081526001600160a01b038481166004830152909116906398d721e09060240162000ba3565b60006200100c813362001a93565b61019583815481106200102f57634e487b7160e01b600052603260045260246000fd5b6000918252602090912001546040517f7139c929000000000000000000000000000000000000000000000000000000008152600481018490526001600160a01b0390911690637139c9299060240162000ba3565b600062001091813362001a93565b6101958381548110620010b457634e487b7160e01b600052603260045260246000fd5b6000918252602090912001546040517f01e49d0a000000000000000000000000000000000000000000000000000000008152600481018490526001600160a01b03909116906301e49d0a9060240162000ba3565b600062001116813362001a93565b61019583815481106200113957634e487b7160e01b600052603260045260246000fd5b6000918252602090912001546040517feb6a887d000000000000000000000000000000000000000000000000000000008152600481018490526001600160a01b039091169063eb6a887d9060240162000ba3565b610162546001600160a01b03163314620011ea5760405162461bcd60e51b815260206004820181905260248201527f4f776e61626c653a2063616c6c6572206973206e6f7420746865206f776e6572604482015260640162000e3e565b620011f66000620021ab565b565b600054610100900460ff168062001212575060005460ff16155b620012775760405162461bcd60e51b815260206004820152602e60248201527f496e697469616c697a61626c653a20636f6e747261637420697320616c72656160448201526d191e481a5b9a5d1a585b1a5e995960921b606482015260840162000e3e565b600054610100900460ff161580156200129a576000805461ffff19166101011790555b620012a46200220b565b620012ae6200220b565b620012b86200220b565b620012c48384620022c2565b620012ce620023a7565b6200130f836040518060400160405280600181526020017f310000000000000000000000000000000000000000000000000000000000000081525062002468565b6200131a836200253e565b62001325826200261a565b6200133260003362001b21565b6200135e7f65d7a28e3265b37a6474929f336521b332c1681b933f6cb9f3376673440d862a3362001b21565b801562000e88576000805461ff0019169055505050565b6001600160a01b0381166000908152609960205260408120546200095c565b7f65d7a28e3265b37a6474929f336521b332c1681b933f6cb9f3376673440d862a620013c1813362001a93565b62000f3c620026e7565b600082815261019660205260408120620013e6908362002772565b9392505050565b60606037805462000bed9062003af3565b7f3c11d16cbaffd01df69ce1c404f6340ee057498f5f00246190ea54220576a8486200142b813362001a93565b62000e88838362002780565b610162546001600160a01b03163314620014945760405162461bcd60e51b815260206004820181905260248201527f4f776e61626c653a2063616c6c6572206973206e6f7420746865206f776e6572604482015260640162000e3e565b6200149f8162002919565b6040516001600160a01b038216907fbc7cd75a20ee27fd9adebab32041f755214dbc6bffa90cc0225b39da2e5c2d3b90600090a250565b6000620014e4813362001a93565b61019583815481106200150757634e487b7160e01b600052603260045260246000fd5b6000918252602090912001546040517fb1511cc9000000000000000000000000000000000000000000000000000000008152600481018490526001600160a01b039091169063b1511cc99060240162000ba3565b3360009081526034602090815260408083206001600160a01b038616845290915281205482811015620015f75760405162461bcd60e51b815260206004820152602560248201527f45524332303a2064656372656173656420616c6c6f77616e63652062656c6f7760448201527f207a65726f000000000000000000000000000000000000000000000000000000606482015260840162000e3e565b62001606338585840362001b2d565b5060019392505050565b60006200161e813362001a93565b61019583815481106200164157634e487b7160e01b600052603260045260246000fd5b6000918252602090912001546040517fffc73da7000000000000000000000000000000000000000000000000000000008152600481018490526001600160a01b039091169063ffc73da79060240162000ba3565b600062000c8533848462001c89565b6000620016b2813362001a93565b6101958381548110620016d557634e487b7160e01b600052603260045260246000fd5b6000918252602090912001546040517fbda531070000000000000000000000000000000000000000000000000000000081526001600160a01b0384811660048301529091169063bda531079060240162000ba3565b6000818152610196602052604081206200095c90620029bf565b600062001752813362001a93565b61019583815481106200177557634e487b7160e01b600052603260045260246000fd5b6000918252602090912001546040517f90646b4a0000000000000000000000000000000000000000000000000000000081526001600160a01b038481166004830152909116906390646b4a9060240162000ba3565b834211156200181c5760405162461bcd60e51b815260206004820152601d60248201527f45524332305065726d69743a206578706972656420646561646c696e65000000604482015260640162000e3e565b6000609a548888886200182f8c620029ca565b6040805160208101969096526001600160a01b0394851690860152929091166060840152608083015260a082015260c0810186905260e00160405160208183030381529060405280519060200120905060006200188c82620029f2565b905060006200189e8287878762002a5e565b9050896001600160a01b0316816001600160a01b031614620019035760405162461bcd60e51b815260206004820152601e60248201527f45524332305065726d69743a20696e76616c6964207369676e61747572650000604482015260640162000e3e565b620019108a8a8a62001b2d565b50505050505050505050565b62000eaa828262002a8a565b600062001936813362001a93565b61019583815481106200195957634e487b7160e01b600052603260045260246000fd5b6000918252602090912001546040517f86375994000000000000000000000000000000000000000000000000000000008152600481018490526001600160a01b039091169063863759949060240162000ba3565b610162546001600160a01b0316331462001a0a5760405162461bcd60e51b815260206004820181905260248201527f4f776e61626c653a2063616c6c6572206973206e6f7420746865206f776e6572604482015260640162000e3e565b6001600160a01b03811662001a885760405162461bcd60e51b815260206004820152602660248201527f4f776e61626c653a206e6577206f776e657220697320746865207a65726f206160448201527f6464726573730000000000000000000000000000000000000000000000000000606482015260840162000e3e565b62000f3c81620021ab565b6000828152610130602090815260408083206001600160a01b038516845290915290205460ff1662001b1d5762001ad5816001600160a01b0316601462002ab5565b62001ae283602062002ab5565b60405160200162001af5929190620038ea565b60408051601f198184030181529082905262461bcd60e51b825262000e3e91600401620039e5565b5050565b62000e6d828262002cf0565b6001600160a01b03831662001baa5760405162461bcd60e51b8152602060048201526024808201527f45524332303a20617070726f76652066726f6d20746865207a65726f2061646460448201527f7265737300000000000000000000000000000000000000000000000000000000606482015260840162000e3e565b6001600160a01b03821662001c285760405162461bcd60e51b815260206004820152602260248201527f45524332303a20617070726f766520746f20746865207a65726f20616464726560448201527f7373000000000000000000000000000000000000000000000000000000000000606482015260840162000e3e565b6001600160a01b0383811660008181526034602090815260408083209487168084529482529182902085905590518481527f8c5be1e5ebec7d5bd14f71427d1e84f3dd0314c0f7b2291e5b200ac8c7c3b925910160405180910390a3505050565b6001600160a01b03831662001d075760405162461bcd60e51b815260206004820152602560248201527f45524332303a207472616e736665722066726f6d20746865207a65726f20616460448201527f6472657373000000000000000000000000000000000000000000000000000000606482015260840162000e3e565b6001600160a01b03821662001d855760405162461bcd60e51b815260206004820152602360248201527f45524332303a207472616e7366657220746f20746865207a65726f206164647260448201527f6573730000000000000000000000000000000000000000000000000000000000606482015260840162000e3e565b62001d9283838362002cfc565b6001600160a01b0383166000908152603360205260409020548181101562001e235760405162461bcd60e51b815260206004820152602660248201527f45524332303a207472616e7366657220616d6f756e742065786365656473206260448201527f616c616e63650000000000000000000000000000000000000000000000000000606482015260840162000e3e565b6001600160a01b0380851660009081526033602052604080822085850390559185168152908120805484929062001e5c90849062003a53565b92505081905550826001600160a01b0316846001600160a01b03167fddf252ad1be2c89b69c2b068fc378daa952ba7f163c4a11628f55a4df523b3ef8460405162001ea991815260200190565b60405180910390a35b50505050565b6000828152610130602052604090206001015462001ed7813362001a93565b62000e88838362002d77565b6000620013e6836001600160a01b03841662002e1d565b600062000e997f8b73c3c69bb8fe3d512ecc4cf759cc79239f7b179b0ffacaa9a75d522b39400f62001f2b60655490565b6066546040805160208101859052908101839052606081018290524660808201523060a082015260009060c0016040516020818303038152906040528051906020012090509392505050565b6001600160a01b038116331462001ff75760405162461bcd60e51b815260206004820152602f60248201527f416363657373436f6e74726f6c3a2063616e206f6e6c792072656e6f756e636560448201527f20726f6c657320666f722073656c660000000000000000000000000000000000606482015260840162000e3e565b62001b1d828262002e6f565b6000620013e6836001600160a01b03841662002ef5565b60cc5460ff166200206e5760405162461bcd60e51b815260206004820152601460248201527f5061757361626c653a206e6f7420706175736564000000000000000000000000604482015260640162000e3e565b60cc805460ff191690557f5db9ee0a495bf2e6ff9c91a7834c1ba4fdd244a5e8aa4e537bd38aeae4b073aa335b6040516001600160a01b03909116815260200160405180910390a1565b6001600160a01b038216620021105760405162461bcd60e51b815260206004820152601f60248201527f45524332303a206d696e7420746f20746865207a65726f206164647265737300604482015260640162000e3e565b6200211e6000838362002cfc565b806035600082825462002132919062003a53565b90915550506001600160a01b038216600090815260336020526040812080548392906200216190849062003a53565b90915550506040518181526001600160a01b038316906000907fddf252ad1be2c89b69c2b068fc378daa952ba7f163c4a11628f55a4df523b3ef9060200160405180910390a35050565b61016280546001600160a01b0383811673ffffffffffffffffffffffffffffffffffffffff19831681179093556040519116919082907f8be0079c531659141344cd1fd0a4f28419497f9722a3daafe3b4186f6b6457e090600090a35050565b600054610100900460ff168062002225575060005460ff16155b6200228a5760405162461bcd60e51b815260206004820152602e60248201527f496e697469616c697a61626c653a20636f6e747261637420697320616c72656160448201526d191e481a5b9a5d1a585b1a5e995960921b606482015260840162000e3e565b600054610100900460ff16158015620022ad576000805461ffff19166101011790555b801562000f3c576000805461ff001916905550565b600054610100900460ff1680620022dc575060005460ff16155b620023415760405162461bcd60e51b815260206004820152602e60248201527f496e697469616c697a61626c653a20636f6e747261637420697320616c72656160448201526d191e481a5b9a5d1a585b1a5e995960921b606482015260840162000e3e565b600054610100900460ff1615801562002364576000805461ffff19166101011790555b82516200237990603690602086019062003415565b5081516200238f90603790602085019062003415565b50801562000e88576000805461ff0019169055505050565b600054610100900460ff1680620023c1575060005460ff16155b620024265760405162461bcd60e51b815260206004820152602e60248201527f496e697469616c697a61626c653a20636f6e747261637420697320616c72656160448201526d191e481a5b9a5d1a585b1a5e995960921b606482015260840162000e3e565b600054610100900460ff1615801562002449576000805461ffff19166101011790555b60cc805460ff19169055801562000f3c576000805461ff001916905550565b600054610100900460ff168062002482575060005460ff16155b620024e75760405162461bcd60e51b815260206004820152602e60248201527f496e697469616c697a61626c653a20636f6e747261637420697320616c72656160448201526d191e481a5b9a5d1a585b1a5e995960921b606482015260840162000e3e565b600054610100900460ff161580156200250a576000805461ffff19166101011790555b8251602080850191909120835191840191909120606591909155606655801562000e88576000805461ff0019169055505050565b600054610100900460ff168062002558575060005460ff16155b620025bd5760405162461bcd60e51b815260206004820152602e60248201527f496e697469616c697a61626c653a20636f6e747261637420697320616c72656160448201526d191e481a5b9a5d1a585b1a5e995960921b606482015260840162000e3e565b600054610100900460ff16158015620025e0576000805461ffff19166101011790555b7f6e71edae12b1b97f4d1f60370fef10105fa2faae0126114a169c64845d6126c9609a55801562001b1d576000805461ff00191690555050565b600054610100900460ff168062002634575060005460ff16155b620026995760405162461bcd60e51b815260206004820152602e60248201527f496e697469616c697a61626c653a20636f6e747261637420697320616c72656160448201526d191e481a5b9a5d1a585b1a5e995960921b606482015260840162000e3e565b600054610100900460ff16158015620026bc576000805461ffff19166101011790555b620026c66200301d565b620026d18262002919565b801562001b1d576000805461ff00191690555050565b60cc5460ff16156200273c5760405162461bcd60e51b815260206004820152601060248201527f5061757361626c653a2070617573656400000000000000000000000000000000604482015260640162000e3e565b60cc805460ff191660011790557f62e78cea01bee320cd4e420270b5ea74000d11b0c9f74754ebdbfc544b05a2586200209b3390565b6000620013e68383620030ca565b6001600160a01b038216620027fe5760405162461bcd60e51b815260206004820152602160248201527f45524332303a206275726e2066726f6d20746865207a65726f2061646472657360448201527f7300000000000000000000000000000000000000000000000000000000000000606482015260840162000e3e565b6200280c8260008362002cfc565b6001600160a01b038216600090815260336020526040902054818110156200289d5760405162461bcd60e51b815260206004820152602260248201527f45524332303a206275726e20616d6f756e7420657863656564732062616c616e60448201527f6365000000000000000000000000000000000000000000000000000000000000606482015260840162000e3e565b6001600160a01b0383166000908152603360205260408120838303905560358054849290620028ce90849062003a90565b90915550506040518281526000906001600160a01b038516907fddf252ad1be2c89b69c2b068fc378daa952ba7f163c4a11628f55a4df523b3ef9060200160405180910390a3505050565b803b6200298f5760405162461bcd60e51b815260206004820152603360248201527f5570677261646561626c65426561636f6e3a20696d706c656d656e746174696f60448201527f6e206973206e6f74206120636f6e747261637400000000000000000000000000606482015260840162000e3e565b610194805473ffffffffffffffffffffffffffffffffffffffff19166001600160a01b0392909216919091179055565b60006200095c825490565b6001600160a01b03811660009081526099602052604090208054600181018255905b50919050565b60006200095c62002a0262001efa565b836040517f19010000000000000000000000000000000000000000000000000000000000006020820152602281018390526042810182905260009060620160405160208183030381529060405280519060200120905092915050565b600080600062002a718787878762003103565b9150915062002a8081620031f8565b5095945050505050565b6000828152610130602052604090206001015462002aa9813362001a93565b62000e88838362002e6f565b6060600062002ac683600262003a6e565b62002ad390600262003a53565b67ffffffffffffffff81111562002afa57634e487b7160e01b600052604160045260246000fd5b6040519080825280601f01601f19166020018201604052801562002b25576020820181803683370190505b5090507f30000000000000000000000000000000000000000000000000000000000000008160008151811062002b6b57634e487b7160e01b600052603260045260246000fd5b60200101906001600160f81b031916908160001a9053507f78000000000000000000000000000000000000000000000000000000000000008160018151811062002bc557634e487b7160e01b600052603260045260246000fd5b60200101906001600160f81b031916908160001a905350600062002beb84600262003a6e565b62002bf890600162003a53565b90505b600181111562002c9f577f303132333435363738396162636465660000000000000000000000000000000085600f166010811062002c4957634e487b7160e01b600052603260045260246000fd5b1a60f81b82828151811062002c6e57634e487b7160e01b600052603260045260246000fd5b60200101906001600160f81b031916908160001a90535060049490941c9362002c978162003ad9565b905062002bfb565b508315620013e65760405162461bcd60e51b815260206004820181905260248201527f537472696e67733a20686578206c656e67746820696e73756666696369656e74604482015260640162000e3e565b62001b1d828262002d77565b60cc5460ff161562000e885760405162461bcd60e51b815260206004820152602560248201527f5061757361626c653a20746f6b656e207472616e73666572207768696c65207060448201527f6175736564000000000000000000000000000000000000000000000000000000606482015260840162000e3e565b6000828152610130602090815260408083206001600160a01b038516845290915290205460ff1662001b1d576000828152610130602090815260408083206001600160a01b03851684529091529020805460ff1916600117905562002dd93390565b6001600160a01b0316816001600160a01b0316837f2f8788117e7eff1d82e926ec794901d17c78024a50270940304540a733656f0d60405160405180910390a45050565b600081815260018301602052604081205462002e66575081546001818101845560008481526020808220909301849055845484825282860190935260409020919091556200095c565b5060006200095c565b6000828152610130602090815260408083206001600160a01b038516845290915290205460ff161562001b1d576000828152610130602090815260408083206001600160a01b0385168085529252808320805460ff1916905551339285917ff6391f5c32d9c69d2a47ea670b442974b53935d1edc7fd64eb21e047a839171b9190a45050565b600081815260018301602052604081205480156200301257600062002f1c60018362003a90565b855490915060009062002f329060019062003a90565b905081811462002fb657600086600001828154811062002f6257634e487b7160e01b600052603260045260246000fd5b906000526020600020015490508087600001848154811062002f9457634e487b7160e01b600052603260045260246000fd5b6000918252602080832090910192909255918252600188019052604090208390555b855486908062002fd657634e487b7160e01b600052603160045260246000fd5b6001900381819060005260206000200160009055905585600101600086815260200190815260200160002060009055600193505050506200095c565b60009150506200095c565b600054610100900460ff168062003037575060005460ff16155b6200309c5760405162461bcd60e51b815260206004820152602e60248201527f496e697469616c697a61626c653a20636f6e747261637420697320616c72656160448201526d191e481a5b9a5d1a585b1a5e995960921b606482015260840162000e3e565b600054610100900460ff16158015620030bf576000805461ffff19166101011790555b620022ad33620021ab565b6000826000018281548110620030f057634e487b7160e01b600052603260045260246000fd5b9060005260206000200154905092915050565b6000807f7fffffffffffffffffffffffffffffff5d576e7357a4501ddfe92f46681b20a08311156200313c5750600090506003620031ef565b8460ff16601b141580156200315557508460ff16601c14155b15620031685750600090506004620031ef565b6040805160008082526020820180845289905260ff881692820192909252606081018690526080810185905260019060a0016020604051602081039080840390855afa158015620031bd573d6000803e3d6000fd5b5050604051601f1901519150506001600160a01b038116620031e857600060019250925050620031ef565b9150600090505b94509492505050565b60008160048111156200321b57634e487b7160e01b600052602160045260246000fd5b1415620032255750565b60018160048111156200324857634e487b7160e01b600052602160045260246000fd5b1415620032985760405162461bcd60e51b815260206004820152601860248201527f45434453413a20696e76616c6964207369676e61747572650000000000000000604482015260640162000e3e565b6002816004811115620032bb57634e487b7160e01b600052602160045260246000fd5b14156200330b5760405162461bcd60e51b815260206004820152601f60248201527f45434453413a20696e76616c6964207369676e6174757265206c656e67746800604482015260640162000e3e565b60038160048111156200332e57634e487b7160e01b600052602160045260246000fd5b1415620033895760405162461bcd60e51b815260206004820152602260248201527f45434453413a20696e76616c6964207369676e6174757265202773272076616c604482015261756560f01b606482015260840162000e3e565b6004816004811115620033ac57634e487b7160e01b600052602160045260246000fd5b141562000f3c5760405162461bcd60e51b815260206004820152602260248201527f45434453413a20696e76616c6964207369676e6174757265202776272076616c604482015261756560f01b606482015260840162000e3e565b610a1f8062003b5783390190565b828054620034239062003af3565b90600052602060002090601f01602090048101928262003447576000855562003492565b82601f106200346257805160ff191683800117855562003492565b8280016001018555821562003492579182015b828111156200349257825182559160200191906001019062003475565b50620034a0929150620034a4565b5090565b5b80821115620034a05760008155600101620034a5565b80356001600160a01b0381168114620034d357600080fd5b919050565b60008083601f840112620034ea578182fd5b50813567ffffffffffffffff81111562003502578182fd5b6020830191508360208285010111156200351b57600080fd5b9250929050565b60006020828403121562003534578081fd5b620013e682620034bb565b6000806040838503121562003552578081fd5b6200355d83620034bb565b91506200356d60208401620034bb565b90509250929050565b6000806000606084860312156200358b578081fd5b6200359684620034bb565b9250620035a660208501620034bb565b9150604084013590509250925092565b600080600080600080600060e0888a031215620035d1578283fd5b620035dc88620034bb565b9650620035ec60208901620034bb565b95506040880135945060608801359350608088013560ff8116811462003610578384fd5b9699959850939692959460a0840135945060c09093013592915050565b6000806040838503121562003640578182fd5b6200364b83620034bb565b946020939093013593505050565b6000602082840312156200366b578081fd5b5035919050565b6000806040838503121562003685578182fd5b823591506200356d60208401620034bb565b60008060408385031215620036aa578182fd5b50508035926020909101359150565b600060208284031215620036cb578081fd5b81357fffffffff0000000000000000000000000000000000000000000000000000000081168114620013e6578182fd5b600080604083850312156200370e578182fd5b823567ffffffffffffffff8082111562003726578384fd5b818501915085601f8301126200373a578384fd5b8135818111156200374f576200374f62003b40565b604051601f8201601f19908116603f011681019083821181831017156200377a576200377a62003b40565b8160405282815288602084870101111562003793578687fd5b82602086016020830137866020848301015280965050505050506200356d60208401620034bb565b600080600080600080600060a0888a031215620037d6578283fd5b87359650620037e860208901620034bb565b9550604088013567ffffffffffffffff8082111562003805578485fd5b620038138b838c01620034d8565b909750955060608a01359150808211156200382c578485fd5b506200383b8a828b01620034d8565b909450925062003850905060808901620034bb565b905092959891949750929550565b6000806040838503121562003871578182fd5b823591506020830135801515811462003888578182fd5b809150509250929050565b60008151808452620038ad81602086016020860162003aaa565b601f01601f19169290920160200192915050565b81835281816020850137506000828201602090810191909152601f909101601f19169091010190565b7f416363657373436f6e74726f6c3a206163636f756e74200000000000000000008152600083516200392481601785016020880162003aaa565b7f206973206d697373696e6720726f6c652000000000000000000000000000000060179184019182015283516200396381602884016020880162003aaa565b01602801949350505050565b6001600160a01b038316815260406020820152600062003993604083018462003893565b949350505050565b60006001600160a01b038089168352876020840152808716604084015260a06060840152620039cf60a084018688620038c1565b9150808416608084015250979650505050505050565b602081526000620013e6602083018462003893565b87815260006001600160a01b03808916602084015260a0604084015262003a2660a08401888a620038c1565b838103606085015262003a3b818789620038c1565b92505080841660808401525098975050505050505050565b6000821982111562003a695762003a6962003b2a565b500190565b600081600019048311821515161562003a8b5762003a8b62003b2a565b500290565b60008282101562003aa55762003aa562003b2a565b500390565b60005b8381101562003ac757818101518382015260200162003aad565b8381111562001eb25750506000910152565b60008162003aeb5762003aeb62003b2a565b506000190190565b600181811c9082168062003b0857607f821691505b60208210811415620029ec57634e487b7160e01b600052602260045260246000fd5b634e487b7160e01b600052601160045260246000fd5b634e487b7160e01b600052604160045260246000fdfe608060405260405162000a1f38038062000a1f8339810160408190526200002691620004b8565b6200005360017fa3f0ad74e5423aebfd80d3ef4346578335a9a72aeaee59ff6cb3582b35133d51620005d5565b600080516020620009d8833981519152146200007f57634e487b7160e01b600052600160045260246000fd5b6200008d8282600062000095565b50506200063e565b620000a0836200017a565b6040516001600160a01b038416907f1cf3b03a6cf19fa2baba4df148e9dcabedea7f8a5c07840e207e5c089be95d3e90600090a2600082511180620000e25750805b15620001755762000173836001600160a01b0316635c60da1b6040518163ffffffff1660e01b815260040160206040518083038186803b1580156200012657600080fd5b505afa1580156200013b573d6000803e3d6000fd5b505050506040513d601f19601f820116820180604052508101906200016191906200049b565b836200032b60201b620000291760201c565b505b505050565b62000190816200035a60201b620000551760201c565b620001f05760405162461bcd60e51b815260206004820152602560248201527f455243313936373a206e657720626561636f6e206973206e6f74206120636f6e6044820152641d1c9858dd60da1b60648201526084015b60405180910390fd5b6200027a816001600160a01b0316635c60da1b6040518163ffffffff1660e01b815260040160206040518083038186803b1580156200022e57600080fd5b505afa15801562000243573d6000803e3d6000fd5b505050506040513d601f19601f820116820180604052508101906200026991906200049b565b6200035a60201b620000551760201c565b620002e15760405162461bcd60e51b815260206004820152603060248201527f455243313936373a20626561636f6e20696d706c656d656e746174696f6e206960448201526f1cc81b9bdd08184818dbdb9d1c9858dd60821b6064820152608401620001e7565b806200030a600080516020620009d883398151915260001b6200036060201b6200005b1760201c565b80546001600160a01b0319166001600160a01b039290921691909117905550565b6060620003538383604051806060016040528060278152602001620009f86027913962000363565b9392505050565b3b151590565b90565b6060833b620003c45760405162461bcd60e51b815260206004820152602660248201527f416464726573733a2064656c65676174652063616c6c20746f206e6f6e2d636f6044820152651b9d1c9858dd60d21b6064820152608401620001e7565b600080856001600160a01b031685604051620003e1919062000582565b600060405180830381855af49150503d80600081146200041e576040519150601f19603f3d011682016040523d82523d6000602084013e62000423565b606091505b5090925090506200043682828662000440565b9695505050505050565b606083156200045157508162000353565b825115620004625782518084602001fd5b8160405162461bcd60e51b8152600401620001e79190620005a0565b80516001600160a01b03811681146200049657600080fd5b919050565b600060208284031215620004ad578081fd5b62000353826200047e565b60008060408385031215620004cb578081fd5b620004d6836200047e565b60208401519092506001600160401b0380821115620004f3578283fd5b818501915085601f83011262000507578283fd5b8151818111156200051c576200051c62000628565b604051601f8201601f19908116603f0116810190838211818310171562000547576200054762000628565b8160405282815288602084870101111562000560578586fd5b62000573836020830160208801620005f9565b80955050505050509250929050565b6000825162000596818460208701620005f9565b9190910192915050565b6020815260008251806020840152620005c1816040850160208701620005f9565b601f01601f19169190910160400192915050565b600082821015620005f457634e487b7160e01b81526011600452602481fd5b500390565b60005b8381101562000616578181015183820152602001620005fc565b83811115620001735750506000910152565b634e487b7160e01b600052604160045260246000fd5b61038a806200064e6000396000f3fe60806040523661001357610011610017565b005b6100115b61002761002261005e565b610120565b565b606061004e838360405180606001604052806027815260200161032e60279139610144565b9392505050565b3b151590565b90565b600061009e7fa3f0ad74e5423aebfd80d3ef4346578335a9a72aeaee59ff6cb3582b35133d505473ffffffffffffffffffffffffffffffffffffffff1690565b73ffffffffffffffffffffffffffffffffffffffff16635c60da1b6040518163ffffffff1660e01b815260040160206040518083038186803b1580156100e357600080fd5b505afa1580156100f7573d6000803e3d6000fd5b505050506040513d601f19601f8201168201806040525081019061011b919061027a565b905090565b3660008037600080366000845af43d6000803e80801561013f573d6000f35b3d6000fd5b6060833b6101bf5760405162461bcd60e51b815260206004820152602660248201527f416464726573733a2064656c65676174652063616c6c20746f206e6f6e2d636f60448201527f6e7472616374000000000000000000000000000000000000000000000000000060648201526084015b60405180910390fd5b6000808573ffffffffffffffffffffffffffffffffffffffff16856040516101e791906102ae565b600060405180830381855af49150503d8060008114610222576040519150601f19603f3d011682016040523d82523d6000602084013e610227565b606091505b5091509150610237828286610241565b9695505050505050565b6060831561025057508161004e565b8251156102605782518084602001fd5b8160405162461bcd60e51b81526004016101b691906102ca565b60006020828403121561028b578081fd5b815173ffffffffffffffffffffffffffffffffffffffff8116811461004e578182fd5b600082516102c08184602087016102fd565b9190910192915050565b60208152600082518060208401526102e98160408501602087016102fd565b601f01601f19169190910160400192915050565b60005b83811015610318578181015183820152602001610300565b83811115610327576000848401525b5050505056fe416464726573733a206c6f772d6c6576656c2064656c65676174652063616c6c206661696c6564a2646970667358221220e9a106c16612f30760aedc3d01e0beaeb4528c5d976b5613e6b363655b5d277464736f6c63430008040033a3f0ad74e5423aebfd80d3ef4346578335a9a72aeaee59ff6cb3582b35133d50416464726573733a206c6f772d6c6576656c2064656c65676174652063616c6c206661696c6564a264697066735822122062aad7b29f44ab819c23abd7a21e9c6f4f20a3366e9544b26795233c6148972d64736f6c63430008040033",
  "devdoc": {
    "kind": "dev",
    "methods": {
      "DOMAIN_SEPARATOR()": {
        "details": "See {IERC20Permit-DOMAIN_SEPARATOR}."
      },
      "addBank(uint256,address,string,string,address)": {
        "details": "Adds a bank after creation for book keeping on the stablecoin"
      },
      "allowance(address,address)": {
        "details": "See {IERC20-allowance}."
      },
      "approve(address,uint256)": {
        "details": "See {IERC20-approve}. Requirements: - `spender` cannot be the zero address."
      },
      "balanceOf(address)": {
        "details": "See {IERC20-balanceOf}."
      },
      "bankCount()": {
        "details": "check on the current number of bank types deployed"
      },
      "burn(address,uint256)": {
        "details": "give a burner role so that banks can burn the token upon liquidation and paying back."
      },
      "decimals()": {
        "details": "Returns the number of decimals used to get its user representation. For example, if `decimals` equals `2`, a balance of `505` tokens should be displayed to a user as `5.05` (`505 / 10 ** 2`). Tokens usually opt for a value of 18, imitating the relationship between Ether and Wei. This is the value {ERC20} uses, unless this function is overridden; NOTE: This information is only used for _display_ purposes: it in no way affects any of the arithmetic of the contract, including {IERC20-balanceOf} and {IERC20-transfer}."
      },
      "decreaseAllowance(address,uint256)": {
        "details": "Atomically decreases the allowance granted to `spender` by the caller. This is an alternative to {approve} that can be used as a mitigation for problems described in {IERC20-approve}. Emits an {Approval} event indicating the updated allowance. Requirements: - `spender` cannot be the zero address. - `spender` must have allowance for the caller of at least `subtractedValue`."
      },
      "getRoleAdmin(bytes32)": {
        "details": "Returns the admin role that controls `role`. See {grantRole} and {revokeRole}. To change a role's admin, use {_setRoleAdmin}."
      },
      "getRoleMemberCount(bytes32)": {
        "details": "Returns the number of accounts that have `role`. Can be used together with {getRoleMember} to enumerate all bearers of a role."
      },
      "grantRole(bytes32,address)": {
        "details": "Overload {grantRole} to track enumerable memberships"
      },
      "hasRole(bytes32,address)": {
        "details": "Returns `true` if `account` has been granted `role`."
      },
      "implementation()": {
        "details": "Returns the current implementation address."
      },
      "increaseAllowance(address,uint256)": {
        "details": "Atomically increases the allowance granted to `spender` by the caller. This is an alternative to {approve} that can be used as a mitigation for problems described in {IERC20-approve}. Emits an {Approval} event indicating the updated allowance. Requirements: - `spender` cannot be the zero address."
      },
      "mint(address,uint256)": {
        "details": "give a minter role so that banks can mint upon borrowing."
      },
      "name()": {
        "details": "Returns the name of the token."
      },
      "nonces(address)": {
        "details": "See {IERC20Permit-nonces}."
      },
      "owner()": {
        "details": "Returns the address of the current owner."
      },
      "pause()": {
        "details": "Pauses all token transfers. See {ERC20Pausable} and {Pausable-_pause}. Requirements: - the caller must have the `PAUSER_ROLE`."
      },
      "paused()": {
        "details": "Returns true if the contract is paused, and false otherwise."
      },
      "permit(address,address,uint256,uint256,uint8,bytes32,bytes32)": {
        "details": "See {IERC20Permit-permit}."
      },
      "renounceOwnership()": {
        "details": "Leaves the contract without owner. It will not be possible to call `onlyOwner` functions anymore. Can only be called by the current owner. NOTE: Renouncing ownership will leave the contract without an owner, thereby removing any functionality that is only available to the owner."
      },
      "renounceRole(bytes32,address)": {
        "details": "Overload {renounceRole} to track enumerable memberships"
      },
      "revokeRole(bytes32,address)": {
        "details": "Overload {revokeRole} to track enumerable memberships"
      },
      "setClosingFee(uint256,uint256)": {
        "details": "Set the closing fee for this bank"
      },
      "setDebtCeiling(uint256,uint256)": {
        "details": "Set the debt ceiling for this bank"
      },
      "setDebtRatio(uint256,uint256)": {
        "details": "sets the debt ratio"
      },
      "setGainRatio(uint256,uint256)": {
        "details": "sets the gain ratio"
      },
      "setGateway(uint256,address)": {
        "details": "Set the WAVAX gateway for this bank if it needs one"
      },
      "setMinimumDebt(uint256,uint256)": {
        "details": "sets the minimum debt"
      },
      "setMintingPaused(uint256,bool)": {
        "details": "Pauses minting for a bank if exploit or if deprecated"
      },
      "setOpeningFee(uint256,uint256)": {
        "details": "Set the opening fee for this bank"
      },
      "setPriceSource(uint256,address)": {
        "details": "Set the price source for this bank"
      },
      "setStabilityPool(uint256,address)": {
        "details": "Set the stability pool (liquidator) for this bank"
      },
      "setTokenPeg(uint256,uint256)": {
        "details": "Set the token peg for this bank"
      },
      "setTreasury(uint256,uint256)": {
        "details": "Set the treasury bank for this bank"
      },
      "supportsInterface(bytes4)": {
        "details": "See {IERC165-supportsInterface}."
      },
      "symbol()": {
        "details": "Returns the symbol of the token, usually a shorter version of the name."
      },
      "totalSupply()": {
        "details": "See {IERC20-totalSupply}."
      },
      "transfer(address,uint256)": {
        "details": "See {IERC20-transfer}. Requirements: - `recipient` cannot be the zero address. - the caller must have a balance of at least `amount`."
      },
      "transferFrom(address,address,uint256)": {
        "details": "See {IERC20-transferFrom}. Emits an {Approval} event indicating the updated allowance. This is not required by the EIP. See the note at the beginning of {ERC20}. Requirements: - `sender` and `recipient` cannot be the zero address. - `sender` must have a balance of at least `amount`. - the caller must have allowance for ``sender``'s tokens of at least `amount`."
      },
      "transferOwnership(address)": {
        "details": "Transfers ownership of the contract to a new account (`newOwner`). Can only be called by the current owner."
      },
      "unpause()": {
        "details": "Unpauses all token transfers. See {ERC20Pausable} and {Pausable-_unpause}. Requirements: - the caller must have the `PAUSER_ROLE`."
      },
      "upgradeToNewBank(address)": {
        "details": "Upgrades the beacon to a new implementation. Emits an {Upgraded} event. Requirements: - msg.sender must be the owner of the contract. - `newImplementation` must be a contract."
      }
    },
    "version": 1
  },
  "userdoc": {
    "kind": "user",
    "methods": {},
    "version": 1
  },
  "storageLayout": {
    "storage": [
      {
        "astId": 594,
        "contract": "apps/avai/src/contracts/Stablecoin.sol:AVAI",
        "label": "_initialized",
        "offset": 0,
        "slot": "0",
        "type": "t_bool"
      },
      {
        "astId": 597,
        "contract": "apps/avai/src/contracts/Stablecoin.sol:AVAI",
        "label": "_initializing",
        "offset": 1,
        "slot": "0",
        "type": "t_bool"
      },
      {
        "astId": 3406,
        "contract": "apps/avai/src/contracts/Stablecoin.sol:AVAI",
        "label": "__gap",
        "offset": 0,
        "slot": "1",
        "type": "t_array(t_uint256)50_storage"
      },
      {
        "astId": 824,
        "contract": "apps/avai/src/contracts/Stablecoin.sol:AVAI",
        "label": "_balances",
        "offset": 0,
        "slot": "51",
        "type": "t_mapping(t_address,t_uint256)"
      },
      {
        "astId": 830,
        "contract": "apps/avai/src/contracts/Stablecoin.sol:AVAI",
        "label": "_allowances",
        "offset": 0,
        "slot": "52",
        "type": "t_mapping(t_address,t_mapping(t_address,t_uint256))"
      },
      {
        "astId": 832,
        "contract": "apps/avai/src/contracts/Stablecoin.sol:AVAI",
        "label": "_totalSupply",
        "offset": 0,
        "slot": "53",
        "type": "t_uint256"
      },
      {
        "astId": 834,
        "contract": "apps/avai/src/contracts/Stablecoin.sol:AVAI",
        "label": "_name",
        "offset": 0,
        "slot": "54",
        "type": "t_string_storage"
      },
      {
        "astId": 836,
        "contract": "apps/avai/src/contracts/Stablecoin.sol:AVAI",
        "label": "_symbol",
        "offset": 0,
        "slot": "55",
        "type": "t_string_storage"
      },
      {
        "astId": 1377,
        "contract": "apps/avai/src/contracts/Stablecoin.sol:AVAI",
        "label": "__gap",
        "offset": 0,
        "slot": "56",
        "type": "t_array(t_uint256)45_storage"
      },
      {
        "astId": 4060,
        "contract": "apps/avai/src/contracts/Stablecoin.sol:AVAI",
        "label": "_HASHED_NAME",
        "offset": 0,
        "slot": "101",
        "type": "t_bytes32"
      },
      {
        "astId": 4062,
        "contract": "apps/avai/src/contracts/Stablecoin.sol:AVAI",
        "label": "_HASHED_VERSION",
        "offset": 0,
        "slot": "102",
        "type": "t_bytes32"
      },
      {
        "astId": 4199,
        "contract": "apps/avai/src/contracts/Stablecoin.sol:AVAI",
        "label": "__gap",
        "offset": 0,
        "slot": "103",
        "type": "t_array(t_uint256)50_storage"
      },
      {
        "astId": 1507,
        "contract": "apps/avai/src/contracts/Stablecoin.sol:AVAI",
        "label": "_nonces",
        "offset": 0,
        "slot": "153",
        "type": "t_mapping(t_address,t_struct(Counter)3413_storage)"
      },
      {
        "astId": 1509,
        "contract": "apps/avai/src/contracts/Stablecoin.sol:AVAI",
        "label": "_PERMIT_TYPEHASH",
        "offset": 0,
        "slot": "154",
        "type": "t_bytes32"
      },
      {
        "astId": 1677,
        "contract": "apps/avai/src/contracts/Stablecoin.sol:AVAI",
        "label": "__gap",
        "offset": 0,
        "slot": "155",
        "type": "t_array(t_uint256)49_storage"
      },
      {
        "astId": 655,
        "contract": "apps/avai/src/contracts/Stablecoin.sol:AVAI",
        "label": "_paused",
        "offset": 0,
        "slot": "204",
        "type": "t_bool"
      },
      {
        "astId": 746,
        "contract": "apps/avai/src/contracts/Stablecoin.sol:AVAI",
        "label": "__gap",
        "offset": 0,
        "slot": "205",
        "type": "t_array(t_uint256)49_storage"
      },
      {
        "astId": 4245,
        "contract": "apps/avai/src/contracts/Stablecoin.sol:AVAI",
        "label": "__gap",
        "offset": 0,
        "slot": "254",
        "type": "t_array(t_uint256)50_storage"
      },
      {
        "astId": 94,
        "contract": "apps/avai/src/contracts/Stablecoin.sol:AVAI",
        "label": "_roles",
        "offset": 0,
        "slot": "304",
        "type": "t_mapping(t_bytes32,t_struct(RoleData)89_storage)"
      },
      {
        "astId": 379,
        "contract": "apps/avai/src/contracts/Stablecoin.sol:AVAI",
        "label": "__gap",
        "offset": 0,
        "slot": "305",
        "type": "t_array(t_uint256)49_storage"
      },
      {
        "astId": 464,
        "contract": "apps/avai/src/contracts/Stablecoin.sol:AVAI",
        "label": "_owner",
        "offset": 0,
        "slot": "354",
        "type": "t_address"
      },
      {
        "astId": 577,
        "contract": "apps/avai/src/contracts/Stablecoin.sol:AVAI",
        "label": "__gap",
        "offset": 0,
        "slot": "355",
        "type": "t_array(t_uint256)49_storage"
      },
      {
        "astId": 16986,
        "contract": "apps/avai/src/contracts/Stablecoin.sol:AVAI",
        "label": "_implementation",
        "offset": 0,
        "slot": "404",
        "type": "t_address"
      },
      {
        "astId": 14291,
        "contract": "apps/avai/src/contracts/Stablecoin.sol:AVAI",
        "label": "banks",
        "offset": 0,
        "slot": "405",
        "type": "t_array(t_address)dyn_storage"
      },
      {
        "astId": 14296,
        "contract": "apps/avai/src/contracts/Stablecoin.sol:AVAI",
        "label": "_roleMembers",
        "offset": 0,
        "slot": "406",
        "type": "t_mapping(t_bytes32,t_struct(AddressSet)8356_storage)"
      }
    ],
    "types": {
      "t_address": {
        "encoding": "inplace",
        "label": "address",
        "numberOfBytes": "20"
      },
      "t_array(t_address)dyn_storage": {
        "base": "t_address",
        "encoding": "dynamic_array",
        "label": "address[]",
        "numberOfBytes": "32"
      },
      "t_array(t_bytes32)dyn_storage": {
        "base": "t_bytes32",
        "encoding": "dynamic_array",
        "label": "bytes32[]",
        "numberOfBytes": "32"
      },
      "t_array(t_uint256)45_storage": {
        "base": "t_uint256",
        "encoding": "inplace",
        "label": "uint256[45]",
        "numberOfBytes": "1440"
      },
      "t_array(t_uint256)49_storage": {
        "base": "t_uint256",
        "encoding": "inplace",
        "label": "uint256[49]",
        "numberOfBytes": "1568"
      },
      "t_array(t_uint256)50_storage": {
        "base": "t_uint256",
        "encoding": "inplace",
        "label": "uint256[50]",
        "numberOfBytes": "1600"
      },
      "t_bool": {
        "encoding": "inplace",
        "label": "bool",
        "numberOfBytes": "1"
      },
      "t_bytes32": {
        "encoding": "inplace",
        "label": "bytes32",
        "numberOfBytes": "32"
      },
      "t_mapping(t_address,t_bool)": {
        "encoding": "mapping",
        "key": "t_address",
        "label": "mapping(address => bool)",
        "numberOfBytes": "32",
        "value": "t_bool"
      },
      "t_mapping(t_address,t_mapping(t_address,t_uint256))": {
        "encoding": "mapping",
        "key": "t_address",
        "label": "mapping(address => mapping(address => uint256))",
        "numberOfBytes": "32",
        "value": "t_mapping(t_address,t_uint256)"
      },
      "t_mapping(t_address,t_struct(Counter)3413_storage)": {
        "encoding": "mapping",
        "key": "t_address",
        "label": "mapping(address => struct CountersUpgradeable.Counter)",
        "numberOfBytes": "32",
        "value": "t_struct(Counter)3413_storage"
      },
      "t_mapping(t_address,t_uint256)": {
        "encoding": "mapping",
        "key": "t_address",
        "label": "mapping(address => uint256)",
        "numberOfBytes": "32",
        "value": "t_uint256"
      },
      "t_mapping(t_bytes32,t_struct(AddressSet)8356_storage)": {
        "encoding": "mapping",
        "key": "t_bytes32",
        "label": "mapping(bytes32 => struct EnumerableSet.AddressSet)",
        "numberOfBytes": "32",
        "value": "t_struct(AddressSet)8356_storage"
      },
      "t_mapping(t_bytes32,t_struct(RoleData)89_storage)": {
        "encoding": "mapping",
        "key": "t_bytes32",
        "label": "mapping(bytes32 => struct AccessControlUpgradeable.RoleData)",
        "numberOfBytes": "32",
        "value": "t_struct(RoleData)89_storage"
      },
      "t_mapping(t_bytes32,t_uint256)": {
        "encoding": "mapping",
        "key": "t_bytes32",
        "label": "mapping(bytes32 => uint256)",
        "numberOfBytes": "32",
        "value": "t_uint256"
      },
      "t_string_storage": {
        "encoding": "bytes",
        "label": "string",
        "numberOfBytes": "32"
      },
      "t_struct(AddressSet)8356_storage": {
        "encoding": "inplace",
        "label": "struct EnumerableSet.AddressSet",
        "members": [
          {
            "astId": 8355,
            "contract": "apps/avai/src/contracts/Stablecoin.sol:AVAI",
            "label": "_inner",
            "offset": 0,
            "slot": "0",
            "type": "t_struct(Set)8085_storage"
          }
        ],
        "numberOfBytes": "64"
      },
      "t_struct(Counter)3413_storage": {
        "encoding": "inplace",
        "label": "struct CountersUpgradeable.Counter",
        "members": [
          {
            "astId": 3412,
            "contract": "apps/avai/src/contracts/Stablecoin.sol:AVAI",
            "label": "_value",
            "offset": 0,
            "slot": "0",
            "type": "t_uint256"
          }
        ],
        "numberOfBytes": "32"
      },
      "t_struct(RoleData)89_storage": {
        "encoding": "inplace",
        "label": "struct AccessControlUpgradeable.RoleData",
        "members": [
          {
            "astId": 86,
            "contract": "apps/avai/src/contracts/Stablecoin.sol:AVAI",
            "label": "members",
            "offset": 0,
            "slot": "0",
            "type": "t_mapping(t_address,t_bool)"
          },
          {
            "astId": 88,
            "contract": "apps/avai/src/contracts/Stablecoin.sol:AVAI",
            "label": "adminRole",
            "offset": 0,
            "slot": "1",
            "type": "t_bytes32"
          }
        ],
        "numberOfBytes": "64"
      },
      "t_struct(Set)8085_storage": {
        "encoding": "inplace",
        "label": "struct EnumerableSet.Set",
        "members": [
          {
            "astId": 8080,
            "contract": "apps/avai/src/contracts/Stablecoin.sol:AVAI",
            "label": "_values",
            "offset": 0,
            "slot": "0",
            "type": "t_array(t_bytes32)dyn_storage"
          },
          {
            "astId": 8084,
            "contract": "apps/avai/src/contracts/Stablecoin.sol:AVAI",
            "label": "_indexes",
            "offset": 0,
            "slot": "1",
            "type": "t_mapping(t_bytes32,t_uint256)"
          }
        ],
        "numberOfBytes": "64"
      },
      "t_uint256": {
        "encoding": "inplace",
        "label": "uint256",
        "numberOfBytes": "32"
      }
    }
  }
}