{
  "address": "0x599D8908f783df097E390E0F53d5F93B68F1126a",
  "abi": [
    {
      "anonymous": false,
      "inputs": [
        {
          "indexed": true,
          "internalType": "address",
          "name": "owner",
          "type": "address"
        },
        {
          "indexed": true,
          "internalType": "address",
          "name": "approved",
          "type": "address"
        },
        {
          "indexed": true,
          "internalType": "uint256",
          "name": "tokenId",
          "type": "uint256"
        }
      ],
      "name": "Approval",
      "type": "event"
    },
    {
      "anonymous": false,
      "inputs": [
        {
          "indexed": true,
          "internalType": "address",
          "name": "owner",
          "type": "address"
        },
        {
          "indexed": true,
          "internalType": "address",
          "name": "operator",
          "type": "address"
        },
        {
          "indexed": false,
          "internalType": "bool",
          "name": "approved",
          "type": "bool"
        }
      ],
      "name": "ApprovalForAll",
      "type": "event"
    },
    {
      "anonymous": false,
      "inputs": [
        {
          "indexed": false,
          "internalType": "bool",
          "name": "mintingPaused",
          "type": "bool"
        }
      ],
      "name": "BankPaused",
      "type": "event"
    },
    {
      "anonymous": false,
      "inputs": [
        {
          "indexed": false,
          "internalType": "uint256",
          "name": "vaultID",
          "type": "uint256"
        },
        {
          "indexed": false,
          "internalType": "uint256",
          "name": "amount",
          "type": "uint256"
        }
      ],
      "name": "BorrowToken",
      "type": "event"
    },
    {
      "anonymous": false,
      "inputs": [
        {
          "indexed": false,
          "internalType": "uint256",
          "name": "newDebtRatio",
          "type": "uint256"
        }
      ],
      "name": "ChangeDebtRatio",
      "type": "event"
    },
    {
      "anonymous": false,
      "inputs": [
        {
          "indexed": false,
          "internalType": "uint256",
          "name": "newGainRatio",
          "type": "uint256"
        }
      ],
      "name": "ChangeGainRatio",
      "type": "event"
    },
    {
      "anonymous": false,
      "inputs": [
        {
          "indexed": false,
          "internalType": "uint256",
          "name": "vaultID",
          "type": "uint256"
        },
        {
          "indexed": false,
          "internalType": "address",
          "name": "creator",
          "type": "address"
        }
      ],
      "name": "CreateVault",
      "type": "event"
    },
    {
      "anonymous": false,
      "inputs": [
        {
          "indexed": false,
          "internalType": "uint256",
          "name": "vaultID",
          "type": "uint256"
        },
        {
          "indexed": false,
          "internalType": "uint256",
          "name": "amount",
          "type": "uint256"
        }
      ],
      "name": "DepositCollateral",
      "type": "event"
    },
    {
      "anonymous": false,
      "inputs": [
        {
          "indexed": false,
          "internalType": "uint256",
          "name": "vaultID",
          "type": "uint256"
        }
      ],
      "name": "DestroyVault",
      "type": "event"
    },
    {
      "anonymous": false,
      "inputs": [
        {
          "indexed": false,
          "internalType": "uint256",
          "name": "amount",
          "type": "uint256"
        },
        {
          "indexed": false,
          "internalType": "address",
          "name": "user",
          "type": "address"
        }
      ],
      "name": "GetPaid",
      "type": "event"
    },
    {
      "anonymous": false,
      "inputs": [
        {
          "indexed": false,
          "internalType": "uint256",
          "name": "vaultID",
          "type": "uint256"
        },
        {
          "indexed": false,
          "internalType": "address",
          "name": "owner",
          "type": "address"
        },
        {
          "indexed": false,
          "internalType": "address",
          "name": "buyer",
          "type": "address"
        },
        {
          "indexed": false,
          "internalType": "uint256",
          "name": "amountPaid",
          "type": "uint256"
        },
        {
          "indexed": false,
          "internalType": "uint256",
          "name": "tokenExtract",
          "type": "uint256"
        },
        {
          "indexed": false,
          "internalType": "uint256",
          "name": "closingFee",
          "type": "uint256"
        }
      ],
      "name": "LiquidateVault",
      "type": "event"
    },
    {
      "anonymous": false,
      "inputs": [
        {
          "indexed": false,
          "internalType": "uint256",
          "name": "newClosingFee",
          "type": "uint256"
        }
      ],
      "name": "NewClosingFee",
      "type": "event"
    },
    {
      "anonymous": false,
      "inputs": [
        {
          "indexed": false,
          "internalType": "uint256",
          "name": "newDebtCeiling",
          "type": "uint256"
        }
      ],
      "name": "NewDebtCeiling",
      "type": "event"
    },
    {
      "anonymous": false,
      "inputs": [
        {
          "indexed": false,
          "internalType": "address",
          "name": "newGateway",
          "type": "address"
        }
      ],
      "name": "NewGateway",
      "type": "event"
    },
    {
      "anonymous": false,
      "inputs": [
        {
          "indexed": false,
          "internalType": "uint256",
          "name": "newMinimumDebt",
          "type": "uint256"
        }
      ],
      "name": "NewMinimumDebt",
      "type": "event"
    },
    {
      "anonymous": false,
      "inputs": [
        {
          "indexed": false,
          "internalType": "uint256",
          "name": "newOpeningFee",
          "type": "uint256"
        }
      ],
      "name": "NewOpeningFee",
      "type": "event"
    },
    {
      "anonymous": false,
      "inputs": [
        {
          "indexed": false,
          "internalType": "uint256",
          "name": "newPew",
          "type": "uint256"
        }
      ],
      "name": "NewPeg",
      "type": "event"
    },
    {
      "anonymous": false,
      "inputs": [
        {
          "indexed": false,
          "internalType": "address",
          "name": "newPriceSource",
          "type": "address"
        }
      ],
      "name": "NewPriceSource",
      "type": "event"
    },
    {
      "anonymous": false,
      "inputs": [
        {
          "indexed": false,
          "internalType": "address",
          "name": "newStabilityPool",
          "type": "address"
        }
      ],
      "name": "NewStabilityPools",
      "type": "event"
    },
    {
      "anonymous": false,
      "inputs": [
        {
          "indexed": false,
          "internalType": "uint256",
          "name": "newTreasury",
          "type": "uint256"
        }
      ],
      "name": "NewTreasury",
      "type": "event"
    },
    {
      "anonymous": false,
      "inputs": [
        {
          "indexed": false,
          "internalType": "uint256",
          "name": "vaultID",
          "type": "uint256"
        },
        {
          "indexed": false,
          "internalType": "uint256",
          "name": "amount",
          "type": "uint256"
        },
        {
          "indexed": false,
          "internalType": "uint256",
          "name": "closingFee",
          "type": "uint256"
        }
      ],
      "name": "PayBackToken",
      "type": "event"
    },
    {
      "anonymous": false,
      "inputs": [
        {
          "indexed": true,
          "internalType": "bytes32",
          "name": "role",
          "type": "bytes32"
        },
        {
          "indexed": true,
          "internalType": "bytes32",
          "name": "previousAdminRole",
          "type": "bytes32"
        },
        {
          "indexed": true,
          "internalType": "bytes32",
          "name": "newAdminRole",
          "type": "bytes32"
        }
      ],
      "name": "RoleAdminChanged",
      "type": "event"
    },
    {
      "anonymous": false,
      "inputs": [
        {
          "indexed": true,
          "internalType": "bytes32",
          "name": "role",
          "type": "bytes32"
        },
        {
          "indexed": true,
          "internalType": "address",
          "name": "account",
          "type": "address"
        },
        {
          "indexed": true,
          "internalType": "address",
          "name": "sender",
          "type": "address"
        }
      ],
      "name": "RoleGranted",
      "type": "event"
    },
    {
      "anonymous": false,
      "inputs": [
        {
          "indexed": true,
          "internalType": "bytes32",
          "name": "role",
          "type": "bytes32"
        },
        {
          "indexed": true,
          "internalType": "address",
          "name": "account",
          "type": "address"
        },
        {
          "indexed": true,
          "internalType": "address",
          "name": "sender",
          "type": "address"
        }
      ],
      "name": "RoleRevoked",
      "type": "event"
    },
    {
      "anonymous": false,
      "inputs": [
        {
          "indexed": true,
          "internalType": "address",
          "name": "from",
          "type": "address"
        },
        {
          "indexed": true,
          "internalType": "address",
          "name": "to",
          "type": "address"
        },
        {
          "indexed": true,
          "internalType": "uint256",
          "name": "tokenId",
          "type": "uint256"
        }
      ],
      "name": "Transfer",
      "type": "event"
    },
    {
      "anonymous": false,
      "inputs": [
        {
          "indexed": false,
          "internalType": "uint256",
          "name": "vaultID",
          "type": "uint256"
        },
        {
          "indexed": false,
          "internalType": "address",
          "name": "from",
          "type": "address"
        },
        {
          "indexed": false,
          "internalType": "address",
          "name": "to",
          "type": "address"
        }
      ],
      "name": "TransferVault",
      "type": "event"
    },
    {
      "anonymous": false,
      "inputs": [
        {
          "indexed": false,
          "internalType": "uint256",
          "name": "vaultID",
          "type": "uint256"
        },
        {
          "indexed": false,
          "internalType": "uint256",
          "name": "amount",
          "type": "uint256"
        }
      ],
      "name": "WithdrawCollateral",
      "type": "event"
    },
    {
      "inputs": [],
      "name": "DEFAULT_ADMIN_ROLE",
      "outputs": [
        {
          "internalType": "bytes32",
          "name": "",
          "type": "bytes32"
        }
      ],
      "stateMutability": "view",
      "type": "function"
    },
    {
      "inputs": [],
      "name": "TREASURY_ROLE",
      "outputs": [
        {
          "internalType": "bytes32",
          "name": "",
          "type": "bytes32"
        }
      ],
      "stateMutability": "view",
      "type": "function"
    },
    {
      "inputs": [
        {
          "internalType": "address",
          "name": "to",
          "type": "address"
        },
        {
          "internalType": "uint256",
          "name": "tokenId",
          "type": "uint256"
        }
      ],
      "name": "approve",
      "outputs": [],
      "stateMutability": "nonpayable",
      "type": "function"
    },
    {
      "inputs": [
        {
          "internalType": "address",
          "name": "owner",
          "type": "address"
        }
      ],
      "name": "balanceOf",
      "outputs": [
        {
          "internalType": "uint256",
          "name": "",
          "type": "uint256"
        }
      ],
      "stateMutability": "view",
      "type": "function"
    },
    {
      "inputs": [
        {
          "internalType": "uint256",
          "name": "vaultID",
          "type": "uint256"
        },
        {
          "internalType": "uint256",
          "name": "amount",
          "type": "uint256"
        }
      ],
      "name": "borrowToken",
      "outputs": [],
      "stateMutability": "nonpayable",
      "type": "function"
    },
    {
      "inputs": [
        {
          "internalType": "uint256",
          "name": "vaultId_",
          "type": "uint256"
        }
      ],
      "name": "checkCost",
      "outputs": [
        {
          "internalType": "uint256",
          "name": "",
          "type": "uint256"
        }
      ],
      "stateMutability": "view",
      "type": "function"
    },
    {
      "inputs": [
        {
          "internalType": "uint256",
          "name": "vaultId_",
          "type": "uint256"
        }
      ],
      "name": "checkExtract",
      "outputs": [
        {
          "internalType": "uint256",
          "name": "",
          "type": "uint256"
        }
      ],
      "stateMutability": "view",
      "type": "function"
    },
    {
      "inputs": [
        {
          "internalType": "uint256",
          "name": "vaultId_",
          "type": "uint256"
        }
      ],
      "name": "checkLiquidation",
      "outputs": [
        {
          "internalType": "bool",
          "name": "",
          "type": "bool"
        }
      ],
      "stateMutability": "view",
      "type": "function"
    },
    {
      "inputs": [],
      "name": "closingFee",
      "outputs": [
        {
          "internalType": "uint256",
          "name": "",
          "type": "uint256"
        }
      ],
      "stateMutability": "view",
      "type": "function"
    },
    {
      "inputs": [],
      "name": "createVault",
      "outputs": [],
      "stateMutability": "nonpayable",
      "type": "function"
    },
    {
      "inputs": [],
      "name": "debtCeiling",
      "outputs": [
        {
          "internalType": "uint256",
          "name": "",
          "type": "uint256"
        }
      ],
      "stateMutability": "view",
      "type": "function"
    },
    {
      "inputs": [],
      "name": "debtRatio",
      "outputs": [
        {
          "internalType": "uint256",
          "name": "",
          "type": "uint256"
        }
      ],
      "stateMutability": "view",
      "type": "function"
    },
    {
      "inputs": [
        {
          "internalType": "uint256",
          "name": "vaultID",
          "type": "uint256"
        },
        {
          "internalType": "uint256",
          "name": "amount",
          "type": "uint256"
        }
      ],
      "name": "depositCollateral",
      "outputs": [],
      "stateMutability": "nonpayable",
      "type": "function"
    },
    {
      "inputs": [
        {
          "internalType": "uint256",
          "name": "vaultID",
          "type": "uint256"
        }
      ],
      "name": "destroyVault",
      "outputs": [],
      "stateMutability": "nonpayable",
      "type": "function"
    },
    {
      "inputs": [],
      "name": "gainRatio",
      "outputs": [
        {
          "internalType": "uint256",
          "name": "",
          "type": "uint256"
        }
      ],
      "stateMutability": "view",
      "type": "function"
    },
    {
      "inputs": [],
      "name": "gateway",
      "outputs": [
        {
          "internalType": "address",
          "name": "",
          "type": "address"
        }
      ],
      "stateMutability": "view",
      "type": "function"
    },
    {
      "inputs": [
        {
          "internalType": "uint256",
          "name": "tokenId",
          "type": "uint256"
        }
      ],
      "name": "getApproved",
      "outputs": [
        {
          "internalType": "address",
          "name": "",
          "type": "address"
        }
      ],
      "stateMutability": "view",
      "type": "function"
    },
    {
      "inputs": [
        {
          "internalType": "address",
          "name": "user",
          "type": "address"
        }
      ],
      "name": "getPaid",
      "outputs": [],
      "stateMutability": "nonpayable",
      "type": "function"
    },
    {
      "inputs": [],
      "name": "getPricePeg",
      "outputs": [
        {
          "internalType": "uint256",
          "name": "",
          "type": "uint256"
        }
      ],
      "stateMutability": "view",
      "type": "function"
    },
    {
      "inputs": [],
      "name": "getPriceSource",
      "outputs": [
        {
          "internalType": "uint256",
          "name": "",
          "type": "uint256"
        }
      ],
      "stateMutability": "view",
      "type": "function"
    },
    {
      "inputs": [
        {
          "internalType": "bytes32",
          "name": "role",
          "type": "bytes32"
        }
      ],
      "name": "getRoleAdmin",
      "outputs": [
        {
          "internalType": "bytes32",
          "name": "",
          "type": "bytes32"
        }
      ],
      "stateMutability": "view",
      "type": "function"
    },
    {
      "inputs": [
        {
          "internalType": "bytes32",
          "name": "role",
          "type": "bytes32"
        },
        {
          "internalType": "address",
          "name": "account",
          "type": "address"
        }
      ],
      "name": "grantRole",
      "outputs": [],
      "stateMutability": "nonpayable",
      "type": "function"
    },
    {
      "inputs": [
        {
          "internalType": "bytes32",
          "name": "role",
          "type": "bytes32"
        },
        {
          "internalType": "address",
          "name": "account",
          "type": "address"
        }
      ],
      "name": "hasRole",
      "outputs": [
        {
          "internalType": "bool",
          "name": "",
          "type": "bool"
        }
      ],
      "stateMutability": "view",
      "type": "function"
    },
    {
      "inputs": [
        {
          "internalType": "uint256",
          "name": "minimumCollateralPercentage_",
          "type": "uint256"
        },
        {
          "internalType": "address",
          "name": "priceSource_",
          "type": "address"
        },
        {
          "internalType": "string",
          "name": "name_",
          "type": "string"
        },
        {
          "internalType": "string",
          "name": "symbol_",
          "type": "string"
        },
        {
          "internalType": "address",
          "name": "token_",
          "type": "address"
        }
      ],
      "name": "initialize",
      "outputs": [],
      "stateMutability": "nonpayable",
      "type": "function"
    },
    {
      "inputs": [
        {
          "internalType": "address",
          "name": "owner",
          "type": "address"
        },
        {
          "internalType": "address",
          "name": "operator",
          "type": "address"
        }
      ],
      "name": "isApprovedForAll",
      "outputs": [
        {
          "internalType": "bool",
          "name": "",
          "type": "bool"
        }
      ],
      "stateMutability": "view",
      "type": "function"
    },
    {
      "inputs": [
        {
          "internalType": "uint256",
          "name": "vaultID_",
          "type": "uint256"
        }
      ],
      "name": "liquidateVault",
      "outputs": [],
      "stateMutability": "nonpayable",
      "type": "function"
    },
    {
      "inputs": [],
      "name": "minimumCollateralPercentage",
      "outputs": [
        {
          "internalType": "uint256",
          "name": "",
          "type": "uint256"
        }
      ],
      "stateMutability": "view",
      "type": "function"
    },
    {
      "inputs": [],
      "name": "minimumDebt",
      "outputs": [
        {
          "internalType": "uint256",
          "name": "",
          "type": "uint256"
        }
      ],
      "stateMutability": "view",
      "type": "function"
    },
    {
      "inputs": [],
      "name": "mintingPaused",
      "outputs": [
        {
          "internalType": "bool",
          "name": "",
          "type": "bool"
        }
      ],
      "stateMutability": "view",
      "type": "function"
    },
    {
      "inputs": [],
      "name": "name",
      "outputs": [
        {
          "internalType": "string",
          "name": "",
          "type": "string"
        }
      ],
      "stateMutability": "view",
      "type": "function"
    },
    {
      "inputs": [],
      "name": "openingFee",
      "outputs": [
        {
          "internalType": "uint256",
          "name": "",
          "type": "uint256"
        }
      ],
      "stateMutability": "view",
      "type": "function"
    },
    {
      "inputs": [
        {
          "internalType": "uint256",
          "name": "tokenId",
          "type": "uint256"
        }
      ],
      "name": "ownerOf",
      "outputs": [
        {
          "internalType": "address",
          "name": "",
          "type": "address"
        }
      ],
      "stateMutability": "view",
      "type": "function"
    },
    {
      "inputs": [
        {
          "internalType": "uint256",
          "name": "vaultID",
          "type": "uint256"
        },
        {
          "internalType": "uint256",
          "name": "amount",
          "type": "uint256"
        }
      ],
      "name": "payBackToken",
      "outputs": [],
      "stateMutability": "nonpayable",
      "type": "function"
    },
    {
      "inputs": [],
      "name": "priceSource",
      "outputs": [
        {
          "internalType": "contract AggregatorV3Interface",
          "name": "",
          "type": "address"
        }
      ],
      "stateMutability": "view",
      "type": "function"
    },
    {
      "inputs": [
        {
          "internalType": "bytes32",
          "name": "role",
          "type": "bytes32"
        },
        {
          "internalType": "address",
          "name": "account",
          "type": "address"
        }
      ],
      "name": "renounceRole",
      "outputs": [],
      "stateMutability": "nonpayable",
      "type": "function"
    },
    {
      "inputs": [
        {
          "internalType": "bytes32",
          "name": "role",
          "type": "bytes32"
        },
        {
          "internalType": "address",
          "name": "account",
          "type": "address"
        }
      ],
      "name": "revokeRole",
      "outputs": [],
      "stateMutability": "nonpayable",
      "type": "function"
    },
    {
      "inputs": [
        {
          "internalType": "address",
          "name": "from",
          "type": "address"
        },
        {
          "internalType": "address",
          "name": "to",
          "type": "address"
        },
        {
          "internalType": "uint256",
          "name": "tokenId",
          "type": "uint256"
        }
      ],
      "name": "safeTransferFrom",
      "outputs": [],
      "stateMutability": "nonpayable",
      "type": "function"
    },
    {
      "inputs": [
        {
          "internalType": "address",
          "name": "from",
          "type": "address"
        },
        {
          "internalType": "address",
          "name": "to",
          "type": "address"
        },
        {
          "internalType": "uint256",
          "name": "tokenId",
          "type": "uint256"
        },
        {
          "internalType": "bytes",
          "name": "_data",
          "type": "bytes"
        }
      ],
      "name": "safeTransferFrom",
      "outputs": [],
      "stateMutability": "nonpayable",
      "type": "function"
    },
    {
      "inputs": [
        {
          "internalType": "address",
          "name": "operator",
          "type": "address"
        },
        {
          "internalType": "bool",
          "name": "approved",
          "type": "bool"
        }
      ],
      "name": "setApprovalForAll",
      "outputs": [],
      "stateMutability": "nonpayable",
      "type": "function"
    },
    {
      "inputs": [
        {
          "internalType": "uint256",
          "name": "amount",
          "type": "uint256"
        }
      ],
      "name": "setClosingFee",
      "outputs": [],
      "stateMutability": "nonpayable",
      "type": "function"
    },
    {
      "inputs": [
        {
          "internalType": "uint256",
          "name": "debtCeiling_",
          "type": "uint256"
        }
      ],
      "name": "setDebtCeiling",
      "outputs": [],
      "stateMutability": "nonpayable",
      "type": "function"
    },
    {
      "inputs": [
        {
          "internalType": "uint256",
          "name": "debtRatio_",
          "type": "uint256"
        }
      ],
      "name": "setDebtRatio",
      "outputs": [],
      "stateMutability": "nonpayable",
      "type": "function"
    },
    {
      "inputs": [
        {
          "internalType": "uint256",
          "name": "gainRatio_",
          "type": "uint256"
        }
      ],
      "name": "setGainRatio",
      "outputs": [],
      "stateMutability": "nonpayable",
      "type": "function"
    },
    {
      "inputs": [
        {
          "internalType": "address",
          "name": "gateway_",
          "type": "address"
        }
      ],
      "name": "setGateway",
      "outputs": [],
      "stateMutability": "nonpayable",
      "type": "function"
    },
    {
      "inputs": [
        {
          "internalType": "uint256",
          "name": "minimumDebt_",
          "type": "uint256"
        }
      ],
      "name": "setMinimumDebt",
      "outputs": [],
      "stateMutability": "nonpayable",
      "type": "function"
    },
    {
      "inputs": [
        {
          "internalType": "bool",
          "name": "paused_",
          "type": "bool"
        }
      ],
      "name": "setMintingPaused",
      "outputs": [],
      "stateMutability": "nonpayable",
      "type": "function"
    },
    {
      "inputs": [
        {
          "internalType": "uint256",
          "name": "amount",
          "type": "uint256"
        }
      ],
      "name": "setOpeningFee",
      "outputs": [],
      "stateMutability": "nonpayable",
      "type": "function"
    },
    {
      "inputs": [
        {
          "internalType": "address",
          "name": "priceSource_",
          "type": "address"
        }
      ],
      "name": "setPriceSource",
      "outputs": [],
      "stateMutability": "nonpayable",
      "type": "function"
    },
    {
      "inputs": [
        {
          "internalType": "address",
          "name": "stabilityPool_",
          "type": "address"
        }
      ],
      "name": "setStabilityPool",
      "outputs": [],
      "stateMutability": "nonpayable",
      "type": "function"
    },
    {
      "inputs": [
        {
          "internalType": "uint256",
          "name": "tokenPeg_",
          "type": "uint256"
        }
      ],
      "name": "setTokenPeg",
      "outputs": [],
      "stateMutability": "nonpayable",
      "type": "function"
    },
    {
      "inputs": [
        {
          "internalType": "uint256",
          "name": "treasury_",
          "type": "uint256"
        }
      ],
      "name": "setTreasury",
      "outputs": [],
      "stateMutability": "nonpayable",
      "type": "function"
    },
    {
      "inputs": [],
      "name": "stabilityPool",
      "outputs": [
        {
          "internalType": "address",
          "name": "",
          "type": "address"
        }
      ],
      "stateMutability": "view",
      "type": "function"
    },
    {
      "inputs": [
        {
          "internalType": "bytes4",
          "name": "interfaceId",
          "type": "bytes4"
        }
      ],
      "name": "supportsInterface",
      "outputs": [
        {
          "internalType": "bool",
          "name": "",
          "type": "bool"
        }
      ],
      "stateMutability": "view",
      "type": "function"
    },
    {
      "inputs": [],
      "name": "symbol",
      "outputs": [
        {
          "internalType": "string",
          "name": "",
          "type": "string"
        }
      ],
      "stateMutability": "view",
      "type": "function"
    },
    {
      "inputs": [],
      "name": "token",
      "outputs": [
        {
          "internalType": "contract IERC20Metadata",
          "name": "",
          "type": "address"
        }
      ],
      "stateMutability": "view",
      "type": "function"
    },
    {
      "inputs": [
        {
          "internalType": "uint256",
          "name": "index",
          "type": "uint256"
        }
      ],
      "name": "tokenByIndex",
      "outputs": [
        {
          "internalType": "uint256",
          "name": "",
          "type": "uint256"
        }
      ],
      "stateMutability": "view",
      "type": "function"
    },
    {
      "inputs": [
        {
          "internalType": "address",
          "name": "",
          "type": "address"
        }
      ],
      "name": "tokenDebt",
      "outputs": [
        {
          "internalType": "uint256",
          "name": "",
          "type": "uint256"
        }
      ],
      "stateMutability": "view",
      "type": "function"
    },
    {
      "inputs": [
        {
          "internalType": "address",
          "name": "owner",
          "type": "address"
        },
        {
          "internalType": "uint256",
          "name": "index",
          "type": "uint256"
        }
      ],
      "name": "tokenOfOwnerByIndex",
      "outputs": [
        {
          "internalType": "uint256",
          "name": "",
          "type": "uint256"
        }
      ],
      "stateMutability": "view",
      "type": "function"
    },
    {
      "inputs": [],
      "name": "tokenPeg",
      "outputs": [
        {
          "internalType": "uint256",
          "name": "",
          "type": "uint256"
        }
      ],
      "stateMutability": "view",
      "type": "function"
    },
    {
      "inputs": [
        {
          "internalType": "uint256",
          "name": "tokenId",
          "type": "uint256"
        }
      ],
      "name": "tokenURI",
      "outputs": [
        {
          "internalType": "string",
          "name": "",
          "type": "string"
        }
      ],
      "stateMutability": "view",
      "type": "function"
    },
    {
      "inputs": [],
      "name": "totalDebt",
      "outputs": [
        {
          "internalType": "uint256",
          "name": "",
          "type": "uint256"
        }
      ],
      "stateMutability": "view",
      "type": "function"
    },
    {
      "inputs": [],
      "name": "totalSupply",
      "outputs": [
        {
          "internalType": "uint256",
          "name": "",
          "type": "uint256"
        }
      ],
      "stateMutability": "view",
      "type": "function"
    },
    {
      "inputs": [
        {
          "internalType": "address",
          "name": "from",
          "type": "address"
        },
        {
          "internalType": "address",
          "name": "to",
          "type": "address"
        },
        {
          "internalType": "uint256",
          "name": "tokenId",
          "type": "uint256"
        }
      ],
      "name": "transferFrom",
      "outputs": [],
      "stateMutability": "nonpayable",
      "type": "function"
    },
    {
      "inputs": [
        {
          "internalType": "uint256",
          "name": "vaultID",
          "type": "uint256"
        },
        {
          "internalType": "address",
          "name": "to",
          "type": "address"
        }
      ],
      "name": "transferVault",
      "outputs": [],
      "stateMutability": "nonpayable",
      "type": "function"
    },
    {
      "inputs": [],
      "name": "treasury",
      "outputs": [
        {
          "internalType": "uint256",
          "name": "",
          "type": "uint256"
        }
      ],
      "stateMutability": "view",
      "type": "function"
    },
    {
      "inputs": [
        {
          "internalType": "uint256",
          "name": "",
          "type": "uint256"
        }
      ],
      "name": "vaultCollateral",
      "outputs": [
        {
          "internalType": "uint256",
          "name": "",
          "type": "uint256"
        }
      ],
      "stateMutability": "view",
      "type": "function"
    },
    {
      "inputs": [],
      "name": "vaultCounts",
      "outputs": [
        {
          "internalType": "uint256",
          "name": "",
          "type": "uint256"
        }
      ],
      "stateMutability": "view",
      "type": "function"
    },
    {
      "inputs": [
        {
          "internalType": "uint256",
          "name": "",
          "type": "uint256"
        }
      ],
      "name": "vaultDebt",
      "outputs": [
        {
          "internalType": "uint256",
          "name": "",
          "type": "uint256"
        }
      ],
      "stateMutability": "view",
      "type": "function"
    },
    {
      "inputs": [
        {
          "internalType": "uint256",
          "name": "vaultID",
          "type": "uint256"
        }
      ],
      "name": "vaultExists",
      "outputs": [
        {
          "internalType": "bool",
          "name": "",
          "type": "bool"
        }
      ],
      "stateMutability": "view",
      "type": "function"
    },
    {
      "inputs": [
        {
          "internalType": "uint256",
          "name": "vaultID",
          "type": "uint256"
        },
        {
          "internalType": "uint256",
          "name": "amount",
          "type": "uint256"
        }
      ],
      "name": "withdrawCollateral",
      "outputs": [],
      "stateMutability": "nonpayable",
      "type": "function"
    }
  ],
  "transactionHash": "0x6e8e7958003a27d7536349f6a6cccb6c750f39279a1fe7df4b3e7928a3465e64",
  "args": [],
  "solcInputHash": "e65cbe848c2817d709a372c0939817ba",
  "bytecode": "0x608060405234801561001057600080fd5b50615ebc80620000216000396000f3fe608060405234801561001057600080fd5b50600436106104725760003560e01c80637558abc811610250578063bda5310711610150578063dcd68128116100c8578063eb6a887d11610097578063fc0c546a1161007c578063fc0c546a146109ac578063fc7b9c18146109c0578063ffc73da7146109ca57600080fd5b8063eb6a887d14610986578063ece137321461099957600080fd5b8063dcd681281461090e578063e1a283d614610932578063e1c84ea414610940578063e985e9c51461094a57600080fd5b8063cea55f571161011f578063d310f49b11610104578063d310f49b146108b9578063d4a9b2c5146108da578063d547741f146108fb57600080fd5b8063cea55f571461089a578063d11a57ec146108a457600080fd5b8063bda5310714610860578063c87b56dd14610873578063c91ee83d14610886578063cdfedd631461089057600080fd5b806395d89b41116101e3578063a22cb465116101b2578063b1511cc911610197578063b1511cc914610827578063b86f6aef1461083a578063b88d4fde1461084d57600080fd5b8063a22cb46514610801578063ad13419d1461081457600080fd5b806395d89b41146107d557806398d721e0146107dd5780639fc30f1c146107f0578063a217fddf146107f957600080fd5b8063863759941161021f578063863759941461076357806390646b4a1461077657806390cf0bba1461078957806391d148541461079c57600080fd5b80637558abc814610709578063767a7b051461072a57806385af3c161461073d57806385e290a31461075057600080fd5b80632f2ff15d116103765780634f6ccce7116102ee5780636352211e116102bd57806370a08231116102a257806370a08231146106d95780637139c929146106ec578063728bbbb5146106ff57600080fd5b80636352211e146106b357806363b8817c146106c657600080fd5b80634f6ccce71461067b57806356572ac01461068e5780635d12928b146106a157806361d027b3146106a957600080fd5b80633db991771161034557806341a5068f1161032a57806341a5068f1461064d57806342842e0e1461066057806344382f0f1461067357600080fd5b80633db99177146106275780633e61facd1461063a57600080fd5b80632f2ff15d146105e45780632f745c59146105f7578063311f392a1461060a57806336568abe1461061457600080fd5b80630a998f53116104095780631c883e7b116103d857806323b872dd116103bd57806323b872dd146105a4578063248a9ca3146105b75780632935d2bc146105da57600080fd5b80631c883e7b1461058657806320531bc91461059057600080fd5b80630a998f5314610544578063116191b61461055757806311b4a8321461056b57806318160ddd1461057e57600080fd5b806306fdde031161044557806306fdde03146104f6578063081812fc1461050b57806308ec59271461051e578063095ea7b31461053157600080fd5b806301e49d0a1461047757806301ffc9a71461048c578063048c661d146104b4578063048de381146104e0575b600080fd5b61048a6104853660046158fe565b6109dd565b005b61049f61049a366004615938565b610a89565b60405190151581526020015b60405180910390f35b61013a546104c8906001600160a01b031681565b6040516001600160a01b0390911681526020016104ab565b6104e8610a9a565b6040519081526020016104ab565b6104fe610ba6565b6040516104ab9190615bcd565b6104c86105193660046158fe565b610c38565b61048a61052c366004615a14565b610ccd565b61048a61053f36600461589d565b611135565b61048a6105523660046158fe565b611267565b61013b546104c8906001600160a01b031681565b6104e86105793660046158fe565b611381565b6099546104e8565b6104e86101305481565b610137546104c8906001600160a01b031681565b61048a6105b23660046157b3565b611423565b6104e86105c53660046158fe565b600090815260fb602052604090206001015490565b6104e861012e5481565b61048a6105f2366004615916565b6114aa565b6104e861060536600461589d565b6114d0565b6104e86101355481565b61048a610622366004615916565b611578565b61048a6106353660046158fe565b611604565b61048a610648366004615916565b6116e7565b61048a61065b366004615988565b611814565b61048a61066e3660046157b3565b611a03565b6104e8611a1e565b6104e86106893660046158fe565b611a2f565b6104e861069c3660046158fe565b611ae1565b61048a611c46565b6104e861013c5481565b6104c86106c13660046158fe565b611cd7565b61048a6106d4366004615767565b611d62565b6104e86106e7366004615767565b611f29565b61048a6106fa3660046158fe565b611fc3565b6104e86101315481565b6104e8610717366004615767565b6101366020526000908152604090205481565b61048a610738366004615a14565b612039565b61048a61074b366004615a14565b612304565b61048a61075e3660046158fe565b612714565b61048a6107713660046158fe565b61292c565b61048a610784366004615767565b61297b565b61048a6107973660046158fe565b612aad565b61049f6107aa366004615916565b600091825260fb602090815260408084206001600160a01b0393909316845291905290205460ff1690565b6104fe613106565b61048a6107eb366004615767565b613115565b610132546104e8565b6104e8600081565b61048a61080f366004615867565b61326d565b61048a6108223660046158c6565b613332565b61048a6108353660046158fe565b6133de565b61049f6108483660046158fe565b6134a6565b61048a61085b3660046157ee565b61364a565b61048a61086e366004615767565b6136d8565b6104fe6108813660046158fe565b6137bc565b6104e86101405481565b6104e86101325481565b6104e86101345481565b6104e8600080516020615e6783398151915281565b6104e86108c73660046158fe565b61013f6020526000908152604090205481565b6104e86108e83660046158fe565b61013e6020526000908152604090205481565b61048a610909366004615916565b6138b1565b61049f61091c3660046158fe565b600090815261013d602052604090205460ff1690565b6101415461049f9060ff1681565b6104e861012f5481565b61049f610958366004615781565b6001600160a01b039182166000908152606a6020908152604080832093909416825291909152205460ff1690565b61048a6109943660046158fe565b6138d7565b61048a6109a7366004615a14565b61396c565b610138546104c8906001600160a01b031681565b6104e86101335481565b61048a6109d83660046158fe565b613af0565b600080516020615e678339815191526109f68133613b83565b60008211610a4b5760405162461bcd60e51b815260206004820152601260248201527f5065672063616e6e6f74206265207a65726f000000000000000000000000000060448201526064015b60405180910390fd5b6101328290556040518281527f657d2b8cd9c1cd7fc4cfad3db71318ea067f53cfeb214befc5af59ed860d5a16906020015b60405180910390a15050565b6000610a9482613c03565b92915050565b60008061013760009054906101000a90046001600160a01b03166001600160a01b031663feaf968c6040518163ffffffff1660e01b815260040160a06040518083038186803b158015610aec57600080fd5b505afa158015610b00573d6000803e3d6000fd5b505050506040513d601f19601f82011682018060405250810190610b249190615a35565b5050509150506000811215610ba15760405162461bcd60e51b815260206004820152602360248201527f436861696e6c696e6b2072657475726e65642061206e6567617469766520707260448201527f69636500000000000000000000000000000000000000000000000000000000006064820152608401610a42565b919050565b606060658054610bb590615d96565b80601f0160208091040260200160405190810160405280929190818152602001828054610be190615d96565b8015610c2e5780601f10610c0357610100808354040283529160200191610c2e565b820191906000526020600020905b815481529060010190602001808311610c1157829003601f168201915b5050505050905090565b6000818152606760205260408120546001600160a01b0316610cb15760405162461bcd60e51b815260206004820152602c60248201527f4552433732313a20617070726f76656420717565727920666f72206e6f6e657860448201526b34b9ba32b73a103a37b5b2b760a11b6064820152608401610a42565b506000908152606960205260409020546001600160a01b031690565b600082815261013d6020526040902054829060ff16610d255760405162461bcd60e51b815260206004820152601460248201527315985d5b1d08191bd95cc81b9bdd08195e1a5cdd60621b6044820152606401610a42565b33610d2f82611cd7565b6001600160a01b03161480610d4f575061013b546001600160a01b031633145b610d9b5760405162461bcd60e51b815260206004820152601960248201527f5661756c74206973206e6f74206f776e656420627920796f75000000000000006044820152606401610a42565b600260c9541415610dee5760405162461bcd60e51b815260206004820152601f60248201527f5265656e7472616e637947756172643a207265656e7472616e742063616c6c006044820152606401610a42565b600260c9556101415460ff1615610e935760405162461bcd60e51b815260206004820152605d60248201527f4d696e74696e6720666f7220746869732062616e6b206973207061757365642e60448201527f204465706f736974732c207061796d656e74732c20616e64207769746864726160648201527f77616c732061726520616c6c207374696c6c2066756e6374696f6e616c000000608482015260a401610a42565b60008211610ee35760405162461bcd60e51b815260206004820152601b60248201527f4d75737420626f72726f77206e6f6e2d7a65726f20616d6f756e7400000000006044820152606401610a42565b61012f548261013354610ef69190615be0565b1115610f445760405162461bcd60e51b815260206004820152601e60248201527f43616e6e6f74206d696e74206f7665722064656274206365696c696e672e00006044820152606401610a42565b600083815261013f6020526040812054610f5f908490615be0565b600085815261013e6020526040902054909150610f7c9082613c41565b610fee5760405162461bcd60e51b815260206004820152603a60248201527f426f72726f7720776f756c6420707574207661756c742062656c6f77206d696e60448201527f696d756d20636f6c6c61746572616c2070657263656e746167650000000000006064820152608401610a42565b610140548110156110675760405162461bcd60e51b815260206004820152602f60248201527f426f72726f77206e6565647320746f206265206c6172676572207468616e207460448201527f6865206d696e696d756d206465627400000000000000000000000000000000006064820152608401610a42565b6110718484613d19565b610139546040517f40c10f19000000000000000000000000000000000000000000000000000000008152336004820152602481018590526001600160a01b03909116906340c10f1990604401600060405180830381600087803b1580156110d757600080fd5b505af11580156110eb573d6000803e3d6000fd5b505060408051878152602081018790527f3e08df88d8e28f37df9bf227d3142ac506a364403445661a60891a49ed6792ca93500190505b60405180910390a15050600160c9555050565b600061114082611cd7565b9050806001600160a01b0316836001600160a01b031614156111ca5760405162461bcd60e51b815260206004820152602160248201527f4552433732313a20617070726f76616c20746f2063757272656e74206f776e6560448201527f72000000000000000000000000000000000000000000000000000000000000006064820152608401610a42565b336001600160a01b03821614806111e657506111e68133610958565b6112585760405162461bcd60e51b815260206004820152603860248201527f4552433732313a20617070726f76652063616c6c6572206973206e6f74206f7760448201527f6e6572206e6f7220617070726f76656420666f7220616c6c00000000000000006064820152608401610a42565b6112628383613e31565b505050565b600080516020615e678339815191526112808133613b83565b600082116112d05760405162461bcd60e51b815260206004820152601b60248201527f4d696e696d756d20646562742063616e6e6f74206265207a65726f00000000006044820152606401610a42565b61012f54610140541061134b5760405162461bcd60e51b815260206004820152603060248201527f4d696e696d756d20646562742063616e6e6f742062652067726561746572207460448201527f68616e2064656274206365696c696e67000000000000000000000000000000006064820152608401610a42565b6101408290556040518281527fe9031d105129d4c03f829c02017c30a898f35e17ddf050fdd090c416442bec5a90602001610a7d565b600081815261013d602052604081205460ff166113d35760405162461bcd60e51b815260206004820152601060248201526f15985d5b1d081b5d5cdd08195e1a5cdd60821b6044820152606401610a42565b600082815261013e602090815260408083205461013f9092528220546113f99190613e9f565b915050610132548161140b9190615bf8565b9050610134548161141c9190615bf8565b9392505050565b61142d3382613f8e565b61149f5760405162461bcd60e51b815260206004820152603160248201527f4552433732313a207472616e736665722063616c6c6572206973206e6f74206f60448201527f776e6572206e6f7220617070726f7665640000000000000000000000000000006064820152608401610a42565b611262838383614081565b600082815260fb60205260409020600101546114c68133613b83565b61126283836140c9565b60006114db83611f29565b821061154f5760405162461bcd60e51b815260206004820152602b60248201527f455243373231456e756d657261626c653a206f776e657220696e646578206f7560448201527f74206f6620626f756e64730000000000000000000000000000000000000000006064820152608401610a42565b506001600160a01b03919091166000908152609760209081526040808320938352929052205490565b6001600160a01b03811633146115f65760405162461bcd60e51b815260206004820152602f60248201527f416363657373436f6e74726f6c3a2063616e206f6e6c792072656e6f756e636560448201527f20726f6c657320666f722073656c6600000000000000000000000000000000006064820152608401610a42565b611600828261416b565b5050565b600080516020615e6783398151915261161d8133613b83565b60fa82111561166e5760405162461bcd60e51b815260206004820152601e60248201527f436c6f73696e67206665652063616e6e6f742062652061626f766520312500006044820152606401610a42565b6305f5e10061167f83612710615be0565b6101345461013554611693906103e8615cfa565b61169d9190615bf8565b6116a79190615cfa565b106116b157600080fd5b6101308290556040518281527f2be5116c37a9989b15d218af1d929034cabc673c9c821d52a901411be5eafd2890602001610a7d565b600082815261013d6020526040902054829060ff1661173f5760405162461bcd60e51b815260206004820152601460248201527315985d5b1d08191bd95cc81b9bdd08195e1a5cdd60621b6044820152606401610a42565b3361174982611cd7565b6001600160a01b03161480611769575061013b546001600160a01b031633145b6117b55760405162461bcd60e51b815260206004820152601960248201527f5661756c74206973206e6f74206f776e656420627920796f75000000000000006044820152606401610a42565b6117be836141ee565b6117c88284614295565b604080518481523360208201526001600160a01b0384168183015290517fa8159d062909288cfe1bc71a9cb71a800664f2658fc2588d52676a844f1b0f139181900360600190a1505050565b600054610100900460ff168061182d575060005460ff16155b6118905760405162461bcd60e51b815260206004820152602e60248201527f496e697469616c697a61626c653a20636f6e747261637420697320616c72656160448201526d191e481a5b9a5d1a585b1a5e995960921b6064820152608401610a42565b600054610100900460ff161580156118b2576000805461ffff19166101011790555b6118ba6143e3565b6118c26143e3565b6118cc8484614495565b6118d46143e3565b6118dc614571565b6118e46143e3565b6001600160a01b03851661190857634e487b7160e01b600052600160045260246000fd5b606486101561192757634e487b7160e01b600052600160045260246000fd5b678ac7230489e8000061012f55604b6101305560006101318190556305f5e10061013255600261013455600b6101355561013a80546001600160a01b031990811690915561013b805482169055610137805482166001600160a01b0389811691909117909155610138805483169186169190911790556101398054339216821790556119b39190614628565b6119cb600080516020615e6783398151915233614628565b6119e3600080516020615e6783398151915280614632565b61012e86905580156119fb576000805461ff00191690555b505050505050565b6112628383836040518060200160405280600081525061364a565b6000611a2a61012d5490565b905090565b6000611a3a60995490565b8210611aae5760405162461bcd60e51b815260206004820152602c60248201527f455243373231456e756d657261626c653a20676c6f62616c20696e646578206f60448201527f7574206f6620626f756e647300000000000000000000000000000000000000006064820152608401610a42565b60998281548110611acf57634e487b7160e01b600052603260045260246000fd5b90600052602060002001549050919050565b600081815261013d602052604081205460ff16611b335760405162461bcd60e51b815260206004820152601060248201526f15985d5b1d081b5d5cdd08195e1a5cdd60821b6044820152606401610a42565b600082815261013e602090815260408083205461013f909252822054611b599190613e9f565b915050600061013860009054906101000a90046001600160a01b03166001600160a01b031663313ce5676040518163ffffffff1660e01b815260040160206040518083038186803b158015611bad57600080fd5b505afa158015611bc1573d6000803e3d6000fd5b505050506040513d601f19601f82011682018060405250810190611be59190615a78565b611bf0906012615d30565b611bfb90600a615c4f565b61013454611c07610a9a565b611c1290600a615cfa565b611c1c9190615cfa565b61013554611c2a9085615cfa565b611c349190615bf8565b611c3e9190615bf8565b949350505050565b611c5561012d80546001019055565b6000611c6161012d5490565b600081815261013d602052604090819020805460ff19166001179055519091507f8b6c1d05c678fa59695e26465a85918ce0fc63a88f74af53d1daef8f0a9c780490611cc290839033909182526001600160a01b0316602082015260400190565b60405180910390a1611cd43382614295565b50565b6000818152606760205260408120546001600160a01b031680610a945760405162461bcd60e51b815260206004820152602960248201527f4552433732313a206f776e657220717565727920666f72206e6f6e657869737460448201527f656e7420746f6b656e00000000000000000000000000000000000000000000006064820152608401610a42565b600260c9541415611db55760405162461bcd60e51b815260206004820152601f60248201527f5265656e7472616e637947756172643a207265656e7472616e742063616c6c006044820152606401610a42565b600260c95580336001600160a01b0382161480611ddd575061013b546001600160a01b031633145b611e295760405162461bcd60e51b815260206004820152601c60248201527f43616e6e6f74206765742070616964206966206e6f7420796f757273000000006044820152606401610a42565b6001600160a01b03821660009081526101366020526040902054611eb55760405162461bcd60e51b815260206004820152602860248201527f4e6f206c69717569646174696f6e73206173736f63696174656420776974682060448201527f6163636f756e742e0000000000000000000000000000000000000000000000006064820152608401610a42565b6001600160a01b038083166000908152610136602052604081208054919055610138549091611ee69116338361467d565b604080518281523360208201527f45f23935dce154b3c7ff256ac2402f7700f39ce5b210b7da385215939fc4c5c891015b60405180910390a15050600160c95550565b60006001600160a01b038216611fa75760405162461bcd60e51b815260206004820152602a60248201527f4552433732313a2062616c616e636520717565727920666f7220746865207a6560448201527f726f2061646472657373000000000000000000000000000000000000000000006064820152608401610a42565b506001600160a01b031660009081526068602052604090205490565b600080516020615e67833981519152611fdc8133613b83565b600082815261013d602052604090205460ff166120325760405162461bcd60e51b815260206004820152601460248201527315985d5b1d08191bd95cc81b9bdd08195e1a5cdd60621b6044820152606401610a42565b5061013c55565b600082815261013d6020526040902054829060ff166120915760405162461bcd60e51b815260206004820152601460248201527315985d5b1d08191bd95cc81b9bdd08195e1a5cdd60621b6044820152606401610a42565b3361209b82611cd7565b6001600160a01b031614806120bb575061013b546001600160a01b031633145b6121075760405162461bcd60e51b815260206004820152601960248201527f5661756c74206973206e6f74206f776e656420627920796f75000000000000006044820152606401610a42565b600260c954141561215a5760405162461bcd60e51b815260206004820152601f60248201527f5265656e7472616e637947756172643a207265656e7472616e742063616c6c006044820152606401610a42565b600260c955600083815261013e60205260409020548211156121e45760405162461bcd60e51b815260206004820152602560248201527f5661756c7420646f6573206e6f74206861766520656e6f75676820636f6c6c6160448201527f746572616c0000000000000000000000000000000000000000000000000000006064820152608401610a42565b600083815261013e60205260408120546121ff908490615d19565b600085815261013f6020526040902054909150156122a457600084815261013f6020526040902054612232908290613c41565b6122a45760405162461bcd60e51b815260206004820152603e60248201527f5769746864726177616c20776f756c6420707574207661756c742062656c6f7760448201527f206d696e696d756d20636f6c6c61746572616c2070657263656e7461676500006064820152608401610a42565b600084815261013e60205260409020819055610138546122ce906001600160a01b0316338561467d565b60408051858152602081018590527f6c0ea3bea9dd66afa8f9d39d6eb93d833466190330813b42835efc650dca4cb99101611122565b600082815261013d6020526040902054829060ff1661235c5760405162461bcd60e51b815260206004820152601460248201527315985d5b1d08191bd95cc81b9bdd08195e1a5cdd60621b6044820152606401610a42565b3361236682611cd7565b6001600160a01b03161480612386575061013b546001600160a01b031633145b6123d25760405162461bcd60e51b815260206004820152601960248201527f5661756c74206973206e6f74206f776e656420627920796f75000000000000006044820152606401610a42565b600260c95414156124255760405162461bcd60e51b815260206004820152601f60248201527f5265656e7472616e637947756172643a207265656e7472616e742063616c6c006044820152606401610a42565b600260c955610139546040516370a0823160e01b815233600482015283916001600160a01b0316906370a082319060240160206040518083038186803b15801561246e57600080fd5b505afa158015612482573d6000803e3d6000fd5b505050506040513d601f19601f820116820180604052508101906124a69190615970565b10156124f45760405162461bcd60e51b815260206004820152601560248201527f546f6b656e2062616c616e636520746f6f206c6f7700000000000000000000006044820152606401610a42565b600083815261013f60205260409020548211156125795760405162461bcd60e51b815260206004820152602760248201527f5661756c742064656274206c657373207468616e20616d6f756e7420746f207060448201527f6179206261636b000000000000000000000000000000000000000000000000006064820152608401610a42565b610138546040805163313ce56760e01b815290516000926001600160a01b03169163313ce567916004808301926020929190829003018186803b1580156125bf57600080fd5b505afa1580156125d3573d6000803e3d6000fd5b505050506040513d601f19601f820116820180604052508101906125f79190615a78565b612602906012615d30565b61260d90600a615c4f565b612615610a9a565b61262190612710615cfa565b61013254610130546126339087615cfa565b61263d9190615cfa565b6126479190615bf8565b6126519190615bf8565b905061265d848461470e565b6126678482614894565b6126708161497b565b61013954604051632770a7eb60e21b8152336004820152602481018590526001600160a01b0390911690639dc29fac90604401600060405180830381600087803b1580156126bd57600080fd5b505af11580156126d1573d6000803e3d6000fd5b505060408051878152602081018790529081018490527f31f96762af4051f367185773cc2f55bfb112a6c114b3407ded1f321a9eb199ac92506060019050611122565b600081815261013d6020526040902054819060ff1661276c5760405162461bcd60e51b815260206004820152601460248201527315985d5b1d08191bd95cc81b9bdd08195e1a5cdd60621b6044820152606401610a42565b3361277682611cd7565b6001600160a01b03161480612796575061013b546001600160a01b031633145b6127e25760405162461bcd60e51b815260206004820152601960248201527f5661756c74206973206e6f74206f776e656420627920796f75000000000000006044820152606401610a42565b600260c95414156128355760405162461bcd60e51b815260206004820152601f60248201527f5265656e7472616e637947756172643a207265656e7472616e742063616c6c006044820152606401610a42565b600260c955600082815261013f6020526040902054156128975760405162461bcd60e51b815260206004820152601960248201527f5661756c74206173206f75747374616e64696e672064656274000000000000006044820152606401610a42565b600082815261013e60205260409020546128b0836141ee565b600083815261013d60209081526040808320805460ff1916905561013e825280832083905561013f90915281205580156128fc57610138546128fc906001600160a01b0316338361467d565b6040518381527f4fe08624ee65b341c38ab9693d216b909d4ddee1bc8d3fe0fea14026c361b46590602001611f17565b600080516020615e678339815191526129458133613b83565b6101318290556040518281527ff78536edc296a3a7e991e00caa8319c68a84cc56f22e8c9118463773d0844b9390602001610a7d565b600080516020615e678339815191526129948133613b83565b6001600160a01b0382166129ea5760405162461bcd60e51b815260206004820152601e60248201527f476174657761792063616e6e6f74206265207a65726f206164647265737300006044820152606401610a42565b813b612a5e5760405162461bcd60e51b815260206004820152602560248201527f4d757374206265206120636f6e747261637420746f206265207468652067617460448201527f657761792e0000000000000000000000000000000000000000000000000000006064820152608401610a42565b61013b80546001600160a01b0319166001600160a01b0384169081179091556040519081527f138dfef152fa4f095c1158aad1b384e3c43de632c031e8e37e149917e690075790602001610a7d565b61013a546001600160a01b03161580612ad1575061013a546001600160a01b031633145b612b435760405162461bcd60e51b815260206004820152602160248201527f6275795269736b795661756c742064697361626c656420666f72207075626c6960448201527f63000000000000000000000000000000000000000000000000000000000000006064820152608401610a42565b600260c9541415612b965760405162461bcd60e51b815260206004820152601f60248201527f5265656e7472616e637947756172643a207265656e7472616e742063616c6c006044820152606401610a42565b600260c955600081815261013d602052604090205460ff16612bf15760405162461bcd60e51b815260206004820152601460248201527315985d5b1d08191bd95cc81b9bdd08195e1a5cdd60621b6044820152606401610a42565b600081815261013e602090815260408083205461013f9092528220548291612c1891613e9f565b9150915060008111612c6c5760405162461bcd60e51b815260206004820152601160248201527f5661756c7420686173206e6f20646562740000000000000000000000000000006044820152606401610a42565b60008161013860009054906101000a90046001600160a01b03166001600160a01b031663313ce5676040518163ffffffff1660e01b815260040160206040518083038186803b158015612cbe57600080fd5b505afa158015612cd2573d6000803e3d6000fd5b505050506040513d601f19601f82011682018060405250810190612cf69190615a78565b612d01906012615d30565b612d0c90600a615c4f565b612d169085615cfa565b612d209190615bf8565b905061012e548110612d9a5760405162461bcd60e51b815260206004820152603060248201527f5661756c74206973206e6f742062656c6f77206d696e696d756d20636f6c6c6160448201527f746572616c2070657263656e74616765000000000000000000000000000000006064820152608401610a42565b6000612da585611ae1565b90506000612db286611381565b610139546040516370a0823160e01b815233600482015291925082916001600160a01b03909116906370a082319060240160206040518083038186803b158015612dfb57600080fd5b505afa158015612e0f573d6000803e3d6000fd5b505050506040513d601f19601f82011682018060405250810190612e339190615970565b1015612ea75760405162461bcd60e51b815260206004820152603160248201527f546f6b656e2062616c616e636520746f6f206c6f7720746f20706179206f666660448201527f206f75747374616e64696e6720646562740000000000000000000000000000006064820152608401610a42565b61013954604051632770a7eb60e21b8152336004820152602481018390526001600160a01b0390911690639dc29fac90604401600060405180830381600087803b158015612ef457600080fd5b505af1158015612f08573d6000803e3d6000fd5b505050600087815261013f602052604081208054849350909190612f2d908490615d19565b9091555050610138546040805163313ce56760e01b815290516000926001600160a01b03169163313ce567916004808301926020929190829003018186803b158015612f7857600080fd5b505afa158015612f8c573d6000803e3d6000fd5b505050506040513d601f19601f82011682018060405250810190612fb09190615a78565b612fbb906012615d30565b612fc690600a615c4f565b612fce610a9a565b612fda90612710615cfa565b6101325461013054612fec9086615cfa565b612ff69190615cfa565b6130009190615bf8565b61300a9190615bf8565b90506130168382615be0565b600088815261013e602052604081208054909190613035908490615d19565b909155505061013c54600090815261013e60205260408120805483929061305d908490615be0565b9091555050336000908152610136602052604081208054859290613082908490615be0565b909155506130919050826149e5565b7f4d151d3a98b83151d51917640c221f8c8e3c054422ea1b48dcbbd57e3f4210d5876130bc89611cd7565b604080519283526001600160a01b0390911660208301523390820152606081018490526080810185905260a0810183905260c00160405180910390a15050600160c9555050505050565b606060668054610bb590615d96565b600080516020615e6783398151915261312e8133613b83565b6001600160a01b0382166131aa5760405162461bcd60e51b815260206004820152602560248201527f53746162696c69747920706f6f6c2063616e6e6f74206265207a65726f20616460448201527f64726573730000000000000000000000000000000000000000000000000000006064820152608401610a42565b813b61321e5760405162461bcd60e51b815260206004820152602c60248201527f4d757374206265206120636f6e747261637420746f206265207468652073746160448201527f62696c69747920706f6f6c2e00000000000000000000000000000000000000006064820152608401610a42565b61013a80546001600160a01b0319166001600160a01b0384169081179091556040519081527feeec3ab95f3c876a3b73235ba92edc637a2edd294b997b5758fbf556f7953b9f90602001610a7d565b6001600160a01b0382163314156132c65760405162461bcd60e51b815260206004820152601960248201527f4552433732313a20617070726f766520746f2063616c6c6572000000000000006044820152606401610a42565b336000818152606a602090815260408083206001600160a01b03871680855290835292819020805460ff191686151590811790915590519081529192917f17307eab39ab6107e8899845ad3d59bd9653f200f220920489ca2b5937696c31910160405180910390a35050565b600080516020615e6783398151915261334b8133613b83565b6101415460ff1615821515146133c95760405162461bcd60e51b815260206004820152602960248201527f4d696e74696e672070617573656420616c72656164792073657420746f20746860448201527f69732076616c75652e00000000000000000000000000000000000000000000006064820152608401610a42565b50610141805460ff1916911515919091179055565b600080516020615e678339815191526133f78133613b83565b8161012f5411156134705760405162461bcd60e51b815260206004820152603c60248201527f7365744365696c696e673a204d757374206265206f7665722074686520616d6f60448201527f756e74206f662063757272656e742064656274206365696c696e672e000000006064820152608401610a42565b61012f8290556040518281527f9e88375210357aa5dbeb756c2deee5a1a487e6dcd9fa8f444eda3bc7df41a37b90602001610a7d565b600081815261013d602052604081205460ff166134f85760405162461bcd60e51b815260206004820152601060248201526f15985d5b1d081b5d5cdd08195e1a5cdd60821b6044820152606401610a42565b600082815261013e602090815260408083205461013f909252822054829161351f91613e9f565b91509150600081116135735760405162461bcd60e51b815260206004820152601560248201527f43616e6e6f742068617665207a65726f206465627400000000000000000000006044820152606401610a42565b60008161013860009054906101000a90046001600160a01b03166001600160a01b031663313ce5676040518163ffffffff1660e01b815260040160206040518083038186803b1580156135c557600080fd5b505afa1580156135d9573d6000803e3d6000fd5b505050506040513d601f19601f820116820180604052508101906135fd9190615a78565b613608906012615d30565b61361390600a615c4f565b61361d9085615cfa565b6136279190615bf8565b905061012e5481101561363f57506001949350505050565b506000949350505050565b6136543383613f8e565b6136c65760405162461bcd60e51b815260206004820152603160248201527f4552433732313a207472616e736665722063616c6c6572206973206e6f74206f60448201527f776e6572206e6f7220617070726f7665640000000000000000000000000000006064820152608401610a42565b6136d284848484614a51565b50505050565b600080516020615e678339815191526136f18133613b83565b6001600160a01b03821661376d5760405162461bcd60e51b815260206004820152602360248201527f507269636520736f757263652063616e6e6f74206265207a65726f206164647260448201527f65737300000000000000000000000000000000000000000000000000000000006064820152608401610a42565b61013780546001600160a01b0319166001600160a01b0384169081179091556040519081527f96e1b2ba899db8310c90fe5b78eeb80bcaaf5de5f0c4549c82c621c2bc778b8090602001610a7d565b6000818152606760205260409020546060906001600160a01b03166138495760405162461bcd60e51b815260206004820152602f60248201527f4552433732314d657461646174613a2055524920717565727920666f72206e6f60448201527f6e6578697374656e7420746f6b656e00000000000000000000000000000000006064820152608401610a42565b600061386060408051602081019091526000815290565b90506000815111613880576040518060200160405280600081525061141c565b8061388a84614ada565b60405160200161389b929190615ae1565b6040516020818303038152906040529392505050565b600082815260fb60205260409020600101546138cd8133613b83565b611262838361416b565b600080516020615e678339815191526138f08133613b83565b6305f5e100610130546127106139069190615be0565b83610135546103e86139189190615cfa565b6139229190615bf8565b61392c9190615cfa565b1061393657600080fd5b6101348290556040518281527f29c334aad4ec9c65aa6ad3e720e9ad21ce4d7d6dbbdb44a3f97f2762d49387ca90602001610a7d565b600082815261013d6020526040902054829060ff166139c45760405162461bcd60e51b815260206004820152601460248201527315985d5b1d08191bd95cc81b9bdd08195e1a5cdd60621b6044820152606401610a42565b336139ce82611cd7565b6001600160a01b031614806139ee575061013b546001600160a01b031633145b613a3a5760405162461bcd60e51b815260206004820152601960248201527f5661756c74206973206e6f74206f776e656420627920796f75000000000000006044820152606401610a42565b61013854613a53906001600160a01b0316333085614bf4565b600083815261013e6020526040812054613a6e908490615be0565b600085815261013e6020526040902054909150811015613a9e57634e487b7160e01b600052600160045260246000fd5b600084815261013e602090815260409182902083905581518681529081018590527f52c4e7127ec34e8fc95f09ce2d06b4f00acca12ccbcdfb246ef67ee6aefe068d910160405180910390a150505050565b600080516020615e67833981519152613b098133613b83565b6305f5e10061013054612710613b1f9190615be0565b61013454613b2f856103e8615cfa565b613b399190615bf8565b613b439190615cfa565b10613b4d57600080fd5b6101358290556040518281527fee1adee4317c98f3606485f5b5d290ec4f4b8e1baee4906df1a86cd549ac864290602001610a7d565b600082815260fb602090815260408083206001600160a01b038516845290915290205460ff1661160057613bc1816001600160a01b03166014614c45565b613bcc836020614c45565b604051602001613bdd929190615b10565b60408051601f198184030181529082905262461bcd60e51b8252610a4291600401615bcd565b60006001600160e01b031982167f7965db0b000000000000000000000000000000000000000000000000000000001480610a945750610a9482614e50565b6000806000613c508585613e9f565b909250905060008161013860009054906101000a90046001600160a01b03166001600160a01b031663313ce5676040518163ffffffff1660e01b815260040160206040518083038186803b158015613ca757600080fd5b505afa158015613cbb573d6000803e3d6000fd5b505050506040513d601f19601f82011682018060405250810190613cdf9190615a78565b613cea906012615d30565b613cf590600a615c4f565b613cff9085615cfa565b613d099190615bf8565b61012e5411159695505050505050565b60006101335482613d2a9190615be0565b905061013354811015613d4d57634e487b7160e01b600052600160045260246000fd5b61012f54811115613dc65760405162461bcd60e51b815260206004820152602960248201527f43616e6e6f74206578636565642064656274206365696c696e6720666f72207460448201527f686973207661756c7400000000000000000000000000000000000000000000006064820152608401610a42565b600083815261013f6020526040812054613de09084615be0565b600085815261013f6020526040902054909150811015613e1057634e487b7160e01b600052600160045260246000fd5b613e1983614e8e565b600093845261013f6020526040909320929092555050565b600081815260696020526040902080546001600160a01b0319166001600160a01b0384169081179091558190613e6682611cd7565b6001600160a01b03167f8c5be1e5ebec7d5bd14f71427d1e84f3dd0314c0f7b2291e5b200ac8c7c3b92560405160405180910390a45050565b600080613eaa610a9a565b613ef65760405162461bcd60e51b815260206004820152601560248201527f5072696365206d7573742062652061626f7665203000000000000000000000006044820152606401610a42565b61013254613f465760405162461bcd60e51b815260206004820152601360248201527f506567206d7573742062652061626f76652030000000000000000000000000006044820152606401610a42565b6000613f50610a9a565b613f5a9086615cfa565b90506000613f686101325490565b613f729086615cfa565b90506000613f81836064615cfa565b9791965090945050505050565b6000818152606760205260408120546001600160a01b03166140075760405162461bcd60e51b815260206004820152602c60248201527f4552433732313a206f70657261746f7220717565727920666f72206e6f6e657860448201526b34b9ba32b73a103a37b5b2b760a11b6064820152608401610a42565b600061401283611cd7565b9050806001600160a01b0316846001600160a01b0316148061404d5750836001600160a01b031661404284610c38565b6001600160a01b0316145b80611c3e57506001600160a01b038082166000908152606a602090815260408083209388168352929052205460ff16611c3e565b60405162461bcd60e51b815260206004820152601260248201527f7472616e736665723a2064697361626c656400000000000000000000000000006044820152606401610a42565b600082815260fb602090815260408083206001600160a01b038516845290915290205460ff1661160057600082815260fb602090815260408083206001600160a01b03851684529091529020805460ff191660011790556141273390565b6001600160a01b0316816001600160a01b0316837f2f8788117e7eff1d82e926ec794901d17c78024a50270940304540a733656f0d60405160405180910390a45050565b600082815260fb602090815260408083206001600160a01b038516845290915290205460ff161561160057600082815260fb602090815260408083206001600160a01b0385168085529252808320805460ff1916905551339285917ff6391f5c32d9c69d2a47ea670b442974b53935d1edc7fd64eb21e047a839171b9190a45050565b60006141f982611cd7565b905061420781600084614f21565b614212600083613e31565b6001600160a01b038116600090815260686020526040812080546001929061423b908490615d19565b909155505060008281526067602052604080822080546001600160a01b0319169055518391906001600160a01b038416907fddf252ad1be2c89b69c2b068fc378daa952ba7f163c4a11628f55a4df523b3ef908390a45050565b6001600160a01b0382166142eb5760405162461bcd60e51b815260206004820181905260248201527f4552433732313a206d696e7420746f20746865207a65726f20616464726573736044820152606401610a42565b6000818152606760205260409020546001600160a01b0316156143505760405162461bcd60e51b815260206004820152601c60248201527f4552433732313a20746f6b656e20616c7265616479206d696e746564000000006044820152606401610a42565b61435c60008383614f21565b6001600160a01b0382166000908152606860205260408120805460019290614385908490615be0565b909155505060008181526067602052604080822080546001600160a01b0319166001600160a01b03861690811790915590518392907fddf252ad1be2c89b69c2b068fc378daa952ba7f163c4a11628f55a4df523b3ef908290a45050565b600054610100900460ff16806143fc575060005460ff16155b61445f5760405162461bcd60e51b815260206004820152602e60248201527f496e697469616c697a61626c653a20636f6e747261637420697320616c72656160448201526d191e481a5b9a5d1a585b1a5e995960921b6064820152608401610a42565b600054610100900460ff16158015614481576000805461ffff19166101011790555b8015611cd4576000805461ff001916905550565b600054610100900460ff16806144ae575060005460ff16155b6145115760405162461bcd60e51b815260206004820152602e60248201527f496e697469616c697a61626c653a20636f6e747261637420697320616c72656160448201526d191e481a5b9a5d1a585b1a5e995960921b6064820152608401610a42565b600054610100900460ff16158015614533576000805461ffff19166101011790555b8251614546906065906020860190615608565b50815161455a906066906020850190615608565b508015611262576000805461ff0019169055505050565b600054610100900460ff168061458a575060005460ff16155b6145ed5760405162461bcd60e51b815260206004820152602e60248201527f496e697469616c697a61626c653a20636f6e747261637420697320616c72656160448201526d191e481a5b9a5d1a585b1a5e995960921b6064820152608401610a42565b600054610100900460ff1615801561460f576000805461ffff19166101011790555b600160c9558015611cd4576000805461ff001916905550565b61160082826140c9565b600082815260fb6020526040808220600101805490849055905190918391839186917fbd79b86ffe0ab8e8776151514217cd7cacd52c909f66475c3af44e129f0b00ff9190a4505050565b6040516001600160a01b0383166024820152604481018290526112629084907fa9059cbb00000000000000000000000000000000000000000000000000000000906064015b60408051601f198184030181529190526020810180517bffffffffffffffffffffffffffffffffffffffffffffffffffffffff166001600160e01b031990931692909217909152614f2c565b806101335410156147875760405162461bcd60e51b815260206004820152602860248201527f43616e6e6f742067657420726964206f66206d6f72652064656274207468616e60448201527f206578697374732e0000000000000000000000000000000000000000000000006064820152608401610a42565b600082815261013f602052604090205481111561480c5760405162461bcd60e51b815260206004820152602960248201527f43616e6e6f742067657420726964206f66206d6f72652064656274207468616e60448201527f20757365722068617300000000000000000000000000000000000000000000006064820152608401610a42565b6000816101335461481d9190615d19565b90506101335481111561484057634e487b7160e01b600052600160045260246000fd5b600083815261013f602052604081205461485b908490615d19565b600085815261013f602052604090205490915081111561488b57634e487b7160e01b600052600160045260246000fd5b613e19836149e5565b600082815261013e60205260409020548111156149195760405162461bcd60e51b815260206004820152603060248201527f43616e6e6f742072656d6f7665206d6f7265207468616e20746865206465706f60448201527f736974656420636f6c6c61746572616c000000000000000000000000000000006064820152608401610a42565b600082815261013e6020526040812054614934908390615d19565b600084815261013e602052604090205490915081111561496457634e487b7160e01b600052600160045260246000fd5b600092835261013e60205260409092209190915550565b61013c54600090815261013e602052604081205461499a908390615be0565b61013c54600090815261013e60205260409020549091508110156149ce57634e487b7160e01b600052600160045260246000fd5b61013c54600090815261013e602052604090205550565b61013354811115614a385760405162461bcd60e51b815260206004820152601860248201527f446562742063616e206e6f7420676f2062656c6f7720302e00000000000000006044820152606401610a42565b60008161013354614a499190615d19565b610133555050565b614a5c848484614081565b614a6884848484615011565b6136d25760405162461bcd60e51b815260206004820152603260248201527f4552433732313a207472616e7366657220746f206e6f6e20455243373231526560448201527f63656976657220696d706c656d656e74657200000000000000000000000000006064820152608401610a42565b606081614afe5750506040805180820190915260018152600360fc1b602082015290565b8160005b8115614b285780614b1281615dd1565b9150614b219050600a83615bf8565b9150614b02565b60008167ffffffffffffffff811115614b5157634e487b7160e01b600052604160045260246000fd5b6040519080825280601f01601f191660200182016040528015614b7b576020820181803683370190505b5090505b8415611c3e57614b90600183615d19565b9150614b9d600a86615dec565b614ba8906030615be0565b60f81b818381518110614bcb57634e487b7160e01b600052603260045260246000fd5b60200101906001600160f81b031916908160001a905350614bed600a86615bf8565b9450614b7f565b6040516001600160a01b03808516602483015283166044820152606481018290526136d29085907f23b872dd00000000000000000000000000000000000000000000000000000000906084016146c2565b60606000614c54836002615cfa565b614c5f906002615be0565b67ffffffffffffffff811115614c8557634e487b7160e01b600052604160045260246000fd5b6040519080825280601f01601f191660200182016040528015614caf576020820181803683370190505b509050600360fc1b81600081518110614cd857634e487b7160e01b600052603260045260246000fd5b60200101906001600160f81b031916908160001a9053507f780000000000000000000000000000000000000000000000000000000000000081600181518110614d3157634e487b7160e01b600052603260045260246000fd5b60200101906001600160f81b031916908160001a9053506000614d55846002615cfa565b614d60906001615be0565b90505b6001811115614e01577f303132333435363738396162636465660000000000000000000000000000000085600f1660108110614daf57634e487b7160e01b600052603260045260246000fd5b1a60f81b828281518110614dd357634e487b7160e01b600052603260045260246000fd5b60200101906001600160f81b031916908160001a90535060049490941c93614dfa81615d7f565b9050614d63565b50831561141c5760405162461bcd60e51b815260206004820181905260248201527f537472696e67733a20686578206c656e67746820696e73756666696369656e746044820152606401610a42565b60006001600160e01b031982167f780e9d63000000000000000000000000000000000000000000000000000000001480610a945750610a9482615174565b60008161013354614e9f9190615be0565b905061012f54811115614f1a5760405162461bcd60e51b815260206004820152602260248201527f446562742063616e206e6f7420676f2061626f76652064656274206365696c6960448201527f6e670000000000000000000000000000000000000000000000000000000000006064820152608401610a42565b6101335550565b61126283838361520f565b6000614f81826040518060400160405280602081526020017f5361666545524332303a206c6f772d6c6576656c2063616c6c206661696c6564815250856001600160a01b03166152c79092919063ffffffff16565b8051909150156112625780806020019051810190614f9f91906158e2565b6112625760405162461bcd60e51b815260206004820152602a60248201527f5361666545524332303a204552433230206f7065726174696f6e20646964206e60448201527f6f742073756363656564000000000000000000000000000000000000000000006064820152608401610a42565b60006001600160a01b0384163b1561516957604051630a85bd0160e11b81526001600160a01b0385169063150b7a0290615055903390899088908890600401615b91565b602060405180830381600087803b15801561506f57600080fd5b505af192505050801561509f575060408051601f3d908101601f1916820190925261509c91810190615954565b60015b61514f573d8080156150cd576040519150601f19603f3d011682016040523d82523d6000602084013e6150d2565b606091505b5080516151475760405162461bcd60e51b815260206004820152603260248201527f4552433732313a207472616e7366657220746f206e6f6e20455243373231526560448201527f63656976657220696d706c656d656e74657200000000000000000000000000006064820152608401610a42565b805181602001fd5b6001600160e01b031916630a85bd0160e11b149050611c3e565b506001949350505050565b60006001600160e01b031982167f80ac58cd0000000000000000000000000000000000000000000000000000000014806151d757506001600160e01b031982167f5b5e139f00000000000000000000000000000000000000000000000000000000145b80610a9457507f01ffc9a7000000000000000000000000000000000000000000000000000000006001600160e01b0319831614610a94565b6001600160a01b03831661526a5761526581609980546000838152609a60205260408120829055600182018355919091527f72a152ddfb8e864297c917af52ea6c1c68aead0fee1a62673fcc7e0c94979d000155565b61528d565b816001600160a01b0316836001600160a01b03161461528d5761528d83826152d6565b6001600160a01b0382166152a45761126281615373565b826001600160a01b0316826001600160a01b03161461126257611262828261544c565b6060611c3e8484600085615490565b600060016152e384611f29565b6152ed9190615d19565b600083815260986020526040902054909150808214615340576001600160a01b03841660009081526097602090815260408083208584528252808320548484528184208190558352609890915290208190555b5060009182526098602090815260408084208490556001600160a01b039094168352609781528383209183525290812055565b60995460009061538590600190615d19565b6000838152609a6020526040812054609980549394509092849081106153bb57634e487b7160e01b600052603260045260246000fd5b9060005260206000200154905080609983815481106153ea57634e487b7160e01b600052603260045260246000fd5b6000918252602080832090910192909255828152609a9091526040808220849055858252812055609980548061543057634e487b7160e01b600052603160045260246000fd5b6001900381819060005260206000200160009055905550505050565b600061545783611f29565b6001600160a01b039093166000908152609760209081526040808320868452825280832085905593825260989052919091209190915550565b6060824710156155085760405162461bcd60e51b815260206004820152602660248201527f416464726573733a20696e73756666696369656e742062616c616e636520666f60448201527f722063616c6c00000000000000000000000000000000000000000000000000006064820152608401610a42565b843b6155565760405162461bcd60e51b815260206004820152601d60248201527f416464726573733a2063616c6c20746f206e6f6e2d636f6e74726163740000006044820152606401610a42565b600080866001600160a01b031685876040516155729190615ac5565b60006040518083038185875af1925050503d80600081146155af576040519150601f19603f3d011682016040523d82523d6000602084013e6155b4565b606091505b50915091506155c48282866155cf565b979650505050505050565b606083156155de57508161141c565b8251156155ee5782518084602001fd5b8160405162461bcd60e51b8152600401610a429190615bcd565b82805461561490615d96565b90600052602060002090601f016020900481019282615636576000855561567c565b82601f1061564f57805160ff191683800117855561567c565b8280016001018555821561567c579182015b8281111561567c578251825591602001919060010190615661565b5061568892915061568c565b5090565b5b80821115615688576000815560010161568d565b600067ffffffffffffffff808411156156bc576156bc615e2c565b604051601f8501601f19908116603f011681019082821181831017156156e4576156e4615e2c565b816040528093508581528686860111156156fd57600080fd5b858560208301376000602087830101525050509392505050565b80356001600160a01b0381168114610ba157600080fd5b600082601f83011261573e578081fd5b61141c838335602085016156a1565b805169ffffffffffffffffffff81168114610ba157600080fd5b600060208284031215615778578081fd5b61141c82615717565b60008060408385031215615793578081fd5b61579c83615717565b91506157aa60208401615717565b90509250929050565b6000806000606084860312156157c7578081fd5b6157d084615717565b92506157de60208501615717565b9150604084013590509250925092565b60008060008060808587031215615803578081fd5b61580c85615717565b935061581a60208601615717565b925060408501359150606085013567ffffffffffffffff81111561583c578182fd5b8501601f8101871361584c578182fd5b61585b878235602084016156a1565b91505092959194509250565b60008060408385031215615879578182fd5b61588283615717565b9150602083013561589281615e42565b809150509250929050565b600080604083850312156158af578182fd5b6158b883615717565b946020939093013593505050565b6000602082840312156158d7578081fd5b813561141c81615e42565b6000602082840312156158f3578081fd5b815161141c81615e42565b60006020828403121561590f578081fd5b5035919050565b60008060408385031215615928578182fd5b823591506157aa60208401615717565b600060208284031215615949578081fd5b813561141c81615e50565b600060208284031215615965578081fd5b815161141c81615e50565b600060208284031215615981578081fd5b5051919050565b600080600080600060a0868803121561599f578283fd5b853594506159af60208701615717565b9350604086013567ffffffffffffffff808211156159cb578485fd5b6159d789838a0161572e565b945060608801359150808211156159ec578283fd5b506159f98882890161572e565b925050615a0860808701615717565b90509295509295909350565b60008060408385031215615a26578182fd5b50508035926020909101359150565b600080600080600060a08688031215615a4c578283fd5b615a558661574d565b9450602086015193506040860151925060608601519150615a086080870161574d565b600060208284031215615a89578081fd5b815160ff8116811461141c578182fd5b60008151808452615ab1816020860160208601615d53565b601f01601f19169290920160200192915050565b60008251615ad7818460208701615d53565b9190910192915050565b60008351615af3818460208801615d53565b835190830190615b07818360208801615d53565b01949350505050565b7f416363657373436f6e74726f6c3a206163636f756e7420000000000000000000815260008351615b48816017850160208801615d53565b7f206973206d697373696e6720726f6c65200000000000000000000000000000006017918401918201528351615b85816028840160208801615d53565b01602801949350505050565b60006001600160a01b03808716835280861660208401525083604083015260806060830152615bc36080830184615a99565b9695505050505050565b60208152600061141c6020830184615a99565b60008219821115615bf357615bf3615e00565b500190565b600082615c0757615c07615e16565b500490565b600181815b80851115615c47578160001904821115615c2d57615c2d615e00565b80851615615c3a57918102915b93841c9390800290615c11565b509250929050565b600061141c60ff841683600082615c6857506001610a94565b81615c7557506000610a94565b8160018114615c8b5760028114615c9557615cb1565b6001915050610a94565b60ff841115615ca657615ca6615e00565b50506001821b610a94565b5060208310610133831016604e8410600b8410161715615cd4575081810a610a94565b615cde8383615c0c565b8060001904821115615cf257615cf2615e00565b029392505050565b6000816000190483118215151615615d1457615d14615e00565b500290565b600082821015615d2b57615d2b615e00565b500390565b600060ff821660ff841680821015615d4a57615d4a615e00565b90039392505050565b60005b83811015615d6e578181015183820152602001615d56565b838111156136d25750506000910152565b600081615d8e57615d8e615e00565b506000190190565b600181811c90821680615daa57607f821691505b60208210811415615dcb57634e487b7160e01b600052602260045260246000fd5b50919050565b6000600019821415615de557615de5615e00565b5060010190565b600082615dfb57615dfb615e16565b500690565b634e487b7160e01b600052601160045260246000fd5b634e487b7160e01b600052601260045260246000fd5b634e487b7160e01b600052604160045260246000fd5b8015158114611cd457600080fd5b6001600160e01b031981168114611cd457600080fdfee1dcbdb91df27212a29bc27177c840cf2f819ecf2187432e1fac86c2dd5dfca9a264697066735822122097829ebfc8a4b0642fd1854bf9df841c10c1a07c4cb4a7d0eaa1351ac4a4be2b64736f6c63430008040033",
  "devdoc": {
    "kind": "dev",
    "methods": {
      "approve(address,uint256)": {
        "details": "See {IERC721-approve}."
      },
      "balanceOf(address)": {
        "details": "See {IERC721-balanceOf}."
      },
      "borrowToken(uint256,uint256)": {
        "details": "Lets a vault owner borrow stablecoin against collateral Requirements: - Vault type must exist - Vault must exist - Must borrow greater than 0 stablecoin - Must be below the debt ceiling when borrowing - Must maintain minimum collateral percentage Emits BorrowToken event"
      },
      "checkCost(uint256)": {
        "details": "checks cost of liquidating"
      },
      "checkExtract(uint256)": {
        "details": "checks how much token gets extract"
      },
      "checkLiquidation(uint256)": {
        "details": "checks if the vault can be liquidated"
      },
      "createVault()": {
        "details": "Create a vault for interacting with the platform Emits a CreateVault event"
      },
      "depositCollateral(uint256,uint256)": {
        "details": "ALlows vault owner to deposit ERC20 collateral Emits Deposit Collateral event"
      },
      "destroyVault(uint256)": {
        "details": "User can destroy a vault. Will return all collateral upon destroying. Emits a DestroyVault event Requirements: - User must have paid off all outstanding debt first"
      },
      "getApproved(uint256)": {
        "details": "See {IERC721-getApproved}."
      },
      "getPaid(address)": {
        "details": "pays the user Returns the ERC20 token that was liquidated"
      },
      "getPricePeg()": {
        "details": "returns the peg "
      },
      "getPriceSource()": {
        "details": "returns the chainlink pricefeed price"
      },
      "getRoleAdmin(bytes32)": {
        "details": "Returns the admin role that controls `role`. See {grantRole} and {revokeRole}. To change a role's admin, use {_setRoleAdmin}."
      },
      "grantRole(bytes32,address)": {
        "details": "Grants `role` to `account`. If `account` had not been already granted `role`, emits a {RoleGranted} event. Requirements: - the caller must have ``role``'s admin role."
      },
      "hasRole(bytes32,address)": {
        "details": "Returns `true` if `account` has been granted `role`."
      },
      "isApprovedForAll(address,address)": {
        "details": "See {IERC721-isApprovedForAll}."
      },
      "liquidateVault(uint256)": {
        "details": "allows liquidator to buy out a risky vault Requirements: - Vault id must exist - Vault must be below minimum collateral percentage - User must have enough of the token to pay vault off Emits BuyRiskyVault event"
      },
      "name()": {
        "details": "See {IERC721Metadata-name}."
      },
      "ownerOf(uint256)": {
        "details": "See {IERC721-ownerOf}."
      },
      "payBackToken(uint256,uint256)": {
        "details": "Pay back the stablecoin to reduce debt Requirements: - User must have enough balance to repay `amount` - Cannot pay back more than the required debt. `amount` must be less than debt."
      },
      "renounceRole(bytes32,address)": {
        "details": "Revokes `role` from the calling account. Roles are often managed via {grantRole} and {revokeRole}: this function's purpose is to provide a mechanism for accounts to lose their privileges if they are compromised (such as when a trusted device is misplaced). If the calling account had been granted `role`, emits a {RoleRevoked} event. Requirements: - the caller must be `account`."
      },
      "revokeRole(bytes32,address)": {
        "details": "Revokes `role` from `account`. If `account` had been granted `role`, emits a {RoleRevoked} event. Requirements: - the caller must have ``role``'s admin role."
      },
      "safeTransferFrom(address,address,uint256)": {
        "details": "See {IERC721-safeTransferFrom}."
      },
      "safeTransferFrom(address,address,uint256,bytes)": {
        "details": "See {IERC721-safeTransferFrom}."
      },
      "setApprovalForAll(address,bool)": {
        "details": "See {IERC721-setApprovalForAll}."
      },
      "setClosingFee(uint256)": {
        "details": "Set the closing fee for this vault"
      },
      "setDebtCeiling(uint256)": {
        "details": "Set the debt ceiling for this vault"
      },
      "setDebtRatio(uint256)": {
        "details": "sets the debt ratio"
      },
      "setGainRatio(uint256)": {
        "details": "sets the gain ratio"
      },
      "setGateway(address)": {
        "details": "Set the WAVAX gateway for this vault if it needs one"
      },
      "setMinimumDebt(uint256)": {
        "details": "sets the minimum debt"
      },
      "setMintingPaused(bool)": {
        "details": "Pauses the bank minting capabalities."
      },
      "setOpeningFee(uint256)": {
        "details": "Set the opening fee for this vault"
      },
      "setPriceSource(address)": {
        "details": "Set the price source for this vault"
      },
      "setStabilityPool(address)": {
        "details": "Set the stability pool (liquidator) for this vault"
      },
      "setTokenPeg(uint256)": {
        "details": "Set the token peg for this vault"
      },
      "setTreasury(uint256)": {
        "details": "Set the treasury vault for this vault (vault that gets all the fees)"
      },
      "symbol()": {
        "details": "See {IERC721Metadata-symbol}."
      },
      "tokenByIndex(uint256)": {
        "details": "See {IERC721Enumerable-tokenByIndex}."
      },
      "tokenOfOwnerByIndex(address,uint256)": {
        "details": "See {IERC721Enumerable-tokenOfOwnerByIndex}."
      },
      "tokenURI(uint256)": {
        "details": "See {IERC721Metadata-tokenURI}."
      },
      "totalSupply()": {
        "details": "See {IERC721Enumerable-totalSupply}."
      },
      "transferFrom(address,address,uint256)": {
        "details": "See {IERC721-transferFrom}."
      },
      "transferVault(uint256,address)": {
        "details": "user can transfer vault to another address Emits TransferVault event"
      },
      "vaultExists(uint256)": {
        "details": "allows checking if vault exists or not"
      },
      "withdrawCollateral(uint256,uint256)": {
        "details": "allows vault owner to withdraw the collateral Requirements: - Withdraw amount is less than or equal to current collateral - Collateral withdrawal amount does not put debt below minimum collateral Emits WithdrawCollateral event"
      }
    },
    "version": 1
  },
  "userdoc": {
    "kind": "user",
    "methods": {
      "minimumCollateralPercentage()": {
        "notice": "Set all of these upon initalization"
      }
    },
    "version": 1
  },
  "storageLayout": {
    "storage": [
      {
        "astId": 594,
        "contract": "apps/avai/src/contracts/Bank.sol:Bank",
        "label": "_initialized",
        "offset": 0,
        "slot": "0",
        "type": "t_bool"
      },
      {
        "astId": 597,
        "contract": "apps/avai/src/contracts/Bank.sol:Bank",
        "label": "_initializing",
        "offset": 1,
        "slot": "0",
        "type": "t_bool"
      },
      {
        "astId": 3406,
        "contract": "apps/avai/src/contracts/Bank.sol:Bank",
        "label": "__gap",
        "offset": 0,
        "slot": "1",
        "type": "t_array(t_uint256)50_storage"
      },
      {
        "astId": 4245,
        "contract": "apps/avai/src/contracts/Bank.sol:Bank",
        "label": "__gap",
        "offset": 0,
        "slot": "51",
        "type": "t_array(t_uint256)50_storage"
      },
      {
        "astId": 1743,
        "contract": "apps/avai/src/contracts/Bank.sol:Bank",
        "label": "_name",
        "offset": 0,
        "slot": "101",
        "type": "t_string_storage"
      },
      {
        "astId": 1745,
        "contract": "apps/avai/src/contracts/Bank.sol:Bank",
        "label": "_symbol",
        "offset": 0,
        "slot": "102",
        "type": "t_string_storage"
      },
      {
        "astId": 1749,
        "contract": "apps/avai/src/contracts/Bank.sol:Bank",
        "label": "_owners",
        "offset": 0,
        "slot": "103",
        "type": "t_mapping(t_uint256,t_address)"
      },
      {
        "astId": 1753,
        "contract": "apps/avai/src/contracts/Bank.sol:Bank",
        "label": "_balances",
        "offset": 0,
        "slot": "104",
        "type": "t_mapping(t_address,t_uint256)"
      },
      {
        "astId": 1757,
        "contract": "apps/avai/src/contracts/Bank.sol:Bank",
        "label": "_tokenApprovals",
        "offset": 0,
        "slot": "105",
        "type": "t_mapping(t_uint256,t_address)"
      },
      {
        "astId": 1763,
        "contract": "apps/avai/src/contracts/Bank.sol:Bank",
        "label": "_operatorApprovals",
        "offset": 0,
        "slot": "106",
        "type": "t_mapping(t_address,t_mapping(t_address,t_bool))"
      },
      {
        "astId": 2559,
        "contract": "apps/avai/src/contracts/Bank.sol:Bank",
        "label": "__gap",
        "offset": 0,
        "slot": "107",
        "type": "t_array(t_uint256)44_storage"
      },
      {
        "astId": 2733,
        "contract": "apps/avai/src/contracts/Bank.sol:Bank",
        "label": "_ownedTokens",
        "offset": 0,
        "slot": "151",
        "type": "t_mapping(t_address,t_mapping(t_uint256,t_uint256))"
      },
      {
        "astId": 2737,
        "contract": "apps/avai/src/contracts/Bank.sol:Bank",
        "label": "_ownedTokensIndex",
        "offset": 0,
        "slot": "152",
        "type": "t_mapping(t_uint256,t_uint256)"
      },
      {
        "astId": 2740,
        "contract": "apps/avai/src/contracts/Bank.sol:Bank",
        "label": "_allTokens",
        "offset": 0,
        "slot": "153",
        "type": "t_array(t_uint256)dyn_storage"
      },
      {
        "astId": 2744,
        "contract": "apps/avai/src/contracts/Bank.sol:Bank",
        "label": "_allTokensIndex",
        "offset": 0,
        "slot": "154",
        "type": "t_mapping(t_uint256,t_uint256)"
      },
      {
        "astId": 3059,
        "contract": "apps/avai/src/contracts/Bank.sol:Bank",
        "label": "__gap",
        "offset": 0,
        "slot": "155",
        "type": "t_array(t_uint256)46_storage"
      },
      {
        "astId": 761,
        "contract": "apps/avai/src/contracts/Bank.sol:Bank",
        "label": "_status",
        "offset": 0,
        "slot": "201",
        "type": "t_uint256"
      },
      {
        "astId": 804,
        "contract": "apps/avai/src/contracts/Bank.sol:Bank",
        "label": "__gap",
        "offset": 0,
        "slot": "202",
        "type": "t_array(t_uint256)49_storage"
      },
      {
        "astId": 94,
        "contract": "apps/avai/src/contracts/Bank.sol:Bank",
        "label": "_roles",
        "offset": 0,
        "slot": "251",
        "type": "t_mapping(t_bytes32,t_struct(RoleData)89_storage)"
      },
      {
        "astId": 379,
        "contract": "apps/avai/src/contracts/Bank.sol:Bank",
        "label": "__gap",
        "offset": 0,
        "slot": "252",
        "type": "t_array(t_uint256)49_storage"
      },
      {
        "astId": 8626,
        "contract": "apps/avai/src/contracts/Bank.sol:Bank",
        "label": "_userVaultIds",
        "offset": 0,
        "slot": "301",
        "type": "t_struct(Counter)3413_storage"
      },
      {
        "astId": 8629,
        "contract": "apps/avai/src/contracts/Bank.sol:Bank",
        "label": "minimumCollateralPercentage",
        "offset": 0,
        "slot": "302",
        "type": "t_uint256"
      },
      {
        "astId": 8631,
        "contract": "apps/avai/src/contracts/Bank.sol:Bank",
        "label": "debtCeiling",
        "offset": 0,
        "slot": "303",
        "type": "t_uint256"
      },
      {
        "astId": 8633,
        "contract": "apps/avai/src/contracts/Bank.sol:Bank",
        "label": "closingFee",
        "offset": 0,
        "slot": "304",
        "type": "t_uint256"
      },
      {
        "astId": 8635,
        "contract": "apps/avai/src/contracts/Bank.sol:Bank",
        "label": "openingFee",
        "offset": 0,
        "slot": "305",
        "type": "t_uint256"
      },
      {
        "astId": 8637,
        "contract": "apps/avai/src/contracts/Bank.sol:Bank",
        "label": "tokenPeg",
        "offset": 0,
        "slot": "306",
        "type": "t_uint256"
      },
      {
        "astId": 8639,
        "contract": "apps/avai/src/contracts/Bank.sol:Bank",
        "label": "totalDebt",
        "offset": 0,
        "slot": "307",
        "type": "t_uint256"
      },
      {
        "astId": 8641,
        "contract": "apps/avai/src/contracts/Bank.sol:Bank",
        "label": "debtRatio",
        "offset": 0,
        "slot": "308",
        "type": "t_uint256"
      },
      {
        "astId": 8643,
        "contract": "apps/avai/src/contracts/Bank.sol:Bank",
        "label": "gainRatio",
        "offset": 0,
        "slot": "309",
        "type": "t_uint256"
      },
      {
        "astId": 8647,
        "contract": "apps/avai/src/contracts/Bank.sol:Bank",
        "label": "tokenDebt",
        "offset": 0,
        "slot": "310",
        "type": "t_mapping(t_address,t_uint256)"
      },
      {
        "astId": 8650,
        "contract": "apps/avai/src/contracts/Bank.sol:Bank",
        "label": "priceSource",
        "offset": 0,
        "slot": "311",
        "type": "t_contract(AggregatorV3Interface)45"
      },
      {
        "astId": 8653,
        "contract": "apps/avai/src/contracts/Bank.sol:Bank",
        "label": "token",
        "offset": 0,
        "slot": "312",
        "type": "t_contract(IERC20Metadata)6252"
      },
      {
        "astId": 8656,
        "contract": "apps/avai/src/contracts/Bank.sol:Bank",
        "label": "stablecoin",
        "offset": 0,
        "slot": "313",
        "type": "t_contract(IStablecoin)16874"
      },
      {
        "astId": 8658,
        "contract": "apps/avai/src/contracts/Bank.sol:Bank",
        "label": "stabilityPool",
        "offset": 0,
        "slot": "314",
        "type": "t_address"
      },
      {
        "astId": 8660,
        "contract": "apps/avai/src/contracts/Bank.sol:Bank",
        "label": "gateway",
        "offset": 0,
        "slot": "315",
        "type": "t_address"
      },
      {
        "astId": 8662,
        "contract": "apps/avai/src/contracts/Bank.sol:Bank",
        "label": "treasury",
        "offset": 0,
        "slot": "316",
        "type": "t_uint256"
      },
      {
        "astId": 8666,
        "contract": "apps/avai/src/contracts/Bank.sol:Bank",
        "label": "vaultExistence",
        "offset": 0,
        "slot": "317",
        "type": "t_mapping(t_uint256,t_bool)"
      },
      {
        "astId": 8670,
        "contract": "apps/avai/src/contracts/Bank.sol:Bank",
        "label": "vaultCollateral",
        "offset": 0,
        "slot": "318",
        "type": "t_mapping(t_uint256,t_uint256)"
      },
      {
        "astId": 8674,
        "contract": "apps/avai/src/contracts/Bank.sol:Bank",
        "label": "vaultDebt",
        "offset": 0,
        "slot": "319",
        "type": "t_mapping(t_uint256,t_uint256)"
      },
      {
        "astId": 8676,
        "contract": "apps/avai/src/contracts/Bank.sol:Bank",
        "label": "minimumDebt",
        "offset": 0,
        "slot": "320",
        "type": "t_uint256"
      },
      {
        "astId": 8678,
        "contract": "apps/avai/src/contracts/Bank.sol:Bank",
        "label": "mintingPaused",
        "offset": 0,
        "slot": "321",
        "type": "t_bool"
      }
    ],
    "types": {
      "t_address": {
        "encoding": "inplace",
        "label": "address",
        "numberOfBytes": "20"
      },
      "t_array(t_uint256)44_storage": {
        "base": "t_uint256",
        "encoding": "inplace",
        "label": "uint256[44]",
        "numberOfBytes": "1408"
      },
      "t_array(t_uint256)46_storage": {
        "base": "t_uint256",
        "encoding": "inplace",
        "label": "uint256[46]",
        "numberOfBytes": "1472"
      },
      "t_array(t_uint256)49_storage": {
        "base": "t_uint256",
        "encoding": "inplace",
        "label": "uint256[49]",
        "numberOfBytes": "1568"
      },
      "t_array(t_uint256)50_storage": {
        "base": "t_uint256",
        "encoding": "inplace",
        "label": "uint256[50]",
        "numberOfBytes": "1600"
      },
      "t_array(t_uint256)dyn_storage": {
        "base": "t_uint256",
        "encoding": "dynamic_array",
        "label": "uint256[]",
        "numberOfBytes": "32"
      },
      "t_bool": {
        "encoding": "inplace",
        "label": "bool",
        "numberOfBytes": "1"
      },
      "t_bytes32": {
        "encoding": "inplace",
        "label": "bytes32",
        "numberOfBytes": "32"
      },
      "t_contract(AggregatorV3Interface)45": {
        "encoding": "inplace",
        "label": "contract AggregatorV3Interface",
        "numberOfBytes": "20"
      },
      "t_contract(IERC20Metadata)6252": {
        "encoding": "inplace",
        "label": "contract IERC20Metadata",
        "numberOfBytes": "20"
      },
      "t_contract(IStablecoin)16874": {
        "encoding": "inplace",
        "label": "contract IStablecoin",
        "numberOfBytes": "20"
      },
      "t_mapping(t_address,t_bool)": {
        "encoding": "mapping",
        "key": "t_address",
        "label": "mapping(address => bool)",
        "numberOfBytes": "32",
        "value": "t_bool"
      },
      "t_mapping(t_address,t_mapping(t_address,t_bool))": {
        "encoding": "mapping",
        "key": "t_address",
        "label": "mapping(address => mapping(address => bool))",
        "numberOfBytes": "32",
        "value": "t_mapping(t_address,t_bool)"
      },
      "t_mapping(t_address,t_mapping(t_uint256,t_uint256))": {
        "encoding": "mapping",
        "key": "t_address",
        "label": "mapping(address => mapping(uint256 => uint256))",
        "numberOfBytes": "32",
        "value": "t_mapping(t_uint256,t_uint256)"
      },
      "t_mapping(t_address,t_uint256)": {
        "encoding": "mapping",
        "key": "t_address",
        "label": "mapping(address => uint256)",
        "numberOfBytes": "32",
        "value": "t_uint256"
      },
      "t_mapping(t_bytes32,t_struct(RoleData)89_storage)": {
        "encoding": "mapping",
        "key": "t_bytes32",
        "label": "mapping(bytes32 => struct AccessControlUpgradeable.RoleData)",
        "numberOfBytes": "32",
        "value": "t_struct(RoleData)89_storage"
      },
      "t_mapping(t_uint256,t_address)": {
        "encoding": "mapping",
        "key": "t_uint256",
        "label": "mapping(uint256 => address)",
        "numberOfBytes": "32",
        "value": "t_address"
      },
      "t_mapping(t_uint256,t_bool)": {
        "encoding": "mapping",
        "key": "t_uint256",
        "label": "mapping(uint256 => bool)",
        "numberOfBytes": "32",
        "value": "t_bool"
      },
      "t_mapping(t_uint256,t_uint256)": {
        "encoding": "mapping",
        "key": "t_uint256",
        "label": "mapping(uint256 => uint256)",
        "numberOfBytes": "32",
        "value": "t_uint256"
      },
      "t_string_storage": {
        "encoding": "bytes",
        "label": "string",
        "numberOfBytes": "32"
      },
      "t_struct(Counter)3413_storage": {
        "encoding": "inplace",
        "label": "struct CountersUpgradeable.Counter",
        "members": [
          {
            "astId": 3412,
            "contract": "apps/avai/src/contracts/Bank.sol:Bank",
            "label": "_value",
            "offset": 0,
            "slot": "0",
            "type": "t_uint256"
          }
        ],
        "numberOfBytes": "32"
      },
      "t_struct(RoleData)89_storage": {
        "encoding": "inplace",
        "label": "struct AccessControlUpgradeable.RoleData",
        "members": [
          {
            "astId": 86,
            "contract": "apps/avai/src/contracts/Bank.sol:Bank",
            "label": "members",
            "offset": 0,
            "slot": "0",
            "type": "t_mapping(t_address,t_bool)"
          },
          {
            "astId": 88,
            "contract": "apps/avai/src/contracts/Bank.sol:Bank",
            "label": "adminRole",
            "offset": 0,
            "slot": "1",
            "type": "t_bytes32"
          }
        ],
        "numberOfBytes": "64"
      },
      "t_uint256": {
        "encoding": "inplace",
        "label": "uint256",
        "numberOfBytes": "32"
      }
    }
  }
}