{
  "address": "0xE55Cd5fF426FaaD0450B4ADe03f02eCbC4770bb9",
  "abi": [
    {
      "anonymous": false,
      "inputs": [
        {
          "indexed": true,
          "internalType": "address",
          "name": "owner",
          "type": "address"
        },
        {
          "indexed": true,
          "internalType": "address",
          "name": "approved",
          "type": "address"
        },
        {
          "indexed": true,
          "internalType": "uint256",
          "name": "tokenId",
          "type": "uint256"
        }
      ],
      "name": "Approval",
      "type": "event"
    },
    {
      "anonymous": false,
      "inputs": [
        {
          "indexed": true,
          "internalType": "address",
          "name": "owner",
          "type": "address"
        },
        {
          "indexed": true,
          "internalType": "address",
          "name": "operator",
          "type": "address"
        },
        {
          "indexed": false,
          "internalType": "bool",
          "name": "approved",
          "type": "bool"
        }
      ],
      "name": "ApprovalForAll",
      "type": "event"
    },
    {
      "anonymous": false,
      "inputs": [
        {
          "indexed": false,
          "internalType": "uint256",
          "name": "vaultID",
          "type": "uint256"
        },
        {
          "indexed": false,
          "internalType": "uint256",
          "name": "amount",
          "type": "uint256"
        }
      ],
      "name": "BorrowToken",
      "type": "event"
    },
    {
      "anonymous": false,
      "inputs": [
        {
          "indexed": false,
          "internalType": "uint256",
          "name": "newDebtRatio",
          "type": "uint256"
        }
      ],
      "name": "ChangeDebtRatio",
      "type": "event"
    },
    {
      "anonymous": false,
      "inputs": [
        {
          "indexed": false,
          "internalType": "uint256",
          "name": "newGainRatio",
          "type": "uint256"
        }
      ],
      "name": "ChangeGainRatio",
      "type": "event"
    },
    {
      "anonymous": false,
      "inputs": [
        {
          "indexed": false,
          "internalType": "uint256",
          "name": "vaultID",
          "type": "uint256"
        },
        {
          "indexed": false,
          "internalType": "address",
          "name": "creator",
          "type": "address"
        }
      ],
      "name": "CreateVault",
      "type": "event"
    },
    {
      "anonymous": false,
      "inputs": [
        {
          "indexed": false,
          "internalType": "uint256",
          "name": "vaultID",
          "type": "uint256"
        },
        {
          "indexed": false,
          "internalType": "uint256",
          "name": "amount",
          "type": "uint256"
        }
      ],
      "name": "DepositCollateral",
      "type": "event"
    },
    {
      "anonymous": false,
      "inputs": [
        {
          "indexed": false,
          "internalType": "uint256",
          "name": "vaultID",
          "type": "uint256"
        }
      ],
      "name": "DestroyVault",
      "type": "event"
    },
    {
      "anonymous": false,
      "inputs": [
        {
          "indexed": false,
          "internalType": "uint256",
          "name": "amount",
          "type": "uint256"
        },
        {
          "indexed": false,
          "internalType": "address",
          "name": "user",
          "type": "address"
        }
      ],
      "name": "GetPaid",
      "type": "event"
    },
    {
      "anonymous": false,
      "inputs": [
        {
          "indexed": false,
          "internalType": "uint256",
          "name": "vaultID",
          "type": "uint256"
        },
        {
          "indexed": false,
          "internalType": "address",
          "name": "owner",
          "type": "address"
        },
        {
          "indexed": false,
          "internalType": "address",
          "name": "buyer",
          "type": "address"
        },
        {
          "indexed": false,
          "internalType": "uint256",
          "name": "amountPaid",
          "type": "uint256"
        },
        {
          "indexed": false,
          "internalType": "uint256",
          "name": "tokenExtract",
          "type": "uint256"
        },
        {
          "indexed": false,
          "internalType": "uint256",
          "name": "closingFee",
          "type": "uint256"
        }
      ],
      "name": "LiquidateVault",
      "type": "event"
    },
    {
      "anonymous": false,
      "inputs": [
        {
          "indexed": false,
          "internalType": "uint256",
          "name": "newClosingFee",
          "type": "uint256"
        }
      ],
      "name": "NewClosingFee",
      "type": "event"
    },
    {
      "anonymous": false,
      "inputs": [
        {
          "indexed": false,
          "internalType": "uint256",
          "name": "newDebtCeiling",
          "type": "uint256"
        }
      ],
      "name": "NewDebtCeiling",
      "type": "event"
    },
    {
      "anonymous": false,
      "inputs": [
        {
          "indexed": false,
          "internalType": "address",
          "name": "newGateway",
          "type": "address"
        }
      ],
      "name": "NewGateway",
      "type": "event"
    },
    {
      "anonymous": false,
      "inputs": [
        {
          "indexed": false,
          "internalType": "uint256",
          "name": "newMinimumDebt",
          "type": "uint256"
        }
      ],
      "name": "NewMinimumDebt",
      "type": "event"
    },
    {
      "anonymous": false,
      "inputs": [
        {
          "indexed": false,
          "internalType": "uint256",
          "name": "newOpeningFee",
          "type": "uint256"
        }
      ],
      "name": "NewOpeningFee",
      "type": "event"
    },
    {
      "anonymous": false,
      "inputs": [
        {
          "indexed": false,
          "internalType": "uint256",
          "name": "newPew",
          "type": "uint256"
        }
      ],
      "name": "NewPeg",
      "type": "event"
    },
    {
      "anonymous": false,
      "inputs": [
        {
          "indexed": false,
          "internalType": "address",
          "name": "newPriceSource",
          "type": "address"
        }
      ],
      "name": "NewPriceSource",
      "type": "event"
    },
    {
      "anonymous": false,
      "inputs": [
        {
          "indexed": false,
          "internalType": "address",
          "name": "newStabilityPool",
          "type": "address"
        }
      ],
      "name": "NewStabilityPools",
      "type": "event"
    },
    {
      "anonymous": false,
      "inputs": [
        {
          "indexed": false,
          "internalType": "uint256",
          "name": "newTreasury",
          "type": "uint256"
        }
      ],
      "name": "NewTreasury",
      "type": "event"
    },
    {
      "anonymous": false,
      "inputs": [
        {
          "indexed": false,
          "internalType": "uint256",
          "name": "vaultID",
          "type": "uint256"
        },
        {
          "indexed": false,
          "internalType": "uint256",
          "name": "amount",
          "type": "uint256"
        },
        {
          "indexed": false,
          "internalType": "uint256",
          "name": "closingFee",
          "type": "uint256"
        }
      ],
      "name": "PayBackToken",
      "type": "event"
    },
    {
      "anonymous": false,
      "inputs": [
        {
          "indexed": true,
          "internalType": "bytes32",
          "name": "role",
          "type": "bytes32"
        },
        {
          "indexed": true,
          "internalType": "bytes32",
          "name": "previousAdminRole",
          "type": "bytes32"
        },
        {
          "indexed": true,
          "internalType": "bytes32",
          "name": "newAdminRole",
          "type": "bytes32"
        }
      ],
      "name": "RoleAdminChanged",
      "type": "event"
    },
    {
      "anonymous": false,
      "inputs": [
        {
          "indexed": true,
          "internalType": "bytes32",
          "name": "role",
          "type": "bytes32"
        },
        {
          "indexed": true,
          "internalType": "address",
          "name": "account",
          "type": "address"
        },
        {
          "indexed": true,
          "internalType": "address",
          "name": "sender",
          "type": "address"
        }
      ],
      "name": "RoleGranted",
      "type": "event"
    },
    {
      "anonymous": false,
      "inputs": [
        {
          "indexed": true,
          "internalType": "bytes32",
          "name": "role",
          "type": "bytes32"
        },
        {
          "indexed": true,
          "internalType": "address",
          "name": "account",
          "type": "address"
        },
        {
          "indexed": true,
          "internalType": "address",
          "name": "sender",
          "type": "address"
        }
      ],
      "name": "RoleRevoked",
      "type": "event"
    },
    {
      "anonymous": false,
      "inputs": [
        {
          "indexed": true,
          "internalType": "address",
          "name": "from",
          "type": "address"
        },
        {
          "indexed": true,
          "internalType": "address",
          "name": "to",
          "type": "address"
        },
        {
          "indexed": true,
          "internalType": "uint256",
          "name": "tokenId",
          "type": "uint256"
        }
      ],
      "name": "Transfer",
      "type": "event"
    },
    {
      "anonymous": false,
      "inputs": [
        {
          "indexed": false,
          "internalType": "uint256",
          "name": "vaultID",
          "type": "uint256"
        },
        {
          "indexed": false,
          "internalType": "address",
          "name": "from",
          "type": "address"
        },
        {
          "indexed": false,
          "internalType": "address",
          "name": "to",
          "type": "address"
        }
      ],
      "name": "TransferVault",
      "type": "event"
    },
    {
      "anonymous": false,
      "inputs": [
        {
          "indexed": false,
          "internalType": "uint256",
          "name": "vaultID",
          "type": "uint256"
        },
        {
          "indexed": false,
          "internalType": "uint256",
          "name": "amount",
          "type": "uint256"
        }
      ],
      "name": "WithdrawCollateral",
      "type": "event"
    },
    {
      "inputs": [],
      "name": "DEFAULT_ADMIN_ROLE",
      "outputs": [
        {
          "internalType": "bytes32",
          "name": "",
          "type": "bytes32"
        }
      ],
      "stateMutability": "view",
      "type": "function"
    },
    {
      "inputs": [],
      "name": "TREASURY_ROLE",
      "outputs": [
        {
          "internalType": "bytes32",
          "name": "",
          "type": "bytes32"
        }
      ],
      "stateMutability": "view",
      "type": "function"
    },
    {
      "inputs": [
        {
          "internalType": "address",
          "name": "to",
          "type": "address"
        },
        {
          "internalType": "uint256",
          "name": "tokenId",
          "type": "uint256"
        }
      ],
      "name": "approve",
      "outputs": [],
      "stateMutability": "nonpayable",
      "type": "function"
    },
    {
      "inputs": [
        {
          "internalType": "address",
          "name": "owner",
          "type": "address"
        }
      ],
      "name": "balanceOf",
      "outputs": [
        {
          "internalType": "uint256",
          "name": "",
          "type": "uint256"
        }
      ],
      "stateMutability": "view",
      "type": "function"
    },
    {
      "inputs": [
        {
          "internalType": "uint256",
          "name": "vaultID",
          "type": "uint256"
        },
        {
          "internalType": "uint256",
          "name": "amount",
          "type": "uint256"
        }
      ],
      "name": "borrowToken",
      "outputs": [],
      "stateMutability": "nonpayable",
      "type": "function"
    },
    {
      "inputs": [
        {
          "internalType": "uint256",
          "name": "vaultId_",
          "type": "uint256"
        }
      ],
      "name": "checkCost",
      "outputs": [
        {
          "internalType": "uint256",
          "name": "",
          "type": "uint256"
        }
      ],
      "stateMutability": "view",
      "type": "function"
    },
    {
      "inputs": [
        {
          "internalType": "uint256",
          "name": "vaultId_",
          "type": "uint256"
        }
      ],
      "name": "checkExtract",
      "outputs": [
        {
          "internalType": "uint256",
          "name": "",
          "type": "uint256"
        }
      ],
      "stateMutability": "view",
      "type": "function"
    },
    {
      "inputs": [
        {
          "internalType": "uint256",
          "name": "vaultId_",
          "type": "uint256"
        }
      ],
      "name": "checkLiquidation",
      "outputs": [
        {
          "internalType": "bool",
          "name": "",
          "type": "bool"
        }
      ],
      "stateMutability": "view",
      "type": "function"
    },
    {
      "inputs": [],
      "name": "closingFee",
      "outputs": [
        {
          "internalType": "uint256",
          "name": "",
          "type": "uint256"
        }
      ],
      "stateMutability": "view",
      "type": "function"
    },
    {
      "inputs": [],
      "name": "createVault",
      "outputs": [],
      "stateMutability": "nonpayable",
      "type": "function"
    },
    {
      "inputs": [],
      "name": "debtCeiling",
      "outputs": [
        {
          "internalType": "uint256",
          "name": "",
          "type": "uint256"
        }
      ],
      "stateMutability": "view",
      "type": "function"
    },
    {
      "inputs": [],
      "name": "debtRatio",
      "outputs": [
        {
          "internalType": "uint256",
          "name": "",
          "type": "uint256"
        }
      ],
      "stateMutability": "view",
      "type": "function"
    },
    {
      "inputs": [
        {
          "internalType": "uint256",
          "name": "vaultID",
          "type": "uint256"
        },
        {
          "internalType": "uint256",
          "name": "amount",
          "type": "uint256"
        }
      ],
      "name": "depositCollateral",
      "outputs": [],
      "stateMutability": "nonpayable",
      "type": "function"
    },
    {
      "inputs": [
        {
          "internalType": "uint256",
          "name": "vaultID",
          "type": "uint256"
        }
      ],
      "name": "destroyVault",
      "outputs": [],
      "stateMutability": "nonpayable",
      "type": "function"
    },
    {
      "inputs": [],
      "name": "gainRatio",
      "outputs": [
        {
          "internalType": "uint256",
          "name": "",
          "type": "uint256"
        }
      ],
      "stateMutability": "view",
      "type": "function"
    },
    {
      "inputs": [],
      "name": "gateway",
      "outputs": [
        {
          "internalType": "address",
          "name": "",
          "type": "address"
        }
      ],
      "stateMutability": "view",
      "type": "function"
    },
    {
      "inputs": [
        {
          "internalType": "uint256",
          "name": "tokenId",
          "type": "uint256"
        }
      ],
      "name": "getApproved",
      "outputs": [
        {
          "internalType": "address",
          "name": "",
          "type": "address"
        }
      ],
      "stateMutability": "view",
      "type": "function"
    },
    {
      "inputs": [
        {
          "internalType": "address",
          "name": "user",
          "type": "address"
        }
      ],
      "name": "getPaid",
      "outputs": [],
      "stateMutability": "nonpayable",
      "type": "function"
    },
    {
      "inputs": [],
      "name": "getPricePeg",
      "outputs": [
        {
          "internalType": "uint256",
          "name": "",
          "type": "uint256"
        }
      ],
      "stateMutability": "view",
      "type": "function"
    },
    {
      "inputs": [],
      "name": "getPriceSource",
      "outputs": [
        {
          "internalType": "uint256",
          "name": "",
          "type": "uint256"
        }
      ],
      "stateMutability": "view",
      "type": "function"
    },
    {
      "inputs": [
        {
          "internalType": "bytes32",
          "name": "role",
          "type": "bytes32"
        }
      ],
      "name": "getRoleAdmin",
      "outputs": [
        {
          "internalType": "bytes32",
          "name": "",
          "type": "bytes32"
        }
      ],
      "stateMutability": "view",
      "type": "function"
    },
    {
      "inputs": [
        {
          "internalType": "bytes32",
          "name": "role",
          "type": "bytes32"
        },
        {
          "internalType": "address",
          "name": "account",
          "type": "address"
        }
      ],
      "name": "grantRole",
      "outputs": [],
      "stateMutability": "nonpayable",
      "type": "function"
    },
    {
      "inputs": [
        {
          "internalType": "bytes32",
          "name": "role",
          "type": "bytes32"
        },
        {
          "internalType": "address",
          "name": "account",
          "type": "address"
        }
      ],
      "name": "hasRole",
      "outputs": [
        {
          "internalType": "bool",
          "name": "",
          "type": "bool"
        }
      ],
      "stateMutability": "view",
      "type": "function"
    },
    {
      "inputs": [
        {
          "internalType": "uint256",
          "name": "minimumCollateralPercentage_",
          "type": "uint256"
        },
        {
          "internalType": "address",
          "name": "priceSource_",
          "type": "address"
        },
        {
          "internalType": "string",
          "name": "name_",
          "type": "string"
        },
        {
          "internalType": "string",
          "name": "symbol_",
          "type": "string"
        },
        {
          "internalType": "address",
          "name": "token_",
          "type": "address"
        }
      ],
      "name": "initialize",
      "outputs": [],
      "stateMutability": "nonpayable",
      "type": "function"
    },
    {
      "inputs": [
        {
          "internalType": "address",
          "name": "owner",
          "type": "address"
        },
        {
          "internalType": "address",
          "name": "operator",
          "type": "address"
        }
      ],
      "name": "isApprovedForAll",
      "outputs": [
        {
          "internalType": "bool",
          "name": "",
          "type": "bool"
        }
      ],
      "stateMutability": "view",
      "type": "function"
    },
    {
      "inputs": [
        {
          "internalType": "uint256",
          "name": "vaultID_",
          "type": "uint256"
        }
      ],
      "name": "liquidateVault",
      "outputs": [],
      "stateMutability": "nonpayable",
      "type": "function"
    },
    {
      "inputs": [],
      "name": "minimumCollateralPercentage",
      "outputs": [
        {
          "internalType": "uint256",
          "name": "",
          "type": "uint256"
        }
      ],
      "stateMutability": "view",
      "type": "function"
    },
    {
      "inputs": [],
      "name": "minimumDebt",
      "outputs": [
        {
          "internalType": "uint256",
          "name": "",
          "type": "uint256"
        }
      ],
      "stateMutability": "view",
      "type": "function"
    },
    {
      "inputs": [],
      "name": "name",
      "outputs": [
        {
          "internalType": "string",
          "name": "",
          "type": "string"
        }
      ],
      "stateMutability": "view",
      "type": "function"
    },
    {
      "inputs": [],
      "name": "openingFee",
      "outputs": [
        {
          "internalType": "uint256",
          "name": "",
          "type": "uint256"
        }
      ],
      "stateMutability": "view",
      "type": "function"
    },
    {
      "inputs": [
        {
          "internalType": "uint256",
          "name": "tokenId",
          "type": "uint256"
        }
      ],
      "name": "ownerOf",
      "outputs": [
        {
          "internalType": "address",
          "name": "",
          "type": "address"
        }
      ],
      "stateMutability": "view",
      "type": "function"
    },
    {
      "inputs": [
        {
          "internalType": "uint256",
          "name": "vaultID",
          "type": "uint256"
        },
        {
          "internalType": "uint256",
          "name": "amount",
          "type": "uint256"
        }
      ],
      "name": "payBackToken",
      "outputs": [],
      "stateMutability": "nonpayable",
      "type": "function"
    },
    {
      "inputs": [],
      "name": "priceSource",
      "outputs": [
        {
          "internalType": "contract AggregatorV3Interface",
          "name": "",
          "type": "address"
        }
      ],
      "stateMutability": "view",
      "type": "function"
    },
    {
      "inputs": [
        {
          "internalType": "bytes32",
          "name": "role",
          "type": "bytes32"
        },
        {
          "internalType": "address",
          "name": "account",
          "type": "address"
        }
      ],
      "name": "renounceRole",
      "outputs": [],
      "stateMutability": "nonpayable",
      "type": "function"
    },
    {
      "inputs": [
        {
          "internalType": "bytes32",
          "name": "role",
          "type": "bytes32"
        },
        {
          "internalType": "address",
          "name": "account",
          "type": "address"
        }
      ],
      "name": "revokeRole",
      "outputs": [],
      "stateMutability": "nonpayable",
      "type": "function"
    },
    {
      "inputs": [
        {
          "internalType": "address",
          "name": "from",
          "type": "address"
        },
        {
          "internalType": "address",
          "name": "to",
          "type": "address"
        },
        {
          "internalType": "uint256",
          "name": "tokenId",
          "type": "uint256"
        }
      ],
      "name": "safeTransferFrom",
      "outputs": [],
      "stateMutability": "nonpayable",
      "type": "function"
    },
    {
      "inputs": [
        {
          "internalType": "address",
          "name": "from",
          "type": "address"
        },
        {
          "internalType": "address",
          "name": "to",
          "type": "address"
        },
        {
          "internalType": "uint256",
          "name": "tokenId",
          "type": "uint256"
        },
        {
          "internalType": "bytes",
          "name": "_data",
          "type": "bytes"
        }
      ],
      "name": "safeTransferFrom",
      "outputs": [],
      "stateMutability": "nonpayable",
      "type": "function"
    },
    {
      "inputs": [
        {
          "internalType": "address",
          "name": "operator",
          "type": "address"
        },
        {
          "internalType": "bool",
          "name": "approved",
          "type": "bool"
        }
      ],
      "name": "setApprovalForAll",
      "outputs": [],
      "stateMutability": "nonpayable",
      "type": "function"
    },
    {
      "inputs": [
        {
          "internalType": "uint256",
          "name": "amount",
          "type": "uint256"
        }
      ],
      "name": "setClosingFee",
      "outputs": [],
      "stateMutability": "nonpayable",
      "type": "function"
    },
    {
      "inputs": [
        {
          "internalType": "uint256",
          "name": "debtCeiling_",
          "type": "uint256"
        }
      ],
      "name": "setDebtCeiling",
      "outputs": [],
      "stateMutability": "nonpayable",
      "type": "function"
    },
    {
      "inputs": [
        {
          "internalType": "uint256",
          "name": "debtRatio_",
          "type": "uint256"
        }
      ],
      "name": "setDebtRatio",
      "outputs": [],
      "stateMutability": "nonpayable",
      "type": "function"
    },
    {
      "inputs": [
        {
          "internalType": "uint256",
          "name": "gainRatio_",
          "type": "uint256"
        }
      ],
      "name": "setGainRatio",
      "outputs": [],
      "stateMutability": "nonpayable",
      "type": "function"
    },
    {
      "inputs": [
        {
          "internalType": "address",
          "name": "gateway_",
          "type": "address"
        }
      ],
      "name": "setGateway",
      "outputs": [],
      "stateMutability": "nonpayable",
      "type": "function"
    },
    {
      "inputs": [
        {
          "internalType": "uint256",
          "name": "minimumDebt_",
          "type": "uint256"
        }
      ],
      "name": "setMinimumDebt",
      "outputs": [],
      "stateMutability": "nonpayable",
      "type": "function"
    },
    {
      "inputs": [
        {
          "internalType": "uint256",
          "name": "amount",
          "type": "uint256"
        }
      ],
      "name": "setOpeningFee",
      "outputs": [],
      "stateMutability": "nonpayable",
      "type": "function"
    },
    {
      "inputs": [
        {
          "internalType": "address",
          "name": "priceSource_",
          "type": "address"
        }
      ],
      "name": "setPriceSource",
      "outputs": [],
      "stateMutability": "nonpayable",
      "type": "function"
    },
    {
      "inputs": [
        {
          "internalType": "address",
          "name": "stabilityPool_",
          "type": "address"
        }
      ],
      "name": "setStabilityPool",
      "outputs": [],
      "stateMutability": "nonpayable",
      "type": "function"
    },
    {
      "inputs": [
        {
          "internalType": "uint256",
          "name": "tokenPeg_",
          "type": "uint256"
        }
      ],
      "name": "setTokenPeg",
      "outputs": [],
      "stateMutability": "nonpayable",
      "type": "function"
    },
    {
      "inputs": [
        {
          "internalType": "uint256",
          "name": "treasury_",
          "type": "uint256"
        }
      ],
      "name": "setTreasury",
      "outputs": [],
      "stateMutability": "nonpayable",
      "type": "function"
    },
    {
      "inputs": [],
      "name": "stabilityPool",
      "outputs": [
        {
          "internalType": "address",
          "name": "",
          "type": "address"
        }
      ],
      "stateMutability": "view",
      "type": "function"
    },
    {
      "inputs": [
        {
          "internalType": "bytes4",
          "name": "interfaceId",
          "type": "bytes4"
        }
      ],
      "name": "supportsInterface",
      "outputs": [
        {
          "internalType": "bool",
          "name": "",
          "type": "bool"
        }
      ],
      "stateMutability": "view",
      "type": "function"
    },
    {
      "inputs": [],
      "name": "symbol",
      "outputs": [
        {
          "internalType": "string",
          "name": "",
          "type": "string"
        }
      ],
      "stateMutability": "view",
      "type": "function"
    },
    {
      "inputs": [],
      "name": "token",
      "outputs": [
        {
          "internalType": "contract IERC20Metadata",
          "name": "",
          "type": "address"
        }
      ],
      "stateMutability": "view",
      "type": "function"
    },
    {
      "inputs": [
        {
          "internalType": "uint256",
          "name": "index",
          "type": "uint256"
        }
      ],
      "name": "tokenByIndex",
      "outputs": [
        {
          "internalType": "uint256",
          "name": "",
          "type": "uint256"
        }
      ],
      "stateMutability": "view",
      "type": "function"
    },
    {
      "inputs": [
        {
          "internalType": "address",
          "name": "",
          "type": "address"
        }
      ],
      "name": "tokenDebt",
      "outputs": [
        {
          "internalType": "uint256",
          "name": "",
          "type": "uint256"
        }
      ],
      "stateMutability": "view",
      "type": "function"
    },
    {
      "inputs": [
        {
          "internalType": "address",
          "name": "owner",
          "type": "address"
        },
        {
          "internalType": "uint256",
          "name": "index",
          "type": "uint256"
        }
      ],
      "name": "tokenOfOwnerByIndex",
      "outputs": [
        {
          "internalType": "uint256",
          "name": "",
          "type": "uint256"
        }
      ],
      "stateMutability": "view",
      "type": "function"
    },
    {
      "inputs": [],
      "name": "tokenPeg",
      "outputs": [
        {
          "internalType": "uint256",
          "name": "",
          "type": "uint256"
        }
      ],
      "stateMutability": "view",
      "type": "function"
    },
    {
      "inputs": [
        {
          "internalType": "uint256",
          "name": "tokenId",
          "type": "uint256"
        }
      ],
      "name": "tokenURI",
      "outputs": [
        {
          "internalType": "string",
          "name": "",
          "type": "string"
        }
      ],
      "stateMutability": "view",
      "type": "function"
    },
    {
      "inputs": [],
      "name": "totalDebt",
      "outputs": [
        {
          "internalType": "uint256",
          "name": "",
          "type": "uint256"
        }
      ],
      "stateMutability": "view",
      "type": "function"
    },
    {
      "inputs": [],
      "name": "totalSupply",
      "outputs": [
        {
          "internalType": "uint256",
          "name": "",
          "type": "uint256"
        }
      ],
      "stateMutability": "view",
      "type": "function"
    },
    {
      "inputs": [
        {
          "internalType": "address",
          "name": "from",
          "type": "address"
        },
        {
          "internalType": "address",
          "name": "to",
          "type": "address"
        },
        {
          "internalType": "uint256",
          "name": "tokenId",
          "type": "uint256"
        }
      ],
      "name": "transferFrom",
      "outputs": [],
      "stateMutability": "nonpayable",
      "type": "function"
    },
    {
      "inputs": [
        {
          "internalType": "uint256",
          "name": "vaultID",
          "type": "uint256"
        },
        {
          "internalType": "address",
          "name": "to",
          "type": "address"
        }
      ],
      "name": "transferVault",
      "outputs": [],
      "stateMutability": "nonpayable",
      "type": "function"
    },
    {
      "inputs": [],
      "name": "treasury",
      "outputs": [
        {
          "internalType": "uint256",
          "name": "",
          "type": "uint256"
        }
      ],
      "stateMutability": "view",
      "type": "function"
    },
    {
      "inputs": [
        {
          "internalType": "uint256",
          "name": "",
          "type": "uint256"
        }
      ],
      "name": "vaultCollateral",
      "outputs": [
        {
          "internalType": "uint256",
          "name": "",
          "type": "uint256"
        }
      ],
      "stateMutability": "view",
      "type": "function"
    },
    {
      "inputs": [],
      "name": "vaultCounts",
      "outputs": [
        {
          "internalType": "uint256",
          "name": "",
          "type": "uint256"
        }
      ],
      "stateMutability": "view",
      "type": "function"
    },
    {
      "inputs": [
        {
          "internalType": "uint256",
          "name": "",
          "type": "uint256"
        }
      ],
      "name": "vaultDebt",
      "outputs": [
        {
          "internalType": "uint256",
          "name": "",
          "type": "uint256"
        }
      ],
      "stateMutability": "view",
      "type": "function"
    },
    {
      "inputs": [
        {
          "internalType": "uint256",
          "name": "vaultID",
          "type": "uint256"
        }
      ],
      "name": "vaultExists",
      "outputs": [
        {
          "internalType": "bool",
          "name": "",
          "type": "bool"
        }
      ],
      "stateMutability": "view",
      "type": "function"
    },
    {
      "inputs": [
        {
          "internalType": "uint256",
          "name": "vaultID",
          "type": "uint256"
        },
        {
          "internalType": "uint256",
          "name": "amount",
          "type": "uint256"
        }
      ],
      "name": "withdrawCollateral",
      "outputs": [],
      "stateMutability": "nonpayable",
      "type": "function"
    }
  ],
  "transactionHash": "0x416ad01f35544214ce14f023dd2ea21884679c76b61595f7af0643ef9f01ee94",
  "args": [],
  "solcInputHash": "8d9d686ca8e7b982e27db5ef8fd46aeb",
  "bytecode": "0x608060405234801561001057600080fd5b50615cfa80620000216000396000f3fe608060405234801561001057600080fd5b506004361061043c5760003560e01c8063728bbbb511610235578063bda5310711610135578063d547741f116100c8578063eb6a887d11610097578063fc0c546a1161007c578063fc0c546a14610955578063fc7b9c1814610969578063ffc73da71461097357600080fd5b8063eb6a887d1461092f578063ece137321461094257600080fd5b8063d547741f146108b2578063dcd68128146108c5578063e1c84ea4146108e9578063e985e9c5146108f357600080fd5b8063cea55f5711610104578063cea55f5714610851578063d11a57ec1461085b578063d310f49b14610870578063d4a9b2c51461089157600080fd5b8063bda5310714610817578063c87b56dd1461082a578063c91ee83d1461083d578063cdfedd631461084757600080fd5b806391d14854116101c8578063a217fddf11610197578063b1511cc91161017c578063b1511cc9146107de578063b86f6aef146107f1578063b88d4fde1461080457600080fd5b8063a217fddf146107c3578063a22cb465146107cb57600080fd5b806391d148541461076657806395d89b411461079f57806398d721e0146107a75780639fc30f1c146107ba57600080fd5b806385e290a31161020457806385e290a31461071a578063863759941461072d57806390646b4a1461074057806390cf0bba1461075357600080fd5b8063728bbbb5146106c95780637558abc8146106d3578063767a7b05146106f457806385af3c161461070757600080fd5b80632f2ff15d1161034057806344382f0f116102d357806361d027b3116102a257806363b8817c1161028757806363b8817c1461069057806370a08231146106a35780637139c929146106b657600080fd5b806361d027b3146106735780636352211e1461067d57600080fd5b806344382f0f1461063d5780634f6ccce71461064557806356572ac0146106585780635d12928b1461066b57600080fd5b80633db991771161030f5780633db99177146105f15780633e61facd1461060457806341a5068f1461061757806342842e0e1461062a57600080fd5b80632f2ff15d146105ae5780632f745c59146105c1578063311f392a146105d457806336568abe146105de57600080fd5b80630a998f53116103d35780631c883e7b116103a257806323b872dd1161038757806323b872dd1461056e578063248a9ca3146105815780632935d2bc146105a457600080fd5b80631c883e7b1461055057806320531bc91461055a57600080fd5b80630a998f531461050e578063116191b61461052157806311b4a8321461053557806318160ddd1461054857600080fd5b806306fdde031161040f57806306fdde03146104c0578063081812fc146104d557806308ec5927146104e8578063095ea7b3146104fb57600080fd5b806301e49d0a1461044157806301ffc9a714610456578063048c661d1461047e578063048de381146104aa575b600080fd5b61045461044f36600461573c565b610986565b005b610469610464366004615776565b610a32565b60405190151581526020015b60405180910390f35b61013a54610492906001600160a01b031681565b6040516001600160a01b039091168152602001610475565b6104b2610a43565b604051908152602001610475565b6104c8610b4f565b6040516104759190615a0b565b6104926104e336600461573c565b610be1565b6104546104f6366004615852565b610c76565b6104546105093660046156f7565b61103b565b61045461051c36600461573c565b61116d565b61013b54610492906001600160a01b031681565b6104b261054336600461573c565b611287565b6099546104b2565b6104b26101305481565b61013754610492906001600160a01b031681565b61045461057c36600461560d565b611329565b6104b261058f36600461573c565b600090815260fb602052604090206001015490565b6104b261012e5481565b6104546105bc366004615754565b6113b0565b6104b26105cf3660046156f7565b6113d6565b6104b26101355481565b6104546105ec366004615754565b61147e565b6104546105ff36600461573c565b61150a565b610454610612366004615754565b6115ed565b6104546106253660046157c6565b61171a565b61045461063836600461560d565b611909565b6104b2611924565b6104b261065336600461573c565b611935565b6104b261066636600461573c565b6119e7565b610454611b4c565b6104b261013c5481565b61049261068b36600461573c565b611bdd565b61045461069e3660046155c1565b611c68565b6104b26106b13660046155c1565b611e2f565b6104546106c436600461573c565b611ec9565b6104b26101315481565b6104b26106e13660046155c1565b6101366020526000908152604090205481565b610454610702366004615852565b611f3f565b610454610715366004615852565b61220a565b61045461072836600461573c565b61261a565b61045461073b36600461573c565b612832565b61045461074e3660046155c1565b612881565b61045461076136600461573c565b6129b3565b610469610774366004615754565b600091825260fb602090815260408084206001600160a01b0393909316845291905290205460ff1690565b6104c861300c565b6104546107b53660046155c1565b61301b565b610132546104b2565b6104b2600081565b6104546107d93660046156c1565b613173565b6104546107ec36600461573c565b613238565b6104696107ff36600461573c565b613300565b610454610812366004615648565b6134a4565b6104546108253660046155c1565b613532565b6104c861083836600461573c565b613616565b6104b26101405481565b6104b26101325481565b6104b26101345481565b6104b2600080516020615ca583398151915281565b6104b261087e36600461573c565b61013f6020526000908152604090205481565b6104b261089f36600461573c565b61013e6020526000908152604090205481565b6104546108c0366004615754565b61370b565b6104696108d336600461573c565b600090815261013d602052604090205460ff1690565b6104b261012f5481565b6104696109013660046155db565b6001600160a01b039182166000908152606a6020908152604080832093909416825291909152205460ff1690565b61045461093d36600461573c565b613731565b610454610950366004615852565b6137c6565b61013854610492906001600160a01b031681565b6104b26101335481565b61045461098136600461573c565b61394a565b600080516020615ca583398151915261099f81336139dd565b600082116109f45760405162461bcd60e51b815260206004820152601260248201527f5065672063616e6e6f74206265207a65726f000000000000000000000000000060448201526064015b60405180910390fd5b6101328290556040518281527f657d2b8cd9c1cd7fc4cfad3db71318ea067f53cfeb214befc5af59ed860d5a16906020015b60405180910390a15050565b6000610a3d82613a5d565b92915050565b60008061013760009054906101000a90046001600160a01b03166001600160a01b031663feaf968c6040518163ffffffff1660e01b815260040160a06040518083038186803b158015610a9557600080fd5b505afa158015610aa9573d6000803e3d6000fd5b505050506040513d601f19601f82011682018060405250810190610acd9190615873565b5050509150506000811215610b4a5760405162461bcd60e51b815260206004820152602360248201527f436861696e6c696e6b2072657475726e65642061206e6567617469766520707260448201527f696365000000000000000000000000000000000000000000000000000000000060648201526084016109eb565b919050565b606060658054610b5e90615bd4565b80601f0160208091040260200160405190810160405280929190818152602001828054610b8a90615bd4565b8015610bd75780601f10610bac57610100808354040283529160200191610bd7565b820191906000526020600020905b815481529060010190602001808311610bba57829003601f168201915b5050505050905090565b6000818152606760205260408120546001600160a01b0316610c5a5760405162461bcd60e51b815260206004820152602c60248201527f4552433732313a20617070726f76656420717565727920666f72206e6f6e657860448201526b34b9ba32b73a103a37b5b2b760a11b60648201526084016109eb565b506000908152606960205260409020546001600160a01b031690565b600082815261013d6020526040902054829060ff16610cce5760405162461bcd60e51b815260206004820152601460248201527315985d5b1d08191bd95cc81b9bdd08195e1a5cdd60621b60448201526064016109eb565b33610cd882611bdd565b6001600160a01b03161480610cf8575061013b546001600160a01b031633145b610d445760405162461bcd60e51b815260206004820152601960248201527f5661756c74206973206e6f74206f776e656420627920796f750000000000000060448201526064016109eb565b600260c9541415610d975760405162461bcd60e51b815260206004820152601f60248201527f5265656e7472616e637947756172643a207265656e7472616e742063616c6c0060448201526064016109eb565b600260c95581610de95760405162461bcd60e51b815260206004820152601b60248201527f4d75737420626f72726f77206e6f6e2d7a65726f20616d6f756e74000000000060448201526064016109eb565b61012f548261013354610dfc9190615a1e565b1115610e4a5760405162461bcd60e51b815260206004820152601e60248201527f43616e6e6f74206d696e74206f7665722064656274206365696c696e672e000060448201526064016109eb565b600083815261013f6020526040812054610e65908490615a1e565b600085815261013e6020526040902054909150610e829082613a9b565b610ef45760405162461bcd60e51b815260206004820152603a60248201527f426f72726f7720776f756c6420707574207661756c742062656c6f77206d696e60448201527f696d756d20636f6c6c61746572616c2070657263656e7461676500000000000060648201526084016109eb565b61014054811015610f6d5760405162461bcd60e51b815260206004820152602f60248201527f426f72726f77206e6565647320746f206265206c6172676572207468616e207460448201527f6865206d696e696d756d2064656274000000000000000000000000000000000060648201526084016109eb565b610f778484613b73565b610139546040517f40c10f19000000000000000000000000000000000000000000000000000000008152336004820152602481018590526001600160a01b03909116906340c10f1990604401600060405180830381600087803b158015610fdd57600080fd5b505af1158015610ff1573d6000803e3d6000fd5b505060408051878152602081018790527f3e08df88d8e28f37df9bf227d3142ac506a364403445661a60891a49ed6792ca93500190505b60405180910390a15050600160c9555050565b600061104682611bdd565b9050806001600160a01b0316836001600160a01b031614156110d05760405162461bcd60e51b815260206004820152602160248201527f4552433732313a20617070726f76616c20746f2063757272656e74206f776e6560448201527f720000000000000000000000000000000000000000000000000000000000000060648201526084016109eb565b336001600160a01b03821614806110ec57506110ec8133610901565b61115e5760405162461bcd60e51b815260206004820152603860248201527f4552433732313a20617070726f76652063616c6c6572206973206e6f74206f7760448201527f6e6572206e6f7220617070726f76656420666f7220616c6c000000000000000060648201526084016109eb565b6111688383613c8b565b505050565b600080516020615ca583398151915261118681336139dd565b600082116111d65760405162461bcd60e51b815260206004820152601b60248201527f4d696e696d756d20646562742063616e6e6f74206265207a65726f000000000060448201526064016109eb565b61012f5461014054106112515760405162461bcd60e51b815260206004820152603060248201527f4d696e696d756d20646562742063616e6e6f742062652067726561746572207460448201527f68616e2064656274206365696c696e670000000000000000000000000000000060648201526084016109eb565b6101408290556040518281527fe9031d105129d4c03f829c02017c30a898f35e17ddf050fdd090c416442bec5a90602001610a26565b600081815261013d602052604081205460ff166112d95760405162461bcd60e51b815260206004820152601060248201526f15985d5b1d081b5d5cdd08195e1a5cdd60821b60448201526064016109eb565b600082815261013e602090815260408083205461013f9092528220546112ff9190613cf9565b91505061013254816113119190615a36565b905061013454816113229190615a36565b9392505050565b6113333382613de8565b6113a55760405162461bcd60e51b815260206004820152603160248201527f4552433732313a207472616e736665722063616c6c6572206973206e6f74206f60448201527f776e6572206e6f7220617070726f76656400000000000000000000000000000060648201526084016109eb565b611168838383613edb565b600082815260fb60205260409020600101546113cc81336139dd565b6111688383613f23565b60006113e183611e2f565b82106114555760405162461bcd60e51b815260206004820152602b60248201527f455243373231456e756d657261626c653a206f776e657220696e646578206f7560448201527f74206f6620626f756e647300000000000000000000000000000000000000000060648201526084016109eb565b506001600160a01b03919091166000908152609760209081526040808320938352929052205490565b6001600160a01b03811633146114fc5760405162461bcd60e51b815260206004820152602f60248201527f416363657373436f6e74726f6c3a2063616e206f6e6c792072656e6f756e636560448201527f20726f6c657320666f722073656c66000000000000000000000000000000000060648201526084016109eb565b6115068282613fc5565b5050565b600080516020615ca583398151915261152381336139dd565b60fa8211156115745760405162461bcd60e51b815260206004820152601e60248201527f436c6f73696e67206665652063616e6e6f742062652061626f7665203125000060448201526064016109eb565b6305f5e10061158583612710615a1e565b6101345461013554611599906103e8615b38565b6115a39190615a36565b6115ad9190615b38565b106115b757600080fd5b6101308290556040518281527f2be5116c37a9989b15d218af1d929034cabc673c9c821d52a901411be5eafd2890602001610a26565b600082815261013d6020526040902054829060ff166116455760405162461bcd60e51b815260206004820152601460248201527315985d5b1d08191bd95cc81b9bdd08195e1a5cdd60621b60448201526064016109eb565b3361164f82611bdd565b6001600160a01b0316148061166f575061013b546001600160a01b031633145b6116bb5760405162461bcd60e51b815260206004820152601960248201527f5661756c74206973206e6f74206f776e656420627920796f750000000000000060448201526064016109eb565b6116c483614048565b6116ce82846140ef565b604080518481523360208201526001600160a01b0384168183015290517fa8159d062909288cfe1bc71a9cb71a800664f2658fc2588d52676a844f1b0f139181900360600190a1505050565b600054610100900460ff1680611733575060005460ff16155b6117965760405162461bcd60e51b815260206004820152602e60248201527f496e697469616c697a61626c653a20636f6e747261637420697320616c72656160448201526d191e481a5b9a5d1a585b1a5e995960921b60648201526084016109eb565b600054610100900460ff161580156117b8576000805461ffff19166101011790555b6117c061423d565b6117c861423d565b6117d284846142ef565b6117da61423d565b6117e26143cb565b6117ea61423d565b6001600160a01b03851661180e57634e487b7160e01b600052600160045260246000fd5b606486101561182d57634e487b7160e01b600052600160045260246000fd5b678ac7230489e8000061012f55604b6101305560006101318190556305f5e10061013255600261013455600b6101355561013a80546001600160a01b031990811690915561013b805482169055610137805482166001600160a01b0389811691909117909155610138805483169186169190911790556101398054339216821790556118b99190614482565b6118d1600080516020615ca583398151915233614482565b6118e9600080516020615ca58339815191528061448c565b61012e8690558015611901576000805461ff00191690555b505050505050565b611168838383604051806020016040528060008152506134a4565b600061193061012d5490565b905090565b600061194060995490565b82106119b45760405162461bcd60e51b815260206004820152602c60248201527f455243373231456e756d657261626c653a20676c6f62616c20696e646578206f60448201527f7574206f6620626f756e6473000000000000000000000000000000000000000060648201526084016109eb565b609982815481106119d557634e487b7160e01b600052603260045260246000fd5b90600052602060002001549050919050565b600081815261013d602052604081205460ff16611a395760405162461bcd60e51b815260206004820152601060248201526f15985d5b1d081b5d5cdd08195e1a5cdd60821b60448201526064016109eb565b600082815261013e602090815260408083205461013f909252822054611a5f9190613cf9565b915050600061013860009054906101000a90046001600160a01b03166001600160a01b031663313ce5676040518163ffffffff1660e01b815260040160206040518083038186803b158015611ab357600080fd5b505afa158015611ac7573d6000803e3d6000fd5b505050506040513d601f19601f82011682018060405250810190611aeb91906158b6565b611af6906012615b6e565b611b0190600a615a8d565b61013454611b0d610a43565b611b1890600a615b38565b611b229190615b38565b61013554611b309085615b38565b611b3a9190615a36565b611b449190615a36565b949350505050565b611b5b61012d80546001019055565b6000611b6761012d5490565b600081815261013d602052604090819020805460ff19166001179055519091507f8b6c1d05c678fa59695e26465a85918ce0fc63a88f74af53d1daef8f0a9c780490611bc890839033909182526001600160a01b0316602082015260400190565b60405180910390a1611bda33826140ef565b50565b6000818152606760205260408120546001600160a01b031680610a3d5760405162461bcd60e51b815260206004820152602960248201527f4552433732313a206f776e657220717565727920666f72206e6f6e657869737460448201527f656e7420746f6b656e000000000000000000000000000000000000000000000060648201526084016109eb565b600260c9541415611cbb5760405162461bcd60e51b815260206004820152601f60248201527f5265656e7472616e637947756172643a207265656e7472616e742063616c6c0060448201526064016109eb565b600260c95580336001600160a01b0382161480611ce3575061013b546001600160a01b031633145b611d2f5760405162461bcd60e51b815260206004820152601c60248201527f43616e6e6f74206765742070616964206966206e6f7420796f7572730000000060448201526064016109eb565b6001600160a01b03821660009081526101366020526040902054611dbb5760405162461bcd60e51b815260206004820152602860248201527f4e6f206c69717569646174696f6e73206173736f63696174656420776974682060448201527f6163636f756e742e00000000000000000000000000000000000000000000000060648201526084016109eb565b6001600160a01b038083166000908152610136602052604081208054919055610138549091611dec911633836144d7565b604080518281523360208201527f45f23935dce154b3c7ff256ac2402f7700f39ce5b210b7da385215939fc4c5c891015b60405180910390a15050600160c95550565b60006001600160a01b038216611ead5760405162461bcd60e51b815260206004820152602a60248201527f4552433732313a2062616c616e636520717565727920666f7220746865207a6560448201527f726f20616464726573730000000000000000000000000000000000000000000060648201526084016109eb565b506001600160a01b031660009081526068602052604090205490565b600080516020615ca5833981519152611ee281336139dd565b600082815261013d602052604090205460ff16611f385760405162461bcd60e51b815260206004820152601460248201527315985d5b1d08191bd95cc81b9bdd08195e1a5cdd60621b60448201526064016109eb565b5061013c55565b600082815261013d6020526040902054829060ff16611f975760405162461bcd60e51b815260206004820152601460248201527315985d5b1d08191bd95cc81b9bdd08195e1a5cdd60621b60448201526064016109eb565b33611fa182611bdd565b6001600160a01b03161480611fc1575061013b546001600160a01b031633145b61200d5760405162461bcd60e51b815260206004820152601960248201527f5661756c74206973206e6f74206f776e656420627920796f750000000000000060448201526064016109eb565b600260c95414156120605760405162461bcd60e51b815260206004820152601f60248201527f5265656e7472616e637947756172643a207265656e7472616e742063616c6c0060448201526064016109eb565b600260c955600083815261013e60205260409020548211156120ea5760405162461bcd60e51b815260206004820152602560248201527f5661756c7420646f6573206e6f74206861766520656e6f75676820636f6c6c6160448201527f746572616c00000000000000000000000000000000000000000000000000000060648201526084016109eb565b600083815261013e6020526040812054612105908490615b57565b600085815261013f6020526040902054909150156121aa57600084815261013f6020526040902054612138908290613a9b565b6121aa5760405162461bcd60e51b815260206004820152603e60248201527f5769746864726177616c20776f756c6420707574207661756c742062656c6f7760448201527f206d696e696d756d20636f6c6c61746572616c2070657263656e74616765000060648201526084016109eb565b600084815261013e60205260409020819055610138546121d4906001600160a01b031633856144d7565b60408051858152602081018590527f6c0ea3bea9dd66afa8f9d39d6eb93d833466190330813b42835efc650dca4cb99101611028565b600082815261013d6020526040902054829060ff166122625760405162461bcd60e51b815260206004820152601460248201527315985d5b1d08191bd95cc81b9bdd08195e1a5cdd60621b60448201526064016109eb565b3361226c82611bdd565b6001600160a01b0316148061228c575061013b546001600160a01b031633145b6122d85760405162461bcd60e51b815260206004820152601960248201527f5661756c74206973206e6f74206f776e656420627920796f750000000000000060448201526064016109eb565b600260c954141561232b5760405162461bcd60e51b815260206004820152601f60248201527f5265656e7472616e637947756172643a207265656e7472616e742063616c6c0060448201526064016109eb565b600260c955610139546040516370a0823160e01b815233600482015283916001600160a01b0316906370a082319060240160206040518083038186803b15801561237457600080fd5b505afa158015612388573d6000803e3d6000fd5b505050506040513d601f19601f820116820180604052508101906123ac91906157ae565b10156123fa5760405162461bcd60e51b815260206004820152601560248201527f546f6b656e2062616c616e636520746f6f206c6f77000000000000000000000060448201526064016109eb565b600083815261013f602052604090205482111561247f5760405162461bcd60e51b815260206004820152602760248201527f5661756c742064656274206c657373207468616e20616d6f756e7420746f207060448201527f6179206261636b0000000000000000000000000000000000000000000000000060648201526084016109eb565b610138546040805163313ce56760e01b815290516000926001600160a01b03169163313ce567916004808301926020929190829003018186803b1580156124c557600080fd5b505afa1580156124d9573d6000803e3d6000fd5b505050506040513d601f19601f820116820180604052508101906124fd91906158b6565b612508906012615b6e565b61251390600a615a8d565b61251b610a43565b61252790612710615b38565b61013254610130546125399087615b38565b6125439190615b38565b61254d9190615a36565b6125579190615a36565b90506125638484614568565b61256d84826146ee565b612576816147d5565b61013954604051632770a7eb60e21b8152336004820152602481018590526001600160a01b0390911690639dc29fac90604401600060405180830381600087803b1580156125c357600080fd5b505af11580156125d7573d6000803e3d6000fd5b505060408051878152602081018790529081018490527f31f96762af4051f367185773cc2f55bfb112a6c114b3407ded1f321a9eb199ac92506060019050611028565b600081815261013d6020526040902054819060ff166126725760405162461bcd60e51b815260206004820152601460248201527315985d5b1d08191bd95cc81b9bdd08195e1a5cdd60621b60448201526064016109eb565b3361267c82611bdd565b6001600160a01b0316148061269c575061013b546001600160a01b031633145b6126e85760405162461bcd60e51b815260206004820152601960248201527f5661756c74206973206e6f74206f776e656420627920796f750000000000000060448201526064016109eb565b600260c954141561273b5760405162461bcd60e51b815260206004820152601f60248201527f5265656e7472616e637947756172643a207265656e7472616e742063616c6c0060448201526064016109eb565b600260c955600082815261013f60205260409020541561279d5760405162461bcd60e51b815260206004820152601960248201527f5661756c74206173206f75747374616e64696e6720646562740000000000000060448201526064016109eb565b600082815261013e60205260409020546127b683614048565b600083815261013d60209081526040808320805460ff1916905561013e825280832083905561013f90915281205580156128025761013854612802906001600160a01b031633836144d7565b6040518381527f4fe08624ee65b341c38ab9693d216b909d4ddee1bc8d3fe0fea14026c361b46590602001611e1d565b600080516020615ca583398151915261284b81336139dd565b6101318290556040518281527ff78536edc296a3a7e991e00caa8319c68a84cc56f22e8c9118463773d0844b9390602001610a26565b600080516020615ca583398151915261289a81336139dd565b6001600160a01b0382166128f05760405162461bcd60e51b815260206004820152601e60248201527f476174657761792063616e6e6f74206265207a65726f2061646472657373000060448201526064016109eb565b813b6129645760405162461bcd60e51b815260206004820152602560248201527f4d757374206265206120636f6e747261637420746f206265207468652067617460448201527f657761792e00000000000000000000000000000000000000000000000000000060648201526084016109eb565b61013b80546001600160a01b0319166001600160a01b0384169081179091556040519081527f138dfef152fa4f095c1158aad1b384e3c43de632c031e8e37e149917e690075790602001610a26565b61013a546001600160a01b031615806129d7575061013a546001600160a01b031633145b612a495760405162461bcd60e51b815260206004820152602160248201527f6275795269736b795661756c742064697361626c656420666f72207075626c6960448201527f630000000000000000000000000000000000000000000000000000000000000060648201526084016109eb565b600260c9541415612a9c5760405162461bcd60e51b815260206004820152601f60248201527f5265656e7472616e637947756172643a207265656e7472616e742063616c6c0060448201526064016109eb565b600260c955600081815261013d602052604090205460ff16612af75760405162461bcd60e51b815260206004820152601460248201527315985d5b1d08191bd95cc81b9bdd08195e1a5cdd60621b60448201526064016109eb565b600081815261013e602090815260408083205461013f9092528220548291612b1e91613cf9565b9150915060008111612b725760405162461bcd60e51b815260206004820152601160248201527f5661756c7420686173206e6f206465627400000000000000000000000000000060448201526064016109eb565b60008161013860009054906101000a90046001600160a01b03166001600160a01b031663313ce5676040518163ffffffff1660e01b815260040160206040518083038186803b158015612bc457600080fd5b505afa158015612bd8573d6000803e3d6000fd5b505050506040513d601f19601f82011682018060405250810190612bfc91906158b6565b612c07906012615b6e565b612c1290600a615a8d565b612c1c9085615b38565b612c269190615a36565b905061012e548110612ca05760405162461bcd60e51b815260206004820152603060248201527f5661756c74206973206e6f742062656c6f77206d696e696d756d20636f6c6c6160448201527f746572616c2070657263656e746167650000000000000000000000000000000060648201526084016109eb565b6000612cab856119e7565b90506000612cb886611287565b610139546040516370a0823160e01b815233600482015291925082916001600160a01b03909116906370a082319060240160206040518083038186803b158015612d0157600080fd5b505afa158015612d15573d6000803e3d6000fd5b505050506040513d601f19601f82011682018060405250810190612d3991906157ae565b1015612dad5760405162461bcd60e51b815260206004820152603160248201527f546f6b656e2062616c616e636520746f6f206c6f7720746f20706179206f666660448201527f206f75747374616e64696e67206465627400000000000000000000000000000060648201526084016109eb565b61013954604051632770a7eb60e21b8152336004820152602481018390526001600160a01b0390911690639dc29fac90604401600060405180830381600087803b158015612dfa57600080fd5b505af1158015612e0e573d6000803e3d6000fd5b505050600087815261013f602052604081208054849350909190612e33908490615b57565b9091555050610138546040805163313ce56760e01b815290516000926001600160a01b03169163313ce567916004808301926020929190829003018186803b158015612e7e57600080fd5b505afa158015612e92573d6000803e3d6000fd5b505050506040513d601f19601f82011682018060405250810190612eb691906158b6565b612ec1906012615b6e565b612ecc90600a615a8d565b612ed4610a43565b612ee090612710615b38565b6101325461013054612ef29086615b38565b612efc9190615b38565b612f069190615a36565b612f109190615a36565b9050612f1c8382615a1e565b600088815261013e602052604081208054909190612f3b908490615b57565b909155505061013c54600090815261013e602052604081208054839290612f63908490615a1e565b9091555050336000908152610136602052604081208054859290612f88908490615a1e565b90915550612f9790508261483f565b7f4d151d3a98b83151d51917640c221f8c8e3c054422ea1b48dcbbd57e3f4210d587612fc289611bdd565b604080519283526001600160a01b0390911660208301523390820152606081018490526080810185905260a0810183905260c00160405180910390a15050600160c9555050505050565b606060668054610b5e90615bd4565b600080516020615ca583398151915261303481336139dd565b6001600160a01b0382166130b05760405162461bcd60e51b815260206004820152602560248201527f53746162696c69747920706f6f6c2063616e6e6f74206265207a65726f20616460448201527f647265737300000000000000000000000000000000000000000000000000000060648201526084016109eb565b813b6131245760405162461bcd60e51b815260206004820152602c60248201527f4d757374206265206120636f6e747261637420746f206265207468652073746160448201527f62696c69747920706f6f6c2e000000000000000000000000000000000000000060648201526084016109eb565b61013a80546001600160a01b0319166001600160a01b0384169081179091556040519081527feeec3ab95f3c876a3b73235ba92edc637a2edd294b997b5758fbf556f7953b9f90602001610a26565b6001600160a01b0382163314156131cc5760405162461bcd60e51b815260206004820152601960248201527f4552433732313a20617070726f766520746f2063616c6c65720000000000000060448201526064016109eb565b336000818152606a602090815260408083206001600160a01b03871680855290835292819020805460ff191686151590811790915590519081529192917f17307eab39ab6107e8899845ad3d59bd9653f200f220920489ca2b5937696c31910160405180910390a35050565b600080516020615ca583398151915261325181336139dd565b8161012f5411156132ca5760405162461bcd60e51b815260206004820152603c60248201527f7365744365696c696e673a204d757374206265206f7665722074686520616d6f60448201527f756e74206f662063757272656e742064656274206365696c696e672e0000000060648201526084016109eb565b61012f8290556040518281527f9e88375210357aa5dbeb756c2deee5a1a487e6dcd9fa8f444eda3bc7df41a37b90602001610a26565b600081815261013d602052604081205460ff166133525760405162461bcd60e51b815260206004820152601060248201526f15985d5b1d081b5d5cdd08195e1a5cdd60821b60448201526064016109eb565b600082815261013e602090815260408083205461013f909252822054829161337991613cf9565b91509150600081116133cd5760405162461bcd60e51b815260206004820152601560248201527f43616e6e6f742068617665207a65726f2064656274000000000000000000000060448201526064016109eb565b60008161013860009054906101000a90046001600160a01b03166001600160a01b031663313ce5676040518163ffffffff1660e01b815260040160206040518083038186803b15801561341f57600080fd5b505afa158015613433573d6000803e3d6000fd5b505050506040513d601f19601f8201168201806040525081019061345791906158b6565b613462906012615b6e565b61346d90600a615a8d565b6134779085615b38565b6134819190615a36565b905061012e5481101561349957506001949350505050565b506000949350505050565b6134ae3383613de8565b6135205760405162461bcd60e51b815260206004820152603160248201527f4552433732313a207472616e736665722063616c6c6572206973206e6f74206f60448201527f776e6572206e6f7220617070726f76656400000000000000000000000000000060648201526084016109eb565b61352c848484846148ab565b50505050565b600080516020615ca583398151915261354b81336139dd565b6001600160a01b0382166135c75760405162461bcd60e51b815260206004820152602360248201527f507269636520736f757263652063616e6e6f74206265207a65726f206164647260448201527f657373000000000000000000000000000000000000000000000000000000000060648201526084016109eb565b61013780546001600160a01b0319166001600160a01b0384169081179091556040519081527f96e1b2ba899db8310c90fe5b78eeb80bcaaf5de5f0c4549c82c621c2bc778b8090602001610a26565b6000818152606760205260409020546060906001600160a01b03166136a35760405162461bcd60e51b815260206004820152602f60248201527f4552433732314d657461646174613a2055524920717565727920666f72206e6f60448201527f6e6578697374656e7420746f6b656e000000000000000000000000000000000060648201526084016109eb565b60006136ba60408051602081019091526000815290565b905060008151116136da5760405180602001604052806000815250611322565b806136e484614934565b6040516020016136f592919061591f565b6040516020818303038152906040529392505050565b600082815260fb602052604090206001015461372781336139dd565b6111688383613fc5565b600080516020615ca583398151915261374a81336139dd565b6305f5e100610130546127106137609190615a1e565b83610135546103e86137729190615b38565b61377c9190615a36565b6137869190615b38565b1061379057600080fd5b6101348290556040518281527f29c334aad4ec9c65aa6ad3e720e9ad21ce4d7d6dbbdb44a3f97f2762d49387ca90602001610a26565b600082815261013d6020526040902054829060ff1661381e5760405162461bcd60e51b815260206004820152601460248201527315985d5b1d08191bd95cc81b9bdd08195e1a5cdd60621b60448201526064016109eb565b3361382882611bdd565b6001600160a01b03161480613848575061013b546001600160a01b031633145b6138945760405162461bcd60e51b815260206004820152601960248201527f5661756c74206973206e6f74206f776e656420627920796f750000000000000060448201526064016109eb565b610138546138ad906001600160a01b0316333085614a4e565b600083815261013e60205260408120546138c8908490615a1e565b600085815261013e60205260409020549091508110156138f857634e487b7160e01b600052600160045260246000fd5b600084815261013e602090815260409182902083905581518681529081018590527f52c4e7127ec34e8fc95f09ce2d06b4f00acca12ccbcdfb246ef67ee6aefe068d910160405180910390a150505050565b600080516020615ca583398151915261396381336139dd565b6305f5e100610130546127106139799190615a1e565b61013454613989856103e8615b38565b6139939190615a36565b61399d9190615b38565b106139a757600080fd5b6101358290556040518281527fee1adee4317c98f3606485f5b5d290ec4f4b8e1baee4906df1a86cd549ac864290602001610a26565b600082815260fb602090815260408083206001600160a01b038516845290915290205460ff1661150657613a1b816001600160a01b03166014614a9f565b613a26836020614a9f565b604051602001613a3792919061594e565b60408051601f198184030181529082905262461bcd60e51b82526109eb91600401615a0b565b60006001600160e01b031982167f7965db0b000000000000000000000000000000000000000000000000000000001480610a3d5750610a3d82614caa565b6000806000613aaa8585613cf9565b909250905060008161013860009054906101000a90046001600160a01b03166001600160a01b031663313ce5676040518163ffffffff1660e01b815260040160206040518083038186803b158015613b0157600080fd5b505afa158015613b15573d6000803e3d6000fd5b505050506040513d601f19601f82011682018060405250810190613b3991906158b6565b613b44906012615b6e565b613b4f90600a615a8d565b613b599085615b38565b613b639190615a36565b61012e5411159695505050505050565b60006101335482613b849190615a1e565b905061013354811015613ba757634e487b7160e01b600052600160045260246000fd5b61012f54811115613c205760405162461bcd60e51b815260206004820152602960248201527f43616e6e6f74206578636565642064656274206365696c696e6720666f72207460448201527f686973207661756c74000000000000000000000000000000000000000000000060648201526084016109eb565b600083815261013f6020526040812054613c3a9084615a1e565b600085815261013f6020526040902054909150811015613c6a57634e487b7160e01b600052600160045260246000fd5b613c7383614ce8565b600093845261013f6020526040909320929092555050565b600081815260696020526040902080546001600160a01b0319166001600160a01b0384169081179091558190613cc082611bdd565b6001600160a01b03167f8c5be1e5ebec7d5bd14f71427d1e84f3dd0314c0f7b2291e5b200ac8c7c3b92560405160405180910390a45050565b600080613d04610a43565b613d505760405162461bcd60e51b815260206004820152601560248201527f5072696365206d7573742062652061626f76652030000000000000000000000060448201526064016109eb565b61013254613da05760405162461bcd60e51b815260206004820152601360248201527f506567206d7573742062652061626f766520300000000000000000000000000060448201526064016109eb565b6000613daa610a43565b613db49086615b38565b90506000613dc26101325490565b613dcc9086615b38565b90506000613ddb836064615b38565b9791965090945050505050565b6000818152606760205260408120546001600160a01b0316613e615760405162461bcd60e51b815260206004820152602c60248201527f4552433732313a206f70657261746f7220717565727920666f72206e6f6e657860448201526b34b9ba32b73a103a37b5b2b760a11b60648201526084016109eb565b6000613e6c83611bdd565b9050806001600160a01b0316846001600160a01b03161480613ea75750836001600160a01b0316613e9c84610be1565b6001600160a01b0316145b80611b4457506001600160a01b038082166000908152606a602090815260408083209388168352929052205460ff16611b44565b60405162461bcd60e51b815260206004820152601260248201527f7472616e736665723a2064697361626c6564000000000000000000000000000060448201526064016109eb565b600082815260fb602090815260408083206001600160a01b038516845290915290205460ff1661150657600082815260fb602090815260408083206001600160a01b03851684529091529020805460ff19166001179055613f813390565b6001600160a01b0316816001600160a01b0316837f2f8788117e7eff1d82e926ec794901d17c78024a50270940304540a733656f0d60405160405180910390a45050565b600082815260fb602090815260408083206001600160a01b038516845290915290205460ff161561150657600082815260fb602090815260408083206001600160a01b0385168085529252808320805460ff1916905551339285917ff6391f5c32d9c69d2a47ea670b442974b53935d1edc7fd64eb21e047a839171b9190a45050565b600061405382611bdd565b905061406181600084614d7b565b61406c600083613c8b565b6001600160a01b0381166000908152606860205260408120805460019290614095908490615b57565b909155505060008281526067602052604080822080546001600160a01b0319169055518391906001600160a01b038416907fddf252ad1be2c89b69c2b068fc378daa952ba7f163c4a11628f55a4df523b3ef908390a45050565b6001600160a01b0382166141455760405162461bcd60e51b815260206004820181905260248201527f4552433732313a206d696e7420746f20746865207a65726f206164647265737360448201526064016109eb565b6000818152606760205260409020546001600160a01b0316156141aa5760405162461bcd60e51b815260206004820152601c60248201527f4552433732313a20746f6b656e20616c7265616479206d696e7465640000000060448201526064016109eb565b6141b660008383614d7b565b6001600160a01b03821660009081526068602052604081208054600192906141df908490615a1e565b909155505060008181526067602052604080822080546001600160a01b0319166001600160a01b03861690811790915590518392907fddf252ad1be2c89b69c2b068fc378daa952ba7f163c4a11628f55a4df523b3ef908290a45050565b600054610100900460ff1680614256575060005460ff16155b6142b95760405162461bcd60e51b815260206004820152602e60248201527f496e697469616c697a61626c653a20636f6e747261637420697320616c72656160448201526d191e481a5b9a5d1a585b1a5e995960921b60648201526084016109eb565b600054610100900460ff161580156142db576000805461ffff19166101011790555b8015611bda576000805461ff001916905550565b600054610100900460ff1680614308575060005460ff16155b61436b5760405162461bcd60e51b815260206004820152602e60248201527f496e697469616c697a61626c653a20636f6e747261637420697320616c72656160448201526d191e481a5b9a5d1a585b1a5e995960921b60648201526084016109eb565b600054610100900460ff1615801561438d576000805461ffff19166101011790555b82516143a0906065906020860190615462565b5081516143b4906066906020850190615462565b508015611168576000805461ff0019169055505050565b600054610100900460ff16806143e4575060005460ff16155b6144475760405162461bcd60e51b815260206004820152602e60248201527f496e697469616c697a61626c653a20636f6e747261637420697320616c72656160448201526d191e481a5b9a5d1a585b1a5e995960921b60648201526084016109eb565b600054610100900460ff16158015614469576000805461ffff19166101011790555b600160c9558015611bda576000805461ff001916905550565b6115068282613f23565b600082815260fb6020526040808220600101805490849055905190918391839186917fbd79b86ffe0ab8e8776151514217cd7cacd52c909f66475c3af44e129f0b00ff9190a4505050565b6040516001600160a01b0383166024820152604481018290526111689084907fa9059cbb00000000000000000000000000000000000000000000000000000000906064015b60408051601f198184030181529190526020810180517bffffffffffffffffffffffffffffffffffffffffffffffffffffffff166001600160e01b031990931692909217909152614d86565b806101335410156145e15760405162461bcd60e51b815260206004820152602860248201527f43616e6e6f742067657420726964206f66206d6f72652064656274207468616e60448201527f206578697374732e00000000000000000000000000000000000000000000000060648201526084016109eb565b600082815261013f60205260409020548111156146665760405162461bcd60e51b815260206004820152602960248201527f43616e6e6f742067657420726964206f66206d6f72652064656274207468616e60448201527f207573657220686173000000000000000000000000000000000000000000000060648201526084016109eb565b600081610133546146779190615b57565b90506101335481111561469a57634e487b7160e01b600052600160045260246000fd5b600083815261013f60205260408120546146b5908490615b57565b600085815261013f60205260409020549091508111156146e557634e487b7160e01b600052600160045260246000fd5b613c738361483f565b600082815261013e60205260409020548111156147735760405162461bcd60e51b815260206004820152603060248201527f43616e6e6f742072656d6f7665206d6f7265207468616e20746865206465706f60448201527f736974656420636f6c6c61746572616c0000000000000000000000000000000060648201526084016109eb565b600082815261013e602052604081205461478e908390615b57565b600084815261013e60205260409020549091508111156147be57634e487b7160e01b600052600160045260246000fd5b600092835261013e60205260409092209190915550565b61013c54600090815261013e60205260408120546147f4908390615a1e565b61013c54600090815261013e602052604090205490915081101561482857634e487b7160e01b600052600160045260246000fd5b61013c54600090815261013e602052604090205550565b610133548111156148925760405162461bcd60e51b815260206004820152601860248201527f446562742063616e206e6f7420676f2062656c6f7720302e000000000000000060448201526064016109eb565b600081610133546148a39190615b57565b610133555050565b6148b6848484613edb565b6148c284848484614e6b565b61352c5760405162461bcd60e51b815260206004820152603260248201527f4552433732313a207472616e7366657220746f206e6f6e20455243373231526560448201527f63656976657220696d706c656d656e746572000000000000000000000000000060648201526084016109eb565b6060816149585750506040805180820190915260018152600360fc1b602082015290565b8160005b8115614982578061496c81615c0f565b915061497b9050600a83615a36565b915061495c565b60008167ffffffffffffffff8111156149ab57634e487b7160e01b600052604160045260246000fd5b6040519080825280601f01601f1916602001820160405280156149d5576020820181803683370190505b5090505b8415611b44576149ea600183615b57565b91506149f7600a86615c2a565b614a02906030615a1e565b60f81b818381518110614a2557634e487b7160e01b600052603260045260246000fd5b60200101906001600160f81b031916908160001a905350614a47600a86615a36565b94506149d9565b6040516001600160a01b038085166024830152831660448201526064810182905261352c9085907f23b872dd000000000000000000000000000000000000000000000000000000009060840161451c565b60606000614aae836002615b38565b614ab9906002615a1e565b67ffffffffffffffff811115614adf57634e487b7160e01b600052604160045260246000fd5b6040519080825280601f01601f191660200182016040528015614b09576020820181803683370190505b509050600360fc1b81600081518110614b3257634e487b7160e01b600052603260045260246000fd5b60200101906001600160f81b031916908160001a9053507f780000000000000000000000000000000000000000000000000000000000000081600181518110614b8b57634e487b7160e01b600052603260045260246000fd5b60200101906001600160f81b031916908160001a9053506000614baf846002615b38565b614bba906001615a1e565b90505b6001811115614c5b577f303132333435363738396162636465660000000000000000000000000000000085600f1660108110614c0957634e487b7160e01b600052603260045260246000fd5b1a60f81b828281518110614c2d57634e487b7160e01b600052603260045260246000fd5b60200101906001600160f81b031916908160001a90535060049490941c93614c5481615bbd565b9050614bbd565b5083156113225760405162461bcd60e51b815260206004820181905260248201527f537472696e67733a20686578206c656e67746820696e73756666696369656e7460448201526064016109eb565b60006001600160e01b031982167f780e9d63000000000000000000000000000000000000000000000000000000001480610a3d5750610a3d82614fce565b60008161013354614cf99190615a1e565b905061012f54811115614d745760405162461bcd60e51b815260206004820152602260248201527f446562742063616e206e6f7420676f2061626f76652064656274206365696c6960448201527f6e6700000000000000000000000000000000000000000000000000000000000060648201526084016109eb565b6101335550565b611168838383615069565b6000614ddb826040518060400160405280602081526020017f5361666545524332303a206c6f772d6c6576656c2063616c6c206661696c6564815250856001600160a01b03166151219092919063ffffffff16565b8051909150156111685780806020019051810190614df99190615720565b6111685760405162461bcd60e51b815260206004820152602a60248201527f5361666545524332303a204552433230206f7065726174696f6e20646964206e60448201527f6f7420737563636565640000000000000000000000000000000000000000000060648201526084016109eb565b60006001600160a01b0384163b15614fc357604051630a85bd0160e11b81526001600160a01b0385169063150b7a0290614eaf9033908990889088906004016159cf565b602060405180830381600087803b158015614ec957600080fd5b505af1925050508015614ef9575060408051601f3d908101601f19168201909252614ef691810190615792565b60015b614fa9573d808015614f27576040519150601f19603f3d011682016040523d82523d6000602084013e614f2c565b606091505b508051614fa15760405162461bcd60e51b815260206004820152603260248201527f4552433732313a207472616e7366657220746f206e6f6e20455243373231526560448201527f63656976657220696d706c656d656e746572000000000000000000000000000060648201526084016109eb565b805181602001fd5b6001600160e01b031916630a85bd0160e11b149050611b44565b506001949350505050565b60006001600160e01b031982167f80ac58cd00000000000000000000000000000000000000000000000000000000148061503157506001600160e01b031982167f5b5e139f00000000000000000000000000000000000000000000000000000000145b80610a3d57507f01ffc9a7000000000000000000000000000000000000000000000000000000006001600160e01b0319831614610a3d565b6001600160a01b0383166150c4576150bf81609980546000838152609a60205260408120829055600182018355919091527f72a152ddfb8e864297c917af52ea6c1c68aead0fee1a62673fcc7e0c94979d000155565b6150e7565b816001600160a01b0316836001600160a01b0316146150e7576150e78382615130565b6001600160a01b0382166150fe57611168816151cd565b826001600160a01b0316826001600160a01b0316146111685761116882826152a6565b6060611b4484846000856152ea565b6000600161513d84611e2f565b6151479190615b57565b60008381526098602052604090205490915080821461519a576001600160a01b03841660009081526097602090815260408083208584528252808320548484528184208190558352609890915290208190555b5060009182526098602090815260408084208490556001600160a01b039094168352609781528383209183525290812055565b6099546000906151df90600190615b57565b6000838152609a60205260408120546099805493945090928490811061521557634e487b7160e01b600052603260045260246000fd5b90600052602060002001549050806099838154811061524457634e487b7160e01b600052603260045260246000fd5b6000918252602080832090910192909255828152609a9091526040808220849055858252812055609980548061528a57634e487b7160e01b600052603160045260246000fd5b6001900381819060005260206000200160009055905550505050565b60006152b183611e2f565b6001600160a01b039093166000908152609760209081526040808320868452825280832085905593825260989052919091209190915550565b6060824710156153625760405162461bcd60e51b815260206004820152602660248201527f416464726573733a20696e73756666696369656e742062616c616e636520666f60448201527f722063616c6c000000000000000000000000000000000000000000000000000060648201526084016109eb565b843b6153b05760405162461bcd60e51b815260206004820152601d60248201527f416464726573733a2063616c6c20746f206e6f6e2d636f6e747261637400000060448201526064016109eb565b600080866001600160a01b031685876040516153cc9190615903565b60006040518083038185875af1925050503d8060008114615409576040519150601f19603f3d011682016040523d82523d6000602084013e61540e565b606091505b509150915061541e828286615429565b979650505050505050565b60608315615438575081611322565b8251156154485782518084602001fd5b8160405162461bcd60e51b81526004016109eb9190615a0b565b82805461546e90615bd4565b90600052602060002090601f01602090048101928261549057600085556154d6565b82601f106154a957805160ff19168380011785556154d6565b828001600101855582156154d6579182015b828111156154d65782518255916020019190600101906154bb565b506154e29291506154e6565b5090565b5b808211156154e257600081556001016154e7565b600067ffffffffffffffff8084111561551657615516615c6a565b604051601f8501601f19908116603f0116810190828211818310171561553e5761553e615c6a565b8160405280935085815286868601111561555757600080fd5b858560208301376000602087830101525050509392505050565b80356001600160a01b0381168114610b4a57600080fd5b600082601f830112615598578081fd5b611322838335602085016154fb565b805169ffffffffffffffffffff81168114610b4a57600080fd5b6000602082840312156155d2578081fd5b61132282615571565b600080604083850312156155ed578081fd5b6155f683615571565b915061560460208401615571565b90509250929050565b600080600060608486031215615621578081fd5b61562a84615571565b925061563860208501615571565b9150604084013590509250925092565b6000806000806080858703121561565d578081fd5b61566685615571565b935061567460208601615571565b925060408501359150606085013567ffffffffffffffff811115615696578182fd5b8501601f810187136156a6578182fd5b6156b5878235602084016154fb565b91505092959194509250565b600080604083850312156156d3578182fd5b6156dc83615571565b915060208301356156ec81615c80565b809150509250929050565b60008060408385031215615709578182fd5b61571283615571565b946020939093013593505050565b600060208284031215615731578081fd5b815161132281615c80565b60006020828403121561574d578081fd5b5035919050565b60008060408385031215615766578182fd5b8235915061560460208401615571565b600060208284031215615787578081fd5b813561132281615c8e565b6000602082840312156157a3578081fd5b815161132281615c8e565b6000602082840312156157bf578081fd5b5051919050565b600080600080600060a086880312156157dd578283fd5b853594506157ed60208701615571565b9350604086013567ffffffffffffffff80821115615809578485fd5b61581589838a01615588565b9450606088013591508082111561582a578283fd5b5061583788828901615588565b92505061584660808701615571565b90509295509295909350565b60008060408385031215615864578182fd5b50508035926020909101359150565b600080600080600060a0868803121561588a578283fd5b615893866155a7565b9450602086015193506040860151925060608601519150615846608087016155a7565b6000602082840312156158c7578081fd5b815160ff81168114611322578182fd5b600081518084526158ef816020860160208601615b91565b601f01601f19169290920160200192915050565b60008251615915818460208701615b91565b9190910192915050565b60008351615931818460208801615b91565b835190830190615945818360208801615b91565b01949350505050565b7f416363657373436f6e74726f6c3a206163636f756e7420000000000000000000815260008351615986816017850160208801615b91565b7f206973206d697373696e6720726f6c652000000000000000000000000000000060179184019182015283516159c3816028840160208801615b91565b01602801949350505050565b60006001600160a01b03808716835280861660208401525083604083015260806060830152615a0160808301846158d7565b9695505050505050565b60208152600061132260208301846158d7565b60008219821115615a3157615a31615c3e565b500190565b600082615a4557615a45615c54565b500490565b600181815b80851115615a85578160001904821115615a6b57615a6b615c3e565b80851615615a7857918102915b93841c9390800290615a4f565b509250929050565b600061132260ff841683600082615aa657506001610a3d565b81615ab357506000610a3d565b8160018114615ac95760028114615ad357615aef565b6001915050610a3d565b60ff841115615ae457615ae4615c3e565b50506001821b610a3d565b5060208310610133831016604e8410600b8410161715615b12575081810a610a3d565b615b1c8383615a4a565b8060001904821115615b3057615b30615c3e565b029392505050565b6000816000190483118215151615615b5257615b52615c3e565b500290565b600082821015615b6957615b69615c3e565b500390565b600060ff821660ff841680821015615b8857615b88615c3e565b90039392505050565b60005b83811015615bac578181015183820152602001615b94565b8381111561352c5750506000910152565b600081615bcc57615bcc615c3e565b506000190190565b600181811c90821680615be857607f821691505b60208210811415615c0957634e487b7160e01b600052602260045260246000fd5b50919050565b6000600019821415615c2357615c23615c3e565b5060010190565b600082615c3957615c39615c54565b500690565b634e487b7160e01b600052601160045260246000fd5b634e487b7160e01b600052601260045260246000fd5b634e487b7160e01b600052604160045260246000fd5b8015158114611bda57600080fd5b6001600160e01b031981168114611bda57600080fdfee1dcbdb91df27212a29bc27177c840cf2f819ecf2187432e1fac86c2dd5dfca9a2646970667358221220f18ee5710729fed01e27eba3f62c03a726595111c35326754fb2815052b4bb3064736f6c63430008040033",
  "devdoc": {
    "kind": "dev",
    "methods": {
      "approve(address,uint256)": {
        "details": "See {IERC721-approve}."
      },
      "balanceOf(address)": {
        "details": "See {IERC721-balanceOf}."
      },
      "borrowToken(uint256,uint256)": {
        "details": "Lets a vault owner borrow stablecoin against collateral Requirements: - Vault type must exist - Vault must exist - Must borrow greater than 0 stablecoin - Must be below the debt ceiling when borrowing - Must maintain minimum collateral percentage Emits BorrowToken event"
      },
      "checkCost(uint256)": {
        "details": "checks cost of liquidating"
      },
      "checkExtract(uint256)": {
        "details": "checks how much token gets extract"
      },
      "checkLiquidation(uint256)": {
        "details": "checks if the vault can be liquidated"
      },
      "createVault()": {
        "details": "Create a vault for interacting with the platform Emits a CreateVault event"
      },
      "depositCollateral(uint256,uint256)": {
        "details": "ALlows vault owner to deposit ERC20 collateral Emits Deposit Collateral event"
      },
      "destroyVault(uint256)": {
        "details": "User can destroy a vault. Will return all collateral upon destroying. Emits a DestroyVault event Requirements: - User must have paid off all outstanding debt first"
      },
      "getApproved(uint256)": {
        "details": "See {IERC721-getApproved}."
      },
      "getPaid(address)": {
        "details": "pays the user Returns the ERC20 token that was liquidated"
      },
      "getPricePeg()": {
        "details": "returns the peg "
      },
      "getPriceSource()": {
        "details": "returns the chainlink pricefeed price"
      },
      "getRoleAdmin(bytes32)": {
        "details": "Returns the admin role that controls `role`. See {grantRole} and {revokeRole}. To change a role's admin, use {_setRoleAdmin}."
      },
      "grantRole(bytes32,address)": {
        "details": "Grants `role` to `account`. If `account` had not been already granted `role`, emits a {RoleGranted} event. Requirements: - the caller must have ``role``'s admin role."
      },
      "hasRole(bytes32,address)": {
        "details": "Returns `true` if `account` has been granted `role`."
      },
      "isApprovedForAll(address,address)": {
        "details": "See {IERC721-isApprovedForAll}."
      },
      "liquidateVault(uint256)": {
        "details": "allows liquidator to buy out a risky vault Requirements: - Vault id must exist - Vault must be below minimum collateral percentage - User must have enough of the token to pay vault off Emits BuyRiskyVault event"
      },
      "name()": {
        "details": "See {IERC721Metadata-name}."
      },
      "ownerOf(uint256)": {
        "details": "See {IERC721-ownerOf}."
      },
      "payBackToken(uint256,uint256)": {
        "details": "Pay back the stablecoin to reduce debt Requirements: - User must have enough balance to repay `amount` - Cannot pay back more than the required debt. `amount` must be less than debt."
      },
      "renounceRole(bytes32,address)": {
        "details": "Revokes `role` from the calling account. Roles are often managed via {grantRole} and {revokeRole}: this function's purpose is to provide a mechanism for accounts to lose their privileges if they are compromised (such as when a trusted device is misplaced). If the calling account had been granted `role`, emits a {RoleRevoked} event. Requirements: - the caller must be `account`."
      },
      "revokeRole(bytes32,address)": {
        "details": "Revokes `role` from `account`. If `account` had been granted `role`, emits a {RoleRevoked} event. Requirements: - the caller must have ``role``'s admin role."
      },
      "safeTransferFrom(address,address,uint256)": {
        "details": "See {IERC721-safeTransferFrom}."
      },
      "safeTransferFrom(address,address,uint256,bytes)": {
        "details": "See {IERC721-safeTransferFrom}."
      },
      "setApprovalForAll(address,bool)": {
        "details": "See {IERC721-setApprovalForAll}."
      },
      "setClosingFee(uint256)": {
        "details": "Set the closing fee for this vault"
      },
      "setDebtCeiling(uint256)": {
        "details": "Set the debt ceiling for this vault"
      },
      "setDebtRatio(uint256)": {
        "details": "sets the debt ratio"
      },
      "setGainRatio(uint256)": {
        "details": "sets the gain ratio"
      },
      "setGateway(address)": {
        "details": "Set the WAVAX gateway for this vault if it needs one"
      },
      "setMinimumDebt(uint256)": {
        "details": "sets the minimum debt"
      },
      "setOpeningFee(uint256)": {
        "details": "Set the opening fee for this vault"
      },
      "setPriceSource(address)": {
        "details": "Set the price source for this vault"
      },
      "setStabilityPool(address)": {
        "details": "Set the stability pool (liquidator) for this vault"
      },
      "setTokenPeg(uint256)": {
        "details": "Set the token peg for this vault"
      },
      "setTreasury(uint256)": {
        "details": "Set the treasury vault for this vault (vault that gets all the fees)"
      },
      "symbol()": {
        "details": "See {IERC721Metadata-symbol}."
      },
      "tokenByIndex(uint256)": {
        "details": "See {IERC721Enumerable-tokenByIndex}."
      },
      "tokenOfOwnerByIndex(address,uint256)": {
        "details": "See {IERC721Enumerable-tokenOfOwnerByIndex}."
      },
      "tokenURI(uint256)": {
        "details": "See {IERC721Metadata-tokenURI}."
      },
      "totalSupply()": {
        "details": "See {IERC721Enumerable-totalSupply}."
      },
      "transferFrom(address,address,uint256)": {
        "details": "See {IERC721-transferFrom}."
      },
      "transferVault(uint256,address)": {
        "details": "user can transfer vault to another address Emits TransferVault event"
      },
      "vaultExists(uint256)": {
        "details": "allows checking if vault exists or not"
      },
      "withdrawCollateral(uint256,uint256)": {
        "details": "allows vault owner to withdraw the collateral Requirements: - Withdraw amount is less than or equal to current collateral - Collateral withdrawal amount does not put debt below minimum collateral Emits WithdrawCollateral event"
      }
    },
    "version": 1
  },
  "userdoc": {
    "kind": "user",
    "methods": {
      "minimumCollateralPercentage()": {
        "notice": "Set all of these upon initalization"
      }
    },
    "version": 1
  },
  "storageLayout": {
    "storage": [
      {
        "astId": 594,
        "contract": "apps/avai/src/contracts/Bank.sol:Bank",
        "label": "_initialized",
        "offset": 0,
        "slot": "0",
        "type": "t_bool"
      },
      {
        "astId": 597,
        "contract": "apps/avai/src/contracts/Bank.sol:Bank",
        "label": "_initializing",
        "offset": 1,
        "slot": "0",
        "type": "t_bool"
      },
      {
        "astId": 3406,
        "contract": "apps/avai/src/contracts/Bank.sol:Bank",
        "label": "__gap",
        "offset": 0,
        "slot": "1",
        "type": "t_array(t_uint256)50_storage"
      },
      {
        "astId": 4245,
        "contract": "apps/avai/src/contracts/Bank.sol:Bank",
        "label": "__gap",
        "offset": 0,
        "slot": "51",
        "type": "t_array(t_uint256)50_storage"
      },
      {
        "astId": 1743,
        "contract": "apps/avai/src/contracts/Bank.sol:Bank",
        "label": "_name",
        "offset": 0,
        "slot": "101",
        "type": "t_string_storage"
      },
      {
        "astId": 1745,
        "contract": "apps/avai/src/contracts/Bank.sol:Bank",
        "label": "_symbol",
        "offset": 0,
        "slot": "102",
        "type": "t_string_storage"
      },
      {
        "astId": 1749,
        "contract": "apps/avai/src/contracts/Bank.sol:Bank",
        "label": "_owners",
        "offset": 0,
        "slot": "103",
        "type": "t_mapping(t_uint256,t_address)"
      },
      {
        "astId": 1753,
        "contract": "apps/avai/src/contracts/Bank.sol:Bank",
        "label": "_balances",
        "offset": 0,
        "slot": "104",
        "type": "t_mapping(t_address,t_uint256)"
      },
      {
        "astId": 1757,
        "contract": "apps/avai/src/contracts/Bank.sol:Bank",
        "label": "_tokenApprovals",
        "offset": 0,
        "slot": "105",
        "type": "t_mapping(t_uint256,t_address)"
      },
      {
        "astId": 1763,
        "contract": "apps/avai/src/contracts/Bank.sol:Bank",
        "label": "_operatorApprovals",
        "offset": 0,
        "slot": "106",
        "type": "t_mapping(t_address,t_mapping(t_address,t_bool))"
      },
      {
        "astId": 2559,
        "contract": "apps/avai/src/contracts/Bank.sol:Bank",
        "label": "__gap",
        "offset": 0,
        "slot": "107",
        "type": "t_array(t_uint256)44_storage"
      },
      {
        "astId": 2733,
        "contract": "apps/avai/src/contracts/Bank.sol:Bank",
        "label": "_ownedTokens",
        "offset": 0,
        "slot": "151",
        "type": "t_mapping(t_address,t_mapping(t_uint256,t_uint256))"
      },
      {
        "astId": 2737,
        "contract": "apps/avai/src/contracts/Bank.sol:Bank",
        "label": "_ownedTokensIndex",
        "offset": 0,
        "slot": "152",
        "type": "t_mapping(t_uint256,t_uint256)"
      },
      {
        "astId": 2740,
        "contract": "apps/avai/src/contracts/Bank.sol:Bank",
        "label": "_allTokens",
        "offset": 0,
        "slot": "153",
        "type": "t_array(t_uint256)dyn_storage"
      },
      {
        "astId": 2744,
        "contract": "apps/avai/src/contracts/Bank.sol:Bank",
        "label": "_allTokensIndex",
        "offset": 0,
        "slot": "154",
        "type": "t_mapping(t_uint256,t_uint256)"
      },
      {
        "astId": 3059,
        "contract": "apps/avai/src/contracts/Bank.sol:Bank",
        "label": "__gap",
        "offset": 0,
        "slot": "155",
        "type": "t_array(t_uint256)46_storage"
      },
      {
        "astId": 761,
        "contract": "apps/avai/src/contracts/Bank.sol:Bank",
        "label": "_status",
        "offset": 0,
        "slot": "201",
        "type": "t_uint256"
      },
      {
        "astId": 804,
        "contract": "apps/avai/src/contracts/Bank.sol:Bank",
        "label": "__gap",
        "offset": 0,
        "slot": "202",
        "type": "t_array(t_uint256)49_storage"
      },
      {
        "astId": 94,
        "contract": "apps/avai/src/contracts/Bank.sol:Bank",
        "label": "_roles",
        "offset": 0,
        "slot": "251",
        "type": "t_mapping(t_bytes32,t_struct(RoleData)89_storage)"
      },
      {
        "astId": 379,
        "contract": "apps/avai/src/contracts/Bank.sol:Bank",
        "label": "__gap",
        "offset": 0,
        "slot": "252",
        "type": "t_array(t_uint256)49_storage"
      },
      {
        "astId": 8626,
        "contract": "apps/avai/src/contracts/Bank.sol:Bank",
        "label": "_userVaultIds",
        "offset": 0,
        "slot": "301",
        "type": "t_struct(Counter)3413_storage"
      },
      {
        "astId": 8629,
        "contract": "apps/avai/src/contracts/Bank.sol:Bank",
        "label": "minimumCollateralPercentage",
        "offset": 0,
        "slot": "302",
        "type": "t_uint256"
      },
      {
        "astId": 8631,
        "contract": "apps/avai/src/contracts/Bank.sol:Bank",
        "label": "debtCeiling",
        "offset": 0,
        "slot": "303",
        "type": "t_uint256"
      },
      {
        "astId": 8633,
        "contract": "apps/avai/src/contracts/Bank.sol:Bank",
        "label": "closingFee",
        "offset": 0,
        "slot": "304",
        "type": "t_uint256"
      },
      {
        "astId": 8635,
        "contract": "apps/avai/src/contracts/Bank.sol:Bank",
        "label": "openingFee",
        "offset": 0,
        "slot": "305",
        "type": "t_uint256"
      },
      {
        "astId": 8637,
        "contract": "apps/avai/src/contracts/Bank.sol:Bank",
        "label": "tokenPeg",
        "offset": 0,
        "slot": "306",
        "type": "t_uint256"
      },
      {
        "astId": 8639,
        "contract": "apps/avai/src/contracts/Bank.sol:Bank",
        "label": "totalDebt",
        "offset": 0,
        "slot": "307",
        "type": "t_uint256"
      },
      {
        "astId": 8641,
        "contract": "apps/avai/src/contracts/Bank.sol:Bank",
        "label": "debtRatio",
        "offset": 0,
        "slot": "308",
        "type": "t_uint256"
      },
      {
        "astId": 8643,
        "contract": "apps/avai/src/contracts/Bank.sol:Bank",
        "label": "gainRatio",
        "offset": 0,
        "slot": "309",
        "type": "t_uint256"
      },
      {
        "astId": 8647,
        "contract": "apps/avai/src/contracts/Bank.sol:Bank",
        "label": "tokenDebt",
        "offset": 0,
        "slot": "310",
        "type": "t_mapping(t_address,t_uint256)"
      },
      {
        "astId": 8650,
        "contract": "apps/avai/src/contracts/Bank.sol:Bank",
        "label": "priceSource",
        "offset": 0,
        "slot": "311",
        "type": "t_contract(AggregatorV3Interface)45"
      },
      {
        "astId": 8653,
        "contract": "apps/avai/src/contracts/Bank.sol:Bank",
        "label": "token",
        "offset": 0,
        "slot": "312",
        "type": "t_contract(IERC20Metadata)6252"
      },
      {
        "astId": 8656,
        "contract": "apps/avai/src/contracts/Bank.sol:Bank",
        "label": "stablecoin",
        "offset": 0,
        "slot": "313",
        "type": "t_contract(IStablecoin)15532"
      },
      {
        "astId": 8658,
        "contract": "apps/avai/src/contracts/Bank.sol:Bank",
        "label": "stabilityPool",
        "offset": 0,
        "slot": "314",
        "type": "t_address"
      },
      {
        "astId": 8660,
        "contract": "apps/avai/src/contracts/Bank.sol:Bank",
        "label": "gateway",
        "offset": 0,
        "slot": "315",
        "type": "t_address"
      },
      {
        "astId": 8662,
        "contract": "apps/avai/src/contracts/Bank.sol:Bank",
        "label": "treasury",
        "offset": 0,
        "slot": "316",
        "type": "t_uint256"
      },
      {
        "astId": 8666,
        "contract": "apps/avai/src/contracts/Bank.sol:Bank",
        "label": "vaultExistence",
        "offset": 0,
        "slot": "317",
        "type": "t_mapping(t_uint256,t_bool)"
      },
      {
        "astId": 8670,
        "contract": "apps/avai/src/contracts/Bank.sol:Bank",
        "label": "vaultCollateral",
        "offset": 0,
        "slot": "318",
        "type": "t_mapping(t_uint256,t_uint256)"
      },
      {
        "astId": 8674,
        "contract": "apps/avai/src/contracts/Bank.sol:Bank",
        "label": "vaultDebt",
        "offset": 0,
        "slot": "319",
        "type": "t_mapping(t_uint256,t_uint256)"
      },
      {
        "astId": 8676,
        "contract": "apps/avai/src/contracts/Bank.sol:Bank",
        "label": "minimumDebt",
        "offset": 0,
        "slot": "320",
        "type": "t_uint256"
      }
    ],
    "types": {
      "t_address": {
        "encoding": "inplace",
        "label": "address",
        "numberOfBytes": "20"
      },
      "t_array(t_uint256)44_storage": {
        "base": "t_uint256",
        "encoding": "inplace",
        "label": "uint256[44]",
        "numberOfBytes": "1408"
      },
      "t_array(t_uint256)46_storage": {
        "base": "t_uint256",
        "encoding": "inplace",
        "label": "uint256[46]",
        "numberOfBytes": "1472"
      },
      "t_array(t_uint256)49_storage": {
        "base": "t_uint256",
        "encoding": "inplace",
        "label": "uint256[49]",
        "numberOfBytes": "1568"
      },
      "t_array(t_uint256)50_storage": {
        "base": "t_uint256",
        "encoding": "inplace",
        "label": "uint256[50]",
        "numberOfBytes": "1600"
      },
      "t_array(t_uint256)dyn_storage": {
        "base": "t_uint256",
        "encoding": "dynamic_array",
        "label": "uint256[]",
        "numberOfBytes": "32"
      },
      "t_bool": {
        "encoding": "inplace",
        "label": "bool",
        "numberOfBytes": "1"
      },
      "t_bytes32": {
        "encoding": "inplace",
        "label": "bytes32",
        "numberOfBytes": "32"
      },
      "t_contract(AggregatorV3Interface)45": {
        "encoding": "inplace",
        "label": "contract AggregatorV3Interface",
        "numberOfBytes": "20"
      },
      "t_contract(IERC20Metadata)6252": {
        "encoding": "inplace",
        "label": "contract IERC20Metadata",
        "numberOfBytes": "20"
      },
      "t_contract(IStablecoin)15532": {
        "encoding": "inplace",
        "label": "contract IStablecoin",
        "numberOfBytes": "20"
      },
      "t_mapping(t_address,t_bool)": {
        "encoding": "mapping",
        "key": "t_address",
        "label": "mapping(address => bool)",
        "numberOfBytes": "32",
        "value": "t_bool"
      },
      "t_mapping(t_address,t_mapping(t_address,t_bool))": {
        "encoding": "mapping",
        "key": "t_address",
        "label": "mapping(address => mapping(address => bool))",
        "numberOfBytes": "32",
        "value": "t_mapping(t_address,t_bool)"
      },
      "t_mapping(t_address,t_mapping(t_uint256,t_uint256))": {
        "encoding": "mapping",
        "key": "t_address",
        "label": "mapping(address => mapping(uint256 => uint256))",
        "numberOfBytes": "32",
        "value": "t_mapping(t_uint256,t_uint256)"
      },
      "t_mapping(t_address,t_uint256)": {
        "encoding": "mapping",
        "key": "t_address",
        "label": "mapping(address => uint256)",
        "numberOfBytes": "32",
        "value": "t_uint256"
      },
      "t_mapping(t_bytes32,t_struct(RoleData)89_storage)": {
        "encoding": "mapping",
        "key": "t_bytes32",
        "label": "mapping(bytes32 => struct AccessControlUpgradeable.RoleData)",
        "numberOfBytes": "32",
        "value": "t_struct(RoleData)89_storage"
      },
      "t_mapping(t_uint256,t_address)": {
        "encoding": "mapping",
        "key": "t_uint256",
        "label": "mapping(uint256 => address)",
        "numberOfBytes": "32",
        "value": "t_address"
      },
      "t_mapping(t_uint256,t_bool)": {
        "encoding": "mapping",
        "key": "t_uint256",
        "label": "mapping(uint256 => bool)",
        "numberOfBytes": "32",
        "value": "t_bool"
      },
      "t_mapping(t_uint256,t_uint256)": {
        "encoding": "mapping",
        "key": "t_uint256",
        "label": "mapping(uint256 => uint256)",
        "numberOfBytes": "32",
        "value": "t_uint256"
      },
      "t_string_storage": {
        "encoding": "bytes",
        "label": "string",
        "numberOfBytes": "32"
      },
      "t_struct(Counter)3413_storage": {
        "encoding": "inplace",
        "label": "struct CountersUpgradeable.Counter",
        "members": [
          {
            "astId": 3412,
            "contract": "apps/avai/src/contracts/Bank.sol:Bank",
            "label": "_value",
            "offset": 0,
            "slot": "0",
            "type": "t_uint256"
          }
        ],
        "numberOfBytes": "32"
      },
      "t_struct(RoleData)89_storage": {
        "encoding": "inplace",
        "label": "struct AccessControlUpgradeable.RoleData",
        "members": [
          {
            "astId": 86,
            "contract": "apps/avai/src/contracts/Bank.sol:Bank",
            "label": "members",
            "offset": 0,
            "slot": "0",
            "type": "t_mapping(t_address,t_bool)"
          },
          {
            "astId": 88,
            "contract": "apps/avai/src/contracts/Bank.sol:Bank",
            "label": "adminRole",
            "offset": 0,
            "slot": "1",
            "type": "t_bytes32"
          }
        ],
        "numberOfBytes": "64"
      },
      "t_uint256": {
        "encoding": "inplace",
        "label": "uint256",
        "numberOfBytes": "32"
      }
    }
  }
}