{
  "address": "0xf5059a5D33d5853360D16C683c16e67980206f36",
  "abi": [
    {
      "inputs": [
        {
          "internalType": "contract IERC20",
          "name": "_orca",
          "type": "address"
        },
        {
          "internalType": "uint256",
          "name": "_startTimestamp",
          "type": "uint256"
        },
        {
          "internalType": "uint256",
          "name": "_rewardsPerSecond",
          "type": "uint256"
        },
        {
          "internalType": "address",
          "name": "_treasury",
          "type": "address"
        }
      ],
      "stateMutability": "nonpayable",
      "type": "constructor"
    },
    {
      "anonymous": false,
      "inputs": [
        {
          "indexed": true,
          "internalType": "string",
          "name": "addressType",
          "type": "string"
        },
        {
          "indexed": true,
          "internalType": "address",
          "name": "oldAddress",
          "type": "address"
        },
        {
          "indexed": true,
          "internalType": "address",
          "name": "newAddress",
          "type": "address"
        }
      ],
      "name": "ChangedAddress",
      "type": "event"
    },
    {
      "anonymous": false,
      "inputs": [
        {
          "indexed": true,
          "internalType": "uint256",
          "name": "oldEndTimestamp",
          "type": "uint256"
        },
        {
          "indexed": true,
          "internalType": "uint256",
          "name": "newEndTimestamp",
          "type": "uint256"
        }
      ],
      "name": "ChangedRewardsEndTimestamp",
      "type": "event"
    },
    {
      "anonymous": false,
      "inputs": [
        {
          "indexed": true,
          "internalType": "uint256",
          "name": "oldRewardsPerSecond",
          "type": "uint256"
        },
        {
          "indexed": true,
          "internalType": "uint256",
          "name": "newRewardsPerSecond",
          "type": "uint256"
        }
      ],
      "name": "ChangedRewardsPerSecond",
      "type": "event"
    },
    {
      "anonymous": false,
      "inputs": [
        {
          "indexed": true,
          "internalType": "address",
          "name": "oldTreasury",
          "type": "address"
        },
        {
          "indexed": true,
          "internalType": "address",
          "name": "newTreasury",
          "type": "address"
        }
      ],
      "name": "ChangedTreasury",
      "type": "event"
    },
    {
      "anonymous": false,
      "inputs": [
        {
          "indexed": true,
          "internalType": "address",
          "name": "user",
          "type": "address"
        },
        {
          "indexed": true,
          "internalType": "uint256",
          "name": "pid",
          "type": "uint256"
        },
        {
          "indexed": false,
          "internalType": "uint256",
          "name": "amount",
          "type": "uint256"
        },
        {
          "indexed": false,
          "internalType": "uint256",
          "name": "fee",
          "type": "uint256"
        }
      ],
      "name": "Deposit",
      "type": "event"
    },
    {
      "anonymous": false,
      "inputs": [
        {
          "indexed": true,
          "internalType": "uint256",
          "name": "pid",
          "type": "uint256"
        },
        {
          "indexed": false,
          "internalType": "uint16",
          "name": "oldFee",
          "type": "uint16"
        },
        {
          "indexed": false,
          "internalType": "uint16",
          "name": "newFee",
          "type": "uint16"
        }
      ],
      "name": "DepositFeeUpdated",
      "type": "event"
    },
    {
      "anonymous": false,
      "inputs": [
        {
          "indexed": true,
          "internalType": "address",
          "name": "user",
          "type": "address"
        },
        {
          "indexed": true,
          "internalType": "uint256",
          "name": "pid",
          "type": "uint256"
        },
        {
          "indexed": false,
          "internalType": "uint256",
          "name": "amount",
          "type": "uint256"
        }
      ],
      "name": "EmergencyWithdraw",
      "type": "event"
    },
    {
      "anonymous": false,
      "inputs": [
        {
          "indexed": true,
          "internalType": "address",
          "name": "previousOwner",
          "type": "address"
        },
        {
          "indexed": true,
          "internalType": "address",
          "name": "newOwner",
          "type": "address"
        }
      ],
      "name": "OwnershipTransferred",
      "type": "event"
    },
    {
      "anonymous": false,
      "inputs": [
        {
          "indexed": true,
          "internalType": "uint256",
          "name": "pid",
          "type": "uint256"
        },
        {
          "indexed": true,
          "internalType": "address",
          "name": "token",
          "type": "address"
        },
        {
          "indexed": false,
          "internalType": "uint256",
          "name": "allocPoints",
          "type": "uint256"
        },
        {
          "indexed": false,
          "internalType": "uint256",
          "name": "totalAllocPoints",
          "type": "uint256"
        },
        {
          "indexed": false,
          "internalType": "uint256",
          "name": "rewardStartTimestamp",
          "type": "uint256"
        },
        {
          "indexed": false,
          "internalType": "uint16",
          "name": "depositFeeBP",
          "type": "uint16"
        }
      ],
      "name": "PoolAdded",
      "type": "event"
    },
    {
      "anonymous": false,
      "inputs": [
        {
          "indexed": true,
          "internalType": "uint256",
          "name": "pid",
          "type": "uint256"
        },
        {
          "indexed": false,
          "internalType": "uint256",
          "name": "oldAllocPoints",
          "type": "uint256"
        },
        {
          "indexed": false,
          "internalType": "uint256",
          "name": "newAllocPoints",
          "type": "uint256"
        },
        {
          "indexed": false,
          "internalType": "uint256",
          "name": "newTotalAllocPoints",
          "type": "uint256"
        }
      ],
      "name": "PoolUpdated",
      "type": "event"
    },
    {
      "anonymous": false,
      "inputs": [
        {
          "indexed": true,
          "internalType": "uint256",
          "name": "startTimestamp",
          "type": "uint256"
        }
      ],
      "name": "SetRewardsStartTimestamp",
      "type": "event"
    },
    {
      "anonymous": false,
      "inputs": [
        {
          "indexed": true,
          "internalType": "address",
          "name": "user",
          "type": "address"
        },
        {
          "indexed": true,
          "internalType": "uint256",
          "name": "pid",
          "type": "uint256"
        },
        {
          "indexed": false,
          "internalType": "uint256",
          "name": "amount",
          "type": "uint256"
        }
      ],
      "name": "Withdraw",
      "type": "event"
    },
    {
      "inputs": [
        {
          "internalType": "uint256",
          "name": "allocPoint",
          "type": "uint256"
        },
        {
          "internalType": "address",
          "name": "token",
          "type": "address"
        },
        {
          "internalType": "bool",
          "name": "withUpdate",
          "type": "bool"
        },
        {
          "internalType": "uint16",
          "name": "_depositFeeBp",
          "type": "uint16"
        }
      ],
      "name": "add",
      "outputs": [],
      "stateMutability": "nonpayable",
      "type": "function"
    },
    {
      "inputs": [
        {
          "internalType": "uint256",
          "name": "amount",
          "type": "uint256"
        }
      ],
      "name": "addRewardsBalance",
      "outputs": [],
      "stateMutability": "nonpayable",
      "type": "function"
    },
    {
      "inputs": [
        {
          "internalType": "uint256",
          "name": "pid",
          "type": "uint256"
        },
        {
          "internalType": "uint256",
          "name": "amount",
          "type": "uint256"
        }
      ],
      "name": "deposit",
      "outputs": [],
      "stateMutability": "nonpayable",
      "type": "function"
    },
    {
      "inputs": [
        {
          "internalType": "uint256",
          "name": "pid",
          "type": "uint256"
        }
      ],
      "name": "emergencyWithdraw",
      "outputs": [],
      "stateMutability": "nonpayable",
      "type": "function"
    },
    {
      "inputs": [],
      "name": "endTimestamp",
      "outputs": [
        {
          "internalType": "uint256",
          "name": "",
          "type": "uint256"
        }
      ],
      "stateMutability": "view",
      "type": "function"
    },
    {
      "inputs": [
        {
          "internalType": "uint256",
          "name": "from",
          "type": "uint256"
        },
        {
          "internalType": "uint256",
          "name": "to",
          "type": "uint256"
        }
      ],
      "name": "getMultiplier",
      "outputs": [
        {
          "internalType": "uint256",
          "name": "",
          "type": "uint256"
        }
      ],
      "stateMutability": "view",
      "type": "function"
    },
    {
      "inputs": [],
      "name": "massUpdatePools",
      "outputs": [],
      "stateMutability": "nonpayable",
      "type": "function"
    },
    {
      "inputs": [],
      "name": "orca",
      "outputs": [
        {
          "internalType": "contract IERC20",
          "name": "",
          "type": "address"
        }
      ],
      "stateMutability": "view",
      "type": "function"
    },
    {
      "inputs": [],
      "name": "owner",
      "outputs": [
        {
          "internalType": "address",
          "name": "",
          "type": "address"
        }
      ],
      "stateMutability": "view",
      "type": "function"
    },
    {
      "inputs": [
        {
          "internalType": "uint256",
          "name": "pid",
          "type": "uint256"
        },
        {
          "internalType": "address",
          "name": "account",
          "type": "address"
        }
      ],
      "name": "pendingRewards",
      "outputs": [
        {
          "internalType": "uint256",
          "name": "",
          "type": "uint256"
        }
      ],
      "stateMutability": "view",
      "type": "function"
    },
    {
      "inputs": [
        {
          "internalType": "uint256",
          "name": "",
          "type": "uint256"
        }
      ],
      "name": "poolInfo",
      "outputs": [
        {
          "internalType": "contract IERC20",
          "name": "token",
          "type": "address"
        },
        {
          "internalType": "uint256",
          "name": "allocPoint",
          "type": "uint256"
        },
        {
          "internalType": "uint256",
          "name": "lastRewardTimestamp",
          "type": "uint256"
        },
        {
          "internalType": "uint256",
          "name": "accRewardsPerShare",
          "type": "uint256"
        },
        {
          "internalType": "uint256",
          "name": "totalStaked",
          "type": "uint256"
        },
        {
          "internalType": "uint16",
          "name": "depositFeeBP",
          "type": "uint16"
        }
      ],
      "stateMutability": "view",
      "type": "function"
    },
    {
      "inputs": [],
      "name": "poolLength",
      "outputs": [
        {
          "internalType": "uint256",
          "name": "",
          "type": "uint256"
        }
      ],
      "stateMutability": "view",
      "type": "function"
    },
    {
      "inputs": [],
      "name": "renounceOwnership",
      "outputs": [],
      "stateMutability": "nonpayable",
      "type": "function"
    },
    {
      "inputs": [],
      "name": "rewardsActive",
      "outputs": [
        {
          "internalType": "bool",
          "name": "",
          "type": "bool"
        }
      ],
      "stateMutability": "view",
      "type": "function"
    },
    {
      "inputs": [],
      "name": "rewardsPerSecond",
      "outputs": [
        {
          "internalType": "uint256",
          "name": "",
          "type": "uint256"
        }
      ],
      "stateMutability": "view",
      "type": "function"
    },
    {
      "inputs": [
        {
          "internalType": "uint256",
          "name": "pid",
          "type": "uint256"
        },
        {
          "internalType": "uint256",
          "name": "allocPoint",
          "type": "uint256"
        },
        {
          "internalType": "bool",
          "name": "withUpdate",
          "type": "bool"
        }
      ],
      "name": "set",
      "outputs": [],
      "stateMutability": "nonpayable",
      "type": "function"
    },
    {
      "inputs": [
        {
          "internalType": "uint256",
          "name": "newRewardsPerSecond",
          "type": "uint256"
        }
      ],
      "name": "setRewardsPerSecond",
      "outputs": [],
      "stateMutability": "nonpayable",
      "type": "function"
    },
    {
      "inputs": [
        {
          "internalType": "address",
          "name": "_treasury",
          "type": "address"
        }
      ],
      "name": "setTreasury",
      "outputs": [],
      "stateMutability": "nonpayable",
      "type": "function"
    },
    {
      "inputs": [],
      "name": "startTimestamp",
      "outputs": [
        {
          "internalType": "uint256",
          "name": "",
          "type": "uint256"
        }
      ],
      "stateMutability": "view",
      "type": "function"
    },
    {
      "inputs": [],
      "name": "totalAllocPoint",
      "outputs": [
        {
          "internalType": "uint256",
          "name": "",
          "type": "uint256"
        }
      ],
      "stateMutability": "view",
      "type": "function"
    },
    {
      "inputs": [
        {
          "internalType": "address",
          "name": "newOwner",
          "type": "address"
        }
      ],
      "name": "transferOwnership",
      "outputs": [],
      "stateMutability": "nonpayable",
      "type": "function"
    },
    {
      "inputs": [],
      "name": "treasury",
      "outputs": [
        {
          "internalType": "address",
          "name": "",
          "type": "address"
        }
      ],
      "stateMutability": "view",
      "type": "function"
    },
    {
      "inputs": [
        {
          "internalType": "uint256",
          "name": "pid",
          "type": "uint256"
        },
        {
          "internalType": "uint16",
          "name": "depositFee",
          "type": "uint16"
        },
        {
          "internalType": "bool",
          "name": "withUpdate",
          "type": "bool"
        }
      ],
      "name": "updateDepositFee",
      "outputs": [],
      "stateMutability": "nonpayable",
      "type": "function"
    },
    {
      "inputs": [
        {
          "internalType": "uint256",
          "name": "pid",
          "type": "uint256"
        }
      ],
      "name": "updatePool",
      "outputs": [],
      "stateMutability": "nonpayable",
      "type": "function"
    },
    {
      "inputs": [
        {
          "internalType": "uint256",
          "name": "",
          "type": "uint256"
        },
        {
          "internalType": "address",
          "name": "",
          "type": "address"
        }
      ],
      "name": "userInfo",
      "outputs": [
        {
          "internalType": "uint256",
          "name": "amount",
          "type": "uint256"
        },
        {
          "internalType": "uint256",
          "name": "rewardTokenDebt",
          "type": "uint256"
        }
      ],
      "stateMutability": "view",
      "type": "function"
    },
    {
      "inputs": [
        {
          "internalType": "uint256",
          "name": "pid",
          "type": "uint256"
        },
        {
          "internalType": "uint256",
          "name": "amount",
          "type": "uint256"
        }
      ],
      "name": "withdraw",
      "outputs": [],
      "stateMutability": "nonpayable",
      "type": "function"
    },
    {
      "stateMutability": "payable",
      "type": "receive"
    }
  ],
  "transactionHash": "0x2e66251c782fa2d520165b7b199795c5567c556050ccc9fc948d1d5e7593f53b",
  "args": [
    "0x851356ae760d987E095750cCeb3bC6014560891C",
    1633046400,
    "1962043378995430000",
    "0xf39Fd6e51aad88F6F4ce6aB8827279cffFb92266"
  ],
  "solcInputHash": "bbcb4ebf9cbf96bbf468531e4c749b7e",
  "bytecode": "0x60806040523480156200001157600080fd5b50604051620020b6380380620020b6833981016040819052620000349162000166565b6200003f3362000116565b60018055821562000051578262000053565b425b60088190556040517f457596c4aedbe8a498e6b9a94fa90cbba7bd432ddba1f7e75e85bcf5e363917190600090a2600382905560405182906000907f6c5ac63fafcfaaa35808336a9aef07619736abe0349beeb783a3a8ab67936c81908290a3600280546001600160a01b038087166001600160a01b0319928316179092556006805492841692909116821790556040516000907f92baf9e44dc2c4a1b340703c85280df149c4b752279af909b2798a3a248de858908290a350505050620001cf565b600080546001600160a01b038381166001600160a01b0319831681178455604051919092169283917f8be0079c531659141344cd1fd0a4f28419497f9722a3daafe3b4186f6b6457e09190a35050565b600080600080608085870312156200017c578384fd5b84516200018981620001b6565b8094505060208501519250604085015191506060850151620001ab81620001b6565b939692955090935050565b6001600160a01b0381168114620001cc57600080fd5b50565b611ed780620001df6000396000f3fe6080604052600436106101a55760003560e01c80638da5cb5b116100e1578063cbeb09aa1161008a578063e6fd48bc11610064578063e6fd48bc146104d7578063eacdaabc146104ed578063f0f4426014610503578063f2fde38b1461052357600080fd5b8063cbeb09aa14610477578063d18df53c14610497578063e2bbb158146104b757600080fd5b8063a519121a116100bb578063a519121a1461041c578063a85adeab14610441578063b1de8fdc1461045757600080fd5b80638da5cb5b1461038a5780638dbb1e3a146103a857806393f1a40b146103c857600080fd5b80635312ea8e1161014e57806364482f791161012857806364482f7914610315578063715018a6146103355780637d08d4181461034a5780638ae8c91a1461036a57600080fd5b80635312ea8e146102a857806361d027b3146102c8578063630b5ba11461030057600080fd5b8063441a3e701161017f578063441a3e701461024657806347a55b7c1461026857806351eb05a61461028857600080fd5b8063081e3eda146101b15780631526fe27146101d557806317caf6f11461023057600080fd5b366101ac57005b600080fd5b3480156101bd57600080fd5b506004545b6040519081526020015b60405180910390f35b3480156101e157600080fd5b506101f56101f0366004611c43565b610543565b604080516001600160a01b0390971687526020870195909552938501929092526060840152608083015261ffff1660a082015260c0016101cc565b34801561023c57600080fd5b506101c260075481565b34801561025257600080fd5b50610266610261366004611d2b565b610597565b005b34801561027457600080fd5b50610266610283366004611c9e565b6106c8565b34801561029457600080fd5b506102666102a3366004611c43565b610939565b3480156102b457600080fd5b506102666102c3366004611c43565b610a0e565b3480156102d457600080fd5b506006546102e8906001600160a01b031681565b6040516001600160a01b0390911681526020016101cc565b34801561030c57600080fd5b50610266610b39565b34801561032157600080fd5b50610266610330366004611d4c565b610b62565b34801561034157600080fd5b50610266610cd8565b34801561035657600080fd5b50610266610365366004611cec565b610d3e565b34801561037657600080fd5b506002546102e8906001600160a01b031681565b34801561039657600080fd5b506000546001600160a01b03166102e8565b3480156103b457600080fd5b506101c26103c3366004611d2b565b610e6f565b3480156103d457600080fd5b506104076103e3366004611c73565b60056020908152600092835260408084209091529082529020805460019091015482565b604080519283526020830191909152016101cc565b34801561042857600080fd5b50610431610ea9565b60405190151581526020016101cc565b34801561044d57600080fd5b506101c260095481565b34801561046357600080fd5b50610266610472366004611c43565b610edd565b34801561048357600080fd5b50610266610492366004611c43565b610f57565b3480156104a357600080fd5b506101c26104b2366004611c73565b610fed565b3480156104c357600080fd5b506102666104d2366004611d2b565b611129565b3480156104e357600080fd5b506101c260085481565b3480156104f957600080fd5b506101c260035481565b34801561050f57600080fd5b5061026661051e366004611c0d565b6111db565b34801561052f57600080fd5b5061026661053e366004611c0d565b611294565b6004818154811061055357600080fd5b60009182526020909120600690910201805460018201546002830154600384015460048501546005909501546001600160a01b0390941695509193909261ffff1686565b600260015414156105ef5760405162461bcd60e51b815260206004820152601f60248201527f5265656e7472616e637947756172643a207265656e7472616e742063616c6c0060448201526064015b60405180910390fd5b6002600155806106675760405162461bcd60e51b815260206004820152602760248201527f506f644c65616465723a3a77697468647261773a20616d6f756e74206d75737460448201527f206265203e20300000000000000000000000000000000000000000000000000060648201526084016105e6565b60006004838154811061068a57634e487b7160e01b600052603260045260246000fd5b600091825260208083208684526005825260408085203386529092529220600690910290910191506106be84848484611373565b5050600180555050565b6000546001600160a01b031633146107225760405162461bcd60e51b815260206004820181905260248201527f4f776e61626c653a2063616c6c6572206973206e6f7420746865206f776e657260448201526064016105e6565b811561073057610730610b39565b6000600854421161074357600854610745565b425b90506007546000141561075a5761075a6114cf565b846007546107689190611dc8565b6007556040805160c0810182526001600160a01b03868116808352602083018981529383018581526000606085018181526080860182815261ffff8a811660a0890190815260048054600180820183559682905299517f8a35acfbc15ff81a39ae7d344fd709f28e8600b4aa8c65c6b64bfe7fe36bd19b6006909b029a8b01805473ffffffffffffffffffffffffffffffffffffffff191691909a161790985598517f8a35acfbc15ff81a39ae7d344fd709f28e8600b4aa8c65c6b64bfe7fe36bd19c89015593517f8a35acfbc15ff81a39ae7d344fd709f28e8600b4aa8c65c6b64bfe7fe36bd19d88015590517f8a35acfbc15ff81a39ae7d344fd709f28e8600b4aa8c65c6b64bfe7fe36bd19e870155517f8a35acfbc15ff81a39ae7d344fd709f28e8600b4aa8c65c6b64bfe7fe36bd19f86015594517f8a35acfbc15ff81a39ae7d344fd709f28e8600b4aa8c65c6b64bfe7fe36bd1a0909401805461ffff191694909116939093179092555490916108e391611e1f565b600754604080518981526020810192909252810184905261ffff851660608201527f762fccb5e7ca4950ca9195d200bc3a338d77af1d745c85a7856e9ac1d90538a6906080015b60405180910390a35050505050565b60006004828154811061095c57634e487b7160e01b600052603260045260246000fd5b906000526020600020906006020190508060020154421161097b575050565b60048101548061099057504260029091015550565b60006109a0836002015442610e6f565b905060006007548460010154600354846109ba9190611e00565b6109c49190611e00565b6109ce9190611de0565b9050826109e08264e8d4a51000611e00565b6109ea9190611de0565b84600301546109f99190611dc8565b60038501555050426002909201919091555050565b60026001541415610a615760405162461bcd60e51b815260206004820152601f60248201527f5265656e7472616e637947756172643a207265656e7472616e742063616c6c0060448201526064016105e6565b6002600181905550600060048281548110610a8c57634e487b7160e01b600052603260045260246000fd5b60009182526020808320858452600582526040808520338652909252922080546006909202909201925015610b305780546004830154610acc9190611e1f565b600483015580548254610aec916001600160a01b039091169033906115d6565b8054604051908152839033907fbb757047c2b5f3974fe26b7c10f732e7bce710b0952a71082702781e62ae05959060200160405180910390a3600080825560018201555b50506001805550565b60005b600454811015610b5f57610b4f81610939565b610b5881611e62565b9050610b3c565b50565b6000546001600160a01b03163314610bbc5760405162461bcd60e51b815260206004820181905260248201527f4f776e61626c653a2063616c6c6572206973206e6f7420746865206f776e657260448201526064016105e6565b8015610bca57610bca610b39565b8160048481548110610bec57634e487b7160e01b600052603260045260246000fd5b906000526020600020906006020160010154600754610c0b9190611e1f565b610c159190611dc8565b600781905550827fb0a2ded49817748754bcca0474b24011f01d4574dd5c40e14197ffa2e6540fef60048581548110610c5e57634e487b7160e01b600052603260045260246000fd5b90600052602060002090600602016001015484600754604051610c94939291909283526020830191909152604082015260600190565b60405180910390a28160048481548110610cbe57634e487b7160e01b600052603260045260246000fd5b906000526020600020906006020160010181905550505050565b6000546001600160a01b03163314610d325760405162461bcd60e51b815260206004820181905260248201527f4f776e61626c653a2063616c6c6572206973206e6f7420746865206f776e657260448201526064016105e6565b610d3c6000611684565b565b6000546001600160a01b03163314610d985760405162461bcd60e51b815260206004820181905260248201527f4f776e61626c653a2063616c6c6572206973206e6f7420746865206f776e657260448201526064016105e6565b8015610da657610da6610b39565b827f48653c0a91cd731898e66f1cc67439b43d582eb56910e445fe72067d001c225c60048581548110610de957634e487b7160e01b600052603260045260246000fd5b6000918252602091829020600690910201600501546040805161ffff9283168152918716928201929092520160405180910390a28160048481548110610e3f57634e487b7160e01b600052603260045260246000fd5b906000526020600020906006020160050160006101000a81548161ffff021916908361ffff160217905550505050565b6000806009548311610e815782610e85565b6009545b9050838111610e95576000610e9f565b610e9f8482611e1f565b9150505b92915050565b60006008544210158015610ebf57506009544211155b8015610ecd57506000600754115b610ed75750600090565b50600190565b6000546001600160a01b03163314610f375760405162461bcd60e51b815260206004820181905260248201527f4f776e61626c653a2063616c6c6572206973206e6f7420746865206f776e657260448201526064016105e6565b600254610f4f906001600160a01b03163330846116e1565b610b5f6114cf565b6000546001600160a01b03163314610fb15760405162461bcd60e51b815260206004820181905260248201527f4f776e61626c653a2063616c6c6572206973206e6f7420746865206f776e657260448201526064016105e6565b6003546040518291907f6c5ac63fafcfaaa35808336a9aef07619736abe0349beeb783a3a8ab67936c8190600090a36003819055610b5f6114cf565b6000806004848154811061101157634e487b7160e01b600052603260045260246000fd5b600091825260208083208784526005825260408085206001600160a01b0389168652909252922060036006909202909201908101546004820154600283015492945090914211801561106257508015155b156110d0576000611077856002015442610e6f565b905060006007548660010154600354846110919190611e00565b61109b9190611e00565b6110a59190611de0565b9050826110b78264e8d4a51000611e00565b6110c19190611de0565b6110cb9085611dc8565b935050505b600064e8d4a510008385600001546110e89190611e00565b6110f29190611de0565b9050836001015481101561110e57600095505050505050610ea3565b600184015461111d9082611e1f565b98975050505050505050565b6002600154141561117c5760405162461bcd60e51b815260206004820152601f60248201527f5265656e7472616e637947756172643a207265656e7472616e742063616c6c0060448201526064016105e6565b60026001819055506000600483815481106111a757634e487b7160e01b600052603260045260246000fd5b600091825260208083208684526005825260408085203386529092529220600690910290910191506106be84848484611738565b6000546001600160a01b031633146112355760405162461bcd60e51b815260206004820181905260248201527f4f776e61626c653a2063616c6c6572206973206e6f7420746865206f776e657260448201526064016105e6565b600680546001600160a01b0383811673ffffffffffffffffffffffffffffffffffffffff19831681179093556040519116919082907f92baf9e44dc2c4a1b340703c85280df149c4b752279af909b2798a3a248de85890600090a35050565b6000546001600160a01b031633146112ee5760405162461bcd60e51b815260206004820181905260248201527f4f776e61626c653a2063616c6c6572206973206e6f7420746865206f776e657260448201526064016105e6565b6001600160a01b03811661136a5760405162461bcd60e51b815260206004820152602660248201527f4f776e61626c653a206e6577206f776e657220697320746865207a65726f206160448201527f646472657373000000000000000000000000000000000000000000000000000060648201526084016105e6565b610b5f81611684565b80548311156113ea5760405162461bcd60e51b815260206004820152602b60248201527f506f644c65616465723a3a5f77697468647261773a20616d6f756e74203e207560448201527f7365722062616c616e636500000000000000000000000000000000000000000060648201526084016105e6565b6113f384610939565b6000816001015464e8d4a51000846003015484600001546114149190611e00565b61141e9190611de0565b6114289190611e1f565b8254909150611438908590611e1f565b808355600384015464e8d4a51000916114519190611e00565b61145b9190611de0565b600183015580156114705761147033826118b5565b8383600401546114809190611e1f565b6004840155825461149b906001600160a01b031633866115d6565b604051848152859033907ff279e6a1f5e320cca91135676d9cb6e44ca8a08c0b88342bcdb1144f6511b5689060200161092a565b60035415610d3c5760006008544210156114eb576008546114ed565b425b6003546002546040516370a0823160e01b81523060048201529293506000926001600160a01b03909116906370a082319060240160206040518083038186803b15801561153957600080fd5b505afa15801561154d573d6000803e3d6000fd5b505050506040513d601f19601f820116820180604052508101906115719190611c5b565b61157b9190611de0565b6115859083611dc8565b9050818111801561159857506009548114155b156115d2576009546040518291907fc27995de4b73bfe8fa8c957b4ae89e3113185c3d9e2c6e3bf680ce10708218e590600090a360098190555b5050565b6040516001600160a01b03831660248201526044810182905261167f9084907fa9059cbb00000000000000000000000000000000000000000000000000000000906064015b60408051601f198184030181529190526020810180517bffffffffffffffffffffffffffffffffffffffffffffffffffffffff167fffffffff0000000000000000000000000000000000000000000000000000000090931692909217909152611969565b505050565b600080546001600160a01b0383811673ffffffffffffffffffffffffffffffffffffffff19831681178455604051919092169283917f8be0079c531659141344cd1fd0a4f28419497f9722a3daafe3b4186f6b6457e09190a35050565b6040516001600160a01b03808516602483015283166044820152606481018290526117329085907f23b872dd000000000000000000000000000000000000000000000000000000009060840161161b565b50505050565b61174184610939565b805415611791576000816001015464e8d4a51000846003015484600001546117699190611e00565b6117739190611de0565b61177d9190611e1f565b9050801561178f5761178f33826118b5565b505b81546117a8906001600160a01b03163330866116e1565b6005820154600090612710906117c29061ffff1686611e00565b6117cc9190611de0565b905080156118305760065483546117f0916001600160a01b039182169116836115d6565b808484600401546118019190611dc8565b61180b9190611e1f565b60048401558154819061181f908690611dc8565b6118299190611e1f565b8255611855565b8383600401546118409190611dc8565b60048401558154611852908590611dc8565b82555b6003830154825464e8d4a510009161186c91611e00565b6118769190611de0565b60018301556040805185815260208101839052869133917f36af321ec8d3c75236829c5317affd40ddb308863a1236d2d277a4025cccee1e910161092a565b6002546040516370a0823160e01b81523060048201526000916001600160a01b0316906370a082319060240160206040518083038186803b1580156118f957600080fd5b505afa15801561190d573d6000803e3d6000fd5b505050506040513d601f19601f820116820180604052508101906119319190611c5b565b9050808211156119525760025461167f906001600160a01b031684836115d6565b60025461167f906001600160a01b031684846115d6565b60006119be826040518060400160405280602081526020017f5361666545524332303a206c6f772d6c6576656c2063616c6c206661696c6564815250856001600160a01b0316611a4e9092919063ffffffff16565b80519091501561167f57808060200190518101906119dc9190611c27565b61167f5760405162461bcd60e51b815260206004820152602a60248201527f5361666545524332303a204552433230206f7065726174696f6e20646964206e60448201527f6f7420737563636565640000000000000000000000000000000000000000000060648201526084016105e6565b6060611a5d8484600085611a67565b90505b9392505050565b606082471015611adf5760405162461bcd60e51b815260206004820152602660248201527f416464726573733a20696e73756666696369656e742062616c616e636520666f60448201527f722063616c6c000000000000000000000000000000000000000000000000000060648201526084016105e6565b843b611b2d5760405162461bcd60e51b815260206004820152601d60248201527f416464726573733a2063616c6c20746f206e6f6e2d636f6e747261637400000060448201526064016105e6565b600080866001600160a01b03168587604051611b499190611d79565b60006040518083038185875af1925050503d8060008114611b86576040519150601f19603f3d011682016040523d82523d6000602084013e611b8b565b606091505b5091509150611b9b828286611ba6565b979650505050505050565b60608315611bb5575081611a60565b825115611bc55782518084602001fd5b8160405162461bcd60e51b81526004016105e69190611d95565b80356001600160a01b0381168114611bf657600080fd5b919050565b803561ffff81168114611bf657600080fd5b600060208284031215611c1e578081fd5b611a6082611bdf565b600060208284031215611c38578081fd5b8151611a6081611e93565b600060208284031215611c54578081fd5b5035919050565b600060208284031215611c6c578081fd5b5051919050565b60008060408385031215611c85578081fd5b82359150611c9560208401611bdf565b90509250929050565b60008060008060808587031215611cb3578182fd5b84359350611cc360208601611bdf565b92506040850135611cd381611e93565b9150611ce160608601611bfb565b905092959194509250565b600080600060608486031215611d00578283fd5b83359250611d1060208501611bfb565b91506040840135611d2081611e93565b809150509250925092565b60008060408385031215611d3d578182fd5b50508035926020909101359150565b600080600060608486031215611d60578283fd5b83359250602084013591506040840135611d2081611e93565b60008251611d8b818460208701611e36565b9190910192915050565b6020815260008251806020840152611db4816040850160208701611e36565b601f01601f19169190910160400192915050565b60008219821115611ddb57611ddb611e7d565b500190565b600082611dfb57634e487b7160e01b81526012600452602481fd5b500490565b6000816000190483118215151615611e1a57611e1a611e7d565b500290565b600082821015611e3157611e31611e7d565b500390565b60005b83811015611e51578181015183820152602001611e39565b838111156117325750506000910152565b6000600019821415611e7657611e76611e7d565b5060010190565b634e487b7160e01b600052601160045260246000fd5b8015158114610b5f57600080fdfea2646970667358221220a27a7ffbb1fb19e9bd05c706d2189f153bbd2d576f0108f1efd0e52a04f98c6664736f6c63430008040033",
  "devdoc": {
    "kind": "dev",
    "methods": {
      "add(uint256,address,bool,uint16)": {
        "details": "Can only be called by the owner. DO NOT add the same token more than once. Rewards will be messed up if you do.",
        "params": {
          "_depositFeeBp": "If true, users get voting power for deposits",
          "allocPoint": "Number of allocation points to allot to this token/pool",
          "token": "The token that will be staked for rewards",
          "withUpdate": "if specified, update all pools before adding new pool"
        }
      },
      "addRewardsBalance(uint256)": {
        "details": "Can only be called by the owner"
      },
      "constructor": {
        "params": {
          "_rewardsPerSecond": "initial amount of reward tokens to be distributed per second",
          "_startTimestamp": "timestamp when rewards will start"
        }
      },
      "deposit(uint256,uint256)": {
        "params": {
          "amount": "number of tokens to deposit",
          "pid": "pool id"
        }
      },
      "emergencyWithdraw(uint256)": {
        "params": {
          "pid": "pool id"
        }
      },
      "getMultiplier(uint256,uint256)": {
        "params": {
          "from": "From timestamp",
          "to": "To timestamp"
        },
        "returns": {
          "_0": "multiplier"
        }
      },
      "massUpdatePools()": {
        "details": "Be careful of gas spending!"
      },
      "owner()": {
        "details": "Returns the address of the current owner."
      },
      "pendingRewards(uint256,address)": {
        "params": {
          "account": "user account to check",
          "pid": "pool id"
        },
        "returns": {
          "_0": "pending rewards"
        }
      },
      "poolLength()": {
        "returns": {
          "_0": "pool length"
        }
      },
      "renounceOwnership()": {
        "details": "Leaves the contract without owner. It will not be possible to call `onlyOwner` functions anymore. Can only be called by the current owner. NOTE: Renouncing ownership will leave the contract without an owner, thereby removing any functionality that is only available to the owner."
      },
      "set(uint256,uint256,bool)": {
        "details": "Can only be called by the owner",
        "params": {
          "allocPoint": "New number of allocation points for pool",
          "pid": "The RewardManager pool id",
          "withUpdate": "if specified, update all pools before setting allocation points"
        }
      },
      "setRewardsPerSecond(uint256)": {
        "details": "Can only be called by the owner",
        "params": {
          "newRewardsPerSecond": "new amount of rewards to reward each second"
        }
      },
      "transferOwnership(address)": {
        "details": "Transfers ownership of the contract to a new account (`newOwner`). Can only be called by the current owner."
      },
      "updateDepositFee(uint256,uint16,bool)": {
        "details": "Can only be called by the owner",
        "params": {
          "depositFee": "New deposit fee for the pool, in basis points",
          "pid": "The RewardManager pool id",
          "withUpdate": "if specified, update all pools before updated deposit fee"
        }
      },
      "updatePool(uint256)": {
        "params": {
          "pid": "pool id"
        }
      },
      "withdraw(uint256,uint256)": {
        "params": {
          "amount": "number of tokens to withdraw",
          "pid": "pool id"
        }
      }
    },
    "version": 1
  },
  "userdoc": {
    "events": {
      "ChangedAddress(string,address,address)": {
        "notice": "Event emitted when contract address is changed"
      },
      "ChangedRewardsEndTimestamp(uint256,uint256)": {
        "notice": "Event emitted when the rewards end timestamp is updated"
      },
      "ChangedRewardsPerSecond(uint256,uint256)": {
        "notice": "Event emitted when the amount of reward tokens per seconds is updated"
      },
      "ChangedTreasury(address,address)": {
        "notice": "Event emitted when the owner of the rewards manager contract is updated"
      },
      "Deposit(address,uint256,uint256,uint256)": {
        "notice": "Event emitted when a user deposits funds in the rewards manager"
      },
      "DepositFeeUpdated(uint256,uint16,uint16)": {
        "notice": "Event emitted when deposit fee is updated"
      },
      "EmergencyWithdraw(address,uint256,uint256)": {
        "notice": "Event emitted when a user withdraws their original funds from the rewards manager without claiming rewards"
      },
      "PoolAdded(uint256,address,uint256,uint256,uint256,uint16)": {
        "notice": "Event emitted when new pool is added to the rewards manager"
      },
      "PoolUpdated(uint256,uint256,uint256,uint256)": {
        "notice": "Event emitted when pool allocation points are updated"
      },
      "SetRewardsStartTimestamp(uint256)": {
        "notice": "Event emitted when the rewards start timestamp is set"
      },
      "Withdraw(address,uint256,uint256)": {
        "notice": "Event emitted when a user withdraws their original funds + rewards from the rewards manager"
      }
    },
    "kind": "user",
    "methods": {
      "add(uint256,address,bool,uint16)": {
        "notice": "Add a new reward token to the pool"
      },
      "addRewardsBalance(uint256)": {
        "notice": "Add rewards to contract"
      },
      "constructor": {
        "notice": "Create a new Rewards Manager contract"
      },
      "deposit(uint256,uint256)": {
        "notice": "Deposit tokens to PodLeader for rewards allocation."
      },
      "emergencyWithdraw(uint256)": {
        "notice": "Withdraw without caring about rewards. EMERGENCY ONLY."
      },
      "endTimestamp()": {
        "notice": "The timestamp when rewards end."
      },
      "getMultiplier(uint256,uint256)": {
        "notice": "Return reward multiplier over the given from to to timestamp."
      },
      "massUpdatePools()": {
        "notice": "Update reward variables for all pools"
      },
      "pendingRewards(uint256,address)": {
        "notice": "View function to see pending rewards on frontend."
      },
      "poolInfo(uint256)": {
        "notice": "Info of each pool."
      },
      "poolLength()": {
        "notice": "View function to see current poolInfo array length"
      },
      "rewardsActive()": {
        "notice": "Returns true if rewards are actively being accumulated"
      },
      "rewardsPerSecond()": {
        "notice": "Rewards rewarded per second"
      },
      "set(uint256,uint256,bool)": {
        "notice": "Update the given pool's allocation points"
      },
      "setRewardsPerSecond(uint256)": {
        "notice": "Set new rewards per second"
      },
      "setTreasury(address)": {
        "notice": "Sets the treasury where fees will go to"
      },
      "startTimestamp()": {
        "notice": "The timestamp when rewards start."
      },
      "totalAllocPoint()": {
        "notice": "Total allocation points. Must be the sum of all allocation points in all pools."
      },
      "updateDepositFee(uint256,uint16,bool)": {
        "notice": "Update the given pool's deposit fee"
      },
      "updatePool(uint256)": {
        "notice": "Update reward variables of the given pool to be up-to-date"
      },
      "userInfo(uint256,address)": {
        "notice": "Info of each user that stakes tokens"
      },
      "withdraw(uint256,uint256)": {
        "notice": "Withdraw tokens from PodLeader, claiming rewards."
      }
    },
    "version": 1
  },
  "storageLayout": {
    "storage": [
      {
        "astId": 4266,
        "contract": "apps/avai/src/contracts/PodLeader.sol:PodLeader",
        "label": "_owner",
        "offset": 0,
        "slot": "0",
        "type": "t_address"
      },
      {
        "astId": 4866,
        "contract": "apps/avai/src/contracts/PodLeader.sol:PodLeader",
        "label": "_status",
        "offset": 0,
        "slot": "1",
        "type": "t_uint256"
      },
      {
        "astId": 13899,
        "contract": "apps/avai/src/contracts/PodLeader.sol:PodLeader",
        "label": "orca",
        "offset": 0,
        "slot": "2",
        "type": "t_contract(IERC20)5519"
      },
      {
        "astId": 13902,
        "contract": "apps/avai/src/contracts/PodLeader.sol:PodLeader",
        "label": "rewardsPerSecond",
        "offset": 0,
        "slot": "3",
        "type": "t_uint256"
      },
      {
        "astId": 13907,
        "contract": "apps/avai/src/contracts/PodLeader.sol:PodLeader",
        "label": "poolInfo",
        "offset": 0,
        "slot": "4",
        "type": "t_array(t_struct(PoolInfo)13896_storage)dyn_storage"
      },
      {
        "astId": 13915,
        "contract": "apps/avai/src/contracts/PodLeader.sol:PodLeader",
        "label": "userInfo",
        "offset": 0,
        "slot": "5",
        "type": "t_mapping(t_uint256,t_mapping(t_address,t_struct(UserInfo)13882_storage))"
      },
      {
        "astId": 13917,
        "contract": "apps/avai/src/contracts/PodLeader.sol:PodLeader",
        "label": "treasury",
        "offset": 0,
        "slot": "6",
        "type": "t_address"
      },
      {
        "astId": 13920,
        "contract": "apps/avai/src/contracts/PodLeader.sol:PodLeader",
        "label": "totalAllocPoint",
        "offset": 0,
        "slot": "7",
        "type": "t_uint256"
      },
      {
        "astId": 13923,
        "contract": "apps/avai/src/contracts/PodLeader.sol:PodLeader",
        "label": "startTimestamp",
        "offset": 0,
        "slot": "8",
        "type": "t_uint256"
      },
      {
        "astId": 13926,
        "contract": "apps/avai/src/contracts/PodLeader.sol:PodLeader",
        "label": "endTimestamp",
        "offset": 0,
        "slot": "9",
        "type": "t_uint256"
      }
    ],
    "types": {
      "t_address": {
        "encoding": "inplace",
        "label": "address",
        "numberOfBytes": "20"
      },
      "t_array(t_struct(PoolInfo)13896_storage)dyn_storage": {
        "base": "t_struct(PoolInfo)13896_storage",
        "encoding": "dynamic_array",
        "label": "struct PodLeader.PoolInfo[]",
        "numberOfBytes": "32"
      },
      "t_contract(IERC20)5519": {
        "encoding": "inplace",
        "label": "contract IERC20",
        "numberOfBytes": "20"
      },
      "t_mapping(t_address,t_struct(UserInfo)13882_storage)": {
        "encoding": "mapping",
        "key": "t_address",
        "label": "mapping(address => struct PodLeader.UserInfo)",
        "numberOfBytes": "32",
        "value": "t_struct(UserInfo)13882_storage"
      },
      "t_mapping(t_uint256,t_mapping(t_address,t_struct(UserInfo)13882_storage))": {
        "encoding": "mapping",
        "key": "t_uint256",
        "label": "mapping(uint256 => mapping(address => struct PodLeader.UserInfo))",
        "numberOfBytes": "32",
        "value": "t_mapping(t_address,t_struct(UserInfo)13882_storage)"
      },
      "t_struct(PoolInfo)13896_storage": {
        "encoding": "inplace",
        "label": "struct PodLeader.PoolInfo",
        "members": [
          {
            "astId": 13885,
            "contract": "apps/avai/src/contracts/PodLeader.sol:PodLeader",
            "label": "token",
            "offset": 0,
            "slot": "0",
            "type": "t_contract(IERC20)5519"
          },
          {
            "astId": 13887,
            "contract": "apps/avai/src/contracts/PodLeader.sol:PodLeader",
            "label": "allocPoint",
            "offset": 0,
            "slot": "1",
            "type": "t_uint256"
          },
          {
            "astId": 13889,
            "contract": "apps/avai/src/contracts/PodLeader.sol:PodLeader",
            "label": "lastRewardTimestamp",
            "offset": 0,
            "slot": "2",
            "type": "t_uint256"
          },
          {
            "astId": 13891,
            "contract": "apps/avai/src/contracts/PodLeader.sol:PodLeader",
            "label": "accRewardsPerShare",
            "offset": 0,
            "slot": "3",
            "type": "t_uint256"
          },
          {
            "astId": 13893,
            "contract": "apps/avai/src/contracts/PodLeader.sol:PodLeader",
            "label": "totalStaked",
            "offset": 0,
            "slot": "4",
            "type": "t_uint256"
          },
          {
            "astId": 13895,
            "contract": "apps/avai/src/contracts/PodLeader.sol:PodLeader",
            "label": "depositFeeBP",
            "offset": 0,
            "slot": "5",
            "type": "t_uint16"
          }
        ],
        "numberOfBytes": "192"
      },
      "t_struct(UserInfo)13882_storage": {
        "encoding": "inplace",
        "label": "struct PodLeader.UserInfo",
        "members": [
          {
            "astId": 13879,
            "contract": "apps/avai/src/contracts/PodLeader.sol:PodLeader",
            "label": "amount",
            "offset": 0,
            "slot": "0",
            "type": "t_uint256"
          },
          {
            "astId": 13881,
            "contract": "apps/avai/src/contracts/PodLeader.sol:PodLeader",
            "label": "rewardTokenDebt",
            "offset": 0,
            "slot": "1",
            "type": "t_uint256"
          }
        ],
        "numberOfBytes": "64"
      },
      "t_uint16": {
        "encoding": "inplace",
        "label": "uint16",
        "numberOfBytes": "2"
      },
      "t_uint256": {
        "encoding": "inplace",
        "label": "uint256",
        "numberOfBytes": "32"
      }
    }
  }
}