{
  "address": "0x0E801D84Fa97b50751Dbf25036d067dCf18858bF",
  "abi": [
    {
      "inputs": [
        {
          "internalType": "address payable",
          "name": "_staking",
          "type": "address"
        },
        {
          "internalType": "address payable",
          "name": "_podleader",
          "type": "address"
        },
        {
          "internalType": "address",
          "name": "_orca",
          "type": "address"
        }
      ],
      "stateMutability": "nonpayable",
      "type": "constructor"
    },
    {
      "inputs": [
        {
          "internalType": "uint256",
          "name": "pid",
          "type": "uint256"
        },
        {
          "internalType": "address",
          "name": "user",
          "type": "address"
        }
      ],
      "name": "podLeaderVote",
      "outputs": [
        {
          "internalType": "uint256",
          "name": "",
          "type": "uint256"
        }
      ],
      "stateMutability": "view",
      "type": "function"
    },
    {
      "inputs": [
        {
          "internalType": "uint256",
          "name": "pid",
          "type": "uint256"
        },
        {
          "internalType": "address",
          "name": "user",
          "type": "address"
        }
      ],
      "name": "stakingPoolVote",
      "outputs": [
        {
          "internalType": "uint256",
          "name": "",
          "type": "uint256"
        }
      ],
      "stateMutability": "view",
      "type": "function"
    }
  ],
  "transactionHash": "0xb51a81c8e8a8eba56a0d9e665a670a623364b6566e3335ef04e6c397b404c4f8",
  "args": [
    "0xA3654801Ba6FB21d5A984F9a857441395dDeccFb",
    "0x111E1E97435b57467E79d4930acc4B7EB3d478ad",
    "0x8B1d98A91F853218ddbb066F20b8c63E782e2430"
  ],
  "solcInputHash": "bbcb4ebf9cbf96bbf468531e4c749b7e",
  "bytecode": "0x608060405234801561001057600080fd5b5060405161091b38038061091b83398101604081905261002f91610071565b600080546001600160a01b039485166001600160a01b0319918216179091556001805493851693821693909317909255600280549190931691161790556100d5565b600080600060608486031215610085578283fd5b8351610090816100bd565b60208501519093506100a1816100bd565b60408501519092506100b2816100bd565b809150509250925092565b6001600160a01b03811681146100d257600080fd5b50565b610837806100e46000396000f3fe608060405234801561001057600080fd5b50600436106100365760003560e01c806397ae44e51461003b578063ce03505214610060575b600080fd5b61004e610049366004610636565b610073565b60405190815260200160405180910390f35b61004e61006e366004610636565b610498565b6001546040517f1526fe270000000000000000000000000000000000000000000000000000000081526004810184905260009182916001600160a01b0390911690631526fe279060240160c06040518083038186803b1580156100d557600080fd5b505afa1580156100e9573d6000803e3d6000fd5b505050506040513d601f19601f8201168201806040525081019061010d919061056b565b50506001546040516393f1a40b60e01b8152600481018a90526001600160a01b03898116602483015295965060009590911693506393f1a40b92506044019050604080518083038186803b15801561016457600080fd5b505afa158015610178573d6000803e3d6000fd5b505050506040513d601f19601f8201168201806040525081019061019c9190610665565b50905060008290506000816001600160a01b0316630dfe16816040518163ffffffff1660e01b815260040160206040518083038186803b1580156101df57600080fd5b505afa1580156101f3573d6000803e3d6000fd5b505050506040513d601f19601f820116820180604052508101906102179190610548565b90506000826001600160a01b03166318160ddd6040518163ffffffff1660e01b815260040160206040518083038186803b15801561025457600080fd5b505afa158015610268573d6000803e3d6000fd5b505050506040513d601f19601f8201168201806040525081019061028c919061061e565b90506000836001600160a01b031663313ce5676040518163ffffffff1660e01b815260040160206040518083038186803b1580156102c957600080fd5b505afa1580156102dd573d6000803e3d6000fd5b505050506040513d601f19601f820116820180604052508101906103019190610688565b60ff169050600080856001600160a01b0316630902f1ac6040518163ffffffff1660e01b815260040160606040518083038186803b15801561034257600080fd5b505afa158015610356573d6000803e3d6000fd5b505050506040513d601f19601f8201168201806040525081019061037a91906105d0565b506dffffffffffffffffffffffffffff1691506dffffffffffffffffffffffffffff1691506000841161040d576040517f08c379a000000000000000000000000000000000000000000000000000000000815260206004820152601560248201527f43616e6e6f7420646976696465206279207a65726f0000000000000000000000604482015260640160405180910390fd5b6002546001600160a01b038681169116141561047a5760008461043185600a61070c565b61043b90856107b4565b61044591906106a9565b9050600061045485600a61070c565b61045e838b6107b4565b61046891906106a9565b9a506104929950505050505050505050565b60008461048885600a61070c565b61043b90846107b4565b92915050565b600080546040516393f1a40b60e01b8152600481018590526001600160a01b038481166024830152839216906393f1a40b90604401604080518083038186803b1580156104e457600080fd5b505afa1580156104f8573d6000803e3d6000fd5b505050506040513d601f19601f8201168201806040525081019061051c9190610665565b50949350505050565b80516dffffffffffffffffffffffffffff8116811461054357600080fd5b919050565b600060208284031215610559578081fd5b8151610564816107e9565b9392505050565b60008060008060008060c08789031215610583578182fd5b865161058e816107e9565b809650506020870151945060408701519350606087015192506080870151915060a087015161ffff811681146105c2578182fd5b809150509295509295509295565b6000806000606084860312156105e4578283fd5b6105ed84610525565b92506105fb60208501610525565b9150604084015163ffffffff81168114610613578182fd5b809150509250925092565b60006020828403121561062f578081fd5b5051919050565b60008060408385031215610648578182fd5b82359150602083013561065a816107e9565b809150509250929050565b60008060408385031215610677578182fd5b505080516020909101519092909150565b600060208284031215610699578081fd5b815160ff81168114610564578182fd5b6000826106c457634e487b7160e01b81526012600452602481fd5b500490565b600181815b808511156107045781600019048211156106ea576106ea6107d3565b808516156106f757918102915b93841c93908002906106ce565b509250929050565b6000610564838360008261072257506001610492565b8161072f57506000610492565b8160018114610745576002811461074f5761076b565b6001915050610492565b60ff841115610760576107606107d3565b50506001821b610492565b5060208310610133831016604e8410600b841016171561078e575081810a610492565b61079883836106c9565b80600019048211156107ac576107ac6107d3565b029392505050565b60008160001904831182151516156107ce576107ce6107d3565b500290565b634e487b7160e01b600052601160045260246000fd5b6001600160a01b03811681146107fe57600080fd5b5056fea26469706673582212208a774f626fe20b9b691263964212d32f63f31edeed13bd6814fa98389915f8e164736f6c63430008040033",
  "devdoc": {
    "kind": "dev",
    "methods": {},
    "version": 1
  },
  "userdoc": {
    "kind": "user",
    "methods": {},
    "version": 1
  },
  "storageLayout": {
    "storage": [
      {
        "astId": 21029,
        "contract": "apps/avai/src/contracts/snapshot/SnapshotBridge.sol:SnapshotBridge",
        "label": "staking",
        "offset": 0,
        "slot": "0",
        "type": "t_contract(PodLeader)15071"
      },
      {
        "astId": 21032,
        "contract": "apps/avai/src/contracts/snapshot/SnapshotBridge.sol:SnapshotBridge",
        "label": "podLeader",
        "offset": 0,
        "slot": "1",
        "type": "t_contract(PodLeader)15071"
      },
      {
        "astId": 21035,
        "contract": "apps/avai/src/contracts/snapshot/SnapshotBridge.sol:SnapshotBridge",
        "label": "orca",
        "offset": 0,
        "slot": "2",
        "type": "t_contract(IERC20)5519"
      }
    ],
    "types": {
      "t_contract(IERC20)5519": {
        "encoding": "inplace",
        "label": "contract IERC20",
        "numberOfBytes": "20"
      },
      "t_contract(PodLeader)15071": {
        "encoding": "inplace",
        "label": "contract PodLeader",
        "numberOfBytes": "20"
      }
    }
  }
}