{
  "address": "0x4826533B4897376654Bb4d4AD88B7faFD0C98528",
  "abi": [
    {
      "inputs": [
        {
          "internalType": "contract IERC20",
          "name": "_rewardToken",
          "type": "address"
        },
        {
          "internalType": "uint256",
          "name": "_startTimestamp",
          "type": "uint256"
        },
        {
          "internalType": "uint256",
          "name": "_rewardsPerSecond",
          "type": "uint256"
        }
      ],
      "stateMutability": "nonpayable",
      "type": "constructor"
    },
    {
      "anonymous": false,
      "inputs": [
        {
          "indexed": true,
          "internalType": "uint256",
          "name": "oldEndTimestamp",
          "type": "uint256"
        },
        {
          "indexed": true,
          "internalType": "uint256",
          "name": "newEndTimestamp",
          "type": "uint256"
        }
      ],
      "name": "ChangedRewardsEndTimestamp",
      "type": "event"
    },
    {
      "anonymous": false,
      "inputs": [
        {
          "indexed": true,
          "internalType": "uint256",
          "name": "oldRewardsPerSecond",
          "type": "uint256"
        },
        {
          "indexed": true,
          "internalType": "uint256",
          "name": "newRewardsPerSecond",
          "type": "uint256"
        }
      ],
      "name": "ChangedRewardsPerSecond",
      "type": "event"
    },
    {
      "anonymous": false,
      "inputs": [
        {
          "indexed": true,
          "internalType": "address",
          "name": "user",
          "type": "address"
        },
        {
          "indexed": true,
          "internalType": "uint256",
          "name": "pid",
          "type": "uint256"
        },
        {
          "indexed": false,
          "internalType": "uint256",
          "name": "amount",
          "type": "uint256"
        }
      ],
      "name": "Deposit",
      "type": "event"
    },
    {
      "anonymous": false,
      "inputs": [
        {
          "indexed": true,
          "internalType": "address",
          "name": "user",
          "type": "address"
        },
        {
          "indexed": true,
          "internalType": "uint256",
          "name": "pid",
          "type": "uint256"
        },
        {
          "indexed": false,
          "internalType": "uint256",
          "name": "amount",
          "type": "uint256"
        }
      ],
      "name": "EmergencyWithdraw",
      "type": "event"
    },
    {
      "anonymous": false,
      "inputs": [
        {
          "indexed": true,
          "internalType": "address",
          "name": "previousOwner",
          "type": "address"
        },
        {
          "indexed": true,
          "internalType": "address",
          "name": "newOwner",
          "type": "address"
        }
      ],
      "name": "OwnershipTransferred",
      "type": "event"
    },
    {
      "anonymous": false,
      "inputs": [
        {
          "indexed": true,
          "internalType": "uint256",
          "name": "pid",
          "type": "uint256"
        },
        {
          "indexed": true,
          "internalType": "address",
          "name": "token",
          "type": "address"
        },
        {
          "indexed": false,
          "internalType": "uint256",
          "name": "allocPoints",
          "type": "uint256"
        },
        {
          "indexed": false,
          "internalType": "uint256",
          "name": "totalAllocPoints",
          "type": "uint256"
        },
        {
          "indexed": false,
          "internalType": "uint256",
          "name": "rewardStartTimestamp",
          "type": "uint256"
        }
      ],
      "name": "PoolAdded",
      "type": "event"
    },
    {
      "anonymous": false,
      "inputs": [
        {
          "indexed": true,
          "internalType": "uint256",
          "name": "pid",
          "type": "uint256"
        },
        {
          "indexed": false,
          "internalType": "uint256",
          "name": "oldAllocPoints",
          "type": "uint256"
        },
        {
          "indexed": false,
          "internalType": "uint256",
          "name": "newAllocPoints",
          "type": "uint256"
        },
        {
          "indexed": false,
          "internalType": "uint256",
          "name": "newTotalAllocPoints",
          "type": "uint256"
        }
      ],
      "name": "PoolUpdated",
      "type": "event"
    },
    {
      "anonymous": false,
      "inputs": [
        {
          "indexed": true,
          "internalType": "uint256",
          "name": "startTimestamp",
          "type": "uint256"
        }
      ],
      "name": "SetRewardsStartTimestamp",
      "type": "event"
    },
    {
      "anonymous": false,
      "inputs": [
        {
          "indexed": true,
          "internalType": "address",
          "name": "user",
          "type": "address"
        },
        {
          "indexed": true,
          "internalType": "uint256",
          "name": "pid",
          "type": "uint256"
        },
        {
          "indexed": false,
          "internalType": "uint256",
          "name": "amount",
          "type": "uint256"
        }
      ],
      "name": "Withdraw",
      "type": "event"
    },
    {
      "inputs": [
        {
          "internalType": "uint256",
          "name": "allocPoint",
          "type": "uint256"
        },
        {
          "internalType": "address",
          "name": "token",
          "type": "address"
        },
        {
          "internalType": "bool",
          "name": "withUpdate",
          "type": "bool"
        }
      ],
      "name": "add",
      "outputs": [],
      "stateMutability": "nonpayable",
      "type": "function"
    },
    {
      "inputs": [
        {
          "internalType": "uint256",
          "name": "amount",
          "type": "uint256"
        }
      ],
      "name": "addRewardsBalance",
      "outputs": [],
      "stateMutability": "nonpayable",
      "type": "function"
    },
    {
      "inputs": [
        {
          "internalType": "uint256",
          "name": "pid",
          "type": "uint256"
        },
        {
          "internalType": "uint256",
          "name": "amount",
          "type": "uint256"
        }
      ],
      "name": "deposit",
      "outputs": [],
      "stateMutability": "nonpayable",
      "type": "function"
    },
    {
      "inputs": [
        {
          "internalType": "uint256",
          "name": "pid",
          "type": "uint256"
        }
      ],
      "name": "emergencyWithdraw",
      "outputs": [],
      "stateMutability": "nonpayable",
      "type": "function"
    },
    {
      "inputs": [],
      "name": "endTimestamp",
      "outputs": [
        {
          "internalType": "uint256",
          "name": "",
          "type": "uint256"
        }
      ],
      "stateMutability": "view",
      "type": "function"
    },
    {
      "inputs": [
        {
          "internalType": "uint256",
          "name": "from",
          "type": "uint256"
        },
        {
          "internalType": "uint256",
          "name": "to",
          "type": "uint256"
        }
      ],
      "name": "getMultiplier",
      "outputs": [
        {
          "internalType": "uint256",
          "name": "",
          "type": "uint256"
        }
      ],
      "stateMutability": "view",
      "type": "function"
    },
    {
      "inputs": [],
      "name": "massUpdatePools",
      "outputs": [],
      "stateMutability": "nonpayable",
      "type": "function"
    },
    {
      "inputs": [],
      "name": "owner",
      "outputs": [
        {
          "internalType": "address",
          "name": "",
          "type": "address"
        }
      ],
      "stateMutability": "view",
      "type": "function"
    },
    {
      "inputs": [
        {
          "internalType": "uint256",
          "name": "pid",
          "type": "uint256"
        },
        {
          "internalType": "address",
          "name": "account",
          "type": "address"
        }
      ],
      "name": "pendingRewards",
      "outputs": [
        {
          "internalType": "uint256",
          "name": "",
          "type": "uint256"
        }
      ],
      "stateMutability": "view",
      "type": "function"
    },
    {
      "inputs": [
        {
          "internalType": "uint256",
          "name": "",
          "type": "uint256"
        }
      ],
      "name": "poolInfo",
      "outputs": [
        {
          "internalType": "contract IERC20",
          "name": "token",
          "type": "address"
        },
        {
          "internalType": "uint256",
          "name": "allocPoint",
          "type": "uint256"
        },
        {
          "internalType": "uint256",
          "name": "lastRewardTimestamp",
          "type": "uint256"
        },
        {
          "internalType": "uint256",
          "name": "accRewardsPerShare",
          "type": "uint256"
        },
        {
          "internalType": "uint256",
          "name": "totalStaked",
          "type": "uint256"
        }
      ],
      "stateMutability": "view",
      "type": "function"
    },
    {
      "inputs": [],
      "name": "poolLength",
      "outputs": [
        {
          "internalType": "uint256",
          "name": "",
          "type": "uint256"
        }
      ],
      "stateMutability": "view",
      "type": "function"
    },
    {
      "inputs": [],
      "name": "renounceOwnership",
      "outputs": [],
      "stateMutability": "nonpayable",
      "type": "function"
    },
    {
      "inputs": [],
      "name": "rewardToken",
      "outputs": [
        {
          "internalType": "contract IERC20",
          "name": "",
          "type": "address"
        }
      ],
      "stateMutability": "view",
      "type": "function"
    },
    {
      "inputs": [],
      "name": "rewardsActive",
      "outputs": [
        {
          "internalType": "bool",
          "name": "",
          "type": "bool"
        }
      ],
      "stateMutability": "view",
      "type": "function"
    },
    {
      "inputs": [],
      "name": "rewardsPerSecond",
      "outputs": [
        {
          "internalType": "uint256",
          "name": "",
          "type": "uint256"
        }
      ],
      "stateMutability": "view",
      "type": "function"
    },
    {
      "inputs": [
        {
          "internalType": "uint256",
          "name": "pid",
          "type": "uint256"
        },
        {
          "internalType": "uint256",
          "name": "allocPoint",
          "type": "uint256"
        },
        {
          "internalType": "bool",
          "name": "withUpdate",
          "type": "bool"
        }
      ],
      "name": "set",
      "outputs": [],
      "stateMutability": "nonpayable",
      "type": "function"
    },
    {
      "inputs": [
        {
          "internalType": "uint256",
          "name": "newRewardsPerSecond",
          "type": "uint256"
        }
      ],
      "name": "setRewardsPerSecond",
      "outputs": [],
      "stateMutability": "nonpayable",
      "type": "function"
    },
    {
      "inputs": [],
      "name": "startTimestamp",
      "outputs": [
        {
          "internalType": "uint256",
          "name": "",
          "type": "uint256"
        }
      ],
      "stateMutability": "view",
      "type": "function"
    },
    {
      "inputs": [],
      "name": "totalAllocPoint",
      "outputs": [
        {
          "internalType": "uint256",
          "name": "",
          "type": "uint256"
        }
      ],
      "stateMutability": "view",
      "type": "function"
    },
    {
      "inputs": [
        {
          "internalType": "address",
          "name": "newOwner",
          "type": "address"
        }
      ],
      "name": "transferOwnership",
      "outputs": [],
      "stateMutability": "nonpayable",
      "type": "function"
    },
    {
      "inputs": [
        {
          "internalType": "uint256",
          "name": "pid",
          "type": "uint256"
        }
      ],
      "name": "updatePool",
      "outputs": [],
      "stateMutability": "nonpayable",
      "type": "function"
    },
    {
      "inputs": [
        {
          "internalType": "uint256",
          "name": "",
          "type": "uint256"
        },
        {
          "internalType": "address",
          "name": "",
          "type": "address"
        }
      ],
      "name": "userInfo",
      "outputs": [
        {
          "internalType": "uint256",
          "name": "amount",
          "type": "uint256"
        },
        {
          "internalType": "uint256",
          "name": "rewardTokenDebt",
          "type": "uint256"
        }
      ],
      "stateMutability": "view",
      "type": "function"
    },
    {
      "inputs": [
        {
          "internalType": "uint256",
          "name": "pid",
          "type": "uint256"
        },
        {
          "internalType": "uint256",
          "name": "amount",
          "type": "uint256"
        }
      ],
      "name": "withdraw",
      "outputs": [],
      "stateMutability": "nonpayable",
      "type": "function"
    }
  ],
  "transactionHash": "0x4f1bf8dc9ffb6794f94282e2db5209d6aebaa548106dd4cddde23844b4cedea5",
  "args": [
    "0x6AFD5A1ea4b793CC1526d6Dc7e99A608b356eF7b",
    1640741677,
    "9176573000000000"
  ],
  "solcInputHash": "bbcb4ebf9cbf96bbf468531e4c749b7e",
  "bytecode": "0x60a06040523480156200001157600080fd5b5060405162001c6c38038062001c6c833981016040819052620000349162000122565b8282826200004233620000d2565b60018055811562000054578162000056565b425b60068190556040517f457596c4aedbe8a498e6b9a94fa90cbba7bd432ddba1f7e75e85bcf5e363917190600090a2600281905560405181906000907f6c5ac63fafcfaaa35808336a9aef07619736abe0349beeb783a3a8ab67936c81908290a3505060601b6001600160601b0319166080525062000165915050565b600080546001600160a01b038381166001600160a01b0319831681178455604051919092169283917f8be0079c531659141344cd1fd0a4f28419497f9722a3daafe3b4186f6b6457e09190a35050565b60008060006060848603121562000137578283fd5b83516001600160a01b03811681146200014e578384fd5b602085015160409095015190969495509392505050565b60805160601c611ac5620001a76000396000818161037e01528181610c2801528181611016015281816114c30152818161155c01526115900152611ac56000f3fe608060405234801561001057600080fd5b506004361061018d5760003560e01c80638dbb1e3a116100e3578063d18df53c1161008c578063eacdaabc11610066578063eacdaabc1461035d578063f2fde38b14610366578063f7c618c11461037957600080fd5b8063d18df53c1461032e578063e2bbb15814610341578063e6fd48bc1461035457600080fd5b8063a85adeab116100bd578063a85adeab146102ff578063b1de8fdc14610308578063cbeb09aa1461031b57600080fd5b80638dbb1e3a1461028d57806393f1a40b146102a0578063a519121a146102e757600080fd5b806351eb05a61161014557806364482f791161011f57806364482f791461024d578063715018a6146102605780638da5cb5b1461026857600080fd5b806351eb05a61461021f5780635312ea8e14610232578063630b5ba11461024557600080fd5b806317caf6f11161017657806317caf6f1146101ee5780631eaaa045146101f7578063441a3e701461020c57600080fd5b8063081e3eda146101925780631526fe27146101a9575b600080fd5b6003545b6040519081526020015b60405180910390f35b6101bc6101b736600461187f565b6103a0565b604080516001600160a01b0390961686526020860194909452928401919091526060830152608082015260a0016101a0565b61019660055481565b61020a6102053660046118da565b6103eb565b005b61020a61021a366004611919565b61061a565b61020a61022d36600461187f565b610746565b61020a61024036600461187f565b61081b565b61020a610946565b61020a61025b36600461193a565b61096f565b61020a610ae5565b6000546001600160a01b03165b6040516001600160a01b0390911681526020016101a0565b61019661029b366004611919565b610b4b565b6102d26102ae3660046118af565b60046020908152600092835260408084209091529082529020805460019091015482565b604080519283526020830191909152016101a0565b6102ef610b85565b60405190151581526020016101a0565b61019660075481565b61020a61031636600461187f565b610bb9565b61020a61032936600461187f565b610c58565b61019661033c3660046118af565b610cf6565b61020a61034f366004611919565b610e41565b61019660065481565b61019660025481565b61020a610374366004611849565b610ef3565b6102757f000000000000000000000000000000000000000000000000000000000000000081565b600381815481106103b057600080fd5b6000918252602090912060059091020180546001820154600283015460038401546004909401546001600160a01b0390931694509092909185565b6000546001600160a01b0316331461044a5760405162461bcd60e51b815260206004820181905260248201527f4f776e61626c653a2063616c6c6572206973206e6f7420746865206f776e657260448201526064015b60405180910390fd5b801561045857610458610946565b6000600654421161046b5760065461046d565b425b90506005546000141561048257610482610fd2565b8360055461049091906119b6565b60059081556040805160a0810182526001600160a01b03868116808352602083018981529383018681526000606085018181526080860182815260038054600180820183559482905297517fc2575a0e9e593c00f959f8c92f12db2869c3395a3b0502d05e2516446f71f85b98909a02978801805473ffffffffffffffffffffffffffffffffffffffff19169a9097169990991790955595517fc2575a0e9e593c00f959f8c92f12db2869c3395a3b0502d05e2516446f71f85c86015590517fc2575a0e9e593c00f959f8c92f12db2869c3395a3b0502d05e2516446f71f85d85015593517fc2575a0e9e593c00f959f8c92f12db2869c3395a3b0502d05e2516446f71f85e84015590517fc2575a0e9e593c00f959f8c92f12db2869c3395a3b0502d05e2516446f71f85f9092019190915591546105cf9190611a0d565b60055460408051888152602081019290925281018490527fdcad60f82308d160bd8a3814cf84788a2c98294718485b86d238d14cbf166dab906060015b60405180910390a350505050565b6002600154141561066d5760405162461bcd60e51b815260206004820152601f60248201527f5265656e7472616e637947756172643a207265656e7472616e742063616c6c006044820152606401610441565b6002600155806106e55760405162461bcd60e51b815260206004820152602760248201527f506f644c65616465723a3a77697468647261773a20616d6f756e74206d75737460448201527f206265203e2030000000000000000000000000000000000000000000000000006064820152608401610441565b60006003838154811061070857634e487b7160e01b600052603260045260246000fd5b6000918252602080832086845260048252604080852033865290925292206005909102909101915061073c848484846110f5565b5050600180555050565b60006003828154811061076957634e487b7160e01b600052603260045260246000fd5b9060005260206000209060050201905080600201544211610788575050565b60048101548061079d57504260029091015550565b60006107ad836002015442610b4b565b905060006005548460010154600254846107c791906119ee565b6107d191906119ee565b6107db91906119ce565b9050826107ed8264e8d4a510006119ee565b6107f791906119ce565b846003015461080691906119b6565b60038501555050426002909201919091555050565b6002600154141561086e5760405162461bcd60e51b815260206004820152601f60248201527f5265656e7472616e637947756172643a207265656e7472616e742063616c6c006044820152606401610441565b600260018190555060006003828154811061089957634e487b7160e01b600052603260045260246000fd5b6000918252602080832085845260048252604080852033865290925292208054600590920290920192501561093d57805460048301546108d99190611a0d565b6004830155805482546108f9916001600160a01b0390911690339061125b565b8054604051908152839033907fbb757047c2b5f3974fe26b7c10f732e7bce710b0952a71082702781e62ae05959060200160405180910390a3600080825560018201555b50506001805550565b60005b60035481101561096c5761095c81610746565b61096581611a50565b9050610949565b50565b6000546001600160a01b031633146109c95760405162461bcd60e51b815260206004820181905260248201527f4f776e61626c653a2063616c6c6572206973206e6f7420746865206f776e65726044820152606401610441565b80156109d7576109d7610946565b81600384815481106109f957634e487b7160e01b600052603260045260246000fd5b906000526020600020906005020160010154600554610a189190611a0d565b610a2291906119b6565b600581905550827fb0a2ded49817748754bcca0474b24011f01d4574dd5c40e14197ffa2e6540fef60038581548110610a6b57634e487b7160e01b600052603260045260246000fd5b90600052602060002090600502016001015484600554604051610aa1939291909283526020830191909152604082015260600190565b60405180910390a28160038481548110610acb57634e487b7160e01b600052603260045260246000fd5b906000526020600020906005020160010181905550505050565b6000546001600160a01b03163314610b3f5760405162461bcd60e51b815260206004820181905260248201527f4f776e61626c653a2063616c6c6572206973206e6f7420746865206f776e65726044820152606401610441565b610b496000611309565b565b6000806007548311610b5d5782610b61565b6007545b9050838111610b71576000610b7b565b610b7b8482611a0d565b9150505b92915050565b60006006544210158015610b9b57506007544211155b8015610ba957506000600554115b610bb35750600090565b50600190565b6000546001600160a01b03163314610c135760405162461bcd60e51b815260206004820181905260248201527f4f776e61626c653a2063616c6c6572206973206e6f7420746865206f776e65726044820152606401610441565b610c1b610946565b610c506001600160a01b037f000000000000000000000000000000000000000000000000000000000000000016333084611366565b61096c610fd2565b6000546001600160a01b03163314610cb25760405162461bcd60e51b815260206004820181905260248201527f4f776e61626c653a2063616c6c6572206973206e6f7420746865206f776e65726044820152606401610441565b610cba610946565b6002546040518291907f6c5ac63fafcfaaa35808336a9aef07619736abe0349beeb783a3a8ab67936c8190600090a3600281905561096c610fd2565b60008060038481548110610d1a57634e487b7160e01b600052603260045260246000fd5b60009182526020808320878452600480835260408086206001600160a01b038a168752909352919093206003600590930290930191820154908201546002830154929450909142118015610d6d57508015155b8015610d7a575060055415155b15610de8576000610d8f856002015442610b4b565b90506000600554866001015460025484610da991906119ee565b610db391906119ee565b610dbd91906119ce565b905082610dcf8264e8d4a510006119ee565b610dd991906119ce565b610de390856119b6565b935050505b600064e8d4a51000838560000154610e0091906119ee565b610e0a91906119ce565b90508360010154811015610e2657600095505050505050610b7f565b6001840154610e359082611a0d565b98975050505050505050565b60026001541415610e945760405162461bcd60e51b815260206004820152601f60248201527f5265656e7472616e637947756172643a207265656e7472616e742063616c6c006044820152606401610441565b6002600181905550600060038381548110610ebf57634e487b7160e01b600052603260045260246000fd5b6000918252602080832086845260048252604080852033865290925292206005909102909101915061073c848484846113bd565b6000546001600160a01b03163314610f4d5760405162461bcd60e51b815260206004820181905260248201527f4f776e61626c653a2063616c6c6572206973206e6f7420746865206f776e65726044820152606401610441565b6001600160a01b038116610fc95760405162461bcd60e51b815260206004820152602660248201527f4f776e61626c653a206e6577206f776e657220697320746865207a65726f206160448201527f64647265737300000000000000000000000000000000000000000000000000006064820152608401610441565b61096c81611309565b60025415610b49576000600654421015610fee57600654610ff0565b425b6002546040516370a0823160e01b81523060048201529192506000916001600160a01b037f000000000000000000000000000000000000000000000000000000000000000016906370a082319060240160206040518083038186803b15801561105857600080fd5b505afa15801561106c573d6000803e3d6000fd5b505050506040513d601f19601f820116820180604052508101906110909190611897565b61109a91906119ce565b6110a490836119b6565b905081811180156110b757506007548114155b156110f1576007546040518291907fc27995de4b73bfe8fa8c957b4ae89e3113185c3d9e2c6e3bf680ce10708218e590600090a360078190555b5050565b805483111561116c5760405162461bcd60e51b815260206004820152602b60248201527f506f644c65616465723a3a5f77697468647261773a20616d6f756e74203e207560448201527f7365722062616c616e63650000000000000000000000000000000000000000006064820152608401610441565b61117584610746565b6000816001015464e8d4a510008460030154846000015461119691906119ee565b6111a091906119ce565b6111aa9190611a0d565b82549091506111ba908590611a0d565b808355600384015464e8d4a51000916111d391906119ee565b6111dd91906119ce565b600183015580156111f2576111f233826114ab565b8383600401546112029190611a0d565b6004840155825461121d906001600160a01b0316338661125b565b604051848152859033907ff279e6a1f5e320cca91135676d9cb6e44ca8a08c0b88342bcdb1144f6511b5689060200160405180910390a35050505050565b6040516001600160a01b0383166024820152604481018290526113049084907fa9059cbb00000000000000000000000000000000000000000000000000000000906064015b60408051601f198184030181529190526020810180517bffffffffffffffffffffffffffffffffffffffffffffffffffffffff167fffffffff00000000000000000000000000000000000000000000000000000000909316929092179091526115b7565b505050565b600080546001600160a01b0383811673ffffffffffffffffffffffffffffffffffffffff19831681178455604051919092169283917f8be0079c531659141344cd1fd0a4f28419497f9722a3daafe3b4186f6b6457e09190a35050565b6040516001600160a01b03808516602483015283166044820152606481018290526113b79085907f23b872dd00000000000000000000000000000000000000000000000000000000906084016112a0565b50505050565b6113c684610746565b805415611416576000816001015464e8d4a51000846003015484600001546113ee91906119ee565b6113f891906119ce565b6114029190611a0d565b905080156114145761141433826114ab565b505b815461142d906001600160a01b0316333086611366565b82826004015461143d91906119b6565b6004830155805461144f9084906119b6565b808255600383015464e8d4a510009161146891906119ee565b61147291906119ce565b6001820155604051838152849033907f90890809c654f11d6e72a28fa60149770a0d11ec6c92319d6ceb2bb0a4ea1a159060200161060c565b6040516370a0823160e01b81523060048201526000907f00000000000000000000000000000000000000000000000000000000000000006001600160a01b0316906370a082319060240160206040518083038186803b15801561150d57600080fd5b505afa158015611521573d6000803e3d6000fd5b505050506040513d601f19601f820116820180604052508101906115459190611897565b905080821115611583576113046001600160a01b037f000000000000000000000000000000000000000000000000000000000000000016848361125b565b6113046001600160a01b037f000000000000000000000000000000000000000000000000000000000000000016848461125b565b600061160c826040518060400160405280602081526020017f5361666545524332303a206c6f772d6c6576656c2063616c6c206661696c6564815250856001600160a01b031661169c9092919063ffffffff16565b805190915015611304578080602001905181019061162a9190611863565b6113045760405162461bcd60e51b815260206004820152602a60248201527f5361666545524332303a204552433230206f7065726174696f6e20646964206e60448201527f6f742073756363656564000000000000000000000000000000000000000000006064820152608401610441565b60606116ab84846000856116b5565b90505b9392505050565b60608247101561172d5760405162461bcd60e51b815260206004820152602660248201527f416464726573733a20696e73756666696369656e742062616c616e636520666f60448201527f722063616c6c00000000000000000000000000000000000000000000000000006064820152608401610441565b843b61177b5760405162461bcd60e51b815260206004820152601d60248201527f416464726573733a2063616c6c20746f206e6f6e2d636f6e74726163740000006044820152606401610441565b600080866001600160a01b031685876040516117979190611967565b60006040518083038185875af1925050503d80600081146117d4576040519150601f19603f3d011682016040523d82523d6000602084013e6117d9565b606091505b50915091506117e98282866117f4565b979650505050505050565b606083156118035750816116ae565b8251156118135782518084602001fd5b8160405162461bcd60e51b81526004016104419190611983565b80356001600160a01b038116811461184457600080fd5b919050565b60006020828403121561185a578081fd5b6116ae8261182d565b600060208284031215611874578081fd5b81516116ae81611a81565b600060208284031215611890578081fd5b5035919050565b6000602082840312156118a8578081fd5b5051919050565b600080604083850312156118c1578081fd5b823591506118d16020840161182d565b90509250929050565b6000806000606084860312156118ee578081fd5b833592506118fe6020850161182d565b9150604084013561190e81611a81565b809150509250925092565b6000806040838503121561192b578182fd5b50508035926020909101359150565b60008060006060848603121561194e578283fd5b8335925060208401359150604084013561190e81611a81565b60008251611979818460208701611a24565b9190910192915050565b60208152600082518060208401526119a2816040850160208701611a24565b601f01601f19169190910160400192915050565b600082198211156119c9576119c9611a6b565b500190565b6000826119e957634e487b7160e01b81526012600452602481fd5b500490565b6000816000190483118215151615611a0857611a08611a6b565b500290565b600082821015611a1f57611a1f611a6b565b500390565b60005b83811015611a3f578181015183820152602001611a27565b838111156113b75750506000910152565b6000600019821415611a6457611a64611a6b565b5060010190565b634e487b7160e01b600052601160045260246000fd5b801515811461096c57600080fdfea2646970667358221220a7368e951d069e56cb4437890887dc26df79772b443e11a49571c668b5e4afe464736f6c63430008040033",
  "devdoc": {
    "kind": "dev",
    "methods": {
      "add(uint256,address,bool)": {
        "details": "Can only be called by the owner.",
        "params": {
          "allocPoint": "Number of allocation points to allot to this token/pool",
          "token": "The token that will be staked for rewards",
          "withUpdate": "if specified, update all pools before adding new pool"
        }
      },
      "addRewardsBalance(uint256)": {
        "details": "Can only be called by the owner"
      },
      "deposit(uint256,uint256)": {
        "params": {
          "amount": "number of tokens to deposit",
          "pid": "pool id"
        }
      },
      "emergencyWithdraw(uint256)": {
        "params": {
          "pid": "pool id"
        }
      },
      "getMultiplier(uint256,uint256)": {
        "params": {
          "from": "From timestamp",
          "to": "To timestamp"
        },
        "returns": {
          "_0": "multiplier"
        }
      },
      "massUpdatePools()": {
        "details": "Be careful of gas spending!"
      },
      "owner()": {
        "details": "Returns the address of the current owner."
      },
      "pendingRewards(uint256,address)": {
        "params": {
          "account": "user account to check",
          "pid": "pool id"
        },
        "returns": {
          "_0": "pending rewards"
        }
      },
      "poolLength()": {
        "returns": {
          "_0": "pool length"
        }
      },
      "renounceOwnership()": {
        "details": "Leaves the contract without owner. It will not be possible to call `onlyOwner` functions anymore. Can only be called by the current owner. NOTE: Renouncing ownership will leave the contract without an owner, thereby removing any functionality that is only available to the owner."
      },
      "set(uint256,uint256,bool)": {
        "details": "Can only be called by the owner",
        "params": {
          "allocPoint": "New number of allocation points for pool",
          "pid": "The RewardManager pool id",
          "withUpdate": "if specified, update all pools before setting allocation points"
        }
      },
      "setRewardsPerSecond(uint256)": {
        "details": "Can only be called by the owner",
        "params": {
          "newRewardsPerSecond": "new amount of rewards to reward each second"
        }
      },
      "transferOwnership(address)": {
        "details": "Transfers ownership of the contract to a new account (`newOwner`). Can only be called by the current owner."
      },
      "updatePool(uint256)": {
        "params": {
          "pid": "pool id"
        }
      },
      "withdraw(uint256,uint256)": {
        "params": {
          "amount": "number of tokens to withdraw",
          "pid": "pool id"
        }
      }
    },
    "version": 1
  },
  "userdoc": {
    "events": {
      "ChangedRewardsEndTimestamp(uint256,uint256)": {
        "notice": "Event emitted when the rewards end timestamp is updated"
      },
      "ChangedRewardsPerSecond(uint256,uint256)": {
        "notice": "Event emitted when the amount of reward tokens per seconds is updated"
      },
      "Deposit(address,uint256,uint256)": {
        "notice": "Event emitted when a user deposits funds in the rewards manager"
      },
      "EmergencyWithdraw(address,uint256,uint256)": {
        "notice": "Event emitted when a user withdraws their original funds from the rewards manager without claiming rewards"
      },
      "PoolAdded(uint256,address,uint256,uint256,uint256)": {
        "notice": "Event emitted when new pool is added to the rewards manager"
      },
      "PoolUpdated(uint256,uint256,uint256,uint256)": {
        "notice": "Event emitted when pool allocation points are updated"
      },
      "SetRewardsStartTimestamp(uint256)": {
        "notice": "Event emitted when the rewards start timestamp is set"
      },
      "Withdraw(address,uint256,uint256)": {
        "notice": "Event emitted when a user withdraws their original funds + rewards from the rewards manager"
      }
    },
    "kind": "user",
    "methods": {
      "add(uint256,address,bool)": {
        "notice": "Add a new reward token to the pool"
      },
      "addRewardsBalance(uint256)": {
        "notice": "Add rewards to contract"
      },
      "deposit(uint256,uint256)": {
        "notice": "Deposit tokens to PodLeader for rewards allocation."
      },
      "emergencyWithdraw(uint256)": {
        "notice": "Withdraw without caring about rewards. EMERGENCY ONLY."
      },
      "endTimestamp()": {
        "notice": "The timestamp when rewards end."
      },
      "getMultiplier(uint256,uint256)": {
        "notice": "Return reward multiplier over the given from to to timestamp."
      },
      "massUpdatePools()": {
        "notice": "Update reward variables for all pools"
      },
      "pendingRewards(uint256,address)": {
        "notice": "View function to see pending rewards on frontend."
      },
      "poolInfo(uint256)": {
        "notice": "Info of each pool."
      },
      "poolLength()": {
        "notice": "View function to see current poolInfo array length"
      },
      "rewardsActive()": {
        "notice": "Returns true if rewards are actively being accumulated"
      },
      "rewardsPerSecond()": {
        "notice": "Rewards rewarded per second"
      },
      "set(uint256,uint256,bool)": {
        "notice": "Update the given pool's allocation points"
      },
      "setRewardsPerSecond(uint256)": {
        "notice": "Set new rewards per second"
      },
      "startTimestamp()": {
        "notice": "The timestamp when rewards start."
      },
      "totalAllocPoint()": {
        "notice": "Total allocation points. Must be the sum of all allocation points in all pools."
      },
      "updatePool(uint256)": {
        "notice": "Update reward variables of the given pool to be up-to-date"
      },
      "userInfo(uint256,address)": {
        "notice": "Info of each user that stakes tokens"
      },
      "withdraw(uint256,uint256)": {
        "notice": "Withdraw tokens from PodLeader, claiming rewards."
      }
    },
    "version": 1
  },
  "storageLayout": {
    "storage": [
      {
        "astId": 4266,
        "contract": "apps/avai/src/contracts/Partner/Storm.sol:StormSingleStaking",
        "label": "_owner",
        "offset": 0,
        "slot": "0",
        "type": "t_address"
      },
      {
        "astId": 4866,
        "contract": "apps/avai/src/contracts/Partner/Storm.sol:StormSingleStaking",
        "label": "_status",
        "offset": 0,
        "slot": "1",
        "type": "t_uint256"
      },
      {
        "astId": 15107,
        "contract": "apps/avai/src/contracts/Partner/Storm.sol:StormSingleStaking",
        "label": "rewardsPerSecond",
        "offset": 0,
        "slot": "2",
        "type": "t_uint256"
      },
      {
        "astId": 15112,
        "contract": "apps/avai/src/contracts/Partner/Storm.sol:StormSingleStaking",
        "label": "poolInfo",
        "offset": 0,
        "slot": "3",
        "type": "t_array(t_struct(PoolInfo)15101_storage)dyn_storage"
      },
      {
        "astId": 15120,
        "contract": "apps/avai/src/contracts/Partner/Storm.sol:StormSingleStaking",
        "label": "userInfo",
        "offset": 0,
        "slot": "4",
        "type": "t_mapping(t_uint256,t_mapping(t_address,t_struct(UserInfo)15089_storage))"
      },
      {
        "astId": 15123,
        "contract": "apps/avai/src/contracts/Partner/Storm.sol:StormSingleStaking",
        "label": "totalAllocPoint",
        "offset": 0,
        "slot": "5",
        "type": "t_uint256"
      },
      {
        "astId": 15126,
        "contract": "apps/avai/src/contracts/Partner/Storm.sol:StormSingleStaking",
        "label": "startTimestamp",
        "offset": 0,
        "slot": "6",
        "type": "t_uint256"
      },
      {
        "astId": 15129,
        "contract": "apps/avai/src/contracts/Partner/Storm.sol:StormSingleStaking",
        "label": "endTimestamp",
        "offset": 0,
        "slot": "7",
        "type": "t_uint256"
      }
    ],
    "types": {
      "t_address": {
        "encoding": "inplace",
        "label": "address",
        "numberOfBytes": "20"
      },
      "t_array(t_struct(PoolInfo)15101_storage)dyn_storage": {
        "base": "t_struct(PoolInfo)15101_storage",
        "encoding": "dynamic_array",
        "label": "struct SingleStaking.PoolInfo[]",
        "numberOfBytes": "32"
      },
      "t_contract(IERC20)5519": {
        "encoding": "inplace",
        "label": "contract IERC20",
        "numberOfBytes": "20"
      },
      "t_mapping(t_address,t_struct(UserInfo)15089_storage)": {
        "encoding": "mapping",
        "key": "t_address",
        "label": "mapping(address => struct SingleStaking.UserInfo)",
        "numberOfBytes": "32",
        "value": "t_struct(UserInfo)15089_storage"
      },
      "t_mapping(t_uint256,t_mapping(t_address,t_struct(UserInfo)15089_storage))": {
        "encoding": "mapping",
        "key": "t_uint256",
        "label": "mapping(uint256 => mapping(address => struct SingleStaking.UserInfo))",
        "numberOfBytes": "32",
        "value": "t_mapping(t_address,t_struct(UserInfo)15089_storage)"
      },
      "t_struct(PoolInfo)15101_storage": {
        "encoding": "inplace",
        "label": "struct SingleStaking.PoolInfo",
        "members": [
          {
            "astId": 15092,
            "contract": "apps/avai/src/contracts/Partner/Storm.sol:StormSingleStaking",
            "label": "token",
            "offset": 0,
            "slot": "0",
            "type": "t_contract(IERC20)5519"
          },
          {
            "astId": 15094,
            "contract": "apps/avai/src/contracts/Partner/Storm.sol:StormSingleStaking",
            "label": "allocPoint",
            "offset": 0,
            "slot": "1",
            "type": "t_uint256"
          },
          {
            "astId": 15096,
            "contract": "apps/avai/src/contracts/Partner/Storm.sol:StormSingleStaking",
            "label": "lastRewardTimestamp",
            "offset": 0,
            "slot": "2",
            "type": "t_uint256"
          },
          {
            "astId": 15098,
            "contract": "apps/avai/src/contracts/Partner/Storm.sol:StormSingleStaking",
            "label": "accRewardsPerShare",
            "offset": 0,
            "slot": "3",
            "type": "t_uint256"
          },
          {
            "astId": 15100,
            "contract": "apps/avai/src/contracts/Partner/Storm.sol:StormSingleStaking",
            "label": "totalStaked",
            "offset": 0,
            "slot": "4",
            "type": "t_uint256"
          }
        ],
        "numberOfBytes": "160"
      },
      "t_struct(UserInfo)15089_storage": {
        "encoding": "inplace",
        "label": "struct SingleStaking.UserInfo",
        "members": [
          {
            "astId": 15086,
            "contract": "apps/avai/src/contracts/Partner/Storm.sol:StormSingleStaking",
            "label": "amount",
            "offset": 0,
            "slot": "0",
            "type": "t_uint256"
          },
          {
            "astId": 15088,
            "contract": "apps/avai/src/contracts/Partner/Storm.sol:StormSingleStaking",
            "label": "rewardTokenDebt",
            "offset": 0,
            "slot": "1",
            "type": "t_uint256"
          }
        ],
        "numberOfBytes": "64"
      },
      "t_uint256": {
        "encoding": "inplace",
        "label": "uint256",
        "numberOfBytes": "32"
      }
    }
  }
}