{
  "address": "0x002c0f8729b3e8b2B7876089D41556411664823b",
  "abi": [
    {
      "inputs": [
        {
          "internalType": "address",
          "name": "priceSource_",
          "type": "address"
        },
        {
          "internalType": "string",
          "name": "name_",
          "type": "string"
        },
        {
          "internalType": "string",
          "name": "symbol_",
          "type": "string"
        },
        {
          "internalType": "address",
          "name": "token",
          "type": "address"
        },
        {
          "internalType": "address",
          "name": "stablecoin",
          "type": "address"
        }
      ],
      "stateMutability": "nonpayable",
      "type": "constructor"
    },
    {
      "anonymous": false,
      "inputs": [
        {
          "indexed": true,
          "internalType": "address",
          "name": "owner",
          "type": "address"
        },
        {
          "indexed": true,
          "internalType": "address",
          "name": "approved",
          "type": "address"
        },
        {
          "indexed": true,
          "internalType": "uint256",
          "name": "tokenId",
          "type": "uint256"
        }
      ],
      "name": "Approval",
      "type": "event"
    },
    {
      "anonymous": false,
      "inputs": [
        {
          "indexed": true,
          "internalType": "address",
          "name": "owner",
          "type": "address"
        },
        {
          "indexed": true,
          "internalType": "address",
          "name": "operator",
          "type": "address"
        },
        {
          "indexed": false,
          "internalType": "bool",
          "name": "approved",
          "type": "bool"
        }
      ],
      "name": "ApprovalForAll",
      "type": "event"
    },
    {
      "anonymous": false,
      "inputs": [
        {
          "indexed": false,
          "internalType": "uint256",
          "name": "vaultID",
          "type": "uint256"
        },
        {
          "indexed": false,
          "internalType": "uint256",
          "name": "amount",
          "type": "uint256"
        }
      ],
      "name": "BorrowToken",
      "type": "event"
    },
    {
      "anonymous": false,
      "inputs": [
        {
          "indexed": false,
          "internalType": "uint256",
          "name": "vaultID",
          "type": "uint256"
        },
        {
          "indexed": false,
          "internalType": "address",
          "name": "creator",
          "type": "address"
        }
      ],
      "name": "CreateVault",
      "type": "event"
    },
    {
      "anonymous": false,
      "inputs": [
        {
          "indexed": false,
          "internalType": "uint256",
          "name": "vaultID",
          "type": "uint256"
        },
        {
          "indexed": false,
          "internalType": "uint256",
          "name": "amount",
          "type": "uint256"
        }
      ],
      "name": "DepositCollateral",
      "type": "event"
    },
    {
      "anonymous": false,
      "inputs": [
        {
          "indexed": false,
          "internalType": "uint256",
          "name": "vaultID",
          "type": "uint256"
        }
      ],
      "name": "DestroyVault",
      "type": "event"
    },
    {
      "anonymous": false,
      "inputs": [
        {
          "indexed": false,
          "internalType": "uint256",
          "name": "vaultID",
          "type": "uint256"
        },
        {
          "indexed": false,
          "internalType": "address",
          "name": "owner",
          "type": "address"
        },
        {
          "indexed": false,
          "internalType": "address",
          "name": "buyer",
          "type": "address"
        },
        {
          "indexed": false,
          "internalType": "uint256",
          "name": "amountPaid",
          "type": "uint256"
        }
      ],
      "name": "LiquidateVault",
      "type": "event"
    },
    {
      "anonymous": false,
      "inputs": [
        {
          "indexed": false,
          "internalType": "uint256",
          "name": "vaultID",
          "type": "uint256"
        },
        {
          "indexed": false,
          "internalType": "uint256",
          "name": "amount",
          "type": "uint256"
        },
        {
          "indexed": false,
          "internalType": "uint256",
          "name": "closingFee",
          "type": "uint256"
        }
      ],
      "name": "PayBackToken",
      "type": "event"
    },
    {
      "anonymous": false,
      "inputs": [
        {
          "indexed": true,
          "internalType": "bytes32",
          "name": "role",
          "type": "bytes32"
        },
        {
          "indexed": true,
          "internalType": "bytes32",
          "name": "previousAdminRole",
          "type": "bytes32"
        },
        {
          "indexed": true,
          "internalType": "bytes32",
          "name": "newAdminRole",
          "type": "bytes32"
        }
      ],
      "name": "RoleAdminChanged",
      "type": "event"
    },
    {
      "anonymous": false,
      "inputs": [
        {
          "indexed": true,
          "internalType": "bytes32",
          "name": "role",
          "type": "bytes32"
        },
        {
          "indexed": true,
          "internalType": "address",
          "name": "account",
          "type": "address"
        },
        {
          "indexed": true,
          "internalType": "address",
          "name": "sender",
          "type": "address"
        }
      ],
      "name": "RoleGranted",
      "type": "event"
    },
    {
      "anonymous": false,
      "inputs": [
        {
          "indexed": true,
          "internalType": "bytes32",
          "name": "role",
          "type": "bytes32"
        },
        {
          "indexed": true,
          "internalType": "address",
          "name": "account",
          "type": "address"
        },
        {
          "indexed": true,
          "internalType": "address",
          "name": "sender",
          "type": "address"
        }
      ],
      "name": "RoleRevoked",
      "type": "event"
    },
    {
      "anonymous": false,
      "inputs": [
        {
          "indexed": true,
          "internalType": "address",
          "name": "from",
          "type": "address"
        },
        {
          "indexed": true,
          "internalType": "address",
          "name": "to",
          "type": "address"
        },
        {
          "indexed": true,
          "internalType": "uint256",
          "name": "tokenId",
          "type": "uint256"
        }
      ],
      "name": "Transfer",
      "type": "event"
    },
    {
      "anonymous": false,
      "inputs": [
        {
          "indexed": false,
          "internalType": "uint256",
          "name": "vaultID",
          "type": "uint256"
        },
        {
          "indexed": false,
          "internalType": "address",
          "name": "from",
          "type": "address"
        },
        {
          "indexed": false,
          "internalType": "address",
          "name": "to",
          "type": "address"
        }
      ],
      "name": "TransferVault",
      "type": "event"
    },
    {
      "anonymous": false,
      "inputs": [
        {
          "indexed": false,
          "internalType": "uint256",
          "name": "vaultID",
          "type": "uint256"
        },
        {
          "indexed": false,
          "internalType": "uint256",
          "name": "amount",
          "type": "uint256"
        }
      ],
      "name": "WithdrawCollateral",
      "type": "event"
    },
    {
      "inputs": [],
      "name": "DEFAULT_ADMIN_ROLE",
      "outputs": [
        {
          "internalType": "bytes32",
          "name": "",
          "type": "bytes32"
        }
      ],
      "stateMutability": "view",
      "type": "function"
    },
    {
      "inputs": [],
      "name": "TREASURY_ROLE",
      "outputs": [
        {
          "internalType": "bytes32",
          "name": "",
          "type": "bytes32"
        }
      ],
      "stateMutability": "view",
      "type": "function"
    },
    {
      "inputs": [
        {
          "internalType": "address",
          "name": "to",
          "type": "address"
        },
        {
          "internalType": "uint256",
          "name": "tokenId",
          "type": "uint256"
        }
      ],
      "name": "approve",
      "outputs": [],
      "stateMutability": "nonpayable",
      "type": "function"
    },
    {
      "inputs": [
        {
          "internalType": "address",
          "name": "owner",
          "type": "address"
        }
      ],
      "name": "balanceOf",
      "outputs": [
        {
          "internalType": "uint256",
          "name": "",
          "type": "uint256"
        }
      ],
      "stateMutability": "view",
      "type": "function"
    },
    {
      "inputs": [
        {
          "internalType": "uint256",
          "name": "vaultID",
          "type": "uint256"
        },
        {
          "internalType": "uint256",
          "name": "amount",
          "type": "uint256"
        }
      ],
      "name": "borrowToken",
      "outputs": [],
      "stateMutability": "nonpayable",
      "type": "function"
    },
    {
      "inputs": [
        {
          "internalType": "uint256",
          "name": "vaultID",
          "type": "uint256"
        }
      ],
      "name": "buyRiskyVault",
      "outputs": [],
      "stateMutability": "nonpayable",
      "type": "function"
    },
    {
      "inputs": [
        {
          "internalType": "address",
          "name": "to",
          "type": "address"
        }
      ],
      "name": "changeTreasury",
      "outputs": [],
      "stateMutability": "nonpayable",
      "type": "function"
    },
    {
      "inputs": [],
      "name": "closingFee",
      "outputs": [
        {
          "internalType": "uint256",
          "name": "",
          "type": "uint256"
        }
      ],
      "stateMutability": "view",
      "type": "function"
    },
    {
      "inputs": [],
      "name": "createVault",
      "outputs": [],
      "stateMutability": "nonpayable",
      "type": "function"
    },
    {
      "inputs": [],
      "name": "debtCeiling",
      "outputs": [
        {
          "internalType": "uint256",
          "name": "",
          "type": "uint256"
        }
      ],
      "stateMutability": "view",
      "type": "function"
    },
    {
      "inputs": [
        {
          "internalType": "uint256",
          "name": "vaultID",
          "type": "uint256"
        }
      ],
      "name": "depositCollateral",
      "outputs": [],
      "stateMutability": "payable",
      "type": "function"
    },
    {
      "inputs": [
        {
          "internalType": "uint256",
          "name": "vaultID",
          "type": "uint256"
        }
      ],
      "name": "destroyVault",
      "outputs": [],
      "stateMutability": "nonpayable",
      "type": "function"
    },
    {
      "inputs": [
        {
          "internalType": "uint256",
          "name": "tokenId",
          "type": "uint256"
        }
      ],
      "name": "getApproved",
      "outputs": [
        {
          "internalType": "address",
          "name": "",
          "type": "address"
        }
      ],
      "stateMutability": "view",
      "type": "function"
    },
    {
      "inputs": [],
      "name": "getPricePeg",
      "outputs": [
        {
          "internalType": "uint256",
          "name": "",
          "type": "uint256"
        }
      ],
      "stateMutability": "view",
      "type": "function"
    },
    {
      "inputs": [],
      "name": "getPriceSource",
      "outputs": [
        {
          "internalType": "uint256",
          "name": "",
          "type": "uint256"
        }
      ],
      "stateMutability": "view",
      "type": "function"
    },
    {
      "inputs": [
        {
          "internalType": "bytes32",
          "name": "role",
          "type": "bytes32"
        }
      ],
      "name": "getRoleAdmin",
      "outputs": [
        {
          "internalType": "bytes32",
          "name": "",
          "type": "bytes32"
        }
      ],
      "stateMutability": "view",
      "type": "function"
    },
    {
      "inputs": [
        {
          "internalType": "bytes32",
          "name": "role",
          "type": "bytes32"
        },
        {
          "internalType": "address",
          "name": "account",
          "type": "address"
        }
      ],
      "name": "grantRole",
      "outputs": [],
      "stateMutability": "nonpayable",
      "type": "function"
    },
    {
      "inputs": [
        {
          "internalType": "bytes32",
          "name": "role",
          "type": "bytes32"
        },
        {
          "internalType": "address",
          "name": "account",
          "type": "address"
        }
      ],
      "name": "hasRole",
      "outputs": [
        {
          "internalType": "bool",
          "name": "",
          "type": "bool"
        }
      ],
      "stateMutability": "view",
      "type": "function"
    },
    {
      "inputs": [
        {
          "internalType": "address",
          "name": "owner",
          "type": "address"
        },
        {
          "internalType": "address",
          "name": "operator",
          "type": "address"
        }
      ],
      "name": "isApprovedForAll",
      "outputs": [
        {
          "internalType": "bool",
          "name": "",
          "type": "bool"
        }
      ],
      "stateMutability": "view",
      "type": "function"
    },
    {
      "inputs": [],
      "name": "name",
      "outputs": [
        {
          "internalType": "string",
          "name": "",
          "type": "string"
        }
      ],
      "stateMutability": "view",
      "type": "function"
    },
    {
      "inputs": [],
      "name": "openingFee",
      "outputs": [
        {
          "internalType": "uint256",
          "name": "",
          "type": "uint256"
        }
      ],
      "stateMutability": "view",
      "type": "function"
    },
    {
      "inputs": [
        {
          "internalType": "uint256",
          "name": "tokenId",
          "type": "uint256"
        }
      ],
      "name": "ownerOf",
      "outputs": [
        {
          "internalType": "address",
          "name": "",
          "type": "address"
        }
      ],
      "stateMutability": "view",
      "type": "function"
    },
    {
      "inputs": [
        {
          "internalType": "uint256",
          "name": "vaultID",
          "type": "uint256"
        },
        {
          "internalType": "uint256",
          "name": "amount",
          "type": "uint256"
        }
      ],
      "name": "payBackToken",
      "outputs": [],
      "stateMutability": "nonpayable",
      "type": "function"
    },
    {
      "inputs": [],
      "name": "priceSource",
      "outputs": [
        {
          "internalType": "contract AggregatorV3Interface",
          "name": "",
          "type": "address"
        }
      ],
      "stateMutability": "view",
      "type": "function"
    },
    {
      "inputs": [
        {
          "internalType": "bytes32",
          "name": "role",
          "type": "bytes32"
        },
        {
          "internalType": "address",
          "name": "account",
          "type": "address"
        }
      ],
      "name": "renounceRole",
      "outputs": [],
      "stateMutability": "nonpayable",
      "type": "function"
    },
    {
      "inputs": [
        {
          "internalType": "bytes32",
          "name": "role",
          "type": "bytes32"
        },
        {
          "internalType": "address",
          "name": "account",
          "type": "address"
        }
      ],
      "name": "revokeRole",
      "outputs": [],
      "stateMutability": "nonpayable",
      "type": "function"
    },
    {
      "inputs": [
        {
          "internalType": "address",
          "name": "from",
          "type": "address"
        },
        {
          "internalType": "address",
          "name": "to",
          "type": "address"
        },
        {
          "internalType": "uint256",
          "name": "tokenId",
          "type": "uint256"
        }
      ],
      "name": "safeTransferFrom",
      "outputs": [],
      "stateMutability": "nonpayable",
      "type": "function"
    },
    {
      "inputs": [
        {
          "internalType": "address",
          "name": "from",
          "type": "address"
        },
        {
          "internalType": "address",
          "name": "to",
          "type": "address"
        },
        {
          "internalType": "uint256",
          "name": "tokenId",
          "type": "uint256"
        },
        {
          "internalType": "bytes",
          "name": "_data",
          "type": "bytes"
        }
      ],
      "name": "safeTransferFrom",
      "outputs": [],
      "stateMutability": "nonpayable",
      "type": "function"
    },
    {
      "inputs": [
        {
          "internalType": "address",
          "name": "operator",
          "type": "address"
        },
        {
          "internalType": "bool",
          "name": "approved",
          "type": "bool"
        }
      ],
      "name": "setApprovalForAll",
      "outputs": [],
      "stateMutability": "nonpayable",
      "type": "function"
    },
    {
      "inputs": [
        {
          "internalType": "uint256",
          "name": "amount",
          "type": "uint256"
        }
      ],
      "name": "setClosingFee",
      "outputs": [],
      "stateMutability": "nonpayable",
      "type": "function"
    },
    {
      "inputs": [
        {
          "internalType": "uint256",
          "name": "debtCeiling_",
          "type": "uint256"
        }
      ],
      "name": "setDebtCeiling",
      "outputs": [],
      "stateMutability": "nonpayable",
      "type": "function"
    },
    {
      "inputs": [
        {
          "internalType": "uint256",
          "name": "amount",
          "type": "uint256"
        }
      ],
      "name": "setOpeningFee",
      "outputs": [],
      "stateMutability": "nonpayable",
      "type": "function"
    },
    {
      "inputs": [
        {
          "internalType": "address",
          "name": "priceSource_",
          "type": "address"
        }
      ],
      "name": "setPriceSource",
      "outputs": [],
      "stateMutability": "nonpayable",
      "type": "function"
    },
    {
      "inputs": [
        {
          "internalType": "address",
          "name": "stabilityPool_",
          "type": "address"
        }
      ],
      "name": "setStabilityPool",
      "outputs": [],
      "stateMutability": "nonpayable",
      "type": "function"
    },
    {
      "inputs": [
        {
          "internalType": "uint256",
          "name": "tokenPeg_",
          "type": "uint256"
        }
      ],
      "name": "setTokenPeg",
      "outputs": [],
      "stateMutability": "nonpayable",
      "type": "function"
    },
    {
      "inputs": [
        {
          "internalType": "uint256",
          "name": "treasury_",
          "type": "uint256"
        }
      ],
      "name": "setTreasury",
      "outputs": [],
      "stateMutability": "nonpayable",
      "type": "function"
    },
    {
      "inputs": [],
      "name": "stabilityPool",
      "outputs": [
        {
          "internalType": "address",
          "name": "",
          "type": "address"
        }
      ],
      "stateMutability": "view",
      "type": "function"
    },
    {
      "inputs": [
        {
          "internalType": "bytes4",
          "name": "interfaceId",
          "type": "bytes4"
        }
      ],
      "name": "supportsInterface",
      "outputs": [
        {
          "internalType": "bool",
          "name": "",
          "type": "bool"
        }
      ],
      "stateMutability": "view",
      "type": "function"
    },
    {
      "inputs": [],
      "name": "symbol",
      "outputs": [
        {
          "internalType": "string",
          "name": "",
          "type": "string"
        }
      ],
      "stateMutability": "view",
      "type": "function"
    },
    {
      "inputs": [],
      "name": "token",
      "outputs": [
        {
          "internalType": "contract IERC20",
          "name": "",
          "type": "address"
        }
      ],
      "stateMutability": "view",
      "type": "function"
    },
    {
      "inputs": [
        {
          "internalType": "uint256",
          "name": "index",
          "type": "uint256"
        }
      ],
      "name": "tokenByIndex",
      "outputs": [
        {
          "internalType": "uint256",
          "name": "",
          "type": "uint256"
        }
      ],
      "stateMutability": "view",
      "type": "function"
    },
    {
      "inputs": [
        {
          "internalType": "address",
          "name": "owner",
          "type": "address"
        },
        {
          "internalType": "uint256",
          "name": "index",
          "type": "uint256"
        }
      ],
      "name": "tokenOfOwnerByIndex",
      "outputs": [
        {
          "internalType": "uint256",
          "name": "",
          "type": "uint256"
        }
      ],
      "stateMutability": "view",
      "type": "function"
    },
    {
      "inputs": [],
      "name": "tokenPeg",
      "outputs": [
        {
          "internalType": "uint256",
          "name": "",
          "type": "uint256"
        }
      ],
      "stateMutability": "view",
      "type": "function"
    },
    {
      "inputs": [
        {
          "internalType": "uint256",
          "name": "tokenId",
          "type": "uint256"
        }
      ],
      "name": "tokenURI",
      "outputs": [
        {
          "internalType": "string",
          "name": "",
          "type": "string"
        }
      ],
      "stateMutability": "view",
      "type": "function"
    },
    {
      "inputs": [],
      "name": "totalDebt",
      "outputs": [
        {
          "internalType": "uint256",
          "name": "",
          "type": "uint256"
        }
      ],
      "stateMutability": "view",
      "type": "function"
    },
    {
      "inputs": [],
      "name": "totalSupply",
      "outputs": [
        {
          "internalType": "uint256",
          "name": "",
          "type": "uint256"
        }
      ],
      "stateMutability": "view",
      "type": "function"
    },
    {
      "inputs": [
        {
          "internalType": "address",
          "name": "from",
          "type": "address"
        },
        {
          "internalType": "address",
          "name": "to",
          "type": "address"
        },
        {
          "internalType": "uint256",
          "name": "tokenId",
          "type": "uint256"
        }
      ],
      "name": "transferFrom",
      "outputs": [],
      "stateMutability": "nonpayable",
      "type": "function"
    },
    {
      "inputs": [
        {
          "internalType": "uint256",
          "name": "vaultID",
          "type": "uint256"
        },
        {
          "internalType": "address",
          "name": "to",
          "type": "address"
        }
      ],
      "name": "transferVault",
      "outputs": [],
      "stateMutability": "nonpayable",
      "type": "function"
    },
    {
      "inputs": [],
      "name": "treasury",
      "outputs": [
        {
          "internalType": "uint256",
          "name": "",
          "type": "uint256"
        }
      ],
      "stateMutability": "view",
      "type": "function"
    },
    {
      "inputs": [
        {
          "internalType": "uint256",
          "name": "",
          "type": "uint256"
        }
      ],
      "name": "vaultCollateral",
      "outputs": [
        {
          "internalType": "uint256",
          "name": "",
          "type": "uint256"
        }
      ],
      "stateMutability": "view",
      "type": "function"
    },
    {
      "inputs": [
        {
          "internalType": "uint256",
          "name": "",
          "type": "uint256"
        }
      ],
      "name": "vaultDebt",
      "outputs": [
        {
          "internalType": "uint256",
          "name": "",
          "type": "uint256"
        }
      ],
      "stateMutability": "view",
      "type": "function"
    },
    {
      "inputs": [
        {
          "internalType": "uint256",
          "name": "",
          "type": "uint256"
        }
      ],
      "name": "vaultExistence",
      "outputs": [
        {
          "internalType": "bool",
          "name": "",
          "type": "bool"
        }
      ],
      "stateMutability": "view",
      "type": "function"
    },
    {
      "inputs": [
        {
          "internalType": "uint256",
          "name": "vaultID",
          "type": "uint256"
        },
        {
          "internalType": "uint256",
          "name": "amount",
          "type": "uint256"
        }
      ],
      "name": "withdrawCollateral",
      "outputs": [],
      "stateMutability": "nonpayable",
      "type": "function"
    }
  ],
  "transactionHash": "0x6d9889a55b17fc51b9a087db8dfc18ddf2e6521b79db13cdbcccb96eb0021bf1",
  "args": [
    "0x5498BB86BC934c8D34FDA08E81D444153d0D06aD",
    "avAVAX",
    "avAVAX",
    "0xd00ae08403B9bbb9124bB305C09058E32C39A48c",
    "0x967a170B9E842ce75A86BA5E7370dAE66f04F871"
  ],
  "solcInputHash": "bbf55bca2e9fdbcecf88e04ac58a2855",
  "bytecode": "0x60c06040523480156200001157600080fd5b50604051620049d1380380620049d18339810160408190526200003491620003ee565b60968585858585838381600090805190602001906200005592919062000278565b5080516200006b90600190602084019062000278565b50506001600a55506001600160a01b0385166200009857634e487b7160e01b600052600160045260246000fd5b85620000b457634e487b7160e01b600052600160045260246000fd5b678ac7230489e80000600e556032600f55600060108190556305f5e100601155601480546001600160a01b0319908116909155601380546001600160a01b039890981697909116969096179095556001600160601b0319606092831b8116608052911b1660a0525050600d919091556200012f908262000170565b6200014a600080516020620049b18339815191523362000170565b62000165600080516020620049b18339815191528062000180565b5050505050620004e1565b6200017c8282620001d4565b5050565b6000828152600b6020526040902060010154819060405184907fbd79b86ffe0ab8e8776151514217cd7cacd52c909f66475c3af44e129f0b00ff90600090a46000918252600b602052604090912060010155565b6000828152600b602090815260408083206001600160a01b038516845290915290205460ff166200017c576000828152600b602090815260408083206001600160a01b03851684529091529020805460ff19166001179055620002343390565b6001600160a01b0316816001600160a01b0316837f2f8788117e7eff1d82e926ec794901d17c78024a50270940304540a733656f0d60405160405180910390a45050565b82805462000286906200048e565b90600052602060002090601f016020900481019282620002aa5760008555620002f5565b82601f10620002c557805160ff1916838001178555620002f5565b82800160010185558215620002f5579182015b82811115620002f5578251825591602001919060010190620002d8565b506200030392915062000307565b5090565b5b8082111562000303576000815560010162000308565b80516001600160a01b03811681146200033657600080fd5b919050565b600082601f8301126200034c578081fd5b81516001600160401b0380821115620003695762000369620004cb565b604051601f8301601f19908116603f01168101908282118183101715620003945762000394620004cb565b81604052838152602092508683858801011115620003b0578485fd5b8491505b83821015620003d35785820183015181830184015290820190620003b4565b83821115620003e457848385830101525b9695505050505050565b600080600080600060a0868803121562000406578081fd5b62000411866200031e565b60208701519095506001600160401b03808211156200042e578283fd5b6200043c89838a016200033b565b9550604088015191508082111562000452578283fd5b5062000461888289016200033b565b93505062000472606087016200031e565b915062000482608087016200031e565b90509295509295909350565b600181811c90821680620004a357607f821691505b60208210811415620004c557634e487b7160e01b600052602260045260246000fd5b50919050565b634e487b7160e01b600052604160045260246000fd5b60805160601c60a05160601c6144886200052960003960008181610f4f01528181611b2201528181611ceb0152818161282301526129d401526000610a0a01526144886000f3fe60806040526004361061034a5760003560e01c8063767a7b05116101bb578063b88d4fde116100f7578063d310f49b11610095578063e1c84ea41161006f578063e1c84ea414610999578063e985e9c5146109af578063fc0c546a146109f8578063fc7b9c1814610a2c57600080fd5b8063d310f49b1461091f578063d4a9b2c51461094c578063d547741f1461097957600080fd5b8063c87b56dd116100d1578063c87b56dd146108a7578063cdfedd63146108c7578063ce77f243146108dd578063d11a57ec146108fd57600080fd5b8063b88d4fde14610854578063bad4a01f14610874578063bda531071461088757600080fd5b806398d721e011610164578063a22cb4651161013e578063a22cb465146107c4578063a525323d146107e4578063b14f2a3914610814578063b1511cc91461083457600080fd5b806398d721e01461077a5780639fc30f1c1461079a578063a217fddf146107af57600080fd5b8063863759941161019557806386375994146106ff57806391d148541461071f57806395d89b411461076557600080fd5b8063767a7b051461069f57806385af3c16146106bf57806385e290a3146106df57600080fd5b80632f2ff15d1161028a5780634f6ccce7116102335780636352211e1161020d5780636352211e1461062957806370a08231146106495780637139c92914610669578063728bbbb51461068957600080fd5b80634f6ccce7146105de5780635d12928b146105fe57806361d027b31461061357600080fd5b80633db99177116102645780633db991771461057e5780633e61facd1461059e57806342842e0e146105be57600080fd5b80632f2ff15d1461051e5780632f745c591461053e57806336568abe1461055e57600080fd5b806308ec5927116102f75780631c883e7b116102d15780631c883e7b1461049857806320531bc9146104ae57806323b872dd146104ce578063248a9ca3146104ee57600080fd5b806308ec592714610443578063095ea7b31461046357806318160ddd1461048357600080fd5b8063048de38111610328578063048de381146103de57806306fdde0314610401578063081812fc1461042357600080fd5b806301e49d0a1461034f57806301ffc9a714610371578063048c661d146103a6575b600080fd5b34801561035b57600080fd5b5061036f61036a3660046140a6565b610a42565b005b34801561037d57600080fd5b5061039161038c3660046140e0565b610ab6565b60405190151581526020015b60405180910390f35b3480156103b257600080fd5b506014546103c6906001600160a01b031681565b6040516001600160a01b03909116815260200161039d565b3480156103ea57600080fd5b506103f3610ac7565b60405190815260200161039d565b34801561040d57600080fd5b50610416610b5b565b60405161039d91906142b8565b34801561042f57600080fd5b506103c661043e3660046140a6565b610bed565b34801561044f57600080fd5b5061036f61045e366004614130565b610c82565b34801561046f57600080fd5b5061036f61047e36600461407d565b610ff9565b34801561048f57600080fd5b506008546103f3565b3480156104a457600080fd5b506103f3600f5481565b3480156104ba57600080fd5b506013546103c6906001600160a01b031681565b3480156104da57600080fd5b5061036f6104e9366004613f33565b61112b565b3480156104fa57600080fd5b506103f36105093660046140a6565b6000908152600b602052604090206001015490565b34801561052a57600080fd5b5061036f6105393660046140be565b6111b2565b34801561054a57600080fd5b506103f361055936600461407d565b6111d8565b34801561056a57600080fd5b5061036f6105793660046140be565b611280565b34801561058a57600080fd5b5061036f6105993660046140a6565b61130c565b3480156105aa57600080fd5b5061036f6105b93660046140be565b61132b565b3480156105ca57600080fd5b5061036f6105d9366004613f33565b611446565b3480156105ea57600080fd5b506103f36105f93660046140a6565b611461565b34801561060a57600080fd5b5061036f611513565b34801561061f57600080fd5b506103f360155481565b34801561063557600080fd5b506103c66106443660046140a6565b6115a1565b34801561065557600080fd5b506103f3610664366004613ee7565b61162c565b34801561067557600080fd5b5061036f6106843660046140a6565b6116c6565b34801561069557600080fd5b506103f360105481565b3480156106ab57600080fd5b5061036f6106ba366004614130565b61173a565b3480156106cb57600080fd5b5061036f6106da366004614130565b6119fc565b3480156106eb57600080fd5b5061036f6106fa3660046140a6565b611d8e565b34801561070b57600080fd5b5061036f61071a3660046140a6565b611fb9565b34801561072b57600080fd5b5061039161073a3660046140be565b6000918252600b602090815260408084206001600160a01b0393909316845291905290205460ff1690565b34801561077157600080fd5b50610416611fd8565b34801561078657600080fd5b5061036f610795366004613ee7565b611fe7565b3480156107a657600080fd5b506011546103f3565b3480156107bb57600080fd5b506103f3600081565b3480156107d057600080fd5b5061036f6107df366004614043565b61209f565b3480156107f057600080fd5b506103916107ff3660046140a6565b60166020526000908152604090205460ff1681565b34801561082057600080fd5b5061036f61082f366004613ee7565b612164565b34801561084057600080fd5b5061036f61084f3660046140a6565b6121ad565b34801561086057600080fd5b5061036f61086f366004613f6e565b612244565b61036f6108823660046140a6565b6122d2565b34801561089357600080fd5b5061036f6108a2366004613ee7565b61241e565b3480156108b357600080fd5b506104166108c23660046140a6565b6124d6565b3480156108d357600080fd5b506103f360115481565b3480156108e957600080fd5b5061036f6108f83660046140a6565b6125cc565b34801561090957600080fd5b506103f360008051602061443383398151915281565b34801561092b57600080fd5b506103f361093a3660046140a6565b60186020526000908152604090205481565b34801561095857600080fd5b506103f36109673660046140a6565b60176020526000908152604090205481565b34801561098557600080fd5b5061036f6109943660046140be565b612ab2565b3480156109a557600080fd5b506103f3600e5481565b3480156109bb57600080fd5b506103916109ca366004613f01565b6001600160a01b03918216600090815260056020908152604080832093909416825291909152205460ff1690565b348015610a0457600080fd5b506103c67f000000000000000000000000000000000000000000000000000000000000000081565b348015610a3857600080fd5b506103f360125481565b600080516020614433833981519152610a5b8133612ad8565b60008211610ab05760405162461bcd60e51b815260206004820152601260248201527f5065672063616e6e6f74206265207a65726f000000000000000000000000000060448201526064015b60405180910390fd5b50601155565b6000610ac182612b58565b92915050565b600080601360009054906101000a90046001600160a01b03166001600160a01b031663feaf968c6040518163ffffffff1660e01b815260040160a06040518083038186803b158015610b1857600080fd5b505afa158015610b2c573d6000803e3d6000fd5b505050506040513d601f19601f82011682018060405250810190610b509190614151565b509195945050505050565b606060008054610b6a90614370565b80601f0160208091040260200160405190810160405280929190818152602001828054610b9690614370565b8015610be35780601f10610bb857610100808354040283529160200191610be3565b820191906000526020600020905b815481529060010190602001808311610bc657829003601f168201915b5050505050905090565b6000818152600260205260408120546001600160a01b0316610c665760405162461bcd60e51b815260206004820152602c60248201527f4552433732313a20617070726f76656420717565727920666f72206e6f6e657860448201526b34b9ba32b73a103a37b5b2b760a11b6064820152608401610aa7565b506000908152600460205260409020546001600160a01b031690565b600082815260166020526040902054829060ff16610cd95760405162461bcd60e51b815260206004820152601460248201527315985d5b1d08191bd95cc81b9bdd08195e1a5cdd60621b6044820152606401610aa7565b33610ce3826115a1565b6001600160a01b031614610d395760405162461bcd60e51b815260206004820152601960248201527f5661756c74206973206e6f74206f776e656420627920796f75000000000000006044820152606401610aa7565b6002600a541415610d8c5760405162461bcd60e51b815260206004820152601f60248201527f5265656e7472616e637947756172643a207265656e7472616e742063616c6c006044820152606401610aa7565b6002600a5581610dde5760405162461bcd60e51b815260206004820152601b60248201527f4d75737420626f72726f77206e6f6e2d7a65726f20616d6f756e7400000000006044820152606401610aa7565b600e5482601254610def91906142cb565b1115610e3d5760405162461bcd60e51b815260206004820152601e60248201527f43616e6e6f74206d696e74206f7665722064656274206365696c696e672e00006044820152606401610aa7565b600083815260186020526040812054610e579084906142cb565b6000858152601860205260409020549091508111610e8557634e487b7160e01b600052600160045260246000fd5b600084815260176020526040902054610e9e9082612b96565b610f105760405162461bcd60e51b815260206004820152603a60248201527f426f72726f7720776f756c6420707574207661756c742062656c6f77206d696e60448201527f696d756d20636f6c6c61746572616c2070657263656e746167650000000000006064820152608401610aa7565b610f1a8484612bc5565b6040517f40c10f19000000000000000000000000000000000000000000000000000000008152336004820152602481018490527f00000000000000000000000000000000000000000000000000000000000000006001600160a01b0316906340c10f1990604401600060405180830381600087803b158015610f9b57600080fd5b505af1158015610faf573d6000803e3d6000fd5b505060408051878152602081018790527f3e08df88d8e28f37df9bf227d3142ac506a364403445661a60891a49ed6792ca93500190505b60405180910390a150506001600a555050565b6000611004826115a1565b9050806001600160a01b0316836001600160a01b0316141561108e5760405162461bcd60e51b815260206004820152602160248201527f4552433732313a20617070726f76616c20746f2063757272656e74206f776e6560448201527f72000000000000000000000000000000000000000000000000000000000000006064820152608401610aa7565b336001600160a01b03821614806110aa57506110aa81336109ca565b61111c5760405162461bcd60e51b815260206004820152603860248201527f4552433732313a20617070726f76652063616c6c6572206973206e6f74206f7760448201527f6e6572206e6f7220617070726f76656420666f7220616c6c00000000000000006064820152608401610aa7565b6111268383612cd7565b505050565b6111353382612d45565b6111a75760405162461bcd60e51b815260206004820152603160248201527f4552433732313a207472616e736665722063616c6c6572206973206e6f74206f60448201527f776e6572206e6f7220617070726f7665640000000000000000000000000000006064820152608401610aa7565b611126838383612e3c565b6000828152600b60205260409020600101546111ce8133612ad8565b6111268383612e84565b60006111e38361162c565b82106112575760405162461bcd60e51b815260206004820152602b60248201527f455243373231456e756d657261626c653a206f776e657220696e646578206f7560448201527f74206f6620626f756e64730000000000000000000000000000000000000000006064820152608401610aa7565b506001600160a01b03919091166000908152600660209081526040808320938352929052205490565b6001600160a01b03811633146112fe5760405162461bcd60e51b815260206004820152602f60248201527f416363657373436f6e74726f6c3a2063616e206f6e6c792072656e6f756e636560448201527f20726f6c657320666f722073656c6600000000000000000000000000000000006064820152608401610aa7565b6113088282612f26565b5050565b6000805160206144338339815191526113258133612ad8565b50600f55565b600082815260166020526040902054829060ff166113825760405162461bcd60e51b815260206004820152601460248201527315985d5b1d08191bd95cc81b9bdd08195e1a5cdd60621b6044820152606401610aa7565b3361138c826115a1565b6001600160a01b0316146113e25760405162461bcd60e51b815260206004820152601960248201527f5661756c74206973206e6f74206f776e656420627920796f75000000000000006044820152606401610aa7565b6113eb83612fa9565b6113f58284613050565b604080518481523360208201526001600160a01b038416918101919091527fa8159d062909288cfe1bc71a9cb71a800664f2658fc2588d52676a844f1b0f13906060015b60405180910390a1505050565b61112683838360405180602001604052806000815250612244565b600061146c60085490565b82106114e05760405162461bcd60e51b815260206004820152602c60248201527f455243373231456e756d657261626c653a20676c6f62616c20696e646578206f60448201527f7574206f6620626f756e647300000000000000000000000000000000000000006064820152608401610aa7565b6008828154811061150157634e487b7160e01b600052603260045260246000fd5b90600052602060002001549050919050565b611521600c80546001019055565b600061152c600c5490565b60008181526016602052604090819020805460ff19166001179055519091507f8b6c1d05c678fa59695e26465a85918ce0fc63a88f74af53d1daef8f0a9c78049061158c90839033909182526001600160a01b0316602082015260400190565b60405180910390a161159e3382613050565b50565b6000818152600260205260408120546001600160a01b031680610ac15760405162461bcd60e51b815260206004820152602960248201527f4552433732313a206f776e657220717565727920666f72206e6f6e657869737460448201527f656e7420746f6b656e00000000000000000000000000000000000000000000006064820152608401610aa7565b60006001600160a01b0382166116aa5760405162461bcd60e51b815260206004820152602a60248201527f4552433732313a2062616c616e636520717565727920666f7220746865207a6560448201527f726f2061646472657373000000000000000000000000000000000000000000006064820152608401610aa7565b506001600160a01b031660009081526003602052604090205490565b6000805160206144338339815191526116df8133612ad8565b60008281526016602052604090205460ff166117345760405162461bcd60e51b815260206004820152601460248201527315985d5b1d08191bd95cc81b9bdd08195e1a5cdd60621b6044820152606401610aa7565b50601555565b600082815260166020526040902054829060ff166117915760405162461bcd60e51b815260206004820152601460248201527315985d5b1d08191bd95cc81b9bdd08195e1a5cdd60621b6044820152606401610aa7565b3361179b826115a1565b6001600160a01b0316146117f15760405162461bcd60e51b815260206004820152601960248201527f5661756c74206973206e6f74206f776e656420627920796f75000000000000006044820152606401610aa7565b6002600a5414156118445760405162461bcd60e51b815260206004820152601f60248201527f5265656e7472616e637947756172643a207265656e7472616e742063616c6c006044820152606401610aa7565b6002600a556000838152601760205260409020548211156118cd5760405162461bcd60e51b815260206004820152602560248201527f5661756c7420646f6573206e6f74206861766520656e6f75676820636f6c6c6160448201527f746572616c0000000000000000000000000000000000000000000000000000006064820152608401610aa7565b6000838152601760205260408120546118e7908490614316565b6000858152601860205260409020549091501561198a57600084815260186020526040902054611918908290612b96565b61198a5760405162461bcd60e51b815260206004820152603e60248201527f5769746864726177616c20776f756c6420707574207661756c742062656c6f7760448201527f206d696e696d756d20636f6c6c61746572616c2070657263656e7461676500006064820152608401610aa7565b60008481526017602052604080822083905551339185156108fc02918691818181858888f193505050501580156119c5573d6000803e3d6000fd5b5060408051858152602081018590527f6c0ea3bea9dd66afa8f9d39d6eb93d833466190330813b42835efc650dca4cb99101610fe6565b600082815260166020526040902054829060ff16611a535760405162461bcd60e51b815260206004820152601460248201527315985d5b1d08191bd95cc81b9bdd08195e1a5cdd60621b6044820152606401610aa7565b33611a5d826115a1565b6001600160a01b031614611ab35760405162461bcd60e51b815260206004820152601960248201527f5661756c74206973206e6f74206f776e656420627920796f75000000000000006044820152606401610aa7565b6002600a541415611b065760405162461bcd60e51b815260206004820152601f60248201527f5265656e7472616e637947756172643a207265656e7472616e742063616c6c006044820152606401610aa7565b6002600a556040516370a0823160e01b815233600482015282907f00000000000000000000000000000000000000000000000000000000000000006001600160a01b0316906370a082319060240160206040518083038186803b158015611b6c57600080fd5b505afa158015611b80573d6000803e3d6000fd5b505050506040513d601f19601f82011682018060405250810190611ba49190614118565b1015611bf25760405162461bcd60e51b815260206004820152601560248201527f546f6b656e2062616c616e636520746f6f206c6f7700000000000000000000006044820152606401610aa7565b600083815260186020526040902054821115611c765760405162461bcd60e51b815260206004820152602760248201527f5661756c742064656274206c657373207468616e20616d6f756e7420746f207060448201527f6179206261636b000000000000000000000000000000000000000000000000006064820152608401610aa7565b6000611c80610ac7565b611c8c906127106142f7565b601154600f54611c9c90866142f7565b611ca691906142f7565b611cb091906142e3565b9050611cbc848461319e565b611cc6848261331e565b611ccf81613401565b604051632770a7eb60e21b8152336004820152602481018490527f00000000000000000000000000000000000000000000000000000000000000006001600160a01b031690639dc29fac90604401600060405180830381600087803b158015611d3757600080fd5b505af1158015611d4b573d6000803e3d6000fd5b505060408051878152602081018790529081018490527f31f96762af4051f367185773cc2f55bfb112a6c114b3407ded1f321a9eb199ac92506060019050610fe6565b600081815260166020526040902054819060ff16611de55760405162461bcd60e51b815260206004820152601460248201527315985d5b1d08191bd95cc81b9bdd08195e1a5cdd60621b6044820152606401610aa7565b33611def826115a1565b6001600160a01b031614611e455760405162461bcd60e51b815260206004820152601960248201527f5661756c74206973206e6f74206f776e656420627920796f75000000000000006044820152606401610aa7565b6002600a541415611e985760405162461bcd60e51b815260206004820152601f60248201527f5265656e7472616e637947756172643a207265656e7472616e742063616c6c006044820152606401610aa7565b6002600a5560008281526018602052604090205415611ef95760405162461bcd60e51b815260206004820152601960248201527f5661756c74206173206f75747374616e64696e672064656274000000000000006044820152606401610aa7565b60008281526017602052604090205415611f4957600082815260176020526040808220549051339282156108fc02929190818181858888f19350505050158015611f47573d6000803e3d6000fd5b505b611f5282612fa9565b6000828152601660209081526040808320805460ff1916905560178252808320839055601882528083209290925590518381527f4fe08624ee65b341c38ab9693d216b909d4ddee1bc8d3fe0fea14026c361b465910160405180910390a150506001600a55565b600080516020614433833981519152611fd28133612ad8565b50601055565b606060018054610b6a90614370565b6000805160206144338339815191526120008133612ad8565b6001600160a01b03821661207c5760405162461bcd60e51b815260206004820152602560248201527f53746162696c69747920706f6f6c2063616e6e6f74206265207a65726f20616460448201527f64726573730000000000000000000000000000000000000000000000000000006064820152608401610aa7565b50601480546001600160a01b0319166001600160a01b0392909216919091179055565b6001600160a01b0382163314156120f85760405162461bcd60e51b815260206004820152601960248201527f4552433732313a20617070726f766520746f2063616c6c6572000000000000006044820152606401610aa7565b3360008181526005602090815260408083206001600160a01b03871680855290835292819020805460ff191686151590811790915590519081529192917f17307eab39ab6107e8899845ad3d59bd9653f200f220920489ca2b5937696c31910160405180910390a35050565b60008051602061443383398151915261217d8133612ad8565b61219560008051602061443383398151915283613465565b61130860008051602061443383398151915233612ab2565b6000805160206144338339815191526121c68133612ad8565b81600e54111561223e5760405162461bcd60e51b815260206004820152603c60248201527f7365744365696c696e673a204d757374206265206f7665722074686520616d6f60448201527f756e74206f662063757272656e742064656274206365696c696e672e000000006064820152608401610aa7565b50600e55565b61224e3383612d45565b6122c05760405162461bcd60e51b815260206004820152603160248201527f4552433732313a207472616e736665722063616c6c6572206973206e6f74206f60448201527f776e6572206e6f7220617070726f7665640000000000000000000000000000006064820152608401610aa7565b6122cc8484848461346f565b50505050565b600081815260166020526040902054819060ff166123295760405162461bcd60e51b815260206004820152601460248201527315985d5b1d08191bd95cc81b9bdd08195e1a5cdd60621b6044820152606401610aa7565b33612333826115a1565b6001600160a01b0316146123895760405162461bcd60e51b815260206004820152601960248201527f5661756c74206973206e6f74206f776e656420627920796f75000000000000006044820152606401610aa7565b6000828152601760205260408120546123a39034906142cb565b6000848152601760205260409020549091508110156123d257634e487b7160e01b600052600160045260246000fd5b60008381526017602052604090819020829055517f52c4e7127ec34e8fc95f09ce2d06b4f00acca12ccbcdfb246ef67ee6aefe068d906114399085903490918252602082015260400190565b6000805160206144338339815191526124378133612ad8565b6001600160a01b0382166124b35760405162461bcd60e51b815260206004820152602360248201527f507269636520736f757263652063616e6e6f74206265207a65726f206164647260448201527f65737300000000000000000000000000000000000000000000000000000000006064820152608401610aa7565b50601380546001600160a01b0319166001600160a01b0392909216919091179055565b6000818152600260205260409020546060906001600160a01b03166125635760405162461bcd60e51b815260206004820152602f60248201527f4552433732314d657461646174613a2055524920717565727920666f72206e6f60448201527f6e6578697374656e7420746f6b656e00000000000000000000000000000000006064820152608401610aa7565b600061257a60408051602081019091526000815290565b9050600081511161259a57604051806020016040528060008152506125c5565b806125a4846134f8565b6040516020016125b59291906141cc565b6040516020818303038152906040525b9392505050565b6014546001600160a01b031615806125ee57506014546001600160a01b031633145b6126605760405162461bcd60e51b815260206004820152602160248201527f6275795269736b795661756c742064697361626c656420666f72207075626c6960448201527f63000000000000000000000000000000000000000000000000000000000000006064820152608401610aa7565b6002600a5414156126b35760405162461bcd60e51b815260206004820152601f60248201527f5265656e7472616e637947756172643a207265656e7472616e742063616c6c006044820152606401610aa7565b6002600a5560008181526016602052604090205460ff1661270d5760405162461bcd60e51b815260206004820152601460248201527315985d5b1d08191bd95cc81b9bdd08195e1a5cdd60621b6044820152606401610aa7565b6000818152601760209081526040808320546018909252822054829161273291613612565b9092509050600061274382846142e3565b9050600d5481106127bc5760405162461bcd60e51b815260206004820152603060248201527f5661756c74206973206e6f742062656c6f77206d696e696d756d20636f6c6c6160448201527f746572616c2070657263656e74616765000000000000000000000000000000006064820152608401610aa7565b6000600d54846127cc91906142e3565b905060006127d960115490565b6127e390836142e3565b60008781526018602052604081205491925090612801908390614316565b6040516370a0823160e01b815233600482015290915081906001600160a01b037f000000000000000000000000000000000000000000000000000000000000000016906370a082319060240160206040518083038186803b15801561286557600080fd5b505afa158015612879573d6000803e3d6000fd5b505050506040513d601f19601f8201168201806040525081019061289d9190614118565b10156129115760405162461bcd60e51b815260206004820152603160248201527f546f6b656e2062616c616e636520746f6f206c6f7720746f20706179206f666660448201527f206f75747374616e64696e6720646562740000000000000000000000000000006064820152608401610aa7565b600061291c886115a1565b6000898152601860205260408120859055909150612938610ac7565b612944906127106142f7565b601154600f5461295490866142f7565b61295e91906142f7565b61296891906142e3565b905080601760008b8152602001908152602001600020600082825461298d9190614316565b9091555050601554600090815260176020526040812080548392906129b39084906142cb565b9091555050604051632770a7eb60e21b8152336004820152602481018490527f00000000000000000000000000000000000000000000000000000000000000006001600160a01b031690639dc29fac90604401600060405180830381600087803b158015612a2057600080fd5b505af1158015612a34573d6000803e3d6000fd5b50505050612a41836136f4565b612a4a89612fa9565b612a54338a613050565b604080518a81526001600160a01b038416602082015233818301526060810185905290517f71dbdb4d6f04677a5667f6a1712cd33dadcc29f7d2d0672f2d2bf0df331cc28b9181900360800190a150506001600a5550505050505050565b6000828152600b6020526040902060010154612ace8133612ad8565b6111268383612f26565b6000828152600b602090815260408083206001600160a01b038516845290915290205460ff1661130857612b16816001600160a01b0316601461375d565b612b2183602061375d565b604051602001612b329291906141fb565b60408051601f198184030181529082905262461bcd60e51b8252610aa7916004016142b8565b60006001600160e01b031982167f7965db0b000000000000000000000000000000000000000000000000000000001480610ac15750610ac182613968565b6000806000612ba58585613612565b90925090506000612bb682846142e3565b600d5411159695505050505050565b600060125482612bd591906142cb565b9050601254811015612bf757634e487b7160e01b600052600160045260246000fd5b600e54811115612c6f5760405162461bcd60e51b815260206004820152602960248201527f43616e6e6f74206578636565642064656274206365696c696e6720666f72207460448201527f686973207661756c7400000000000000000000000000000000000000000000006064820152608401610aa7565b600083815260186020526040812054612c8890846142cb565b600085815260186020526040902054909150811015612cb757634e487b7160e01b600052600160045260246000fd5b612cc0836139a6565b600093845260186020526040909320929092555050565b600081815260046020526040902080546001600160a01b0319166001600160a01b0384169081179091558190612d0c826115a1565b6001600160a01b03167f8c5be1e5ebec7d5bd14f71427d1e84f3dd0314c0f7b2291e5b200ac8c7c3b92560405160405180910390a45050565b6000818152600260205260408120546001600160a01b0316612dbe5760405162461bcd60e51b815260206004820152602c60248201527f4552433732313a206f70657261746f7220717565727920666f72206e6f6e657860448201526b34b9ba32b73a103a37b5b2b760a11b6064820152608401610aa7565b6000612dc9836115a1565b9050806001600160a01b0316846001600160a01b03161480612e045750836001600160a01b0316612df984610bed565b6001600160a01b0316145b80612e3457506001600160a01b0380821660009081526005602090815260408083209388168352929052205460ff165b949350505050565b60405162461bcd60e51b815260206004820152601260248201527f7472616e736665723a2064697361626c656400000000000000000000000000006044820152606401610aa7565b6000828152600b602090815260408083206001600160a01b038516845290915290205460ff16611308576000828152600b602090815260408083206001600160a01b03851684529091529020805460ff19166001179055612ee23390565b6001600160a01b0316816001600160a01b0316837f2f8788117e7eff1d82e926ec794901d17c78024a50270940304540a733656f0d60405160405180910390a45050565b6000828152600b602090815260408083206001600160a01b038516845290915290205460ff1615611308576000828152600b602090815260408083206001600160a01b0385168085529252808320805460ff1916905551339285917ff6391f5c32d9c69d2a47ea670b442974b53935d1edc7fd64eb21e047a839171b9190a45050565b6000612fb4826115a1565b9050612fc281600084613a36565b612fcd600083612cd7565b6001600160a01b0381166000908152600360205260408120805460019290612ff6908490614316565b909155505060008281526002602052604080822080546001600160a01b0319169055518391906001600160a01b038416907fddf252ad1be2c89b69c2b068fc378daa952ba7f163c4a11628f55a4df523b3ef908390a45050565b6001600160a01b0382166130a65760405162461bcd60e51b815260206004820181905260248201527f4552433732313a206d696e7420746f20746865207a65726f20616464726573736044820152606401610aa7565b6000818152600260205260409020546001600160a01b03161561310b5760405162461bcd60e51b815260206004820152601c60248201527f4552433732313a20746f6b656e20616c7265616479206d696e746564000000006044820152606401610aa7565b61311760008383613a36565b6001600160a01b03821660009081526003602052604081208054600192906131409084906142cb565b909155505060008181526002602052604080822080546001600160a01b0319166001600160a01b03861690811790915590518392907fddf252ad1be2c89b69c2b068fc378daa952ba7f163c4a11628f55a4df523b3ef908290a45050565b8060125410156132165760405162461bcd60e51b815260206004820152602860248201527f43616e6e6f742067657420726964206f66206d6f72652064656274207468616e60448201527f206578697374732e0000000000000000000000000000000000000000000000006064820152608401610aa7565b60008281526018602052604090205481111561329a5760405162461bcd60e51b815260206004820152602960248201527f43616e6e6f742067657420726964206f66206d6f72652064656274207468616e60448201527f20757365722068617300000000000000000000000000000000000000000000006064820152608401610aa7565b6000816012546132aa9190614316565b90506012548111156132cc57634e487b7160e01b600052600160045260246000fd5b6000838152601860205260408120546132e6908490614316565b60008581526018602052604090205490915081111561331557634e487b7160e01b600052600160045260246000fd5b612cc0836136f4565b6000828152601760205260409020548111156133a25760405162461bcd60e51b815260206004820152603060248201527f43616e6e6f742072656d6f7665206d6f7265207468616e20746865206465706f60448201527f736974656420636f6c6c61746572616c000000000000000000000000000000006064820152608401610aa7565b6000828152601760205260408120546133bc908390614316565b6000848152601760205260409020549091508111156133eb57634e487b7160e01b600052600160045260246000fd5b6000928352601760205260409092209190915550565b60155460009081526017602052604081205461341e9083906142cb565b60155460009081526017602052604090205490915081101561345057634e487b7160e01b600052600160045260246000fd5b60155460009081526017602052604090205550565b6113088282612e84565b61347a848484612e3c565b61348684848484613a41565b6122cc5760405162461bcd60e51b815260206004820152603260248201527f4552433732313a207472616e7366657220746f206e6f6e20455243373231526560448201527f63656976657220696d706c656d656e74657200000000000000000000000000006064820152608401610aa7565b60608161351c5750506040805180820190915260018152600360fc1b602082015290565b8160005b81156135465780613530816143ab565b915061353f9050600a836142e3565b9150613520565b60008167ffffffffffffffff81111561356f57634e487b7160e01b600052604160045260246000fd5b6040519080825280601f01601f191660200182016040528015613599576020820181803683370190505b5090505b8415612e34576135ae600183614316565b91506135bb600a866143c6565b6135c69060306142cb565b60f81b8183815181106135e957634e487b7160e01b600052603260045260246000fd5b60200101906001600160f81b031916908160001a90535061360b600a866142e3565b945061359d565b60008061361d610ac7565b61363757634e487b7160e01b600052600160045260246000fd5b60115461365457634e487b7160e01b600052600160045260246000fd5b600061365e610ac7565b61366890866142f7565b90508481101561368857634e487b7160e01b600052600160045260246000fd5b600061369360115490565b61369d90866142f7565b9050848110156136bd57634e487b7160e01b600052600160045260246000fd5b60006136ca8360646142f7565b90508281116136e957634e487b7160e01b600052600160045260246000fd5b969095509350505050565b6012548111156137465760405162461bcd60e51b815260206004820152601860248201527f446562742063616e206e6f7420676f2062656c6f7720302e00000000000000006044820152606401610aa7565b6000816012546137569190614316565b6012555050565b6060600061376c8360026142f7565b6137779060026142cb565b67ffffffffffffffff81111561379d57634e487b7160e01b600052604160045260246000fd5b6040519080825280601f01601f1916602001820160405280156137c7576020820181803683370190505b509050600360fc1b816000815181106137f057634e487b7160e01b600052603260045260246000fd5b60200101906001600160f81b031916908160001a9053507f78000000000000000000000000000000000000000000000000000000000000008160018151811061384957634e487b7160e01b600052603260045260246000fd5b60200101906001600160f81b031916908160001a905350600061386d8460026142f7565b6138789060016142cb565b90505b6001811115613919577f303132333435363738396162636465660000000000000000000000000000000085600f16601081106138c757634e487b7160e01b600052603260045260246000fd5b1a60f81b8282815181106138eb57634e487b7160e01b600052603260045260246000fd5b60200101906001600160f81b031916908160001a90535060049490941c9361391281614359565b905061387b565b5083156125c55760405162461bcd60e51b815260206004820181905260248201527f537472696e67733a20686578206c656e67746820696e73756666696369656e746044820152606401610aa7565b60006001600160e01b031982167f780e9d63000000000000000000000000000000000000000000000000000000001480610ac15750610ac182613ba4565b6000816012546139b691906142cb565b9050600e54811115613a305760405162461bcd60e51b815260206004820152602260248201527f446562742063616e206e6f7420676f2061626f76652064656274206365696c6960448201527f6e670000000000000000000000000000000000000000000000000000000000006064820152608401610aa7565b60125550565b611126838383613c3f565b60006001600160a01b0384163b15613b9957604051630a85bd0160e11b81526001600160a01b0385169063150b7a0290613a8590339089908890889060040161427c565b602060405180830381600087803b158015613a9f57600080fd5b505af1925050508015613acf575060408051601f3d908101601f19168201909252613acc918101906140fc565b60015b613b7f573d808015613afd576040519150601f19603f3d011682016040523d82523d6000602084013e613b02565b606091505b508051613b775760405162461bcd60e51b815260206004820152603260248201527f4552433732313a207472616e7366657220746f206e6f6e20455243373231526560448201527f63656976657220696d706c656d656e74657200000000000000000000000000006064820152608401610aa7565b805181602001fd5b6001600160e01b031916630a85bd0160e11b149050612e34565b506001949350505050565b60006001600160e01b031982167f80ac58cd000000000000000000000000000000000000000000000000000000001480613c0757506001600160e01b031982167f5b5e139f00000000000000000000000000000000000000000000000000000000145b80610ac157507f01ffc9a7000000000000000000000000000000000000000000000000000000006001600160e01b0319831614610ac1565b6001600160a01b038316613c9a57613c9581600880546000838152600960205260408120829055600182018355919091527ff3f7a9fe364faab93b216da50a3214154f22a0a2b415b23a84c8169e8b636ee30155565b613cbd565b816001600160a01b0316836001600160a01b031614613cbd57613cbd8382613cf7565b6001600160a01b038216613cd45761112681613d94565b826001600160a01b0316826001600160a01b031614611126576111268282613e6d565b60006001613d048461162c565b613d0e9190614316565b600083815260076020526040902054909150808214613d61576001600160a01b03841660009081526006602090815260408083208584528252808320548484528184208190558352600790915290208190555b5060009182526007602090815260408084208490556001600160a01b039094168352600681528383209183525290812055565b600854600090613da690600190614316565b60008381526009602052604081205460088054939450909284908110613ddc57634e487b7160e01b600052603260045260246000fd5b906000526020600020015490508060088381548110613e0b57634e487b7160e01b600052603260045260246000fd5b6000918252602080832090910192909255828152600990915260408082208490558582528120556008805480613e5157634e487b7160e01b600052603160045260246000fd5b6001900381819060005260206000200160009055905550505050565b6000613e788361162c565b6001600160a01b039093166000908152600660209081526040808320868452825280832085905593825260079052919091209190915550565b80356001600160a01b0381168114613ec857600080fd5b919050565b805169ffffffffffffffffffff81168114613ec857600080fd5b600060208284031215613ef8578081fd5b6125c582613eb1565b60008060408385031215613f13578081fd5b613f1c83613eb1565b9150613f2a60208401613eb1565b90509250929050565b600080600060608486031215613f47578081fd5b613f5084613eb1565b9250613f5e60208501613eb1565b9150604084013590509250925092565b60008060008060808587031215613f83578081fd5b613f8c85613eb1565b9350613f9a60208601613eb1565b925060408501359150606085013567ffffffffffffffff80821115613fbd578283fd5b818701915087601f830112613fd0578283fd5b813581811115613fe257613fe2614406565b604051601f8201601f19908116603f0116810190838211818310171561400a5761400a614406565b816040528281528a6020848701011115614022578586fd5b82602086016020830137918201602001949094529598949750929550505050565b60008060408385031215614055578182fd5b61405e83613eb1565b915060208301358015158114614072578182fd5b809150509250929050565b6000806040838503121561408f578182fd5b61409883613eb1565b946020939093013593505050565b6000602082840312156140b7578081fd5b5035919050565b600080604083850312156140d0578182fd5b82359150613f2a60208401613eb1565b6000602082840312156140f1578081fd5b81356125c58161441c565b60006020828403121561410d578081fd5b81516125c58161441c565b600060208284031215614129578081fd5b5051919050565b60008060408385031215614142578182fd5b50508035926020909101359150565b600080600080600060a08688031215614168578283fd5b61417186613ecd565b945060208601519350604086015192506060860151915061419460808701613ecd565b90509295509295909350565b600081518084526141b881602086016020860161432d565b601f01601f19169290920160200192915050565b600083516141de81846020880161432d565b8351908301906141f281836020880161432d565b01949350505050565b7f416363657373436f6e74726f6c3a206163636f756e742000000000000000000081526000835161423381601785016020880161432d565b7f206973206d697373696e6720726f6c6520000000000000000000000000000000601791840191820152835161427081602884016020880161432d565b01602801949350505050565b60006001600160a01b038087168352808616602084015250836040830152608060608301526142ae60808301846141a0565b9695505050505050565b6020815260006125c560208301846141a0565b600082198211156142de576142de6143da565b500190565b6000826142f2576142f26143f0565b500490565b6000816000190483118215151615614311576143116143da565b500290565b600082821015614328576143286143da565b500390565b60005b83811015614348578181015183820152602001614330565b838111156122cc5750506000910152565b600081614368576143686143da565b506000190190565b600181811c9082168061438457607f821691505b602082108114156143a557634e487b7160e01b600052602260045260246000fd5b50919050565b60006000198214156143bf576143bf6143da565b5060010190565b6000826143d5576143d56143f0565b500690565b634e487b7160e01b600052601160045260246000fd5b634e487b7160e01b600052601260045260246000fd5b634e487b7160e01b600052604160045260246000fd5b6001600160e01b03198116811461159e57600080fdfee1dcbdb91df27212a29bc27177c840cf2f819ecf2187432e1fac86c2dd5dfca9a2646970667358221220354bfdd1160175f4f0c3c88c1d9b73a1542a0f5e3d338965110d91869780930564736f6c63430008040033e1dcbdb91df27212a29bc27177c840cf2f819ecf2187432e1fac86c2dd5dfca9",
  "devdoc": {
    "kind": "dev",
    "methods": {
      "approve(address,uint256)": {
        "details": "See {IERC721-approve}."
      },
      "balanceOf(address)": {
        "details": "See {IERC721-balanceOf}."
      },
      "borrowToken(uint256,uint256)": {
        "details": "Lets a vault owner borrow stablecoin against collateral Requirements: - Vault type must exist - Vault must exist - Must borrow greater than 0 stablecoin - Must be below the debt ceiling when borrowing - Must maintain minimum collateral percentage Emits BorrowToken event"
      },
      "buyRiskyVault(uint256)": {
        "details": "allows liquidator to buy out a risky vault Requirements: - Vault id must exist - Vault must be below minimum collateral percentage - User must have enough of the token to pay vault off Emits BuyRiskyVault event"
      },
      "changeTreasury(address)": {
        "details": "changes the Treasury. Can only every be one treasury!"
      },
      "createVault()": {
        "details": "Create a vault for interacting with the platform Emits a CreateVault event"
      },
      "depositCollateral(uint256)": {
        "details": "ALlows vault owner to deposit ERC20 collateral Emits Deposit Collateral event"
      },
      "destroyVault(uint256)": {
        "details": "User can destroy a vault. Will return all collateral upon destroying. Emits a DestroyVault event Requirements: - User must have paid off all outstanding debt first"
      },
      "getApproved(uint256)": {
        "details": "See {IERC721-getApproved}."
      },
      "getPricePeg()": {
        "details": "returns the base token's address"
      },
      "getPriceSource()": {
        "details": "returns the base token's address"
      },
      "getRoleAdmin(bytes32)": {
        "details": "Returns the admin role that controls `role`. See {grantRole} and {revokeRole}. To change a role's admin, use {_setRoleAdmin}."
      },
      "grantRole(bytes32,address)": {
        "details": "Grants `role` to `account`. If `account` had not been already granted `role`, emits a {RoleGranted} event. Requirements: - the caller must have ``role``'s admin role."
      },
      "hasRole(bytes32,address)": {
        "details": "Returns `true` if `account` has been granted `role`."
      },
      "isApprovedForAll(address,address)": {
        "details": "See {IERC721-isApprovedForAll}."
      },
      "name()": {
        "details": "See {IERC721Metadata-name}."
      },
      "ownerOf(uint256)": {
        "details": "See {IERC721-ownerOf}."
      },
      "payBackToken(uint256,uint256)": {
        "details": "Pay back the stablecoin to reduce debt Requirements: - User must have enough balance to repay `amount` - Cannot pay back more than the required debt. `amount` must be less than debt."
      },
      "renounceRole(bytes32,address)": {
        "details": "Revokes `role` from the calling account. Roles are often managed via {grantRole} and {revokeRole}: this function's purpose is to provide a mechanism for accounts to lose their privileges if they are compromised (such as when a trusted device is misplaced). If the calling account had been granted `role`, emits a {RoleRevoked} event. Requirements: - the caller must be `account`."
      },
      "revokeRole(bytes32,address)": {
        "details": "Revokes `role` from `account`. If `account` had been granted `role`, emits a {RoleRevoked} event. Requirements: - the caller must have ``role``'s admin role."
      },
      "safeTransferFrom(address,address,uint256)": {
        "details": "See {IERC721-safeTransferFrom}."
      },
      "safeTransferFrom(address,address,uint256,bytes)": {
        "details": "See {IERC721-safeTransferFrom}."
      },
      "setApprovalForAll(address,bool)": {
        "details": "See {IERC721-setApprovalForAll}."
      },
      "setClosingFee(uint256)": {
        "details": "Set the closing fee for this vault"
      },
      "setDebtCeiling(uint256)": {
        "details": "Set the debt ceiling for this vault"
      },
      "setOpeningFee(uint256)": {
        "details": "Set the opening fee for this vault"
      },
      "setPriceSource(address)": {
        "details": "Set the price source for this vault"
      },
      "setStabilityPool(address)": {
        "details": "Set the stability pool (liquidator) for this vault"
      },
      "setTokenPeg(uint256)": {
        "details": "Set the price source for this vault"
      },
      "setTreasury(uint256)": {
        "details": "Set the treasury vault for this vault"
      },
      "symbol()": {
        "details": "See {IERC721Metadata-symbol}."
      },
      "tokenByIndex(uint256)": {
        "details": "See {IERC721Enumerable-tokenByIndex}."
      },
      "tokenOfOwnerByIndex(address,uint256)": {
        "details": "See {IERC721Enumerable-tokenOfOwnerByIndex}."
      },
      "tokenURI(uint256)": {
        "details": "See {IERC721Metadata-tokenURI}."
      },
      "totalSupply()": {
        "details": "See {IERC721Enumerable-totalSupply}."
      },
      "transferFrom(address,address,uint256)": {
        "details": "See {IERC721-transferFrom}."
      },
      "transferVault(uint256,address)": {
        "details": "user can transfer vault to another address Emits TransferVault event"
      },
      "withdrawCollateral(uint256,uint256)": {
        "details": "allows vault owner to withdraw the collateral Requirements: - Withdraw amount is less than or equal to current collateral - Collateral withdrawal amount does not put debt below minimum collateral Emits WithdrawCollateral event"
      }
    },
    "version": 1
  },
  "userdoc": {
    "kind": "user",
    "methods": {},
    "version": 1
  },
  "storageLayout": {
    "storage": [
      {
        "astId": 1437,
        "contract": "apps/avai/src/contracts/Vaults/AvaxVault.sol:AVAXVault",
        "label": "_name",
        "offset": 0,
        "slot": "0",
        "type": "t_string_storage"
      },
      {
        "astId": 1439,
        "contract": "apps/avai/src/contracts/Vaults/AvaxVault.sol:AVAXVault",
        "label": "_symbol",
        "offset": 0,
        "slot": "1",
        "type": "t_string_storage"
      },
      {
        "astId": 1443,
        "contract": "apps/avai/src/contracts/Vaults/AvaxVault.sol:AVAXVault",
        "label": "_owners",
        "offset": 0,
        "slot": "2",
        "type": "t_mapping(t_uint256,t_address)"
      },
      {
        "astId": 1447,
        "contract": "apps/avai/src/contracts/Vaults/AvaxVault.sol:AVAXVault",
        "label": "_balances",
        "offset": 0,
        "slot": "3",
        "type": "t_mapping(t_address,t_uint256)"
      },
      {
        "astId": 1451,
        "contract": "apps/avai/src/contracts/Vaults/AvaxVault.sol:AVAXVault",
        "label": "_tokenApprovals",
        "offset": 0,
        "slot": "4",
        "type": "t_mapping(t_uint256,t_address)"
      },
      {
        "astId": 1457,
        "contract": "apps/avai/src/contracts/Vaults/AvaxVault.sol:AVAXVault",
        "label": "_operatorApprovals",
        "offset": 0,
        "slot": "5",
        "type": "t_mapping(t_address,t_mapping(t_address,t_bool))"
      },
      {
        "astId": 2378,
        "contract": "apps/avai/src/contracts/Vaults/AvaxVault.sol:AVAXVault",
        "label": "_ownedTokens",
        "offset": 0,
        "slot": "6",
        "type": "t_mapping(t_address,t_mapping(t_uint256,t_uint256))"
      },
      {
        "astId": 2382,
        "contract": "apps/avai/src/contracts/Vaults/AvaxVault.sol:AVAXVault",
        "label": "_ownedTokensIndex",
        "offset": 0,
        "slot": "7",
        "type": "t_mapping(t_uint256,t_uint256)"
      },
      {
        "astId": 2385,
        "contract": "apps/avai/src/contracts/Vaults/AvaxVault.sol:AVAXVault",
        "label": "_allTokens",
        "offset": 0,
        "slot": "8",
        "type": "t_array(t_uint256)dyn_storage"
      },
      {
        "astId": 2389,
        "contract": "apps/avai/src/contracts/Vaults/AvaxVault.sol:AVAXVault",
        "label": "_allTokensIndex",
        "offset": 0,
        "slot": "9",
        "type": "t_mapping(t_uint256,t_uint256)"
      },
      {
        "astId": 528,
        "contract": "apps/avai/src/contracts/Vaults/AvaxVault.sol:AVAXVault",
        "label": "_status",
        "offset": 0,
        "slot": "10",
        "type": "t_uint256"
      },
      {
        "astId": 108,
        "contract": "apps/avai/src/contracts/Vaults/AvaxVault.sol:AVAXVault",
        "label": "_roles",
        "offset": 0,
        "slot": "11",
        "type": "t_mapping(t_bytes32,t_struct(RoleData)103_storage)"
      },
      {
        "astId": 3743,
        "contract": "apps/avai/src/contracts/Vaults/AvaxVault.sol:AVAXVault",
        "label": "_userVaultIds",
        "offset": 0,
        "slot": "12",
        "type": "t_struct(Counter)3082_storage"
      },
      {
        "astId": 3746,
        "contract": "apps/avai/src/contracts/Vaults/AvaxVault.sol:AVAXVault",
        "label": "_minimumCollateralPercentage",
        "offset": 0,
        "slot": "13",
        "type": "t_uint256"
      },
      {
        "astId": 3748,
        "contract": "apps/avai/src/contracts/Vaults/AvaxVault.sol:AVAXVault",
        "label": "debtCeiling",
        "offset": 0,
        "slot": "14",
        "type": "t_uint256"
      },
      {
        "astId": 3750,
        "contract": "apps/avai/src/contracts/Vaults/AvaxVault.sol:AVAXVault",
        "label": "closingFee",
        "offset": 0,
        "slot": "15",
        "type": "t_uint256"
      },
      {
        "astId": 3752,
        "contract": "apps/avai/src/contracts/Vaults/AvaxVault.sol:AVAXVault",
        "label": "openingFee",
        "offset": 0,
        "slot": "16",
        "type": "t_uint256"
      },
      {
        "astId": 3754,
        "contract": "apps/avai/src/contracts/Vaults/AvaxVault.sol:AVAXVault",
        "label": "tokenPeg",
        "offset": 0,
        "slot": "17",
        "type": "t_uint256"
      },
      {
        "astId": 3756,
        "contract": "apps/avai/src/contracts/Vaults/AvaxVault.sol:AVAXVault",
        "label": "totalDebt",
        "offset": 0,
        "slot": "18",
        "type": "t_uint256"
      },
      {
        "astId": 3759,
        "contract": "apps/avai/src/contracts/Vaults/AvaxVault.sol:AVAXVault",
        "label": "priceSource",
        "offset": 0,
        "slot": "19",
        "type": "t_contract(AggregatorV3Interface)45"
      },
      {
        "astId": 3767,
        "contract": "apps/avai/src/contracts/Vaults/AvaxVault.sol:AVAXVault",
        "label": "stabilityPool",
        "offset": 0,
        "slot": "20",
        "type": "t_address"
      },
      {
        "astId": 3769,
        "contract": "apps/avai/src/contracts/Vaults/AvaxVault.sol:AVAXVault",
        "label": "treasury",
        "offset": 0,
        "slot": "21",
        "type": "t_uint256"
      },
      {
        "astId": 3773,
        "contract": "apps/avai/src/contracts/Vaults/AvaxVault.sol:AVAXVault",
        "label": "vaultExistence",
        "offset": 0,
        "slot": "22",
        "type": "t_mapping(t_uint256,t_bool)"
      },
      {
        "astId": 3777,
        "contract": "apps/avai/src/contracts/Vaults/AvaxVault.sol:AVAXVault",
        "label": "vaultCollateral",
        "offset": 0,
        "slot": "23",
        "type": "t_mapping(t_uint256,t_uint256)"
      },
      {
        "astId": 3781,
        "contract": "apps/avai/src/contracts/Vaults/AvaxVault.sol:AVAXVault",
        "label": "vaultDebt",
        "offset": 0,
        "slot": "24",
        "type": "t_mapping(t_uint256,t_uint256)"
      }
    ],
    "types": {
      "t_address": {
        "encoding": "inplace",
        "label": "address",
        "numberOfBytes": "20"
      },
      "t_array(t_uint256)dyn_storage": {
        "base": "t_uint256",
        "encoding": "dynamic_array",
        "label": "uint256[]",
        "numberOfBytes": "32"
      },
      "t_bool": {
        "encoding": "inplace",
        "label": "bool",
        "numberOfBytes": "1"
      },
      "t_bytes32": {
        "encoding": "inplace",
        "label": "bytes32",
        "numberOfBytes": "32"
      },
      "t_contract(AggregatorV3Interface)45": {
        "encoding": "inplace",
        "label": "contract AggregatorV3Interface",
        "numberOfBytes": "20"
      },
      "t_mapping(t_address,t_bool)": {
        "encoding": "mapping",
        "key": "t_address",
        "label": "mapping(address => bool)",
        "numberOfBytes": "32",
        "value": "t_bool"
      },
      "t_mapping(t_address,t_mapping(t_address,t_bool))": {
        "encoding": "mapping",
        "key": "t_address",
        "label": "mapping(address => mapping(address => bool))",
        "numberOfBytes": "32",
        "value": "t_mapping(t_address,t_bool)"
      },
      "t_mapping(t_address,t_mapping(t_uint256,t_uint256))": {
        "encoding": "mapping",
        "key": "t_address",
        "label": "mapping(address => mapping(uint256 => uint256))",
        "numberOfBytes": "32",
        "value": "t_mapping(t_uint256,t_uint256)"
      },
      "t_mapping(t_address,t_uint256)": {
        "encoding": "mapping",
        "key": "t_address",
        "label": "mapping(address => uint256)",
        "numberOfBytes": "32",
        "value": "t_uint256"
      },
      "t_mapping(t_bytes32,t_struct(RoleData)103_storage)": {
        "encoding": "mapping",
        "key": "t_bytes32",
        "label": "mapping(bytes32 => struct AccessControl.RoleData)",
        "numberOfBytes": "32",
        "value": "t_struct(RoleData)103_storage"
      },
      "t_mapping(t_uint256,t_address)": {
        "encoding": "mapping",
        "key": "t_uint256",
        "label": "mapping(uint256 => address)",
        "numberOfBytes": "32",
        "value": "t_address"
      },
      "t_mapping(t_uint256,t_bool)": {
        "encoding": "mapping",
        "key": "t_uint256",
        "label": "mapping(uint256 => bool)",
        "numberOfBytes": "32",
        "value": "t_bool"
      },
      "t_mapping(t_uint256,t_uint256)": {
        "encoding": "mapping",
        "key": "t_uint256",
        "label": "mapping(uint256 => uint256)",
        "numberOfBytes": "32",
        "value": "t_uint256"
      },
      "t_string_storage": {
        "encoding": "bytes",
        "label": "string",
        "numberOfBytes": "32"
      },
      "t_struct(Counter)3082_storage": {
        "encoding": "inplace",
        "label": "struct Counters.Counter",
        "members": [
          {
            "astId": 3081,
            "contract": "apps/avai/src/contracts/Vaults/AvaxVault.sol:AVAXVault",
            "label": "_value",
            "offset": 0,
            "slot": "0",
            "type": "t_uint256"
          }
        ],
        "numberOfBytes": "32"
      },
      "t_struct(RoleData)103_storage": {
        "encoding": "inplace",
        "label": "struct AccessControl.RoleData",
        "members": [
          {
            "astId": 100,
            "contract": "apps/avai/src/contracts/Vaults/AvaxVault.sol:AVAXVault",
            "label": "members",
            "offset": 0,
            "slot": "0",
            "type": "t_mapping(t_address,t_bool)"
          },
          {
            "astId": 102,
            "contract": "apps/avai/src/contracts/Vaults/AvaxVault.sol:AVAXVault",
            "label": "adminRole",
            "offset": 0,
            "slot": "1",
            "type": "t_bytes32"
          }
        ],
        "numberOfBytes": "64"
      },
      "t_uint256": {
        "encoding": "inplace",
        "label": "uint256",
        "numberOfBytes": "32"
      }
    }
  }
}