{
  "address": "0x7f8F0822d0440eE7FfB6058fe42ba9DC98ea7be3",
  "abi": [
    {
      "anonymous": false,
      "inputs": [
        {
          "indexed": true,
          "internalType": "address",
          "name": "owner",
          "type": "address"
        },
        {
          "indexed": true,
          "internalType": "address",
          "name": "approved",
          "type": "address"
        },
        {
          "indexed": true,
          "internalType": "uint256",
          "name": "tokenId",
          "type": "uint256"
        }
      ],
      "name": "Approval",
      "type": "event"
    },
    {
      "anonymous": false,
      "inputs": [
        {
          "indexed": true,
          "internalType": "address",
          "name": "owner",
          "type": "address"
        },
        {
          "indexed": true,
          "internalType": "address",
          "name": "operator",
          "type": "address"
        },
        {
          "indexed": false,
          "internalType": "bool",
          "name": "approved",
          "type": "bool"
        }
      ],
      "name": "ApprovalForAll",
      "type": "event"
    },
    {
      "anonymous": false,
      "inputs": [
        {
          "indexed": false,
          "internalType": "bool",
          "name": "mintingPaused",
          "type": "bool"
        }
      ],
      "name": "BankPaused",
      "type": "event"
    },
    {
      "anonymous": false,
      "inputs": [
        {
          "indexed": false,
          "internalType": "uint256",
          "name": "vaultID",
          "type": "uint256"
        },
        {
          "indexed": false,
          "internalType": "uint256",
          "name": "amount",
          "type": "uint256"
        }
      ],
      "name": "BorrowToken",
      "type": "event"
    },
    {
      "anonymous": false,
      "inputs": [
        {
          "indexed": false,
          "internalType": "uint256",
          "name": "newDebtRatio",
          "type": "uint256"
        }
      ],
      "name": "ChangeDebtRatio",
      "type": "event"
    },
    {
      "anonymous": false,
      "inputs": [
        {
          "indexed": false,
          "internalType": "uint256",
          "name": "newGainRatio",
          "type": "uint256"
        }
      ],
      "name": "ChangeGainRatio",
      "type": "event"
    },
    {
      "anonymous": false,
      "inputs": [
        {
          "indexed": false,
          "internalType": "uint256",
          "name": "vaultID",
          "type": "uint256"
        },
        {
          "indexed": false,
          "internalType": "address",
          "name": "creator",
          "type": "address"
        }
      ],
      "name": "CreateVault",
      "type": "event"
    },
    {
      "anonymous": false,
      "inputs": [
        {
          "indexed": false,
          "internalType": "uint256",
          "name": "vaultID",
          "type": "uint256"
        },
        {
          "indexed": false,
          "internalType": "uint256",
          "name": "amount",
          "type": "uint256"
        }
      ],
      "name": "DepositCollateral",
      "type": "event"
    },
    {
      "anonymous": false,
      "inputs": [
        {
          "indexed": false,
          "internalType": "uint256",
          "name": "vaultID",
          "type": "uint256"
        }
      ],
      "name": "DestroyVault",
      "type": "event"
    },
    {
      "anonymous": false,
      "inputs": [
        {
          "indexed": false,
          "internalType": "uint256",
          "name": "amount",
          "type": "uint256"
        },
        {
          "indexed": false,
          "internalType": "address",
          "name": "user",
          "type": "address"
        }
      ],
      "name": "GetPaid",
      "type": "event"
    },
    {
      "anonymous": false,
      "inputs": [
        {
          "indexed": false,
          "internalType": "uint256",
          "name": "vaultID",
          "type": "uint256"
        },
        {
          "indexed": false,
          "internalType": "address",
          "name": "owner",
          "type": "address"
        },
        {
          "indexed": false,
          "internalType": "address",
          "name": "buyer",
          "type": "address"
        },
        {
          "indexed": false,
          "internalType": "uint256",
          "name": "amountPaid",
          "type": "uint256"
        },
        {
          "indexed": false,
          "internalType": "uint256",
          "name": "tokenExtract",
          "type": "uint256"
        },
        {
          "indexed": false,
          "internalType": "uint256",
          "name": "closingFee",
          "type": "uint256"
        }
      ],
      "name": "LiquidateVault",
      "type": "event"
    },
    {
      "anonymous": false,
      "inputs": [
        {
          "indexed": false,
          "internalType": "uint256",
          "name": "newClosingFee",
          "type": "uint256"
        }
      ],
      "name": "NewClosingFee",
      "type": "event"
    },
    {
      "anonymous": false,
      "inputs": [
        {
          "indexed": false,
          "internalType": "uint256",
          "name": "newDebtCeiling",
          "type": "uint256"
        }
      ],
      "name": "NewDebtCeiling",
      "type": "event"
    },
    {
      "anonymous": false,
      "inputs": [
        {
          "indexed": false,
          "internalType": "address",
          "name": "newGateway",
          "type": "address"
        }
      ],
      "name": "NewGateway",
      "type": "event"
    },
    {
      "anonymous": false,
      "inputs": [
        {
          "indexed": false,
          "internalType": "uint256",
          "name": "newMinimumCollateralPercentage",
          "type": "uint256"
        }
      ],
      "name": "NewMinimumCollateralPercentage",
      "type": "event"
    },
    {
      "anonymous": false,
      "inputs": [
        {
          "indexed": false,
          "internalType": "uint256",
          "name": "newMinimumDebt",
          "type": "uint256"
        }
      ],
      "name": "NewMinimumDebt",
      "type": "event"
    },
    {
      "anonymous": false,
      "inputs": [
        {
          "indexed": false,
          "internalType": "uint256",
          "name": "newOpeningFee",
          "type": "uint256"
        }
      ],
      "name": "NewOpeningFee",
      "type": "event"
    },
    {
      "anonymous": false,
      "inputs": [
        {
          "indexed": false,
          "internalType": "uint256",
          "name": "newPew",
          "type": "uint256"
        }
      ],
      "name": "NewPeg",
      "type": "event"
    },
    {
      "anonymous": false,
      "inputs": [
        {
          "indexed": false,
          "internalType": "address",
          "name": "newPriceSource",
          "type": "address"
        }
      ],
      "name": "NewPriceSource",
      "type": "event"
    },
    {
      "anonymous": false,
      "inputs": [
        {
          "indexed": false,
          "internalType": "address",
          "name": "newStabilityPool",
          "type": "address"
        }
      ],
      "name": "NewStabilityPools",
      "type": "event"
    },
    {
      "anonymous": false,
      "inputs": [
        {
          "indexed": false,
          "internalType": "uint256",
          "name": "newTreasury",
          "type": "uint256"
        }
      ],
      "name": "NewTreasury",
      "type": "event"
    },
    {
      "anonymous": false,
      "inputs": [
        {
          "indexed": false,
          "internalType": "uint256",
          "name": "vaultID",
          "type": "uint256"
        },
        {
          "indexed": false,
          "internalType": "uint256",
          "name": "amount",
          "type": "uint256"
        },
        {
          "indexed": false,
          "internalType": "uint256",
          "name": "closingFee",
          "type": "uint256"
        }
      ],
      "name": "PayBackToken",
      "type": "event"
    },
    {
      "anonymous": false,
      "inputs": [
        {
          "indexed": true,
          "internalType": "bytes32",
          "name": "role",
          "type": "bytes32"
        },
        {
          "indexed": true,
          "internalType": "bytes32",
          "name": "previousAdminRole",
          "type": "bytes32"
        },
        {
          "indexed": true,
          "internalType": "bytes32",
          "name": "newAdminRole",
          "type": "bytes32"
        }
      ],
      "name": "RoleAdminChanged",
      "type": "event"
    },
    {
      "anonymous": false,
      "inputs": [
        {
          "indexed": true,
          "internalType": "bytes32",
          "name": "role",
          "type": "bytes32"
        },
        {
          "indexed": true,
          "internalType": "address",
          "name": "account",
          "type": "address"
        },
        {
          "indexed": true,
          "internalType": "address",
          "name": "sender",
          "type": "address"
        }
      ],
      "name": "RoleGranted",
      "type": "event"
    },
    {
      "anonymous": false,
      "inputs": [
        {
          "indexed": true,
          "internalType": "bytes32",
          "name": "role",
          "type": "bytes32"
        },
        {
          "indexed": true,
          "internalType": "address",
          "name": "account",
          "type": "address"
        },
        {
          "indexed": true,
          "internalType": "address",
          "name": "sender",
          "type": "address"
        }
      ],
      "name": "RoleRevoked",
      "type": "event"
    },
    {
      "anonymous": false,
      "inputs": [
        {
          "indexed": true,
          "internalType": "address",
          "name": "from",
          "type": "address"
        },
        {
          "indexed": true,
          "internalType": "address",
          "name": "to",
          "type": "address"
        },
        {
          "indexed": true,
          "internalType": "uint256",
          "name": "tokenId",
          "type": "uint256"
        }
      ],
      "name": "Transfer",
      "type": "event"
    },
    {
      "anonymous": false,
      "inputs": [
        {
          "indexed": false,
          "internalType": "uint256",
          "name": "vaultID",
          "type": "uint256"
        },
        {
          "indexed": false,
          "internalType": "address",
          "name": "from",
          "type": "address"
        },
        {
          "indexed": false,
          "internalType": "address",
          "name": "to",
          "type": "address"
        }
      ],
      "name": "TransferVault",
      "type": "event"
    },
    {
      "anonymous": false,
      "inputs": [
        {
          "indexed": false,
          "internalType": "uint256",
          "name": "vaultID",
          "type": "uint256"
        },
        {
          "indexed": false,
          "internalType": "uint256",
          "name": "amount",
          "type": "uint256"
        }
      ],
      "name": "WithdrawCollateral",
      "type": "event"
    },
    {
      "inputs": [],
      "name": "DEFAULT_ADMIN_ROLE",
      "outputs": [
        {
          "internalType": "bytes32",
          "name": "",
          "type": "bytes32"
        }
      ],
      "stateMutability": "view",
      "type": "function"
    },
    {
      "inputs": [],
      "name": "TREASURY_ROLE",
      "outputs": [
        {
          "internalType": "bytes32",
          "name": "",
          "type": "bytes32"
        }
      ],
      "stateMutability": "view",
      "type": "function"
    },
    {
      "inputs": [
        {
          "internalType": "address",
          "name": "to",
          "type": "address"
        },
        {
          "internalType": "uint256",
          "name": "tokenId",
          "type": "uint256"
        }
      ],
      "name": "approve",
      "outputs": [],
      "stateMutability": "nonpayable",
      "type": "function"
    },
    {
      "inputs": [
        {
          "internalType": "address",
          "name": "owner",
          "type": "address"
        }
      ],
      "name": "balanceOf",
      "outputs": [
        {
          "internalType": "uint256",
          "name": "",
          "type": "uint256"
        }
      ],
      "stateMutability": "view",
      "type": "function"
    },
    {
      "inputs": [
        {
          "internalType": "uint256",
          "name": "vaultID",
          "type": "uint256"
        },
        {
          "internalType": "uint256",
          "name": "amount",
          "type": "uint256"
        }
      ],
      "name": "borrowToken",
      "outputs": [],
      "stateMutability": "nonpayable",
      "type": "function"
    },
    {
      "inputs": [
        {
          "internalType": "uint256",
          "name": "vaultId_",
          "type": "uint256"
        }
      ],
      "name": "checkCost",
      "outputs": [
        {
          "internalType": "uint256",
          "name": "",
          "type": "uint256"
        }
      ],
      "stateMutability": "view",
      "type": "function"
    },
    {
      "inputs": [
        {
          "internalType": "uint256",
          "name": "vaultId_",
          "type": "uint256"
        }
      ],
      "name": "checkExtract",
      "outputs": [
        {
          "internalType": "uint256",
          "name": "",
          "type": "uint256"
        }
      ],
      "stateMutability": "view",
      "type": "function"
    },
    {
      "inputs": [
        {
          "internalType": "uint256",
          "name": "vaultId_",
          "type": "uint256"
        }
      ],
      "name": "checkLiquidation",
      "outputs": [
        {
          "internalType": "bool",
          "name": "",
          "type": "bool"
        }
      ],
      "stateMutability": "view",
      "type": "function"
    },
    {
      "inputs": [],
      "name": "closingFee",
      "outputs": [
        {
          "internalType": "uint256",
          "name": "",
          "type": "uint256"
        }
      ],
      "stateMutability": "view",
      "type": "function"
    },
    {
      "inputs": [],
      "name": "createVault",
      "outputs": [],
      "stateMutability": "nonpayable",
      "type": "function"
    },
    {
      "inputs": [],
      "name": "debtCeiling",
      "outputs": [
        {
          "internalType": "uint256",
          "name": "",
          "type": "uint256"
        }
      ],
      "stateMutability": "view",
      "type": "function"
    },
    {
      "inputs": [],
      "name": "debtRatio",
      "outputs": [
        {
          "internalType": "uint256",
          "name": "",
          "type": "uint256"
        }
      ],
      "stateMutability": "view",
      "type": "function"
    },
    {
      "inputs": [
        {
          "internalType": "uint256",
          "name": "vaultID",
          "type": "uint256"
        },
        {
          "internalType": "uint256",
          "name": "amount",
          "type": "uint256"
        }
      ],
      "name": "depositCollateral",
      "outputs": [],
      "stateMutability": "nonpayable",
      "type": "function"
    },
    {
      "inputs": [
        {
          "internalType": "uint256",
          "name": "vaultID",
          "type": "uint256"
        }
      ],
      "name": "destroyVault",
      "outputs": [],
      "stateMutability": "nonpayable",
      "type": "function"
    },
    {
      "inputs": [],
      "name": "gainRatio",
      "outputs": [
        {
          "internalType": "uint256",
          "name": "",
          "type": "uint256"
        }
      ],
      "stateMutability": "view",
      "type": "function"
    },
    {
      "inputs": [],
      "name": "gateway",
      "outputs": [
        {
          "internalType": "address",
          "name": "",
          "type": "address"
        }
      ],
      "stateMutability": "view",
      "type": "function"
    },
    {
      "inputs": [
        {
          "internalType": "uint256",
          "name": "tokenId",
          "type": "uint256"
        }
      ],
      "name": "getApproved",
      "outputs": [
        {
          "internalType": "address",
          "name": "",
          "type": "address"
        }
      ],
      "stateMutability": "view",
      "type": "function"
    },
    {
      "inputs": [
        {
          "internalType": "address",
          "name": "user",
          "type": "address"
        }
      ],
      "name": "getPaid",
      "outputs": [],
      "stateMutability": "nonpayable",
      "type": "function"
    },
    {
      "inputs": [],
      "name": "getPricePeg",
      "outputs": [
        {
          "internalType": "uint256",
          "name": "",
          "type": "uint256"
        }
      ],
      "stateMutability": "view",
      "type": "function"
    },
    {
      "inputs": [],
      "name": "getPriceSource",
      "outputs": [
        {
          "internalType": "uint256",
          "name": "",
          "type": "uint256"
        }
      ],
      "stateMutability": "view",
      "type": "function"
    },
    {
      "inputs": [
        {
          "internalType": "bytes32",
          "name": "role",
          "type": "bytes32"
        }
      ],
      "name": "getRoleAdmin",
      "outputs": [
        {
          "internalType": "bytes32",
          "name": "",
          "type": "bytes32"
        }
      ],
      "stateMutability": "view",
      "type": "function"
    },
    {
      "inputs": [
        {
          "internalType": "bytes32",
          "name": "role",
          "type": "bytes32"
        },
        {
          "internalType": "address",
          "name": "account",
          "type": "address"
        }
      ],
      "name": "grantRole",
      "outputs": [],
      "stateMutability": "nonpayable",
      "type": "function"
    },
    {
      "inputs": [
        {
          "internalType": "bytes32",
          "name": "role",
          "type": "bytes32"
        },
        {
          "internalType": "address",
          "name": "account",
          "type": "address"
        }
      ],
      "name": "hasRole",
      "outputs": [
        {
          "internalType": "bool",
          "name": "",
          "type": "bool"
        }
      ],
      "stateMutability": "view",
      "type": "function"
    },
    {
      "inputs": [
        {
          "internalType": "uint256",
          "name": "minimumCollateralPercentage_",
          "type": "uint256"
        },
        {
          "internalType": "address",
          "name": "priceSource_",
          "type": "address"
        },
        {
          "internalType": "string",
          "name": "name_",
          "type": "string"
        },
        {
          "internalType": "string",
          "name": "symbol_",
          "type": "string"
        },
        {
          "internalType": "address",
          "name": "token_",
          "type": "address"
        }
      ],
      "name": "initialize",
      "outputs": [],
      "stateMutability": "nonpayable",
      "type": "function"
    },
    {
      "inputs": [
        {
          "internalType": "address",
          "name": "owner",
          "type": "address"
        },
        {
          "internalType": "address",
          "name": "operator",
          "type": "address"
        }
      ],
      "name": "isApprovedForAll",
      "outputs": [
        {
          "internalType": "bool",
          "name": "",
          "type": "bool"
        }
      ],
      "stateMutability": "view",
      "type": "function"
    },
    {
      "inputs": [
        {
          "internalType": "uint256",
          "name": "vaultID_",
          "type": "uint256"
        }
      ],
      "name": "liquidateVault",
      "outputs": [],
      "stateMutability": "nonpayable",
      "type": "function"
    },
    {
      "inputs": [],
      "name": "minimumCollateralPercentage",
      "outputs": [
        {
          "internalType": "uint256",
          "name": "",
          "type": "uint256"
        }
      ],
      "stateMutability": "view",
      "type": "function"
    },
    {
      "inputs": [],
      "name": "minimumDebt",
      "outputs": [
        {
          "internalType": "uint256",
          "name": "",
          "type": "uint256"
        }
      ],
      "stateMutability": "view",
      "type": "function"
    },
    {
      "inputs": [],
      "name": "mintingPaused",
      "outputs": [
        {
          "internalType": "bool",
          "name": "",
          "type": "bool"
        }
      ],
      "stateMutability": "view",
      "type": "function"
    },
    {
      "inputs": [],
      "name": "name",
      "outputs": [
        {
          "internalType": "string",
          "name": "",
          "type": "string"
        }
      ],
      "stateMutability": "view",
      "type": "function"
    },
    {
      "inputs": [],
      "name": "openingFee",
      "outputs": [
        {
          "internalType": "uint256",
          "name": "",
          "type": "uint256"
        }
      ],
      "stateMutability": "view",
      "type": "function"
    },
    {
      "inputs": [
        {
          "internalType": "uint256",
          "name": "tokenId",
          "type": "uint256"
        }
      ],
      "name": "ownerOf",
      "outputs": [
        {
          "internalType": "address",
          "name": "",
          "type": "address"
        }
      ],
      "stateMutability": "view",
      "type": "function"
    },
    {
      "inputs": [
        {
          "internalType": "uint256",
          "name": "vaultID",
          "type": "uint256"
        },
        {
          "internalType": "uint256",
          "name": "amount",
          "type": "uint256"
        }
      ],
      "name": "payBackToken",
      "outputs": [],
      "stateMutability": "nonpayable",
      "type": "function"
    },
    {
      "inputs": [],
      "name": "priceSource",
      "outputs": [
        {
          "internalType": "contract AggregatorV3Interface",
          "name": "",
          "type": "address"
        }
      ],
      "stateMutability": "view",
      "type": "function"
    },
    {
      "inputs": [
        {
          "internalType": "bytes32",
          "name": "role",
          "type": "bytes32"
        },
        {
          "internalType": "address",
          "name": "account",
          "type": "address"
        }
      ],
      "name": "renounceRole",
      "outputs": [],
      "stateMutability": "nonpayable",
      "type": "function"
    },
    {
      "inputs": [
        {
          "internalType": "bytes32",
          "name": "role",
          "type": "bytes32"
        },
        {
          "internalType": "address",
          "name": "account",
          "type": "address"
        }
      ],
      "name": "revokeRole",
      "outputs": [],
      "stateMutability": "nonpayable",
      "type": "function"
    },
    {
      "inputs": [
        {
          "internalType": "address",
          "name": "from",
          "type": "address"
        },
        {
          "internalType": "address",
          "name": "to",
          "type": "address"
        },
        {
          "internalType": "uint256",
          "name": "tokenId",
          "type": "uint256"
        }
      ],
      "name": "safeTransferFrom",
      "outputs": [],
      "stateMutability": "nonpayable",
      "type": "function"
    },
    {
      "inputs": [
        {
          "internalType": "address",
          "name": "from",
          "type": "address"
        },
        {
          "internalType": "address",
          "name": "to",
          "type": "address"
        },
        {
          "internalType": "uint256",
          "name": "tokenId",
          "type": "uint256"
        },
        {
          "internalType": "bytes",
          "name": "_data",
          "type": "bytes"
        }
      ],
      "name": "safeTransferFrom",
      "outputs": [],
      "stateMutability": "nonpayable",
      "type": "function"
    },
    {
      "inputs": [
        {
          "internalType": "address",
          "name": "operator",
          "type": "address"
        },
        {
          "internalType": "bool",
          "name": "approved",
          "type": "bool"
        }
      ],
      "name": "setApprovalForAll",
      "outputs": [],
      "stateMutability": "nonpayable",
      "type": "function"
    },
    {
      "inputs": [
        {
          "internalType": "uint256",
          "name": "amount",
          "type": "uint256"
        }
      ],
      "name": "setClosingFee",
      "outputs": [],
      "stateMutability": "nonpayable",
      "type": "function"
    },
    {
      "inputs": [
        {
          "internalType": "uint256",
          "name": "debtCeiling_",
          "type": "uint256"
        }
      ],
      "name": "setDebtCeiling",
      "outputs": [],
      "stateMutability": "nonpayable",
      "type": "function"
    },
    {
      "inputs": [
        {
          "internalType": "uint256",
          "name": "debtRatio_",
          "type": "uint256"
        }
      ],
      "name": "setDebtRatio",
      "outputs": [],
      "stateMutability": "nonpayable",
      "type": "function"
    },
    {
      "inputs": [
        {
          "internalType": "uint256",
          "name": "gainRatio_",
          "type": "uint256"
        }
      ],
      "name": "setGainRatio",
      "outputs": [],
      "stateMutability": "nonpayable",
      "type": "function"
    },
    {
      "inputs": [
        {
          "internalType": "address",
          "name": "gateway_",
          "type": "address"
        }
      ],
      "name": "setGateway",
      "outputs": [],
      "stateMutability": "nonpayable",
      "type": "function"
    },
    {
      "inputs": [
        {
          "internalType": "uint256",
          "name": "mcp_",
          "type": "uint256"
        }
      ],
      "name": "setMinimumCollateralPercentage",
      "outputs": [],
      "stateMutability": "nonpayable",
      "type": "function"
    },
    {
      "inputs": [
        {
          "internalType": "uint256",
          "name": "minimumDebt_",
          "type": "uint256"
        }
      ],
      "name": "setMinimumDebt",
      "outputs": [],
      "stateMutability": "nonpayable",
      "type": "function"
    },
    {
      "inputs": [
        {
          "internalType": "bool",
          "name": "paused_",
          "type": "bool"
        }
      ],
      "name": "setMintingPaused",
      "outputs": [],
      "stateMutability": "nonpayable",
      "type": "function"
    },
    {
      "inputs": [
        {
          "internalType": "uint256",
          "name": "amount",
          "type": "uint256"
        }
      ],
      "name": "setOpeningFee",
      "outputs": [],
      "stateMutability": "nonpayable",
      "type": "function"
    },
    {
      "inputs": [
        {
          "internalType": "address",
          "name": "priceSource_",
          "type": "address"
        }
      ],
      "name": "setPriceSource",
      "outputs": [],
      "stateMutability": "nonpayable",
      "type": "function"
    },
    {
      "inputs": [
        {
          "internalType": "address",
          "name": "stabilityPool_",
          "type": "address"
        }
      ],
      "name": "setStabilityPool",
      "outputs": [],
      "stateMutability": "nonpayable",
      "type": "function"
    },
    {
      "inputs": [
        {
          "internalType": "uint256",
          "name": "tokenPeg_",
          "type": "uint256"
        }
      ],
      "name": "setTokenPeg",
      "outputs": [],
      "stateMutability": "nonpayable",
      "type": "function"
    },
    {
      "inputs": [
        {
          "internalType": "uint256",
          "name": "treasury_",
          "type": "uint256"
        }
      ],
      "name": "setTreasury",
      "outputs": [],
      "stateMutability": "nonpayable",
      "type": "function"
    },
    {
      "inputs": [],
      "name": "stabilityPool",
      "outputs": [
        {
          "internalType": "address",
          "name": "",
          "type": "address"
        }
      ],
      "stateMutability": "view",
      "type": "function"
    },
    {
      "inputs": [
        {
          "internalType": "bytes4",
          "name": "interfaceId",
          "type": "bytes4"
        }
      ],
      "name": "supportsInterface",
      "outputs": [
        {
          "internalType": "bool",
          "name": "",
          "type": "bool"
        }
      ],
      "stateMutability": "view",
      "type": "function"
    },
    {
      "inputs": [],
      "name": "symbol",
      "outputs": [
        {
          "internalType": "string",
          "name": "",
          "type": "string"
        }
      ],
      "stateMutability": "view",
      "type": "function"
    },
    {
      "inputs": [],
      "name": "token",
      "outputs": [
        {
          "internalType": "contract IERC20Metadata",
          "name": "",
          "type": "address"
        }
      ],
      "stateMutability": "view",
      "type": "function"
    },
    {
      "inputs": [
        {
          "internalType": "uint256",
          "name": "index",
          "type": "uint256"
        }
      ],
      "name": "tokenByIndex",
      "outputs": [
        {
          "internalType": "uint256",
          "name": "",
          "type": "uint256"
        }
      ],
      "stateMutability": "view",
      "type": "function"
    },
    {
      "inputs": [
        {
          "internalType": "address",
          "name": "",
          "type": "address"
        }
      ],
      "name": "tokenDebt",
      "outputs": [
        {
          "internalType": "uint256",
          "name": "",
          "type": "uint256"
        }
      ],
      "stateMutability": "view",
      "type": "function"
    },
    {
      "inputs": [
        {
          "internalType": "address",
          "name": "owner",
          "type": "address"
        },
        {
          "internalType": "uint256",
          "name": "index",
          "type": "uint256"
        }
      ],
      "name": "tokenOfOwnerByIndex",
      "outputs": [
        {
          "internalType": "uint256",
          "name": "",
          "type": "uint256"
        }
      ],
      "stateMutability": "view",
      "type": "function"
    },
    {
      "inputs": [],
      "name": "tokenPeg",
      "outputs": [
        {
          "internalType": "uint256",
          "name": "",
          "type": "uint256"
        }
      ],
      "stateMutability": "view",
      "type": "function"
    },
    {
      "inputs": [
        {
          "internalType": "uint256",
          "name": "tokenId",
          "type": "uint256"
        }
      ],
      "name": "tokenURI",
      "outputs": [
        {
          "internalType": "string",
          "name": "",
          "type": "string"
        }
      ],
      "stateMutability": "view",
      "type": "function"
    },
    {
      "inputs": [],
      "name": "totalDebt",
      "outputs": [
        {
          "internalType": "uint256",
          "name": "",
          "type": "uint256"
        }
      ],
      "stateMutability": "view",
      "type": "function"
    },
    {
      "inputs": [],
      "name": "totalSupply",
      "outputs": [
        {
          "internalType": "uint256",
          "name": "",
          "type": "uint256"
        }
      ],
      "stateMutability": "view",
      "type": "function"
    },
    {
      "inputs": [
        {
          "internalType": "address",
          "name": "from",
          "type": "address"
        },
        {
          "internalType": "address",
          "name": "to",
          "type": "address"
        },
        {
          "internalType": "uint256",
          "name": "tokenId",
          "type": "uint256"
        }
      ],
      "name": "transferFrom",
      "outputs": [],
      "stateMutability": "nonpayable",
      "type": "function"
    },
    {
      "inputs": [
        {
          "internalType": "uint256",
          "name": "vaultID",
          "type": "uint256"
        },
        {
          "internalType": "address",
          "name": "to",
          "type": "address"
        }
      ],
      "name": "transferVault",
      "outputs": [],
      "stateMutability": "nonpayable",
      "type": "function"
    },
    {
      "inputs": [],
      "name": "treasury",
      "outputs": [
        {
          "internalType": "uint256",
          "name": "",
          "type": "uint256"
        }
      ],
      "stateMutability": "view",
      "type": "function"
    },
    {
      "inputs": [
        {
          "internalType": "uint256",
          "name": "",
          "type": "uint256"
        }
      ],
      "name": "vaultCollateral",
      "outputs": [
        {
          "internalType": "uint256",
          "name": "",
          "type": "uint256"
        }
      ],
      "stateMutability": "view",
      "type": "function"
    },
    {
      "inputs": [],
      "name": "vaultCounts",
      "outputs": [
        {
          "internalType": "uint256",
          "name": "",
          "type": "uint256"
        }
      ],
      "stateMutability": "view",
      "type": "function"
    },
    {
      "inputs": [
        {
          "internalType": "uint256",
          "name": "",
          "type": "uint256"
        }
      ],
      "name": "vaultDebt",
      "outputs": [
        {
          "internalType": "uint256",
          "name": "",
          "type": "uint256"
        }
      ],
      "stateMutability": "view",
      "type": "function"
    },
    {
      "inputs": [
        {
          "internalType": "uint256",
          "name": "vaultID",
          "type": "uint256"
        }
      ],
      "name": "vaultExists",
      "outputs": [
        {
          "internalType": "bool",
          "name": "",
          "type": "bool"
        }
      ],
      "stateMutability": "view",
      "type": "function"
    },
    {
      "inputs": [
        {
          "internalType": "uint256",
          "name": "vaultID",
          "type": "uint256"
        },
        {
          "internalType": "uint256",
          "name": "amount",
          "type": "uint256"
        }
      ],
      "name": "withdrawCollateral",
      "outputs": [],
      "stateMutability": "nonpayable",
      "type": "function"
    }
  ],
  "transactionHash": "0xe3e04ee48bb3ce84c3801f91dd09c2b326a9fced0fc54708b481e3b74bfec39d",
  "args": [],
  "solcInputHash": "0362a30f408783f78770a41688806232",
  "bytecode": "0x608060405234801561001057600080fd5b50615f8f80620000216000396000f3fe608060405234801561001057600080fd5b506004361061048d5760003560e01c8063728bbbb51161026b578063bda5310711610150578063dcd68128116100c8578063eb6a887d11610097578063fc0c546a1161007c578063fc0c546a146109da578063fc7b9c18146109ee578063ffc73da7146109f857600080fd5b8063eb6a887d146109b4578063ece13732146109c757600080fd5b8063dcd681281461093c578063e1a283d614610960578063e1c84ea41461096e578063e985e9c51461097857600080fd5b8063cea55f571161011f578063d310f49b11610104578063d310f49b146108e7578063d4a9b2c514610908578063d547741f1461092957600080fd5b8063cea55f57146108c8578063d11a57ec146108d257600080fd5b8063bda531071461088e578063c87b56dd146108a1578063c91ee83d146108b4578063cdfedd63146108be57600080fd5b806395d89b41116101e3578063a22cb465116101b2578063b1511cc911610197578063b1511cc914610855578063b86f6aef14610868578063b88d4fde1461087b57600080fd5b8063a22cb4651461082f578063ad13419d1461084257600080fd5b806395d89b411461080357806398d721e01461080b5780639fc30f1c1461081e578063a217fddf1461082757600080fd5b806385e290a31161023a57806390646b4a1161021f57806390646b4a146107a457806390cf0bba146107b757806391d14854146107ca57600080fd5b806385e290a31461077e578063863759941461079157600080fd5b8063728bbbb51461072d5780637558abc814610737578063767a7b051461075857806385af3c161461076b57600080fd5b80632f2ff15d1161039157806344382f0f1161030957806361d027b3116102d857806363b8817c116102bd57806363b8817c146106f457806370a08231146107075780637139c9291461071a57600080fd5b806361d027b3146106d75780636352211e146106e157600080fd5b806344382f0f146106a15780634f6ccce7146106a957806356572ac0146106bc5780635d12928b146106cf57600080fd5b80633db991771161036057806340c9ff8a1161034557806340c9ff8a1461066857806341a5068f1461067b57806342842e0e1461068e57600080fd5b80633db99177146106425780633e61facd1461065557600080fd5b80632f2ff15d146105ff5780632f745c5914610612578063311f392a1461062557806336568abe1461062f57600080fd5b80630a998f53116104245780631c883e7b116103f357806323b872dd116103d857806323b872dd146105bf578063248a9ca3146105d25780632935d2bc146105f557600080fd5b80631c883e7b146105a157806320531bc9146105ab57600080fd5b80630a998f531461055f578063116191b61461057257806311b4a8321461058657806318160ddd1461059957600080fd5b806306fdde031161046057806306fdde0314610511578063081812fc1461052657806308ec592714610539578063095ea7b31461054c57600080fd5b806301e49d0a1461049257806301ffc9a7146104a7578063048c661d146104cf578063048de381146104fb575b600080fd5b6104a56104a03660046159d1565b610a0b565b005b6104ba6104b5366004615a0b565b610ab7565b60405190151581526020015b60405180910390f35b61013a546104e3906001600160a01b031681565b6040516001600160a01b0390911681526020016104c6565b610503610ac8565b6040519081526020016104c6565b610519610bd4565b6040516104c69190615ca0565b6104e36105343660046159d1565b610c66565b6104a5610547366004615ae7565b610cfb565b6104a561055a366004615970565b611163565b6104a561056d3660046159d1565b611295565b61013b546104e3906001600160a01b031681565b6105036105943660046159d1565b6113af565b609954610503565b6105036101305481565b610137546104e3906001600160a01b031681565b6104a56105cd366004615886565b611451565b6105036105e03660046159d1565b600090815260fb602052604090206001015490565b61050361012e5481565b6104a561060d3660046159e9565b6114d8565b610503610620366004615970565b6114fe565b6105036101355481565b6104a561063d3660046159e9565b6115a6565b6104a56106503660046159d1565b611632565b6104a56106633660046159e9565b611715565b6104a56106763660046159d1565b611842565b6104a5610689366004615a5b565b6118e7565b6104a561069c366004615886565b611ad6565b610503611af1565b6105036106b73660046159d1565b611b02565b6105036106ca3660046159d1565b611bb4565b6104a5611d19565b61050361013c5481565b6104e36106ef3660046159d1565b611daa565b6104a561070236600461583a565b611e35565b61050361071536600461583a565b611ffc565b6104a56107283660046159d1565b612096565b6105036101315481565b61050361074536600461583a565b6101366020526000908152604090205481565b6104a5610766366004615ae7565b61210c565b6104a5610779366004615ae7565b6123d7565b6104a561078c3660046159d1565b6127e7565b6104a561079f3660046159d1565b6129ff565b6104a56107b236600461583a565b612a4e565b6104a56107c53660046159d1565b612b80565b6104ba6107d83660046159e9565b600091825260fb602090815260408084206001600160a01b0393909316845291905290205460ff1690565b6105196131d9565b6104a561081936600461583a565b6131e8565b61013254610503565b610503600081565b6104a561083d36600461593a565b613340565b6104a5610850366004615999565b613405565b6104a56108633660046159d1565b6134b1565b6104ba6108763660046159d1565b613579565b6104a56108893660046158c1565b61371d565b6104a561089c36600461583a565b6137ab565b6105196108af3660046159d1565b61388f565b6105036101405481565b6105036101325481565b6105036101345481565b610503600080516020615f3a83398151915281565b6105036108f53660046159d1565b61013f6020526000908152604090205481565b6105036109163660046159d1565b61013e6020526000908152604090205481565b6104a56109373660046159e9565b613984565b6104ba61094a3660046159d1565b600090815261013d602052604090205460ff1690565b610141546104ba9060ff1681565b61050361012f5481565b6104ba610986366004615854565b6001600160a01b039182166000908152606a6020908152604080832093909416825291909152205460ff1690565b6104a56109c23660046159d1565b6139aa565b6104a56109d5366004615ae7565b613a3f565b610138546104e3906001600160a01b031681565b6105036101335481565b6104a5610a063660046159d1565b613bc3565b600080516020615f3a833981519152610a248133613c56565b60008211610a795760405162461bcd60e51b815260206004820152601260248201527f5065672063616e6e6f74206265207a65726f000000000000000000000000000060448201526064015b60405180910390fd5b6101328290556040518281527f657d2b8cd9c1cd7fc4cfad3db71318ea067f53cfeb214befc5af59ed860d5a16906020015b60405180910390a15050565b6000610ac282613cd6565b92915050565b60008061013760009054906101000a90046001600160a01b03166001600160a01b031663feaf968c6040518163ffffffff1660e01b815260040160a06040518083038186803b158015610b1a57600080fd5b505afa158015610b2e573d6000803e3d6000fd5b505050506040513d601f19601f82011682018060405250810190610b529190615b08565b5050509150506000811215610bcf5760405162461bcd60e51b815260206004820152602360248201527f436861696e6c696e6b2072657475726e65642061206e6567617469766520707260448201527f69636500000000000000000000000000000000000000000000000000000000006064820152608401610a70565b919050565b606060658054610be390615e69565b80601f0160208091040260200160405190810160405280929190818152602001828054610c0f90615e69565b8015610c5c5780601f10610c3157610100808354040283529160200191610c5c565b820191906000526020600020905b815481529060010190602001808311610c3f57829003601f168201915b5050505050905090565b6000818152606760205260408120546001600160a01b0316610cdf5760405162461bcd60e51b815260206004820152602c60248201527f4552433732313a20617070726f76656420717565727920666f72206e6f6e657860448201526b34b9ba32b73a103a37b5b2b760a11b6064820152608401610a70565b506000908152606960205260409020546001600160a01b031690565b600082815261013d6020526040902054829060ff16610d535760405162461bcd60e51b815260206004820152601460248201527315985d5b1d08191bd95cc81b9bdd08195e1a5cdd60621b6044820152606401610a70565b33610d5d82611daa565b6001600160a01b03161480610d7d575061013b546001600160a01b031633145b610dc95760405162461bcd60e51b815260206004820152601960248201527f5661756c74206973206e6f74206f776e656420627920796f75000000000000006044820152606401610a70565b600260c9541415610e1c5760405162461bcd60e51b815260206004820152601f60248201527f5265656e7472616e637947756172643a207265656e7472616e742063616c6c006044820152606401610a70565b600260c9556101415460ff1615610ec15760405162461bcd60e51b815260206004820152605d60248201527f4d696e74696e6720666f7220746869732062616e6b206973207061757365642e60448201527f204465706f736974732c207061796d656e74732c20616e64207769746864726160648201527f77616c732061726520616c6c207374696c6c2066756e6374696f6e616c000000608482015260a401610a70565b60008211610f115760405162461bcd60e51b815260206004820152601b60248201527f4d75737420626f72726f77206e6f6e2d7a65726f20616d6f756e7400000000006044820152606401610a70565b61012f548261013354610f249190615cb3565b1115610f725760405162461bcd60e51b815260206004820152601e60248201527f43616e6e6f74206d696e74206f7665722064656274206365696c696e672e00006044820152606401610a70565b600083815261013f6020526040812054610f8d908490615cb3565b600085815261013e6020526040902054909150610faa9082613d14565b61101c5760405162461bcd60e51b815260206004820152603a60248201527f426f72726f7720776f756c6420707574207661756c742062656c6f77206d696e60448201527f696d756d20636f6c6c61746572616c2070657263656e746167650000000000006064820152608401610a70565b610140548110156110955760405162461bcd60e51b815260206004820152602f60248201527f426f72726f77206e6565647320746f206265206c6172676572207468616e207460448201527f6865206d696e696d756d206465627400000000000000000000000000000000006064820152608401610a70565b61109f8484613dec565b610139546040517f40c10f19000000000000000000000000000000000000000000000000000000008152336004820152602481018590526001600160a01b03909116906340c10f1990604401600060405180830381600087803b15801561110557600080fd5b505af1158015611119573d6000803e3d6000fd5b505060408051878152602081018790527f3e08df88d8e28f37df9bf227d3142ac506a364403445661a60891a49ed6792ca93500190505b60405180910390a15050600160c9555050565b600061116e82611daa565b9050806001600160a01b0316836001600160a01b031614156111f85760405162461bcd60e51b815260206004820152602160248201527f4552433732313a20617070726f76616c20746f2063757272656e74206f776e6560448201527f72000000000000000000000000000000000000000000000000000000000000006064820152608401610a70565b336001600160a01b038216148061121457506112148133610986565b6112865760405162461bcd60e51b815260206004820152603860248201527f4552433732313a20617070726f76652063616c6c6572206973206e6f74206f7760448201527f6e6572206e6f7220617070726f76656420666f7220616c6c00000000000000006064820152608401610a70565b6112908383613f04565b505050565b600080516020615f3a8339815191526112ae8133613c56565b600082116112fe5760405162461bcd60e51b815260206004820152601b60248201527f4d696e696d756d20646562742063616e6e6f74206265207a65726f00000000006044820152606401610a70565b61012f5461014054106113795760405162461bcd60e51b815260206004820152603060248201527f4d696e696d756d20646562742063616e6e6f742062652067726561746572207460448201527f68616e2064656274206365696c696e67000000000000000000000000000000006064820152608401610a70565b6101408290556040518281527fe9031d105129d4c03f829c02017c30a898f35e17ddf050fdd090c416442bec5a90602001610aab565b600081815261013d602052604081205460ff166114015760405162461bcd60e51b815260206004820152601060248201526f15985d5b1d081b5d5cdd08195e1a5cdd60821b6044820152606401610a70565b600082815261013e602090815260408083205461013f9092528220546114279190613f72565b91505061013254816114399190615ccb565b9050610134548161144a9190615ccb565b9392505050565b61145b3382614061565b6114cd5760405162461bcd60e51b815260206004820152603160248201527f4552433732313a207472616e736665722063616c6c6572206973206e6f74206f60448201527f776e6572206e6f7220617070726f7665640000000000000000000000000000006064820152608401610a70565b611290838383614154565b600082815260fb60205260409020600101546114f48133613c56565b611290838361419c565b600061150983611ffc565b821061157d5760405162461bcd60e51b815260206004820152602b60248201527f455243373231456e756d657261626c653a206f776e657220696e646578206f7560448201527f74206f6620626f756e64730000000000000000000000000000000000000000006064820152608401610a70565b506001600160a01b03919091166000908152609760209081526040808320938352929052205490565b6001600160a01b03811633146116245760405162461bcd60e51b815260206004820152602f60248201527f416363657373436f6e74726f6c3a2063616e206f6e6c792072656e6f756e636560448201527f20726f6c657320666f722073656c6600000000000000000000000000000000006064820152608401610a70565b61162e828261423e565b5050565b600080516020615f3a83398151915261164b8133613c56565b60fa82111561169c5760405162461bcd60e51b815260206004820152601e60248201527f436c6f73696e67206665652063616e6e6f742062652061626f766520312500006044820152606401610a70565b6305f5e1006116ad83612710615cb3565b61013454610135546116c1906103e8615dcd565b6116cb9190615ccb565b6116d59190615dcd565b106116df57600080fd5b6101308290556040518281527f2be5116c37a9989b15d218af1d929034cabc673c9c821d52a901411be5eafd2890602001610aab565b600082815261013d6020526040902054829060ff1661176d5760405162461bcd60e51b815260206004820152601460248201527315985d5b1d08191bd95cc81b9bdd08195e1a5cdd60621b6044820152606401610a70565b3361177782611daa565b6001600160a01b03161480611797575061013b546001600160a01b031633145b6117e35760405162461bcd60e51b815260206004820152601960248201527f5661756c74206973206e6f74206f776e656420627920796f75000000000000006044820152606401610a70565b6117ec836142c1565b6117f68284614368565b604080518481523360208201526001600160a01b0384168183015290517fa8159d062909288cfe1bc71a9cb71a800664f2658fc2588d52676a844f1b0f139181900360600190a1505050565b600080516020615f3a83398151915261185b8133613c56565b606e821015801561186e57506101908211155b6118e05760405162461bcd60e51b815260206004820152603a60248201527f4d696e696d756d20636f6c6c61746572616c2070657263656e74616765206d7560448201527f73742062652077697468696e2072616e6765203131302d3430300000000000006064820152608401610a70565b5061012e55565b600054610100900460ff1680611900575060005460ff16155b6119635760405162461bcd60e51b815260206004820152602e60248201527f496e697469616c697a61626c653a20636f6e747261637420697320616c72656160448201526d191e481a5b9a5d1a585b1a5e995960921b6064820152608401610a70565b600054610100900460ff16158015611985576000805461ffff19166101011790555b61198d6144b6565b6119956144b6565b61199f8484614568565b6119a76144b6565b6119af614644565b6119b76144b6565b6001600160a01b0385166119db57634e487b7160e01b600052600160045260246000fd5b60648610156119fa57634e487b7160e01b600052600160045260246000fd5b678ac7230489e8000061012f55604b6101305560006101318190556305f5e10061013255600261013455600b6101355561013a80546001600160a01b031990811690915561013b805482169055610137805482166001600160a01b038981169190911790915561013880548316918616919091179055610139805433921682179055611a8691906146fb565b611a9e600080516020615f3a833981519152336146fb565b611ab6600080516020615f3a83398151915280614705565b61012e8690558015611ace576000805461ff00191690555b505050505050565b6112908383836040518060200160405280600081525061371d565b6000611afd61012d5490565b905090565b6000611b0d60995490565b8210611b815760405162461bcd60e51b815260206004820152602c60248201527f455243373231456e756d657261626c653a20676c6f62616c20696e646578206f60448201527f7574206f6620626f756e647300000000000000000000000000000000000000006064820152608401610a70565b60998281548110611ba257634e487b7160e01b600052603260045260246000fd5b90600052602060002001549050919050565b600081815261013d602052604081205460ff16611c065760405162461bcd60e51b815260206004820152601060248201526f15985d5b1d081b5d5cdd08195e1a5cdd60821b6044820152606401610a70565b600082815261013e602090815260408083205461013f909252822054611c2c9190613f72565b915050600061013860009054906101000a90046001600160a01b03166001600160a01b031663313ce5676040518163ffffffff1660e01b815260040160206040518083038186803b158015611c8057600080fd5b505afa158015611c94573d6000803e3d6000fd5b505050506040513d601f19601f82011682018060405250810190611cb89190615b4b565b611cc3906012615e03565b611cce90600a615d22565b61013454611cda610ac8565b611ce590600a615dcd565b611cef9190615dcd565b61013554611cfd9085615dcd565b611d079190615ccb565b611d119190615ccb565b949350505050565b611d2861012d80546001019055565b6000611d3461012d5490565b600081815261013d602052604090819020805460ff19166001179055519091507f8b6c1d05c678fa59695e26465a85918ce0fc63a88f74af53d1daef8f0a9c780490611d9590839033909182526001600160a01b0316602082015260400190565b60405180910390a1611da73382614368565b50565b6000818152606760205260408120546001600160a01b031680610ac25760405162461bcd60e51b815260206004820152602960248201527f4552433732313a206f776e657220717565727920666f72206e6f6e657869737460448201527f656e7420746f6b656e00000000000000000000000000000000000000000000006064820152608401610a70565b600260c9541415611e885760405162461bcd60e51b815260206004820152601f60248201527f5265656e7472616e637947756172643a207265656e7472616e742063616c6c006044820152606401610a70565b600260c95580336001600160a01b0382161480611eb0575061013b546001600160a01b031633145b611efc5760405162461bcd60e51b815260206004820152601c60248201527f43616e6e6f74206765742070616964206966206e6f7420796f757273000000006044820152606401610a70565b6001600160a01b03821660009081526101366020526040902054611f885760405162461bcd60e51b815260206004820152602860248201527f4e6f206c69717569646174696f6e73206173736f63696174656420776974682060448201527f6163636f756e742e0000000000000000000000000000000000000000000000006064820152608401610a70565b6001600160a01b038083166000908152610136602052604081208054919055610138549091611fb991163383614750565b604080518281523360208201527f45f23935dce154b3c7ff256ac2402f7700f39ce5b210b7da385215939fc4c5c891015b60405180910390a15050600160c95550565b60006001600160a01b03821661207a5760405162461bcd60e51b815260206004820152602a60248201527f4552433732313a2062616c616e636520717565727920666f7220746865207a6560448201527f726f2061646472657373000000000000000000000000000000000000000000006064820152608401610a70565b506001600160a01b031660009081526068602052604090205490565b600080516020615f3a8339815191526120af8133613c56565b600082815261013d602052604090205460ff166121055760405162461bcd60e51b815260206004820152601460248201527315985d5b1d08191bd95cc81b9bdd08195e1a5cdd60621b6044820152606401610a70565b5061013c55565b600082815261013d6020526040902054829060ff166121645760405162461bcd60e51b815260206004820152601460248201527315985d5b1d08191bd95cc81b9bdd08195e1a5cdd60621b6044820152606401610a70565b3361216e82611daa565b6001600160a01b0316148061218e575061013b546001600160a01b031633145b6121da5760405162461bcd60e51b815260206004820152601960248201527f5661756c74206973206e6f74206f776e656420627920796f75000000000000006044820152606401610a70565b600260c954141561222d5760405162461bcd60e51b815260206004820152601f60248201527f5265656e7472616e637947756172643a207265656e7472616e742063616c6c006044820152606401610a70565b600260c955600083815261013e60205260409020548211156122b75760405162461bcd60e51b815260206004820152602560248201527f5661756c7420646f6573206e6f74206861766520656e6f75676820636f6c6c6160448201527f746572616c0000000000000000000000000000000000000000000000000000006064820152608401610a70565b600083815261013e60205260408120546122d2908490615dec565b600085815261013f60205260409020549091501561237757600084815261013f6020526040902054612305908290613d14565b6123775760405162461bcd60e51b815260206004820152603e60248201527f5769746864726177616c20776f756c6420707574207661756c742062656c6f7760448201527f206d696e696d756d20636f6c6c61746572616c2070657263656e7461676500006064820152608401610a70565b600084815261013e60205260409020819055610138546123a1906001600160a01b03163385614750565b60408051858152602081018590527f6c0ea3bea9dd66afa8f9d39d6eb93d833466190330813b42835efc650dca4cb99101611150565b600082815261013d6020526040902054829060ff1661242f5760405162461bcd60e51b815260206004820152601460248201527315985d5b1d08191bd95cc81b9bdd08195e1a5cdd60621b6044820152606401610a70565b3361243982611daa565b6001600160a01b03161480612459575061013b546001600160a01b031633145b6124a55760405162461bcd60e51b815260206004820152601960248201527f5661756c74206973206e6f74206f776e656420627920796f75000000000000006044820152606401610a70565b600260c95414156124f85760405162461bcd60e51b815260206004820152601f60248201527f5265656e7472616e637947756172643a207265656e7472616e742063616c6c006044820152606401610a70565b600260c955610139546040516370a0823160e01b815233600482015283916001600160a01b0316906370a082319060240160206040518083038186803b15801561254157600080fd5b505afa158015612555573d6000803e3d6000fd5b505050506040513d601f19601f820116820180604052508101906125799190615a43565b10156125c75760405162461bcd60e51b815260206004820152601560248201527f546f6b656e2062616c616e636520746f6f206c6f7700000000000000000000006044820152606401610a70565b600083815261013f602052604090205482111561264c5760405162461bcd60e51b815260206004820152602760248201527f5661756c742064656274206c657373207468616e20616d6f756e7420746f207060448201527f6179206261636b000000000000000000000000000000000000000000000000006064820152608401610a70565b610138546040805163313ce56760e01b815290516000926001600160a01b03169163313ce567916004808301926020929190829003018186803b15801561269257600080fd5b505afa1580156126a6573d6000803e3d6000fd5b505050506040513d601f19601f820116820180604052508101906126ca9190615b4b565b6126d5906012615e03565b6126e090600a615d22565b6126e8610ac8565b6126f490612710615dcd565b61013254610130546127069087615dcd565b6127109190615dcd565b61271a9190615ccb565b6127249190615ccb565b905061273084846147e1565b61273a8482614967565b61274381614a4e565b61013954604051632770a7eb60e21b8152336004820152602481018590526001600160a01b0390911690639dc29fac90604401600060405180830381600087803b15801561279057600080fd5b505af11580156127a4573d6000803e3d6000fd5b505060408051878152602081018790529081018490527f31f96762af4051f367185773cc2f55bfb112a6c114b3407ded1f321a9eb199ac92506060019050611150565b600081815261013d6020526040902054819060ff1661283f5760405162461bcd60e51b815260206004820152601460248201527315985d5b1d08191bd95cc81b9bdd08195e1a5cdd60621b6044820152606401610a70565b3361284982611daa565b6001600160a01b03161480612869575061013b546001600160a01b031633145b6128b55760405162461bcd60e51b815260206004820152601960248201527f5661756c74206973206e6f74206f776e656420627920796f75000000000000006044820152606401610a70565b600260c95414156129085760405162461bcd60e51b815260206004820152601f60248201527f5265656e7472616e637947756172643a207265656e7472616e742063616c6c006044820152606401610a70565b600260c955600082815261013f60205260409020541561296a5760405162461bcd60e51b815260206004820152601960248201527f5661756c74206173206f75747374616e64696e672064656274000000000000006044820152606401610a70565b600082815261013e6020526040902054612983836142c1565b600083815261013d60209081526040808320805460ff1916905561013e825280832083905561013f90915281205580156129cf57610138546129cf906001600160a01b03163383614750565b6040518381527f4fe08624ee65b341c38ab9693d216b909d4ddee1bc8d3fe0fea14026c361b46590602001611fea565b600080516020615f3a833981519152612a188133613c56565b6101318290556040518281527ff78536edc296a3a7e991e00caa8319c68a84cc56f22e8c9118463773d0844b9390602001610aab565b600080516020615f3a833981519152612a678133613c56565b6001600160a01b038216612abd5760405162461bcd60e51b815260206004820152601e60248201527f476174657761792063616e6e6f74206265207a65726f206164647265737300006044820152606401610a70565b813b612b315760405162461bcd60e51b815260206004820152602560248201527f4d757374206265206120636f6e747261637420746f206265207468652067617460448201527f657761792e0000000000000000000000000000000000000000000000000000006064820152608401610a70565b61013b80546001600160a01b0319166001600160a01b0384169081179091556040519081527f138dfef152fa4f095c1158aad1b384e3c43de632c031e8e37e149917e690075790602001610aab565b61013a546001600160a01b03161580612ba4575061013a546001600160a01b031633145b612c165760405162461bcd60e51b815260206004820152602160248201527f6275795269736b795661756c742064697361626c656420666f72207075626c6960448201527f63000000000000000000000000000000000000000000000000000000000000006064820152608401610a70565b600260c9541415612c695760405162461bcd60e51b815260206004820152601f60248201527f5265656e7472616e637947756172643a207265656e7472616e742063616c6c006044820152606401610a70565b600260c955600081815261013d602052604090205460ff16612cc45760405162461bcd60e51b815260206004820152601460248201527315985d5b1d08191bd95cc81b9bdd08195e1a5cdd60621b6044820152606401610a70565b600081815261013e602090815260408083205461013f9092528220548291612ceb91613f72565b9150915060008111612d3f5760405162461bcd60e51b815260206004820152601160248201527f5661756c7420686173206e6f20646562740000000000000000000000000000006044820152606401610a70565b60008161013860009054906101000a90046001600160a01b03166001600160a01b031663313ce5676040518163ffffffff1660e01b815260040160206040518083038186803b158015612d9157600080fd5b505afa158015612da5573d6000803e3d6000fd5b505050506040513d601f19601f82011682018060405250810190612dc99190615b4b565b612dd4906012615e03565b612ddf90600a615d22565b612de99085615dcd565b612df39190615ccb565b905061012e548110612e6d5760405162461bcd60e51b815260206004820152603060248201527f5661756c74206973206e6f742062656c6f77206d696e696d756d20636f6c6c6160448201527f746572616c2070657263656e74616765000000000000000000000000000000006064820152608401610a70565b6000612e7885611bb4565b90506000612e85866113af565b610139546040516370a0823160e01b815233600482015291925082916001600160a01b03909116906370a082319060240160206040518083038186803b158015612ece57600080fd5b505afa158015612ee2573d6000803e3d6000fd5b505050506040513d601f19601f82011682018060405250810190612f069190615a43565b1015612f7a5760405162461bcd60e51b815260206004820152603160248201527f546f6b656e2062616c616e636520746f6f206c6f7720746f20706179206f666660448201527f206f75747374616e64696e6720646562740000000000000000000000000000006064820152608401610a70565b61013954604051632770a7eb60e21b8152336004820152602481018390526001600160a01b0390911690639dc29fac90604401600060405180830381600087803b158015612fc757600080fd5b505af1158015612fdb573d6000803e3d6000fd5b505050600087815261013f602052604081208054849350909190613000908490615dec565b9091555050610138546040805163313ce56760e01b815290516000926001600160a01b03169163313ce567916004808301926020929190829003018186803b15801561304b57600080fd5b505afa15801561305f573d6000803e3d6000fd5b505050506040513d601f19601f820116820180604052508101906130839190615b4b565b61308e906012615e03565b61309990600a615d22565b6130a1610ac8565b6130ad90612710615dcd565b61013254610130546130bf9086615dcd565b6130c99190615dcd565b6130d39190615ccb565b6130dd9190615ccb565b90506130e98382615cb3565b600088815261013e602052604081208054909190613108908490615dec565b909155505061013c54600090815261013e602052604081208054839290613130908490615cb3565b9091555050336000908152610136602052604081208054859290613155908490615cb3565b90915550613164905082614ab8565b7f4d151d3a98b83151d51917640c221f8c8e3c054422ea1b48dcbbd57e3f4210d58761318f89611daa565b604080519283526001600160a01b0390911660208301523390820152606081018490526080810185905260a0810183905260c00160405180910390a15050600160c9555050505050565b606060668054610be390615e69565b600080516020615f3a8339815191526132018133613c56565b6001600160a01b03821661327d5760405162461bcd60e51b815260206004820152602560248201527f53746162696c69747920706f6f6c2063616e6e6f74206265207a65726f20616460448201527f64726573730000000000000000000000000000000000000000000000000000006064820152608401610a70565b813b6132f15760405162461bcd60e51b815260206004820152602c60248201527f4d757374206265206120636f6e747261637420746f206265207468652073746160448201527f62696c69747920706f6f6c2e00000000000000000000000000000000000000006064820152608401610a70565b61013a80546001600160a01b0319166001600160a01b0384169081179091556040519081527feeec3ab95f3c876a3b73235ba92edc637a2edd294b997b5758fbf556f7953b9f90602001610aab565b6001600160a01b0382163314156133995760405162461bcd60e51b815260206004820152601960248201527f4552433732313a20617070726f766520746f2063616c6c6572000000000000006044820152606401610a70565b336000818152606a602090815260408083206001600160a01b03871680855290835292819020805460ff191686151590811790915590519081529192917f17307eab39ab6107e8899845ad3d59bd9653f200f220920489ca2b5937696c31910160405180910390a35050565b600080516020615f3a83398151915261341e8133613c56565b6101415460ff16158215151461349c5760405162461bcd60e51b815260206004820152602960248201527f4d696e74696e672070617573656420616c72656164792073657420746f20746860448201527f69732076616c75652e00000000000000000000000000000000000000000000006064820152608401610a70565b50610141805460ff1916911515919091179055565b600080516020615f3a8339815191526134ca8133613c56565b8161012f5411156135435760405162461bcd60e51b815260206004820152603c60248201527f7365744365696c696e673a204d757374206265206f7665722074686520616d6f60448201527f756e74206f662063757272656e742064656274206365696c696e672e000000006064820152608401610a70565b61012f8290556040518281527f9e88375210357aa5dbeb756c2deee5a1a487e6dcd9fa8f444eda3bc7df41a37b90602001610aab565b600081815261013d602052604081205460ff166135cb5760405162461bcd60e51b815260206004820152601060248201526f15985d5b1d081b5d5cdd08195e1a5cdd60821b6044820152606401610a70565b600082815261013e602090815260408083205461013f90925282205482916135f291613f72565b91509150600081116136465760405162461bcd60e51b815260206004820152601560248201527f43616e6e6f742068617665207a65726f206465627400000000000000000000006044820152606401610a70565b60008161013860009054906101000a90046001600160a01b03166001600160a01b031663313ce5676040518163ffffffff1660e01b815260040160206040518083038186803b15801561369857600080fd5b505afa1580156136ac573d6000803e3d6000fd5b505050506040513d601f19601f820116820180604052508101906136d09190615b4b565b6136db906012615e03565b6136e690600a615d22565b6136f09085615dcd565b6136fa9190615ccb565b905061012e5481101561371257506001949350505050565b506000949350505050565b6137273383614061565b6137995760405162461bcd60e51b815260206004820152603160248201527f4552433732313a207472616e736665722063616c6c6572206973206e6f74206f60448201527f776e6572206e6f7220617070726f7665640000000000000000000000000000006064820152608401610a70565b6137a584848484614b24565b50505050565b600080516020615f3a8339815191526137c48133613c56565b6001600160a01b0382166138405760405162461bcd60e51b815260206004820152602360248201527f507269636520736f757263652063616e6e6f74206265207a65726f206164647260448201527f65737300000000000000000000000000000000000000000000000000000000006064820152608401610a70565b61013780546001600160a01b0319166001600160a01b0384169081179091556040519081527f96e1b2ba899db8310c90fe5b78eeb80bcaaf5de5f0c4549c82c621c2bc778b8090602001610aab565b6000818152606760205260409020546060906001600160a01b031661391c5760405162461bcd60e51b815260206004820152602f60248201527f4552433732314d657461646174613a2055524920717565727920666f72206e6f60448201527f6e6578697374656e7420746f6b656e00000000000000000000000000000000006064820152608401610a70565b600061393360408051602081019091526000815290565b90506000815111613953576040518060200160405280600081525061144a565b8061395d84614bad565b60405160200161396e929190615bb4565b6040516020818303038152906040529392505050565b600082815260fb60205260409020600101546139a08133613c56565b611290838361423e565b600080516020615f3a8339815191526139c38133613c56565b6305f5e100610130546127106139d99190615cb3565b83610135546103e86139eb9190615dcd565b6139f59190615ccb565b6139ff9190615dcd565b10613a0957600080fd5b6101348290556040518281527f29c334aad4ec9c65aa6ad3e720e9ad21ce4d7d6dbbdb44a3f97f2762d49387ca90602001610aab565b600082815261013d6020526040902054829060ff16613a975760405162461bcd60e51b815260206004820152601460248201527315985d5b1d08191bd95cc81b9bdd08195e1a5cdd60621b6044820152606401610a70565b33613aa182611daa565b6001600160a01b03161480613ac1575061013b546001600160a01b031633145b613b0d5760405162461bcd60e51b815260206004820152601960248201527f5661756c74206973206e6f74206f776e656420627920796f75000000000000006044820152606401610a70565b61013854613b26906001600160a01b0316333085614cc7565b600083815261013e6020526040812054613b41908490615cb3565b600085815261013e6020526040902054909150811015613b7157634e487b7160e01b600052600160045260246000fd5b600084815261013e602090815260409182902083905581518681529081018590527f52c4e7127ec34e8fc95f09ce2d06b4f00acca12ccbcdfb246ef67ee6aefe068d910160405180910390a150505050565b600080516020615f3a833981519152613bdc8133613c56565b6305f5e10061013054612710613bf29190615cb3565b61013454613c02856103e8615dcd565b613c0c9190615ccb565b613c169190615dcd565b10613c2057600080fd5b6101358290556040518281527fee1adee4317c98f3606485f5b5d290ec4f4b8e1baee4906df1a86cd549ac864290602001610aab565b600082815260fb602090815260408083206001600160a01b038516845290915290205460ff1661162e57613c94816001600160a01b03166014614d18565b613c9f836020614d18565b604051602001613cb0929190615be3565b60408051601f198184030181529082905262461bcd60e51b8252610a7091600401615ca0565b60006001600160e01b031982167f7965db0b000000000000000000000000000000000000000000000000000000001480610ac25750610ac282614f23565b6000806000613d238585613f72565b909250905060008161013860009054906101000a90046001600160a01b03166001600160a01b031663313ce5676040518163ffffffff1660e01b815260040160206040518083038186803b158015613d7a57600080fd5b505afa158015613d8e573d6000803e3d6000fd5b505050506040513d601f19601f82011682018060405250810190613db29190615b4b565b613dbd906012615e03565b613dc890600a615d22565b613dd29085615dcd565b613ddc9190615ccb565b61012e5411159695505050505050565b60006101335482613dfd9190615cb3565b905061013354811015613e2057634e487b7160e01b600052600160045260246000fd5b61012f54811115613e995760405162461bcd60e51b815260206004820152602960248201527f43616e6e6f74206578636565642064656274206365696c696e6720666f72207460448201527f686973207661756c7400000000000000000000000000000000000000000000006064820152608401610a70565b600083815261013f6020526040812054613eb39084615cb3565b600085815261013f6020526040902054909150811015613ee357634e487b7160e01b600052600160045260246000fd5b613eec83614f61565b600093845261013f6020526040909320929092555050565b600081815260696020526040902080546001600160a01b0319166001600160a01b0384169081179091558190613f3982611daa565b6001600160a01b03167f8c5be1e5ebec7d5bd14f71427d1e84f3dd0314c0f7b2291e5b200ac8c7c3b92560405160405180910390a45050565b600080613f7d610ac8565b613fc95760405162461bcd60e51b815260206004820152601560248201527f5072696365206d7573742062652061626f7665203000000000000000000000006044820152606401610a70565b610132546140195760405162461bcd60e51b815260206004820152601360248201527f506567206d7573742062652061626f76652030000000000000000000000000006044820152606401610a70565b6000614023610ac8565b61402d9086615dcd565b9050600061403b6101325490565b6140459086615dcd565b90506000614054836064615dcd565b9791965090945050505050565b6000818152606760205260408120546001600160a01b03166140da5760405162461bcd60e51b815260206004820152602c60248201527f4552433732313a206f70657261746f7220717565727920666f72206e6f6e657860448201526b34b9ba32b73a103a37b5b2b760a11b6064820152608401610a70565b60006140e583611daa565b9050806001600160a01b0316846001600160a01b031614806141205750836001600160a01b031661411584610c66565b6001600160a01b0316145b80611d1157506001600160a01b038082166000908152606a602090815260408083209388168352929052205460ff16611d11565b60405162461bcd60e51b815260206004820152601260248201527f7472616e736665723a2064697361626c656400000000000000000000000000006044820152606401610a70565b600082815260fb602090815260408083206001600160a01b038516845290915290205460ff1661162e57600082815260fb602090815260408083206001600160a01b03851684529091529020805460ff191660011790556141fa3390565b6001600160a01b0316816001600160a01b0316837f2f8788117e7eff1d82e926ec794901d17c78024a50270940304540a733656f0d60405160405180910390a45050565b600082815260fb602090815260408083206001600160a01b038516845290915290205460ff161561162e57600082815260fb602090815260408083206001600160a01b0385168085529252808320805460ff1916905551339285917ff6391f5c32d9c69d2a47ea670b442974b53935d1edc7fd64eb21e047a839171b9190a45050565b60006142cc82611daa565b90506142da81600084614ff4565b6142e5600083613f04565b6001600160a01b038116600090815260686020526040812080546001929061430e908490615dec565b909155505060008281526067602052604080822080546001600160a01b0319169055518391906001600160a01b038416907fddf252ad1be2c89b69c2b068fc378daa952ba7f163c4a11628f55a4df523b3ef908390a45050565b6001600160a01b0382166143be5760405162461bcd60e51b815260206004820181905260248201527f4552433732313a206d696e7420746f20746865207a65726f20616464726573736044820152606401610a70565b6000818152606760205260409020546001600160a01b0316156144235760405162461bcd60e51b815260206004820152601c60248201527f4552433732313a20746f6b656e20616c7265616479206d696e746564000000006044820152606401610a70565b61442f60008383614ff4565b6001600160a01b0382166000908152606860205260408120805460019290614458908490615cb3565b909155505060008181526067602052604080822080546001600160a01b0319166001600160a01b03861690811790915590518392907fddf252ad1be2c89b69c2b068fc378daa952ba7f163c4a11628f55a4df523b3ef908290a45050565b600054610100900460ff16806144cf575060005460ff16155b6145325760405162461bcd60e51b815260206004820152602e60248201527f496e697469616c697a61626c653a20636f6e747261637420697320616c72656160448201526d191e481a5b9a5d1a585b1a5e995960921b6064820152608401610a70565b600054610100900460ff16158015614554576000805461ffff19166101011790555b8015611da7576000805461ff001916905550565b600054610100900460ff1680614581575060005460ff16155b6145e45760405162461bcd60e51b815260206004820152602e60248201527f496e697469616c697a61626c653a20636f6e747261637420697320616c72656160448201526d191e481a5b9a5d1a585b1a5e995960921b6064820152608401610a70565b600054610100900460ff16158015614606576000805461ffff19166101011790555b82516146199060659060208601906156db565b50815161462d9060669060208501906156db565b508015611290576000805461ff0019169055505050565b600054610100900460ff168061465d575060005460ff16155b6146c05760405162461bcd60e51b815260206004820152602e60248201527f496e697469616c697a61626c653a20636f6e747261637420697320616c72656160448201526d191e481a5b9a5d1a585b1a5e995960921b6064820152608401610a70565b600054610100900460ff161580156146e2576000805461ffff19166101011790555b600160c9558015611da7576000805461ff001916905550565b61162e828261419c565b600082815260fb6020526040808220600101805490849055905190918391839186917fbd79b86ffe0ab8e8776151514217cd7cacd52c909f66475c3af44e129f0b00ff9190a4505050565b6040516001600160a01b0383166024820152604481018290526112909084907fa9059cbb00000000000000000000000000000000000000000000000000000000906064015b60408051601f198184030181529190526020810180517bffffffffffffffffffffffffffffffffffffffffffffffffffffffff166001600160e01b031990931692909217909152614fff565b8061013354101561485a5760405162461bcd60e51b815260206004820152602860248201527f43616e6e6f742067657420726964206f66206d6f72652064656274207468616e60448201527f206578697374732e0000000000000000000000000000000000000000000000006064820152608401610a70565b600082815261013f60205260409020548111156148df5760405162461bcd60e51b815260206004820152602960248201527f43616e6e6f742067657420726964206f66206d6f72652064656274207468616e60448201527f20757365722068617300000000000000000000000000000000000000000000006064820152608401610a70565b600081610133546148f09190615dec565b90506101335481111561491357634e487b7160e01b600052600160045260246000fd5b600083815261013f602052604081205461492e908490615dec565b600085815261013f602052604090205490915081111561495e57634e487b7160e01b600052600160045260246000fd5b613eec83614ab8565b600082815261013e60205260409020548111156149ec5760405162461bcd60e51b815260206004820152603060248201527f43616e6e6f742072656d6f7665206d6f7265207468616e20746865206465706f60448201527f736974656420636f6c6c61746572616c000000000000000000000000000000006064820152608401610a70565b600082815261013e6020526040812054614a07908390615dec565b600084815261013e6020526040902054909150811115614a3757634e487b7160e01b600052600160045260246000fd5b600092835261013e60205260409092209190915550565b61013c54600090815261013e6020526040812054614a6d908390615cb3565b61013c54600090815261013e6020526040902054909150811015614aa157634e487b7160e01b600052600160045260246000fd5b61013c54600090815261013e602052604090205550565b61013354811115614b0b5760405162461bcd60e51b815260206004820152601860248201527f446562742063616e206e6f7420676f2062656c6f7720302e00000000000000006044820152606401610a70565b60008161013354614b1c9190615dec565b610133555050565b614b2f848484614154565b614b3b848484846150e4565b6137a55760405162461bcd60e51b815260206004820152603260248201527f4552433732313a207472616e7366657220746f206e6f6e20455243373231526560448201527f63656976657220696d706c656d656e74657200000000000000000000000000006064820152608401610a70565b606081614bd15750506040805180820190915260018152600360fc1b602082015290565b8160005b8115614bfb5780614be581615ea4565b9150614bf49050600a83615ccb565b9150614bd5565b60008167ffffffffffffffff811115614c2457634e487b7160e01b600052604160045260246000fd5b6040519080825280601f01601f191660200182016040528015614c4e576020820181803683370190505b5090505b8415611d1157614c63600183615dec565b9150614c70600a86615ebf565b614c7b906030615cb3565b60f81b818381518110614c9e57634e487b7160e01b600052603260045260246000fd5b60200101906001600160f81b031916908160001a905350614cc0600a86615ccb565b9450614c52565b6040516001600160a01b03808516602483015283166044820152606481018290526137a59085907f23b872dd0000000000000000000000000000000000000000000000000000000090608401614795565b60606000614d27836002615dcd565b614d32906002615cb3565b67ffffffffffffffff811115614d5857634e487b7160e01b600052604160045260246000fd5b6040519080825280601f01601f191660200182016040528015614d82576020820181803683370190505b509050600360fc1b81600081518110614dab57634e487b7160e01b600052603260045260246000fd5b60200101906001600160f81b031916908160001a9053507f780000000000000000000000000000000000000000000000000000000000000081600181518110614e0457634e487b7160e01b600052603260045260246000fd5b60200101906001600160f81b031916908160001a9053506000614e28846002615dcd565b614e33906001615cb3565b90505b6001811115614ed4577f303132333435363738396162636465660000000000000000000000000000000085600f1660108110614e8257634e487b7160e01b600052603260045260246000fd5b1a60f81b828281518110614ea657634e487b7160e01b600052603260045260246000fd5b60200101906001600160f81b031916908160001a90535060049490941c93614ecd81615e52565b9050614e36565b50831561144a5760405162461bcd60e51b815260206004820181905260248201527f537472696e67733a20686578206c656e67746820696e73756666696369656e746044820152606401610a70565b60006001600160e01b031982167f780e9d63000000000000000000000000000000000000000000000000000000001480610ac25750610ac282615247565b60008161013354614f729190615cb3565b905061012f54811115614fed5760405162461bcd60e51b815260206004820152602260248201527f446562742063616e206e6f7420676f2061626f76652064656274206365696c6960448201527f6e670000000000000000000000000000000000000000000000000000000000006064820152608401610a70565b6101335550565b6112908383836152e2565b6000615054826040518060400160405280602081526020017f5361666545524332303a206c6f772d6c6576656c2063616c6c206661696c6564815250856001600160a01b031661539a9092919063ffffffff16565b805190915015611290578080602001905181019061507291906159b5565b6112905760405162461bcd60e51b815260206004820152602a60248201527f5361666545524332303a204552433230206f7065726174696f6e20646964206e60448201527f6f742073756363656564000000000000000000000000000000000000000000006064820152608401610a70565b60006001600160a01b0384163b1561523c57604051630a85bd0160e11b81526001600160a01b0385169063150b7a0290615128903390899088908890600401615c64565b602060405180830381600087803b15801561514257600080fd5b505af1925050508015615172575060408051601f3d908101601f1916820190925261516f91810190615a27565b60015b615222573d8080156151a0576040519150601f19603f3d011682016040523d82523d6000602084013e6151a5565b606091505b50805161521a5760405162461bcd60e51b815260206004820152603260248201527f4552433732313a207472616e7366657220746f206e6f6e20455243373231526560448201527f63656976657220696d706c656d656e74657200000000000000000000000000006064820152608401610a70565b805181602001fd5b6001600160e01b031916630a85bd0160e11b149050611d11565b506001949350505050565b60006001600160e01b031982167f80ac58cd0000000000000000000000000000000000000000000000000000000014806152aa57506001600160e01b031982167f5b5e139f00000000000000000000000000000000000000000000000000000000145b80610ac257507f01ffc9a7000000000000000000000000000000000000000000000000000000006001600160e01b0319831614610ac2565b6001600160a01b03831661533d5761533881609980546000838152609a60205260408120829055600182018355919091527f72a152ddfb8e864297c917af52ea6c1c68aead0fee1a62673fcc7e0c94979d000155565b615360565b816001600160a01b0316836001600160a01b0316146153605761536083826153a9565b6001600160a01b0382166153775761129081615446565b826001600160a01b0316826001600160a01b03161461129057611290828261551f565b6060611d118484600085615563565b600060016153b684611ffc565b6153c09190615dec565b600083815260986020526040902054909150808214615413576001600160a01b03841660009081526097602090815260408083208584528252808320548484528184208190558352609890915290208190555b5060009182526098602090815260408084208490556001600160a01b039094168352609781528383209183525290812055565b60995460009061545890600190615dec565b6000838152609a60205260408120546099805493945090928490811061548e57634e487b7160e01b600052603260045260246000fd5b9060005260206000200154905080609983815481106154bd57634e487b7160e01b600052603260045260246000fd5b6000918252602080832090910192909255828152609a9091526040808220849055858252812055609980548061550357634e487b7160e01b600052603160045260246000fd5b6001900381819060005260206000200160009055905550505050565b600061552a83611ffc565b6001600160a01b039093166000908152609760209081526040808320868452825280832085905593825260989052919091209190915550565b6060824710156155db5760405162461bcd60e51b815260206004820152602660248201527f416464726573733a20696e73756666696369656e742062616c616e636520666f60448201527f722063616c6c00000000000000000000000000000000000000000000000000006064820152608401610a70565b843b6156295760405162461bcd60e51b815260206004820152601d60248201527f416464726573733a2063616c6c20746f206e6f6e2d636f6e74726163740000006044820152606401610a70565b600080866001600160a01b031685876040516156459190615b98565b60006040518083038185875af1925050503d8060008114615682576040519150601f19603f3d011682016040523d82523d6000602084013e615687565b606091505b50915091506156978282866156a2565b979650505050505050565b606083156156b157508161144a565b8251156156c15782518084602001fd5b8160405162461bcd60e51b8152600401610a709190615ca0565b8280546156e790615e69565b90600052602060002090601f016020900481019282615709576000855561574f565b82601f1061572257805160ff191683800117855561574f565b8280016001018555821561574f579182015b8281111561574f578251825591602001919060010190615734565b5061575b92915061575f565b5090565b5b8082111561575b5760008155600101615760565b600067ffffffffffffffff8084111561578f5761578f615eff565b604051601f8501601f19908116603f011681019082821181831017156157b7576157b7615eff565b816040528093508581528686860111156157d057600080fd5b858560208301376000602087830101525050509392505050565b80356001600160a01b0381168114610bcf57600080fd5b600082601f830112615811578081fd5b61144a83833560208501615774565b805169ffffffffffffffffffff81168114610bcf57600080fd5b60006020828403121561584b578081fd5b61144a826157ea565b60008060408385031215615866578081fd5b61586f836157ea565b915061587d602084016157ea565b90509250929050565b60008060006060848603121561589a578081fd5b6158a3846157ea565b92506158b1602085016157ea565b9150604084013590509250925092565b600080600080608085870312156158d6578081fd5b6158df856157ea565b93506158ed602086016157ea565b925060408501359150606085013567ffffffffffffffff81111561590f578182fd5b8501601f8101871361591f578182fd5b61592e87823560208401615774565b91505092959194509250565b6000806040838503121561594c578182fd5b615955836157ea565b9150602083013561596581615f15565b809150509250929050565b60008060408385031215615982578182fd5b61598b836157ea565b946020939093013593505050565b6000602082840312156159aa578081fd5b813561144a81615f15565b6000602082840312156159c6578081fd5b815161144a81615f15565b6000602082840312156159e2578081fd5b5035919050565b600080604083850312156159fb578182fd5b8235915061587d602084016157ea565b600060208284031215615a1c578081fd5b813561144a81615f23565b600060208284031215615a38578081fd5b815161144a81615f23565b600060208284031215615a54578081fd5b5051919050565b600080600080600060a08688031215615a72578283fd5b85359450615a82602087016157ea565b9350604086013567ffffffffffffffff80821115615a9e578485fd5b615aaa89838a01615801565b94506060880135915080821115615abf578283fd5b50615acc88828901615801565b925050615adb608087016157ea565b90509295509295909350565b60008060408385031215615af9578182fd5b50508035926020909101359150565b600080600080600060a08688031215615b1f578283fd5b615b2886615820565b9450602086015193506040860151925060608601519150615adb60808701615820565b600060208284031215615b5c578081fd5b815160ff8116811461144a578182fd5b60008151808452615b84816020860160208601615e26565b601f01601f19169290920160200192915050565b60008251615baa818460208701615e26565b9190910192915050565b60008351615bc6818460208801615e26565b835190830190615bda818360208801615e26565b01949350505050565b7f416363657373436f6e74726f6c3a206163636f756e7420000000000000000000815260008351615c1b816017850160208801615e26565b7f206973206d697373696e6720726f6c65200000000000000000000000000000006017918401918201528351615c58816028840160208801615e26565b01602801949350505050565b60006001600160a01b03808716835280861660208401525083604083015260806060830152615c966080830184615b6c565b9695505050505050565b60208152600061144a6020830184615b6c565b60008219821115615cc657615cc6615ed3565b500190565b600082615cda57615cda615ee9565b500490565b600181815b80851115615d1a578160001904821115615d0057615d00615ed3565b80851615615d0d57918102915b93841c9390800290615ce4565b509250929050565b600061144a60ff841683600082615d3b57506001610ac2565b81615d4857506000610ac2565b8160018114615d5e5760028114615d6857615d84565b6001915050610ac2565b60ff841115615d7957615d79615ed3565b50506001821b610ac2565b5060208310610133831016604e8410600b8410161715615da7575081810a610ac2565b615db18383615cdf565b8060001904821115615dc557615dc5615ed3565b029392505050565b6000816000190483118215151615615de757615de7615ed3565b500290565b600082821015615dfe57615dfe615ed3565b500390565b600060ff821660ff841680821015615e1d57615e1d615ed3565b90039392505050565b60005b83811015615e41578181015183820152602001615e29565b838111156137a55750506000910152565b600081615e6157615e61615ed3565b506000190190565b600181811c90821680615e7d57607f821691505b60208210811415615e9e57634e487b7160e01b600052602260045260246000fd5b50919050565b6000600019821415615eb857615eb8615ed3565b5060010190565b600082615ece57615ece615ee9565b500690565b634e487b7160e01b600052601160045260246000fd5b634e487b7160e01b600052601260045260246000fd5b634e487b7160e01b600052604160045260246000fd5b8015158114611da757600080fd5b6001600160e01b031981168114611da757600080fdfee1dcbdb91df27212a29bc27177c840cf2f819ecf2187432e1fac86c2dd5dfca9a26469706673582212207e5c561a838ef63f5b4e2922cbc756b7219caf25d043c2767a203e000fc3982164736f6c63430008040033",
  "devdoc": {
    "kind": "dev",
    "methods": {
      "approve(address,uint256)": {
        "details": "See {IERC721-approve}."
      },
      "balanceOf(address)": {
        "details": "See {IERC721-balanceOf}."
      },
      "borrowToken(uint256,uint256)": {
        "details": "Lets a vault owner borrow stablecoin against collateral Requirements: - Vault type must exist - Vault must exist - Must borrow greater than 0 stablecoin - Must be below the debt ceiling when borrowing - Must maintain minimum collateral percentage Emits BorrowToken event"
      },
      "checkCost(uint256)": {
        "details": "checks cost of liquidating"
      },
      "checkExtract(uint256)": {
        "details": "checks how much token gets extract"
      },
      "checkLiquidation(uint256)": {
        "details": "checks if the vault can be liquidated"
      },
      "createVault()": {
        "details": "Create a vault for interacting with the platform Emits a CreateVault event"
      },
      "depositCollateral(uint256,uint256)": {
        "details": "ALlows vault owner to deposit ERC20 collateral Emits Deposit Collateral event"
      },
      "destroyVault(uint256)": {
        "details": "User can destroy a vault. Will return all collateral upon destroying. Emits a DestroyVault event Requirements: - User must have paid off all outstanding debt first"
      },
      "getApproved(uint256)": {
        "details": "See {IERC721-getApproved}."
      },
      "getPaid(address)": {
        "details": "pays the user Returns the ERC20 token that was liquidated"
      },
      "getPricePeg()": {
        "details": "returns the peg "
      },
      "getPriceSource()": {
        "details": "returns the chainlink pricefeed price"
      },
      "getRoleAdmin(bytes32)": {
        "details": "Returns the admin role that controls `role`. See {grantRole} and {revokeRole}. To change a role's admin, use {_setRoleAdmin}."
      },
      "grantRole(bytes32,address)": {
        "details": "Grants `role` to `account`. If `account` had not been already granted `role`, emits a {RoleGranted} event. Requirements: - the caller must have ``role``'s admin role."
      },
      "hasRole(bytes32,address)": {
        "details": "Returns `true` if `account` has been granted `role`."
      },
      "isApprovedForAll(address,address)": {
        "details": "See {IERC721-isApprovedForAll}."
      },
      "liquidateVault(uint256)": {
        "details": "allows liquidator to buy out a risky vault Requirements: - Vault id must exist - Vault must be below minimum collateral percentage - User must have enough of the token to pay vault off Emits BuyRiskyVault event"
      },
      "name()": {
        "details": "See {IERC721Metadata-name}."
      },
      "ownerOf(uint256)": {
        "details": "See {IERC721-ownerOf}."
      },
      "payBackToken(uint256,uint256)": {
        "details": "Pay back the stablecoin to reduce debt Requirements: - User must have enough balance to repay `amount` - Cannot pay back more than the required debt. `amount` must be less than debt."
      },
      "renounceRole(bytes32,address)": {
        "details": "Revokes `role` from the calling account. Roles are often managed via {grantRole} and {revokeRole}: this function's purpose is to provide a mechanism for accounts to lose their privileges if they are compromised (such as when a trusted device is misplaced). If the calling account had been granted `role`, emits a {RoleRevoked} event. Requirements: - the caller must be `account`."
      },
      "revokeRole(bytes32,address)": {
        "details": "Revokes `role` from `account`. If `account` had been granted `role`, emits a {RoleRevoked} event. Requirements: - the caller must have ``role``'s admin role."
      },
      "safeTransferFrom(address,address,uint256)": {
        "details": "See {IERC721-safeTransferFrom}."
      },
      "safeTransferFrom(address,address,uint256,bytes)": {
        "details": "See {IERC721-safeTransferFrom}."
      },
      "setApprovalForAll(address,bool)": {
        "details": "See {IERC721-setApprovalForAll}."
      },
      "setClosingFee(uint256)": {
        "details": "Set the closing fee for this vault"
      },
      "setDebtCeiling(uint256)": {
        "details": "Set the debt ceiling for this vault"
      },
      "setDebtRatio(uint256)": {
        "details": "sets the debt ratio"
      },
      "setGainRatio(uint256)": {
        "details": "sets the gain ratio"
      },
      "setGateway(address)": {
        "details": "Set the WAVAX gateway for this vault if it needs one"
      },
      "setMinimumCollateralPercentage(uint256)": {
        "details": "sets the minimum collateral percentage"
      },
      "setMinimumDebt(uint256)": {
        "details": "sets the minimum debt"
      },
      "setMintingPaused(bool)": {
        "details": "Pauses the bank minting capabalities."
      },
      "setOpeningFee(uint256)": {
        "details": "Set the opening fee for this vault"
      },
      "setPriceSource(address)": {
        "details": "Set the price source for this vault"
      },
      "setStabilityPool(address)": {
        "details": "Set the stability pool (liquidator) for this vault"
      },
      "setTokenPeg(uint256)": {
        "details": "Set the token peg for this vault"
      },
      "setTreasury(uint256)": {
        "details": "Set the treasury vault for this vault (vault that gets all the fees)"
      },
      "symbol()": {
        "details": "See {IERC721Metadata-symbol}."
      },
      "tokenByIndex(uint256)": {
        "details": "See {IERC721Enumerable-tokenByIndex}."
      },
      "tokenOfOwnerByIndex(address,uint256)": {
        "details": "See {IERC721Enumerable-tokenOfOwnerByIndex}."
      },
      "tokenURI(uint256)": {
        "details": "See {IERC721Metadata-tokenURI}."
      },
      "totalSupply()": {
        "details": "See {IERC721Enumerable-totalSupply}."
      },
      "transferFrom(address,address,uint256)": {
        "details": "See {IERC721-transferFrom}."
      },
      "transferVault(uint256,address)": {
        "details": "user can transfer vault to another address Emits TransferVault event"
      },
      "vaultExists(uint256)": {
        "details": "allows checking if vault exists or not"
      },
      "withdrawCollateral(uint256,uint256)": {
        "details": "allows vault owner to withdraw the collateral Requirements: - Withdraw amount is less than or equal to current collateral - Collateral withdrawal amount does not put debt below minimum collateral Emits WithdrawCollateral event"
      }
    },
    "version": 1
  },
  "userdoc": {
    "kind": "user",
    "methods": {
      "minimumCollateralPercentage()": {
        "notice": "Set all of these upon initalization"
      }
    },
    "version": 1
  },
  "storageLayout": {
    "storage": [
      {
        "astId": 594,
        "contract": "apps/avai/src/contracts/Bank.sol:Bank",
        "label": "_initialized",
        "offset": 0,
        "slot": "0",
        "type": "t_bool"
      },
      {
        "astId": 597,
        "contract": "apps/avai/src/contracts/Bank.sol:Bank",
        "label": "_initializing",
        "offset": 1,
        "slot": "0",
        "type": "t_bool"
      },
      {
        "astId": 3406,
        "contract": "apps/avai/src/contracts/Bank.sol:Bank",
        "label": "__gap",
        "offset": 0,
        "slot": "1",
        "type": "t_array(t_uint256)50_storage"
      },
      {
        "astId": 4245,
        "contract": "apps/avai/src/contracts/Bank.sol:Bank",
        "label": "__gap",
        "offset": 0,
        "slot": "51",
        "type": "t_array(t_uint256)50_storage"
      },
      {
        "astId": 1743,
        "contract": "apps/avai/src/contracts/Bank.sol:Bank",
        "label": "_name",
        "offset": 0,
        "slot": "101",
        "type": "t_string_storage"
      },
      {
        "astId": 1745,
        "contract": "apps/avai/src/contracts/Bank.sol:Bank",
        "label": "_symbol",
        "offset": 0,
        "slot": "102",
        "type": "t_string_storage"
      },
      {
        "astId": 1749,
        "contract": "apps/avai/src/contracts/Bank.sol:Bank",
        "label": "_owners",
        "offset": 0,
        "slot": "103",
        "type": "t_mapping(t_uint256,t_address)"
      },
      {
        "astId": 1753,
        "contract": "apps/avai/src/contracts/Bank.sol:Bank",
        "label": "_balances",
        "offset": 0,
        "slot": "104",
        "type": "t_mapping(t_address,t_uint256)"
      },
      {
        "astId": 1757,
        "contract": "apps/avai/src/contracts/Bank.sol:Bank",
        "label": "_tokenApprovals",
        "offset": 0,
        "slot": "105",
        "type": "t_mapping(t_uint256,t_address)"
      },
      {
        "astId": 1763,
        "contract": "apps/avai/src/contracts/Bank.sol:Bank",
        "label": "_operatorApprovals",
        "offset": 0,
        "slot": "106",
        "type": "t_mapping(t_address,t_mapping(t_address,t_bool))"
      },
      {
        "astId": 2559,
        "contract": "apps/avai/src/contracts/Bank.sol:Bank",
        "label": "__gap",
        "offset": 0,
        "slot": "107",
        "type": "t_array(t_uint256)44_storage"
      },
      {
        "astId": 2733,
        "contract": "apps/avai/src/contracts/Bank.sol:Bank",
        "label": "_ownedTokens",
        "offset": 0,
        "slot": "151",
        "type": "t_mapping(t_address,t_mapping(t_uint256,t_uint256))"
      },
      {
        "astId": 2737,
        "contract": "apps/avai/src/contracts/Bank.sol:Bank",
        "label": "_ownedTokensIndex",
        "offset": 0,
        "slot": "152",
        "type": "t_mapping(t_uint256,t_uint256)"
      },
      {
        "astId": 2740,
        "contract": "apps/avai/src/contracts/Bank.sol:Bank",
        "label": "_allTokens",
        "offset": 0,
        "slot": "153",
        "type": "t_array(t_uint256)dyn_storage"
      },
      {
        "astId": 2744,
        "contract": "apps/avai/src/contracts/Bank.sol:Bank",
        "label": "_allTokensIndex",
        "offset": 0,
        "slot": "154",
        "type": "t_mapping(t_uint256,t_uint256)"
      },
      {
        "astId": 3059,
        "contract": "apps/avai/src/contracts/Bank.sol:Bank",
        "label": "__gap",
        "offset": 0,
        "slot": "155",
        "type": "t_array(t_uint256)46_storage"
      },
      {
        "astId": 761,
        "contract": "apps/avai/src/contracts/Bank.sol:Bank",
        "label": "_status",
        "offset": 0,
        "slot": "201",
        "type": "t_uint256"
      },
      {
        "astId": 804,
        "contract": "apps/avai/src/contracts/Bank.sol:Bank",
        "label": "__gap",
        "offset": 0,
        "slot": "202",
        "type": "t_array(t_uint256)49_storage"
      },
      {
        "astId": 94,
        "contract": "apps/avai/src/contracts/Bank.sol:Bank",
        "label": "_roles",
        "offset": 0,
        "slot": "251",
        "type": "t_mapping(t_bytes32,t_struct(RoleData)89_storage)"
      },
      {
        "astId": 379,
        "contract": "apps/avai/src/contracts/Bank.sol:Bank",
        "label": "__gap",
        "offset": 0,
        "slot": "252",
        "type": "t_array(t_uint256)49_storage"
      },
      {
        "astId": 8626,
        "contract": "apps/avai/src/contracts/Bank.sol:Bank",
        "label": "_userVaultIds",
        "offset": 0,
        "slot": "301",
        "type": "t_struct(Counter)3413_storage"
      },
      {
        "astId": 8629,
        "contract": "apps/avai/src/contracts/Bank.sol:Bank",
        "label": "minimumCollateralPercentage",
        "offset": 0,
        "slot": "302",
        "type": "t_uint256"
      },
      {
        "astId": 8631,
        "contract": "apps/avai/src/contracts/Bank.sol:Bank",
        "label": "debtCeiling",
        "offset": 0,
        "slot": "303",
        "type": "t_uint256"
      },
      {
        "astId": 8633,
        "contract": "apps/avai/src/contracts/Bank.sol:Bank",
        "label": "closingFee",
        "offset": 0,
        "slot": "304",
        "type": "t_uint256"
      },
      {
        "astId": 8635,
        "contract": "apps/avai/src/contracts/Bank.sol:Bank",
        "label": "openingFee",
        "offset": 0,
        "slot": "305",
        "type": "t_uint256"
      },
      {
        "astId": 8637,
        "contract": "apps/avai/src/contracts/Bank.sol:Bank",
        "label": "tokenPeg",
        "offset": 0,
        "slot": "306",
        "type": "t_uint256"
      },
      {
        "astId": 8639,
        "contract": "apps/avai/src/contracts/Bank.sol:Bank",
        "label": "totalDebt",
        "offset": 0,
        "slot": "307",
        "type": "t_uint256"
      },
      {
        "astId": 8641,
        "contract": "apps/avai/src/contracts/Bank.sol:Bank",
        "label": "debtRatio",
        "offset": 0,
        "slot": "308",
        "type": "t_uint256"
      },
      {
        "astId": 8643,
        "contract": "apps/avai/src/contracts/Bank.sol:Bank",
        "label": "gainRatio",
        "offset": 0,
        "slot": "309",
        "type": "t_uint256"
      },
      {
        "astId": 8647,
        "contract": "apps/avai/src/contracts/Bank.sol:Bank",
        "label": "tokenDebt",
        "offset": 0,
        "slot": "310",
        "type": "t_mapping(t_address,t_uint256)"
      },
      {
        "astId": 8650,
        "contract": "apps/avai/src/contracts/Bank.sol:Bank",
        "label": "priceSource",
        "offset": 0,
        "slot": "311",
        "type": "t_contract(AggregatorV3Interface)45"
      },
      {
        "astId": 8653,
        "contract": "apps/avai/src/contracts/Bank.sol:Bank",
        "label": "token",
        "offset": 0,
        "slot": "312",
        "type": "t_contract(IERC20Metadata)6252"
      },
      {
        "astId": 8656,
        "contract": "apps/avai/src/contracts/Bank.sol:Bank",
        "label": "stablecoin",
        "offset": 0,
        "slot": "313",
        "type": "t_contract(IStablecoin)16929"
      },
      {
        "astId": 8658,
        "contract": "apps/avai/src/contracts/Bank.sol:Bank",
        "label": "stabilityPool",
        "offset": 0,
        "slot": "314",
        "type": "t_address"
      },
      {
        "astId": 8660,
        "contract": "apps/avai/src/contracts/Bank.sol:Bank",
        "label": "gateway",
        "offset": 0,
        "slot": "315",
        "type": "t_address"
      },
      {
        "astId": 8662,
        "contract": "apps/avai/src/contracts/Bank.sol:Bank",
        "label": "treasury",
        "offset": 0,
        "slot": "316",
        "type": "t_uint256"
      },
      {
        "astId": 8666,
        "contract": "apps/avai/src/contracts/Bank.sol:Bank",
        "label": "vaultExistence",
        "offset": 0,
        "slot": "317",
        "type": "t_mapping(t_uint256,t_bool)"
      },
      {
        "astId": 8670,
        "contract": "apps/avai/src/contracts/Bank.sol:Bank",
        "label": "vaultCollateral",
        "offset": 0,
        "slot": "318",
        "type": "t_mapping(t_uint256,t_uint256)"
      },
      {
        "astId": 8674,
        "contract": "apps/avai/src/contracts/Bank.sol:Bank",
        "label": "vaultDebt",
        "offset": 0,
        "slot": "319",
        "type": "t_mapping(t_uint256,t_uint256)"
      },
      {
        "astId": 8676,
        "contract": "apps/avai/src/contracts/Bank.sol:Bank",
        "label": "minimumDebt",
        "offset": 0,
        "slot": "320",
        "type": "t_uint256"
      },
      {
        "astId": 8678,
        "contract": "apps/avai/src/contracts/Bank.sol:Bank",
        "label": "mintingPaused",
        "offset": 0,
        "slot": "321",
        "type": "t_bool"
      }
    ],
    "types": {
      "t_address": {
        "encoding": "inplace",
        "label": "address",
        "numberOfBytes": "20"
      },
      "t_array(t_uint256)44_storage": {
        "base": "t_uint256",
        "encoding": "inplace",
        "label": "uint256[44]",
        "numberOfBytes": "1408"
      },
      "t_array(t_uint256)46_storage": {
        "base": "t_uint256",
        "encoding": "inplace",
        "label": "uint256[46]",
        "numberOfBytes": "1472"
      },
      "t_array(t_uint256)49_storage": {
        "base": "t_uint256",
        "encoding": "inplace",
        "label": "uint256[49]",
        "numberOfBytes": "1568"
      },
      "t_array(t_uint256)50_storage": {
        "base": "t_uint256",
        "encoding": "inplace",
        "label": "uint256[50]",
        "numberOfBytes": "1600"
      },
      "t_array(t_uint256)dyn_storage": {
        "base": "t_uint256",
        "encoding": "dynamic_array",
        "label": "uint256[]",
        "numberOfBytes": "32"
      },
      "t_bool": {
        "encoding": "inplace",
        "label": "bool",
        "numberOfBytes": "1"
      },
      "t_bytes32": {
        "encoding": "inplace",
        "label": "bytes32",
        "numberOfBytes": "32"
      },
      "t_contract(AggregatorV3Interface)45": {
        "encoding": "inplace",
        "label": "contract AggregatorV3Interface",
        "numberOfBytes": "20"
      },
      "t_contract(IERC20Metadata)6252": {
        "encoding": "inplace",
        "label": "contract IERC20Metadata",
        "numberOfBytes": "20"
      },
      "t_contract(IStablecoin)16929": {
        "encoding": "inplace",
        "label": "contract IStablecoin",
        "numberOfBytes": "20"
      },
      "t_mapping(t_address,t_bool)": {
        "encoding": "mapping",
        "key": "t_address",
        "label": "mapping(address => bool)",
        "numberOfBytes": "32",
        "value": "t_bool"
      },
      "t_mapping(t_address,t_mapping(t_address,t_bool))": {
        "encoding": "mapping",
        "key": "t_address",
        "label": "mapping(address => mapping(address => bool))",
        "numberOfBytes": "32",
        "value": "t_mapping(t_address,t_bool)"
      },
      "t_mapping(t_address,t_mapping(t_uint256,t_uint256))": {
        "encoding": "mapping",
        "key": "t_address",
        "label": "mapping(address => mapping(uint256 => uint256))",
        "numberOfBytes": "32",
        "value": "t_mapping(t_uint256,t_uint256)"
      },
      "t_mapping(t_address,t_uint256)": {
        "encoding": "mapping",
        "key": "t_address",
        "label": "mapping(address => uint256)",
        "numberOfBytes": "32",
        "value": "t_uint256"
      },
      "t_mapping(t_bytes32,t_struct(RoleData)89_storage)": {
        "encoding": "mapping",
        "key": "t_bytes32",
        "label": "mapping(bytes32 => struct AccessControlUpgradeable.RoleData)",
        "numberOfBytes": "32",
        "value": "t_struct(RoleData)89_storage"
      },
      "t_mapping(t_uint256,t_address)": {
        "encoding": "mapping",
        "key": "t_uint256",
        "label": "mapping(uint256 => address)",
        "numberOfBytes": "32",
        "value": "t_address"
      },
      "t_mapping(t_uint256,t_bool)": {
        "encoding": "mapping",
        "key": "t_uint256",
        "label": "mapping(uint256 => bool)",
        "numberOfBytes": "32",
        "value": "t_bool"
      },
      "t_mapping(t_uint256,t_uint256)": {
        "encoding": "mapping",
        "key": "t_uint256",
        "label": "mapping(uint256 => uint256)",
        "numberOfBytes": "32",
        "value": "t_uint256"
      },
      "t_string_storage": {
        "encoding": "bytes",
        "label": "string",
        "numberOfBytes": "32"
      },
      "t_struct(Counter)3413_storage": {
        "encoding": "inplace",
        "label": "struct CountersUpgradeable.Counter",
        "members": [
          {
            "astId": 3412,
            "contract": "apps/avai/src/contracts/Bank.sol:Bank",
            "label": "_value",
            "offset": 0,
            "slot": "0",
            "type": "t_uint256"
          }
        ],
        "numberOfBytes": "32"
      },
      "t_struct(RoleData)89_storage": {
        "encoding": "inplace",
        "label": "struct AccessControlUpgradeable.RoleData",
        "members": [
          {
            "astId": 86,
            "contract": "apps/avai/src/contracts/Bank.sol:Bank",
            "label": "members",
            "offset": 0,
            "slot": "0",
            "type": "t_mapping(t_address,t_bool)"
          },
          {
            "astId": 88,
            "contract": "apps/avai/src/contracts/Bank.sol:Bank",
            "label": "adminRole",
            "offset": 0,
            "slot": "1",
            "type": "t_bytes32"
          }
        ],
        "numberOfBytes": "64"
      },
      "t_uint256": {
        "encoding": "inplace",
        "label": "uint256",
        "numberOfBytes": "32"
      }
    }
  }
}