{
  "address": "0xc8693e1E72c9BC195c563153d43664C0CF543dDD",
  "abi": [
    {
      "anonymous": false,
      "inputs": [
        {
          "indexed": true,
          "internalType": "address",
          "name": "previousOwner",
          "type": "address"
        },
        {
          "indexed": true,
          "internalType": "address",
          "name": "newOwner",
          "type": "address"
        }
      ],
      "name": "OwnershipTransferred",
      "type": "event"
    },
    {
      "inputs": [
        {
          "internalType": "address",
          "name": "bank",
          "type": "address"
        }
      ],
      "name": "addBank",
      "outputs": [],
      "stateMutability": "nonpayable",
      "type": "function"
    },
    {
      "inputs": [
        {
          "internalType": "address",
          "name": "lp",
          "type": "address"
        }
      ],
      "name": "addLPToken",
      "outputs": [],
      "stateMutability": "nonpayable",
      "type": "function"
    },
    {
      "inputs": [
        {
          "internalType": "address",
          "name": "token",
          "type": "address"
        },
        {
          "internalType": "address",
          "name": "lp",
          "type": "address"
        }
      ],
      "name": "addSwapLP",
      "outputs": [],
      "stateMutability": "nonpayable",
      "type": "function"
    },
    {
      "inputs": [
        {
          "internalType": "address",
          "name": "yak",
          "type": "address"
        }
      ],
      "name": "addYakStrat",
      "outputs": [],
      "stateMutability": "nonpayable",
      "type": "function"
    },
    {
      "inputs": [],
      "name": "allocate",
      "outputs": [],
      "stateMutability": "nonpayable",
      "type": "function"
    },
    {
      "inputs": [
        {
          "internalType": "uint256",
          "name": "",
          "type": "uint256"
        }
      ],
      "name": "banks",
      "outputs": [
        {
          "internalType": "address",
          "name": "",
          "type": "address"
        }
      ],
      "stateMutability": "view",
      "type": "function"
    },
    {
      "inputs": [
        {
          "internalType": "address",
          "name": "_dev",
          "type": "address"
        }
      ],
      "name": "changeDev",
      "outputs": [],
      "stateMutability": "nonpayable",
      "type": "function"
    },
    {
      "inputs": [
        {
          "internalType": "uint256",
          "name": "_treasuryAmount",
          "type": "uint256"
        },
        {
          "internalType": "uint256",
          "name": "_devAmount",
          "type": "uint256"
        },
        {
          "internalType": "uint256",
          "name": "_seafundAmount",
          "type": "uint256"
        },
        {
          "internalType": "uint256",
          "name": "_podAmount",
          "type": "uint256"
        }
      ],
      "name": "changeDistributionRatio",
      "outputs": [],
      "stateMutability": "nonpayable",
      "type": "function"
    },
    {
      "inputs": [
        {
          "internalType": "address",
          "name": "_seafund",
          "type": "address"
        }
      ],
      "name": "changeSeafund",
      "outputs": [],
      "stateMutability": "nonpayable",
      "type": "function"
    },
    {
      "inputs": [
        {
          "internalType": "address",
          "name": "_treasury",
          "type": "address"
        }
      ],
      "name": "changeTreasury",
      "outputs": [],
      "stateMutability": "nonpayable",
      "type": "function"
    },
    {
      "inputs": [],
      "name": "dev",
      "outputs": [
        {
          "internalType": "address",
          "name": "",
          "type": "address"
        }
      ],
      "stateMutability": "view",
      "type": "function"
    },
    {
      "inputs": [],
      "name": "devAmount",
      "outputs": [
        {
          "internalType": "uint256",
          "name": "",
          "type": "uint256"
        }
      ],
      "stateMutability": "view",
      "type": "function"
    },
    {
      "inputs": [],
      "name": "getBankCount",
      "outputs": [
        {
          "internalType": "uint256",
          "name": "",
          "type": "uint256"
        }
      ],
      "stateMutability": "view",
      "type": "function"
    },
    {
      "inputs": [],
      "name": "getLPTokens",
      "outputs": [
        {
          "internalType": "uint256",
          "name": "",
          "type": "uint256"
        }
      ],
      "stateMutability": "view",
      "type": "function"
    },
    {
      "inputs": [],
      "name": "getTokens",
      "outputs": [
        {
          "internalType": "uint256",
          "name": "",
          "type": "uint256"
        }
      ],
      "stateMutability": "view",
      "type": "function"
    },
    {
      "inputs": [],
      "name": "getYakCount",
      "outputs": [
        {
          "internalType": "uint256",
          "name": "",
          "type": "uint256"
        }
      ],
      "stateMutability": "view",
      "type": "function"
    },
    {
      "inputs": [
        {
          "internalType": "address",
          "name": "_pod",
          "type": "address"
        },
        {
          "internalType": "address",
          "name": "_orca",
          "type": "address"
        },
        {
          "internalType": "address",
          "name": "_wavax",
          "type": "address"
        },
        {
          "internalType": "address",
          "name": "_usdc",
          "type": "address"
        },
        {
          "internalType": "address",
          "name": "_seafund",
          "type": "address"
        },
        {
          "internalType": "address",
          "name": "_treasury",
          "type": "address"
        },
        {
          "internalType": "address",
          "name": "_dev",
          "type": "address"
        },
        {
          "internalType": "address",
          "name": "_orcaLP",
          "type": "address"
        },
        {
          "internalType": "address",
          "name": "_usdcLP",
          "type": "address"
        }
      ],
      "name": "initialize",
      "outputs": [],
      "stateMutability": "nonpayable",
      "type": "function"
    },
    {
      "inputs": [
        {
          "internalType": "uint256",
          "name": "",
          "type": "uint256"
        }
      ],
      "name": "lpTokens",
      "outputs": [
        {
          "internalType": "address",
          "name": "",
          "type": "address"
        }
      ],
      "stateMutability": "view",
      "type": "function"
    },
    {
      "inputs": [],
      "name": "owner",
      "outputs": [
        {
          "internalType": "address",
          "name": "",
          "type": "address"
        }
      ],
      "stateMutability": "view",
      "type": "function"
    },
    {
      "inputs": [],
      "name": "pod",
      "outputs": [
        {
          "internalType": "contract IERC20",
          "name": "",
          "type": "address"
        }
      ],
      "stateMutability": "view",
      "type": "function"
    },
    {
      "inputs": [],
      "name": "podAmount",
      "outputs": [
        {
          "internalType": "uint256",
          "name": "",
          "type": "uint256"
        }
      ],
      "stateMutability": "view",
      "type": "function"
    },
    {
      "inputs": [],
      "name": "renounceOwnership",
      "outputs": [],
      "stateMutability": "nonpayable",
      "type": "function"
    },
    {
      "inputs": [],
      "name": "seafund",
      "outputs": [
        {
          "internalType": "address",
          "name": "",
          "type": "address"
        }
      ],
      "stateMutability": "view",
      "type": "function"
    },
    {
      "inputs": [],
      "name": "seafundAmount",
      "outputs": [
        {
          "internalType": "uint256",
          "name": "",
          "type": "uint256"
        }
      ],
      "stateMutability": "view",
      "type": "function"
    },
    {
      "inputs": [
        {
          "internalType": "uint256",
          "name": "",
          "type": "uint256"
        }
      ],
      "name": "tokens",
      "outputs": [
        {
          "internalType": "address",
          "name": "",
          "type": "address"
        }
      ],
      "stateMutability": "view",
      "type": "function"
    },
    {
      "inputs": [
        {
          "internalType": "address payable",
          "name": "_to",
          "type": "address"
        },
        {
          "internalType": "uint256",
          "name": "_amount",
          "type": "uint256"
        }
      ],
      "name": "transferAvax",
      "outputs": [],
      "stateMutability": "nonpayable",
      "type": "function"
    },
    {
      "inputs": [
        {
          "internalType": "uint256",
          "name": "bank",
          "type": "uint256"
        },
        {
          "internalType": "uint256",
          "name": "vault",
          "type": "uint256"
        },
        {
          "internalType": "address",
          "name": "to",
          "type": "address"
        }
      ],
      "name": "transferBankVault",
      "outputs": [],
      "stateMutability": "nonpayable",
      "type": "function"
    },
    {
      "inputs": [
        {
          "internalType": "address",
          "name": "newOwner",
          "type": "address"
        }
      ],
      "name": "transferOwnership",
      "outputs": [],
      "stateMutability": "nonpayable",
      "type": "function"
    },
    {
      "inputs": [
        {
          "internalType": "address",
          "name": "_to",
          "type": "address"
        },
        {
          "internalType": "address",
          "name": "_token",
          "type": "address"
        },
        {
          "internalType": "uint256",
          "name": "_amount",
          "type": "uint256"
        }
      ],
      "name": "transferToken",
      "outputs": [],
      "stateMutability": "nonpayable",
      "type": "function"
    },
    {
      "inputs": [],
      "name": "treasury",
      "outputs": [
        {
          "internalType": "address",
          "name": "",
          "type": "address"
        }
      ],
      "stateMutability": "view",
      "type": "function"
    },
    {
      "inputs": [],
      "name": "treasuryAmount",
      "outputs": [
        {
          "internalType": "uint256",
          "name": "",
          "type": "uint256"
        }
      ],
      "stateMutability": "view",
      "type": "function"
    },
    {
      "inputs": [
        {
          "internalType": "uint256",
          "name": "",
          "type": "uint256"
        }
      ],
      "name": "yakStrats",
      "outputs": [
        {
          "internalType": "address",
          "name": "",
          "type": "address"
        }
      ],
      "stateMutability": "view",
      "type": "function"
    },
    {
      "stateMutability": "payable",
      "type": "receive"
    }
  ],
  "transactionHash": "0xc5a5c658387ee94bc88faa5ea4beb9196b8ed2b89d16a19d87fe877acc247ba8",
  "args": [],
  "solcInputHash": "1f92da35dfb209c848db3e5774f11e7f",
  "bytecode": "0x608060405234801561001057600080fd5b50612f2f806100206000396000f3fe6080604052600436106101e65760003560e01c80638da5cb5b11610102578063bc1080bd11610095578063eb1dd30411610064578063eb1dd3041461052f578063f2fde38b1461054f578063f5537ede1461056f578063f5e95acb1461058f57600080fd5b8063bc1080bd146104b9578063cda3c5af146104d9578063d2aa23e0146104f9578063d9e7a8361461051957600080fd5b8063aa6ca808116100d1578063aa6ca8081461044f578063abaa991614610464578063b14f2a3914610479578063b214cc031461049957600080fd5b80638da5cb5b146103d157806391cca3db146103ef578063947223971461040f578063a88dbb361461042f57600080fd5b80633fa68a351161017a578063715018a611610149578063715018a61461035c57806377db2c17146103715780637b1ef33b1461039157806388a8c95c146103b157600080fd5b80633fa68a35146102e65780634f64b2be146102fc57806352c843061461031c57806361d027b31461033c57600080fd5b80631bb5e2dc116101b65780631bb5e2dc146102855780632b345964146102a55780632e44715d146102bb578063368acb09146102d057600080fd5b806285ae2b146101f2578063042950161461022f5780631224abfb146102515780631595eb0b1461027057600080fd5b366101ed57005b600080fd5b3480156101fe57600080fd5b5061021261020d366004612cb1565b6105af565b6040516001600160a01b0390911681526020015b60405180910390f35b34801561023b57600080fd5b5061024f61024a366004612d31565b6105d9565b005b34801561025d57600080fd5b506074545b604051908152602001610226565b34801561027c57600080fd5b50607354610262565b34801561029157600080fd5b506102126102a0366004612cb1565b6106aa565b3480156102b157600080fd5b50610262606f5481565b3480156102c757600080fd5b50607254610262565b3480156102dc57600080fd5b50610262606e5481565b3480156102f257600080fd5b5061026260705481565b34801561030857600080fd5b50610212610317366004612cb1565b6106ba565b34801561032857600080fd5b5061024f610337366004612b10565b6106ca565b34801561034857600080fd5b50606c54610212906001600160a01b031681565b34801561036857600080fd5b5061024f61085a565b34801561037d57600080fd5b5061024f61038c366004612ac9565b6108ae565b34801561039d57600080fd5b506102126103ac366004612cb1565b6109ae565b3480156103bd57600080fd5b5061024f6103cc366004612ac9565b6109be565b3480156103dd57600080fd5b506033546001600160a01b0316610212565b3480156103fb57600080fd5b50606d54610212906001600160a01b031681565b34801561041b57600080fd5b5061024f61042a366004612ac9565b610a7e565b34801561043b57600080fd5b50606554610212906001600160a01b031681565b34801561045b57600080fd5b50607554610262565b34801561047057600080fd5b5061024f610b94565b34801561048557600080fd5b5061024f610494366004612ac9565b6116e0565b3480156104a557600080fd5b5061024f6104b4366004612ac9565b6117a0565b3480156104c557600080fd5b5061024f6104d4366004612d04565b6118a0565b3480156104e557600080fd5b50606b54610212906001600160a01b031681565b34801561050557600080fd5b5061024f610514366004612ac9565b611a3d565b34801561052557600080fd5b5061026260715481565b34801561053b57600080fd5b5061024f61054a366004612ae5565b611afd565b34801561055b57600080fd5b5061024f61056a366004612ac9565b611bed565b34801561057b57600080fd5b5061024f61058a366004612c03565b611cbd565b34801561059b57600080fd5b5061024f6105aa366004612b48565b611d19565b607281815481106105bf57600080fd5b6000918252602090912001546001600160a01b0316905081565b6033546001600160a01b031633146106265760405162461bcd60e51b81526020600482018190526024820152600080516020612eda83398151915260448201526064015b60405180910390fd5b80826106328587612df5565b61063c9190612df5565b6106469190612df5565b612710146106965760405162461bcd60e51b815260206004820152601460248201527f4d7573742061646420757020746f203130303030000000000000000000000000604482015260640161061d565b606e93909355606f91909155607055607155565b607481815481106105bf57600080fd5b607581815481106105bf57600080fd5b6033546001600160a01b031633146107125760405162461bcd60e51b81526020600482018190526024820152600080516020612eda833981519152604482015260640161061d565b6001600160a01b03821661078d5760405162461bcd60e51b8152602060048201526024808201527f43616e6e6f7420616464206120746f6b656e2077697468207a65726f2061646460448201527f7265737300000000000000000000000000000000000000000000000000000000606482015260840161061d565b6001600160a01b0381166107f35760405162461bcd60e51b815260206004820152602760248201527f43616e6e6f74206164642061204c5020746f6b656e2077697468207a65726f206044820152666164647265737360c81b606482015260840161061d565b60758054600181019091557f9a8d93986a7b9e6294572ea6736696119c195c1a9f5eae642d3c5fcd44e49dea0180546001600160a01b039384166001600160a01b031991821681179092556000918252607660205260409091208054929093169116179055565b6033546001600160a01b031633146108a25760405162461bcd60e51b81526020600482018190526024820152600080516020612eda833981519152604482015260640161061d565b6108ac6000612188565b565b6033546001600160a01b031633146108f65760405162461bcd60e51b81526020600482018190526024820152600080516020612eda833981519152604482015260640161061d565b6001600160a01b03811661095c5760405162461bcd60e51b815260206004820152602760248201527f43616e6e6f742061646420612079616b53747261742077697468207a65726f206044820152666164647265737360c81b606482015260840161061d565b607380546001810182556000919091527ff79bde9ddd17963ebce6f7d021d60de7c2bd0db944d23c900c0c0e775f5300520180546001600160a01b0319166001600160a01b0392909216919091179055565b607381815481106105bf57600080fd5b6033546001600160a01b03163314610a065760405162461bcd60e51b81526020600482018190526024820152600080516020612eda833981519152604482015260640161061d565b6001600160a01b038116610a5c5760405162461bcd60e51b815260206004820152601a60248201527f4465762063616e6e6f74206265207a65726f2061646472657373000000000000604482015260640161061d565b606d80546001600160a01b0319166001600160a01b0392909216919091179055565b6033546001600160a01b03163314610ac65760405162461bcd60e51b81526020600482018190526024820152600080516020612eda833981519152604482015260640161061d565b6001600160a01b038116610b425760405162461bcd60e51b815260206004820152602360248201527f43616e6e6f742061646420612062616e6b2077697468207a65726f206164647260448201527f6573730000000000000000000000000000000000000000000000000000000000606482015260840161061d565b607280546001810182556000919091527fdffbd64cc7c1a7eb27984335d9416d51137a03d3fabec7141025c62663253fe10180546001600160a01b0319166001600160a01b0392909216919091179055565b333214610be35760405162461bcd60e51b815260206004820152601760248201527f4f72636141646465723a206d7573742075736520454f41000000000000000000604482015260640161061d565b60005b607254811015610e6357600060728281548110610c1357634e487b7160e01b600052603260045260246000fd5b60009182526020822001546040516370a0823160e01b81523060048201526001600160a01b03909116925082906370a082319060240160206040518083038186803b158015610c6157600080fd5b505afa158015610c75573d6000803e3d6000fd5b505050506040513d601f19601f82011682018060405250810190610c999190612cc9565b1115610e50576040517f2f745c59000000000000000000000000000000000000000000000000000000008152306004820152600060248201819052906001600160a01b03831690632f745c599060440160206040518083038186803b158015610d0157600080fd5b505afa158015610d15573d6000803e3d6000fd5b505050506040513d601f19601f82011682018060405250810190610d399190612cc9565b6040517fd4a9b2c5000000000000000000000000000000000000000000000000000000008152600481018290529091506000906001600160a01b0384169063d4a9b2c59060240160206040518083038186803b158015610d9857600080fd5b505afa158015610dac573d6000803e3d6000fd5b505050506040513d601f19601f82011682018060405250810190610dd09190612cc9565b6040517f767a7b0500000000000000000000000000000000000000000000000000000000815260048101849052602481018290529091506001600160a01b0384169063767a7b0590604401600060405180830381600087803b158015610e3557600080fd5b505af1158015610e49573d6000803e3d6000fd5b5050505050505b5080610e5b81612e93565b915050610be6565b5060005b607354811015610fab57600060738281548110610e9457634e487b7160e01b600052603260045260246000fd5b60009182526020822001546040516370a0823160e01b81523060048201526001600160a01b03909116925082906370a082319060240160206040518083038186803b158015610ee257600080fd5b505afa158015610ef6573d6000803e3d6000fd5b505050506040513d601f19601f82011682018060405250810190610f1a9190612cc9565b90508015610f96576040517f2e1a7d4d000000000000000000000000000000000000000000000000000000008152600481018290526001600160a01b03831690632e1a7d4d90602401600060405180830381600087803b158015610f7d57600080fd5b505af1158015610f91573d6000803e3d6000fd5b505050505b50508080610fa390612e93565b915050610e67565b5060005b6074548110156110bc57600060748281548110610fdc57634e487b7160e01b600052603260045260246000fd5b60009182526020822001546040516370a0823160e01b81523060048201526001600160a01b03909116925082906370a082319060240160206040518083038186803b15801561102a57600080fd5b505afa15801561103e573d6000803e3d6000fd5b505050506040513d601f19601f820116820180604052508101906110629190612cc9565b11156110a9576110a66074838154811061108c57634e487b7160e01b600052603260045260246000fd5b6000918252602090912001546001600160a01b03166121da565b50505b50806110b481612e93565b915050610faf565b5060005b607554811015611215576000607582815481106110ed57634e487b7160e01b600052603260045260246000fd5b6000918252602082200154607580546001600160a01b0390921693506076918391908690811061112d57634e487b7160e01b600052603260045260246000fd5b60009182526020808320909101546001600160a01b0390811684529083019390935260409091019020541690508015611200576040516370a0823160e01b81523060048201526000906001600160a01b038416906370a082319060240160206040518083038186803b1580156111a257600080fd5b505afa1580156111b6573d6000803e3d6000fd5b505050506040513d601f19601f820116820180604052508101906111da9190612cc9565b905080156111fe576067546111fc90829085906001600160a01b031685612381565b505b505b5050808061120d90612e93565b9150506110c0565b506068546040516370a0823160e01b81523060048201526000916001600160a01b0316906370a082319060240160206040518083038186803b15801561125a57600080fd5b505afa15801561126e573d6000803e3d6000fd5b505050506040513d601f19601f820116820180604052508101906112929190612cc9565b1115611336576068546040516370a0823160e01b8152306004820152611334916001600160a01b0316906370a082319060240160206040518083038186803b1580156112dd57600080fd5b505afa1580156112f1573d6000803e3d6000fd5b505050506040513d601f19601f820116820180604052508101906113159190612cc9565b606854606754606a546001600160a01b03928316929182169116612381565b505b606754604080517fd0e30db0000000000000000000000000000000000000000000000000000000008152905147926001600160a01b03169163d0e30db091849160048082019260009290919082900301818588803b15801561139757600080fd5b505af11580156113ab573d6000803e3d6000fd5b50506067546040516370a0823160e01b8152306004820152600094506001600160a01b0390911692506370a08231915060240160206040518083038186803b1580156113f657600080fd5b505afa15801561140a573d6000803e3d6000fd5b505050506040513d601f19601f8201168201806040525081019061142e9190612cc9565b90506000612710607154836114439190612e2d565b61144d9190612e0d565b905060006127106071546127106114649190612e4c565b61146e9085612e2d565b6114789190612e0d565b60675460665460695492935061149f9285926001600160a01b039081169281169116612381565b50606754606854606a546114c59284926001600160a01b03918216929082169116612381565b506065546066546040516370a0823160e01b815230600482015261155d926001600160a01b039081169216906370a082319060240160206040518083038186803b15801561151257600080fd5b505afa158015611526573d6000803e3d6000fd5b505050506040513d601f19601f8201168201806040525081019061154a9190612cc9565b6066546001600160a01b03169190612522565b6068546040516370a0823160e01b81523060048201526000916001600160a01b0316906370a082319060240160206040518083038186803b1580156115a157600080fd5b505afa1580156115b5573d6000803e3d6000fd5b505050506040513d601f19601f820116820180604052508101906115d99190612cc9565b606b54607154919250611628916001600160a01b03909116906115fe90612710612e4c565b60705461160b9085612e2d565b6116159190612e0d565b6068546001600160a01b03169190612522565b606c54607154611655916001600160a01b03169061164890612710612e4c565b606e5461160b9085612e2d565b606d546068546040516370a0823160e01b81523060048201526116d9926001600160a01b039081169216906370a082319060240160206040518083038186803b1580156116a157600080fd5b505afa1580156116b5573d6000803e3d6000fd5b505050506040513d601f19601f820116820180604052508101906116159190612cc9565b5050505050565b6033546001600160a01b031633146117285760405162461bcd60e51b81526020600482018190526024820152600080516020612eda833981519152604482015260640161061d565b6001600160a01b03811661177e5760405162461bcd60e51b815260206004820152601f60248201527f54726561737572792063616e6e6f74206265207a65726f206164647265737300604482015260640161061d565b606c80546001600160a01b0319166001600160a01b0392909216919091179055565b6033546001600160a01b031633146117e85760405162461bcd60e51b81526020600482018190526024820152600080516020612eda833981519152604482015260640161061d565b6001600160a01b03811661184e5760405162461bcd60e51b815260206004820152602760248201527f43616e6e6f74206164642061204c5020746f6b656e2077697468207a65726f206044820152666164647265737360c81b606482015260840161061d565b607480546001810182556000919091527f19a0b39aa25ac793b5f6e9a0534364cc0b3fd1ea9b651e79c7f50a59d48ef8130180546001600160a01b0319166001600160a01b0392909216919091179055565b6033546001600160a01b031633146118e85760405162461bcd60e51b81526020600482018190526024820152600080516020612eda833981519152604482015260640161061d565b60725483106119395760405162461bcd60e51b815260206004820152601360248201527f42616e6b20646f6573206e6f7420657869737400000000000000000000000000604482015260640161061d565b6001600160a01b03811661198f5760405162461bcd60e51b815260206004820152601f60248201527f43616e6e6f74207472616e7366657220746f207a65726f206164647265737300604482015260640161061d565b607283815481106119b057634e487b7160e01b600052603260045260246000fd5b6000918252602090912001546040517f3e61facd000000000000000000000000000000000000000000000000000000008152600481018490526001600160a01b03838116602483015290911690633e61facd90604401600060405180830381600087803b158015611a2057600080fd5b505af1158015611a34573d6000803e3d6000fd5b50505050505050565b6033546001600160a01b03163314611a855760405162461bcd60e51b81526020600482018190526024820152600080516020612eda833981519152604482015260640161061d565b6001600160a01b038116611adb5760405162461bcd60e51b815260206004820152601e60248201527f53656166756e642063616e6e6f74206265207a65726f20616464726573730000604482015260640161061d565b606b80546001600160a01b0319166001600160a01b0392909216919091179055565b6033546001600160a01b03163314611b455760405162461bcd60e51b81526020600482018190526024820152600080516020612eda833981519152604482015260640161061d565b6000826001600160a01b03168260405160006040518083038185875af1925050503d8060008114611b92576040519150601f19603f3d011682016040523d82523d6000602084013e611b97565b606091505b5050905080611be85760405162461bcd60e51b815260206004820152601360248201527f6661696c656420746f2073656e64206176617800000000000000000000000000604482015260640161061d565b505050565b6033546001600160a01b03163314611c355760405162461bcd60e51b81526020600482018190526024820152600080516020612eda833981519152604482015260640161061d565b6001600160a01b038116611cb15760405162461bcd60e51b815260206004820152602660248201527f4f776e61626c653a206e6577206f776e657220697320746865207a65726f206160448201527f6464726573730000000000000000000000000000000000000000000000000000606482015260840161061d565b611cba81612188565b50565b6033546001600160a01b03163314611d055760405162461bcd60e51b81526020600482018190526024820152600080516020612eda833981519152604482015260640161061d565b611be86001600160a01b0383168483612522565b600054610100900460ff1680611d32575060005460ff16155b611d955760405162461bcd60e51b815260206004820152602e60248201527f496e697469616c697a61626c653a20636f6e747261637420697320616c72656160448201526d191e481a5b9a5d1a585b1a5e995960921b606482015260840161061d565b600054610100900460ff16158015611db7576000805461ffff19166101011790555b611dbf612589565b611dc761263b565b6001600160a01b038a16611e1d5760405162461bcd60e51b815260206004820152601a60248201527f506f642063616e6e6f74206265207a65726f2061646472657373000000000000604482015260640161061d565b6001600160a01b038916611e735760405162461bcd60e51b815260206004820152601b60248201527f4f5243412063616e6e6f74206265207a65726f20616464726573730000000000604482015260640161061d565b6001600160a01b038816611ec95760405162461bcd60e51b815260206004820152601c60248201527f57415641582063616e6e6f74206265207a65726f206164647265737300000000604482015260640161061d565b6001600160a01b038716611f1f5760405162461bcd60e51b815260206004820152601b60248201527f555344432063616e6e6f74206265207a65726f20616464726573730000000000604482015260640161061d565b6001600160a01b038616611f755760405162461bcd60e51b815260206004820152601e60248201527f53656166756e642063616e6e6f74206265207a65726f20616464726573730000604482015260640161061d565b6001600160a01b038516611fcb5760405162461bcd60e51b815260206004820152601f60248201527f54726561737572792063616e6e6f74206265207a65726f206164647265737300604482015260640161061d565b6001600160a01b0384166120215760405162461bcd60e51b815260206004820152601a60248201527f4465762063616e6e6f74206265207a65726f2061646472657373000000000000604482015260640161061d565b6001600160a01b0383166120775760405162461bcd60e51b815260206004820152601e60248201527f4f524341204c502063616e6e6f74206265207a65726f20616464726573730000604482015260640161061d565b6001600160a01b0382166120cd5760405162461bcd60e51b815260206004820152601e60248201527f55534443204c502063616e6e6f74206265207a65726f20616464726573730000604482015260640161061d565b606580546001600160a01b03199081166001600160a01b038d8116919091179092556066805482168c84161790556067805482168b84161790556068805482168a8416179055606b80548216898416179055606c80548216888416179055606d805482168784161790556101f4606f556105dc607055610fa0606e819055607155606980548216868416179055606a8054909116918416919091179055801561217c576000805461ff00191690555b50505050505050505050565b603380546001600160a01b038381166001600160a01b0319831681179093556040519116919082907f8be0079c531659141344cd1fd0a4f28419497f9722a3daafe3b4186f6b6457e090600090a35050565b600080826001600160a01b03811661225a5760405162461bcd60e51b815260206004820152602260248201527f496e76616c6964207061697220666f722072656d6f76696e676c69717569646960448201527f7479000000000000000000000000000000000000000000000000000000000000606482015260840161061d565b6040516370a0823160e01b81523060048201526122de90859081906001600160a01b038516906370a082319060240160206040518083038186803b1580156122a157600080fd5b505afa1580156122b5573d6000803e3d6000fd5b505050506040513d601f19601f820116820180604052508101906122d99190612cc9565b6126e2565b6040517f89afcb4400000000000000000000000000000000000000000000000000000000815230600482015260009081906001600160a01b038416906389afcb44906024016040805180830381600087803b15801561233c57600080fd5b505af1158015612350573d6000803e3d6000fd5b505050506040513d601f19601f820116820180604052508101906123749190612ce1565b9097909650945050505050565b60008061238e85856127b0565b509050600080846001600160a01b0316630902f1ac6040518163ffffffff1660e01b815260040160606040518083038186803b1580156123cd57600080fd5b505afa1580156123e1573d6000803e3d6000fd5b505050506040513d601f19601f820116820180604052508101906124059190612c63565b5091509150866001600160a01b0316836001600160a01b03161461242557905b6000806124538a856dffffffffffffffffffffffffffff16856dffffffffffffffffffffffffffff166127e1565b9050886001600160a01b0316856001600160a01b03161461247057905b61247b89888c6126e2565b604080516000815260208101918290527f022c0d9f000000000000000000000000000000000000000000000000000000009091526001600160a01b0388169063022c0d9f906124d39085908590309060248101612dbd565b600060405180830381600087803b1580156124ed57600080fd5b505af1158015612501573d6000803e3d6000fd5b505050508181116125125781612514565b805b9a9950505050505050505050565b604080516001600160a01b038416602482015260448082018490528251808303909101815260649091019091526020810180517bffffffffffffffffffffffffffffffffffffffffffffffffffffffff1663a9059cbb60e01b179052611be8908490612832565b600054610100900460ff16806125a2575060005460ff16155b6126055760405162461bcd60e51b815260206004820152602e60248201527f496e697469616c697a61626c653a20636f6e747261637420697320616c72656160448201526d191e481a5b9a5d1a585b1a5e995960921b606482015260840161061d565b600054610100900460ff16158015612627576000805461ffff19166101011790555b8015611cba576000805461ff001916905550565b600054610100900460ff1680612654575060005460ff16155b6126b75760405162461bcd60e51b815260206004820152602e60248201527f496e697469616c697a61626c653a20636f6e747261637420697320616c72656160448201526d191e481a5b9a5d1a585b1a5e995960921b606482015260840161061d565b600054610100900460ff161580156126d9576000805461ffff19166101011790555b61262733612188565b60405163a9059cbb60e01b81526001600160a01b0383811660048301526024820183905284169063a9059cbb90604401602060405180830381600087803b15801561272c57600080fd5b505af1158015612740573d6000803e3d6000fd5b505050506040513d601f19601f820116820180604052508101906127649190612c43565b611be85760405162461bcd60e51b815260206004820181905260248201527f4465784c6962726172793a3a5452414e534645525f46524f4d5f4641494c4544604482015260640161061d565b600080826001600160a01b0316846001600160a01b0316106127d35782846127d6565b83835b915091509250929050565b6000806127f0856103e5612e2d565b905060006127fe8483612e2d565b905060008261280f876103e8612e2d565b6128199190612df5565b90506128258183612e0d565b93505050505b9392505050565b6000612887826040518060400160405280602081526020017f5361666545524332303a206c6f772d6c6576656c2063616c6c206661696c6564815250856001600160a01b03166129179092919063ffffffff16565b805190915015611be857808060200190518101906128a59190612c43565b611be85760405162461bcd60e51b815260206004820152602a60248201527f5361666545524332303a204552433230206f7065726174696f6e20646964206e60448201527f6f74207375636365656400000000000000000000000000000000000000000000606482015260840161061d565b6060612926848460008561292e565b949350505050565b6060824710156129a65760405162461bcd60e51b815260206004820152602660248201527f416464726573733a20696e73756666696369656e742062616c616e636520666f60448201527f722063616c6c0000000000000000000000000000000000000000000000000000606482015260840161061d565b843b6129f45760405162461bcd60e51b815260206004820152601d60248201527f416464726573733a2063616c6c20746f206e6f6e2d636f6e7472616374000000604482015260640161061d565b600080866001600160a01b03168587604051612a109190612d8e565b60006040518083038185875af1925050503d8060008114612a4d576040519150601f19603f3d011682016040523d82523d6000602084013e612a52565b606091505b5091509150612a62828286612a6d565b979650505050505050565b60608315612a7c57508161282b565b825115612a8c5782518084602001fd5b8160405162461bcd60e51b815260040161061d9190612daa565b80516dffffffffffffffffffffffffffff81168114612ac457600080fd5b919050565b600060208284031215612ada578081fd5b813561282b81612ec4565b60008060408385031215612af7578081fd5b8235612b0281612ec4565b946020939093013593505050565b60008060408385031215612b22578182fd5b8235612b2d81612ec4565b91506020830135612b3d81612ec4565b809150509250929050565b60008060008060008060008060006101208a8c031215612b66578485fd5b8935612b7181612ec4565b985060208a0135612b8181612ec4565b975060408a0135612b9181612ec4565b965060608a0135612ba181612ec4565b955060808a0135612bb181612ec4565b945060a08a0135612bc181612ec4565b935060c08a0135612bd181612ec4565b925060e08a0135612be181612ec4565b91506101008a0135612bf281612ec4565b809150509295985092959850929598565b600080600060608486031215612c17578283fd5b8335612c2281612ec4565b92506020840135612c3281612ec4565b929592945050506040919091013590565b600060208284031215612c54578081fd5b8151801515811461282b578182fd5b600080600060608486031215612c77578283fd5b612c8084612aa6565b9250612c8e60208501612aa6565b9150604084015163ffffffff81168114612ca6578182fd5b809150509250925092565b600060208284031215612cc2578081fd5b5035919050565b600060208284031215612cda578081fd5b5051919050565b60008060408385031215612cf3578182fd5b505080516020909101519092909150565b600080600060608486031215612d18578283fd5b83359250602084013591506040840135612ca681612ec4565b60008060008060808587031215612d46578384fd5b5050823594602084013594506040840135936060013592509050565b60008151808452612d7a816020860160208601612e63565b601f01601f19169290920160200192915050565b60008251612da0818460208701612e63565b9190910192915050565b60208152600061282b6020830184612d62565b8481528360208201526001600160a01b0383166040820152608060608201526000612deb6080830184612d62565b9695505050505050565b60008219821115612e0857612e08612eae565b500190565b600082612e2857634e487b7160e01b81526012600452602481fd5b500490565b6000816000190483118215151615612e4757612e47612eae565b500290565b600082821015612e5e57612e5e612eae565b500390565b60005b83811015612e7e578181015183820152602001612e66565b83811115612e8d576000848401525b50505050565b6000600019821415612ea757612ea7612eae565b5060010190565b634e487b7160e01b600052601160045260246000fd5b6001600160a01b0381168114611cba57600080fdfe4f776e61626c653a2063616c6c6572206973206e6f7420746865206f776e6572a2646970667358221220934d701e8b56203f246bbc8c53b2cd2b9648472855cf880a4b668974994d3ebd64736f6c63430008040033",
  "devdoc": {
    "kind": "dev",
    "methods": {
      "addBank(address)": {
        "params": {
          "bank": "The address of the bank"
        }
      },
      "addLPToken(address)": {
        "params": {
          "lp": "The address of the LP token"
        }
      },
      "addSwapLP(address,address)": {
        "params": {
          "lp": "The address of the LP token"
        }
      },
      "addYakStrat(address)": {
        "params": {
          "yak": "The address of the yak"
        }
      },
      "changeDev(address)": {
        "params": {
          "_dev": "The address of the LP token"
        }
      },
      "changeDistributionRatio(uint256,uint256,uint256,uint256)": {
        "params": {
          "_devAmount": "The dev amount",
          "_podAmount": "The pod amount",
          "_seafundAmount": "The seafund amount",
          "_treasuryAmount": "The treasury amount"
        }
      },
      "changeSeafund(address)": {
        "params": {
          "_seafund": "The address of the LP token"
        }
      },
      "changeTreasury(address)": {
        "params": {
          "_treasury": "The address of the LP token"
        }
      },
      "owner()": {
        "details": "Returns the address of the current owner."
      },
      "renounceOwnership()": {
        "details": "Leaves the contract without owner. It will not be possible to call `onlyOwner` functions anymore. Can only be called by the current owner. NOTE: Renouncing ownership will leave the contract without an owner, thereby removing any functionality that is only available to the owner."
      },
      "transferAvax(address,uint256)": {
        "params": {
          "_amount": "The amount to send",
          "_to": "The address to send it to"
        }
      },
      "transferBankVault(uint256,uint256,address)": {
        "params": {
          "bank": "The bank id",
          "to": "who you're transfering it to",
          "vault": "the vault id"
        }
      },
      "transferOwnership(address)": {
        "details": "Transfers ownership of the contract to a new account (`newOwner`). Can only be called by the current owner."
      },
      "transferToken(address,address,uint256)": {
        "params": {
          "_amount": "The amount to send",
          "_to": "The address to send it to",
          "_token": "The token to send"
        }
      }
    },
    "version": 1
  },
  "userdoc": {
    "kind": "user",
    "methods": {
      "addBank(address)": {
        "notice": "Adds a bank that this can get fees from"
      },
      "addLPToken(address)": {
        "notice": "Adds a LP token, to allow transfering"
      },
      "addSwapLP(address,address)": {
        "notice": "Adds a LP token, to allow transfering"
      },
      "addYakStrat(address)": {
        "notice": "Adds a yield yak token, to allow withdrawing"
      },
      "allocate()": {
        "notice": "For allocating the revenue to the correct locations."
      },
      "changeDev(address)": {
        "notice": "Adds a LP token, to allow transfering"
      },
      "changeDistributionRatio(uint256,uint256,uint256,uint256)": {
        "notice": "Changes distribution ratio"
      },
      "changeSeafund(address)": {
        "notice": "Adds a LP token, to allow transfering"
      },
      "changeTreasury(address)": {
        "notice": "Adds a LP token, to allow transfering"
      },
      "getBankCount()": {
        "notice": "Gets the numbers of banks this account controls"
      },
      "getLPTokens()": {
        "notice": "Gets the number of LP tokens this account controls"
      },
      "getTokens()": {
        "notice": "Gets the number of tokens this account controls"
      },
      "getYakCount()": {
        "notice": "Gets the number of yield yak banks (tokens) this account controls"
      },
      "initialize(address,address,address,address,address,address,address,address,address)": {
        "notice": "Initializes the Adder. We are doing proxy here as we might add seperate fees that need to be converted later. Easier than changing treasuries over."
      },
      "transferAvax(address,uint256)": {
        "notice": "Safe function to ensure we can emergency remove things"
      },
      "transferBankVault(uint256,uint256,address)": {
        "notice": "for transfering treasury bank vault. Only use if changing contracts."
      },
      "transferToken(address,address,uint256)": {
        "notice": "Safe function to ensure we can emergency remove things"
      }
    },
    "version": 1
  },
  "storageLayout": {
    "storage": [
      {
        "astId": 594,
        "contract": "apps/avai/src/contracts/OrcaAdder.sol:OrcaAdder",
        "label": "_initialized",
        "offset": 0,
        "slot": "0",
        "type": "t_bool"
      },
      {
        "astId": 597,
        "contract": "apps/avai/src/contracts/OrcaAdder.sol:OrcaAdder",
        "label": "_initializing",
        "offset": 1,
        "slot": "0",
        "type": "t_bool"
      },
      {
        "astId": 3406,
        "contract": "apps/avai/src/contracts/OrcaAdder.sol:OrcaAdder",
        "label": "__gap",
        "offset": 0,
        "slot": "1",
        "type": "t_array(t_uint256)50_storage"
      },
      {
        "astId": 464,
        "contract": "apps/avai/src/contracts/OrcaAdder.sol:OrcaAdder",
        "label": "_owner",
        "offset": 0,
        "slot": "51",
        "type": "t_address"
      },
      {
        "astId": 577,
        "contract": "apps/avai/src/contracts/OrcaAdder.sol:OrcaAdder",
        "label": "__gap",
        "offset": 0,
        "slot": "52",
        "type": "t_array(t_uint256)49_storage"
      },
      {
        "astId": 10942,
        "contract": "apps/avai/src/contracts/OrcaAdder.sol:OrcaAdder",
        "label": "pod",
        "offset": 0,
        "slot": "101",
        "type": "t_contract(IERC20)5519"
      },
      {
        "astId": 10945,
        "contract": "apps/avai/src/contracts/OrcaAdder.sol:OrcaAdder",
        "label": "orca",
        "offset": 0,
        "slot": "102",
        "type": "t_contract(IERC20)5519"
      },
      {
        "astId": 10948,
        "contract": "apps/avai/src/contracts/OrcaAdder.sol:OrcaAdder",
        "label": "wavax",
        "offset": 0,
        "slot": "103",
        "type": "t_contract(IWAVAX)18486"
      },
      {
        "astId": 10951,
        "contract": "apps/avai/src/contracts/OrcaAdder.sol:OrcaAdder",
        "label": "usdc",
        "offset": 0,
        "slot": "104",
        "type": "t_contract(IERC20)5519"
      },
      {
        "astId": 10953,
        "contract": "apps/avai/src/contracts/OrcaAdder.sol:OrcaAdder",
        "label": "orcaLP",
        "offset": 0,
        "slot": "105",
        "type": "t_address"
      },
      {
        "astId": 10955,
        "contract": "apps/avai/src/contracts/OrcaAdder.sol:OrcaAdder",
        "label": "usdcLP",
        "offset": 0,
        "slot": "106",
        "type": "t_address"
      },
      {
        "astId": 10957,
        "contract": "apps/avai/src/contracts/OrcaAdder.sol:OrcaAdder",
        "label": "seafund",
        "offset": 0,
        "slot": "107",
        "type": "t_address"
      },
      {
        "astId": 10959,
        "contract": "apps/avai/src/contracts/OrcaAdder.sol:OrcaAdder",
        "label": "treasury",
        "offset": 0,
        "slot": "108",
        "type": "t_address"
      },
      {
        "astId": 10961,
        "contract": "apps/avai/src/contracts/OrcaAdder.sol:OrcaAdder",
        "label": "dev",
        "offset": 0,
        "slot": "109",
        "type": "t_address"
      },
      {
        "astId": 10963,
        "contract": "apps/avai/src/contracts/OrcaAdder.sol:OrcaAdder",
        "label": "treasuryAmount",
        "offset": 0,
        "slot": "110",
        "type": "t_uint256"
      },
      {
        "astId": 10965,
        "contract": "apps/avai/src/contracts/OrcaAdder.sol:OrcaAdder",
        "label": "devAmount",
        "offset": 0,
        "slot": "111",
        "type": "t_uint256"
      },
      {
        "astId": 10967,
        "contract": "apps/avai/src/contracts/OrcaAdder.sol:OrcaAdder",
        "label": "seafundAmount",
        "offset": 0,
        "slot": "112",
        "type": "t_uint256"
      },
      {
        "astId": 10969,
        "contract": "apps/avai/src/contracts/OrcaAdder.sol:OrcaAdder",
        "label": "podAmount",
        "offset": 0,
        "slot": "113",
        "type": "t_uint256"
      },
      {
        "astId": 10972,
        "contract": "apps/avai/src/contracts/OrcaAdder.sol:OrcaAdder",
        "label": "banks",
        "offset": 0,
        "slot": "114",
        "type": "t_array(t_address)dyn_storage"
      },
      {
        "astId": 10975,
        "contract": "apps/avai/src/contracts/OrcaAdder.sol:OrcaAdder",
        "label": "yakStrats",
        "offset": 0,
        "slot": "115",
        "type": "t_array(t_address)dyn_storage"
      },
      {
        "astId": 10978,
        "contract": "apps/avai/src/contracts/OrcaAdder.sol:OrcaAdder",
        "label": "lpTokens",
        "offset": 0,
        "slot": "116",
        "type": "t_array(t_address)dyn_storage"
      },
      {
        "astId": 10981,
        "contract": "apps/avai/src/contracts/OrcaAdder.sol:OrcaAdder",
        "label": "tokens",
        "offset": 0,
        "slot": "117",
        "type": "t_array(t_address)dyn_storage"
      },
      {
        "astId": 10985,
        "contract": "apps/avai/src/contracts/OrcaAdder.sol:OrcaAdder",
        "label": "swapLPs",
        "offset": 0,
        "slot": "118",
        "type": "t_mapping(t_address,t_address)"
      }
    ],
    "types": {
      "t_address": {
        "encoding": "inplace",
        "label": "address",
        "numberOfBytes": "20"
      },
      "t_array(t_address)dyn_storage": {
        "base": "t_address",
        "encoding": "dynamic_array",
        "label": "address[]",
        "numberOfBytes": "32"
      },
      "t_array(t_uint256)49_storage": {
        "base": "t_uint256",
        "encoding": "inplace",
        "label": "uint256[49]",
        "numberOfBytes": "1568"
      },
      "t_array(t_uint256)50_storage": {
        "base": "t_uint256",
        "encoding": "inplace",
        "label": "uint256[50]",
        "numberOfBytes": "1600"
      },
      "t_bool": {
        "encoding": "inplace",
        "label": "bool",
        "numberOfBytes": "1"
      },
      "t_contract(IERC20)5519": {
        "encoding": "inplace",
        "label": "contract IERC20",
        "numberOfBytes": "20"
      },
      "t_contract(IWAVAX)18486": {
        "encoding": "inplace",
        "label": "contract IWAVAX",
        "numberOfBytes": "20"
      },
      "t_mapping(t_address,t_address)": {
        "encoding": "mapping",
        "key": "t_address",
        "label": "mapping(address => address)",
        "numberOfBytes": "32",
        "value": "t_address"
      },
      "t_uint256": {
        "encoding": "inplace",
        "label": "uint256",
        "numberOfBytes": "32"
      }
    }
  }
}