{
  "address": "0x318DFBE56155F9999FA913cddcaA5764A2B52134",
  "abi": [
    {
      "inputs": [
        {
          "internalType": "address",
          "name": "orca_",
          "type": "address"
        },
        {
          "internalType": "address",
          "name": "beneficiaryAddress",
          "type": "address"
        },
        {
          "internalType": "uint256",
          "name": "startTimestamp",
          "type": "uint256"
        },
        {
          "internalType": "uint256",
          "name": "durationSeconds",
          "type": "uint256"
        },
        {
          "internalType": "bool",
          "name": "revocable",
          "type": "bool"
        }
      ],
      "stateMutability": "nonpayable",
      "type": "constructor"
    },
    {
      "anonymous": false,
      "inputs": [
        {
          "indexed": false,
          "internalType": "address",
          "name": "account",
          "type": "address"
        }
      ],
      "name": "BenefeciaryAdded",
      "type": "event"
    },
    {
      "anonymous": false,
      "inputs": [
        {
          "indexed": true,
          "internalType": "address",
          "name": "previousOwner",
          "type": "address"
        },
        {
          "indexed": true,
          "internalType": "address",
          "name": "newOwner",
          "type": "address"
        }
      ],
      "name": "OwnershipTransferred",
      "type": "event"
    },
    {
      "anonymous": false,
      "inputs": [
        {
          "indexed": false,
          "internalType": "address",
          "name": "from",
          "type": "address"
        },
        {
          "indexed": false,
          "internalType": "uint256",
          "name": "amount",
          "type": "uint256"
        }
      ],
      "name": "PaymentReceived",
      "type": "event"
    },
    {
      "anonymous": false,
      "inputs": [],
      "name": "Revoked",
      "type": "event"
    },
    {
      "anonymous": false,
      "inputs": [
        {
          "indexed": false,
          "internalType": "uint256",
          "name": "amount",
          "type": "uint256"
        },
        {
          "indexed": false,
          "internalType": "address",
          "name": "to",
          "type": "address"
        }
      ],
      "name": "TokensReleased",
      "type": "event"
    },
    {
      "inputs": [],
      "name": "beneficiary",
      "outputs": [
        {
          "internalType": "address",
          "name": "",
          "type": "address"
        }
      ],
      "stateMutability": "view",
      "type": "function"
    },
    {
      "inputs": [],
      "name": "duration",
      "outputs": [
        {
          "internalType": "uint256",
          "name": "",
          "type": "uint256"
        }
      ],
      "stateMutability": "view",
      "type": "function"
    },
    {
      "inputs": [],
      "name": "owner",
      "outputs": [
        {
          "internalType": "address",
          "name": "",
          "type": "address"
        }
      ],
      "stateMutability": "view",
      "type": "function"
    },
    {
      "inputs": [
        {
          "internalType": "uint256",
          "name": "amount",
          "type": "uint256"
        }
      ],
      "name": "receiveToken",
      "outputs": [],
      "stateMutability": "nonpayable",
      "type": "function"
    },
    {
      "inputs": [],
      "name": "release",
      "outputs": [],
      "stateMutability": "nonpayable",
      "type": "function"
    },
    {
      "inputs": [],
      "name": "renounceOwnership",
      "outputs": [],
      "stateMutability": "nonpayable",
      "type": "function"
    },
    {
      "inputs": [],
      "name": "revoke",
      "outputs": [],
      "stateMutability": "nonpayable",
      "type": "function"
    },
    {
      "inputs": [],
      "name": "start",
      "outputs": [
        {
          "internalType": "uint256",
          "name": "",
          "type": "uint256"
        }
      ],
      "stateMutability": "view",
      "type": "function"
    },
    {
      "inputs": [],
      "name": "totalReleased",
      "outputs": [
        {
          "internalType": "uint256",
          "name": "",
          "type": "uint256"
        }
      ],
      "stateMutability": "view",
      "type": "function"
    },
    {
      "inputs": [
        {
          "internalType": "address",
          "name": "newOwner",
          "type": "address"
        }
      ],
      "name": "transferOwnership",
      "outputs": [],
      "stateMutability": "nonpayable",
      "type": "function"
    },
    {
      "inputs": [
        {
          "internalType": "uint256",
          "name": "timestamp",
          "type": "uint256"
        }
      ],
      "name": "vestedAmount",
      "outputs": [
        {
          "internalType": "uint256",
          "name": "",
          "type": "uint256"
        }
      ],
      "stateMutability": "view",
      "type": "function"
    }
  ],
  "transactionHash": "0x5188679dd7d959cced39adc6f81d6c406c4d25b639e77b3e155791045e3ab339",
  "args": [
    "0x8B1d98A91F853218ddbb066F20b8c63E782e2430",
    "0x4422fB9aFb547E8ed7A61AC9dE0255C760Ea55C1",
    1633046400,
    63072000,
    true
  ],
  "solcInputHash": "5918a17f53a82f60a238f7e8bd5708c4",
  "bytecode": "0x60e060405234801561001057600080fd5b5060405161109738038061109783398101604081905261002f9161021a565b610038336101ae565b6001600160a01b0384166100ab5760405162461bcd60e51b815260206004820152602f60248201527f455243323056657374696e6757616c6c65743a2062656e65666963696172792060448201526e6973207a65726f206164647265737360881b60648201526084015b60405180910390fd5b6001600160a01b0385166101275760405162461bcd60e51b815260206004820152603b60248201527f455243323056657374696e6757616c6c65743a2063616e206e6f74206861766560448201527f206f72636120746f6b656e206173207a65726f2061646472657373000000000060648201526084016100a2565b60028054606086901b6001600160601b03191660805260a085905260c08490526001600160a01b038781166001600160a81b031990921691909117600160a01b841515021790915560405190851681527f72bd2efbf1af6bd7122438c00926e76364512ecab0cb4b4f9b7a72ee4f13b9a39060200160405180910390a15050505050610278565b600080546001600160a01b038381166001600160a01b0319831681178455604051919092169283917f8be0079c531659141344cd1fd0a4f28419497f9722a3daafe3b4186f6b6457e09190a35050565b80516001600160a01b038116811461021557600080fd5b919050565b600080600080600060a08688031215610231578081fd5b61023a866101fe565b9450610248602087016101fe565b935060408601519250606086015191506080860151801515811461026a578182fd5b809150509295509295909350565b60805160601c60a05160c051610dbd6102da6000396000818160d0015281816102060152610261015260008181610190015281816101d301528181610227015261028501526000818161012d0152818161044501526104890152610dbd6000f3fe608060405234801561001057600080fd5b50600436106100c95760003560e01c806386d1a69f11610081578063be9a65551161005b578063be9a65551461018e578063e33b7de3146101b4578063f2fde38b146101bc57600080fd5b806386d1a69f1461016d5780638da5cb5b14610175578063b6549f751461018657600080fd5b806337df00c9116100b257806337df00c91461011657806338af3eed1461012b578063715018a61461016557600080fd5b80630fb5a6b4146100ce5780631bfce85314610103575b600080fd5b7f00000000000000000000000000000000000000000000000000000000000000005b6040519081526020015b60405180910390f35b6100f0610111366004610c58565b6101cf565b610129610124366004610c58565b6102c6565b005b7f00000000000000000000000000000000000000000000000000000000000000005b6040516001600160a01b0390911681526020016100fa565b610129610383565b6101296103e9565b6000546001600160a01b031661014d565b6101296104bf565b7f00000000000000000000000000000000000000000000000000000000000000006100f0565b6001546100f0565b6101296101ca366004610c11565b6106ba565b60007f000000000000000000000000000000000000000000000000000000000000000082101561020157506000919050565b61024b7f00000000000000000000000000000000000000000000000000000000000000007f0000000000000000000000000000000000000000000000000000000000000000610cd7565b821061025f57610259610799565b92915050565b7f00000000000000000000000000000000000000000000000000000000000000006102aa7f000000000000000000000000000000000000000000000000000000000000000084610d2e565b6102b2610799565b6102bc9190610d0f565b6102599190610cef565b6000546001600160a01b031633146103255760405162461bcd60e51b815260206004820181905260248201527f4f776e61626c653a2063616c6c6572206973206e6f7420746865206f776e657260448201526064015b60405180910390fd5b60025461033d906001600160a01b031633308461082e565b7f6ef95f06320e7a25a04a175ca677b7052bdd97131872c2192525a629f51be77033604080516001600160a01b039092168252602082018490520160405180910390a150565b6000546001600160a01b031633146103dd5760405162461bcd60e51b815260206004820181905260248201527f4f776e61626c653a2063616c6c6572206973206e6f7420746865206f776e6572604482015260640161031c565b6103e760006108e5565b565b60006103f460015490565b6103fd426101cf565b6104079190610d2e565b9050806001600082825461041b9190610cd7565b909155507fdd73fac0473ab56f7ea2725bcf0b74d1321d516447bfe4e3705c3c9853718e259050817f0000000000000000000000000000000000000000000000000000000000000000604080519283526001600160a01b0390911660208301520160405180910390a16104bc7f00000000000000000000000000000000000000000000000000000000000000005b6002546001600160a01b0316908361094d565b50565b6000546001600160a01b031633146105195760405162461bcd60e51b815260206004820181905260248201527f4f776e61626c653a2063616c6c6572206973206e6f7420746865206f776e6572604482015260640161031c565b60025474010000000000000000000000000000000000000000900460ff166105835760405162461bcd60e51b815260206004820152601160248201527f43616e6e6f74206265207265766f6b6564000000000000000000000000000000604482015260640161031c565b6002546040516370a0823160e01b81523060048201526000916001600160a01b0316906370a082319060240160206040518083038186803b1580156105c757600080fd5b505afa1580156105db573d6000803e3d6000fd5b505050506040513d601f19601f820116820180604052508101906105ff9190610c70565b9050600061060c60015490565b610615426101cf565b61061f9190610d2e565b9050600061062d8284610d2e565b90506106376103e9565b61064c6104a96000546001600160a01b031690565b600280547fffffffffffffffffffff00ffffffffffffffffffffffffffffffffffffffffff1675010000000000000000000000000000000000000000001790556040517f44825a4b2df8acb19ce4e1afba9aa850c8b65cdb7942e2078f27d0b0960efee690600090a1505050565b6000546001600160a01b031633146107145760405162461bcd60e51b815260206004820181905260248201527f4f776e61626c653a2063616c6c6572206973206e6f7420746865206f776e6572604482015260640161031c565b6001600160a01b0381166107905760405162461bcd60e51b815260206004820152602660248201527f4f776e61626c653a206e6577206f776e657220697320746865207a65726f206160448201527f6464726573730000000000000000000000000000000000000000000000000000606482015260840161031c565b6104bc816108e5565b60006107a460015490565b6002546040516370a0823160e01b81523060048201526001600160a01b03909116906370a082319060240160206040518083038186803b1580156107e757600080fd5b505afa1580156107fb573d6000803e3d6000fd5b505050506040513d601f19601f8201168201806040525081019061081f9190610c70565b6108299190610cd7565b905090565b6040516001600160a01b03808516602483015283166044820152606481018290526108df9085907f23b872dd00000000000000000000000000000000000000000000000000000000906084015b60408051601f198184030181529190526020810180517bffffffffffffffffffffffffffffffffffffffffffffffffffffffff167fffffffff000000000000000000000000000000000000000000000000000000009093169290921790915261099b565b50505050565b600080546001600160a01b038381167fffffffffffffffffffffffff0000000000000000000000000000000000000000831681178455604051919092169283917f8be0079c531659141344cd1fd0a4f28419497f9722a3daafe3b4186f6b6457e09190a35050565b6040516001600160a01b0383166024820152604481018290526109969084907fa9059cbb000000000000000000000000000000000000000000000000000000009060640161087b565b505050565b60006109f0826040518060400160405280602081526020017f5361666545524332303a206c6f772d6c6576656c2063616c6c206661696c6564815250856001600160a01b0316610a809092919063ffffffff16565b8051909150156109965780806020019051810190610a0e9190610c38565b6109965760405162461bcd60e51b815260206004820152602a60248201527f5361666545524332303a204552433230206f7065726174696f6e20646964206e60448201527f6f74207375636365656400000000000000000000000000000000000000000000606482015260840161031c565b6060610a8f8484600085610a99565b90505b9392505050565b606082471015610b115760405162461bcd60e51b815260206004820152602660248201527f416464726573733a20696e73756666696369656e742062616c616e636520666f60448201527f722063616c6c0000000000000000000000000000000000000000000000000000606482015260840161031c565b843b610b5f5760405162461bcd60e51b815260206004820152601d60248201527f416464726573733a2063616c6c20746f206e6f6e2d636f6e7472616374000000604482015260640161031c565b600080866001600160a01b03168587604051610b7b9190610c88565b60006040518083038185875af1925050503d8060008114610bb8576040519150601f19603f3d011682016040523d82523d6000602084013e610bbd565b606091505b5091509150610bcd828286610bd8565b979650505050505050565b60608315610be7575081610a92565b825115610bf75782518084602001fd5b8160405162461bcd60e51b815260040161031c9190610ca4565b600060208284031215610c22578081fd5b81356001600160a01b0381168114610a92578182fd5b600060208284031215610c49578081fd5b81518015158114610a92578182fd5b600060208284031215610c69578081fd5b5035919050565b600060208284031215610c81578081fd5b5051919050565b60008251610c9a818460208701610d45565b9190910192915050565b6020815260008251806020840152610cc3816040850160208701610d45565b601f01601f19169190910160400192915050565b60008219821115610cea57610cea610d71565b500190565b600082610d0a57634e487b7160e01b81526012600452602481fd5b500490565b6000816000190483118215151615610d2957610d29610d71565b500290565b600082821015610d4057610d40610d71565b500390565b60005b83811015610d60578181015183820152602001610d48565b838111156108df5750506000910152565b634e487b7160e01b600052601160045260246000fdfea2646970667358221220f49b356a3b45af3589da429e5325b55c18e6f6fd58e16b1de9be7c5b970d3dc864736f6c63430008040033",
  "devdoc": {
    "details": "This contract handles the vesting of ERC20 tokens for a given beneficiary. Custody of multiple tokens can be given to this contract, which will release the token to the beneficiary following a given vesting schedule. The vesting schedule is customizable through the {vestedAmount} function. Any token transferred to this contract will follow the vesting schedule as if they were locked from the beginning. Consequently, if the vesting has already started, any amount of tokens sent to this contract will (at least partly) be immediately releasable.",
    "kind": "dev",
    "methods": {
      "beneficiary()": {
        "details": "Getter for the beneficiary address."
      },
      "constructor": {
        "details": "Set the beneficiary, start timestamp and vesting duration of the vesting wallet."
      },
      "duration()": {
        "details": "Getter for the vesting duration."
      },
      "owner()": {
        "details": "Returns the address of the current owner."
      },
      "receiveToken(uint256)": {
        "details": "The ORCA received will be logged with {PaymentReceived} events."
      },
      "release()": {
        "details": "Release the tokens that have already vested. Emits a {TokensReleased} event."
      },
      "renounceOwnership()": {
        "details": "Leaves the contract without owner. It will not be possible to call `onlyOwner` functions anymore. Can only be called by the current owner. NOTE: Renouncing ownership will leave the contract without an owner, thereby removing any functionality that is only available to the owner."
      },
      "start()": {
        "details": "Getter for the start timestamp."
      },
      "totalReleased()": {
        "details": "Getter for the total amount of Orca already released."
      },
      "transferOwnership(address)": {
        "details": "Transfers ownership of the contract to a new account (`newOwner`). Can only be called by the current owner."
      },
      "vestedAmount(uint256)": {
        "details": "Calculates the amount that has already vested. Default implementation is a linear vesting curve."
      }
    },
    "title": "ERC20VestingWallet",
    "version": 1
  },
  "userdoc": {
    "kind": "user",
    "methods": {
      "revoke()": {
        "notice": "Allows the owner to revoke the vesting. Tokens already vested remain in the contract, the rest are returned to the owner."
      }
    },
    "version": 1
  },
  "storageLayout": {
    "storage": [
      {
        "astId": 4266,
        "contract": "apps/avai/src/contracts/VestingV2.sol:VestingWallet",
        "label": "_owner",
        "offset": 0,
        "slot": "0",
        "type": "t_address"
      },
      {
        "astId": 12830,
        "contract": "apps/avai/src/contracts/VestingV2.sol:VestingWallet",
        "label": "_totalReleased",
        "offset": 0,
        "slot": "1",
        "type": "t_uint256"
      },
      {
        "astId": 12839,
        "contract": "apps/avai/src/contracts/VestingV2.sol:VestingWallet",
        "label": "orca",
        "offset": 0,
        "slot": "2",
        "type": "t_contract(IERC20)5519"
      },
      {
        "astId": 12841,
        "contract": "apps/avai/src/contracts/VestingV2.sol:VestingWallet",
        "label": "_revocable",
        "offset": 20,
        "slot": "2",
        "type": "t_bool"
      },
      {
        "astId": 12843,
        "contract": "apps/avai/src/contracts/VestingV2.sol:VestingWallet",
        "label": "revoked",
        "offset": 21,
        "slot": "2",
        "type": "t_bool"
      }
    ],
    "types": {
      "t_address": {
        "encoding": "inplace",
        "label": "address",
        "numberOfBytes": "20"
      },
      "t_bool": {
        "encoding": "inplace",
        "label": "bool",
        "numberOfBytes": "1"
      },
      "t_contract(IERC20)5519": {
        "encoding": "inplace",
        "label": "contract IERC20",
        "numberOfBytes": "20"
      },
      "t_uint256": {
        "encoding": "inplace",
        "label": "uint256",
        "numberOfBytes": "32"
      }
    }
  }
}